:020000040800F2
:100000005047012099010008FD7B0008ED6F0008B2
:10001000ED770008FD0C0008FDD500080000000089
:100020000000000000000000000000004BA50008D8
:10003000370F000800000000FF010008C9A60008F3
:10004000B3010008B3010008B3010008B3010008C0
:10005000B3010008B3010008B3010008B3010008B0
:10006000B3010008B3010008B3010008B3010008A0
:10007000B3010008B3010008B3010008B301000890
:10008000B3010008B3010008B3010008B301000880
:10009000010D0008B3010008B3010008B301000816
:1000A000B3010008B3010008B3010008B301000860
:1000B000D1A70008B301000819A80008B30100087F
:1000C000B3010008B3010008B3010008B301000840
:1000D000B3010008D9B50008B3010008B301000856
:1000E000B3010008B3010008B3010008B301000820
:1000F000B3010008B3010008B3010008B301000810
:10010000B3010008B3010008B3010008B3010008FF
:10011000C1B00008B3010008B301000841A80008FD
:10012000B3010008B3010008B3010008B3010008DF
:10013000B30100080000000000000000B301000847
:10014000510D0008B3010008B3010008EB9100084D
:10015000B3010008B3010008B3010008B3010008AF
:10016000B3010008B3010008B3010008B30100089F
:10017000B3010008ED91000800000000000000003D
:10018000B3010008DFF80CD000F07AF9004800470E
:1001900069FE00085047012006488047064800478E
:1001A000FEE7FEE7FEE7FEE7FEE7FEE7FEE7FEE727
:1001B000FEE7FEE789A7000885010008EFF310803D
:1001C00072B6704780F3108870471D484FF0FF01EA
:1001D0000170002080F309881A48012101701A4833
:1001E0004FF08051016062B6FEE717484FF0805132
:1001F0000160704714484FF080510160704772B63B
:10020000EFF3098028B1203880E8F00F0F49096822
:10021000086000B50E4880475DF804EB0D480E49B4
:100220000A78027009480D490A680260106890E86F
:10023000F00F203080F309884EF0040E62B670474C
:1002400022ED00E0DF00002004ED00E0F8000020D7
:1002500029880008DC000020DD00002000010020CB
:100260002DE9F05F0546002092469B4688460646EB
:10027000814640241BE0284641464746224600F07E
:10028000B7F853465A46C01A914110D31146184642
:10029000224600F09EF82D1A67EB01084F462246D1
:1002A0000120002100F095F817EB00094E41201EB7
:1002B000A4F10104DFDC484631462A464346BDE846
:1002C000F09F40EA01039B0703D009E008C9121F11
:1002D00008C0042AFAD203E011F8013B00F8013B00
:1002E000521EF9D27047D2B201E000F8012B491E2C
:1002F000FBD270470022F6E710B513460A460446C3
:100300001946FFF7F0FF204610BD10B5044604E083
:100310000B7800F8013B03B1491C521EF8D220466D
:1003200010BDCAB2401E10F8011F8A4202D0002937
:10033000F9D100207047421C10F8011B0029FBD1A5
:10034000801A704710B5002200E0521C835C8C5C60
:10035000A34201D1002BF8D1D8B2E1B2401A10BDAE
:10036000034611F8012B00F8012B002AF9D1184699
:10037000704770B506460DF07FFA046805460A22FC
:100380000021304600F044F82C6070BD70B5064680
:100390000DF072FA046805460A220021304600F08A
:1003A00037F82C6070BD30B50B4601460020202286
:1003B000012409E021FA02F59D4205D303FA02F572
:1003C000491B04FA02F52844151EA2F10102F1DCD2
:1003D00030BD202A04DB203A00FA02F100207047E9
:1003E0009140C2F1200320FA03F319439040704773
:1003F000202A04DB203A21FA02F00021704721FA7A
:1004000002F3D040C2F120029140084319467047E0
:100410002DE9F04791460F4680460446002614F821
:10042000015B2DB100F03EF80068405DC007F6D1D9
:100430002B2D02D02D2D18D0641E4A463946204659
:1004400000F034F827B13968A14201D1C7F8008023
:1004500071054FF002040BD54042002803DD0DF07A
:100460000BFA0460A007BDE8F08746F48066E4E775
:100470000028F8DA0DF000FA04606FF00040F2E7AF
:10048000064C074D06E0E06840F0010394E80700E1
:1004900098471034AC42F6D3FFF778FEC8560108EF
:1004A000E856010800487047E44B01082DE9F05F69
:1004B00082460078002715468B460AF10104B946AA
:1004C000302801D09DB113E014F8010B01277828E2
:1004D00003D0582801D045B10AE00DB1102D07D145
:1004E0000027102514F8010B02E0082500E00A257A
:1004F0000026B0460EE005FB080005FB06F10127CB
:1005000001EB10461FFA80F8B6F5803F00D3B946DC
:1005100014F8010B294600F018F80028EBDABBF1BB
:10052000000F05D00FB1641E00E05446CBF8004028
:10053000B9F1000F06D00DF09FF902210160C81E2D
:10054000BDE8F09F48EA0640FAE73A2800D2303882
:1005500020F02002412A01D3A2F13700884201D3C2
:100560004FF0FF30704770B58C1810F8015B15F034
:10057000070301D110F8013B2A1106D110F8012B15
:1005800003E010F8016B01F8016B5B1EF9D12B073A
:1005900005D40023521E0DD401F8013BFAE710F8F0
:1005A000013BCB1A921C03E013F8015B01F8015BDD
:1005B000521EF9D5A142D8D3002070BD10B506F067
:1005C00039FDBDE8104004F036B970B515460E4649
:1005D000044608E02046641CA4B200F007F86D1E33
:1005E00006F8010BADB2002DF4D170BD10B5044674
:1005F00006F0C6FDA02006F093FD06F005FE200AD9
:1006000006F08EFD06F000FEE0B206F089FD06F071
:10061000FBFD06F0B5FDA12006F082FD06F0F4FD1D
:10062000002006F04DFD044606F0CCFD204610BD2E
:1006300070B514460D46064606E02978304600F0AF
:1006400007F8761CB6B26D1C641EA4B2F5D270BD5C
:1006500070B50D46044606F093FDA02006F060FD3F
:1006600006F0D2FD200A06F05BFD06F0CDFDE0B2FB
:1006700006F056FD06F0C8FD284606F051FD06F0CE
:10068000C3FD06F09FFDBDE870400A200DF07ABE64
:100690007CB52148214C4FF48075C1684FF47A70C5
:1006A00048430A22B0FBF2F00190206899B1A1F50D
:1006B000C3329F3A09D0694607F03BFC184B1949F1
:1006C000C6074FF000020BD108E06B460022294616
:1006D00007F0D4FB7CBD6B460122F8E7C00304D5CC
:1006E0000A601A706B46002213E00868019EB0424F
:1006F00003D200F1010008607CBDFDD100F10100D2
:1007000008604FF0010018709A700FF081FB6B4683
:10071000012229462068DBE75C15002050010020FB
:1007200058000020780000203EB525490A20254CBD
:100730004A8BB2FBF0F2019289684FF47A724A4315
:10074000B2FBF0F00290E06981B1A1F5C3329F3AAB
:1007500006D0694607F0EDFB1B49C2070BD108E044
:100760006B460022042107F089FB3EBD6B46012247
:10077000F8E7C20304D500206B46024608601CE07F
:100780004007F2D40868401C0860019A4FF4805179
:10079000904202D16B46012210E0029A9042E4D9C5
:1007A0006B460022E06907F069FB6946E06907F0E3
:1007B000C0FB4002D9D46B4601220421E069D2E794
:1007C0005C150020340100207400002010B505F0F5
:1007D0000BF909F087FF00F0AFFBFFF7EFFE06F023
:1007E000C3FF06F0D1FF06F0E5FF0FF0F3FC06F0C3
:1007F00055FD0AF08DFE0CF08DFF0AF013FC00F0A1
:10080000F7FABDE8104009F0EDB900002DE9FF4FFF
:100810002D20B0FBF1F081B0491E01989B4600EB02
:10082000800202EB401090FBF1F00004000CC6B215
:1008300000D1032603980025012100F1010900F1F0
:10084000020801EBD604B5EBD60F11D0AC420FD0A5
:100850002A460020039903F0A1FF09F0FF012A4670
:10086000FF2003F09BFF08F0FF012A46002033E041
:10087000F008DFF84CA106F0070700901AF807000F
:10088000009A039903F08AFF1AF8070009F0FF01A4
:10089000C0F1FF00009A03F081FF08F0FF011AF891
:1008A0000700009A03F07AFF062C17D20AF1090A12
:1008B00022461AF80700039903F070FF1AF80700A0
:1008C000224609F0FF01C0F1FF0003F067FF224656
:1008D00008F0FF011AF8070003F060FF6D1CEDB28D
:1008E000062DB0D3012004F0E1F901980025401C49
:1008F000C6B26420B6FBF0F4ABF10C00C1B23CB15F
:1009000004F13000C0B2072204F03EF8012503E0F4
:100910000722202004F038F82720444306EB840007
:10092000C4B20A26B4FBF6F2ABF1060002B925B157
:10093000C1B23032D0B2072202E0C1B20722202079
:1009400004F022F8B4FBF6F006FB10403030C0B2E1
:100950000722594604F018F81A4F3878012828D988
:10096000002422E01849001B0844624210F8010CE0
:100970000BEBC205401CC0B2B0FBF6F106FB110048
:10098000A5F108013030C9B2C0B2072203F0FCFF64
:10099000681EC1B20722102003F000FFE9B207224F
:1009A000102003F0FBFE641CE4B23878411E8C4238
:1009B000D8DB05B00020BDE8F04F04F077B90000A7
:1009C000A3210108A800002012150020F8B500247A
:1009D00015460E460746012B04D07823009404F0F8
:1009E0003DF8F8BD012004F087F978232A46314606
:1009F0003846009404F032F8BDE8F840002004F0D6
:100A00007BB900002DE9F047DFF8C8A0DFF8C88007
:100A10009AF80000032803D9032288F8002001E097
:100A200088F800002D4900242D4F09782D4E01290A
:100A300002D0022905D010E008F014FC3C7034709C
:100A40000FE098F800103278491E8A4200DD3470B9
:100A50003A78411E8A4200DD3C7039783278914202
:100A600002D33878317800E0511A401AC4B2002518
:100A7000DFF8749020E03878844208D13178490654
:100A80000A0ED9F80010012351F8200006E068068C
:100A9000020ED9F80000002350F824000021FFF7CF
:100AA00095FF9AF80000401E844201D1002401E025
:100AB000641CE4B26D1CEDB298F800008542DAD3F4
:100AC0009AF800103878BDE8F04778237D22FFF7C8
:100AD0009DBE0000AC000020AE000020A20000205F
:100AE000AB000020AD000020B00000202DE9F04751
:100AF000DFF8E480374E98F800403178601EC2B2CB
:100B000071B1481E3070354F354D3B7828684BB178
:100B10005A06120E5B1E3B7050F82100002337E08E
:100B20003270F0E7032C2ED934784FF0000A524689
:100B3000A94650F8240001235146FFF747FF98F8D3
:100B40000000401E844201D1002401E0641CE4B294
:100B500001256806020ED9F800000023194650F856
:100B60002400FFF733FF98F80000401E844201D1B3
:100B7000002401E0641CE4B26D1CEDB2032DE8D347
:100B800087F800A012E03A7050F8210000231A46BE
:100B90000021FFF71BFF387831784006020E2868E5
:100BA000012350F821000021FFF710FF78237D2258
:100BB00098F800103078FFF729FE0B4909480978AA
:100BC00000EB4100002130F8020CBDE8F04706F0D0
:100BD0005DBB0000AB000020AC000020AD00002099
:100BE000B0000020FC140020A70000202DE9F047F1
:100BF000DFF8F0803A4E002498F800203178501E3B
:100C0000814201D1347001E0481C30703748364FC2
:100C1000374D90F800C03B78ACF1010C2868634573
:100C200004D05A06120E5B1C3B7034E06FF00103D7
:100C3000032A2CD9347899460422AA4650F8240075
:100C400001230021FFF7C2FEBCB1641EE4B20225FD
:100C500009EB4500C2B2DAF800000023194650F84B
:100C60002400FFF7B3FE6CB1641EE4B26D1E15F0F4
:100C7000FF05EDD1022038701EE098F80000401EFC
:100C8000C4B2E4E798F80000401EC4B2EEE703EBFC
:100C900042023C70D2B250F8210000231946FFF7FF
:100CA00095FE387831784006020E2868012350F806
:100CB00021000021FFF78AFE78237D2298F800109A
:100CC0003078FFF7A3FD0C490A48097800EB410092
:100CD000002130F8020CBDE8F04706F0D7BA00005A
:100CE000AB000020AC000020AD000020AE000020D2
:100CF000B0000020FC140020A7000020FEE7000048
:100D000038B5114D00240A222146284604F0B4F9D2
:100D1000696BA5F10C000A8802800A7B8270097C4D
:100D2000C17006E06A6B04F11401515C0219641C85
:100D30001171C178A142F5D8044801226B465102D5
:100D4000006807F09BF838BDDCA5002050010020AA
:100D500038B5114D00240A222146284604F08CF9AA
:100D6000696BA5F150000A8802800A7B8270097CB9
:100D7000C17006E06A6B04F11401515C0219641C35
:100D80001171C178A142F5D8044801226B46510285
:100D9000006807F073F838BD20A60020500100203D
:100DA00010B5012901D0022902D10C31C9B2401E6F
:100DB0004B1C03EB43030524B3FBF4F302EB4101AB
:100DC0001944C217014400EB927201EBA2016422A4
:100DD00090FBF2F2891A4FF4C87290FBF2F00844CB
:100DE000072190FBF1F201FB1200401CC0B210BDC4
:100DF00010B5102104480DF029F8BDE8104010216D
:100E000002480DF023B80000006400400068004074
:100E10002DE9F04701270EF08FFF20F0C0004FF0C2
:100E200000093F2802D02D4AA2F800902C4C2D4DED
:100E30002D4E0B3807283ED2DFE800F00B211A04B4
:100E4000282F3600208800EB800005EB80004088CA
:100E500005E0208800EB800005EB80008088208082
:100E600000EB800005EB800000693060804723E0E4
:100E7000208800EB800005EB8000C088EFE7208829
:100E800000EB800005EB80000089E8E7208800EB9C
:100E9000800005EB80008089E1E7208800EB80007E
:100EA00005EB80004089DAE7208800EB800005EB45
:100EB0008000C089D3E70027DFF8308098F8000071
:100EC00048B1208800EB800005EB800000693060AD
:100ED000804788F800903846BDE8F087BC000020C5
:100EE000A4000020CC290108B8000020A2000020A6
:100EF00010B500210A4600EB8103491CC3F87C238E
:100F00000F29F8D300214FF400734418491C84F8CA
:100F10001C219942F9D30270427001218170C0F8FE
:100F2000B823017640238371427680F81C2380F831
:100F30001D13002010BD704738B5264900200A68EF
:100F400042F001020A600968234C01F0010100919E
:100F50004FF08041E060C4E90010204D4821297025
:100F60002061A060204605F013FC2068016841F074
:100F7000040101602068016A41F21112114207D197
:100F8000016A9210114203D1016821F00101016050
:100F9000062004F09BFD022200211C2004F076FDB7
:100FA0001C2004F067FD0E480E490068B0FBF1F10B
:100FB0004FF47A704143012068804FF0E0200269CD
:100FC00042F0020202614161016941F001010161E7
:100FD00038BD000040380240BC14002096000020BC
:100FE0002000002040420F0030B5212800D92138D0
:100FF000012202EB10431C4A127803FB02F41B4A45
:101000001568AC62B0FBF3F41568EC62B0FBF3F06A
:10101000D06010686FF00105056113680020586208
:101020001068036843F00103036041F211139C1040
:1010300011B1012911D004E010680169C907FCD081
:1010400005611068016A194206D1016A214203D183
:10105000016821F00101016030BD1068C16841F0F4
:101060000101C16030BD000096000020BC140020CA
:1010700010B50022114607A003F096FC02220021C1
:1010800007A003F091FC0422BDE81040002107A056
:1010900003F08ABC4275696C642054696D653A003E
:1010A00041707220313020323031390031393A32DA
:1010B000373A31330000000008F09EB82DE9F843BC
:1010C000234D2449DFF890802878244F00EB40001E
:1010D00001EB8002137988F8003051F82000386065
:1010E00003F044FC1E481F4C0078012805D108F08D
:1010F000B9F81D490020207008701026009621784C
:10110000386800227E2350F82100114603F0A6FC27
:1011100016482178022250F82100302103F068FDA2
:1011200000962878124900EB40007E2351F82000F9
:1011300006220021406803F091FC98F80010207806
:1011400001B07823BDE8F0437D22FFF75FBB0000CC
:10115000A600002020290108AC000020B0000020DB
:10116000A2000020AB000020AD000020B029010843
:101170009829010838B5164C164D207800B9287802
:101180000022401E207010200090134821787E23FA
:10119000006850F82100114603F060FC0F482178E8
:1011A000022250F82100302103F022FD78237D2215
:1011B00029782078FFF72AFB0A490948097800EBCB
:1011C0004100002130F8020CBDE8384006F05EB85E
:1011D000AB000020AC000020B0000020B0290108C6
:1011E000FC140020A700002038B5194D174C2978B1
:1011F0002078491E884201D1002000E0401C207068
:101200001020009013482178002200687E2350F8B7
:101210002100114603F022FC0F482178022250F8E9
:101220002100302103F0E4FC78237D222978207806
:10123000FFF7ECFA0A490948097800EB4100002160
:1012400030F8020CBDE8384006F020B8AB000020B2
:10125000AC000020B0000020B0290108FC140020E0
:10126000A7000020154810B501781648144A062931
:10127000007802EB40001DD2DFE801F003080D10FA
:10128000151503F073FB012110200FE003F06EFB36
:10129000012118200AE00121D02007E003F066FBBD
:1012A0000221202002E030F8020C0021BDE81040AD
:1012B00005F0ECBF00210846F8E70000AB00002075
:1012C000FC140020A700002007F096BF704770476D
:1012D0007047000008B503F049FB10200090074854
:1012E00007497E230078032200EB400051F82000DC
:1012F0000021006803F0B2FB08BD0000A60000203A
:10130000082901087047704707F076BF07F074BFDF
:10131000704770477047000008B503F027FB14487A
:10132000154A164B007800EB4001124800EB810093
:10133000106002791A70124A00687E231060102033
:1013400000901048062250F821000021406803F068
:1013500085FB0D480078022806D107F083FF0B4972
:10136000002008700A490870BDE80840FFF74ABB32
:10137000A6000020B8270108B4000020AC0000201F
:10138000B000002098290108A2000020AB00002036
:10139000AD000020FFF7AABBFFF728BC0B48007880
:1013A00050B101280CD00B490948097800EB4100E5
:1013B000002130F8020C06E002214FF4947002E0A4
:1013C00002214FF4987005F061BF0000AB000020CF
:1013D000FC140020A700002007F00EBF70477047E4
:1013E0007047000038B51C480078012817D11B4809
:1013F00000241BA104701B48FEF7B2FF19481AA174
:101400001130FEF7ADFF194819A2042190F8973367
:10141000144812380CF01CFA12481238447403F0C5
:10142000A5FA10200090144814497E230078012268
:1014300000EB400051F820001149097850F82100D4
:10144000002103F00BFB01B01023BDE830407E22E9
:101450000421332007F07EBFA2000020AD00002051
:101460003030300038150020393939005C15002043
:101470002530336400000000A60000205029010838
:10148000AB00002010B507F019FF0321BDE81040A4
:10149000F02005F0FBBE10B507F026FF0321BDE8E4
:1014A0001040F02005F0F2BE2DE9F0411848FEF79B
:1014B00060FF84B27F2C0AD916481749007800EBE8
:1014C000400051F82000006802F0B8FE19E0134D0A
:1014D00040F2993605F2973185F8974301220F467D
:1014E0003046FFF7A5F8012239463046FFF76DF880
:1014F00095F89703A04201D1012000E0002002F0FE
:10150000B3FEBDE8F0410321F02005F0BFBE0000AE
:1015100026150020A6000020902801085C15002058
:1015200007F06ABE704770477047000038B51C4826
:101530000078012817D11B4800241BA104701B4808
:10154000FEF70EFF19481AA11130FEF709FF1948DE
:1015500019A2042190F89833144812380CF078F945
:1015600012481238447403F001FA10200090144815
:1015700014497E230078012200EB400051F820003E
:101580001149097850F82100002103F067FA01B0F1
:101590001023BDE830407E220421332007F0DABE5C
:1015A000A2000020AD0000203030300038150020AF
:1015B000393939005C150020253033640000000003
:1015C000A600002050290108AB00002010B507F04C
:1015D00075FE0321BDE81040F82005F057BE10B598
:1015E00007F082FE0321BDE81040F82005F04EBE52
:1015F0002DE9F0411848FEF7BCFE84B27F2C0AD9D1
:1016000016481749007800EB400051F820000068A8
:1016100002F014FE19E0134D40F29A3605F566719A
:1016200085F8984301220F463046FFF701F8012262
:1016300039463046FEF7C9FF95F89803A04201D11C
:10164000012000E0002002F00FFEBDE8F041032180
:10165000F82005F01BBE000026150020A600002083
:10166000902801085C15002007F0C6BD7047704740
:10167000704700002DE9FE43404F0024404E38786B
:10168000404D4FF02008012825D13F483FA104706C
:1016900005F11200FEF764FE3FA105F12300FEF7FD
:1016A0005FFEAC76472085F82B000120708030204B
:1016B000287068703120A87085F803802D21297169
:1016C00069713E213748A97185F8078090F8250295
:1016D00028726C726C74387803282BD1687C0828C7
:1016E00028D00322274901A8FEF70FFE8DF80740F6
:1016F0002448FEF73EFE84B2FF2C12D92A482B491B
:10170000007800EB400051F82000006802F096FDE0
:10171000748827A2234604211A480CF099F885F80A
:1017200003807088A04205D01E487480204490F841
:101730002402287203F01AF9102000907E2301225F
:1017400000211DA003F08AF910237E2204211B2012
:1017500007F000FE687C082802D1022003F0CCFAD2
:10176000287A1949042251F820005B2103F01CF962
:10177000002003F0C1FABDE8FE830000A2000020B3
:10178000BE00002026150020AD00002030303020A3
:101790002D2D3E2030000000323939202D2D3E20E5
:1017A000780000005C150020A600002090280108A9
:1017B0002530336400000000C9E8B1B8BAC5202064
:1017C000C6B4D2F4000000008444010810B507F04C
:1017D00075FDBDE8104003214FF4A07005F056BD23
:1017E00010B507F081FDBDE8104003214FF4A07053
:1017F00005F04CBD2DE9FC4103221F496846FEF768
:1018000084FD00208DF803001B48FEF7B2FD80B276
:10181000FF280AD919481A49007800EB400051F80E
:101820002000006802F00AFD1EE0164A124D14184E
:10183000A71A297A84F8241204F5097107F22627D9
:101840000E46B8B20122FEF7F3FE3146B8B20122CD
:10185000FEF7BBFE287A94F82412884201D10120B9
:1018600000E0002002F000FD03214FF4A07005F01D
:101870000DFDBDE8FC81000026150020A60000201B
:10188000902801085C15002007F0B6BC704770472F
:10189000704700000D4808B50078012804D10C49B4
:1018A000002008700B49087003F060F810200090C9
:1018B00009480A497E230078032200EB400051F8D2
:1018C00020000021006903F0C9F808BDA200002033
:1018D000AB000020AD000020A600002098290108E0
:1018E0007047704710B503F06BFA012002F0BCFCA2
:1018F00007F082FC0221BDE81040102005F0C6BCB4
:1019000007F07ABC704770477047000008B503F0D5
:101910002DF80F48104A114B007800EB40010D489C
:1019200000EB8100106002791A700D4A00687E2376
:101930001060102000900B48062250F82100002172
:10194000406803F08BF8BDE80840FFF75BB8000083
:10195000A600002018280108B4000020AC000020D8
:10196000B000002098290108FFF7C0B8FFF73EB982
:101970000D4810B5007850B101280DD00C490B4826
:10198000097800EB4100002130F8020C08E007F074
:1019900069FC0121D82003E007F064FC0121E0206C
:1019A000BDE8104005F072BCAB000020FC14002024
:1019B000A700002007F020BC704770477047000068
:1019C000F8B52848007801282ED12748002627A1FD
:1019D00006702948FEF7C4FC274828A11130FEF7FD
:1019E000BFFC254C3220123C002220703020607059
:1019F0002549264804F09EFB234D25A20321EB78C0
:101A0000A01C0BF025FF2F2727716B7820A2032144
:101A1000601D0BF01DFFE771AB781DA2032104F1DF
:101A200008000BF015FF667402F0A0FF1020009074
:101A300019481A497E230078012200EB400051F832
:101A400020001749097850F82100002103F006F81A
:101A500001B01023BDE8F0407E220421172007F0DA
:101A600079BC0000A2000020AD00002032303030F0
:101A70002F30312F30300000381500203230393906
:101A80002F31392F333900007B01002024B700208B
:101A90002530326400000000A6000020182801084C
:101AA000AB00002010B507F009FC0321BDE8104091
:101AB000E02005F0EBBB10B507F016FC0321BDE8F4
:101AC0001040E02005F0E2BB38B51BA01B4D0068BC
:101AD00000900222A91C6846FEF717FC6846FEF734
:101AE00048FC174C0222691DE0706846FEF70DFCA9
:101AF0006846FEF73EFC6070022205F10801684668
:101B0000FEF703FC6846FEF734FCC2B2A270E07830
:101B1000617800F5FA60FFF743F920700022214652
:101B2000084804F0ABFB012002F09EFB0321E020FB
:101B300005F0ACFB38BD00002A2A00002615002065
:101B40007B01002024B7002007F056BB7047704788
:101B5000704700002DE9FE43404F0024404E387886
:101B6000404D4FF02008012825D13F483FA1047087
:101B700005F11200FEF7F4FB3FA105F12300FEF78B
:101B8000EFFBAC76192085F82B0001203080302047
:101B9000287068703120A87085F803802D21297184
:101BA00069713E213748A97185F8078090F82501B1
:101BB00028726C726C74387803282BD1687C0828E2
:101BC00028D00322274901A8FEF79FFB8DF8074084
:101BD0002448FEF7CEFB84B2FF2C12D92A482B49A9
:101BE000007800EB400051F82000006802F026FB6E
:101BF000348827A2234604211A480BF029FE85F8D1
:101C000003803088A04205D01E483480204490F8DC
:101C10002401287202F0AAFE102000907E230122E7
:101C200000211DA002F01AFF10237E2204211B2098
:101C300007F090FB687C082802D1022003F05CF8D2
:101C4000287A1949042251F820005B2102F0ACFEE9
:101C5000002003F051F8BDE8FE830000A200002040
:101C6000BE00002026150020AD00002030303020BE
:101C70002D2D3E2030000000393939202D2D3E20F9
:101C8000780000005C150020A600002090280108C4
:101C90002530336400000000C9E8B1B8BAC520207F
:101CA000D7D6B7FB000000001C44010810B507F0B0
:101CB00005FBBDE8104003214FF49C7005F0E6BA27
:101CC00010B507F011FBBDE8104003214FF49C70E4
:101CD00005F0DCBA2DE9FC4103221F496846FEF7F6
:101CE00014FB00208DF803001B48FEF742FB80B276
:101CF000FF280AD919481A49007800EB400051F82A
:101D00002000006802F09AFA1EE0164A124D1418DC
:101D1000A71A297A84F8241104F5927107F59377AC
:101D20000E46B8B20122FEF783FC3146B8B201225A
:101D3000FEF74BFC287A94F82411884201D1012047
:101D400000E0002002F090FA03214FF49C7005F0AF
:101D50009DFABDE8FC81000026150020A6000020A9
:101D6000902801085C15002007F046BA70477047BC
:101D7000704700000D4808B50078012804D10C49CF
:101D8000002008700B49087002F0F0FD1020009050
:101D900009480A497E230078032200EB400051F8ED
:101DA00020000021006902F059FE08BDA2000020B9
:101DB000AB000020AD000020A600002098290108FB
:101DC0007047704710B507F0FFFF012002F04CFA92
:101DD00007F012FA0221BDE81040102005F056BAB3
:101DE00007F00ABA08B502F0C1FD0F48104A114BBE
:101DF000007800EB40010D4800EB81001060027993
:101E00001A700D4A00687E231060102000900B4865
:101E1000062250F821000021406802F01FFEBDE8B4
:101E20000840FEF7EFBD0000A60000203829010899
:101E3000B4000020AC000020B00000209829010868
:101E4000FEF754BEFEF7D2BE1B4810B50078072837
:101E500028D2DFE800F004090E11141A1F0007F061
:101E600001FA0121402019E007F0FCF90121482086
:101E700014E00221A82011E00221C8010EE007F0C1
:101E8000F1F901214FF4847008E007F0EBF901212A
:101E9000502003E007F0E6F90121E820BDE81040FA
:101EA00005F0F4B906490548097800EB4100002126
:101EB00030F8020CF2E70000AB000020FC14002018
:101EC000A700002007F098B97047704770470000DE
:101ED00008B502F04BFD1548164A174B007800EB89
:101EE0004001134800EB8100106002791A70134A18
:101EF00000687E231060102000901148062250F8E0
:101F000021000021806802F0A9FD0E480078022817
:101F100008D107F0A7F90C480C4990F82100087087
:101F20000B490870BDE80840FEF76CBDA600002014
:101F300048280108B4000020AC000020B0000020B8
:101F400098290108A20000205C150020AB000020A9
:101F5000AD000020FEF7CABDFEF748BE70B507F021
:101F600081F902F003FD0E480E4D0E49047821312F
:101F700005F8214F01220E462320FEF759FB0122CE
:101F800031462320FEF721FB2878A04201D1012011
:101F900000E0002002F068F9BDE8704007F02CB9BD
:101FA000AB0000205C15002007F026B97047704791
:101FB0007047000008B502F0D9FC1448154A164BCA
:101FC000007800EB4001124800EB810010600279BC
:101FD0001A70124A00687E2310601020009010488A
:101FE000062250F821000021406802F037FD0D481C
:101FF0000078022806D107F035F90B490020087057
:102000000A490870BDE80840FEF7FCBCA6000020A5
:1020100030280108B4000020AC000020B0000020EF
:1020200098290108A2000020AB000020AD0000208C
:10203000FEF75CBDFEF7DABD184810B5007805283C
:1020400023D2DFE800F003080D13190007F00AF9A6
:102050000121C02015E007F005F90121C82010E09A
:1020600007F000F901214FF488700AE007F0FAF850
:1020700001214FF48C7004E007F0F4F801214FF4D3
:102080009070BDE8104005F001B906490448097890
:1020900000EB4100002130F8020CF2E7AB00002019
:1020A000FC140020A700002007F0A6B87047704776
:1020B0007047000008B502F059FC1548164A174B46
:1020C000007800EB4001134800EB810010600279BA
:1020D0001A70134A00687E23106010200090114887
:1020E000062250F821000021806802F0B7FC0E485B
:1020F0000078022808D107F0B5F80C480C4990F890
:10210000960308700B490870BDE80840FEF77ABCDA
:10211000A600002000280108B4000020AC00002028
:10212000B000002098290108A20000205C150020C2
:10213000AB000020AD000020FEF7D8BCFEF756BD76
:102140002DE9F04107F08EF802F010FC0F48104D19
:102150004FF46676047805F2963185F896430122AD
:102160000F463046FEF764FA012239463046FEF744
:102170002CFA95F89603A04201D1012000E000203E
:1021800002F072F8BDE8F04107F036B8AB0000206D
:102190005C15002007F030B838B502F0E7FB144CAE
:1021A000154A164B207800EB4001124800EB8100E5
:1021B000106002791A70124A00687E2310601020A5
:1021C00000901048062250F821000021806802F09B
:1021D00045FC0D480078022806D107F043F80B496A
:1021E000207808700A490870BDE83840FEF70ABC3C
:1021F000A600002080290108B4000020AC000020C7
:10220000B000002098290108A2000020AB000020A7
:10221000AD000020FEF76ABCFEF7E8BC10B507F081
:1022200021F802F0A3FB0E480E4C007808B10128FB
:1022300003D120700A2002F09BFB20780A4C022276
:10224000A11C60800420FEF7F3F90222A11C0420E7
:10225000FEF7BBF902F08AFBBDE8104006F0CCBFE8
:10226000AB000020A60000205C15002006F0C4BFD3
:102270007047704770470000F8B51748174C184D65
:102280000078012808D117481749007F20700020E6
:10229000087016492879087002F068FB144F102660
:1022A00000963878134900EB40007E2351F8200057
:1022B00001220021406A02F0D1FB00963878217893
:1022C00000EB40007E2355F82000042250F8210046
:1022D000002102F0C3FBF8BDA2000020AB000020EB
:1022E000602801085C150020AD000020AC00002033
:1022F000A60000205029010810B505F079FA032145
:10230000BDE81040902004F0C1BF10B505F086FA7A
:102310000321BDE81040902004F0B8BF70B50F4D08
:102320000F4C02222878A08304F11C010E461E20C7
:10233000FEF77EF9022231461E20FEF746F9A08BF9
:102340002978884201D1012000E0002001F08CFFB3
:10235000BDE870400321902004F098BFAB0000203E
:102360005C15002006F048BF7047704770470000BA
:1023700038B520480078012813D11F4800251F4C8C
:1023800005701FA021A2008860821EA00221008883
:10239000A4F823001C4890F8203020460BF058FA8F
:1023A000657402F0E3FA1B4C1020009020781A4963
:1023B00000EB40007E2351F82000184901220978E3
:1023C00050F82100002102F049FB10237E22042155
:1023D000332006F0BFFF2078114900EB400051F890
:1023E0002000104980680A780F490978BDE8384014
:1023F00002F0DABAA2000020AD000020261500206D
:1024000030000000390000005C15002025303164E8
:1024100000000000A600002050290108AB000020A9
:10242000A82801089D0000209C00002010B506F09F
:1024300045FF0321BDE81040A02004F027BF10B5E0
:1024400006F0A8FF0321BDE81040A02004F01EBF45
:1024500070B51048FDF78DFF0F4D0F49C4B2203104
:1024600005F8204F01220E462220FEF7E1F8012256
:1024700031462220FEF7A9F82878A04201D1012098
:1024800000E0002001F0F0FEBDE870400321A02034
:1024900004F0FCBE261500205C15002006F0ACBE42
:1024A0007047704770470000F8B51748174C184D33
:1024B0000078012808D117481749807F2070002034
:1024C000087016492879087002F050FA144F102647
:1024D00000963878134900EB40007E2351F8200025
:1024E00001220021806A02F0B9FA0096387821783A
:1024F00000EB40007E2355F82000042250F8210014
:10250000002102F0ABFAF8BDA2000020AB000020D1
:10251000782801085C150020AD000020AC000020E8
:10252000A60000205029010810B505F061F903212B
:10253000BDE81040982004F0A9BE10B505F06EF972
:102540000321BDE81040982004F0A0BE70B50F4DE7
:102550000F4C02222878E08304F11E010E46202051
:10256000FEF766F8022231462020FEF72EF8E08BB7
:102570002978884201D1012000E0002001F074FE9A
:10258000BDE870400321982004F080BEAB0000201D
:102590005C15002006F030BE7047704770470000A1
:1025A000F8B51848184C194D007801280AD1184878
:1025B00018490078C0F340002070002008701649C8
:1025C0002879087002F0D2F9144F10260096387856
:1025D000134900EB40007E2351F820000122002126
:1025E000C06802F03BFA00963878217800EB400092
:1025F0007E2355F82000042250F82100002102F02B
:102600002DFAF8BDA2000020AB000020F028010840
:102610005C150020AD000020AC000020A6000020CA
:10262000D828010810B505F0E3F80321BDE81040F3
:10263000482004F02BBE10B505F0F0F80321BDE8EA
:102640001040482004F022BE70B5114D114C0222FA
:102650002978208861F34100208021461046FDF74B
:10266000E7FF022221461046FDF7AFFF20782978C8
:10267000C0F34000884201D1012000E0002001F0B9
:10268000F3FDBDE870400321482004F0FFBD0000C9
:10269000AB0000205C15002006F0AEBD08B502F0CE
:1026A00065F90F48104A114B007800EB40010D48C6
:1026B00000EB8100106002791A700D4A00687E23D9
:1026C0001060102000900B48062250F821000021D5
:1026D000406802F0C3F9BDE80840FEF793B9000076
:1026E000A600002068290108B4000020AC000020EA
:1026F000B000002098290108FEF7F8B9FEF776BA75
:1027000010B506F0AFFD02F031F902F02FF9BDE887
:10271000104006F071BD06F06FBD704770477047FE
:10272000F8B51848184C194D007801280AD11848F6
:102730001849007800F00100207000200870164948
:102740002879087002F012F9144F10260096387894
:10275000134900EB40007E2351F8200001220021A4
:10276000806802F07BF900963878217800EB400011
:102770007E2355F82000042250F82100002102F0A9
:102780006DF9F8BDA2000020AB000020F028010880
:102790005C150020AD000020AC000020A600002049
:1027A000D828010810B505F023F80321BDE8104032
:1027B000402004F06BBD10B505F030F80321BDE8F2
:1027C0001040402004F062BD70B5114D114C022242
:1027D0002978208861F30000208021461046FDF70B
:1027E00027FF022221461046FDF7EFFE20782978C8
:1027F00000F00100884201D1012000E0002001F03A
:1028000033FDBDE870400321402004F03FBD0000CF
:10281000AB0000205C15002006F0EEBC08B502F00D
:10282000A5F80F48104A114B007800EB40010D4805
:1028300000EB8100106002791A700D4A00687E2357
:102840001060102000900B48062250F82100002153
:10285000406802F003F9BDE80840FEF7D3B8000075
:10286000A600002050290108B4000020AC00002080
:10287000B000002098290108FEF738B9FEF7B6B974
:10288000334810B50078102859D2DFE800F0080D61
:1028900012171C21262B30353A3F42454A4F06F08D
:1028A000E1FC0121302046E006F0DCFC012138206B
:1028B00041E006F0D7FC012158203CE006F0D2FCB4
:1028C0000121602037E006F0CDFC0121682032E0D4
:1028D00006F0C8FC012170202DE006F0C3FC0121A8
:1028E000782028E006F0BEFC0121802023E006F0DD
:1028F000B9FC012188201EE006F0B4FC01219820DB
:1029000019E006F0AFFC0121A02014E00221B02064
:1029100011E00121B8200EE006F0A4FC0121F02016
:1029200009E006F09FFC0121F82004E006F09AFC83
:1029300001214FF4A470BDE8104004F0A7BC064983
:102940000448097800EB4100002130F8020CF2E75E
:10295000AB000020FC140020A700002006F04CBCB7
:10296000704770477047000038B51C480078012850
:1029700017D11B4800241BA104701B48FDF7F0FC75
:1029800019481AA11130FDF7EBFC194819A20421CE
:1029900090F82330144812380AF05AFF12481238BF
:1029A000447401F0E3FF10200090144814497E2382
:1029B0000078012200EB400051F82000114909780D
:1029C00050F82100002102F049F801B01023BDE8C1
:1029D00030407E220421332006F0BCBCA20000203F
:1029E000AD00002030303000381500203939390072
:1029F0005C1500202530336400000000A600002094
:102A000030280108AB00002010B506F057FC032168
:102A1000BDE81040C02004F039BC10B506F064FCDD
:102A20000321BDE81040C02004F030BC70B5174849
:102A3000FDF79FFC84B2FF2C0AD915481549007890
:102A400000EB400051F82000006801F0F7FB16E0B1
:102A5000114D11490122233105F8234F0E4625203F
:102A6000FDF7E6FD012231462520FDF7AEFD287871
:102A7000A04201D1012000E0002001F0F5FBBDE8FB
:102A800070400321C02004F001BC00002615002086
:102A9000A6000020902801085C15002006F0ACBBC1
:102AA00070477047704700002DE9FE43314E334CAC
:102AB00020273178DFF8C080002504F108090129BA
:102AC00020D12F482FA1057004F11200FDF748FC1A
:102AD0002FA104F12300FDF743FC3020207060702B
:102AE0003120A070E7702D20207160713E20A07110
:102AF000E77198F8243029A2022148460AF0A8FE7E
:102B0000657265743078032821D1607C08281ED056
:102B100003221A4901A8FDF7F8FB8DF80750174862
:102B2000FDF727FC86B2FF2E07D9FF2633461DA2EC
:102B3000022112480AF08CFEE77008EB060017A28B
:102B400090F82430022148460AF082FE657201F0B6
:102B50000DFF102000907E230122002113A001F020
:102B60007DFF10237E220421132006F0F3FBBDE835
:102B7000FE830000A20000205C1500202615002026
:102B8000AD000020303030202D2D3E2030000000E0
:102B9000393939202D2D3E2039000000253031648F
:102BA000000000002530336400000000C5C5BAC530
:102BB0002020C9E8B1B8CAFD0000000010B506F039
:102BC0007DFB0321BDE81040C82004F05FBB10B5B9
:102BD00006F08AFB0321BDE81040C82004F056BB74
:102BE0002DE9FC4103221C496846FDF78EFB0025B8
:102BF0008DF803506846FDF7BCFB1749C4B20122AB
:102C000008316846FDF781FB8DF801506846FDF7F5
:102C1000B0FBC5B2114801220444271A04F1240173
:102C2000263784F824500E46B8B2FDF701FD314630
:102C3000B8B20122FDF7C9FC94F82400A84201D1E2
:102C4000012000E0002001F00FFB0321C82004F068
:102C50001DFBBDE8FC810000261500205C1500204E
:102C600006F0CABA704770477047000008B501F017
:102C70007DFE1548164A174B007800EB40011348BB
:102C800000EB8100106002791A70134A00687E23FD
:102C90001060102000901148062250F821000021F9
:102CA000806801F0DBFE0E480078022808D106F0AB
:102CB000D9FA0C480C4990F8220008700B490870AA
:102CC000BDE80840FDF79EBEA6000020D027010801
:102CD000B4000020AC000020B000002098290108BA
:102CE000A20000205C150020AB000020AD000020F9
:102CF000FDF7FCBEFDF77ABF70B506F0B3FA01F040
:102D000035FE0E480E4D0E490478223105F8224F4B
:102D100001220E462420FDF78BFC0122314624209F
:102D2000FDF753FC2878A04201D1012000E00020EB
:102D300001F09AFABDE8704006F05EBAAB000020E0
:102D40005C15002006F058BA7047704770470000C5
:102D500008B501F00BFE1548164A174B007800EB3A
:102D60004001134800EB8100106002791A70134A89
:102D700000687E231060102000901148062250F851
:102D800021000021406801F069FE0E480078022809
:102D900008D106F067FA0C480C4990F82200087038
:102DA0000B490870BDE80840FDF72CBEA6000020C6
:102DB000E8270108B4000020AC000020B00000208B
:102DC00098290108A20000205C150020AB0000201B
:102DD000AD000020FDF78ABEFDF708BF0E4810B514
:102DE000007850B101280ED00D490C48097800EB4D
:102DF0004100002130F8020C0AE006F033FA01210C
:102E00004FF49C7004E006F02DFA01214FF4A070FD
:102E1000BDE8104004F03ABAAB000020FC140020DA
:102E2000A700002006F0E8B970477047704700001F
:102E300038B51C480078012817D11B4800241BA175
:102E400004701B48FDF78CFA19481AA11130FDF7E0
:102E500087FA194819A2042190F82433144812382B
:102E60000AF0F6FC12481238447401F07FFD10207D
:102E70000090144814497E230078012200EB4000A2
:102E800051F820001149097850F82100002101F083
:102E9000E5FD01B01023BDE830407E22042133203F
:102EA00006F058BAA2000020AD00002030303000FB
:102EB00038150020393939005C150020253033647D
:102EC00000000000A600002030280108AB00002010
:102ED00010B506F0F3F9BDE8104003214FF48870F7
:102EE00004F0D4B910B506F0FFF9BDE81040032195
:102EF0004FF4887004F0CAB92DE9F0411848FDF785
:102F000038FA84B27F2C0AD916481749007800EBAA
:102F1000400051F82000006801F090F919E0134DCD
:102F200040F2263605F5497185F8244301220F4603
:102F30003046FDF77DFB012239463046FDF745FB63
:102F400095F82403A04201D1012000E0002001F007
:102F50008BF9BDE8F04103214FF4887004F096B975
:102F600026150020A6000020902801085C150020EE
:102F700006F042B9704770477047000038B51A48EC
:102F80000078012813D11948002419A104701948A8
:102F9000FDF7E6F9174818A11130FDF7E1F91548DA
:102FA00013A11238FDF7DCF912481238447401F00D
:102FB000DDFC10200090114811497E230078012289
:102FC00000EB400051F820000E49097850F821002C
:102FD000002101F043FD01B01023BDE830407E2206
:102FE0000421332006F0B6B9A2000020AD00002075
:102FF000303030003815002039393900A600002063
:1030000050290108AB00002010B506F057F9032144
:10301000BDE81040302004F039B910B506F064F96D
:103020000321BDE81040302004F030B938B51F4806
:10303000FDF79FF984B2FF2C0AD91D481D4900787D
:1030400000EB400051F82000006801F0F7F827E09D
:1030500019486B4600224FF48041006804F00EFFCF
:10306000E2B2FD21002007F0A9FF144D286805F009
:1030700081F88DF800006A464FF47A71286805F0EF
:1030800087F89DF800100A2905D00178A14204D0E4
:103090004078FD2801D0002000E0012001F0E4F894
:1030A0000321302004F0F2F838BD0000261500207E
:1030B000A600002090280108500100204C010020AB
:1030C00006F09AB8704770477047000038B522483C
:1030D0000078012816D12148002421A1047021483C
:1030E000FDF73EF91F4820A11130FDF739F91F48BF
:1030F0001FA2042183881B4812380AF0A9FB194833
:103100001238447401F032FC1B4C102000902078DF
:103110001A4900EB40007E2351F820001849012293
:10312000097850F82100002101F098FC10237E223C
:1031300004212B2006F00EF92078124900EB400004
:1031400051F82000104980680A7810490978BDE8D4
:10315000384001F029BC0000A2000020AD00002092
:103160003030300038150020393939005C15002026
:103170002530336400000000A6000020502901081B
:10318000AB000020A82801089D0000209C00002022
:1031900010B506F093F80321BDE81040382004F084
:1031A00075B810B506F0A0F80321BDE8104038202E
:1031B00004F06CB870B51548FDF7DBF884B2FF2C4D
:1031C0000AD913481349007800EB400051F8200059
:1031D000006801F033F813E00F4D0222291DAC8086
:1031E0000620FDF725FA0222291D0620FDF7EDF93C
:1031F000A888A04201D1012000E0002001F034F8AD
:10320000BDE870400321382004F040B826150020A6
:10321000A6000020902801085C15002005F0ECBFF6
:10322000704770477047000038B522480078012881
:1032300017D12148002421A104702148FDF790F8FE
:103240001F4820A11130FDF78BF81F481FA2032152
:1032500090F825331A4812380AF0FAFA184812384A
:10326000447401F083FB1B4C1020009020781A4915
:1032700000EB40007E2351F8200018490122097814
:1032800050F82100002101F0E9FB10237E220421E7
:103290002F2006F05FF82078114900EB400051F82C
:1032A0002000104940680A780F490978BDE8384085
:1032B00001F07ABBA2000020AD00002030300000F9
:1032C00038150020393900005C15002025303264A3
:1032D00000000000A600002030280108AB000020FC
:1032E000A82801089D0000209C00002010B505F0D2
:1032F000E5FFBDE8104003214FF48C7003F0C6BF1A
:1033000010B505F0F1FFBDE8104003214FF48C70BB
:1033100003F0BCBF2DE9F0411248FDF72AF8124D29
:10332000C4B205F2253140F2273685F82543012243
:103330000F463046FDF77CF9012239463046FDF74D
:1033400044F995F82503A04201D1012000E00020B6
:1033500000F08AFFBDE8F04103214FF48C7003F0C8
:1033600095BF0000261500205C15002005F044BF25
:10337000704770477047000038B522480078012830
:1033800016D12148002421A104702248FCF7E8FF4F
:10339000204821A11130FCF7E3FF214821A206219A
:1033A000C3681C4812380AF053FA1A481238447499
:1033B00001F0DCFA1D4C1020009020781C4900EB35
:1033C00040007E2351F820001A490122097850F864
:1033D0002100002101F042FB10237E220421232042
:1033E00005F0B8FF2078144900EB400051F82000A8
:1033F000124940680A7812490978BDE8384001F05E
:10340000D3BA0000A2000020AD00002030303030E0
:1034100030000000381500203939393939000000F2
:103420005C1500202530356400000000A600002057
:1034300050290108AB000020A82801089D000020A9
:103440009C00002010B505F039FF0321BDE81040B5
:10345000602003F01BBF10B505F046FF0321BDE857
:103460001040602003F012BF70B51048FCF78EFFCB
:103470000F4D044605F10C01E86004220E460E20B3
:10348000FDF7D6F8042231460E20FDF79EF8E868D5
:10349000A04201D1012000E0002000F0E5FEBDE8DF
:1034A00070400321602003F0F1BE000026150020CB
:1034B0005C15002005F0A0BE704770477047000003
:1034C00038B522480078012816D12148002421A1CE
:1034D00004702248FCF744FF204821A11130FCF77A
:1034E0003FFF214821A2062183681C4812380AF0B8
:1034F000AFF91A481238447401F038FA1D4C102004
:10350000009020781C4900EB40007E2351F82000F9
:103510001A490122097850F82100002101F09EFA91
:1035200010237E220421232005F014FF2078144963
:1035300000EB400051F82000124940680A78124917
:103540000978BDE8384001F02FBA0000A200002041
:10355000AD00002030303030300000003815002041
:1035600039393939390000005C15002025303564BF
:1035700000000000A600002050290108AB00002038
:10358000A82801089D0000209C00002010B505F02F
:1035900095FE0321BDE81040582003F077BE10B51A
:1035A00005F0A2FE0321BDE81040582003F06EBED6
:1035B00070B51048FCF7EAFE0F4D044605F108010E
:1035C000A86004220E460A20FDF732F80422314694
:1035D0000A20FCF7FAFFA868A04201D1012000E010
:1035E000002000F041FEBDE870400321582003F0A8
:1035F0004DBE0000261500205C15002005F0FCBD26
:10360000704770477047000038B52248007801289D
:1036100016D12148002421A104702248FCF7A0FE05
:10362000204821A11130FCF79BFE214821A2052151
:10363000438B1C4812380AF00BF91A4812384474AC
:1036400001F094F91D4C1020009020781C4900EBEB
:1036500040007E2351F820001A490122097850F8D1
:103660002100002101F0FAF910237E2204211F20FD
:1036700005F070FE2078144900EB400051F820005E
:10368000124900680A7812490978BDE8384001F00B
:103690008BB90000A2000020AD0000203030303097
:1036A00000000000381500203939393900000000C9
:1036B0005C1500202530346400000000A6000020C6
:1036C00050290108AB000020A82801089D00002017
:1036D0009C00002010B505F0F1FD0321BDE810406D
:1036E000882003F0D3BD10B505F0FEFD0321BDE831
:1036F0001040882003F0CABD70B51048FCF739FEB1
:103700000F4D84B205F11A016C8302220E461C2073
:10371000FCF78EFF022231461C20FCF756FF688B17
:10372000A04201D1012000E0002000F09DFDBDE895
:1037300070400321882003F0A9BD00002615002059
:103740005C15002005F058BD7047704770470000B9
:1037500038B522480078012817D12148002421A13A
:1037600004702248FCF7FCFD204821A11130FCF731
:10377000F7FD214821A20521B0F89A331B481238E1
:103780000AF066F819481238447401F0EFF81D4C3D
:103790001020009020781C4900EB40007E2351F857
:1037A00020001A490122097850F82100002101F077
:1037B00055F910237E220421272005F0CBFD207827
:1037C000134900EB400051F82000124940680A7884
:1037D00011490978BDE8384001F0E6B8A2000020A0
:1037E000AD000020303030300000000038150020DF
:1037F00039393939000000005C1500202530346467
:1038000000000000A600002050290108AB000020A5
:10381000A82801089D0000209C00002010B505F09C
:103820004DFDBDE8104003214FF4A47003F02EBD00
:1038300010B505F059FDBDE8104003214FF4A47008
:1038400003F024BD2DE9F0411248FCF792FD124D22
:1038500084B205F29A314FF46776A5F89A430222B2
:103860000F463046FCF7E4FE022239463046FCF7AC
:10387000ACFEB5F89A03A04201D1012000E000207F
:1038800000F0F2FCBDE8F04103214FF4A47003F016
:10389000FDBC0000261500205C15002005F0ACBC26
:1038A000704770477047000038B5224800780128FB
:1038B00016D12148002421A104702248FCF750FDB4
:1038C000204821A11130FCF74BFD214821A2052100
:1038D000038B1C48123809F0BBFF1A481238447495
:1038E00001F044F81D4C1020009020781C4900EB9A
:1038F00040007E2351F820001A490122097850F82F
:103900002100002101F0AAF810237E2204211F20AB
:1039100005F020FD2078144900EB400051F820000C
:10392000124900680A7812490978BDE8384001F068
:103930003BB80000A2000020AD0000203030303045
:103940000000000038150020393939390000000026
:103950005C1500202530346400000000A600002023
:1039600050290108AB000020A82801089D00002074
:103970009C00002010B505F0A1FC0321BDE810401B
:10398000802003F083BC10B505F0AEFC0321BDE838
:103990001040802003F07ABC70B51048FCF7E9FCB9
:1039A0000F4D84B205F118012C8302220E461A2015
:1039B000FCF73EFE022231461A20FCF706FE288B59
:1039C000A04201D1012000E0002000F04DFCBDE844
:1039D00070400321802003F059BC00002615002010
:1039E0005C15002005F008BC704770477047000068
:1039F00038B522480078012816D12148002421A199
:103A000004702248FCF7ACFC204821A11130FCF7DF
:103A1000A7FC214821A2052103691C48123809F09E
:103A200017FF1A481238447400F0A0FF1D4C1020F4
:103A3000009020781C4900EB40007E2351F82000C4
:103A40001A490122097850F82100002101F006F8F6
:103A500010237E2204211F2005F07CFC20781449CD
:103A600000EB400051F82000124900680A78124922
:103A70000978BDE8384000F097BF0000A2000020A0
:103A8000AD0000203030303000000000381500203C
:103A900039393939000000005C15002025303464C4
:103AA00000000000A600002050290108AB00002003
:103AB000A82801089D0000209C00002010B505F0FA
:103AC000FDFB0321BDE81040682003F0DFBB10B50B
:103AD00005F00AFC0321BDE81040682003F0D6BBC6
:103AE00070B51048FCF745FC0F4D84B205F110018C
:103AF000286104220E461220FCF79AFD042231466A
:103B00001220FCF762FD2869A04201D1012000E0EB
:103B1000002000F0A9FBBDE870400321682003F0FD
:103B2000B5BB0000261500205C15002005F064BB25
:103B3000704770477047000038B522480078012868
:103B400016D12148002421A104702248FCF708FC6A
:103B5000204821A11130FCF703FC214821A20521B6
:103B6000838A1C48123809F073FE1A4812384474CC
:103B700000F0FCFE1D4C1020009020781C4900EB4A
:103B800040007E2351F820001A490122097850F89C
:103B90002100002100F062FF10237E220421272053
:103BA00005F0D8FB2078144900EB400051F82000C4
:103BB000124940680A7812490978BDE8384000F097
:103BC000F3BE0000A2000020AD00002030303030F5
:103BD0000000000038150020393939390000000094
:103BE0005C1500202530346400000000A600002091
:103BF00050290108AB000020A82801089D000020E2
:103C00009C00002010B505F059FB0321BDE81040D1
:103C1000702003F03BBB10B505F066FB0321BDE847
:103C20001040702003F032BB70B51048FCF7A1FBC8
:103C30000F4D84B205F11401AC8202220E4616200B
:103C4000FCF7F6FC022231461620FCF7BEFCA88ADF
:103C5000A04201D1012000E0002000F005FBBDE8FA
:103C600070400321702003F011BB000026150020D6
:103C70005C15002005F0C0BA70477047704700001F
:103C800038B522480078012816D12148002421A106
:103C900004702148FCF764FB1F4820A11130FCF799
:103CA0005FFB1F481FA20321C38A1B48123809F07B
:103CB000CFFD19481238447400F058FE1B4C1020F8
:103CC000009020781A4900EB40007E2351F8200034
:103CD00018490122097850F82100002100F0BEFEA9
:103CE00010237E2204212F2005F034FB2078124976
:103CF00000EB400051F82000104980680A78104914
:103D00000978BDE8384000F04FBE0000A200002056
:103D1000AD00002030300000381500203939000097
:103D20005C1500202530326400000000A600002051
:103D300050290108AB000020A82801089D000020A0
:103D40009C00002010B505F0B9FA0321BDE8104031
:103D5000782003F09BBA10B505F0C6FA0321BDE840
:103D60001040782003F092BA70B51048FCF701FBC0
:103D70000F4D84B205F11601EC8202220E46182086
:103D8000FCF756FC022231461820FCF71EFCE88A9C
:103D9000A04201D1012000E0002000F065FABDE85A
:103DA00070400321782003F071BA0000261500202E
:103DB0005C15002005F020BA70477047704700007E
:103DC000F8B52648007801282AD12548002625A1E3
:103DD00006702748FCF7C4FA254826A11130FCF7E5
:103DE000BFFA00222649274802F0C6F9244D204890
:103DF00025A22B780321123809F02AFD1C4C3A2702
:103E0000123C21A2A7706B780321E01C09F020FD71
:103E10006771AB781CA20321A01D09F019FD66741F
:103E200000F0A4FD1020009019481A497E23007864
:103E3000012200EB400051F820001749097850F8A2
:103E40002100002100F00AFE01B01023BDE8F0407F
:103E50007E2204211F2005F07DBA0000A200002070
:103E6000AD00002030303A30303A303000000000F1
:103E70003815002032393A35393A3539000000001A
:103E800044B7002024B70020253032640000000031
:103E9000A600002018280108AB00002010B505F08E
:103EA0000DFA0321BDE81040D82003F0EFB910B59A
:103EB00005F01AFA0321BDE81040D82003F0E6B956
:103EC00038B516A002220068009015496846FCF734
:103ED0001CFA6846FCF74DFA124C114D0222207074
:103EE000E91C6846FCF711FA6846FCF742FA607074
:103EF0000222A91D6846FCF708FA6846FCF739FA61
:103F0000A07000222146084802F018FA012000F0B3
:103F1000ABF90321D82003F0B9F938BD2A2A0000F3
:103F20002615002044B7002024B70020F0B54648ED
:103F300085B001AC0FC884E80F004448007808B190
:103F400000F014FD00224249424802F0F3F8404DCF
:103F5000287809F055FB014601AC0322201DFCF72F
:103F6000D4F910267E230522002101A8009600F036
:103F700075FD32208DF8040030208DF80500EB78B7
:103F800035A20321A01C09F063FCC4208DF80800B1
:103F9000EA208DF809006B782FA20321A01D09F0FB
:103FA00057FCD4208DF80C00C2208DF80D00AB78A2
:103FB00029A203210DF10E0009F04AFCC8208DF85A
:103FC0001000D5208DF8110000278DF812707E2387
:103FD0000122394601A8009600F040FD0022204948
:103FE0001C4802F0C9F81E4D1BA203212B7801A822
:103FF00009F02EFCCA208DF80600B1208DF80700CC
:104000006B7815A20321201D09F022FCB7208DF842
:104010000A00D6208DF80B00AB780FA2032103A86D
:1040200009F016FCC3208DF80E00EB208DF80F0070
:104030008DF810707E230322002101A8009600F065
:104040000DFD05B0F0BD00000C440108A2000020E9
:104050007B01002024B700202530326400000000DE
:1040600044B7002010B50C4C2078411C21700F285B
:1040700005D00021BDE81040002003F007B900F092
:1040800075FCFCF7F5FF41F6641000F071FC0020B0
:1040900020700321EEE70000AA000020704770475F
:1040A00070470000024900200870014603F0EEB896
:1040B000AA000020024900200870014603F0E6B87B
:1040C000AA000020064910B50020087000F04EFC40
:1040D00003F0C8F80121BDE81040082003F0D6B86D
:1040E000AA00002005F088B87047704770470000AC
:1040F00038B522480078012817D12148002421A191
:1041000004702248FCF72CF9204821A11130FCF75B
:1041100027F9214821A20621D0F828331B4812385C
:1041200009F096FB19481238447400F01FFC1D4C2E
:104130001020009020781C4900EB40007E2351F8AD
:1041400020001A490122097850F82100002100F0CE
:1041500085FC10237E220421232005F0FBF8207823
:10416000134900EB400051F82000124940680A78DA
:1041700011490978BDE8384000F016BCA2000020C3
:10418000AD00002030303030300000003815002005
:1041900039393939390000005C1500202530356483
:1041A00000000000A600002030280108AB0000201D
:1041B000A82801089D0000209C00002010B505F0F3
:1041C0007DF8BDE8104003214FF4907003F05EB815
:1041D00010B505F089F8BDE8104003214FF4907048
:1041E00003F054B82DE9F0411248FCF7CFF8124D16
:1041F000044605F54A7140F22A36C5F82803042220
:104200000F463046FCF714FA042239463046FCF7D4
:10421000DCF9D5F82803A04201D1012000E00020FC
:1042200000F022F8BDE8F04103214FF4907003F054
:104230002DB80000261500205C15002038B5044676
:1042400000F094FB102100917E23032200212046E0
:1042500000F004FC01B00023BDE830400122194603
:10426000184604F017BB000038B5044604F0FAFF06
:1042700000F07CFB0D481022009200780C4900EB06
:10428000400051F820000CB1006800E040687E2337
:104290000322002100F0E2FB002301221946184608
:1042A00004F0F8FABDE8384004F0A6BFA6000020EC
:1042B000C02801082DE9F04705462C48914688465C
:1042C00000780F4628B301284DD1002000F066FA8F
:1042D0007F1CFEB2264F002405EB850528193844C3
:1042E0004A4610F8A00C314600F058FA761C641CBF
:1042F000E4B2F6B2052CF1D34A463146002000F074
:104300004DFA761CF1B24A46BDE8F047002000F0B5
:1043100045BA184E002404EB05103044A0F5805037
:104320004A4690F8000E394600F038FA7F1C641CAB
:10433000E4B2FFB2082CEED34746B046082409F198
:10434000010604EB051101EB0800A0F58050F2B264
:1043500090F8000E394600F021FA7F1C641CE4B28C
:10436000FFB2102CEDD3BDE8F08700009A000020CA
:10437000C31F0108C31901082DE9F0470646374855
:104380009046894600780C46D0B3012812D0032805
:104390000ED1002508F10206A01CC1B2F2B20C2019
:1043A00000F0FCF9641C6D1CEDB2E4B20C2DF3D3EB
:1043B000BDE8F087802000F0F1F9641CE5B2284FD9
:1043C000002406EB860630193844424610F8A00C4B
:1043D000294640F0800000F0E1F96D1C641CE4B255
:1043E000EDB2052CEFD342462946802000F0D6F9E5
:1043F0006D1CE9B24246BDE8F047802000F0CEB91E
:10440000184F002505EB06103844A0F580504246B1
:1044100090F8000E214600F0C1F9641C6D1CEDB24D
:10442000E4B2082DEED34D46B946082408F1010741
:1044300004EB061101EB0900A0F58050FAB290F8E8
:10444000000E294640F0800000F0A8F96D1C641CA5
:10445000E4B2EDB2102CEBD3AAE700009A000020E2
:10446000C31F0108C31901082DE9F04788460D460E
:1044700092464B4E4B490024C2B211F81430B3EBB4
:10448000102F04D101EB44035B78934205D0962CA6
:1044900030D0641CA4B2972CEFD3707842490AF153
:1044A0000107B0B3012855D0022821D10026894642
:1044B00006EB4411524619F80100294600F06EF946
:1044C0006D1C761CF6B2EDB2102EF1D346461025C7
:1044D00005EB4411FAB219F80100314640F08000B2
:1044E00000F05CF9761C6D1CEDB2F6B2202DEFD316
:1044F000BDE8F08752464146232000F045FA717925
:10450000524608EB0100BDE8F047C1B2232000F09D
:104510003BBA0026894606EB4411524619F80100C1
:10452000294600F03BF96D1C761CF6B2EDB2102E58
:10453000F1D34646102505EB4411FAB219F80100F3
:10454000314600F02BF9761C6D1CEDB2F6B2202D31
:10455000F1D3CDE70026894606EB4411524619F8FF
:104560000100294680F0FF0000F018F96D1C761C50
:10457000F6B2EDB2102EEFD34646102505EB4411EE
:10458000FAB219F80100314680F0FF0000F006F998
:10459000761C6D1CEDB2F6B2202DEFD3A8E700001B
:1045A0009A000020B5050108E30601082DE9F04155
:1045B000284E01228021304601F02DF8264F00229E
:1045C0000221384601F027F80025402009F044F880
:1045D00005F1B800C0B209F03FF80024002009F04E
:1045E00065F8641CE4B2402CF8D36D1CEDB2082DC4
:1045F000EBD3002002F062FE00228021304601F061
:104600000AF801220221384601F005F80025402071
:1046100009F022F805F1B800C0B209F01DF8002435
:10462000002009F043F8641CE4B2402CF8D36D1C60
:10463000EDB2082DEBD3002002F040FE01228021D4
:10464000304600F0E8FF3846BDE8F0410122022183
:1046500000F0E1BF001002400004024070B51A4CA7
:1046600001228021204600F0D6FF184D00220221B1
:10467000284600F0D0FF002002F019FE002002F0D2
:104680001DFE012002F013FE00228021204600F0D2
:10469000C2FF01220221284600F0BDFF002002F0E7
:1046A00006FE002002F00AFE012002F000FE0122B8
:1046B0008021204600F0AFFF2846BDE8704001226F
:1046C000022100F0A8BF00000010024000040240D8
:1046D0002DE9F04705462E489146884600780F465A
:1046E00001282FD02B4E002404EB05103044A0F5F8
:1046F00080504A4690F8000E394680F0FF0000F0E6
:104700004DF87F1C641CE4B2FFB2082CECD3474682
:10471000B046082409F1010604EB051101EB08007D
:10472000A0F58050F2B290F8000E394680F0FF00FC
:1047300000F034F87F1C641CE4B2FFB2102CEBD301
:10474000BDE8F087FF2000F029F87F1CFEB2124F71
:10475000002405EB8505281938444A4610F8A00CBA
:10476000314680F0FF0000F019F8761C641CE4B2BA
:10477000F6B2052CEFD34A463146FF2000F00EF882
:10478000761CF1B24A46BDE8F047FF2000F006B8BB
:104790009A000020C3190108C31F01082DE9F04148
:1047A00015460C4680467F2932D8072D30D8194E41
:1047B000194F3F2C0CD801228021304600F02BFFEE
:1047C00000220221384600F026FF4034E0B20AE021
:1047D00000228021304600F01EFF012202213846CF
:1047E00000F019FF204608F037FFB835E8B208F0AE
:1047F00033FF404608F05AFF01228021304600F086
:104800000AFF3846BDE8F0410122022100F003BF53
:10481000BDE8F081001002400004024010B505F030
:10482000D3FAAA210020FBF713FF5521BDE8104061
:104830000120FBF70DBF10B50020FBF7D7FEAA281B
:1048400004D10120FBF7D2FE552803D0BDE810406B
:10485000FFF7E4BF10BDFEE7002200F001B8000042
:1048600030B50E4B054601209C7B022C15D8987B59
:1048700000241C54987B03EB800045609D7B03F172
:104880000C002A54987B421C9A73303008703A20EE
:1048900048702F208870CC70002030BDA40100200B
:1048A000002100F001B800000B4B10B501469A7BC7
:1048B0000120002A0FD009783039C9B203EB8102F8
:1048C0005468002C07D00020194450600873987B6E
:1048D000401E9873002010BDA401002038B5114C73
:1048E0006946E06903F025FB42064FF0000104D55C
:1048F000227812B1A17014200FE0000605D52078AF
:10490000012802D0A170122007E0A0780A2807D25F
:10491000401CA070FF202070162005F0E9F838BD7B
:10492000A17038BD3401002010B50F4B024619B1FB
:10493000187993F8231013E00120014606E05C1873
:10494000491C94F8244089B22044C0B29142F6D95F
:1049500010BD5C1894F82440001B491EC0B289B2F7
:104960009142F6D210BD00005C150020FFF71EBE7C
:1049700006E00021491CC9B2C829FBD3401E80B201
:104980000028F6D170470000064B5B782BB1012B55
:1049900005D0022B05D1FFF7EFBCFFF78BBCFFF76B
:1049A00097BE70479A0000202DE9F041DFF8A880FB
:1049B0000746154698F804000C4618B998F80240C6
:1049C00098F8035000263EE0802829D20A280ED00D
:1049D0007F2C04D998F8061000242944CDB298F809
:1049E000011051B101290DD0022914D10FE098F81E
:1049F000060000242844C5B224E02A462146FFF7D9
:104A000059FC08E02A462146FFF762FE03E02A46E9
:104A10002146FFF7B1FC98F805002044C4B211E02C
:104A2000702C02D90024AD1CEDB2B9192A46497880
:104A300001EB002080B22146FFF716FD761C1034F2
:104A4000F6B2E4B27F1CB85D0028BDD188F8024000
:104A500088F80350BDE8F0819A0000202DE9F05F4E
:104A600000240746984693460E4625462046DDF824
:104A700028900AE0802904D9641C401CE4B2C0B22A
:104A800001E06D1CEDB2401CC0B2395C0029F1D1CF
:104A9000002000F00BF9E80000EB0410C0B27F2802
:104AA00000D97F2019F0300106D0A8EB06021029AA
:104AB00004D020290AD107E0002007E0101A00EBFB
:104AC000D070C0F3470001E0101AC0B23044C4B245
:104AD000DFF818A15FEA09600BF1010523D49AF809
:104AE00001004FF0000601280CD01AE05A4631466A
:104AF000FF20FFF753FEEAB23146FF20FFF74EFEDC
:104B0000761CF6B2A642F1D30DE05A46314600209B
:104B1000FFF744FEEAB231460020FFF73FFE761C65
:104B2000F6B2A642F1D300261BE080282DD29AF8D7
:104B3000011021B1012907D002290ED109E05A46FE
:104B40002146FFF7B7FB08E05A462146FFF7C0FDB4
:104B500003E05A462146FFF70FFC0834761CE4B206
:104B6000F6B2B85D0028E0D18AF802408AF803B0B6
:104B70005FEA096035D426469AF801004FF0000438
:104B80000128A8EB06081AD029E0B9195A46497835
:104B900001EB002080B22146FFF766FC761CF6B2DE
:104BA0001034DBE73719F9B25A46FF20FFF7F6FD5C
:104BB000EAB2F9B2FF20FFF7F1FD641CE4B2A045B0
:104BC000F0DC0EE03719F9B25A460020FFF7E6FD97
:104BD000EAB2F9B20020FFF7E1FD641CE4B2A0459F
:104BE000F0DCBDE8F05F012000F060B89A00002022
:104BF0002DE9F047002490460D460746042A01D9C6
:104C00004FF00408602D00D960250026385D641C33
:104C1000A919A4B2C9B24246FFF7C0FD761CF6B28C
:104C2000202EF3D3002608F10109385D641CA91970
:104C3000A4B209F0FF02C9B2FFF7B0FD761CF6B2CC
:104C4000202EF2D3002608F10209385D641CA91950
:104C5000A4B209F0FF02C9B2FFF7A0FD761CF6B2BC
:104C6000202EF2D3002608F10308385D641CA91930
:104C7000A4B208F0FF02C9B2FFF790FD761CF6B2AD
:104C8000202EF2D3BDE8F08710B5FFF7E7FC064809
:104C900000210822017041704271022282718170EC
:104CA000C1700121017110BD9A00002030B50423AC
:104CB000022210490824052808D2DFE800F0080382
:104CC000150F0C00012008704C71887130BD002058
:104CD00008704C7106E00B700A2002E00320087097
:104CE000102048718A7130BD0A70152048718B718F
:104CF00030BD00009A000020014948707047000054
:104D00009A00002008B50AA11148FBF729FB0220F0
:104D100008F002FD0F486B4600224FF48031006816
:104D200003F0ACF8FF220221002006F047F908BD8D
:104D3000D3CECFB7BDE1CAF8A3ACC7E5B0B4BFAA24
:104D4000B9D8D6D8D0C2BFAACABCA3A1000000005F
:104D500024A700205001002008B50AA11148FBF744
:104D6000FFFA022008F0D8FC0F486B4600224FF4EF
:104D70008031006803F082F8FF220221002006F053
:104D80001DF908BDD3CECFB7CAA7B0DCA3ACC7E529
:104D9000B0B4BFAAB9D8D6D8D0C2BFAACABCA3A142
:104DA0000000000024A700205001002000B50146AB
:104DB000024805F001FC401CC0B200BDC400002048
:104DC00070B50B4940F2323466220D462046FBF79F
:104DD0002FFC07490422091F201FFBF729FC66222C
:104DE00029462046FBF7F1FBBDE8704002F0BCBC51
:104DF000F449010870B50A4940F2323466220D4682
:104E00002046FBF715FC06490422091F201FFBF76B
:104E10000FFC29462046BDE870406622FBF7D5BB53
:104E20008C180020F0B50A7D01209040344A1368A8
:104E300043F001031360136823F47C531360136879
:104E40004C6A43EA042313602D4D1C352B688343C1
:104E50002B602B4C2B4BCE690C34A6B926688643AD
:104E600026608F894E6867F31F464F6903EBC707BB
:104E7000C7F840660F890E6867F31F464F6903EB5A
:104E8000C707C7F84466CE69012E14D126680643C9
:104E900026600E884C6866F31F444E6903EBC60615
:104EA000C6F840460E89CC6866F31F444E6903EB92
:104EB000C603C3F84446124B8C691B1D002C1C68AA
:104EC00006D004431C600E4B0C69143314B104E08B
:104ED0008443F7E71C6884431C600C69012C02D1F1
:104EE0001C6804431C60096A012902D12968014336
:104EF0002960106820F0010010600020F0BD000063
:104F0000006600400060004010B504000AD0022096
:104F100084F83C00204600F0ADF8002004F83C0F77
:104F2000607010BD012010BD2DE9F04104004FF06C
:104F3000000604D094F83C00002518B107E00120D9
:104F4000BDE8F08184F83D50204600F094F802203E
:104F500084F83C002068016821F0020101602068AB
:104F6000016841F00101016000F05AFB07464FF073
:104F7000030804E000F054FBC01B0A2862D8206834
:104F80004068C007F6D020684168C90767D0A169AA
:104F9000012901683FD021F080010160E06901280A
:104FA000206801683AD021F040010160206A0128A0
:104FB0002068016835D021F020010160606A012875
:104FC0002068016830D021F010010160A06A01283A
:104FD000206801682BD021F008010160E06A0128F7
:104FE0002068016826D021F004010160D4E90201A3
:104FF0000843D4E90412114308436168491E084379
:105000002168C8612068016821F00101016000F099
:1050100007FB07461BE041F08001BEE741F040017D
:10502000C3E741F02001C8E741F01001CDE741F0AE
:105030000801D2E741F00401D7E700F0F1FAC01B04
:105040000A2804D904F83C8F0320657078E72068AB
:105050004068C007F1D120684068C00700D02EB179
:105060002564012084F83C00002069E7042084F8CE
:105070003C0064E7704770472DE9F05F16460D006D
:10508000044602D0012D29D00FE094F83C002228DC
:105090002CD094F83C00422828D094F83C00622898
:1050A00024D094F83C00722820D094F83D000128C8
:1050B0001CD04FF0010884F83D80622194F83C0038
:1050C00072224FF0420A4FF0220B95B112281AD0EB
:1050D00022281CD042281DD0322015E094F83C0034
:1050E000322803D094F83C005228D6D10220BDE8E3
:1050F000F09F122805D0322809D052280AD05846ED
:1051000002E0504600E0522084F83C0004E084F8BD
:105110003C1001E084F83C2000F082FA07464FF092
:1051200000090DE00A2E0BD026B100F079FAC01B61
:10513000B04205D9032084F83C0084F83D90D6E7BE
:105140002068EDB3006910F0030FEBD0CDB3A06B76
:105150004FF4D871226801EB0511525812F0040285
:1051600082602268525850D0D2084260226851585A
:1051700001F00201C1604FF4DA71226801EB051100
:10518000525802F00F02026122685158C1F3072100
:10519000C0E907154FF4DC71226801EB0511525884
:1051A000027522685258120A427522685258120C2F
:1051B000827522685158090EC1754FF4DE7101E005
:1051C0001FE020E0226801EB0511525802762268A8
:1051D0005258120A427622685258120C827622687D
:1051E0005158090EC17620202268122185B1106124
:1051F00094F83C0052281AD062281BD0722810D193
:105200001AE0C0689FE7606BA2E7520D0260ADE74D
:10521000D06094F83C00422809D0622803D072285C
:1052200003D0404609E0322007E0522005E084F830
:105230003C1004E0584600E0504684F83C0084F8F6
:105240003D90002053E700002DE9F05F0E46016815
:1052500004468868400105D48868000102D4886843
:10526000C00072D594F83D0001280DD04FF0010820
:1052700084F83D8094F83C00222808D0322808D0D9
:1052800062280ED0122005E00220BDE8F09F4220E7
:1052900000E0522084F83C008868400103D50025D6
:1052A00007E07220F6E78868000101D5012500E0DB
:1052B00002254FF4C07000EB05100A5802F00102FD
:1052C0000A50216B22688B68F3B317581F43CB68D1
:1052D000496843EAC1010F431750216B0A7C02F071
:1052E0000F020A614FF4C271226801EB0511535895
:1052F00023F00F03535022685358276B3F693B43F9
:105300005350216B4FF4C47303EB05130A7DD1F89E
:10531000151042EA01222168CA50216B4FF4C6736E
:1053200003EB05130A7ED1F8191042EA0122216825
:10533000CA5021680A5842F001020A5000F070F980
:1053400007464FF0000901E005E04DE0DFF8A4A0BA
:10535000DFF8A4B022E01358CF6809883B4343EA42
:1053600041511150B9E70A2E18D026B100F058F972
:10537000C01BB04212D9032084F83C004DB1012D6E
:1053800009D04FF400002168886084F83D90032024
:105390007BE78020F7E74FF40040F4E78DB1206809
:1053A000012D816812D0154888430028DBD194F87C
:1053B0003C0042280DD052280DD0722812D0404611
:1053C0000AE0206881682AEA0100EEE72BEA010082
:1053D000EBE7222000E0322084F83C0084F83D9086
:1053E000002052E76220F7E7042084F83C00012007
:1053F0004BE7000003000004000300080000031056
:1054000090F83510022903D08021416501207047B2
:10541000052180F835100068016821F00101016064
:105420000020704731B500F0FBF8009C05460A2CBF
:1054300000D2641C00F0F4F8401BA042FAD338BD3F
:105440002DE9F84FDFF89491002209F1040A0AF1DE
:10545000040B4FF00F080BF1040E01260B68964069
:105460003340B34271D14C68022C01D0122C11D1BF
:10547000D40800EB84073D6A5407E40E08FA04FCE4
:1054800025EA0C05D1F810C00CFA04FC4CEA050C16
:10549000C7F820C007685400032591F804C0A54050
:1054A0000CF0030CAF430CFA04FC4CEA070CC0F8F8
:1054B00000C04F68012F05D0022F03D0112F01D05B
:1054C000122F11D18768D1F80CC0AF430CFA04FC3D
:1054D0004CEA070CC0F808C04768B7430E79C6F31A
:1054E000001696403E434660C668AE438D68A540B0
:1054F0003543C5604C68E4006AD5394C256845F4ED
:1055000080452560246822F0030504F4804400945B
:10551000344C2544D5F808789407260F08FA06F489
:10552000A743314CA04201D1002429E02F4CA042D6
:1055300001D1012424E02E4CA04201D102241FE01D
:105540002C4CA04202D103241AE041E02A4CA04294
:1055500001D1042414E0294CA04201D105240FE01C
:10556000274CA04201D106240AE0264CA04201D1DA
:10557000072405E0244CA04201D1082400E00924BE
:10558000B4403C43C5F80848D9F800404D464E6841
:105590009C43F60300D51C432C60DAF800405546C6
:1055A0004E689C43B60300D51C432C60DBF80040DA
:1055B0005D464E689C43F60200D51C432C60DEF825
:1055C000004075464E689C43B60200D51C432C60D3
:1055D000521C102AFFF441AFBDE8F88F003C014097
:1055E0004438024000300140000002400004024004
:1055F00000080240000C024000100240001402406B
:1056000000180240001C02400020024000690840CF
:1056100000D0012070470AB1816170470904FBE79F
:10562000014800687047000010000020D0F88C028C
:1056300006F0D7BAD0F88C0206F0E7BA006807F097
:105640008FBC006807F090BC01EB810100EBC1004A
:1056500090F85400704701EB810100EBC100406CF1
:10566000704710B5044690F88802012809D001203F
:1056700084F88802206807F082FC002084F8880201
:1056800010BD022010BDFEB50546DDE9096095F8A4
:105690008842089F012C1ED0012485F8884201EB26
:1056A000810405EBC40402F07F0C04F8303F208134
:1056B0006170E67184F802C04FEAD21C84F803C01E
:1056C00027710097CDE90160286807F015FD0021DA
:1056D00085F88812FEBD0220FEBD70472DE9F0035B
:1056E0000D46DDE906C9DDE9087601EB850100EB31
:1056F000C101022481F8332081F83730BCF1000F5A
:105700000BD081F83A404FF000085BB1012B3ED03E
:10571000022B1CD0032B29D11FE04FF0030881F886
:105720003A80F0E7BCF1010F20D1FAB987B9012224
:1057300081F8492002E081F83A8001E081F83A409E
:1057400091F85420022A11D081F835600EE02AB970
:1057500091F84920002AF1D1EDE712B191F84820E3
:1057600001E091F8492092B181F83A40C1E90F97E0
:1057700081F85480C1F8448081F8315081F8558017
:10578000027C0068BDE8F003303107F02FBD81F8DE
:105790003A80EBE72DE9F0410668044600253046E3
:1057A00007F0E9FB01287DD1206807F068FE00289A
:1057B00078D0206807F063FE800203D521684FF49B
:1057C00000104861206807F05AFEC00203D5216826
:1057D0004FF480104861206807F051FE400103D566
:1057E00021684FF080604861206807F048FE80071C
:1057F00002D5216802204861206807F040FE800041
:1058000010D5D6F8400420F02E00C6F840042046FB
:10581000FFF710FF0121206807F016FE21684FF006
:1058200000504861206807F02AFEC00102D52046DA
:1058300001F04DFB206807F022FE000705D5204649
:1058400000F09DF8216808204861206807F017FEE5
:1058500080011FD5206807F0C2FC07464FF0010801
:1058600011E008FA05F038420CD006EB4510D0F8EC
:105870000005E9B20004204602D501F0F9F801E084
:1058800001F00FFA6D1CA068A842EAD821684FF019
:1058900000704861206807F0F2FDC0060ED5206850
:1058A000816900E00AE021F010018161204601F0E9
:1058B00065FB2068816941F010018161BDE8F081DC
:1058C00030B589B0040026D0032084F88902204630
:1058D00000F024F8206807F0DFFA04F1100120221C
:1058E0000D466846FAF7EDFC94E80F0007F084FADD
:1058F0000121206807F0EDFD202229466846FAF7CD
:10590000E0FC94E80F0007F035FD012084F88902DF
:10591000002009B030BD0120FBE7000000B50068A1
:10592000124987B088421FD14FF4404000900220B6
:10593000019000200290032003900C2004906946FF
:105940000B48FFF77DFD0B48016841F000510160F5
:105950000068002200F00050059011464D2000F034
:1059600095F84D2000F086F807B000BD0000044017
:105970000004024030380240006807F094BDD0F8BF
:105980008C0206F08CB910B5044690F88802012804
:105990000DD0012084F88802206807F0B9FA0121AF
:1059A000206807F09FFA002084F8880210BD0220CA
:1059B00010BD10B5044690F88802012809D00120D6
:1059C00084F88802206807F09AFD002084F8880295
:1059D00010BD022010BD000002480168491C016092
:1059E00070470000100000200B4810B5016841F41A
:1059F00000710160016841F480610160016841F457
:105A000080710160032000F061F80F2000F006F8BB
:105A100000F018F8002010BD003C024010B504460C
:105A200007484FF47A710068B0FBF1F000F098FE7F
:105A300000222146501E00F029F8002010BD000071
:105A4000200000200A4808B5016841F48041016047
:105A5000006800F4804000900548001F016841F094
:105A600080510160006800F08050009008BD000087
:105A70004438024000F01F0201219140400980009B
:105A800000F1E020C0F8001170470000F0B40E4BA8
:105A90001B68C3F30223C3F10704042C00D90424B8
:105AA0001D1D072D01D2002300E0DB1E012606FA92
:105AB00004F56D1E0D409D409E40761E164045EA41
:105AC0000601F0BC02F09BB80CED00E0064A00F0C5
:105AD000070110684FF6FF03184040EA0120034910
