:020000040800F2
:10000000D82901209901000801710008F96400084D
:10001000256D0008F50C0008EDC800080000000080
:100020000000000000000000000000002F9A0008FF
:10003000210F000800000000FF010008B59B000828
:10004000B3010008B3010008B3010008B3010008C0
:10005000B3010008B3010008B3010008B3010008B0
:10006000B3010008B3010008B3010008B3010008A0
:10007000B3010008B3010008B3010008B301000890
:10008000B3010008B3010008B3010008B301000880
:10009000F90C0008B3010008B3010008B30100081F
:1000A000B3010008B3010008B3010008B301000860
:1000B000C19C0008B3010008099D0008B3010008B5
:1000C000B3010008B3010008B3010008B301000840
:1000D000B3010008EDA80008B3010008B30100084F
:1000E000B3010008B3010008B3010008B301000820
:1000F000B3010008B3010008B3010008B301000810
:10010000B3010008B3010008B3010008B3010008FF
:10011000D1A30008B3010008B3010008319D000815
:10012000B3010008B3010008B3010008B3010008DF
:10013000B30100080000000000000000B301000847
:10014000490D0008B3010008B301000887860008C4
:10015000B3010008B3010008B3010008B3010008AF
:10016000B3010008B3010008B3010008B30100089F
:10017000B3010008898600080000000000000000AC
:10018000B3010008DFF80CD000F07AF9004800470E
:1001900001EF0008D829012006488047064800479B
:1001A000FEE7FEE7FEE7FEE7FEE7FEE7FEE7FEE727
:1001B000FEE7FEE7799C000885010008EFF3108058
:1001C00072B6704780F3108870471D484FF0FF01EA
:1001D0000170002080F309881A48012101701A4833
:1001E0004FF08051016062B6FEE717484FF0805132
:1001F0000160704714484FF080510160704772B63B
:10020000EFF3098028B1203880E8F00F0F49096822
:10021000086000B50E4880475DF804EB0D480E49B4
:100220000A78027009480D490A680260106890E86F
:10023000F00F203080F309884EF0040E62B670474C
:1002400022ED00E0D700002004ED00E0F0000020E7
:10025000C57C0008D4000020D5000020F800002054
:100260002DE9F05F0546002092469B4688460646EB
:10027000814640241BE0284641464746224600F07E
:10028000B7F853465A46C01A914110D31146184642
:10029000224600F09EF82D1A67EB01084F462246D1
:1002A0000120002100F095F817EB00094E41201EB7
:1002B000A4F10104DFDC484631462A464346BDE846
:1002C000F09F40EA01039B0703D009E008C9121F11
:1002D00008C0042AFAD203E011F8013B00F8013B00
:1002E000521EF9D27047D2B201E000F8012B491E2C
:1002F000FBD270470022F6E710B513460A460446C3
:100300001946FFF7F0FF204610BD10B5044604E083
:100310000B7800F8013B03B1491C521EF8D220466D
:1003200010BDCAB2401E10F8011F8A4202D0002937
:10033000F9D100207047421C10F8011B0029FBD1A5
:10034000801A704710B5002200E0521C835C8C5C60
:10035000A34201D1002BF8D1D8B2E1B2401A10BDAE
:10036000034611F8012B00F8012B002AF9D1184699
:10037000704770B506460CF0B3FB046805460A22C8
:100380000021304600F044F82C6070BD70B5064680
:100390000CF0A6FB046805460A220021304600F056
:1003A00037F82C6070BD30B50B4601460020202286
:1003B000012409E021FA02F59D4205D303FA02F572
:1003C000491B04FA02F52844151EA2F10102F1DCD2
:1003D00030BD202A04DB203A00FA02F100207047E9
:1003E0009140C2F1200320FA03F319439040704773
:1003F000202A04DB203A21FA02F00021704721FA7A
:1004000002F3D040C2F120029140084319467047E0
:100410002DE9F04791460F4680460446002614F821
:10042000015B2DB100F03EF80068405DC007F6D1D9
:100430002B2D02D02D2D18D0641E4A463946204659
:1004400000F034F827B13968A14201D1C7F8008023
:1004500071054FF002040BD54042002803DD0CF07B
:100460003FFB0460A007BDE8F08746F48066E4E740
:100470000028F8DA0CF034FB04606FF00040F2E77B
:10048000064C074D06E0E06840F0010394E80700E1
:1004900098471034AC42F6D3FFF778FE08370108CE
:1004A0002837010800487047E83001082DE9F05F5F
:1004B00082460078002715468B460AF10104B946AA
:1004C000302801D09DB113E014F8010B01277828E2
:1004D00003D0582801D045B10AE00DB1102D07D145
:1004E0000027102514F8010B02E0082500E00A257A
:1004F0000026B0460EE005FB080005FB06F10127CB
:1005000001EB10461FFA80F8B6F5803F00D3B946DC
:1005100014F8010B294600F018F80028EBDABBF1BB
:10052000000F05D00FB1641E00E05446CBF8004028
:10053000B9F1000F06D00CF0D3FA02210160C81EF9
:10054000BDE8F09F48EA0640FAE73A2800D2303882
:1005500020F02002412A01D3A2F13700884201D3C2
:100560004FF0FF30704770B58C1810F8015B15F034
:10057000070301D110F8013B2A1106D110F8012B15
:1005800003E010F8016B01F8016B5B1EF9D12B073A
:1005900005D40023521E0DD401F8013BFAE710F8F0
:1005A000013BCB1A921C03E013F8015B01F8015BDD
:1005B000521EF9D5A142D8D3002070BD10B505F068
:1005C000BFFFBDE8104003F0D4BB70B514460D4624
:1005D000064608E03046711C8EB200F007F8641E33
:1005E00005F8010BA4B2002CF4D170BD10B504467F
:1005F00006F04CF8A02006F019F806F08BF8200A57
:1006000006F014F806F086F8E0B206F00FF806F0EF
:1006100081F806F03BF8A12006F008F806F07AF819
:10062000002005F0D3FF044606F052F8204610BD26
:1006300070B516460C46054606E02178284600F0BF
:1006400007F86D1CADB2641C761EB6B2F5D270BD53
:1006500070B50D46044606F019F8A02005F0E6FF37
:1006600006F058F8200A05F0E1FF06F053F8E0B272
:1006700005F0DCFF06F04EF8284605F0D7FF06F03F
:1006800049F806F025F8BDE870400A200CF0AABF32
:100690007CB52148214C4FF48075C1684FF47A70C5
:1006A00048430A22B0FBF2F00190206899B1A1F50D
:1006B000C3329F3A09D0694606F0BFFE184B194A6B
:1006C000C6074FF000010BD108E06B460022294617
:1006D00006F058FE7CBD6B460122F8E7C00304D546
:1006E000116019706B46002213E01068019EB04241
:1006F00003D200F1010010607CBDFDD100F10100CA
:1007000010604FF00100187099700EF0CDFB6B4631
:10071000012229462068DBE7DC1000204801002088
:1007200058000020780000203EB522480A22224CC2
:10073000418BB1FBF2F1009181684FF47A7048432C
:10074000B0FBF2F00190E06989B1A1F5C3329F3AA4
:1007500006D002A906F071FE1849C2070CD109E0C3
:1007600002AB00225FF0040106F00CFE3EBD02ABBE
:100770000122F7E7C20302D5002008603EBD400712
:10078000FCD40868401C0860009A4FF480519042E5
:1007900002D102AB01220AE0019A9042EED902ABEB
:1007A0000022E06906F0EEFD012202AB0421E069BF
:1007B000DAE70000DC1000202C010020740000208B
:1007C00010B504F095FB09F003FA00F0ABFBFFF75E
:1007D000F5FE06F051FA06F073FA06F087FA06F015
:1007E0005BFA0EF033FD05F0DFFF0AF01BF80CF0AA
:1007F00009F909F09FFD00F0F7FABDE8104008F094
:100800001BBC00002DE9FF4F2D20B0FBF1F081B0A3
:10081000491E01989B4600EB800202EB401090FBC2
:10082000F1F00004000CC7B200D1032703980025A3
:10083000012100F1010900F1020801EBD70400BF1A
:10084000B5EBD70F11D0AC420FD02A460020039948
:1008500003F042FA09F0FF012A46FF2003F03CFAB8
:1008600008F0FF012A46002033E0F808DFF848A12D
:1008700007F0070600901AF80600009A039903F0A3
:100880002BFA1AF8060009F0FF01C0F1FF00009AE8
:1008900003F022FA08F0FF011AF80600009A03F0AC
:1008A0001BFA062C17D20AF1090A22461AF806008A
:1008B000039903F011FA1AF80600224609F0FF0125
:1008C000C0F1FF0003F008FA224608F0FF011AF811
:1008D000060003F001FA6D1CEDB2062DB0D3012025
:1008E00003F06CFC01980025401CC6B26420B6FBE6
:1008F000F0F4ABF10C00C1B23CB104F13000C0B275
:10090000072203F0C1FA012503E00722202003F0AB
:10091000BBFA2720444306EB8400C4B20A26B4FB8A
:10092000F6F2ABF1060002B925B1C1B23032D0B255
:10093000072202E0C1B20722202003F0A5FAB4FB8F
:10094000F6F006FB10403030C0B20722594603F0E3
:100950009BFA1A4F3878012828D9002422E0184938
:10096000001B0844624210F8010C0BEBC205401C4E
:10097000C0B2B0FBF6F106FB1100A5F10801303062
:10098000C9B2C0B2072203F07FFA681EC1B20722C3
:10099000102003F0A1F9E9B20722102003F09CF91E
:1009A000641CE4B23878411E8C42D8DB05B00020CC
:1009B000BDE8F04F03F002BC3F100108A800002082
:1009C00092100020F8B5002415460E460746012B6C
:1009D00004D07823009403F0C1FAF8BD012003F09D
:1009E00013FC78232A4631463846009403F0B6FAC1
:1009F000BDE8F840002003F007BC00002DE9F047F7
:100A0000DFF8C890DFF8C88099F80000032803D900
:100A1000032288F8002001E088F800002D49002515
:100A20002D4C09782D4E012902D0022905D010E065
:100A300007F066FE257035700FE098F800103278E8
:100A4000491E8A4200DD35702278411E8A4200DD4F
:100A5000257021783278914202D32078317800E0F5
:100A6000511A401AC5B20027DFF874A020E02078A0
:100A7000854208D1317849060A0EDAF800100123C0
:100A800051F8200006E07806020EDAF80000002394
:100A900050F825000021FFF795FF99F80000401E4F
:100AA000854201D1002501E06D1CEDB27F1CFFB233
:100AB00098F800008742DAD399F800102078BDE852
:100AC000F04778237D22FFF79DBE0000AC00002098
:100AD000AE000020A2000020AB000020AD000020EE
:100AE000B00000202DE9F047DFF8E480374C98F89B
:100AF00000202178501EC3B271B1481E2070354EBF
:100B0000354D377828684FB17A06120E7F1E377040
:100B100050F82100002337E02370F0E7032A2ED994
:100B200027784FF0000A5246A94650F827000123C3
:100B30005146FFF747FF98F80000401E874201D159
:100B4000002501E07F1CFDB201277806020ED9F8CE
:100B500000000023194650F82500FFF733FF98F8EE
:100B60000000401E854201D1002501E06D1CEDB260
:100B70007F1CFFB2032FE8D386F800A012E0337089
:100B800050F8210000231A460021FFF71BFF3078A0
:100B900021784006020E2868012350F82100002128
:100BA000FFF710FF78237D2298F800102078FFF7D8
:100BB00029FE0B490948097800EB4100002130F873
:100BC000020CBDE8F04705F0E7BD0000AB000020D7
:100BD000AC000020AD000020B00000207C10002000
:100BE000A70000202DE9F047DFF8F0803A4C0027FD
:100BF00098F800202078511E884201D1277001E02A
:100C0000411C21703749364E374D91F800C033787A
:100C1000ACF1010C2968634504D05A06120E5B1C26
:100C2000337034E06FF00103032A2CD927789946FA
:100C3000042251F82700AA4601230021FFF7C2FE33
:100C4000BFB17F1EFDB2022709EB4700C2B2DAF83E
:100C500000000023194650F82500FFF7B3FE6DB1E0
:100C60006D1EEDB27F1E17F0FF07EDD10220307030
:100C70001EE098F80000401EC5B2E4E798F80000B6
:100C8000401EC5B2EEE703EB42023770D2B251F814
:100C9000200000231946FFF795FE307821784006A2
:100CA000020E2868012350F821000021FFF78AFE78
:100CB00078237D2298F800102078FFF7A3FD0C49D7
:100CC0000A48097800EB4100002130F8020CBDE829
:100CD000F04705F061BD0000AB000020AC00002033
:100CE000AD000020AE000020B00000207C100020ED
:100CF000A7000020FEE7000038B5114D00240A22AD
:100D00002146284603F034FC686BA5F10C010288EB
:100D10000A80027B8A70007CC87006E06A6B04F16E
:100D20001400105C0A19641C1071C878A042F5D830
:100D3000044801226B465102006806F023FB38BDCF
:100D4000648800204801002038B5114D00240A2293
:100D50002146284603F00CFC686BA5F1500102887F
:100D60000A80027B8A70007CC87006E06A6B04F11E
:100D70001400105C0A19641C1071C878A042F5D8E0
:100D8000044801226B465102006806F0FBFA38BDA8
:100D9000A88800204801002010B5012901D00229AF
:100DA00002D10C31C9B2401E4B1C03EB4303052496
:100DB000B3FBF4F302EB41011944C217014400EB09
:100DC000927201EBA201642290FBF2F2891A4FF4B5
:100DD000C87290FBF2F00844072190FBF1F201FB8E
:100DE0001200401CC0B210BD10B5102104480CF018
:100DF0005BF9BDE81040102102480CF055B9000025
:100E000000640040006800402DE9F04101270DF02A
:100E1000DFFF20F0C0002C4C2C4D2D4E0B38072846
:100E20003ED2DFE800F00B211A04282F360020887C
:100E300000EB800005EB8000408805E0208800EB97
:100E4000800005EB80008088208000EB800005EBAF
:100E5000800000693060804723E0208800EB80003C
:100E600005EB8000C088EFE7208800EB800005EBF1
:100E700080000089E8E7208800EB800005EB800017
:100E80008089E1E7208800EB800005EB8000408945
:100E9000DAE7208800EB800005EB8000C089D3E70B
:100EA0000027DFF8308098F8000050B1208800EB70
:100EB000800005EB8000006930608047002188F8E1
:100EC00000103846BDE8F081A4000020D0170108CA
:100ED000B8000020A200002010B500224FEA020155
:100EE00000EB8203521CC3F87C130F2AF8D30022B4
:100EF0004FF400738418521C84F81C119A42F9D3E1
:100F00000170417001228270C0F8B813027640234C
:100F10008371417680F81C1380F81D23002010BDDA
:100F20007047000038B5264900200A6842F00102E7
:100F30000A600968234C01F0010100914FF08041E3
:100F4000E060C4E90010204D482129702061A060B4
:100F5000204604F0A3FE2068016841F0040101600E
:100F60002068016A41F21112114207D1016A921000
:100F7000114203D1016821F001010160062004F053
:100F800029F8022200211C2004F004F81C2003F0A0
:100F9000F5FF0E480E490068B0FBF1F14FF47A708E
:100FA0004143012068804FF0E020026942F00202D4
:100FB00002614161016941F00101016138BD000038
:100FC000403802403C100020960000202000002005
:100FD00040420F0030B5212800D92138012202EB10
:100FE00010431C4A127803FB02F41B4A1568AC62DA
:100FF000B0FBF3F41568EC62B0FBF3F0D06010685E
:101000006FF00105056113680020586210680368DD
:1010100043F00103036041F211139C1011B1012947
:1010200011D004E010680169C907FCD0056110689F
:10103000016A194206D1016A214203D1016821F0F7
:101040000101016030BD1068C16841F00101C1605B
:1010500030BD0000960000203C10002010B500229A
:10106000114607A002F020FF0222002107A002F093
:101070001BFF0422BDE81040002107A002F014BFAE
:101080004275696C642054696D653A004D61722047
:10109000203920323031390030303A33333A343469
:1010A0000000000007F0F6BA2DE9F843234DDFF801
:1010B0009480254F287800EB4001214800EB810205
:1010C000137988F8003050F82100386002F0CEFE25
:1010D0001E481F4C0078012805D107F011FB1D495F
:1010E00000202070087010260096217838680022B1
:1010F0007E2350F82100114602F030FF1648217877
:10110000022250F82100302102F0FAFF00962878E0
:10111000124900EB40007E2351F8200006220021F6
:10112000406802F01BFF98F80010207801B0782387
:10113000BDE8F0437D22FFF765BB0000A60000205C
:1011400024170108AC000020B0000020A2000020FD
:10115000AB000020AD000020B41701089C17010867
:1011600038B5164C164D207800B928780022401E5C
:10117000207010200090134821787E23006850F8DA
:101180002100114602F0EAFE0F482178022250F8B1
:101190002100302102F0B4FF78237D2229782078C5
:1011A000FFF730FB0A490948097800EB41000021AC
:1011B00030F8020CBDE8384005F0EEBAAB00002074
:1011C000AC000020B0000020B41701087C10002003
:1011D000A700002038B5194D174C29782078491EF2
:1011E000884201D1002000E0401C207010200090B7
:1011F00013482178002200687E2350F82100114610
:1012000002F0ACFE0F482178022250F82100302174
:1012100002F076FF78237D2229782078FFF7F2FA12
:101220000A490948097800EB4100002130F8020C16
:10123000BDE8384005F0B0BAAB000020AC0000209B
:10124000B0000020B41701087C100020A700002087
:10125000154810B501781648144A0629007802EBA3
:1012600040001DD2DFE801F003080D10151502F053
:10127000FDFD012110200FE002F0F8FD01211820F2
:101280000AE00121D02007E002F0F0FD0221202039
:1012900002E030F8020C0021BDE8104005F07CBAF5
:1012A00000210846F8E70000AB0000207C10002079
:1012B000A700002007F0EEB97047704770470000A4
:1012C00008B502F0D3FD10200090074807497E239F
:1012D0000078032200EB400051F820000021006854
:1012E00002F03CFE08BD0000A60000200C1701081B
:1012F0007047704707F0CEB907F0CCB97047704718
:10130000704700002DE9FE432B4F0025202638783A
:10131000DFF8A8802A4C01281CD12A482AA1057090
:1013200004F11200FFF71CF82AA104F12300FFF7D3
:1013300017F83020207060703120A070E6702D20EA
:10134000207160713E20A071E67198F8230120722F
:1013500065726574387803281CD1607C082819D020
:101360000322174901A8FEF7D0FF8DF80750144853
:10137000FEF7FFFF85B2FF2D07D9FF252B4618A2E8
:1013800002210F480BF098FBE67008EB050090F87F
:101390002301207202F06AFD102000907E230122BA
:1013A000002111A002F0DAFD10237E2204211B206F
:1013B00007F022FABDE8FE83A2000020DC10002026
:1013C000A6100020AD000020303030202D2D3E2012
:1013D00041000000393939202D2D3E205A000000EF
:1013E0002530336400000000C9E8B1B8BAC5202038
:1013F000D7D6B7FB0000000010B507F0ADF9032108
:10140000BDE81040B82005F0C7B910B507F0BEF927
:101410000321BDE81040B82005F0BEB92DE9FC411C
:1014200003221E496846FEF770FF00208DF8030076
:101430001A48FEF79EFF80B2FF280AD918481949BA
:10144000007800EB400051F82000006802F08EF9AF
:101450001EE0154A114E1418A71A317A84F8231188
:1014600004F2231107F225170D46B8B20122FFF747
:10147000DFF82946B8B20122FFF7A7F8307A94F8CE
:101480002311884201D1012000E0002002F086F9FA
:101490000321B82005F080F9BDE8FC81A6100020EA
:1014A000A600002094160108DC10002007F0F2B816
:1014B000704770477047000038B51C480078012815
:1014C00017D11B4800241BA104701B48FEF748FFDE
:1014D00019481AA11130FEF743FF194819A2042137
:1014E00090F83F32144812380BF0E6FA12481238DE
:1014F000447402F0BBFC10200090144814497E2371
:101500000078012200EB400051F8200011490978D1
:1015100050F82100002102F021FD01B01023BDE8A8
:1015200030407E220421332007F066B9A20000205B
:10153000AD00002030303000B810002039393900BB
:10154000DC1000202530336400000000A6000020DD
:1015500054170108AB00002010B507F0FDF8032177
:10156000BDE81040F02005F017B910B507F00EF9EE
:101570000321BDE81040F02005F00EB92DE9F0413F
:101580001848FEF7F6FE84B27F2C0AD91648174990
:10159000007800EB400051F82000006802F0E6F807
:1015A00019E0134D40F2412605F23F2185F83F42F4
:1015B00001220F463046FFF73BF8012239463046FC
:1015C000FFF703F895F83F02A04201D1012000E0A7
:1015D000002002F0E3F8BDE8F0410321F02005F01F
:1015E000DBB80000A6100020A60000209416010819
:1015F000DC10002007F04EB87047704770470000BD
:1016000038B51C480078012817D11B4800241BA1BD
:1016100004701B48FEF7A4FE19481AA11130FEF70A
:101620009FFE194819A2042190F84032144812383C
:101630000BF042FA12481238447402F017FC1020E2
:101640000090144814497E230078012200EB4000EA
:1016500051F820001149097850F82100002102F0CA
:101660007DFC01B01023BDE830407E2204213320F0
:1016700007F0C2B8A2000020AD00002030303000DA
:10168000B810002039393900DC10002025303364CF
:1016900000000000A600002054170108AB00002045
:1016A00010B507F059F80321BDE81040F82005F007
:1016B00073B810B507F06AF80321BDE81040F820B0
:1016C00005F06AB82DE9F0411848FEF752FE84B2E1
:1016D0007F2C0AD916481749007800EB400051F8D2
:1016E0002000006802F042F819E0134D40F2422653
:1016F00005F5107185F8404201220F463046FEF78D
:1017000097FF012239463046FEF75FFF95F8400209
:10171000A04201D1012000E0002002F03FF8BDE826
:10172000F0410321F82005F037B80000A610002092
:10173000A600002094160108DC10002006F0AABFC5
:1017400070477047704700000D4808B500780128C1
:1017500004D10C49002008700B49087002F086FB88
:101760001020009009480A497E230078032200EBEC
:10177000400051F820000021006902F0EFFB08BD95
:10178000A2000020AB000020AD000020A600002039
:101790009C1701087047704710B502F08FFD0120BB
:1017A00001F0FCFF06F076FF0221BDE8104010209A
:1017B00004F0F2BF06F06EBF70477047704700003C
:1017C00008B502F053FB0F48104A114B007800EBAC
:1017D00040010D4800EB8100106002791A700D4A3B
:1017E00000687E231060102000900B48062250F8FD
:1017F00021000021406802F0B1FBBDE80840FFF77E
:10180000FDB80000A60000201C160108B40000204E
:10181000AC000020B00000209C170108FFF762B95F
:10182000FFF7E0B90D4810B5007850B101280DD090
:101830000C490B48097800EB4100002130F8020CFC
:1018400008E006F05DFF0121D82003E006F058FF14
:101850000121E020BDE8104004F09EBFAB00002055
:101860007C100020A700002006F014BF70477047CE
:1018700070470000F8B52848007801282ED1274885
:10188000002627A106702948FEF76AFD274828A1EF
:101890001130FEF765FD254C3220123C00222070ED
:1018A000302060702549264803F0C4FE234D25A250
:1018B0000321EB78A01C0BF0FFF82F2727716B7822
:1018C00020A20321601D0BF0F7F8E771AB781DA291
:1018D000032104F108000BF0EFF8667402F0C6FA79
:1018E0001020009019481A497E230078012200EB4D
:1018F000400051F820001749097850F821000021D4
:1019000002F02CFB01B01023BDE8F0407E22042140
:10191000172006F071BF0000A2000020AD000020DB
:10192000323030302F30302F30300000B8100020EF
:10193000323039392F39392F39390000650100200B
:10194000AC9900202530326400000000A600002081
:101950001C160108AB00002010B506F0FDFE0321A7
:10196000BDE81040E02004F017BF10B506F00EFFF0
:101970000321BDE81040E02004F00EBF38B51BA0E5
:101980001B4D006800900222A91C6846FEF7BDFCB2
:101990006846FEF7EEFC174C0222691DE0706846AF
:1019A000FEF7B3FC6846FEF7E4FC6070022205F126
:1019B00008016846FEF7A9FC6846FEF7DAFCC2B2E9
:1019C000A270E078617800F5FA60FFF7E5F9207021
:1019D00000222146084803F0D1FE012001F0DEFE7E
:1019E0000321E02004F0D8FE38BD00002A2A0000C0
:1019F000A610002065010020AC99002006F04ABE28
:101A000070477047704700000D4808B500780128FE
:101A100004D10C49002008700B49087002F026FA26
:101A20001020009009480A497E230078032200EB29
:101A3000400051F820000021006902F08FFA08BD33
:101A4000A2000020AB000020AD000020A600002076
:101A50009C1701087047704710B507F0CDFB0120B7
:101A600001F09CFE06F016FE0221BDE81040102099
:101A700004F092BE06F00EBE08B502F0F7F90F486A
:101A8000104A114B007800EB40010D4800EB81003B
:101A9000106002791A700D4A00687E2310601020D1
:101AA00000900B48062250F821000021406802F007
:101AB00055FABDE80840FEF7A1BF0000A6000020CF
:101AC0003C170108B4000020AC000020B00000204A
:101AD0009C170108FFF706B8FFF784B81B4810B53C
:101AE0000078072828D2DFE800F004090E11141A44
:101AF0001F0006F005FE0121402019E006F000FE5F
:101B00000121482014E00221A82011E00221C8018F
:101B10000EE006F0F5FD01214FF4847008E006F0B8
:101B2000EFFD0121502003E006F0EAFD0121E8204D
:101B3000BDE8104004F030BE06490548097800EBC6
:101B40004100002130F8020CF2E70000AB00002059
:101B50007C100020A700002006F09CBD7047704755
:101B60007047000008B502F081F91548164A174B76
:101B7000007800EB4001134800EB8100106002790F
:101B80001A70134A00687E231060102000901148DC
:101B9000062250F821000021806802F0DFF90E488B
:101BA0000078022808D106F0ABFD0C480C4990F8EB
:101BB000210008700B490870BDE80840FEF71EBF01
:101BC000A60000204C160108B4000020AC00002044
:101BD000B00000209C170108A2000020DC100020AB
:101BE000AB000020AD000020FEF77CBFFEF7FABF7F
:101BF00070B506F085FD02F039F90E480E4D0E491C
:101C00000478213105F8214F01220E462320FEF7EA
:101C10000FFD012231462320FEF7D7FC2878A04291
:101C200001D1012000E0002001F0B8FDBDE87040C6
:101C300006F030BDAB000020DC10002006F02ABD0D
:101C4000704770477047000008B502F00FF914485C
:101C5000154A164B007800EB4001124800EB81005A
:101C6000106002791A70124A00687E2310601020FA
:101C700000901048062250F821000021406802F030
:101C80006DF90D480078022806D106F039FD0B49A0
:101C9000002008700A490870BDE80840FEF7AEBE93
:101CA000A600002034160108B4000020AC0000207B
:101CB000B00000209C170108A2000020AB0000200B
:101CC000AD000020FEF70EBFFEF78CBF0D4810B52B
:101CD000007850B101280DD00C490B48097800EB71
:101CE0004100002130F8020C08E006F009FD012156
:101CF000C02003E006F004FD0121C820BDE810402B
:101D000004F04ABDAB0000207C100020A70000209A
:101D100006F0C0BC704770477047000008B502F07D
:101D2000A5F81548164A174B007800EB40011348F8
:101D300000EB8100106002791A70134A00687E235C
:101D40001060102000901148062250F82100002158
:101D5000806802F003F90E480078022808D106F0E6
:101D6000CFFC0C480C4990F83E0208700B490870F3
:101D7000BDE80840FEF742BEA60000200416010898
:101D8000B4000020AC000020B00000209C17010827
:101D9000A2000020DC100020AB000020AD000020DD
:101DA000FEF7A0BEFEF71EBF2DE9F04106F0A8FC2D
:101DB00002F05CF80F48104D4FF41076047805F2ED
:101DC0003E2185F83E4201220F463046FEF730FCA8
:101DD000012239463046FEF7F8FB95F83E02A04254
:101DE00001D1012000E0002001F0D8FCBDE8F04165
:101DF00006F050BCAB000020DC10002006F04ABC0E
:101E000038B502F033F8144C154A164B207800EB25
:101E10004001124800EB8100106002791A70124AEA
:101E200000687E231060102000901048062250F8B1
:101E300021000021806802F091F80D480078022806
:101E400006D106F05DFC0B49207808700A4908703D
:101E5000BDE83840FEF7D2BDA60000208417010877
:101E6000B4000020AC000020B00000209C17010846
:101E7000A2000020AB000020AD000020FEF732BE23
:101E8000FEF7B0BE10B506F03BFC01F0EFFF0E48C8
:101E90000E4C007808B1012803D120700A2001F00F
:101EA000E7FF20780A4C0222A11C60800420FEF784
:101EB000BFFB0222A11C0420FEF787FB01F0D6FF26
:101EC000BDE8104006F0E6BBAB000020A6000020F5
:101ED000DC10002006F0DEBB704770477047000042
:101EE000F8B51748174C184D0078012808D1174845
:101EF0001749007F20700020087016492879087063
:101F000001F0B4FF144F102600963878134900EB07
:101F100040007E2351F8200001220021406A02F097
:101F20001DF800963878217800EB40007E2355F8A4
:101F30002000042250F82100002102F00FF8F8BD23
:101F4000A2000020AB00002064160108DC10002075
:101F5000AD000020AC000020A600002054170108AE
:101F600010B504F0E1FE0321BDE81040902004F01C
:101F700013BC10B504F0EEFE0321BDE81040902024
:101F800004F00ABC70B50F4C0F4D02222078A883D4
:101F900005F11C010E461E20FEF74AFB02223146C7
:101FA0001E20FEF712FBA88B2178884201D1012068
:101FB00000E0002001F0F2FBBDE87040032190201A
:101FC00004F0EABBAB000020DC10002006F062BB8E
:101FD000704770477047000038B5204800780128E6
:101FE00013D11F4800251F4C05701FA021A2008897
:101FF00060821EA002210088A4F823001C4890F8EB
:10200000203020460AF058FD657401F02FFF1B4C6C
:102010001020009020781A4900EB40007E2351F8F0
:10202000200018490122097850F82100002101F010
:1020300095FF10237E220421332006F0DDFB20785B
:10204000114900EB400051F82000104980680A78DF
:102050000F490978BDE8384001F026BFA2000020F2
:10206000AD000020A6100020300000003900000064
:10207000DC1000202530316400000000A6000020A4
:1020800054170108AB000020AC1601089D00002089
:102090009C00002010B506F05FFB0321BDE8104056
:1020A000A02004F079BB10B506F0C4FB0321BDE805
:1020B0001040A02004F070BB70B51048FEF759F92D
:1020C0000F4D0F49C4B2203105F8204F01220E46B2
:1020D0002220FEF7ADFA012231462220FEF775FAE2
:1020E0002878A04201D1012000E0002001F056FB39
:1020F000BDE870400321A02004F04EBBA6100020D4
:10210000DC10002006F0C6BA704770477047000028
:10211000F8B51748174C184D0078012808D1174812
:102120001749807F207000200870164928790870B0
:1021300001F09CFE144F102600963878134900EBEE
:1021400040007E2351F8200001220021806A01F026
:1021500005FF00963878217800EB40007E2355F883
:102160002000042250F82100002101F0F7FEF8BD04
:10217000A2000020AB0000207C160108DC1000202B
:10218000AD000020AC000020A6000020541701087C
:1021900010B504F0C9FD0321BDE81040982004F0FB
:1021A000FBBA10B504F0D6FD0321BDE8104098201D
:1021B00004F0F2BA70B50F4C0F4D02222078E8837C
:1021C00005F11E010E462020FEF732FA02223146AA
:1021D0002020FEF7FAF9E88B2178884201D101200E
:1021E00000E0002001F0DAFABDE8704003219820F9
:1021F00004F0D2BAAB000020DC10002006F04ABA8E
:102200007047704770470000F8B51848184C194DD2
:10221000007801280AD1184818490078C0F3400016
:1022200020700020087016492879087001F01EFE01
:10223000144F102600963878134900EB40007E2397
:1022400051F8200001220021C06801F087FE0096AD
:102250003878217800EB40007E2355F820000422D6
:1022600050F82100002101F079FEF8BDA200002005
:10227000AB000020F4160108DC100020AD000020A7
:10228000AC000020A6000020DC16010810B504F008
:102290004BFD0321BDE81040482004F07DBA10B585
:1022A00004F058FD0321BDE81040482004F074BA42
:1022B00070B5114D114C02222978208861F341003C
:1022C000208021461046FEF7B3F90222214610462F
:1022D000FEF77BF920782978C0F34000884201D1CD
:1022E000012000E0002001F059FABDE87040032110
:1022F000482004F051BA0000AB000020DC100020A0
:1023000006F0C8B908B501F0B1FD0F48104A114BED
:10231000007800EB40010D4800EB8100106002796D
:102320001A700D4A00687E231060102000900B4840
:10233000062250F821000021406801F00FFEBDE8A0
:102340000840FEF75BBB0000A60000206C170108E8
:10235000B4000020AC000020B00000209C17010851
:10236000FEF7C0BBFEF73EBC10B506F0C9F901F0A0
:102370007DFD01F07BFDBDE8104006F08BB906F055
:1023800089B9704770477047F8B51848184C194D0F
:10239000007801280AD118481849007800F0010097
:1023A00020700020087016492879087001F05EFD41
:1023B000144F102600963878134900EB40007E2316
:1023C00051F8200001220021806801F0C7FD00962D
:1023D0003878217800EB40007E2355F82000042255
:1023E00050F82100002101F0B9FDF8BDA200002045
:1023F000AB000020F4160108DC100020AD00002026
:10240000AC000020A6000020DC16010810B504F086
:102410008BFC0321BDE81040402004F0BDB910B58D
:1024200004F098FC0321BDE81040402004F0B4B94A
:1024300070B5114D114C02222978208861F30000FB
:10244000208021461046FEF7F3F80222214610466E
:10245000FEF7BBF82078297800F00100884201D10E
:10246000012000E0002001F099F9BDE8704003214F
:10247000402004F091B90000AB000020DC100020E7
:1024800006F008B908B501F0F1FC0F48104A114BED
:10249000007800EB40010D4800EB810010600279EC
:1024A0001A700D4A00687E231060102000900B48BF
:1024B000062250F821000021406801F04FFDBDE8E0
:1024C0000840FEF79BBA0000A60000205417010840
:1024D000B4000020AC000020B00000209C170108D0
:1024E000FEF700BBFEF77EBB314810B500780F2821
:1024F00055D2DFE800F0080D12171C21262B3035CD
:102500003A3F42474C0006F0FBF80121302042E000
:1025100006F0F6F8012138203DE006F0F1F801213F
:10252000582038E006F0ECF80121602033E006F096
:10253000E7F8012168202EE006F0E2F80121702082
:1025400029E006F0DDF80121782024E006F0D8F833
:10255000012180201FE006F0D3F8012188201AE035
:1025600006F0CEF80121982015E006F0C9F8012107
:10257000A02010E00221B0200DE006F0C1F80121FA
:10258000B82008E006F0BCF80121F02003E006F0D6
:10259000B7F80121F820BDE8104004F0FDB8064965
:1025A0000448097800EB4100002130F8020CF2E702
:1025B000AB0000207C100020A700002006F06AB8C5
:1025C000704770477047000038B51C4800780128F4
:1025D00017D11B4800241BA104701B48FDF7C0FE47
:1025E00019481AA11130FDF7BBFE194819A20421A0
:1025F00090F82230144812380AF05EFA1248123865
:10260000447401F033FC10200090144814497E23D8
:102610000078012200EB400051F8200011490978B0
:1026200050F82100002101F099FC01B01023BDE811
:1026300030407E220421332006F0DEB8A2000020C4
:10264000AD00002030303000B8100020393939009A
:10265000DC1000202530336400000000A6000020BC
:1026600034160108AB00002010B506F075F8032100
:10267000BDE81040C02004F08FB810B506F086F811
:102680000321BDE81040C02004F086B870B517489B
:10269000FDF76FFE84B2FF2C0AD915481549007862
:1026A00000EB400051F82000006801F05FF816E0F0
:1026B000114D11490122223105F8224F0E462420E6
:1026C000FDF7B6FF012231462420FDF77EFF287872
:1026D000A04201D1012000E0002001F05FF8BDE838
:1026E00070400321C02004F057B80000A61000205D
:1026F000A600002094160108DC10002005F0CABFD7
:1027000070477047704700002DE9FE43314E334C4F
:1027100020273178DFF8C080002504F1080901295D
:1027200020D12F482FA1057004F11200FDF718FEEB
:102730002FA104F12300FDF713FE302020706070FC
:102740003120A070E7702D20207160713E20A071B3
:10275000E77198F8233029A2022148460AF0ACF923
:10276000657265743078032821D1607C08281ED0FA
:1027700003221A4901A8FDF7C8FD8DF80750174834
:10278000FDF7F7FD86B2FF2E07D9FF2633461DA2BF
:10279000022112480AF090F9E77008EB060017A230
:1027A00090F82330022148460AF086F9657201F05C
:1027B0005DFB102000907E230122002113A001F078
:1027C000CDFB10237E220421132006F015F8BDE86E
:1027D000FE830000A2000020DC100020A6100020D4
:1027E000AD000020303030202D2D3E203000000084
:1027F000393939202D2D3E20390000002530316433
:10280000000000002530336400000000C5C5BAC5D3
:102810002020C9E8B1B8CAFD0000000010B505F0DD
:102820009BFF0321BDE81040C82003F0B5BF10B5E1
:1028300005F0ACFF0321BDE81040C82003F0ACBF99
:102840002DE9FC4103221C496846FDF75EFD002589
:102850008DF803506846FDF78CFD1749C4B201227C
:1028600008316846FDF751FD8DF801506846FDF7C7
:1028700080FDC6B2114801220444271A04F1230145
:10288000253784F823600D46B8B2FDF7D1FE2946FE
:10289000B8B20122FDF799FE94F82300B04201D1AD
:1028A000012000E0002000F079FF0321C82003F0A0
:1028B00073FFBDE8FC810000A6100020DC100020A2
:1028C00005F0E8BE704770477047000038B51A48F9
:1028D0000078012813D11948002419A1047019485F
:1028E000FDF73EFD174818A11130FDF739FD1548D9
:1028F00013A11238FDF734FD12481238447401F068
:10290000B5FA10200090114811497E230078012269
:1029100000EB400051F820000E49097850F82100E2
:10292000002101F01BFB01B01023BDE830407E22E6
:102930000421332005F060BFA2000020AD0000207C
:1029400030303000B810002039393900A60000209E
:1029500054170108AB00002010B505F0FDFE03215F
:10296000BDE81040302003F017BF10B505F00EFF92
:102970000321BDE81040302003F00EBF7CB51B489A
:10298000FDF7F7FC84B2FF2C0AD9194819490078E1
:1029900000EB400051F82000006800F0E7FE1FE067
:1029A000154D01AB00224FF48041286804F0EAFC89
:1029B000E2B2FD21002007F089FC01A800904FF44D
:1029C0007A7382224FF40071286804F021FC9DF88C
:1029D00004000A2801D0012000E0002000F0DEFE03
:1029E0000321302003F0D8FE7CBD0000A61000209B
:1029F000A6000020941601084801002005F04ABEF8
:102A0000704770477047000038B5224800780128A9
:102A100016D12148002421A104702148FDF7A0FC13
:102A20001F4820A11130FDF79BFC1F481FA2042165
:102A300083881B4812380AF03FF81948123844744A
:102A400001F014FA1B4C1020009020781A4900EB7A
:102A500040007E2351F8200018490122097850F8DF
:102A60002100002101F07AFA10237E2204212B207C
:102A700005F0C2FE2078124900EB400051F820001A
:102A8000104980680A7810490978BDE8384001F09B
:102A90000BBA0000A2000020AD0000203030300052
:102AA000B810002039393900DC100020253033649B
:102AB00000000000A600002054170108AB00002011
:102AC000AC1601089D0000209C00002010B505F008
:102AD00043FE0321BDE81040382003F05DBE10B571
:102AE00005F054FE0321BDE81040382003F054BE29
:102AF00070B51548FDF73DFC85B2FF2D0AD9134886
:102B00001349007800EB400051F82000006800F005
:102B10002DFE13E00F4C0222211DA5800620FDF79B
:102B200087FD0222211D0620FDF74FFDA088A84247
:102B300001D1012000E0002000F030FEBDE870402F
:102B40000321382003F028BEA6100020A600002094
:102B500094160108DC10002005F09CBD70477047FA
:102B60007047000038B522480078012816D1214866
:102B7000002421A104702248FDF7F2FB204821A186
:102B80001130FDF7EDFB214821A20621C3681C4846
:102B9000123809F091FF1A481238447401F066F9AE
:102BA0001D4C1020009020781C4900EB40007E2333
:102BB00051F820001A490122097850F8210000211B
:102BC00001F0CCF910237E220421232005F014FE0D
:102BD0002078144900EB400051F820001249406869
:102BE0000A7812490978BDE8384001F05DB9000063
:102BF000A2000020AD000020303030303000000056
:102C0000B81000203939393939000000DC100020B3
:102C10002530356400000000A6000020541701088C
:102C2000AB000020AC1601089D0000209C00002095
:102C300010B505F091FD0321BDE81040602003F0C0
:102C4000ABBD10B505F0A2FD0321BDE8104060202A
:102C500003F0A2BD70B51048FDF798FB0F4D044678
:102C600005F10C01E86004220E460E20FDF7E0FCA1
:102C7000042231460E20FDF7A8FCE868A04201D1ED
:102C8000012000E0002000F089FDBDE87040032134
:102C9000602003F081BD0000A6100020DC100020A1
:102CA00005F0F8BC704770477047000038B52248FF
:102CB0000078012816D12148002421A1047022485F
:102CC000FDF74EFB204821A11130FDF749FB2148BB
:102CD00021A2062183681C48123809F0EDFE1A482B
:102CE0001238447401F0C2F81D4C10200090207876
:102CF0001C4900EB40007E2351F820001A490122B4
:102D0000097850F82100002101F028F910237E22D3
:102D10000421232005F070FD2078144900EB4000C9
:102D200051F82000124940680A7812490978BDE834
:102D3000384001F0B9B80000A2000020AD0000202A
:102D40003030303030000000B810002039393939C7
:102D500039000000DC100020253035640000000040
:102D6000A600002054170108AB000020AC16010893
:102D70009D0000209C00002010B505F0EDFC032113
:102D8000BDE81040582003F007BD10B505F0FEFC6B
:102D90000321BDE81040582003F0FEBC70B5104878
:102DA000FDF7F4FA0F4D044605F10801A86004226E
:102DB0000E460A20FDF73CFC042231460A20FDF7AE
:102DC00004FCA868A04201D1012000E0002000F02E
:102DD000E5FCBDE870400321582003F0DDBC000095
:102DE000A6100020DC10002005F054BC704770478E
:102DF0007047000038B522480078012816D12148D4
:102E0000002421A104702248FDF7AAFA204821A13C
:102E10001130FDF7A5FA214821A20521438B1C485A
:102E2000123809F049FE1A481238447401F01EF8AD
:102E30001D4C1020009020781C4900EB40007E23A0
:102E400051F820001A490122097850F82100002188
:102E500001F084F810237E2204211F2005F0CCFC11
:102E60002078144900EB400051F820001249006816
:102E70000A7812490978BDE8384001F015B8000019
:102E8000A2000020AD0000203030303000000000F3
:102E9000B81000203939393900000000DC1000205A
:102EA0002530346400000000A600002054170108FB
:102EB000AB000020AC1601089D0000209C00002003
:102EC00010B505F049FC0321BDE81040882003F04F
:102ED00063BC10B505F05AFC0321BDE81040882002
:102EE00003F05ABC70B51048FDF743FA0F4D84B299
:102EF00005F11A016C8302220E461C20FDF798FB97
:102F0000022231461C20FDF760FB688BA04201D1F4
:102F1000012000E0002000F041FCBDE870400321EA
:102F2000882003F039BC0000A6100020DC1000202F
:102F300005F0B0BB704770477047000038B52248B5
:102F40000078012816D12148002421A104702248CC
:102F5000FDF706FA204821A11130FDF701FA2148BA
:102F600021A20521038B1C48123809F0A5FD1A483F
:102F70001238447400F07AFF1D4C10200090207825
:102F80001C4900EB40007E2351F820001A49012221
:102F9000097850F82100002100F0E0FF10237E2284
:102FA00004211F2005F028FC2078144900EB400084
:102FB00051F82000124900680A7812490978BDE8E2
:102FC000384000F071BF0000A2000020AD000020DA
:102FD0003030303000000000B81000203939393965
:102FE00000000000DC1000202530346400000000E8
:102FF000A600002054170108AB000020AC16010801
:103000009D0000209C00002010B505F0A5FB0321C9
:10301000BDE81040802003F0BFBB10B505F0B6FB43
:103020000321BDE81040802003F0B6BB70B5104806
:10303000FDF79FF90F4D84B205F118012C83022290
:103040000E461A20FDF7F4FA022231461A20FDF747
:10305000BCFA288BA04201D1012000E0002000F042
:103060009DFBBDE870400321802003F095BB00006C
:10307000A6100020DC10002005F00CBB7047704744
:103080007047000038B522480078012816D1214841
:10309000002421A104702248FDF762F9204821A1F3
:1030A0001130FDF75DF9214821A2052103691C4873
:1030B000123809F001FD1A481238447400F0D6FEA7
:1030C0001D4C1020009020781C4900EB40007E230E
:1030D00051F820001A490122097850F821000021F6
:1030E00000F03CFF10237E2204211F2005F084FB0A
:1030F0002078144900EB400051F820001249006884
:103100000A7812490978BDE8384000F0CDBE0000C9
:10311000A2000020AD000020303030300000000060
:10312000B81000203939393900000000DC100020C7
:103130002530346400000000A60000205417010868
:10314000AB000020AC1601089D0000209C00002070
:1031500010B505F001FB0321BDE81040682003F025
:103160001BBB10B505F012FB0321BDE81040682021
:1031700003F012BB70B51048FDF7FBF80F4C85B299
:1031800004F11001206104220E461220FDF750FACE
:10319000042231461220FDF718FA2069A84201D115
:1031A000012000E0002000F0F9FABDE870400321A2
:1031B000682003F0F1BA0000A6100020DC10002007
:1031C00005F068BA704770477047000038B522486C
:1031D0000078012816D12148002421A1047022483A
:1031E000FDF7BEF8204821A11130FDF7B9F82148BC
:1031F00021A20521838A1C48123809F05DFC1A4877
:103200001238447400F032FE1D4C102000902078DB
:103210001C4900EB40007E2351F820001A4901228E
:10322000097850F82100002100F098FE10237E223A
:103230000421272005F0E0FA2078144900EB400033
:1032400051F82000124940680A7812490978BDE80F
:10325000384000F029BE0000A2000020AD00002090
:103260003030303000000000B810002039393939D2
:1032700000000000DC100020253034640000000055
:10328000A600002054170108AB000020AC1601086E
:103290009D0000209C00002010B505F05DFA032180
:1032A000BDE81040702003F077BA10B505F06EFA53
:1032B0000321BDE81040702003F06EBA70B51048CD
:1032C000FDF757F80F4D84B205F11401AC820222CC
:1032D0000E461620FDF7ACF9022231461620FDF706
:1032E00074F9A88AA04201D1012000E0002000F07A
:1032F00055FABDE870400321702003F04DBA00007C
:10330000A6100020DC10002005F0C4B970477047FB
:103310007047000038B522480078012816D12148AE
:10332000002421A104702148FDF71AF81F4820A1AC
:103330001130FDF715F81F481FA20321C38A1B484F
:10334000123809F0B9FB19481238447400F08EFDA8
:103350001B4C1020009020781A4900EB40007E237F
:1033600051F8200018490122097850F82100002165
:1033700000F0F4FD10237E2204212F2005F03CFAFA
:103380002078124900EB400051F820001049806875
:103390000A7810490978BDE8384000F085BD000082
:1033A000A2000020AD00002030300000B810002046
:1033B00039390000DC1000202530326400000000A4
:1033C000A600002054170108AB000020AC1601082D
:1033D0009D0000209C00002010B505F0BDF90321E0
:1033E000BDE81040782003F0D7B910B505F0CEF94C
:1033F0000321BDE81040782003F0CEB970B5104825
:10340000FCF7B7FF0F4D84B205F11601EC820222E2
:103410000E461820FDF70CF9022231461820FDF760
:10342000D4F8E88AA04201D1012000E0002000F099
:10343000B5F9BDE870400321782003F0ADB9000074
:10344000A6100020DC10002005F024B9704770475A
:1034500070470000F8B52648007801282AD1254891
:10346000002625A106702748FCF77AFF254826A1EB
:103470001130FCF775FF00222649274802F0FCF8BE
:10348000244D204825A22B780321123809F014FB83
:103490001C4C3A27123C21A2A7706B780321E01C38
:1034A00009F00AFB6771AB781CA20321A01D09F08B
:1034B00003FB667400F0DAFC1020009019481A49EA
:1034C0007E230078012200EB400051F820001749CC
:1034D000097850F82100002100F040FD01B01023D0
:1034E000BDE8F0407E2204211F2005F085B90000D0
:1034F000A2000020AD00002030303A30303A3030A9
:1035000000000000B810002039393A39393A393909
:1035100000000000CC990020AC99002025303264D6
:1035200000000000A60000201C160108AB000020CF
:1035300010B505F011F90321BDE81040D82003F0C3
:103540002BB910B505F022F90321BDE81040D820B1
:1035500003F022B938B516A0022200680090154980
:103560006846FCF7D2FE6846FCF703FF124C114D8B
:1035700002222070E91C6846FCF7C7FE6846FCF78B
:10358000F8FE60700222A91D6846FCF7BEFE684680
:10359000FCF7EFFEA07000222146084802F04EF929
:1035A000012000F0FBF80321D82003F0F5F838BD26
:1035B0002A2A0000A6100020CC990020AC990020F7
:1035C000F0B5444B85B001AC0FCB84E80F0000F0A0
:1035D0004DFC00224049414802F02CF83E4D28782D
:1035E00009F086F901460322201DFCF78EFE102605
:1035F0007E230522002101A8009600F0AFFC3220B6
:103600008DF8040030208DF80500EB7834A20321FA
:10361000A01C09F051FAC4208DF80800EA208DF8AA
:1036200009006B782EA20321A01D09F045FAD420D1
:103630008DF80C00C2208DF80D00AB7828A2032174
:103640000DF10E0009F038FAC8208DF81000D520D1
:103650008DF8110000278DF812707E230122394663
:1036600001A8009600F07AFC00221F491B4802F0D6
:1036700003F81D4D1AA203212B7801A809F01CFAAA
:10368000CA208DF80600B1208DF807006B7814A2CF
:103690000321201D09F010FAB7208DF80A00D6206A
:1036A0008DF80B00AB780EA2032103A809F004FAF1
:1036B000C3208DF80E00EB208DF80F008DF81070F0
:1036C0007E230322002101A8009600F047FC05B0EC
:1036D000F0BD0000102D010865010020AC9900200C
:1036E0002530326400000000CC99002010B50C4C4D
:1036F0002078411C21700F2805D00021BDE8104022
:10370000002003F049B800F0B1FBFDF7A7FC41F63B
:10371000641000F0ADFB002020700321EEE70000F4
:10372000AA0000207047704770470000024900203F
:103730000870014603F030B8AA00002002490020BA
:103740000870014603F028B8AA000020064910B509
:103750000020087000F08AFB03F00AF80121BDE8A0
:103760001040082003F018B8AA00002038B504461D
:1037700004F0C6FF00F07AFB102000907E230322A5
:103780000021204600F0EAFB0023012219461846DA
:1037900004F0CEFABDE8384004F07CBF38B50446EA
:1037A00004F0AEFF00F062FB0D4A1020009010788C
:1037B0000C4900EB400051F820000CB1006800E01B
:1037C00040687E230322002100F0C8FB0023012271
:1037D0001946184604F0ACFABDE8384004F05ABF68
:1037E000A6000020C41601082DE9F04706462C4823
:1037F0009146884600780C4628B301284ED1002017
:1038000000F06AFA641C274FE4B2002506EB860636
:10381000701938444A4610F8A00C214600F05CFAB2
:10382000641C6D1CEDB2E4B2052DF1D34A4621466D
:10383000002000F051FA641CE1B24A46BDE8F047AE
:10384000002000F049BA184F002500BF05EB061014
:103850003844A0F580504A4690F8000E214600F00A
:103860003BFA641C6D1CEDB2E4B2082DEED3454664
:10387000B846082409F1010704EB061101EB080022
:10388000A0F58050FAB290F8000E294600F024FA14
:103890006D1C641CE4B2EDB2102CEDD3BDE8F087D2
:1038A0009A0000205F0E01085F0801082DE9F0472B
:1038B000064637489046894600780C46D0B3012822
:1038C00012D003280ED1002508F10206A01CC1B2B7
:1038D000F2B20C2000F000FA641C6D1CEDB2E4B2F0
:1038E0000C2DF3D3BDE8F087802000F0F5F9641CBF
:1038F000284FE4B2002506EB86067019384442468C
:1039000010F8A00C214640F0800000F0E5F9641C9E
:103910006D1CEDB2E4B2052DEFD342462146802066
:1039200000F0DAF9641CE1B24246BDE8F0478020BD
:1039300000F0D2B9184F002505EB06103844A0F569
:103940008050424690F8000E214600F0C5F9641CF4
:103950006D1CEDB2E4B2082DEED34D46B9460824F5
:1039600008F1010704EB061101EB0900A0F58050F6
:10397000FAB290F8000E294640F0800000F0ACF951
:103980006D1C641CE4B2EDB2102CEBD3AAE700006E
:103990009A0000205F0E01085F0801082DE9F0473A
:1039A00088460D4692464D4E4D4900245FFA80F2FE
:1039B00011F81430B3EB102F04D101EB44035B7802
:1039C000934205D0882C31D0641CA4B2892CEFD34B
:1039D000717844480AF10107B9B3012957D0022987
:1039E00022D100264FEA000906EB4411524619F88D
:1039F0000100294600F070F96D1C761CF6B2EDB29C
:103A0000102EF1D34646102505EB4411FAB219F8F1
:103A10000100314640F0800000F05EF9761C6D1C1C
:103A2000EDB2F6B2202DEFD3BDE8F0875246414605
:103A3000232000F029FA7179524608EB0100BDE815
:103A4000F047C1B2232000F01FBA00264FEA000958
:103A500006EB4411524619F80100294600F03CF9E2
:103A60006D1C761CF6B2EDB2102EF1D34646102531
:103A700005EB4411FAB219F80100314600F02CF9B7
:103A8000761C6D1CEDB2F6B2202DF1D3CCE70026EA
:103A90004FEA000906EB4411524619F80100294685
:103AA00080F0FF0000F018F96D1C761CF6B2EDB244
:103AB000102EEFD34646102505EB4411FAB219F843
:103AC0000100314680F0FF0000F006F9761C6D1C05
:103AD000EDB2F6B2202DEFD3A6E700009A00002049
:103AE0002DF600083FF700082DE9F041284E01228D
:103AF0008021304601F013F8264F0022022138467B
:103B000001F00DF80024402008F01EFF04F1B80079
:103B1000C0B208F019FF0025002008F03FFF6D1C1F
:103B2000EDB2402DF8D3641CE4B2082CEBD3002096
:103B300002F04CFE00228021304600F0F0FF01220E
:103B40000221384600F0EBFF0024402008F0FCFE84
:103B500004F1B800C0B208F0F7FE0025002008F01C
:103B60001DFF6D1CEDB2402DF8D3641CE4B2082C8F
:103B7000EBD3002002F02AFE01228021304600F023
:103B8000CEFF3846BDE8F0410122022100F0C7BF58
:103B9000001002400004024070B51A4C012280213E
:103BA000204600F0BCFF184D00220221284600F0FC
:103BB000B6FF002002F002FE002002F007FE012006
:103BC00002F0FCFD00228021204600F0A8FF012227
:103BD0000221284600F0A3FF002002F0EFFD0020A4
:103BE00002F0F4FD012002F0E9FD012280212046CF
:103BF00000F095FF2846BDE870400122022100F048
:103C00008EBF000000100240000402402DE9F04782
:103C100006462E489146884600780C4601282FD04B
:103C20002B4F002505EB06103844A0F580504A467E
:103C300090F8000E214680F0FF0000F04DF8641C63
:103C40006D1CEDB2E4B2082DECD34546B84608240D
:103C500009F1010704EB061101EB0800A0F5805003
:103C6000FAB290F8000E294680F0FF0000F034F818
:103C70006D1C641CE4B2EDB2102CEBD3BDE8F087F0
:103C8000FF2000F029F8641C124FE4B2002506EB77
:103C90008606701938444A4610F8A00C214680F078
:103CA000FF0000F019F8641C6D1CEDB2E4B2052DA4
:103CB000EFD34A462146FF2000F00EF8641CE1B223
:103CC0004A46BDE8F047FF2000F006B89A00002001
:103CD0005F0801085F0E01082DE9F04115460C460A
:103CE00080467F2932D8072D30D8194E194F3F2CE6
:103CF0000CD801228021304600F011FF0022022161
:103D0000384600F00CFF4034E0B20AE00022802187
:103D1000304600F004FF01220221384600F0FFFE89
:103D2000204608F011FEB835E8B208F00DFE404616
:103D300008F034FE01228021304600F0F0FE3846C3
:103D4000BDE8F0410122022100F0E9BEBDE8F081AA
:103D5000001002400004024010B505F04DFAAA21FF
:103D60000020FCF775FC5521BDE810400120FCF750
:103D70006FBC10B50020FCF739FCAA2804D1012043
:103D8000FCF734FC552803D0BDE81040FFF7E4BF32
:103D900010BDFEE7002200F001B8000030B50E4B68
:103DA000054601209C7B022C15D8987B00241C54CE
:103DB000987B03EB800045609D7B03F10C002A5447
:103DC000987B421C9A73303008703A2048702F203C
:103DD0008870CC70002030BD9001002038B5114CA7
:103DE0006946E06903F029FB42064FF0000104D563
:103DF000227812B1A17014200FE0000605D52078BA
:103E0000012802D0A170122007E0A0780A2807D26A
:103E1000401CA070FF202070162005F091F838BDDE
:103E2000A17038BD2C01002010B50F4A034619B10E
:103E3000107992F8221013E00120014606E0541890
:103E4000491C94F82340C9B22044C0B29942F6D923
:103E500010BD541894F82340001B491EC0B2C9B2CB
:103E60009942F6D210BD0000DC100020FFF73CBEE6
:103E700006E00021491CC9B2C829FBD3401E80B20C
:103E80000028F6D170470000064B5B782BB1012B60
:103E900005D0022B05D1FFF709BDFFF7A5BCFFF741
:103EA000B5BE70479A0000202DE9F041DFF8A880E8
:103EB0000746154698F804000C4618B998F80240D1
:103EC00098F8035000263EE0802829D20A280ED018
:103ED0007F2C04D998F8061000242944CDB298F814
:103EE000011051B101290DD0022914D10FE098F829
:103EF000060000242844C5B224E02A462146FFF7E4
:103F000073FC08E02A462146FFF780FE03E02A46BC
:103F10002146FFF7CBFC98F805002044C4B211E01D
:103F2000702C02D90024AD1CEDB2B9192A4649788B
:103F300001EB002080B22146FFF730FD761C1034E3
:103F4000F6B2E4B27F1CB85D0028BDD188F802400B
:103F500088F80350BDE8F0819A0000202DE9F05F59
:103F600000260746984692460D4634463046DDF810
:103F700028900AE0802904D9761C401CF6B2C0B211
:103F800001E0641CE4B2401CC0B2395C0029F1D1EC
:103F9000002000F013F9E00000EB0610C0B27F280B
:103FA00000D97F2019F0300206D0A8EB0501102AB5
:103FB00004D0202A0AD107E0002007E0081A00EB0D
:103FC000D070C0F3470001E0081AC0B22844C4B260
:103FD000DFF828B15FEA09600AF1010523D49BF8F4
:103FE00001004FF0000601280CD01AE0524631467D
:103FF000FF20FFF771FEEAB23146FF20FFF76CFEAB
:10400000761CF6B2A642F1D30DE0524631460020AE
:10401000FFF762FEEAB231460020FFF75DFE761C34
:10402000F6B2A642F1D300261BE080282CD29BF8E2
:10403000011021B1012907D002290ED109E0524611
:104040002146FFF7D1FB08E052462146FFF7DEFD8F
:1040500003E052462146FFF729FC0834761CE4B2FF
:10406000F6B2B85D0028E0D18BF802408BF803A0CF
:104070005FEA09613CD49BF801004FF0000601287B
:10408000A8EB04071ED031E0B9195246497801EB7C
:10409000002080B22146FFF781FC761CF6B2103476
:1040A000DCE700BF04EB060808F0FF015246FF20E2
:1040B000FFF712FEEAB208F0FF01FF20FFF70CFE47
:1040C000761CF6B2B742EDDC12E000BF04EB060846
:1040D00008F0FF0152460020FFF7FEFDEAB208F0AB
:1040E000FF010020FFF7F8FD761CF6B2B742EDDCC9
:1040F000BDE8F05F012000F061B800009A000020E8
:104100002DE9F047002490460D460746042A01D9C0
:104110004FF00408602D00D960250026385D641C2E
:10412000A919A4B2C9B24246FFF7D6FD761CF6B271
:10413000202EF3D3002608F10109385D641CA9196B
:10414000A4B209F0FF02C9B2FFF7C6FD761CF6B2B1
:10415000202EF2D3002608F10209385D641CA9194B
:10416000A4B209F0FF02C9B2FFF7B6FD761CF6B2A1
:10417000202EF2D3002608F10308385D641CA9192B
:10418000A4B208F0FF02C9B2FFF7A6FD761CF6B292
:10419000202EF2D3BDE8F08710B5FFF7FDFC0648EE
:1041A00000210822017041704271022282718170E7
:1041B000C1700121017110BD9A00002030B50424A6
:1041C000022210490823052808D2DFE800F008037E
:1041D000150F0C00012008704B71887130BD002054
:1041E00008704B7106E00C700A2002E00320087092
:1041F000102048718A7130BD0A70152048718C7189
:1042000030BD00009A00002001494870704700004E
:104210009A00002008B50E486B4600224FF480310A
:10422000006803F0AFF80BA10D48FCF799F80C48B3
:10423000FCF781F8801C80B2094B0022012108F0B4
:10424000E3FBFF220221002006F040F808BD000039
:1042500048010020D3CECFB7BDE1CAF8000000006E
:10426000AC89002010B50CA10E48FCF779F80D4878
:10427000FCF761F8801C80B20A4B0022012108F093
:10428000C3FB002302221946184603F051FDBDE886
:104290001040FFF7BFBF0000C4E3CAA7B0DCC1CB2A
:1042A000A3A10000AC89002000B50146024805F03A
:1042B000F5FB401CC0B200BDBC00002070B50B492E
:1042C00040F22A2416220D462046FCF7B1F9074990
:1042D0000422091F201FFCF7ABF9162229462046AD
:1042E000FCF773F9BDE8704002F0C6BC482F010826
:1042F00070B50A4940F22A2416220D462046FCF7E2
:1043000097F906490422091F201FFCF791F9294655
:104310002046BDE870401622FCF757B90413002070
:10432000F0B50A7D01209040344A136843F0010340
:104330001360136823F47C53136013684C6A43EAD8
:10434000042313602D4B1C331C6884431C602B4DCD
:104350002B4CCE690C35A6B92E6886432E608F890A
:104360004E6867F31F464F6904EBC707C7F84066FE
:104370000F890E6867F31F464F6904EBC707C7F83C
:104380004466CE69012E14D12E6806432E600E8835
:104390004D6866F31F454E6904EBC606C6F84056E5
:1043A0000E89CD6866F31F454E6904EBC604C4F858
:1043B0004456124C8D69241D002D256806D00543F6
:1043C00025600E4C0D69143415B104E08543F7E700
:1043D0002568854325600D69012D02D125680543B7
:1043E0002560096A012902D1196801431960106822
:1043F00020F0010010600020F0BD000000660040C9
:104400000060004010B504000AD0022084F83C008F
:10441000204600F0ABF8002004F83C0F607010BD9F
:10442000012010BD2DE9F041040004D094F83C00B7
:10443000002518B107E00120BDE8F08184F83D5067
:10444000204600F094F8022084F83C0020680168BF
:1044500021F0020101602068016841F00101016062
:1044600000F062FB0746032605E000BF00F05CFB9E
:10447000C01B0A2863D820684068C007F6D02068AF
:104480004168C90768D0A169012901683FD021F0BE
:1044900080010160E0690128206801683AD021F0BC
:1044A00040010160206A01282068016835D021F0B0
:1044B00020010160606A01282068016830D021F085
:1044C00010010160A06A0128206801682BD021F04A
:1044D00008010160E06A01282068016826D021F007
:1044E00004010160D4E902010843D4E90412114334
:1044F00008436168491E08432168C8612068016853
:1045000021F00101016000F00FFB07461CE041F0C3
:104510008001BEE741F04001C3E741F02001C8E758
:1045200041F01001CDE741F00801D2E741F004016C
:10453000D7E700BF00F0F8FAC01B0A2804D904F836
:104540003C6F0320657077E720684068C007F1D1B1
:1045500020684068C00703D0042084F83C006AE764
:104560002564012084F83C00002065E7704770470F
:104570002DE9F84F17460D00044602D0012D2BD02F
:1045800010E094F83C0022282ED094F83C004228F9
:104590002AD000BF94F83C00622825D094F83C0053
:1045A000722821D094F83D0001281DD0012684F8FE
:1045B0003D60622094F83C2072214FF042094FF098
:1045C000220A4FF0520B95B1122A1AD0222A19D082
:1045D000422A1AD0322015E094F83C00322803D049
:1045E00094F83C005228D5D10220BDE8F88F122A59
:1045F00005D0322A06D0522A07D0504602E048465B
:1046000000E0584684F83C0001E084F83C1000F0DB
:104610008BFA4FF0000800900EE00A2F0CD02FB15B
:1046200000F082FA0099401AB84205D9032084F8B4
:104630003C0084F83D80D8E72068EDB3D0F8100046
:1046400010F0030FE9D0C5B3D4F838004FF4D87197
:10465000226801EB0511525812F0040282602268B0
:10466000525850D0D20842602268515801F00201DD
:10467000C1604FF4DA71226801EB0511525802F063
:104680000F02026122685158C1F30721C0E90715E2
:104690004FF4DC71226801EB051152580275226853
:1046A0005258120A427522685258120C82752268BA
:1046B0005158090EC17501E021E022E04FF4DE718E
:1046C000226801EB05115258027622685258120AEC
:1046D000427622685258120C827622685158090E8E
:1046E000C17620202268122185B1106194F83C0027
:1046F00052281FD0622820D0722810D11FE0C06835
:104700009EE7606BA2E7520D0260ADE7D06094F8BF
:104710003C0042280ED0622808D0722808D084F8C5
:104720003C6000BF84F83D8000205EE7322007E057
:10473000584605E084F83C10F4E7504600E048464F
:1047400084F83C00EEE700002DE9F05F0E460168BA
:1047500004468868400105D48868000102D488684E
:10476000C0006FD594F83D0001280CD0012784F8D3
:104770003D7094F83C00222808D0322808D06228E6
:104780000ED0122005E00220BDE8F09F422000E09C
:10479000522084F83C008868400103D5002507E0DA
:1047A0007220F6E78868000101D5012500E00225A6
:1047B0004FF4C07000EB05100A5802F001020A50D5
:1047C000216B8A68EAB3D4F800C05CF80030134368
:1047D000CA68496842EAC1010B434CF80030216BBA
:1047E0000A7C02F00F020A614FF4C271226801EBE9
:1047F0000511535823F00F03535022685358D4F82F
:1048000030C0DCF810C043EA0C035350216B4FF466
:10481000C47303EB05130A7DD1F8151042EA012297
:104820002168CA50216B4FF4C67303EB05130A7E4F
:10483000D1F8191042EA01222168CA5021680A58A9
:1048400001E00DE05AE042F001020A5000F06CF97C
:1048500081464FF00008DFF8B0A0DFF8B0B026E0E6
:1048600022681358D1F80CC0098843EA0C0343EAC4
:1048700041511150B3E70A2E19D02EB100F054F96E
:10488000A0EB0900B04212D9032084F83C004DB1DE
:10489000012D09D04FF400002168886084F83D8024
:1048A000032071E78020F7E74FF40040F4E7ADB153
:1048B0002068012D816816D0154888430028DAD178
:1048C00094F83C00422811D0522811D0722813D0FD
:1048D00084F83C7084F83D80002055E720688168AA
:1048E0002AEA0100EAE72BEA0100E7E7222000E0DC
:1048F000322084F83C00EDE76220FAE7042084F8D7
:104900003C00012040E70000030000040003000811
:104910000000031090F83510022903D08021416572
:1049200001207047052180F835100068016821F0EA
:10493000010101600020704731B500F0F5F8009CDE
:1049400005460A2C00D2641C00F0EEF8401BA04281
:10495000FAD338BD2DE9F84FDFF888B100224FF0C7
:1049600001084FF0030A4FF00F090BF1040E00BFCE
:104970000B6808FA02F42340A3426ED14D68022D61
:1049800001D0122D0ED1D50800EB850CDCF820509B
:104990005607F70E09FA07F6B5430E69BE402E43D7
:1049A000CCF82060066855000F790AFA05FC07F07C
:1049B000030726EA0C06AF40374307604E68012E16
:1049C00005D0022E03D0112E01D0122E0ED18668F2
:1049D000CF6826EA0C06AF40374387604668A64397
:1049E0000C79C4F30014944034434460C4688E6866
:1049F00024EA0C04AE402643C6604C68E4006AD545
:104A0000394C256845F480452560246822F003056B
:104A100004F480440094354C2E19D6F808489507C4
:104A20002F0F09FA07F5AC43314DA84201D10025FB
:104A300029E0304DA84201D1012524E02E4DA842A5
:104A400001D102251FE02D4DA84201D103251AE016
:104A50002B4DA84202D1042515E03CE0294DA84287
:104A600001D105250FE0284DA84201D106250AE015
:104A7000264DA84201D1072505E0254DA84201D1C8
:104A8000082500E00925BD402543C6F80858DBF895
:104A900000405D464E689C43F60300D51C432C60E5
:104AA000DEF8004075464E689C43B60300D51C43B3
:104AB0002C600C4D08352C684E689C43F60200D5DE
:104AC0001C432C60074D0C352C684E689C43B60285
:104AD00000D51C432C60521C102AFFF449AFBDE8DE
:104AE000F88F0000003C0140443802400030014093
:104AF000000002400004024000080240000C024096
:104B0000001002400014024000180240001C024045
:104B1000002002400069084000D0012070470AB11F
:104B2000816170470904FBE7014800687047000095
:104B300010000020D0F88C0206F0D3B9D0F88C0217
:104B400006F0E3B9006807F081BB006807F082BB9C
:104B500001EB810100EBC10090F85400704701EBBC
:104B6000810100EBC100406C704710B5044690F81D
:104B70008802012809D0012084F88802206807F003
:104B800074FB002084F8880210BD022010BDFEB521
:104B90000546DDE9096095F88842089F012C1ED082
:104BA000012485F8884201EB810405EBC40402F07E
:104BB0007F0C04F8303F20816170E67184F802C0F8
:104BC0004FEAD21C84F803C027710097CDE9016039
:104BD000286807F007FC002185F88812FEBD022036
:104BE000FEBD70472DE9F00301EB8104DDE9068984
:104BF000DDE908C700EBC404022684F8332084F8FA
:104C00003730B8F1000F0AD084F83A60002553B16C
:104C1000012B3FD0022B1DD0032B2AD120E00325EE
:104C200084F83A50F2E7B8F1010F22D10ABBBCF187
:104C3000000F10D1012284F8492002E084F83A5094
:104C400001E084F83A6094F85420022A11D084F8E4
:104C500035700EE02AB994F84920002AF1D1EDE729
:104C600012B194F8482001E094F8492092B184F8F8
:104C70003A60C4E90F9C84F85450656484F831109C
:104C800084F85550027C04F130010068BDE8F0035F
:104C900007F024BC84F83A50EBE700002DE9F0411E
:104CA000044600680025064607F0DBFA01287DD19E
:104CB000206807F05CFD002878D0206807F057FDD9
:104CC000800203D521684FF400104861206807F086
:104CD0004EFDC00203D521684FF480104861206862
:104CE00007F045FD400103D521684FF08060486121
:104CF000206807F03CFD800702D52168022048614A
:104D0000206807F034FD800010D5D6F8400420F06C
:104D10002E00C6F840042046FFF710FF012120684E
:104D200007F00AFD21684FF000504861206807F045
:104D30001EFDC00102D5204601F04FFB206807F0A0
:104D400016FD000705D5204600F09DF821680820D3
:104D50004861206807F00BFD800120D5206807F02E
:104D6000B6FB07464FF0010812E000BF08FA05F055
:104D700038420CD006EB4510D0F80005E9B200042B
:104D8000204602D501F0FAF801E001F010FA6D1C9E
:104D9000A068A842EAD821684FF0007048612068F6
:104DA00007F0E5FCC0060ED5206800E00BE0816945
:104DB00021F010018161204601F066FB20688169C5
:104DC00041F010018161BDE8F08130B589B0040087
:104DD00026D0032084F88902204600F023F82068BA
:104DE00007F0D0F904F1100120220D466846FBF7C8
:104DF00068FA94E80F0007F073F90121206807F0C2
:104E0000E0FC202229466846FBF75BFA94E80F0095
:104E100007F028FC012084F88902002009B030BD89
:104E20000120FBE700B50068124987B088421FD116
:104E30004FF4404000900220019000200290032097
:104E400003900C20049069460B48FFF783FD0B4844
:104E5000016841F0005101600068002200F000503C
:104E6000059011464D2000F095F84D2000F086F891
:104E700007B000BD0000044000040240303802408A
:104E8000006807F088BCD0F88C0206F088B810B52E
:104E9000044690F8880201280DD0012084F8880289
:104EA000206807F0ABF90121206807F091F9002094
:104EB00084F8880210BD022010BD10B5044690F899
:104EC0008802012809D0012084F88802206807F0B0
:104ED0008EFC002084F8880210BD022010BD000066
:104EE00002480168491C0160704700001000002062
:104EF0000B4810B5016841F400710160016841F48C
:104F000080610160016841F480710160032000F05C
:104F100061F80F2000F006F800F018F8002010BD2E
:104F2000003C024010B5044607484FF47A7100680F
:104F3000B0FBF1F000F09AFE00222146501E00F076
:104F400029F8002010BD0000200000200A4808B504
:104F5000016841F480410160006800F480400090E5
:104F60000548001F016841F080510160006800F0B1
:104F70008050009008BD00004438024000F01F023D
:104F8000012191404009800000F1E020C0F80011AB
:104F900070470000F0B40E4B1B680C46C3F30223AD
:104FA000C3F10705042D00D90425191D072901D2D5
:104FB000002300E0DB1E012606FA05F1491E214010
:104FC00099409E40761E16403143F0BC02F099B8DD
:104FD0000CED00E0064900F0070208684FF6FF03F9
:104FE000184040EA0220034A10430860704700005E
:104FF0000CED00E00000FA052DE9F84305460068D5
:105000004FF00109C1074FF0000601D1082833D144
:10501000DFF82481C8F86860FFF786FD0746474C33
:1050200005E000BFFFF780FDC01B022863D82068A1
:105030000001F7D447F6C07191FAA1F16868B1FA9E
:1050400081F188404FF0E04292FAA2F2A968B2FAE8
:1050500082F291400843394984310860C8F8689069
:10506000FFF762FD074604E0FFF75EFDC01B022864
:1050700041D820680001F7D52878400752D52F483D
:105080004030016841F08051016000682C4C00F014
:1050900080500090206840F480702060FFF744FD4D
:1050A000074604E0FFF740FDC01B022823D8206814
:1050B000C005F7D5214C7034206810F4407020D022
:1050C000A98901F4407181421BD020681D4920F458
:1050D0004070C1F800900E6020602068C00710D0BA
:1050E000FFF722FD064641F2883707E0FFF71CFD77
:1050F000801BB84202D90320BDE8F88320688007EE
:10510000F4D5E9680D48C1F301220830032A0BD019
:10511000016821F4F81101602068A989C1F30B012D
:10512000084320600020E7E70268074B22F4F812EA
:1051300019400A430260EFE700004742003802408E
:1051400000700040400E4742FFFCFF0F2DE9F04782
:105150000E46050063D0DFF81C81D8F80000F7B2D6
:1051600000F00F00B04207D288F80070D8F80000B5
:1051700000F00F00B04252D128683F4C810712D591
:10518000400703D5206840F4E050206028780007ED
:1051900003D5206840F4604020602068A96820F0B2
:1051A000F000084320602878C0072BD03249686897
:1051B0000839012810D00968022810D08907002971
:1051C0002DDA216821F0030101432160FFF7ACFCD7
:1051D000814641F2883A0EE009688903EFE78901C8
:1051E000EDE700BFFFF7A0FCA0EB0901514502D994
:1051F0000320BDE8F0872068696800F00C00B0EB80
:10520000810FEFD1D8F80010404601F00F01B142F4
:1052100007D90770006800F00F00B04201D00120EC
:10522000E7E72878400705D52068E96820F4E050D2
:10523000084320602878000706D52068296920F4F3
:10524000604040EAC100206000F052F82168F0227E
:1052500092FAA2F201F0F001B2FA82F2D140074ACA
:10526000515CC840064908600F20FFF75BFE002034
:10527000BFE70000003C02400838024000F600088A
:105280002000002001480068704700002000002036
:1052900008480949006809684FF4E05292FAA2F2FE
:1052A00001F4E051B2FA82F2D140044A515CC840A4
:1052B00070470000200000200838024010F6000867
:1052C00008480949006809684FF4604292FAA2F25E
:1052D00001F46041B2FA82F2D140044A515CC84004
:1052E00070470000200000200838024010F6000837
:1052F000154810B5006810F00C02144813D0411086
:10530000042A0FD0082A0ED10F4C241F22682368CC
:1053100002F03F025B0207D52068C0F38810A0FBB3
:10532000010106E0084610BD2168C1F38811A1FB08
:1053300000010023FAF794FF2168C1F30141491CE1
:105340004900B0FBF1F010BD083802400024F40021
:105350002DE9F84F04007BD0DFF8C8822078A8F14F
:10536000040BC007ABF1040536D0D8F80010404656
:10537000C1F38101012908D00068C0F3810002282F
:105380000AD1DBF80000400206D52868800323D547
:1053900060680028DFD01FE0A2492079891F0870CB
:1053A000606860B1FFF7C0FB064604E0FFF7BCFB96
:1053B000801B642874D828688003F7D50CE0FFF7B9
:1053C000B3FB064605E000BFFFF7AEFB801B642879
:1053D000F0D828688003F7D42078934E80074FF0E8
:1053E000010A4FF0000742D5D8F80010404611F0EE
:1053F0000C0F08D00068C0F3810002280AD1DBF846
:105400000000400206D42868800714D5E06801280F
:105410001ED110E0E068E0B1C6F800A0FFF784FB01
:10542000814605E0FFF780FBA0EB09000228C1D808
:1054300028688007F6D52868F82292FAA2F2216936
:10544000B2FA82F220F0F8009140084328600EE0A2
:10545000E5E03760FFF768FB814605E0FFF764FB96
:10546000A0EB090002281BD828688007F6D4207812
:10547000000726D56D48616999B1C0F800A0FFF713
:1054800053FB814606E000BFFFF74EFBA0EB09008F
:10549000022805D863486C3000688007F4D510E016
:1054A00087E00760FFF740FB814605E0FFF73CFB24
:1054B000A0EB090002287CD85A486C3000688007AD
:1054C000F4D42078400749D556483830016841F077
:1054D00080510160006800F08050009054480168DD
:1054E00041F480710160FFF71FFB814606E000BFB9
:1054F000FFF71AFBA0EB090002285AD84C480068B5
:10550000C005F5D5DFF81C91207A09F1680989F802
:105510000000A06888B1FFF707FB009008E000BF1B
:10552000FFF702FB0099411A41F2883081426ED8A0
:10553000D9F800008007F3D510E0FFF7F5FA0090E6
:1055400008E000BFFFF7F0FA0099411A41F28830F5
:1055500081425CD8D9F800008007F3D4A06948B331
:10556000D8F80010C1F38101022958D0022837660B
:1055700003D0FFF7D9FA04464CE0FFF7D5FA074607
:1055800005E000BFFFF7D0FAC01B64283FD82868A9
:105590008001F7D4D4E90701084347F6C07292FAB4
:1055A000A2F2616AB2FA82F291404FF0FF33A26A2E
:1055B00001E02CE031E003EB52024FF4403393FA68
:1055C000A3F3B3FA83F39A40114308434FF0706298
:1055D00092FAA2F2E16AB2FA82F291400843CBF861
:1055E0000000C6F860A0FFF79FFA044605E000BF80
:1055F000FFF79AFA001B642809D828688001F7D5BC
:105600000BE000BFFFF790FA001B642802D90320CB
:10561000BDE8F88F28688001F4D40020F8E7012065
:10562000F6E700000838024000004742800E47427B
:105630000070004010B500680B4641680D480140FD
:10564000080CD870C1F304245C7001F03F049C7016
:10565000C1F34231197052B903F0BCFCD8705878CC
:1056600003F0B8FC5870987803F0B4FC98700020F0
:1056700010BD00003FFFFF0010B500680B46016839
:105680000E480140C1F305401870C1F306245C7058
:1056900001F07F049C70402404EA1141D97052B992
:1056A00003F098FC1870587803F094FC58709878C0
:1056B00003F090FC9870002010BD00007F7F7F00F9
:1056C00070B5040002D0607F10B106E0012070BD0B
:1056D00000202077204600F045F8022060772168FE
:1056E000CA204862216853204862204603F086FCA5
:1056F000FF250426F8B920688168194A11408160A5
:105700002168886862681043D4E904231A4310436F
:1057100088602168E068086120680169228941EA9F
:10572000024101612068C16821F08001C16020460A
:1057300000F0F8F818B1206845626677C6E720687F
:10574000016C21F4802101642068016CA26911437D
:1057500001642068456201206077002070BD000070
:10576000BFFF8FFF00680349884202D10249012030
:1057700008607047002800403C0E47422DE9F04782
:105780000446007F0B4601281FD04FF0010984F822
:105790001C9002206077DAB19878D97840EA014508
:1057A00058781978000240EA413005432168CA2040
:1057B0004862216853204862204603F01FFC0026FF
:1057C000FF274FF0040840BB1AE00220BDE8F08735
:1057D0005878C10603D500F0EF000A305870D87829
:1057E00003F001FC0204587803F0FDFB42EA0022BA
:1057F000987803F0F8FB0243187842EA4035D5E781
:105800000D480540206845602068C16821F080018E
:10581000C160204600F086F830B12068476284F805
:105820001D8026770120D1E72068476284F81D900B
:1058300026770020CAE700003FFFFF002DE9F04770
:105840000446007F0D46012811D04FF0010A84F86C
:105850001CA0022060772068002680684FEA406024
:1058600042B100281ADA287803F0B4FB17E00220CE
:10587000BDE8F087002800DBEE70287803F0B3FB6A
:105880000204687803F0AFFB42EA0022A87803F034
:10589000AAFB0243E87842EA00470AE0EE70A878E3
:1058A000297840EA01476878E978000240EA014037
:1058B00007432168CA204862216853204862204675
:1058C00003F09CFB4FF0FF084FF00409C0B91448E7
:1058D0000740206807602068816821F4802181608A
:1058E000D5E90101084321688A681043886020686F
:1058F000C16821F08001C160204600F013F838B182
:105900002168C1F8248084F81D9026770120AFE734
:105910002168C1F8248084F81DA026770020A7E71D
:105920007F7F7F0070B504460068C16821F0A00148
:10593000C160FFF7F9F805464FF47A7607E000BF3B
:10594000FFF7F2F8401BB04201D9032070BD206878
:10595000C0688006F4D5002070BD70B5040004D086
:1059600094F85100002510B106E0012070BD84F8C4
:105970005050204600F037F8022084F8510020688B
:10598000016821F040010160D4E901010843D4E934
:1059900003121143084361690843218B01F400712C
:1059A0000843E1690843216A0843A16A0843216862
:1059B0000860A069042101EA1040616A0843216877
:1059C0004860A06AB0F5005F02D12168E06A086112
:1059D0002068C16921F40061C1616565012084F816
:1059E0005100002070BD70472DE9F84F044600209B
:1059F000DDF828809A4693460D46ADF8000006462D
:105A000094F850004FF0010901280ED0012084F8CD
:105A10005000FFF789F8074694F8510061680128A3
:105A20000CD0B1F5827F07D102E00220BDE8F88FEB
:105A3000A16809B9042801D0022602E155B1BBF1E1
:105A4000000F07D0BAF1000F04D094F851000128DC
:105A500002D004E00126F4E0052084F85100002083
:105A60006065C4F838B0A4F83EA0A4F83CA0256353
:105A7000A4F836A0A4F834A020646064A06A4FF4AF
:105A8000005A50450AD1206801684DF6FF72114056
:105A900001602068016841F40051016020680168DC
:105AA000490603D4016841F040010160E068B0F5A7
:105AB000006F606804D0E0B3E08E012846D07EE03D
:105AC00010B1E08E01283AD1216835F8020BC86088
:105AD000E08E401EE08632E0B9F1000F17D0E08E74
