:020000040800F2
:10000000F82D012099010008E1B7000831A8000887
:10001000C3B300083D0D0008D51C01080000000016
:1000200000000000000000000000000073E600086F
:100030009D14000800000000FF010008A9E8000866
:10004000B3010008B3010008B3010008B3010008C0
:10005000B3010008B3010008B3010008B3010008B0
:10006000B3010008B3010008B3010008B3010008A0
:10007000B3010008B3010008B3010008B301000890
:10008000B3010008B3010008B3010008B301000880
:10009000410D0008B3010008B3010008B3010008D6
:1000A000B3010008B3010008B3010008B301000860
:1000B000F5E90008B30100089DEA0008B301000853
:1000C000B3010008B3010008B3010008B301000840
:1000D000B30100081DFA00086DFA0008B30100081A
:1000E000B3010008B3010008B3010008B301000820
:1000F000B3010008B3010008B3010008B301000810
:10010000B3010008B3010008B3010008B3010008FF
:1001100005F50008B3010008B301000889EB0008E9
:10012000B3010008B3010008B3010008B3010008DF
:10013000B30100080000000000000000B301000847
:100140009D0D0008B3010008B3010008BFCD0008F1
:10015000B3010008B3010008B3010008B3010008AF
:10016000B3010008B3010008B3010008B30100089F
:10017000B3010008C1CD000800000000000000002D
:10018000B3010008DFF80CD000F088F90048004700
:1001900091550108F82D0120064880470648004780
:1001A000FEE7FEE7FEE7FEE7FEE7FEE7FEE7FEE727
:1001B000FEE7FEE769E9000885010008EFF310801B
:1001C00072B6704780F3108870471D484FF0FF01EA
:1001D0000170002080F309881A48012101701A4833
:1001E0004FF08051016062B6FEE717484FF0805132
:1001F0000160704714484FF080510160704772B63B
:10020000EFF3098028B1203880E8F00F0F49096822
:10021000086000B50E4880475DF804EB0D480E49B4
:100220000A78027009480D490A680260106890E86F
:10023000F00F203080F309884EF0040E62B670474C
:1002400022ED00E00301002004ED00E01C0100208D
:10025000F1C300080001002001010020240100205A
:100260002DE9F05F0546002092469B4688460646EB
:10027000814640241BE0284641464746224600F07E
:10028000C4F853465A46C01A914110D31146184635
:10029000224600F0ABF82D1A67EB01084F462246C4
:1002A0000120002100F0A2F817EB00094E41201EAA
:1002B000A4F10104DFDC484631462A464346BDE846
:1002C000F09F40EA01039B0703D009E008C9121F11
:1002D00008C0042AFAD203E011F8013B00F8013B00
:1002E000521EF9D27047D2B201E000F8012B491E2C
:1002F000FBD270470022F6E710B513460A460446C3
:100300001946FFF7F0FF204610BD10B5044604E083
:100310000B7800F8013B03B1491C521EF8D220466D
:1003200010BDCAB2401E10F8011F8A4202D0002937
:10033000F9D100207047421C10F8011B0029FBD1A5
:10034000801A704710B5002200E0521C835C8C5C60
:10035000A34201D1002BF8D1D8B2E1B2401A10BDAE
:1003600030B504460020034600E05B1C934203D2F4
:10037000E05CCD5C401BF8D030BD034611F8012B8A
:1003800000F8012B002AF9D11846704770B50646CF
:1003900011F0F0FD046805460A220021304600F005
:1003A00044F82C6070BD70B5064611F0E3FD04689A
:1003B00005460A220021304600F037F82C6070BD57
:1003C00030B50B46014600202022012409E021FA25
:1003D00002F59D4205D303FA02F5491B04FA02F522
:1003E0002844151EA2F10102F1DC30BD202A04DBF5
:1003F000203A00FA02F1002070479140C2F1200338
:1004000020FA03F3194390407047202A04DB203A76
:1004100021FA02F00021704721FA02F3D040C2F124
:10042000200291400843194670472DE9F047914654
:100430000F4680460446002614F8015B2DB100F0FB
:100440003FF80068405DC007F6D12B2D02D02D2D5E
:1004500018D0641E4A463946204600F035F827B1C8
:100460003968A14201D1C7F8008071054FF002043C
:100470000BD54042002803DD11F07CFD0460A0078D
:10048000BDE8F08746F48066E4E70028F8DA11F06A
:1004900071FD04606FF00040F2E70000064C074D6C
:1004A00006E0E06840F0010394E807009847103444
:1004B000AC42F6D3FFF76AFEA8F50108C8F50108BB
:1004C000004870476CE801082DE9F05F824600782B
:1004D000002715468B460AF10104B946302801D0A1
:1004E0009DB113E014F8010B0127782803D0582898
:1004F00001D045B10AE00DB1102D07D1002710251C
:1005000014F8010B02E0082500E00A250026B04699
:100510000EE005FB080005FB06F1012701EB104684
:100520001FFA80F8B6F5803F00D3B94614F8010BE6
:10053000294600F018F80028EBDABBF1000F05D0CF
:100540000FB1641E00E05446CBF80040B9F1000F33
:1005500006D011F00FFD02210160C81EBDE8F09F1A
:1005600048EA0640FAE73A2800D2303820F0200264
:10057000412A01D3A2F13700884201D34FF0FF3066
:10058000704770B58C1810F8015B15F0070301D1A6
:1005900010F8013B2A1106D110F8012B03E010F8E6
:1005A000016B01F8016B5B1EF9D12B0705D4002309
:1005B000521E0DD401F8013BFAE710F8013BCB1AAB
:1005C000921C03E013F8015B01F8015B521EF9D5A0
:1005D000A142D8D3002070BD10B50AF04DF9BDE896
:1005E000104007F03EBC70B515460E46044608E0C4
:1005F0002046641CA4B200F007F86D1E06F8010B3B
:10060000ADB2002DF4D170BD10B504460AF0DAF990
:10061000A0200AF0A7F90AF019FA200A0AF0A2F9B4
:100620000AF014FAE0B20AF09DF90AF00FFA0AF0A3
:10063000C9F9A1200AF096F90AF008FA00200AF098
:1006400061F904460AF0E0F9204610BD70B5144681
:100650000D46064606E02978304600F007F8761C7D
:10066000B6B26D1C641EA4B2F5D270BD70B50D4655
:1006700004460AF0A7F9A0200AF074F90AF0E6F996
:10068000200A0AF06FF90AF0E1F9E0B20AF06AF91B
:100690000AF0DCF928460AF065F90AF0D7F90AF001
:1006A000B3F9BDE870400A2012F090BD7047704762
:1006B000014808F024BD000064190020704770470D
:1006C000704700007CB52148214C4FF48075C1680B
:1006D0004FF47A7048430A22B0FBF2F00190206890
:1006E00099B1A1F5C3329F3A09D069460BF003FADC
:1006F000184B1949C6074FF000020BD108E06B46B2
:10070000002229460BF09CF97CBD6B460122F8E7DC
:10071000C00304D50A601A706B46002213E0086813
:10072000019EB04203D200F1010008607CBDFDD102
:1007300000F1010008604FF0010018709A7014F089
:10074000DBFE6B46012229462068DBE760230020A0
:100750007401002060000020800000203EB5254983
:100760000A20254C4A8BB2FBF0F2019289684FF4C3
:100770007A724A43B2FBF0F00290E06981B1A1F5D0
:10078000C3329F3A06D069460BF0B5F91B49C20740
:100790000BD108E06B46002204210BF051F93EBD5D
:1007A0006B460122F8E7C20304D500206B460246DF
:1007B00008601CE04007F2D40868401C0860019AF9
:1007C0004FF48051904202D16B46012210E0029A10
:1007D0009042E4D96B460022E0690BF031F969469A
:1007E000E0690BF088F94002D9D46B46012204215C
:1007F000E069D2E760230020580100207C0000203F
:1008000010B508F08BFC0EF05DF800F05FFEFFF70E
:10081000E3FE0AF0B5FC0EF0CBF80DF08BF90AF010
:10082000BFFC0AF0F9FC0AF0D1FC16F04DFE0AF00C
:1008300065F90FF08FF811F0D5FA0EF015FE00F003
:1008400049FBBDE810400DF0CFB900002DE9FF4F86
:100850002D20B0FBF1F081B0491E01989B4600EBC2
:10086000800202EB401090FBF1F00004000CC6B2D5
:1008700000D1032603980025012100F1010900F1B0
:10088000020801EBD604B5EBD60F11D0AC420FD065
:100890002A460020039907F097FA09F0FF012A463B
:1008A000FF2007F091FA08F0FF012A46002033E00C
:1008B000F008DFF84CA106F0070700901AF80700CF
:1008C000009A039907F080FA1AF8070009F0FF016F
:1008D000C0F1FF00009A07F077FA08F0FF011AF85C
:1008E0000700009A07F070FA062C17D20AF1090ADD
:1008F00022461AF80700039907F066FA1AF807006B
:10090000224609F0FF01C0F1FF0007F05DFA224620
:1009100008F0FF011AF8070007F056FA6D1CEDB257
:10092000062DB0D3012007F0D7FC01980025401C0C
:10093000C6B26420B6FBF0F4ABF10C00C1B23CB11E
:1009400004F13000C0B2072207F034FB012503E0B8
:100950000722202007F02EFB2720444306EB8400CB
:10096000C4B20A26B4FBF6F2ABF1060002B925B117
:10097000C1B23032D0B2072202E0C1B20722202039
:1009800007F018FBB4FBF6F006FB10403030C0B2A5
:100990000722594607F00EFB1A4F3878012828D94C
:1009A000002422E01849001B0844624210F8010CA0
:1009B0000BEBC205401CC0B2B0FBF6F106FB110008
:1009C000A5F108013030C9B2C0B2072207F0F2FA2F
:1009D000681EC1B20722102007F0F6F9E9B207221B
:1009E000102007F0F1F9641CE4B23878411E8C4203
:1009F000D8DB05B00020BDE8F04F07F06DBC00006B
:100A0000A3A40108AE000020E6220020F8B50024CF
:100A100015460E460746012B04D07823009407F0B4
:100A200033FBF8BD012007F07DFC78232A463146D0
:100A30003846009407F028FBBDE8F840002007F096
:100A400071BC00002DE9F047DFF8C8A0DFF8C880CE
:100A50009AF80000032803D9032288F8002001E057
:100A600088F800002D4900242D4F09782D4E0129CA
:100A700002D0022905D010E00CF07AFB3C703470F3
:100A80000FE098F800103278491E8A4200DD347079
:100A90003A78411E8A4200DD3C70397832789142C2
:100AA00002D33878317800E0511A401AC4B20025D8
:100AB000DFF8749020E03878844208D13178490614
:100AC0000A0ED9F80010012351F8200006E068064C
:100AD000020ED9F80000002350F824000021FFF78F
:100AE00095FF9AF80000401E844201D1002401E0E5
:100AF000641CE4B26D1CEDB298F800008542DAD3B4
:100B00009AF800103878BDE8F04778237D22FFF787
:100B10009DBE0000B2000020B4000020A80000200C
:100B2000B1000020B3000020B80000202DE9F047FC
:100B3000DFF8E480374E98F800403178601EC2B28A
:100B400071B1481E3070354F354D3B7828684BB138
:100B50005A06120E5B1E3B7050F82100002337E04E
:100B60003270F0E7032C2ED934784FF0000A524649
:100B7000A94650F8240001235146FFF747FF98F893
:100B80000000401E844201D1002401E0641CE4B254
:100B900001256806020ED9F800000023194650F816
:100BA0002400FFF733FF98F80000401E844201D173
:100BB000002401E0641CE4B26D1CEDB2032DE8D307
:100BC00087F800A012E03A7050F8210000231A467E
:100BD0000021FFF71BFF387831784006020E2868A5
:100BE000012350F821000021FFF710FF78237D2218
:100BF00098F800103078FFF729FE0B49094809786A
:100C000000EB4100002130F8020CBDE8F04709F08C
:100C10006DBF0000B1000020B2000020B300002032
:100C2000B8000020D0220020AD0000202DE9F047C0
:100C3000DFF8F0803A4E002498F800203178501EFA
:100C4000814201D1347001E0481C30703748364F82
:100C5000374D90F800C03B78ACF1010C2868634533
:100C600004D05A06120E5B1C3B7034E06FF0010397
:100C7000032A2CD9347899460422AA4650F8240035
:100C800001230021FFF7C2FEBCB1641EE4B20225BD
:100C900009EB4500C2B2DAF800000023194650F80B
:100CA0002400FFF7B3FE6CB1641EE4B26D1E15F0B4
:100CB000FF05EDD1022038701EE098F80000401EBC
:100CC000C4B2E4E798F80000401EC4B2EEE703EBBC
:100CD00042023C70D2B250F8210000231946FFF7BF
:100CE00095FE387831784006020E2868012350F8C6
:100CF00021000021FFF78AFE78237D2298F800105A
:100D00003078FFF7A3FD0C490A48097800EB410051
:100D1000002130F8020CBDE8F04709F0E7BE000002
:100D2000B1000020B2000020B3000020B400002079
:100D3000B8000020D0220020AD000020FEE7000017
:100D400070B5134D00240A222146284607F000FD05
:100D5000696BA5F10C000A8802800A7B8270097C0D
:100D6000C17006E06A6B04F11401515C0219641C45
:100D70001171C178A142F5D8074C064920680DF0E1
:100D80006FFD2068BDE8704001490C3911F0CABE02
:100D9000D0CB0020006400409001002070B5134DBE
:100DA00000240A222146284607F0D2FC696BA5F1EF
:100DB00050000A8802800A7B8270097CC17006E0BC
:100DC0006A6B04F11401515C0219641C1171C17841
:100DD000A142F5D8074C064920680DF041FD206876
:100DE000BDE870400149503911F09CBE14CC002080
:100DF00000680040900100200D49C0F8AC100D497A
:100E000040F8801F0C4941600C4981600C49C16069
:100E10000C49C0F84C110C49C0F850110B49C0F8EE
:100E2000B8110B49C0F854110A49C0F8581170475D
:100E300051B2000853B20008BFB300083DB3000828
:100E4000C1B30008BDB30008B9B30008BBB30008C4
:100E50008DB3000895B3000870B5094DFF231A46FD
:100E600005F5807605E010F8014B54402A5D5A40A4
:100E7000335D491E89B2F6D242EA032070BD0000FC
:100E8000EAE5010810B5012901D0022902D10C318F
:100E9000C9B2401E4B1C03EB43030524B3FBF4F320
:100EA00002EB41011944C217014400EB927201EBBD
:100EB000A201642290FBF2F2891A4FF4C87290FBEF
:100EC000F2F00844072190FBF1F201FB1200401CF4
:100ED000C0B210BD70B514F0CDF91A4C184D206891
:100EE000C0F8E051FFF788FF0021206816F0DEFC13
:100EF0007F21206816F032FC0521206816F0D6FC10
:100F00001021284611F04CFE10210F4811F048FE28
:100F100000204FF48031401C8842FCD30020401C4C
:100F20008842FCD30020401C8842FCD30020401C97
:100F30008842FCD30020401C8842FCD370BD0000D6
:100F40000064004090010020006800402DE9F04757
:100F5000012714F053FA20F0C0004FF000093F2899
:100F600002D0314AA2F80090304C314D314E0B384E
:100F700007283ED2DFE800F00B211A04282F3600A4
:100F8000208800EB800005EB8000408805E0208889
:100F900000EB800005EB80008088208000EB800063
:100FA00005EB800000693060804723E0208800EB7B
:100FB000800005EB8000C088EFE7208800EB800010
:100FC00005EB80000089E8E7208800EB800005EB56
:100FD00080008089E1E7208800EB800005EB80003D
:100FE0004089DAE7208800EB800005EB8000C089AB
:100FF000D3E70027DFF8408098F8000068B1208828
:1010000000EB800005EB800000693060804798F8B5
:101010000010042904D088F800903846BDE8F08715
:10102000012188F80010F8E7C4000020AA00002081
:1010300050AE0108C0000020A80000202DE9F04FAC
:101040008FB0044606F0A8FF94A104A8FFF795F915
:10105000102680230122002104A8009607F014F82E
:10106000234691A2042104A810F05CFF90A10DF189
:101070001300FFF782F980230422002104A80096C0
:1010800007F002F800226423114610460BF0E6F93F
:10109000DFF82482894F34B198F89703A04202D335
:1010A000254687490BE098F89703A0420AD298F8A2
:1010B00098130144A14205D3201A8249C5B2386869
:1010C0000DF0CEFB05F5C0600E9080380B908DF8CA
:1010D00030500122FB2120460EF032F90420002678
:1010E0000DF1280A0A90CDE900A6DFF8D0914FF45F
:1010F000945B02960EAB01225946D9F8000011F01C
:1011000049FACDE900A602960BAB02225946D9F85E
:10111000000011F03FFA01200A90CDE900A60296E6
:101120000CAB03225946D9F8000011F033FA08EB52
:10113000C407C246B7F8A8030990062002210DF1A2
:101140002408CDE90010CDE90286002346F206020C
:101150002946D9F8000016F00BFE002873D1284666
:1011600000F0F2F800286FD09AF89E03B3460126EB
:101170000DF1040C052100960990D1468CE8020976
:10118000DFF838A1334646F206022946DAF80000B5
:1011900016F0EEFD00287ED1284600F0D5F8002894
:1011A00076D099F89F03D9464FF0050B0123CDE97E
:1011B000003B0990CDE90289022346F20602294646
:1011C0005646DAF8000016F0D3FDE0BB284600F0E2
:1011D000BBF800285CD0D7F8AA03CA4620F07F40AD
:1011E0000723042209908DE80C05032346F206022A
:1011F0002946B146306816F0BBFD20BB284600F0FA
:10120000A3F8002844D0B7F8A6035646CDE90286D5
:101210004FF0010A0990CDE900AB042346F2060223
:101220002946D9F8000016F0A3FD60B9284600F061
:101230008BF800282CD097F8AD03052346F2060260
:101240002946099001E026E022E0CDE90286CDE9B9
:1012500000ABD9F8000016F08BFDE0B9284600F08D
:1012600073F8002814D00222FB2120460EF068F803
:101270000DA8009014484FF47A7382224FF0007149
:1012800000680AF023FB9DF834000A2803D00120EF
:101290000FB0BDE8F08F0020FAE70000D5FDD4DAEA
:1012A000C5E4D6C300000000253033640000000010
:1012B000BAC5C9E8B1B80000602300209001002041
:1012C00000640040006800407401002010B586B042
:1012D00004460BF04DFF06F05FFE234613A20421E7
:1012E00001A810F01FFE13A10DF10700FFF745F84C
:1012F000102480230122002101A8009406F0C4FEDE
:101300000EA101A8FFF739F880230422002101A8CB
:10131000009406F0B9FE00230122194618460BF08E
:101320009DF80BF0EFFE06B010BD000025303364D1
:1013300000000000BAC5C9E8B1B80000C5E4D6C3D2
:10134000B3C9B9A621000000F8B506460A4D0EE063
:1013500000220A23114610460BF080F86A463146F7
:10136000286813F0A9FC012804D0641EA4B2002C44
:10137000EED10020F8BD00009001002030B40A46F4
:10138000D0F89C10D0F8A0404FF0FF3351F8221055
:1013900024F81230C1F307410122431883F8B0202A
:1013A000D0F8AC2030BC10472DE9F04F9946DDE96C
:1013B000094C4FF0FF3BDDF82CA048E0ACEB0203FA
:1013C0005BB20D78002B02DD05FA03F503E0C3F1F3
:1013D000000325FA03F5EEB202DDCCF1080301E0CB
:1013E000C2F10803DBB2834200D903460CEB0307CA
:1013F0004FF0FF0808FA07F5CCF1080C28FA0CF8B2
:1014000045EA080594F800C0AE430CEA050C1A44FE
:101410004CEA060CD2B284F800C0072A07D9002291
:10142000B9F1000F01D05D4600E00125294407F025
:10143000FF0CBCF1070F08D94FF0000CBAF1000FF8
:1014400001D05D4600E001252C44C01AC0B200283E
:10145000B4D1BDE8F08F10B500210A4600EB81033E
:10146000491CC3F87C230F29F8D300214FF40073E3
:101470004418491C84F81C219942F9D30270427027
:1014800001218170C0F8B823017640238371427630
:1014900080F81C2380F81D13002010BD7047000049
:1014A000411C0DD0084AB2F90010884201D1491EF2
:1014B0001180054A002100EB4000083202F830108C
:1014C0004FF0FF30704700009401002038B52649E6
:1014D00000200A6842F001020A600968234C01F00A
:1014E000010100914FF08041E060C4E90010204DFF
:1014F000482129702061A060204608F001FD206885
:10150000016841F0040101602068016A41F2111292
:10151000114207D1016A9210114203D1016821F0F2
:1015200001010160062007F06DFE022200211C204F
:1015300007F048FE1C2007F037FE0E480E490068F1
:10154000B0FBF1F14FF47A704143012068804FF015
:10155000E020026942F0020202614161016941F04A
:101560000101016138BD0000403802409022002096
:101570009C0000202000002040420F0030B52128B0
:1015800000D92138012202EB10431C4A127803FBD8
:1015900002F41B4A1568AC62B0FBF3F41568EC6208
:1015A000B0FBF3F0D06010686FF0010505611368BF
:1015B000002058621068036843F00103036041F2A1
:1015C00011139C1011B1012911D004E010680169B8
:1015D000C907FCD005611068016A194206D1016A89
:1015E000214203D1016821F00101016030BD106882
:1015F000C16841F00101C16030BD00009C000020C5
:101600009022002010B50022114607A006F0E2FC4F
:101610000222002107A006F0DDFC0422BDE81040F4
:10162000002107A006F0D6BC4275696C642054699D
:101630006D653A004A756C20323120323031390004
:1016400032323A33303A3432000000000BF05ABDE7
:101650002DE9F843234D2449DFF890802878244F62
:1016600000EB400001EB8002137988F8003051F85C
:101670002000386006F090FC1E481F4C00780128BE
:1016800005D10BF075FD1D49002020700870102653
:1016900000962178386800227E2350F821001146F8
:1016A00006F0F2FC16482178022250F82100302181
:1016B00006F0B4FD00962878124900EB40007E2326
:1016C00051F8200006220021406806F0DDFC98F861
:1016D0000010207801B07823BDE8F0437D22FFF7A9
:1016E000B5B80000AC000020A4AD0108B200002095
:1016F000B8000020A8000020B1000020B3000020A6
:1017000034AE01081CAE010838B5164C164D2078D1
:1017100000B928780022401E207010200090134845
:1017200021787E23006850F82100114606F0ACFCB9
:101730000F482178022250F82100302106F06EFD7A
:1017400078237D2229782078FFF780F80A49094814
:10175000097800EB4100002130F8020CBDE8384068
:1017600009F0C4B9B1000020B2000020B800002088
:1017700034AE0108D0220020AD00002038B5194D4C
:10178000174C29782078491E884201D1002000E0BA
:10179000401C20701020009013482178002200681F
:1017A0007E2350F82100114606F06EFC0F48217888
:1017B000022250F82100302106F030FD78237D22EE
:1017C00029782078FFF742F80A490948097800EBA0
:1017D0004100002130F8020CBDE8384009F086B91C
:1017E000B1000020B2000020B800002034AE010893
:1017F000D0220020AD000020154810B50178164811
:10180000144A0629007802EB40001DD2DFE801F0FF
:1018100003080D10151506F0BFFB012110200FE085
:1018200006F0BAFB012118200AE00121D02007E0D0
:1018300006F0B2FB0221202002E030F8020C002169
:10184000BDE8104009F052B900210846F8E7000051
:10185000B1000020D0220020AD0000200BF052BCCF
:10186000704770477047000008B506F095FB1020E0
:101870000090074807497E230078032200EB4000D0
:1018800051F820000021006806F0FEFB08BD0000B2
:10189000AC0000208CAD0108704770470BF032BCE3
:1018A0000BF030BC704770477047000008B506F079
:1018B00073FB1448154A164B007800EB40011248A0
:1018C00000EB8100106002791A70124A00687E23D2
:1018D0001060102000901048062250F821000021CE
:1018E000406806F0D1FB0D480078022806D10BF0C5
:1018F0003FFC0B49002008700A490870BDE8084009
:10190000FFF7A0B8AC00002024AC0108BC00002008
:10191000B2000020B80000201CAE0108A800002082
:10192000B1000020B3000020FFF700B9FFF77EB937
:101930000B48007850B101280CD00B4909480978B0
:1019400000EB4100002130F8020C06E002214FF4C8
:10195000947002E002214FF4987009F0C7B80000BB
:10196000B1000020D0220020AD0000200BF0CABB47
:10197000704770477047000038B51D48007801284F
:1019800018D11C4800241CA104701C48FEF7F5FC6B
:101990001A481BA12130FEF7F0FC1A481AA20421B4
:1019A00090F897331548223810F0BCFA13482238C3
:1019B00080F8214006F0F0FA1020009014481549F4
:1019C0007E230078012200EB400051F820001249EC
:1019D000097850F82100002106F056FB01B01023D1
:1019E000BDE830407E22042133200BF043BC0000D0
:1019F000A8000020B3000020303030001C2300205D
:101A0000393939006023002025303364000000009C
:101A1000AC000020D4AD0108B100002010B50BF0DF
:101A2000D3FB0321BDE81040F02009F05FB810B5EA
:101A30000BF0E2FB0321BDE81040F02009F056B89E
:101A40002DE9F0411848FEF7A1FC84B27D2C0AD99B
:101A500016481749007800EB400051F82000006854
:101A600005F002FF19E0134D40F2993605F2973167
:101A700085F8974301220F463046FEF7E7FD012225
:101A800039463046FEF7AFFD95F89703A04201D1E5
:101A9000012000E0002005F0FDFEBDE8F04103213B
:101AA000F02009F023B80000FA220020AC0000204A
:101AB000FCAC0108602300200BF024BB704770478A
:101AC0007047000038B51D480078012818D11C481F
:101AD00000241CA104701C48FEF74FFC1A481BA1EF
:101AE0002130FEF74AFC1A481AA2042190F89833D4
:101AF0001548223810F016FA1348223880F8214091
:101B000006F04AFA10200090144815497E23007808
:101B1000012200EB400051F820001249097850F8EA
:101B20002100002106F0B0FA01B01023BDE83040DA
:101B30007E22042133200BF09DBB0000A800002072
:101B4000B3000020303030001C2300203939390028
:101B5000602300202530336400000000AC0000202A
:101B6000D4AD0108B100002010B50BF02DFB03210E
:101B7000BDE81040F82008F0B9BF10B50BF03CFBF1
:101B80000321BDE81040F82008F0B0BF2DE9F04176
:101B90001848FEF7FBFB84B27D2C0AD9164817497A
:101BA000007800EB400051F82000006805F05CFE72
:101BB00019E0134D40F29A3605F5667185F89843A1
:101BC00001220F463046FEF741FD012239463046DC
:101BD000FEF709FD95F89803A04201D1012000E02D
:101BE000002005F057FEBDE8F0410321F82008F081
:101BF0007DBF0000FA220020AC000020FCAC0108F0
:101C0000602300200BF07EBA7047704770470000D9
:101C10002DE9FE43424F0024424E3878424D4FF0AA
:101C20002008012827D1414841A1047005F1220074
:101C3000FEF7A3FB41A105F14300FEF79EFB85F8EB
:101C40002A40472085F84B000120F0823020287080
:101C500068703120A87085F803802D212971697181
:101C60003E213948A97185F8078090F8250228722D
:101C70006C7285F82140387803282CD195F8210022
:101C8000082828D00322284901A8FEF73EFB8DF83A
:101C900007402548FEF77AFB84B2FA2C12D92B486C
:101CA0002B49007800EB400051F82000006805F057
:101CB000DBFDF48A27A2234604211B4810F032F9E9
:101CC00085F80380F08AA04205D01F48F4822044A2
:101CD00090F82402287206F05FF9102000907E230D
:101CE000012200211DA006F0CFF910237E2204213D
:101CF0001B200BF0BFFA95F82100082802D1022022
:101D000006F010FB287A1949042251F820005B21C3
:101D100006F060F9002006F005FBBDE8FE83000038
:101D2000A8000020C6000020FA220020B3000020F6
:101D3000303030202D2D3E20300000003239392047
:101D40002D2D3E207800000060230020AC000020F4
:101D5000FCAC01082530336400000000C9E8B1B8CC
:101D6000BAC52020C6B4D2F400000000E8D40108AF
:101D700010B50BF029FABDE8104003214FF4A07014
:101D800008F0B4BE10B50BF037FABDE810400321DF
:101D90004FF4A07008F0AABE2DE9FC4103221F49B0
:101DA0006846FEF7B2FA00208DF803001B48FEF7E4
:101DB000EDFA80B2FA280AD919481A49007800EBDE
:101DC000400051F82000006805F04EFD1EE0164A64
:101DD000124D1418A71A297A84F8241204F50971EF
:101DE00007F226270E46B8B20122FEF72FFC314635
:101DF000B8B20122FEF7F7FB287A94F82412884241
:101E000001D1012000E0002005F044FD03214FF442
:101E1000A07008F06BFEBDE8FC810000FA220020F3
:101E2000AC000020FCAC0108602300200BF06AB974
:101E3000704770477047000008B506F0ADF81548C8
:101E4000164A174B007800EB4001134800EB810065
:101E5000106002791A70134A00687E231060102007
:101E600000901148062250F821000021806806F0F9
:101E70000BF90E480078022808D10BF079F90C48CC
:101E80000C4990F89F0308700B490870BDE80840A2
:101E9000FEF7D8BDAC0000200CAC0108BC0000204F
:101EA000B2000020B80000201CAE0108A8000020ED
:101EB00060230020B1000020B3000020FEF736BEF2
:101EC000FEF7B4BE2DE9F0410BF052F906F064F8CC
:101ED0000F48104D40F2A136047805F29F3185F885
:101EE0009F4301220F463046FEF7B0FB01223946E0
:101EF0003046FEF778FB95F89F03A04201D1012000
:101F000000E0002005F0C6FCBDE8F0410BF0FAB897
:101F1000B1000020602300200BF0F4B87047704738
:101F2000704700000D4808B50078012804D10C491D
:101F3000002008700B49087006F02EF81020009061
:101F400009480A497E230078032200EB400051F83B
:101F500020000021006906F097F808BDA8000020C5
:101F6000B1000020B3000020AC0000201CAE01082E
:101F70007047704710B506F039FA012005F08AFC69
:101F80000BF0C0F80221BDE81040102008F0AEBDF3
:101F90000BF0B8B8704770477047000008B505F0FF
:101FA000FBFF0F48104A114B007800EB40010D4831
:101FB00000EB8100106002791A700D4A00687E23E0
:101FC0001060102000900B48062250F821000021DC
:101FD000406806F059F8BDE80840FEF733BD000040
:101FE000AC00002084AC0108BC000020B20000203E
:101FF000B80000201CAE0108FEF798BDFEF716BE23
:102000000D4810B5007850B101280DD00C490B488F
:10201000097800EB4100002130F8020C08E00BF0D9
:10202000A7F80121D82003E00BF0A2F80121E0205D
:10203000BDE8104008F05ABDB1000020D0220020B9
:10204000AD0000200BF05EB870477047704700008D
:1020500008B505F0A1FF1548164A174B007800EBAC
:102060004001134800EB8100106002791A70134A96
:1020700000687E231060102000901148062250F85E
:1020800021000021806805F0FFFF0E48007802283B
:1020900008D10BF06DF80C480C4990F89E030870BD
:1020A0000B490870BDE80840FEF7CCBCAC0000202E
:1020B000F4AB0108BC000020B2000020B8000020F2
:1020C0001CAE0108A800002060230020B100002001
:1020D000B3000020FEF72ABDFEF7A8BD2DE9F041B0
:1020E0000BF046F805F058FF0F48104D4FF4687696
:1020F000047805F29E3185F89E4301220F46304652
:10210000FEF7A4FA012239463046FEF76CFA95F83C
:102110009E03A04201D1012000E0002005F0BAFB9F
:10212000BDE8F0410AF0EEBFB100002060230020BE
:102130000AF0E8BF70477047704701214FF4E8701C
:1021400008F0D4BC704770477047000070B5304845
:10215000304E314C007886B0012806D12F4900203E
:10216000307008702E492079087005F015FF2D4851
:102170002DA20421C38901A80FF0D4FE2CA10DF1DA
:102180000700FEF7FAF8102580230122002101A89C
:10219000009505F079FF28A101A8FEF7EEF880234D
:1021A0000322002101A8009505F06EFF3078254D2F
:1021B000F0B1002006F0B6F82878062200EB4000C7
:1021C000102154F82000006805F004FF012006F0FB
:1021D000A9F82878062200EB4000502154F820008E
:1021E000406805F0F7FE002006F09CF806B070BDD0
:1021F000012006F097F82878062200EB4000102115
:1022000054F82000006805F0E5FE0020DFE700003C
:10221000A8000020B100002074AD0108B300002028
:10222000B2000020C600002025303364000000000A
:10223000BAC5C9E8B1B80000C5E4D6C3CAA7B0DCC6
:1022400021000000AC00002010B509F0BBF8BDE88B
:10225000104003214FF4EC7008F048BC10B509F0B1
:10226000C7F8BDE8104003214FF4EC7008F03EBC05
:102270000848007840B1084AD089518A884202D281
:10228000401CD08100E0D181012140F2D11008F042
:102290002DBC0000B1000020C6000020F8B5214888
:1022A0000078012821D12048002620A1067021486D
:1022B000FEF763F81F4820A12130FEF75EF8204D9D
:1022C0001C4820A22B8A042122380FF02BFE194C27
:1022D0002D20223C1BA2E0706B8A0421201D0FF0F0
:1022E00021FE84F821600120287005F055FE1020A1
:1022F0000090164816497E230078012200EB40002A
:1023000051F820001349097850F82100002105F008
:10231000BBFE01B01023BDE8F0407E220421232043
:102320000AF0A8BFA8000020B30000203030302DF4
:10233000303030001C2300203939392D393939002B
:10234000C60000202530336400000000AC000020EF
:10235000D4AD0108B100002010B50AF035FFBDE88A
:10236000104003214FF4E87008F0C0BB10B50AF02C
:1023700043FFBDE8104003214FF4E87008F0B6BBFE
:1023800010B586B0032225496846FDF7BEFF6846B2
:10239000FDF7FCFF224C214903222082091D6846DB
:1023A000FDF7B3FF6846FDF7F1FF80B26082218A36
:1023B000FF2901D8FF280AD91A481B49007800EBE9
:1023C000400051F82000006805F04EFA13E0207834
:1023D00001280CD1E1810AE0C0B2FEF72FFE207087
:1023E00068B1A07BFEF772FFE089401CE081E089C4
:1023F000618A8842F0D903214FF4E87009E00B4864
:102400000021006815F03CF80BF000FD04214FF4AA
:10241000EC7008F06BFB06B010BD0000FA22002043
:10242000C6000020AC000020FCAC01089001002098
:102430000AF068BE70477047704700000D4808B545
:102440000078012804D10C49002008700B4908705D
:1024500005F0A2FD1020009009480A497E2300786B
:10246000032200EB400051F820000021006905F034
:102470000BFE08BDA8000020B1000020B300002022
:10248000AC0000201CAE01087047704710B50BF07F
:10249000AFFC012005F0FEF90AF034FE0221BDE890
:1024A0001040182008F022BB0AF02CBE704770477D
:1024B0007047000038B51B480078012814D11A482D
:1024C00000241AA104701A48FDF757FF184819A1F3
:1024D0002130FDF752FF164814A12238FDF74DFFB9
:1024E0001348223880F8214005F056FD1020009056
:1024F000114812497E230078012200EB400051F878
:1025000020000F49097850F82100002105F0BCFD9A
:1025100001B01023BDE830407E22042133200AF0B0
:10252000A9BE0000A8000020B30000203030300019
:102530001C23002039393900AC000020DCAB010835
:10254000B100002010B50AF03FFEBDE810400321A5
:102550004FF4C47008F0CABA10B50AF04DFEBDE8D9
:10256000104003214FF4C47008F0C0BA38B51E48BB
:10257000FDF70CFF84B2FA2C0AD91C481C490078DC
:1025800000EB400051F82000006805F06DF925E0EF
:1025900018486B4600224FF48041006809F050FA59
:1025A000E0B20CF059FF144D286809F0C5FB8DF816
:1025B00000006A464FF47A71286809F0CBFB9DF859
:1025C00000100A2905D00178A14204D04078FD28E6
:1025D00001D0002000E0012005F05CF903214FF458
:1025E000C47008F083FA38BDFA220020AC00002045
:1025F000FCAC010874010020700100200AF082BDCB
:102600007047704770470000F8B5284800780128E7
:102610002FD12748002627A106702948FDF7ADFED7
:10262000274828A12130FDF7A8FE254C3220223C66
:1026300000222070302060702549264807F016F9E6
:10264000234D25A20321EB78A01C0FF06BFC2F2754
:1026500027716B7820A20321601D0FF063FCE771E6
:10266000AB781DA2032104F108000FF05BFC84F895
:10267000216005F091FC10200090194819497E2333
:102680000078012200EB400051F82000164909783B
:1026900050F82100002105F0F7FC01B01023BDE83F
:1026A000F0407E22042117200AF0E4BDA80000209B
:1026B000B3000020323030302F30312F3030000066
:1026C0001C230020323039392F31392F33390000A3
:1026D000C70E0020ACDD0020253032640000000071
:1026E000AC00002084AC0108B100002010B50AF055
:1026F0006BFD0321BDE81040E02008F0F7B910B5EC
:102700000AF07AFD0321BDE81040E02008F0EEB9A0
:1027100038B51BA01B4D006800900222A91C68461A
:10272000FDF7F3FD6846FDF731FE174C0222691DE7
:10273000E0706846FDF7E9FD6846FDF727FE60702A
:10274000022205F108016846FDF7DFFD6846FDF746
:102750001DFEC2B2A270E078617800F5FA60FEF763
:1027600091FB207000222146084807F023F9012040
:1027700005F090F80321E02008F0B8F938BD00001A
:102780002A2A0000FA220020C70E0020ACDD00201B
:102790000AF0B8BC70477047704700002DE9FE434F
:1027A000424F0024424E3878424D4FF02008012815
:1027B00027D1414841A1047005F12200FDF7DDFD5C
:1027C00041A105F14300FDF7D8FD85F82A40192005
:1027D00085F84B000120B0823020287068703120CD
:1027E000A87085F803802D21297169713E2139482F
:1027F000A97185F8078090F8250128726C7285F818
:102800002140387803282CD195F82100082828D0B9
:102810000322284901A8FDF778FD8DF807402548D7
:10282000FDF7B4FD84B2FA2C12D92B482B4900785D
:1028300000EB400051F82000006805F015F8B48A5C
:1028400027A2234604211B480FF06CFB85F8038068
:10285000B08AA04205D01F48B482204490F82401D9
:10286000287205F099FB102000907E2301220021A0
:102870001DA005F009FC10237E2204211B200AF074
:10288000F9FC95F82100082802D1022005F04AFD44
:10289000287A1949042251F820005B2105F09AFB9F
:1028A000002005F03FFDBDE8FE830000A8000020E9
:1028B000C6000020FA220020B30000203030302073
:1028C0002D2D3E2030000000393939202D2D3E209D
:1028D0007800000060230020AC000020FCAC010860
:1028E0002530336400000000C9E8B1B8BAC5202023
:1028F000D7D6B7FB0000000080D4010810B50AF05D
:1029000063FCBDE8104003214FF49C7008F0EEB862
:1029100010B50AF071FCBDE8104003214FF49C7023
:1029200008F0E4B82DE9FC4103221F496846FDF791
:10293000ECFC00208DF803001B48FDF727FD80B25A
:10294000FA280AD919481A49007800EB400051F8D2
:102950002000006804F088FF1EE0164A124D14188B
:10296000A71A297A84F8241104F5927107F5937750
:102970000E46B8B20122FDF769FE3146B8B2012217
:10298000FDF731FE287A94F82411884201D1012004
:1029900000E0002004F07EFF03214FF49C7008F05B
:1029A000A5F8BDE8FC810000FA220020AC00002060
:1029B000FCAC0108602300200AF0A4BB70477047FC
:1029C000704700000D4808B50078012804D10C4973
:1029D000002008700B49087005F0DEFA1020009006
:1029E00009480A497E230078032200EB400051F891
:1029F00020000021006905F047FB08BDA800002069
:102A0000B1000020B3000020AC0000201CAE010883
:102A10007047704710B50BF0EBF9012004F03AFF56
:102A20000AF070FB0221BDE81040102008F05EB8EB
:102A30000AF068BB70477047704700002DE9F0430B
:102A4000DFF8C481DFF8C4912D2798F80000704D9D
:102A50000026704C87B001281ED16F486FA1067008
:102A600004F12200FDF789FC6EA104F14300FDF79B
:102A700084FCAB786DA2042120460FF053FAE77076
:102A8000A9786AA209EBC1000421B0F8A633201D81
:102A90000FF048FA84F8216098F8000003283AD132
:102AA00094F82100032836D203225A4901A8FDF7E1
:102AB0002CFC8DF8076001A8FDF768FC80B26883E4
:102AC000FA2812D95B485C49007800EB400051F8C5
:102AD0002000006804F0C8FEAB7854A204214D48E1
:102AE0000FF020FAE770A8786883A97880B288424E
:102AF00011D0C3B2AB704DA2042146480FF012FAB8
:102B0000E770AA78201D09EBC20148A2B1F8A633EC
:102B100004210FF007FA05F03FFA48A101A8FDF7DC
:102B20002CFC002101A8FDF7FCFB03223949FDF72D
:102B3000ECFB10258DF80E607E230122002101A8F8
:102B4000009505F0A1FA94F821003E4FDFF8F880D7
:102B500003281DD2022005F0E5FB002005F0BCFB98
:102B600094F821000122011901A8FDF7CEFB8DF890
:102B7000056094F82100397898F8002001EBC00036
:102B80001838C1B201A805F025FA002005F0CAFBEB
:102B90002EA101A8FDF7F1FB002101A8FDF7C1FB63
:102BA0000322211DFDF7B1FB8DF80C607E2304226A
:102BB000002101A8009505F067FA94F82100001F94
:102BC00003281DD2022005F0ADFB002005F084FB98
:102BD00094F821000122011901A8FDF796FB8DF858
:102BE000056094F82100397898F8002001EBC000C6
:102BF0003838C1B201A805F0EDF9002005F092FBCC
:102C000007B0BDE8F0830000A8000020602300208A
:102C1000C6000020FA220020B30000203030302D02
:102C2000303030003239392D3939390025303364AC
:102C300000000000AC000020FCAC0108C9E8B1B8FD
:102C4000BAC53A00A2000020A3000020BBA8D1F919
:102C50003A00000010B50AF0B7FABDE810400321B1
:102C60004FF4B47007F042BF10B50AF0C5FABDE8E2
:102C7000104003214FF4B47007F038BFF8B50322B9
:102C800028496846FDF741FB6846FDF77FFB264E65
:102C9000244903227083091D6846FDF736FB684608
:102CA000FDF774FB84B2708BFA2802D8B4F57A7FF2
:102CB0000AD31E481E49007800EB400051F820005E
:102CC000006804F0D1FD27E0C0B21A4DB07005EBEA
:102CD000C00000F2A631A0F8A643401B00F56A70C0
:102CE00080B20222FDF7B2FCB078022205EBC000F0
:102CF00000F2A631401B00F56A7080B2FDF773FC4C
:102D0000B07805EBC000B0F8A603A04201D10120C5
:102D100000E0002004F0BEFD03214FF4B47007F082
:102D2000E5FEF8BDFA220020C6000020AC0000201D
:102D3000FCAC0108602300200AF0E4B9704770473A
:102D40007047000008B505F027F91448154A164BDE
:102D5000007800EB4001124800EB8100106002791E
:102D60001A70124A00687E231060102000901048EC
:102D7000062250F821000021406805F085F90D4831
:102D80000078022806D10AF0F3F90B4900200870F8
:102D90000A490870BDE80840FDF754BEAC000020A9
:102DA000DCAB0108BC000020B2000020B80000200D
:102DB0001CAE0108A8000020B1000020B3000020D4
:102DC000FDF7B4BEFDF732BF234810B500780928DF
:102DD00039D2DFE800F005090D13191F252B2F004C
:102DE00002214FF4C8702AE002214FF4AC7026E0B3
:102DF0000AF0BEF901214FF4B07020E00AF0B8F9F2
:102E000001214FF4B4701AE00AF0B2F901214FF435
:102E1000B87014E00AF0ACF901214FF4BC700EE078
:102E20000AF0A6F901214FF4CC7008E001214FF41B
:102E3000D07004E00AF09CF901214FF4F070BDE875
:102E4000104007F053BE06490448097800EB4100E2
:102E5000002130F8020CF2E7B1000020D02200205F
:102E6000AD0000200AF04EB908B505F095F80F48FE
:102E7000104A114B007800EB40010D4800EB810037
:102E8000106002791A700D4A00687E2310601020CD
:102E900000900B48062250F821000021406805F000
:102EA000F3F8BDE80840FDF7CDBD0000AC00002000
:102EB000BCAD0108BC000020B2000020B80000201A
:102EC0001CAE0108FDF732BEFDF7B0BE1B4810B5C1
:102ED0000078072828D2DFE800F004090E11141A40
:102EE0001F000AF045F90121402019E00AF040F9DD
:102EF0000121482014E00221A82011E00221C8018C
:102F00000EE00AF035F901214FF4847008E00AF070
:102F10002FF90121502003E00AF02AF90121E820CD
:102F2000BDE8104007F0E2BD06490548097800EB0E
:102F30004100002130F8020CF2E70000B10000204F
:102F4000D0220020AD0000200AF0DCB870477047A6
:102F50007047000008B505F01FF81548164A174BD2
:102F6000007800EB4001134800EB8100106002790B
:102F70001A70134A00687E231060102000901148D8
:102F8000062250F821000021806805F07DF80E48E7
:102F90000078022808D10AF0EBF80C480C4990F8A8
:102FA000210008700B490870BDE80840FDF74ABDD4
:102FB000AC000020B4AC0108BC000020B20000202E
:102FC000B80000201CAE0108A800002060230020EB
:102FD000B1000020B3000020FDF7A8BDFDF726BE1C
:102FE00070B50AF0C5F804F0D7FF0E480E4D0E4933
:102FF0000478213105F8214F01220E462320FDF7E8
:1030000025FB012231462320FDF7EDFA2878A04266
:1030100001D1012000E0002004F03CFCBDE870403C
:103020000AF070B8B1000020602300200AF06AB8EE
:10303000704770477047000008B504F0ADFF1448B2
:10304000154A164B007800EB4001124800EB810056
:10305000106002791A70124A00687E2310601020F6
:1030600000901048062250F821000021406805F029
:103070000BF80D480078022806D10AF079F80B49C0
:10308000002008700A490870BDE80840FDF7DABC66
:10309000AC0000209CAC0108BC000020B200002065
:1030A000B80000201CAE0108A8000020B1000020DC
:1030B000B3000020FDF73ABDFDF7B8BD184810B5C4
:1030C0000078052823D2DFE800F003080D1319006B
:1030D0000AF04EF80121C02015E00AF049F801215C
:1030E000C82010E00AF044F801214FF488700AE08B
:1030F0000AF03EF801214FF48C7004E00AF038F831
:1031000001214FF49070BDE8104007F0EFBC064974
:103110000448097800EB4100002130F8020CF2E786
:10312000B1000020D0220020AD00002009F0EABF4D
:10313000704770477047000008B504F02DFF154830
:10314000164A174B007800EB4001134800EB810052
:10315000106002791A70134A00687E2310601020F4
:1031600000901148062250F821000021806804F0E8
:103170008BFF0E480078022808D109F0F9FF0C48AF
:103180000C4990F8960308700B490870BDE8084098
:10319000FDF758BCAC0000206CAC0108BC0000205E
:1031A000B2000020B80000201CAE0108A8000020DA
:1031B00060230020B1000020B3000020FDF7B6BC62
:1031C000FDF734BD2DE9F04109F0D2FF04F0E4FE33
:1031D0000F48104D4FF46676047805F2963185F865
:1031E000964301220F463046FDF730FA0122394658
:1031F0003046FDF7F8F995F89603A04201D1012079
:1032000000E0002004F046FBBDE8F04109F07ABF81
:10321000B10000206023002009F074BF70477047A0
:10322000704700002DE9F043DFF8D081DFF8D0913E
:103230002D2798F80000734D0026734C87B00128A5
:103240001ED1724872A1067004F12200FDF795F8B4
:1032500072A104F14300FDF790F8EB7872A204210B
:1032600020460EF05FFEE770E97871A209EBC1001D
:103270000521B0F8A833201D0EF054FE84F821601B
:1032800098F8000003283AD194F82100032836D298
:1032900003225D4901A8FDF738F88DF8076001A801
:1032A000FDF774F880B2A883FA2812D962486349FE
:1032B000007800EB400051F82000006804F0D4FAD8
:1032C000EB7859A2042150480EF02CFEE770E87804
:1032D000A883E97880B2884211D0C3B2EB7052A2C1
:1032E000042149480EF01EFEE770EA78201D09EB24
:1032F000C2014FA2B1F8A83305210EF013FE04F06D
:103300004BFE4FA101A8FDF738F8002101A8FDF7F9
:1033100008F803223C49FCF7F8FF10258DF80E60F1
:103320007E230122002101A8009504F0ADFE94F84F
:103330002100454FDFF8148103281DD2022004F03C
:10334000F1FF002004F0C8FF94F8210001220119C8
:1033500001A8FCF7DAFF8DF8056094F821003978B0
:1033600098F8002001EBC0001838C1B201A804F0A1
:1033700031FE002004F0D6FF35A101A8FCF7FDFFC7
:10338000002101A8FCF7CDFF0422211DFCF7BDFFA1
:103390008DF80F60002101A8FCF7C3FF2EA1FCF7F8
:1033A000ECFF7E230422002101A8009504F06CFEAE
:1033B00094F82100001F04281DD2022004F0B2FF5F
:1033C000002004F089FF94F821000122011901A8CE
:1033D000FCF79BFF8DF8056094F82100397898F888
:1033E000002001EBC0005038C1B201A804F0F2FD8A
:1033F000002004F097FF07B0BDE8F083A80000208C
:1034000060230020C6000020FA220020B300002024
:103410003030302D30303030000000003239392D5E
:1034200039393939000000002530336400000000CC
:103430002530346400000000AC000020FCAC010822
:10344000C9E8B1B8BAC53A00A2000020A300002024
:10345000B5C6D6E9CAFD3A00B8F6000010B509F0C5
:10346000B3FEBDE8104003214FF4BC7007F03EBB33
:1034700010B509F0C1FEBDE8104003214FF4BC7047
:1034800007F034BB7CB5032228496846FCF73DFFB2
:103490006846FCF77BFF264E24490422B083091DB1
:1034A0006846FCF732FF6846FCF770FF84B2B08BC9
:1034B000FA2802D8B4F5006F0AD91E481E490078D0
:1034C00000EB400051F82000006804F0CDF927E03F
:1034D000C0B21A4DF07005EBC00000F56A71A0F89B
:1034E000A843401B00F2AA3080B20222FDF7AEF8DA
:1034F000F078022205EBC00000F56A71401B00F273
:10350000AA3080B2FDF76FF8F07805EBC000B0F894
:10351000A803A04201D1012000E0002004F0BAF984
:1035200003214FF4BC7007F0E1FA7CBDFA220020C1
:10353000C6000020AC000020FCAC01086023002085
:1035400009F0E0BD38B504F027FD144C154A164BC0
:10355000207800EB4001124800EB810010600279F6
:103560001A70124A00687E231060102000901048E4
:10357000062250F821000021806804F085FD0D48E6
:103580000078022806D109F0F3FD0B492078087075
:103590000A490870BDE83840FDF754BAAC00002075
:1035A00004AE0108BC000020B2000020B8000020DA
:1035B0001CAE0108A8000020B1000020B3000020CC
:1035C000FDF7B4BAFDF732BB10B509F0D1FD04F038
:1035D000E3FC0E480E4C007808B1012803D120709E
:1035E0000A2004F0DBFC20780A4C0222A11C608037
:1035F0000420FDF72BF80222A11C0420FCF7F3FFA6
:1036000004F0CAFCBDE8104009F07CBDB100002008
:10361000AC0000206023002009F074BD70477047A3
:10362000704700002DE9F043DFF8D481DFF8D49132
:103630002D2798F80000744D0026744C87B001289F
:103640001ED1734873A1067004F12200FCF795FEA9
:1036500072A104F14300FCF790FE2B7971A20421C2
:1036600020460EF05FFCE770297970A209EBC100DB
:10367000022190F8AD33201D0EF054FC84F8216037
:1036800098F8000003283AD194F82100032836D294
:1036900003225E4901A8FCF738FE8DF8076001A8F7
:1036A000FCF774FE80B2E883FA2812D961486249B7
:1036B000007800EB400051F82000006804F0D4F8D6
:1036C0002B7958A2042151480EF02CFCE770287980
:1036D000E883297980B2884211D0C3B22B7151A2FC
:1036E00004214A480EF01EFCE7702A79201D09EBE0
:1036F000C2014EA291F8AD3302210EF013FC04F08A
:103700004BFC4EA101A8FCF738FE002101A8FCF7F4
:1037100008FE03223D49FCF7F8FD10278DF80E60E6
:103720007E230122002101A8009704F0ADFC94F84B
:103730002100DFF81081DFF8109103281ED202204B
:1037400004F0F0FD002004F0C7FD94F821000122F0
:10375000011901A8FCF7D9FD8DF8056094F8211036
:1037600098F8000099F8002000EBC1001838C1B2A9
:1037700001A804F02FFC002004F0D4FD0122211D3B
:1037800001A8FCF7C2FD8DF8056001A8FCF7FEFD5D
:10379000C5B22EA101A8FCF7F0FD002101A8FCF79D
:1037A000C0FD2D4E56F82510FCF7E7FD7E230422C0
:1037B000002101A8009704F067FC94F82100042878
:1037C0001AD1022004F0AEFD002004F085FD56F869
:1037D000251001A8FCF7D1FD94F8211098F80000FD
:1037E00099F8002000EBC1003038C1B201A804F004
:1037F000F1FB002004F096FD07B0BDE8F083000067
:10380000A800002060230020C6000020FA2200202B
:10381000B30000203030302D300000003239392D17
:10382000330000002530336400000000253031648F
:1038300000000000AC000020FCAC0108C9E8B1B8F1
:10384000BAC53A00A2000020A3000020D1D5C9AB20
:10385000C4A3CABD3A00000008D6010810B509F09B
:10386000B3FCBDE8104003214FF4F07007F03EB9FF
:1038700010B509F0C1FCBDE8104003214FF4F07011
:1038800007F034B9F8B503222A496846FCF73DFD34
:1038900000248DF803406846FCF778FD264E254944
:1038A0000122F083091D6846FCF72FFD8DF80140C9
:1038B0006846FCF76BFD84B2F08BFA2801D8032C24
:1038C0000AD91E481E49007800EB400051F820003C
:1038D000006803F0C9FF27E0C0B21A4D307105EB54
:1038E000C00000F2AD3180F8AD43401B00F2AF30B4
:1038F00080B20122FCF7AAFE3079012205EBC00359
:10390000581B00F2AF3003F2AD3180B2FCF76BFE12
:10391000307905EBC00090F8AD03A04201D1012041
:1039200000E0002003F0B6FF03214FF4F07007F031
:10393000DDF8F8BDFA220020C6000020AC0000200F
:10394000FCAC01086023002009F0DCBB7047704725
:103950007047000038B523480078012818D1224864
:10396000002422A104702348FCF707FD214822A16E
:103970002130FCF702FD224822A20521B0F8A73B26
:103980001C4822380EF0CEFA1A48223880F821401E
:1039900004F002FB1D4C1020009020781C4900EB25
:1039A00040007E2351F820001A490122097850F87E
:1039B0002100002104F068FB10237E22042127202F
:1039C00009F058FC2078144900EB400051F8200021
:1039D000124940680A7812490978BDE8384004F075
:1039E000F9BA0000A8000020B300002030303030C9
:1039F000000000001C230020393939390000000084
:103A0000602300202530346400000000AC0000205A
:103A1000DCAB0108B100002014AD0108A3000020B8
:103A2000A200002010B509F0CFFBBDE81040032133
:103A30004FF4CC7007F05AB810B509F0DDFBBDE8C3
:103A4000104003214FF4CC7007F050B82DE9F0413D
:103A50001248FCF79BFC124D84B205F6A73140F6E4
:103A6000A936A5F8A74B02220F463046FCF7EEFD1B
:103A7000022239463046FCF7B6FDB5F8A70BA04246
:103A800001D1012000E0002003F004FFBDE8F04177
:103A900003214FF4CC7007F029B80000FA2200206F
:103AA0006023002009F02EBB70477047704700006C
:103AB0002DE9F04F8348844C0025017887B004F14C
:103AC000080B012926D1814881A1057004F122004B
:103AD000FCF753FC81A104F14300FCF74EFC824E3D
:103AE00082A2042196F8A233204606F2A2360EF0F6
:103AF00019FA2D27E77073787CA20421201D0EF09F
:103B000011FAE771B37879A2042158460EF00AFA47
:103B100084F8215004F040FADFF8D8A14FF01008E3
:103B2000CDF800809AF80000734900EB40000022B5
:103B300051F8200071494646574609787E2350F8CF
:103B40002100114604F0A0FA3878DFF8B49100EBB8
:103B5000400159F82100016801A8FCF70EFC002182
:103B600001A8FCF7DEFB03225749FCF7CEFB8DF8DA
:103B70000A507E230222002101A8009604F084FA54
:103B800094F821005F4E604F03281CD2022004F0FD
:103B9000C9FB002004F0A0FB94F8210001220119C8
:103BA00001A8FCF7B2FB8DF8055094F8210031789C
:103BB0003A7801EBC0001838C1B201A804F00AFA43
:103BC000002004F0AFFB9AF8000000EB400159F828
:103BD0002100416801A8FCF7D0FB002101A8FCF7F7
:103BE000A0FB0322211DFCF790FB8DF80A507E23D9
:103BF0000422002101A8CDF8008004F045FA94F8D1
:103C00002100001F03281CD2022004F08BFB00209F
:103C100004F062FB94F821000122011901A8FCF7CD
:103C200074FB8DF8055094F8210031783A7801EB57
:103C3000C0003838C1B201A804F0CCF9002004F06B
:103C400071FB9AF8000000EB400159F821008168EF
:103C500001A8FCF792FB002101A8FCF762FB0322FC
:103C60005946FCF752FB8DF80A507E2306220021AC
:103C700001A8CDF8008004F007FA94F82100072885
:103C80001CD9022004F04EFB002004F025FB94F820
:103C900021000122011901A8FCF737FB8DF805501E
:103CA00094F8210031783A7801EBC0005838C1B25D
:103CB00001A804F08FF9002004F034FB07B0BDE840
:103CC000F08F0000A8000020FA220020B30000209E
:103CD0003030302D3030302D303030003939392D02
:103CE0003939392D393939006023002025303364C2
:103CF00000000000AC000020DCAB0108B100002097
:103D0000C4AB0108A2000020A300002010B509F0F8
:103D10005BFA0321BDE81040C80106F0E7BE10B50C
:103D200009F06AFA0321BDE81040C80106F0DEBEC2
:103D30002DE9FE4F3CA00322006800903B496846F5
:103D4000FCF7E3FA6846FCF721FB384986B2032208
:103D5000091D6846FCF7D9FA6846FCF717FB33499A
:103D600085B2032208316846FCF7CFFA6846FCF7B3
:103D70000DFB84B2FF2E03D8FF2D01D8FF2C0AD9EA
:103D80002B482C49007800EB400051F820000068D7
:103D900003F06AFD41E0284F4FF4697807F2A23141
:103DA00087F8A26387F8A35387F8A443012240460B
:103DB0000291FCF74BFC07F2A33140F2A53A012235
:103DC00050460191FCF742FC07F5697140F2A639B3
:103DD00001228B464846FCF739FC012240460299F5
:103DE000FCF701FC012250460199FCF7FCFB012283
:103DF00059464846FCF7F7FB97F8A203B04209D1B1
:103E000097F8A303A84205D197F8A403A04201D1D3
:103E1000012000E0002003F03DFD0321C80106F071
:103E200065FEBDE8FE8F00002A2A2A00FA22002043
:103E3000AC000020FCAC01086023002009F062B94E
:103E4000704770477047000008B504F0A5F81448A3
:103E5000154A164B007800EB4001124800EB810038
:103E6000106002791A70124A00687E2310601020D8
:103E700000901048062250F821000021406804F00C
:103E800003F90D480078022806D109F071F90B49B1
:103E9000002008700A490870BDE80840FCF7D2BD50
:103EA000AC00002094AB0108BC000020B200002050
:103EB000B80000201CAE0108A8000020B1000020BE
:103EC000B3000020FCF732BEFCF7B0BE0E4810B5C0
:103ED000007850B101280ED00D490C48097800EB4C
:103EE0004100002130F8020C0AE009F041F90121FB
:103EF0004FF4D87004E009F03BF901214FF4E07071
:103F0000BDE8104006F0F2BDB1000020D022002034
:103F1000AD00002009F0F6B8704770477047000008
:103F2000F8B51748174C184D0078012808D11748E4
:103F30001749007F20700020087016492879087002
:103F400004F02AF8144F102600963878134900EB35
:103F500040007E2351F8200001220021406A04F035
:103F600093F800963878217800EB40007E2355F8CE
:103F70002000042250F82100002104F085F8F8BD4B
:103F8000A8000020B1000020CCAC01086023002074
:103F9000B3000020B2000020AC000020D4AD010826
:103FA00010B507F00FFA0321BDE81040902006F08D
:103FB0009DBD10B507F01CFA0321BDE8104090200C
:103FC00006F094BD70B50F4D0F4C02222878A083E7
:103FD00004F11C010E461E20FCF738FB022231467C
:103FE0001E20FCF700FBA08B2978884201D101201C
:103FF00000E0002003F04EFCBDE87040032190205B
:1040000006F074BDB10000206023002009F07AB8EA
:10401000704770477047000038B521480078012884
:1040200014D120480025204C057020A022A2008831
:1040300060841FA002210088A4F843001D4890F866
:10404000203020460DF06EFF84F8215003F0A4FFCD
:104050001B4C1020009020781A4900EB40007E2372
:1040600051F8200018490122097850F82100002158
:1040700004F00AF810237E220421332009F0FAF814
:104080002078124900EB400051F820001049806868
:104090000A7810490978BDE8384003F09BBF00005A
:1040A000A8000020B3000020FA2200203000000009
:1040B000390000006023002025303164000000003A
:1040C000AC000020D4AD0108B100002014AD0108FF
:1040D000A3000020A200002010B509F075F803210C
:1040E000BDE81040A02006F001BD10B509F0F0F8C1
:1040F0000321BDE81040A02006F0F8BC70B51048C0
:10410000FCF744F90F4D0F49C4B2203105F8204F98
:1041100001220E462220FCF799FA01223146222084
:10412000FCF761FA2878A04201D1012000E00020CC
:1041300003F0B0FBBDE870400321A02006F0D6BC20
:10414000FA2200206023002008F0DCBF704770478F
:1041500070470000F8B51748174C184D0078012833
:1041600008D117481749807F207000200870164931
:104170002879087003F010FF144F10260096387845
:10418000134900EB40007E2351F82000012200215A
:10419000806A03F079FF00963878217800EB4000C0
:1041A0007E2355F82000042250F82100002103F05E
:1041B0006BFFF8BDA8000020B1000020E4AC0108AE
:1041C00060230020B3000020B2000020AC000020DB
:1041D000D4AD010810B507F0F5F80321BDE8104093
:1041E000982006F083BC10B507F002F90321BDE862
:1041F0001040982006F07ABC70B50F4D0F4C02228B
:104200002878E08304F11E010E462020FCF71EFAF8
:10421000022231462020FCF7E6F9E08B297888421B
:1042200001D1012000E0002003F034FBBDE8704024
:104230000321982006F05ABCB10000206023002022
:1042400008F060BF7047704770470000F8B5184825
:10425000184C194D007801280AD1184818490078DF
:10426000C0F34000207000200870164928790870BB
:1042700003F092FE144F102600963878134900EB95
:1042800040007E2351F8200001220021C06803F085
:10429000FBFE00963878217800EB40007E2355F82D
:1042A0002000042250F82100002103F0EDFEF8BDAB
:1042B000A8000020B10000205CAD010860230020B0
:1042C000B3000020B2000020AC00002044AD010883
:1042D00010B507F077F80321BDE81040482006F03C
:1042E00005BC10B507F084F80321BDE81040482054
:1042F00006F0FCBB70B5114D114C022229782088C4
:1043000061F34100208021461046FCF79FF902220C
:1043100021461046FCF767F920782978C0F3400061
:10432000884201D1012000E0002003F0B3FABDE88B
:1043300070400321482006F0D9BB0000B1000020E6
:104340006023002008F0DEBE704770477047000011
:104350002DE9F8431B481A4CDFF86C80007825786B
:1043600001280AD119481A4990F8A90B2070002099
:104370000870184998F80400087003F00DFE164FF5
:10438000102600963878154900EB40007E2351F83E
:1043900020000122002150F8250003F075FE009650
:1043A00038787E2300EB4001042258F82100217860
:1043B00050F82100002103F067FEBDE8F8830000FB
:1043C000B1000020A80000205CAD0108602300209F
:1043D000B3000020B2000020AC00002094AB010824
:1043E00010B506F0EFFFBDE8104003214FF4D47084
:1043F00006F07CBB10B506F0FBFFBDE810400321C2
:104400004FF4D47006F072BB2DE9F041164D174CF5
:1044100040F6AB36287884F8A90B04F6A9310122BE
:104420000F463046FCF712F9012239463046FCF7B8
:10443000DAF894F8A90B2978884201D1012000E02C
:10444000002003F027FA94F8A91B0948012908D095
:1044500001210170BDE8F04103214FF4D47006F052
:1044600045BB0021F5E70000B100002060230020DB
:10447000CC0E002008F046BE704770477047000021
:104480002DE9F04FFB4D0024FB4F287887B0012821
:104490000FD1FA48FAA1047007F12200FBF76DFF73
:1044A000FEA107F14300FBF768FF0DF0F7FA87F86C
:1044B00021402878DFF80084DFF800A4032851D1D8
:1044C00097F821002D2602282AD20222EA4901A8C3
:1044D000FBF71BFF8DF8064001A8FBF757FFC0B2A2
:1044E000454688F80900092812D99AF80000F449CD
:1044F00000EB400051F82000006803F0B5F96B793B
:10450000F0A20321DC480DF00DFDBE7068796872E1
:104510006979C0B2884225D068710DF0BFFA21E0F8
:1045200005281FD10122791D01A8FBF7EEFE8DF8A9
:10453000054001A8FBF72AFF88F80600E34A98F82F
:10454000051002EBC101012291F8AC1B824011421F
:1045500001D0012300E00023DDA20221F81D0DF0AF
:10456000E1FC3E7203F018FD0122F91C01A8FBF7E3
:10457000CCFEA1468DF8054001A8FBF707FFC6B2A7
:10458000D5A101A8FBF7F9FE002101A8FBF7C9FEA0
:104590000222B949FBF7B9FE8DF80D40002101A8B0
:1045A000FBF7BFFECEA1FBF7E8FE002101A8FBF759
:1045B000B8FE9AF80020DFF82CB302EB42025BF859
:1045C000221051F82610FBF7D8FE002101A8FBF7B6
:1045D000A8FEC5A1002209880180102000907E233A
:1045E000114601A803F050FD97F82100BF4CC04DC3
:1045F00002281CD2022003F095FE002003F06CFE7E
:1046000097F821000122C11901A8FBF77EFE8DF861
:10461000059097F8210021782A7801EBC0003838FE
:10462000C1B201A803F0D6FC002003F07BFE97F88E
:10463000210003281ED1022003F074FE002003F0A5
:104640004BFE9AF8000000EB40015BF8210050F8A7
:10465000261001A8FBF791FE97F8210021782A780F
:1046600001EBC0003038C1B201A803F0B3FC002058
:1046700003F058FE0122791D01A8FBF746FE002633
:104680008DF8056001A8FBF781FE88F80600C14699
:104690000122F91D01A8FBF738FE8DF8056001A87D
:1046A000FBF774FEC6B293A101A8FBF766FE98F86B
:1046B00006000DF011FB8046002101A8FBF731FE3A
:1046C0004146FBF75AFE002101A8FBF72AFE84A110
:1046D000FBF753FE002101A8FBF723FE9AF8001018
:1046E00001EB41025BF8221051F82610FBF745FE62
:1046F000002101A8FBF715FE7BA14FF010080988E7
:1047000001807E230222002101A8CDF8008003F061
:10471000BBFC97F8210005281BD1022003F002FE04
:10472000002003F0D9FD99F806000DF0D5FA0146F6
:1047300001A8FBF722FE97F8210021782A7801EBE7
:10474000C0006038C1B201A803F044FC002003F0AF
:10475000E9FD97F8210007281ED1022003F0E2FDB1
:10476000002003F0B9FD9AF8000000EB40015BF86F
:10477000210050F8261001A8FBF7FFFD97F8211043
:1047800020782A7800EBC1005038C1B201A803F0AC
:1047900021FC002003F0C6FD57A000210088ADF8E1
:1047A000040001A8FBF7BDFD334908220931FBF7DE
:1047B000ACFD00268DF80D60314601A8FBF7B1FD78
:1047C0004EA1FBF7DAFD7E230422002101A8CDF8DB
:1047D000008003F059FC97F82100093802281CD208
:1047E000022003F09FFD002003F076FD97F82100E2
:1047F0000122C11901A8FBF788FD8DF8056097F823
:10480000210021782A7801EBC000B038C1B201A89C
:1048100003F0E0FB002003F085FD97F821000C3841
:1048200002281CD2022003F07DFD002003F054FD7D
:1048300097F821000122C11901A8FBF766FD8DF848
:10484000056097F8210021782A7801EBC000B03884
:10485000C1B201A803F0BEFB002003F063FD97F88E
:1048600021000F38022866D2022003F05BFD0020F1
:1048700048E00000A8000020FA220020B300002039
:1048800030302D302D312D302D30303A30303A301F
:10489000302D30303A30303A3030000039392D3157
:1048A0002D372D312D32393A35393A35392D3239C6
:1048B0003A35393A35390000C6000020AC000020F6
:1048C000FCAC0108253032640000000060230020A9
:1048D0002530316400000000B6A8CAB1C6F75B00FD
:1048E0005D5B00005CAD01085D000000A2000020DF
:1048F000A3000020D0C7C6DA5B0000005DB4F2BFA1
:10490000AA00000003F0E8FC97F821000122C11979
:1049100001A8FBF7FAFC8DF8056097F821002178D3
:104920002A7801EBC000B038C1B201A803F052FBF5
:10493000002003F0F7FCAFF240000088ADF804005F
:10494000002101A8FBF7EDFC08223E49FBF7DDFC46
:104950008DF80D60002101A8FBF7E3FC3AA1FBF7FD
:104960000CFD7E230622002101A8CDF8008003F073
:104970008BFB97F82100123802281CD2022003F08A
:10498000D1FC002003F0A8FC97F821000122C119F6
:1049900001A8FBF7BAFC8DF8056097F82100217893
:1049A0002A7801EBC000F838C1B201A803F012FB6D
:1049B000002003F0B7FC97F82100153802281CD21C
:1049C000022003F0AFFC002003F086FC97F82100E2
:1049D0000122C11901A8FBF798FC8DF8056097F832
:1049E000210021782A7801EBC000F838C1B201A873
:1049F00003F0F0FA002003F095FC97F82100183836
:104A000002281CD2022003F08DFC002003F064FC7D
:104A100097F821000122C11901A8FBF776FC8DF857
:104A2000056097F8210021782A7801EBC000F8385A
:104A3000C1B201A803F0CEFA002003F073FC07B066
:104A4000BDE8F08F0C2300205DB9D8B1D50000007F
:104A500010B508F0B9FBBDE8104003214FF4DC703D
:104A600006F044B810B508F0C7FBBDE810400321BC
:104A70004FF4DC7006F03AB870B588B00222724983
:104A80006846FBF742FC00248DF802406846FBF7BD
:104A90007DFC6E4D6C4E01226872F11C6846FBF77E
:104AA00034FC8DF801406846FBF770FC8DF814006B
:104AB0000122711D6846FBF728FC8DF8014068460D
:104AC000FBF764FCA8710122F11D6846FBF71DFC91
:104AD0008DF801406846FBF759FCA8725C4E697975
:104AE000012306EBC10191F8AC2BA9798B408840DA
:104AF0009A43024354498DF8152002220931684631
:104B0000FBF703FC8DF802406846FBF73FFC4E497B
:104B10008DF8160002220C316846FBF7F6FB8DF883
:104B200002406846FBF732FC47498DF81700022225
:104B30000F316846FBF7E9FB8DF802406846FBF74A
:104B400025FC41498DF81800022212316846FBF716
:104B5000DCFB8DF802406846FBF718FC3A498DF8FB
:104B60001900022215316846FBF7CFFB8DF8024091
:104B70006846FBF70BFC34498DF81A000222183105
:104B80006846FBF7C2FB8DF802406846FBF7FEFB68
:104B9000C1B28DF81B10687A0A2815D89DF8162026
:104BA000172A11D89DF817203B2A0DD89DF81820F8
:104BB0003B2A09D89DF81920172A05D89DF81A20F4
:104BC0003B2A01D83B290AD922482349007800EB27
:104BD000400051F82000006802F046FE2AE06871AB
:104BE00006EBC0000599C0F8AB1B0699C0F8AF1BD7
:104BF00000F6AB31801B00F6AD3080B20822FBF727
:104C000025FD6879082206EBC003981B00F6AD303D
:104C100003F6AB3180B2FBF7E6FC6879082206EBBD
:104C2000C00105A801F6AB31FBF79AFB48B10020A3
:104C300002F030FE03214FF4DC7005F057FF08B09E
:104C400070BD0120F4E70000FA220020C600002019
:104C500060230020AC000020FCAC010808F052BA30
:104C6000704770477047000038B523480078012826
:104C700018D12248002422A104702348FBF77DFBB1
:104C8000214822A12130FBF778FB224822A20521EE
:104C9000B0F8A0331C4822380DF044F91A482238E5
:104CA00080F8214003F078F91D4C10200090207806
:104CB0001C4900EB40007E2351F820001A490122D4
:104CC000097850F82100002103F0DEF910237E223C
:104CD0000421272008F0CEFA2078144900EB400088
:104CE00051F82000124980680A7812490978BDE815
:104CF000384003F06FB90000A8000020B300002086
:104D000030303030000000001C23002039393939A0
:104D10000000000060230020253034640000000003
:104D2000AC000020DCAB0108B100002014AD01088C
:104D3000A3000020A200002010B508F045FABDE84D
:104D4000104003214FF4B87005F0D0BE10B508F044
:104D500053FABDE8104003214FF4B87005F0C6BE09
:104D60002DE9F0411948FBF711FB84B2B4F5006F4F
:104D70000AD917481749007800EB400051F8200085
:104D8000006802F071FD19E0134D40F2A23605F5FE
:104D90006871A5F8A04302220F463046FBF756FC87
:104DA000022239463046FBF71EFCB5F8A003A042AC
:104DB00001D1012000E0002002F06CFDBDE8F041CF
:104DC00003214FF4B87005F091BE0000FA220020D4
:104DD000AC000020FCAC01086023002008F092B970
:104DE00008B503F0D9F80F48104A114B007800EBD2
:104DF00040010D4800EB8100106002791A700D4AE5
:104E000000687E231060102000900B48062250F8A6
:104E100021000021406803F037F9BDE80840FBF7A6
:104E200011BE0000AC000020ECAD0108BC00002069
:104E3000B2000020B80000201CAE0108FBF776BECF
:104E4000FBF7F4BE10B508F093F903F0A5F803F0F2
:104E5000A3F8BDE8104008F055B908F053B9704701
:104E600070477047F8B51848184C194D007801285C
:104E70000AD118481849007800F00100207000207D
:104E8000087016492879087003F086F8144F102628
:104E900000963878134900EB40007E2351F820003B
:104EA00001220021806803F0EFF80096387821781D
:104EB00000EB40007E2355F82000042250F821002A
:104EC000002103F0E1F8F8BDA8000020B1000020A7
:104ED0005CAD010860230020B3000020B200002078
:104EE000AC00002044AD010810B506F06BFA0321B8
:104EF000BDE81040402005F0F9BD10B506F078FA85
:104F00000321BDE81040402005F0F0BD70B5114D03
:104F1000114C02222978208861F30000208021466C
:104F20001046FBF793FB022221461046FBF75BFB82
:104F30002078297800F00100884201D1012000E0AA
:104F4000002002F0A7FCBDE870400321402005F0DE
:104F5000CDBD0000B10000206023002008F0D2B8D1
:104F600070477047704700002DE9F04FDFF8549309
:104F7000D74CDFF8548399F800102D27D34D002625
:104F800087B004F10A0B012934D1D248D2A10670AE
:104F900004F12200FBF7F1F9D3A104F14300FBF780
:104FA000ECF96B78D4A2042120460CF0BBFFE7702B
:104FB0006978D3A208EBC100032190F8AA33201D21
:104FC0000CF0B0FFA7716978CDA208EBC1000321F6
:104FD00090F8AB33E01D0CF0A5FF67726978C8A2AA
:104FE00008EBC100032190F8AC3358460CF09AFF4F
:104FF00084F8216099F80000DFF80C93032850D161
:1050000094F8210003284CD20322B14901A8FBF7F0
:105010007CF98DF8076001A8FBF7B8F980B2288306
:10502000FA2812D999F80000B84900EB400051F86D
:105030002000006802F018FC6B78AFA20421A4489D
:105040000CF070FFE77068782883697880B2884236
:1050500027D0C3B26B70A8A204219D480CF062FF58
:10506000E7706978A6A208EBC100032190F8AA3383
:10507000201D0CF057FFA7716978A1A208EBC100B1
:10508000032190F8AB33E01D0CF04CFF6772697898
:105090009BA208EBC100032190F8AC3358460CF0FA
:1050A00041FF02F079FF9AA101A8FBF766F9002100
:1050B00001A8FBF736F903228549FBF726F94FF0E3
:1050C000100800228DF80E607E23114601A8CDF84D
:1050D000008002F0D9FF94F821008F4D8F4F0328F4
:1050E0001CD2022003F01EF9002003F0F5F894F81A
:1050F00021000122011901A8FBF707F98DF80560CD
:1051000094F8210029783A7801EBC0001838C1B230
:1051100001A802F05FFF002003F004F999F80000F5
:10512000DFF8FCA100EB40015AF82100016801A85A
:10513000FBF723F9002101A8FBF7F3F80222211D58
:10514000FBF7E3F88DF80B60002101A8FBF7E9F805
:1051500074A1FBF712F97E230222002101A8CDF8E9
:10516000008002F091FF94F82100001F02281CD259
:10517000022003F0D7F8002003F0AEF894F82100E5
:105180000122011901A8FBF7C0F88DF8056094F819
:10519000210029783A7801EBC0004838C1B201A853
:1051A00002F018FF002003F0BDF899F8000000EBB2
:1051B00040015AF82100416801A8FBF7DEF8002100
:1051C00001A8FBF7AEF80222E11DFBF79EF88DF86F
:1051D0000B60002101A8FBF7A4F852A1FBF7CDF862
:1051E0007E230422002101A8CDF8008002F04CFFAC
:1051F00094F82100C01F02281CD2022003F092F86C
:10520000002003F069F894F821000122011901A897
:10521000FBF77BF88DF8056094F8210029783A783F
:1052200001EBC0006038C1B201A802F0D3FE00203B
:1052300003F078F899F8000000EB40015AF82100DB
:10524000816801A8FBF799F8002101A8FBF769F82C
:1052500002225946FBF759F88DF80B60002101A88E
:10526000FBF75FF82FA1FBF788F87E2306220021C9
:1052700001A8CDF8008002F007FF94F821000A3859
:1052800002281CD2022003F04DF8002003F024F87D
:1052900094F821000122011901A8FBF736F88DF8D6
:1052A000056094F8210029783A7801EBC00078383D
:1052B000C1B201A802F08EFE002003F033F807B05F
:1052C000BDE8F08FA800002060230020C600002069
:1052D000FA220020B30000203030302D30302D3045
:1052E000302D3030000000003239392D33392D3364
:1052F000392D3339000000002530336400000000F0
:105300002530326400000000AC000020FCAC010835
:10531000C9E8B1B8BAC53A00A2000020A300002035
:10532000ACAB01086670730010B507F04DFFBDE827
:10533000104003214FF4B07005F0D8BB10B507F052
:105340005BFFBDE8104003214FF4B07005F0CEBB09
:105350002DE9F84359A00322006800905849684697
:10536000FAF7D3FF00248DF803406846FBF70EF8E8
:10537000544D534E02222883311D6846FAF7C5FF6B
:105380008DF802406846FBF701F800F0FF080222A2
:10539000F11D6846FAF7B9FF8DF802406846FAF742
:1053A000F5FFC7B2022206F10A016846FAF7ADFF1F
:1053B0008DF802406846FAF7E9FFC6B2288BFA2852
:1053C00006D8B8F11E0F03D81E2F01D81E2E0AD9F9
:1053D0003D483E49007800EB400051F8200000684D
:1053E00002F042FA63E0C0B2394C687004EBC000CE
:1053F00000F2AA3180F8AA8380F8AB7380F8AC631E
:10540000001B00F56B7080B20122FBF71FF9687872
:10541000012204EBC003181B00F2AD3003F2AB31E4
:1054200080B2FBF713F96878012204EBC003181B64
:1054300000F2AE3003F56B7180B2FBF707F96878C4
:10544000012204EBC003181B00F56B7003F2AA31B4
:1054500080B2FBF7C8F86878012204EBC00000F2C4
:10546000AB31001B00F2AD3080B2FBF7BCF86878BE
:10547000012204EBC003181B00F2AE3003F56B7180
:1054800080B2FBF7B0F8687804EBC00090F8AA236C
:10549000424509D190F8AB13B94205D190F8AC035D
:1054A000B04201D1012000E0002002F0F3F9032115
:1054B0004FF4B07005F01AFBBDE8F8832A2A2A00E1
:1054C000FA220020C6000020AC000020FCAC01083D
:1054D0006023002007F016BE08B502F05DFD0F48FE
:1054E000104A114B007800EB40010D4800EB8100A1
:1054F000106002791A700D4A00687E231060102037
:1055000000900B48062250F821000021406802F06C
:10551000BBFDBDE80840FBF795BA0000AC000020D9
:10552000D4AD0108BC000020B2000020B80000206B
:105530001CAE0108FBF7FABAFBF778BB354810B58B
:10554000007810285DD2DFE800F0080D12171C214A
:10555000262B30353A3F44494F5307F009FE0121CD
:1055600030204AE007F004FE0121382045E007F032
:10557000FFFD0121582040E007F0FAFD01216020E5
:105580003BE007F0F5FD0121682036E007F0F0FD73
:105590000121702031E007F0EBFD012178202CE0A3
:1055A00007F0E6FD0121802027E007F0E1FD012161
:1055B000882022E007F0DCFD012198201DE007F0A3
:1055C000D7FD0121A02018E007F0D2FD0121F02035
:1055D00013E007F0CDFD0121F8200EE007F0C8FD33
:1055E00001214FF4A47008E001214FF4A87004E0F9
:1055F00007F0BEFD01214FF4E870BDE8104005F052
:1056000075BA06490448097800EB4100002130F8DA
:10561000020CF2E7B1000020D0220020AD000020F3
:1056200007F070BD704770477047000038B51D48DF
:105630000078012818D11C4800241CA104701C48C3
:10564000FAF79BFE1A481BA12130FAF796FE1A487A
:105650001AA2042190F82330154822380CF062FC7D
:105660001348223880F8214002F096FC1020009068
:10567000144815497E230078012200EB400051F8C0
:1056800020001249097850F82100002102F0FCFCAA
:1056900001B01023BDE830407E220421332007F002
:1056A000E9BD0000A8000020B30000203030300029
:1056B0001C23002039393900602300202530336451
:1056C00000000000AC0000209CAC0108B1000020EC
:1056D00010B507F079FD0321BDE81040C02005F0AA
:1056E00005BA10B507F088FD0321BDE81040C020C1
:1056F00005F0FCB970B51748FAF748FE84B2FF2CE4
:105700000AD915481549007800EB400051F82000EF
:10571000006802F0A9F816E0114D11490122233169
:1057200005F8234F0E462520FAF790FF0122314657
:105730002520FAF758FF2878A04201D1012000E087
:10574000002002F0A7F8BDE870400321C02005F05A
:10575000CDB90000FA220020AC000020FCAC01080A
:105760006023002007F0CEBC7047704770470000F0
:105770002DE9FE43324E344C20273178DFF8C480C7
:10578000002504F10809012921D1304830A1057014
:1057900004F12200FAF7F1FD30A104F14300FAF719
:1057A000ECFD3020207060703120A070E7702D205B
:1057B000207160713E20A071E77198F824302AA210
:1057C000022148460CF0AEFB657284F82150307817
:1057D000032822D194F8210008281ED003221A4958
:1057E00001A8FAF792FD8DF807501748FAF7CEFD99
:1057F00086B2FA2E07D9FA2633461DA20221124894
:105800000CF090FBE77008EB060017A290F824302C
:10581000022148460CF086FB657202F0BDFB1020A9
:1058200000907E230122002113A002F02DFC102302
:105830007E220421132007F01DFDBDE8FE83000039
:10584000A800002060230020FA220020B3000020DE
:10585000303030202D2D3E203000000039393920E5
:105860002D2D3E203900000025303164000000005D
:105870002530336400000000C5C5BAC52020C9E842
:10588000B1B8CAFD0000000010B507F09DFC03216F
:10589000BDE81040C82005F029B910B507F0ACFCF0
:1058A0000321BDE81040C82005F020B92DE9FC41D6
:1058B000032222496846FAF728FD00258DF8035097
:1058C0006846FAF763FD1D49C4B2012208316846F3
:1058D000FAF71BFD8DF801506846FAF757FDC5B27F
:1058E000FA2C0AD916481749007800EB400051F805
:1058F0002000006801F0B8FF1AE0134801220444B8
:10590000271A04F12401263784F824500E46B8B231
:10591000FAF79CFE3146B8B20122FAF764FE94F819
:105920002400A84201D1012000E0002001F0B2FFD4
:105930000321C82005F0DAF8BDE8FC81FA22002036
:10594000AC000020FCAC01086023002007F0DABBAB
:10595000704770477047000008B502F01DFB1548FE
:10596000164A174B007800EB4001134800EB81000A
:10597000106002791A70134A00687E2310601020AC
:1059800000901148062250F821000021806802F0A2
:105990007BFB0E480078022808D107F0E9FB0C4891
:1059A0000C4990F8220008700B490870BDE80840C7
:1059B000FBF748B8AC0000203CAC0108BC0000205C
:1059C000B2000020B80000201CAE0108A800002092
:1059D00060230020B1000020B3000020FBF7A6B830
:1059E000FBF724B970B507F0C3FB02F0D5FA0E48F7
:1059F0000E4D0E490478223105F8224F01220E4641
:105A00002420FAF723FE012231462420FAF7EBFD89
:105A10002878A04201D1012000E0002001F03AFFE7
:105A2000BDE8704007F06EBBB1000020602300208D
:105A300007F068BB704770477047000008B502F078
:105A4000ABFA1548164A174B007800EB4001134893
:105A500000EB8100106002791A70134A00687E23FF
:105A60001060102000901148062250F821000021FB
:105A7000406802F009FB0E480078022808D107F0C0
:105A800077FB0C480C4990F8220008700B4908700D
:105A9000BDE80840FAF7D6BFAC00002054AC0108BE
:105AA000BC000020B2000020B80000201CAE01089D
:105AB000A800002060230020B1000020B3000020D7
:105AC000FBF734B8FBF7B2B80E4810B5007850B108
:105AD00001280ED00D490C48097800EB4100002147
