:020000040800F2
:10000000E82D01209901000859B2000849A3000811
:100010003BAE00083D0D00087D1601080000000001
:10002000000000000000000000000000D3E0000815
:100030009D14000800000000FF01000809E300080B
:10004000B3010008B3010008B3010008B3010008C0
:10005000B3010008B3010008B3010008B3010008B0
:10006000B3010008B3010008B3010008B3010008A0
:10007000B3010008B3010008B3010008B301000890
:10008000B3010008B3010008B3010008B301000880
:10009000410D0008B3010008B3010008B3010008D6
:1000A000B3010008B3010008B3010008B301000860
:1000B00055E40008B3010008FDE40008B30100089E
:1000C000B3010008B3010008B3010008B301000840
:1000D000B30100087DF40008CDF40008B301000866
:1000E000B3010008B3010008B3010008B301000820
:1000F000B3010008B3010008B3010008B301000810
:10010000B3010008B3010008B3010008B3010008FF
:1001100065EF0008B3010008B3010008E9E5000835
:10012000B3010008B3010008B3010008B3010008DF
:10013000B30100080000000000000000B301000847
:100140009D0D0008B3010008B301000837C800087E
:10015000B3010008B3010008B3010008B3010008AF
:10016000B3010008B3010008B3010008B30100089F
:10017000B301000839C800080000000000000000BA
:10018000B3010008DFF80CD000F088F90048004700
:10019000414F0108E82D01200648804706480047E6
:1001A000FEE7FEE7FEE7FEE7FEE7FEE7FEE7FEE727
:1001B000FEE7FEE7C9E3000885010008EFF31080C1
:1001C00072B6704780F3108870471D484FF0FF01EA
:1001D0000170002080F309881A48012101701A4833
:1001E0004FF08051016062B6FEE717484FF0805132
:1001F0000160704714484FF080510160704772B63B
:10020000EFF3098028B1203880E8F00F0F49096822
:10021000086000B50E4880475DF804EB0D480E49B4
:100220000A78027009480D490A680260106890E86F
:10023000F00F203080F309884EF0040E62B670474C
:1002400022ED00E0FF00002004ED00E01801002096
:1002500069BE0008FC000020FD00002020010020F5
:100260002DE9F05F0546002092469B4688460646EB
:10027000814640241BE0284641464746224600F07E
:10028000C4F853465A46C01A914110D31146184635
:10029000224600F0ABF82D1A67EB01084F462246C4
:1002A0000120002100F0A2F817EB00094E41201EAA
:1002B000A4F10104DFDC484631462A464346BDE846
:1002C000F09F40EA01039B0703D009E008C9121F11
:1002D00008C0042AFAD203E011F8013B00F8013B00
:1002E000521EF9D27047D2B201E000F8012B491E2C
:1002F000FBD270470022F6E710B513460A460446C3
:100300001946FFF7F0FF204610BD10B5044604E083
:100310000B7800F8013B03B1491C521EF8D220466D
:1003200010BDCAB2401E10F8011F8A4202D0002937
:10033000F9D100207047421C10F8011B0029FBD1A5
:10034000801A704710B5002200E0521C835C8C5C60
:10035000A34201D1002BF8D1D8B2E1B2401A10BDAE
:1003600030B504460020034600E05B1C934203D2F4
:10037000E05CCD5C401BF8D030BD034611F8012B8A
:1003800000F8012B002AF9D11846704770B50646CF
:1003900011F0C8FA046805460A220021304600F030
:1003A00044F82C6070BD70B5064611F0BBFA0468C5
:1003B00005460A220021304600F037F82C6070BD57
:1003C00030B50B46014600202022012409E021FA25
:1003D00002F59D4205D303FA02F5491B04FA02F522
:1003E0002844151EA2F10102F1DC30BD202A04DBF5
:1003F000203A00FA02F1002070479140C2F1200338
:1004000020FA03F3194390407047202A04DB203A76
:1004100021FA02F00021704721FA02F3D040C2F124
:10042000200291400843194670472DE9F047914654
:100430000F4680460446002614F8015B2DB100F0FB
:100440003FF80068405DC007F6D12B2D02D02D2D5E
:1004500018D0641E4A463946204600F035F827B1C8
:100460003968A14201D1C7F8008071054FF002043C
:100470000BD54042002803DD11F054FA0460A007B8
:10048000BDE8F08746F48066E4E70028F8DA11F06A
:1004900049FA04606FF00040F2E70000064C074D97
:1004A00006E0E06840F0010394E807009847103444
:1004B000AC42F6D3FFF76AFE8CF00108ACF00108FD
:1004C0000048704768E201082DE9F05F8246007835
:1004D000002715468B460AF10104B946302801D0A1
:1004E0009DB113E014F8010B0127782803D0582898
:1004F00001D045B10AE00DB1102D07D1002710251C
:1005000014F8010B02E0082500E00A250026B04699
:100510000EE005FB080005FB06F1012701EB104684
:100520001FFA80F8B6F5803F00D3B94614F8010BE6
:10053000294600F018F80028EBDABBF1000F05D0CF
:100540000FB1641E00E05446CBF80040B9F1000F33
:1005500006D011F0E7F902210160C81EBDE8F09F46
:1005600048EA0640FAE73A2800D2303820F0200264
:10057000412A01D3A2F13700884201D34FF0FF3066
:10058000704770B58C1810F8015B15F0070301D1A6
:1005900010F8013B2A1106D110F8012B03E010F8E6
:1005A000016B01F8016B5B1EF9D12B0705D4002309
:1005B000521E0DD401F8013BFAE710F8013BCB1AAB
:1005C000921C03E013F8015B01F8015B521EF9D5A0
:1005D000A142D8D3002070BD10B509F0D9FEBDE806
:1005E000104007F0CAB970B515460E46044608E03B
:1005F0002046641CA4B200F007F86D1E06F8010B3B
:10060000ADB2002DF4D170BD10B5044609F066FFFF
:10061000A02009F033FF09F0A5FF200A09F02EFF02
:1006200009F0A0FFE0B209F029FF09F09BFF09F0F3
:1006300055FFA12009F022FF09F094FF002009F0E6
:10064000EDFE044609F06CFF204610BD70B514465F
:100650000D46064606E02978304600F007F8761C7D
:10066000B6B26D1C641EA4B2F5D270BD70B50D4655
:10067000044609F033FFA02009F000FF09F072FFE3
:10068000200A09F0FBFE09F06DFFE0B209F0F6FE6A
:1006900009F068FF284609F0F1FE09F063FF09F050
:1006A0003FFFBDE870400A2012F068BA70477047FB
:1006B000014808F0B0BA0000581900207047704790
:1006C000704700007CB52148214C4FF48075C1680B
:1006D0004FF47A7048430A22B0FBF2F00190206890
:1006E00099B1A1F5C3329F3A09D069460AF03FFF9C
:1006F000184B1949C6074FF000020BD108E06B46B2
:10070000002229460AF0D8FE7CBD6B460122F8E79C
:10071000C00304D50A601A706B46002213E0086813
:10072000019EB04203D200F1010008607CBDFDD102
:1007300000F1010008604FF0010018709A7014F089
:10074000B3FB6B46012229462068DBE72423002007
:100750007001002060000020800000203EB5254987
:100760000A20254C4A8BB2FBF0F2019289684FF4C3
:100770007A724A43B2FBF0F00290E06981B1A1F5D0
:10078000C3329F3A06D069460AF0F1FE1B49C20700
:100790000BD108E06B46002204210AF08DFE3EBD1D
:1007A0006B460122F8E7C20304D500206B460246DF
:1007B00008601CE04007F2D40868401C0860019AF9
:1007C0004FF48051904202D16B46012210E0029A10
:1007D0009042E4D96B460022E0690AF06DFE69465A
:1007E000E0690AF0C4FE4002D9D46B46012204211C
:1007F000E069D2E724230020540100207C0000207F
:1008000010B508F017FA0DF08DFD00F05FFEFFF750
:10081000E3FE0AF0F1F90DF0FBFD0CF0BBFE0AF06F
:10082000FBF90AF035FA0AF00DFA16F025FB09F08B
:10083000F1FE0EF0BFFD10F0ADFF0EF045FB00F035
:1008400049FBBDE810400CF0FFBE00002DE9FF4F52
:100850002D20B0FBF1F081B0491E01989B4600EBC2
:10086000800202EB401090FBF1F00004000CC6B2D5
:1008700000D1032603980025012100F1010900F1B0
:10088000020801EBD604B5EBD60F11D0AC420FD065
:100890002A460020039907F023F809F0FF012A46B1
:1008A000FF2007F01DF808F0FF012A46002033E082
:1008B000F008DFF84CA106F0070700901AF80700CF
:1008C000009A039907F00CF81AF8070009F0FF01E5
:1008D000C0F1FF00009A07F003F808F0FF011AF8D2
:1008E0000700009A06F0FCFF062C17D20AF1090A4D
:1008F00022461AF80700039906F0F2FF1AF80700DB
:10090000224609F0FF01C0F1FF0006F0E9FF224690
:1009100008F0FF011AF8070006F0E2FF6D1CEDB2C7
:10092000062DB0D3012007F063FA01980025401C82
:10093000C6B26420B6FBF0F4ABF10C00C1B23CB11E
:1009400004F13000C0B2072207F0C0F8012503E02F
:100950000722202007F0BAF82720444306EB840042
:10096000C4B20A26B4FBF6F2ABF1060002B925B117
:10097000C1B23032D0B2072202E0C1B20722202039
:1009800007F0A4F8B4FBF6F006FB10403030C0B21C
:100990000722594607F09AF81A4F3878012828D9C3
:1009A000002422E01849001B0844624210F8010CA0
:1009B0000BEBC205401CC0B2B0FBF6F106FB110008
:1009C000A5F108013030C9B2C0B2072207F07EF8A5
:1009D000681EC1B20722102006F082FFE9B207228A
:1009E000102006F07DFF641CE4B23878411E8C4272
:1009F000D8DB05B00020BDE8F04F07F0F9B90000E2
:100A00000F9E0108AE000020DA220020F8B5002475
:100A100015460E460746012B04D07823009407F0B4
:100A2000BFF8F8BD012007F009FA78232A463146BD
:100A30003846009407F0B4F8BDE8F840002007F00D
:100A4000FDB900002DE9F047DFF8C8A0DFF8C88045
:100A50009AF80000032803D9032288F8002001E057
:100A600088F800002D4900242D4F09782D4E0129CA
:100A700002D0022905D010E00CF0B6F83C703470BA
:100A80000FE098F800103278491E8A4200DD347079
:100A90003A78411E8A4200DD3C70397832789142C2
:100AA00002D33878317800E0511A401AC4B20025D8
:100AB000DFF8749020E03878844208D13178490614
:100AC0000A0ED9F80010012351F8200006E068064C
:100AD000020ED9F80000002350F824000021FFF78F
:100AE00095FF9AF80000401E844201D1002401E0E5
:100AF000641CE4B26D1CEDB298F800008542DAD3B4
:100B00009AF800103878BDE8F04778237D22FFF787
:100B10009DBE0000B2000020B4000020A80000200C
:100B2000B1000020B3000020B80000202DE9F047FC
:100B3000DFF8E480374E98F800403178601EC2B28A
:100B400071B1481E3070354F354D3B7828684BB138
:100B50005A06120E5B1E3B7050F82100002337E04E
:100B60003270F0E7032C2ED934784FF0000A524649
:100B7000A94650F8240001235146FFF747FF98F893
:100B80000000401E844201D1002401E0641CE4B254
:100B900001256806020ED9F800000023194650F816
:100BA0002400FFF733FF98F80000401E844201D173
:100BB000002401E0641CE4B26D1CEDB2032DE8D307
:100BC00087F800A012E03A7050F8210000231A467E
:100BD0000021FFF71BFF387831784006020E2868A5
:100BE000012350F821000021FFF710FF78237D2218
:100BF00098F800103078FFF729FE0B49094809786A
:100C000000EB4100002130F8020CBDE8F04709F08C
:100C1000F9BC0000B1000020B2000020B3000020A9
:100C2000B8000020C4220020AD0000202DE9F047CC
:100C3000DFF8F0803A4E002498F800203178501EFA
:100C4000814201D1347001E0481C30703748364F82
:100C5000374D90F800C03B78ACF1010C2868634533
:100C600004D05A06120E5B1C3B7034E06FF0010397
:100C7000032A2CD9347899460422AA4650F8240035
:100C800001230021FFF7C2FEBCB1641EE4B20225BD
:100C900009EB4500C2B2DAF800000023194650F80B
:100CA0002400FFF7B3FE6CB1641EE4B26D1E15F0B4
:100CB000FF05EDD1022038701EE098F80000401EBC
:100CC000C4B2E4E798F80000401EC4B2EEE703EBBC
:100CD00042023C70D2B250F8210000231946FFF7BF
:100CE00095FE387831784006020E2868012350F8C6
:100CF00021000021FFF78AFE78237D2298F800105A
:100D00003078FFF7A3FD0C490A48097800EB410051
:100D1000002130F8020CBDE8F04709F073BC000078
:100D2000B1000020B2000020B3000020B400002079
:100D3000B8000020C4220020AD000020FEE7000023
:100D400070B5134D00240A222146284607F08CFA7C
:100D5000696BA5F10C000A8802800A7B8270097C0D
:100D6000C17006E06A6B04F11401515C0219641C45
:100D70001171C178A142F5D8074C064920680DF0E1
:100D80009FFA2068BDE8704001490C3911F0A2BB00
:100D9000BCCB0020006400408C01002070B5134DD6
:100DA00000240A222146284607F05EFA696BA5F165
:100DB00050000A8802800A7B8270097CC17006E0BC
:100DC0006A6B04F11401515C0219641C1171C17841
:100DD000A142F5D8074C064920680DF071FA206849
:100DE000BDE870400149503911F074BB00CC0020BF
:100DF000006800408C0100200D49C0F8AC100D497E
:100E000040F8801F0C4941600C4981600C49C16069
:100E10000C49C0F84C110C49C0F850110B49C0F8EE
:100E2000B8110B49C0F854110A49C0F8581170475D
:100E3000C9AC0008CBAC000837AE0008B5AD00085F
:100E400039AE000835AE000831AE000833AE0008F8
:100E500005AE00080DAE000870B5094DFF231A4617
:100E600005F5807605E010F8014B54402A5D5A40A4
:100E7000335D491E89B2F6D242EA032070BD0000FC
:100E8000E6DF010810B5012901D0022902D10C3199
:100E9000C9B2401E4B1C03EB43030524B3FBF4F320
:100EA00002EB41011944C217014400EB927201EBBD
:100EB000A201642290FBF2F2891A4FF4C87290FBEF
:100EC000F2F00844072190FBF1F201FB1200401CF4
:100ED000C0B210BD70B513F0A5FE1A4C184D2068B5
:100EE000C0F8E051FFF788FF0021206816F0B6F93E
:100EF0007F21206816F00AF90521206816F0AEF966
:100F00001021284611F024FB10210F4811F020FB7E
:100F100000204FF48031401C8842FCD30020401C4C
:100F20008842FCD30020401C8842FCD30020401C97
:100F30008842FCD30020401C8842FCD370BD0000D6
:100F4000006400408C010020006800402DE9F0475B
:100F5000012713F02BFF20F0C0004FF000093F28BD
:100F600002D0314AA2F80090304C314D314E0B384E
:100F700007283ED2DFE800F00B211A04282F3600A4
:100F8000208800EB800005EB8000408805E0208889
:100F900000EB800005EB80008088208000EB800063
:100FA00005EB800000693060804723E0208800EB7B
:100FB000800005EB8000C088EFE7208800EB800010
:100FC00005EB80000089E8E7208800EB800005EB56
:100FD00080008089E1E7208800EB800005EB80003D
:100FE0004089DAE7208800EB800005EB8000C089AB
:100FF000D3E70027DFF8408098F8000068B1208828
:1010000000EB800005EB800000693060804798F8B5
:101010000010042904D088F800903846BDE8F08715
:10102000012188F80010F8E7C4000020AA00002081
:1010300024A80108C0000020A80000202DE9F04FDE
:101040008FB0044606F034FD94A104A8FFF795F98B
:10105000102680230122002104A8009606F0A0FD9E
:10106000234691A2042104A810F034FC90A10DF1B4
:101070001300FFF782F980230422002104A80096C0
:1010800006F08EFD00226423114610460AF022FF6E
:10109000DFF82482894F34B198F89703A04202D335
:1010A000254687490BE098F89703A0420AD298F8A2
:1010B00098130144A14205D3201A8249C5B2386869
:1010C0000DF0FEF805F5C0600E9080380B908DF89D
:1010D00030500122FB2120460DF062FE0420002644
:1010E0000DF1280A0A90CDE900A6DFF8D0914FF45F
:1010F000945B02960EAB01225946D9F8000010F01D
:1011000021FFCDE900A602960BAB02225946D9F881
:10111000000010F017FF01200A90CDE900A602960A
:101120000CAB03225946D9F8000010F00BFF08EB76
:10113000C407C246B7F8A8030990062002210DF1A2
:101140002408CDE90010CDE90286002346F206020C
:101150002946D9F8000016F0E3FA002873D1284692
:1011600000F0F2F800286FD09AF89E03B3460126EB
:101170000DF1040C052100960990D1468CE8020976
:10118000DFF838A1334646F206022946DAF80000B5
:1011900016F0C6FA00287ED1284600F0D5F80028BF
:1011A00076D099F89F03D9464FF0050B0123CDE97E
:1011B000003B0990CDE90289022346F20602294646
:1011C0005646DAF8000016F0ABFAE0BB284600F00D
:1011D000BBF800285CD0D7F8AA03CA4620F07F40AD
:1011E0000723042209908DE80C05032346F206022A
:1011F0002946B146306816F093FA20BB284600F025
:10120000A3F8002844D0B7F8A6035646CDE90286D5
:101210004FF0010A0990CDE900AB042346F2060223
:101220002946D9F8000016F07BFA60B9284600F08C
:101230008BF800282CD097F8AD03052346F2060260
:101240002946099001E026E022E0CDE90286CDE9B9
:1012500000ABD9F8000016F063FAE0B9284600F0B8
:1012600073F8002814D00222FB2120460DF098FDCF
:101270000DA8009014484FF47A7382224FF0007149
:1012800000680AF05FF89DF834000A2803D00120B6
:101290000FB0BDE8F08F0020FAE70000D5FDD4DAEA
:1012A000C5E4D6C300000000253033640000000010
:1012B000BAC5C9E8B1B80000242300208C01002081
:1012C00000640040006800407001002010B586B046
:1012D00004460BF089FC06F0EBFB234613A2042125
:1012E00001A810F0F7FA13A10DF10700FFF745F878
:1012F000102480230122002101A8009406F050FC54
:101300000EA101A8FFF739F880230422002101A8CB
:10131000009406F045FC00230122194618460AF005
:10132000D9FD0BF02BFC06B010BD00002530336456
:1013300000000000BAC5C9E8B1B80000C5E4D6C3D2
:10134000B3C9B9A621000000F8B506460A4D0EE063
:1013500000220A23114610460AF0BCFD6A463146B7
:10136000286813F081F9012804D0641EA4B2002C6F
:10137000EED10020F8BD00008C01002030B40A46F8
:10138000D0F89C10D0F8A0404FF0FF3351F8221055
:1013900024F81230C1F307410122431883F8B0202A
:1013A000D0F8AC2030BC10472DE9F04F9946DDE96C
:1013B000094C4FF0FF3BDDF82CA048E0ACEB0203FA
:1013C0005BB20D78002B02DD05FA03F503E0C3F1F3
:1013D000000325FA03F5EEB202DDCCF1080301E0CB
:1013E000C2F10803DBB2834200D903460CEB0307CA
:1013F0004FF0FF0808FA07F5CCF1080C28FA0CF8B2
:1014000045EA080594F800C0AE430CEA050C1A44FE
:101410004CEA060CD2B284F800C0072A07D9002291
:10142000B9F1000F01D05D4600E00125294407F025
:10143000FF0CBCF1070F08D94FF0000CBAF1000FF8
:1014400001D05D4600E001252C44C01AC0B200283E
:10145000B4D1BDE8F08F10B500210A4600EB81033E
:10146000491CC3F87C230F29F8D300214FF40073E3
:101470004418491C84F81C219942F9D30270427027
:1014800001218170C0F8B823017640238371427630
:1014900080F81C2380F81D13002010BD7047000049
:1014A000411C0DD0084AB2F90010884201D1491EF2
:1014B0001180054A002100EB4000083202F830108C
:1014C0004FF0FF30704700009001002038B52649EA
:1014D00000200A6842F001020A600968234C01F00A
:1014E000010100914FF08041E060C4E90010204DFF
:1014F000482129702061A060204608F08DFA2068FC
:10150000016841F0040101602068016A41F2111292
:10151000114207D1016A9210114203D1016821F0F2
:1015200001010160062007F0F9FB022200211C20C6
:1015300007F0D4FB1C2007F0C3FB0E480E490068DF
:10154000B0FBF1F14FF47A704143012068804FF015
:10155000E020026942F0020202614161016941F04A
:101560000101016138BD00004038024084220020A2
:101570009C0000202000002040420F0030B52128B0
:1015800000D92138012202EB10431C4A127803FBD8
:1015900002F41B4A1568AC62B0FBF3F41568EC6208
:1015A000B0FBF3F0D06010686FF0010505611368BF
:1015B000002058621068036843F00103036041F2A1
:1015C00011139C1011B1012911D004E010680169B8
:1015D000C907FCD005611068016A194206D1016A89
:1015E000214203D1016821F00101016030BD106882
:1015F000C16841F00101C16030BD00009C000020C5
:101600008422002010B50022114607A006F06EFAD1
:101610000222002107A006F069FA0422BDE810406A
:10162000002107A006F062BA4275696C6420546913
:101630006D653A004A756C20323120323031390004
:1016400032323A33303A3432000000000BF096BAAE
:101650002DE9F843234D2449DFF890802878244F62
:1016600000EB400001EB8002137988F8003051F85C
:101670002000386006F01CFA1E481F4C0078012834
:1016800005D10BF0B1FA1D4900202070087010261A
:1016900000962178386800227E2350F821001146F8
:1016A00006F07EFA16482178022250F821003021F7
:1016B00006F040FB00962878124900EB40007E239C
:1016C00051F8200006220021406806F069FA98F8D7
:1016D0000010207801B07823BDE8F0437D22FFF7A9
:1016E000B5B80000AC00002078A70108B2000020C7
:1016F000B8000020A8000020B1000020B3000020A6
:1017000008A80108F0A7010838B5164C164D207836
:1017100000B928780022401E207010200090134845
:1017200021787E23006850F82100114606F038FA2F
:101730000F482178022250F82100302106F0FAFAF1
:1017400078237D2229782078FFF780F80A49094814
:10175000097800EB4100002130F8020CBDE8384068
:1017600008F050BFB1000020B2000020B8000020F7
:1017700008A80108C4220020AD00002038B5194D8A
:10178000174C29782078491E884201D1002000E0BA
:10179000401C20701020009013482178002200681F
:1017A0007E2350F82100114606F0FAF90F482178FF
:1017B000022250F82100302106F0BCFA78237D2265
:1017C00029782078FFF742F80A490948097800EBA0
:1017D0004100002130F8020CBDE8384008F012BF8B
:1017E000B1000020B2000020B800002008A80108C5
:1017F000C4220020AD000020154810B5017816481D
:10180000144A0629007802EB40001DD2DFE801F0FF
:1018100003080D10151506F04BF9012110200FE0FB
:1018200006F046F9012118200AE00121D02007E046
:1018300006F03EF90221202002E030F8020C0021DF
:10184000BDE8104008F0DEBE00210846F8E70000C1
:10185000B1000020C4220020AD0000200BF08EB9A2
:10186000704770477047000008B506F021F9102056
:101870000090074807497E230078032200EB4000D0
:1018800051F820000021006806F08AF908BD000028
:10189000AC00002060A70108704770470BF06EB9DC
:1018A0000BF06CB9704770477047000008B506F040
:1018B000FFF81448154A164B007800EB4001124817
:1018C00000EB8100106002791A70124A00687E23D2
:1018D0001060102000901048062250F821000021CE
:1018E000406806F05DF90D480078022806D10BF03B
:1018F0007BF90B49002008700A490870BDE80840D0
:10190000FFF7A0B8AC000020F8A50108BC0000203B
:10191000B2000020B8000020F0A70108A8000020B5
:10192000B1000020B3000020FFF700B9FFF77EB937
:101930000B48007850B101280CD00B4909480978B0
:1019400000EB4100002130F8020C06E002214FF4C8
:10195000947002E002214FF4987008F053BE00002A
:10196000B1000020C4220020AD0000200BF006B919
:10197000704770477047000038B51C480078012850
:1019800017D11B4800241BA104701B48FEF7F5FC6F
:1019900019481AA11130FEF7F0FC194819A20421C8
:1019A00090F89733144812380FF094FF1248123809
:1019B000447406F07DF810200090144814497E23EA
:1019C0000078012200EB400051F82000114909780D
:1019D00050F82100002106F0E3F801B01023BDE823
:1019E00030407E22042133200BF078B9A80000207B
:1019F000B300002030303000002300203939390096
:101A0000242300202530336400000000AC000020B7
:101A1000A8A70108B100002010B50BF011F90321AF
:101A2000BDE81040F02008F0EDBD10B50BF01EF938
:101A30000321BDE81040F02008F0E4BD2DE9F0419D
:101A40001848FEF7A3FC84B27D2C0AD91648174922
:101A5000007800EB400051F82000006805F090FC91
:101A600019E0134D40F2993605F2973185F8974306
:101A700001220F463046FEF7E9FD01223946304685
:101A8000FEF7B1FD95F89703A04201D1012000E0D7
:101A9000002005F08BFCBDE8F0410321F02008F0A8
:101AA000B1BD0000EE220020AC000020D0A601084D
:101AB000242300200BF062B8704770477047000085
:101AC00038B51C480078012817D11B4800241BA1F9
:101AD00004701B48FEF751FC19481AA11130FEF79B
:101AE0004CFC194819A2042190F898331448123874
:101AF0000FF0F0FE12481238447405F0D9FF1020A0
:101B00000090144814497E230078012200EB400025
:101B100051F820001149097850F82100002106F001
:101B20003FF801B01023BDE830407E22042133206D
:101B30000BF0D4B8A8000020B300002030303000F3
:101B40000023002039393900242300202530336454
:101B500000000000AC000020A8A70108B100002090
:101B600010B50BF06DF80321BDE81040F82008F027
:101B700049BD10B50BF07AF80321BDE81040F820FC
:101B800008F040BD2DE9F0411848FEF7FFFB84B294
:101B90007D2C0AD916481749007800EB400051F80F
:101BA0002000006805F0ECFB19E0134D40F29A3676
:101BB00005F5667185F8984301220F463046FEF719
:101BC00045FD012239463046FEF70DFD95F8980394
:101BD000A04201D1012000E0002005F0E7FBBDE8B4
:101BE000F0410321F82008F00DBD0000EE22002096
:101BF000AC000020D0A60108242300200AF0BEBFBC
:101C000070477047704700002DE9FE43404F0024A5
:101C1000404E3878404D4FF02008012825D13F48EC
:101C20003FA1047005F11200FEF7A7FB3FA105F1EB
:101C30002300FEF7A2FBAC76472085F82B0001209D
:101C400030823020287068703120A87085F80380B9
:101C50002D21297169713E213748A97185F80780C6
:101C600090F8250228726C726C74387803282BD196
:101C7000687C082828D00322274901A8FEF745FBE5
:101C80008DF807402448FEF781FB84B2FA2C12D964
:101C90002A482B49007800EB400051F820000068EA
:101CA00005F06EFB348A27A2234604211A480FF060
:101CB00011FE85F80380308AA04205D01E48348288
:101CC000204490F82402287205F0F2FE10200090C3
:101CD0007E23012200211DA005F062FF10237E2239
:101CE00004211B200AF0FAFF687C082802D1022098
:101CF00006F0A4F8287A1949042251F820005B2143
:101D000005F0F4FE002006F099F8BDE8FE8300001F
:101D1000A8000020C6000020EE220020B300002012
:101D2000303030202D2D3E20300000003239392057
:101D30002D2D3E207800000024230020AC00002040
:101D4000D0A601082530336400000000C9E8B1B80E
:101D5000BAC52020C6B4D2F400000000BCCE0108F1
:101D600010B50AF06DFFBDE8104003214FF4A070DC
:101D700008F048BC10B50AF079FFBDE81040032117
:101D80004FF4A07008F03EBC2DE9FC4103221F492E
:101D90006846FEF7BAFA00208DF803001B48FEF7EC
:101DA000F5FA80B2FA280AD919481A49007800EBE6
:101DB000400051F82000006805F0E2FA1EE0164AE3
:101DC000124D1418A71A297A84F8241204F50971FF
:101DD00007F226270E46B8B20122FEF737FC31463D
:101DE000B8B20122FEF7FFFB287A94F82412884249
:101DF00001D1012000E0002005F0D8FA03214FF4C2
:101E0000A07008F0FFFBBDE8FC810000EE2200207E
:101E1000AC000020D0A60108242300200AF0AEBEAA
:101E2000704770477047000008B505F041FE15483F
:101E3000164A174B007800EB4001134800EB810075
:101E4000106002791A70134A00687E231060102017
:101E500000901148062250F821000021806805F00A
:101E60009FFE0E480078022808D10AF0BDFE0C48FB
:101E70000C4990F89F0308700B490870BDE80840B2
:101E8000FEF7E0BDAC000020E0A50108BC0000208A
:101E9000B2000020B8000020F0A70108A800002030
:101EA00024230020B1000020B3000020FEF73EBE36
:101EB000FEF7BCBE2DE9F0410AF096FE05F0F8FDF4
:101EC0000F48104D40F2A136047805F29F3185F895
:101ED0009F4301220F463046FEF7B8FB01223946E8
:101EE0003046FEF780FB95F89F03A04201D1012008
:101EF00000E0002005F05AFABDE8F0410AF03EBECD
:101F0000B1000020242300200AF038BE704770473B
:101F1000704700000D4808B50078012804D10C492D
:101F2000002008700B49087005F0C2FD10200090D9
:101F300009480A497E230078032200EB400051F84B
:101F400020000021006905F02BFE08BDA80000203C
:101F5000B1000020B3000020AC000020F0A7010871
:101F60007047704710B505F0CDFF012005F01EFA4F
:101F70000AF004FE0221BDE81040102008F042BB28
:101F80000AF0FCBD704770477047000008B505F0C7
:101F90008FFD0F48104A114B007800EB40010D48AF
:101FA00000EB8100106002791A700D4A00687E23F0
:101FB0001060102000900B48062250F821000021EC
:101FC000406805F0EDFDBDE80840FEF73BBD0000B0
:101FD000AC00002058A60108BC000020B200002080
:101FE000B8000020F0A70108FEF7A0BDFEF71EBE56
:101FF0000D4810B5007850B101280DD00C490B48A0
:10200000097800EB4100002130F8020C08E00AF0EA
:10201000EBFD0121D82003E00AF0E6FD0121E020DC
:10202000BDE8104008F0EEBAB1000020C422002044
:10203000AD0000200AF0A2BD704770477047000055
:1020400008B505F035FD1548164A174B007800EB2A
:102050004001134800EB8100106002791A70134AA6
:1020600000687E231060102000901148062250F86E
:1020700021000021806805F093FD0E4800780228B9
:1020800008D10AF0B1FD0C480C4990F89E03087085
:102090000B490870BDE80840FEF7D4BCAC00002036
:1020A000C8A50108BC000020B2000020B800002034
:1020B000F0A70108A800002024230020B100002080
:1020C000B3000020FEF732BDFEF7B0BD2DE9F041B0
:1020D0000AF08AFD05F0ECFC0F48104D4FF46876CD
:1020E000047805F29E3185F89E4301220F46304662
:1020F000FEF7ACFA012239463046FEF774FA95F83D
:102100009E03A04201D1012000E0002005F04EF91D
:10211000BDE8F0410AF032BDB100002024230020C8
:102120000AF02CBD70477047704701214FF4E870EA
:1021300008F068BA704770477047000070B53048C3
:10214000304E314C007886B0012806D12F4900204E
:10215000307008702E492079087005F0A9FC2D48D0
:102160002DA20421038901A80FF0B4FB2CA10DF1CD
:102170000700FEF702F9102580230122002101A8A3
:10218000009505F00DFD28A101A8FEF7F6F88023C3
:102190000322002101A8009505F002FD3078254DAD
:1021A000F0B1002005F04AFE2878062200EB40003E
:1021B000102154F82000006805F098FC012005F07B
:1021C0003DFE2878062200EB4000502154F8200004
:1021D000406805F08BFC002005F030FE06B070BDB5
:1021E000012005F02BFE2878062200EB400010218C
:1021F00054F82000006805F079FC0020DFE70000BB
:10220000A8000020B100002048A70108B30000206A
:10221000B2000020C600002025303364000000001A
:10222000BAC5C9E8B1B80000C5E4D6C3CAA7B0DCD6
:1022300021000000AC00002010B508F0FFFDBDE853
:10224000104003214FF4EC7008F0DCB910B508F031
:102250000BFEBDE8104003214FF4EC7008F0D2B93A
:102260000848007840B1084A10899189884202D212
:10227000401C108100E01181012140F2D11008F0D2
:10228000C1B90000B1000020C6000020F8B5214807
:102290000078012820D12048002620A1067021487E
:1022A000FEF76BF81F4820A11130FEF766F8204DAD
:1022B0001C4820A26B89042112380FF00BFB194C2B
:1022C0002D20123C1BA2E070AB890421201D0FF0D1
:1022D00001FB66740120287005F0EAFB10200090D5
:1022E000164817497E230078012200EB400051F880
:1022F00020001449097850F82100002105F050FC15
:1023000001B01023BDE8F0407E22042123200AF012
:10231000E5BC0000A8000020B30000203030302DC4
:1023200030303000002300203939392D3939390057
:10233000C60000202530336400000000AC000020FF
:10234000A8A70108B100002010B50AF079FCBDE88B
:10235000104003214FF4E87008F054B910B50AF0AA
:1023600085FCBDE8104003214FF4E87008F04AB93D
:1023700010B586B0032225496846FDF7C6FF6846BA
:10238000FEF704F8224C214903226081091D6846AA
:10239000FDF7BBFF6846FDF7F9FF80B2A0816189B8
:1023A000FF2901D8FF280AD91A481B49007800EBF9
:1023B000400051F82000006804F0E2FF13E02078AC
:1023C00001280CD121810AE0C0B2FEF737FE20704F
:1023D00068B1207AFEF77AFF2089401C208120898D
:1023E000A1898842F0D903214FF4E87009E00B4835
:1023F0000021006814F01CFD0BF038FA04214FF4A2
:10240000EC7008F0FFF806B010BD0000EE220020CE
:10241000C6000020AC000020D0A601088C010020DE
:102420000AF0ACBB70477047704700000D4808B514
:102430000078012804D10C49002008700B4908706D
:1024400005F036FB1020009009480A497E230078E9
:10245000032200EB400051F820000021006905F044
:102460009FFB08BDA8000020B1000020B3000020A1
:10247000AC000020F0A701087047704710B50BF0C2
:10248000E7F9012004F092FF0AF078FB0221BDE891
:102490001040182008F0B6B80AF070BB70477047BB
:1024A0007047000038B51A480078012813D1194840
:1024B000002419A104701948FDF75FFF174818A1FF
:1024C0001130FDF75AFF154813A11238FDF755FFDB
:1024D00012481238447405F0EBFA102000901148AD
:1024E00011497E230078012200EB400051F82000C2
:1024F0000E49097850F82100002105F051FB01B088
:102500001023BDE830407E22042133200AF0E6BBD0
:10251000A8000020B300002030303000002300204D
:1025200039393900AC000020B0A50108B100002005
:1025300010B50AF085FBBDE8104003214FF4C470CC
:1025400008F060B810B50AF091FBBDE81040032117
:102550004FF4C47008F056B838B51E48FDF716FFA2
:1025600084B2FA2C0AD91C481C49007800EB4000C0
:1025700051F82000006804F003FF25E018486B467E
:1025800000224FF48041006808F096FFE0B20CF0A2
:1025900093FC144D286809F00BF98DF800006A4689
:1025A0004FF47A71286809F011F99DF800100A2992
:1025B00005D00178A14204D04078FD2801D0002048
:1025C00000E0012004F0F2FE03214FF4C47008F093
:1025D00019F838BDEE220020AC000020D0A601087A
:1025E000700100206C0100200AF0C8BA70477047E3
:1025F00070470000F8B52848007801282ED12748F8
:10260000002627A106702948FDF7B7FE274828A114
:102610001130FDF7B2FE254C3220123C0022207012
:10262000302060702549264806F0ACFE234D25A2D7
:102630000321EB78A01C0FF04DF92F2727716B7841
:1026400020A20321601D0FF045F9E771AB781DA2B0
:10265000032104F108000FF03DF9667405F028FA33
:102660001020009019481A497E230078012200EBBF
:10267000400051F820001749097850F82100002146
:1026800005F08EFA01B01023BDE8F0407E2204214F
:1026900017200AF023BB0000A8000020B300002090
:1026A000323030302F30312F303000000023002006
:1026B000323039392F31392F33390000C30E002021
:1026C00098DD00202530326400000000AC000020BE
:1026D00058A60108B100002010B50AF0B1FA032194
:1026E000BDE81040E02007F08DBF10B50AF0BEFA3B
:1026F0000321BDE81040E02007F084BF38B51BA0DF
:102700001B4D006800900222A91C6846FDF7FDFDE4
:102710006846FDF73BFE174C0222691DE0706846D3
:10272000FDF7F3FD6846FDF731FE6070022205F10A
:1027300008016846FDF7E9FD6846FDF727FEC2B2CD
:10274000A270E078617800F5FA60FEF79BFB2070DC
:1027500000222146084806F0B9FE012004F026FEBA
:102760000321E02007F04EFF38BD00002A2A0000B8
:10277000EE220020C30E002098DD00200AF0FEB9F2
:1027800070477047704700002DE9FE43404F00241A
:10279000404E3878404D4FF02008012825D13F4861
:1027A0003FA1047005F11200FDF7E7FD3FA105F11F
:1027B0002300FDF7E2FDAC76192085F82B000120FF
:1027C000F0813020287068703120A87085F803806F
:1027D0002D21297169713E213748A97185F807803B
:1027E00090F8250128726C726C74387803282BD10C
:1027F000687C082828D00322274901A8FDF785FD19
:102800008DF807402448FDF7C1FD84B2FA2C12D997
:102810002A482B49007800EB400051F8200000685E
:1028200004F0AEFDF48927A2234604211A480FF0D4
:1028300051F885F80380F089A04205D01E48F48144
:10284000204490F82401287205F032F910200090FD
:102850007E23012200211DA005F0A2F910237E2273
:1028600004211B200AF03AFA687C082802D10220D1
:1028700005F0E4FA287A1949042251F820005B2176
:1028800005F034F9002005F0D9FABDE8FE83000018
:10289000A8000020C6000020EE220020B300002087
:1028A000303030202D2D3E203000000039393920C5
:1028B0002D2D3E207800000024230020AC000020B5
:1028C000D0A601082530336400000000C9E8B1B883
:1028D000BAC52020D7D6B7FB0000000054CE0108AF
:1028E00010B50AF0ADF9BDE8104003214FF49C701B
:1028F00007F088BE10B50AF0B9F9BDE81040032111
:102900004FF49C7007F07EBE2DE9FC4103221F4965
:102910006846FDF7FAFC00208DF803001B48FDF720
:1029200035FD80B2FA280AD919481A49007800EB17
:10293000400051F82000006804F022FD1EE0164A15
:10294000124D1418A71A297A84F8241104F59271EB
:1029500007F593770E46B8B20122FDF777FE3146B0
:10296000B8B20122FDF73FFE287A94F8241188427C
:1029700001D1012000E0002004F018FD03214FF4F4
:102980009C7007F03FFEBDE8FC810000EE220020B5
:10299000AC000020D0A60108242300200AF0EEB8E5
:1029A00070477047704700000D4808B5007801284F
:1029B00004D10C49002008700B49087005F078F824
:1029C0001020009009480A497E230078032200EB7A
:1029D000400051F820000021006905F0E1F808BD31
:1029E000A8000020B1000020B3000020AC000020AF
:1029F000F0A701087047704710B50AF029FF0120C1
:102A000004F0D4FC0AF0BAF80221BDE8104010200E
:102A100007F0F8BD0AF0B2B8704770477047000081
:102A20002DE9F043DFF8B481DFF8B4912D2798F851
:102A300000006C4D00266C4C87B001281DD16B48FE
:102A40006BA1067004F11200FDF797FC6AA104F176
:102A50002300FDF792FCAB7869A2042120460EF01A
:102A600039FFE770A97866A209EBC1000421B0F82C
:102A7000A633201D0EF02EFF667498F80000032880
:102A800039D1607C032836D20322574901A8FDF7CB
:102A90003CFC8DF8076001A8FDF778FC80B2A882A5
:102AA000FA2812D958485949007800EB400051F8EB
:102AB0002000006804F064FCAB7851A204214A486D
:102AC0000EF008FFE770A878A882A97880B2884243
:102AD00011D0C3B2AB704AA2042143480EF0FAFEF3
:102AE000E770AA78201D09EBC20145A2B1F8A63310
:102AF00004210EF0EFFE04F0DBFF45A101A8FDF775
:102B00003CFC002101A8FDF70CFC03223649FDF72F
:102B1000FCFB10258DF80E607E230122002101A808
:102B2000009505F03DF8607C3B4FDFF8F08003280E
:102B30001BD2022005F082F9002005F059F9607CD3
:102B40000122011901A8FDF7E0FB8DF80560607C0A
:102B5000397898F8002001EBC0001838C1B201A8FC
:102B600004F0C4FF002005F069F92DA101A8FDF7CC
:102B700004FC002101A8FDF7D4FB0322211DFDF771
:102B8000C4FB8DF80C607E230422002101A800956F
:102B900005F006F8607C001F03281BD2022005F018
:102BA0004DF9002005F024F9607C0122011901A8EB
:102BB000FDF7ABFB8DF80560607C397898F8002054
:102BC00001EBC0003838C1B201A804F08FFF00202B
:102BD00005F034F907B0BDE8F0830000A80000203C
:102BE00024230020C6000020EE220020B300002095
:102BF0003030302D303030003239392D393939000C
:102C00002530336400000000AC000020D0A601088D
:102C1000C9E8B1B8BAC53A00A2000020A30000205C
:102C2000BBA8D1F93A00000010B50AF009F8BDE8D8
:102C3000104003214FF4B47007F0E4BC10B50AF063
:102C400015F8BDE8104003214FF4B47007F0DABC6A
:102C5000F8B5032228496846FDF757FB6846FDF79B
:102C600095FB264E24490322B082091D6846FDF7D4
:102C70004CFB6846FDF78AFB84B2B08AFA2802D87A
:102C8000B4F57A7F0AD31E481E49007800EB400055
:102C900051F82000006804F073FB27E0C0B21A4D21
:102CA000B07005EBC00000F2A631A0F8A643401BAF
:102CB00000F56A7080B20222FDF7C8FCB0780222EB
:102CC00005EBC00000F2A631401B00F56A7080B22F
:102CD000FDF789FCB07805EBC000B0F8A603A04270
:102CE00001D1012000E0002004F060FB03214FF43B
:102CF000B47007F087FCF8BDEE220020C60000206B
:102D0000AC000020D0A601082423002009F036BF23
:102D1000704770477047000008B504F0C9FE1448BA
:102D2000154A164B007800EB4001124800EB810079
:102D3000106002791A70124A00687E231060102019
:102D400000901048062250F821000021406804F04D
:102D500027FF0D480078022806D109F045FF0B49EE
:102D6000002008700A490870BDE80840FDF76ABEF7
:102D7000AC000020B0A50108BC000020B20000207B
:102D8000B8000020F0A70108A8000020B100002032
:102D9000B3000020FDF7CABEFDF748BF2A4810B5B2
:102DA00000780B2846D2DFE800F0060C10141A2039
:102DB000262C32383C0009F017FF01214FF4C47073
:102DC00034E002214FF4C87030E002214FF4AC70BF
:102DD0002CE009F009FF01214FF4B07026E009F062
:102DE00003FF01214FF4B47020E009F0FDFE012142
:102DF0004FF4B8701AE009F0F7FE01214FF4BC70EF
:102E000014E009F0F1FE01214FF4C0700EE009F06A
:102E1000EBFE01214FF4CC7008E001214FF4D0709B
:102E200004E009F0E1FE01214FF4F070BDE810402C
:102E300007F0E8BB06490548097800EB410000218E
:102E400030F8020CF2E70000B1000020C42200209C
:102E5000AD00002009F092BE08B504F029FE0F482D
:102E6000104A114B007800EB40010D4800EB810047
:102E7000106002791A700D4A00687E2310601020DD
:102E800000900B48062250F821000021406804F011
:102E900087FEBDE80840FDF7D5BD0000AC0000206E
:102EA00090A70108BC000020B2000020B80000205C
:102EB000F0A70108FDF73ABEFDF7B8BE1B4810B5F4
:102EC0000078072828D2DFE800F004090E11141A50
:102ED0001F0009F089FE0121402019E009F084FE5D
:102EE0000121482014E00221A82011E00221C8019C
:102EF0000EE009F079FE01214FF4847008E009F03A
:102F000073FE0121502003E009F06EFE0121E8204C
:102F1000BDE8104007F076BB06490548097800EB8C
:102F20004100002130F8020CF2E70000B10000205F
:102F3000C4220020AD00002009F020BE7047704779
:102F40007047000008B504F0B3FD1548164A174B4A
:102F5000007800EB4001134800EB8100106002791B
:102F60001A70134A00687E231060102000901148E8
:102F7000062250F821000021806804F011FE0E485E
:102F80000078022808D109F02FFE0C480C4990F86F
:102F9000210008700B490870BDE80840FDF752BDDC
:102FA000AC00002088A60108BC000020B200002070
:102FB000B8000020F0A70108A8000020242300206A
:102FC000B1000020B3000020FDF7B0BDFDF72EBE1C
:102FD00070B509F009FE04F06BFD0E480E4D0E4968
:102FE0000478213105F8214F01220E462320FDF7F8
:102FF0002DFB012231462320FDF7F5FA2878A04267
:1030000001D1012000E0002004F0D0F9BDE87040BB
:1030100009F0B4BDB10000202423002009F0AEBDAA
:10302000704770477047000008B504F041FD144830
:10303000154A164B007800EB4001124800EB810066
:10304000106002791A70124A00687E231060102006
:1030500000901048062250F821000021406804F03A
:103060009FFD0D480078022806D109F0BDFD0B49EF
:10307000002008700A490870BDE80840FDF7E2BC6E
:10308000AC00002070A60108BC000020B2000020A7
:10309000B8000020F0A70108A8000020B10000201F
:1030A000B3000020FDF742BDFDF7C0BD184810B5C4
:1030B0000078052823D2DFE800F003080D1319007B
:1030C00009F092FD0121C02015E009F08DFD0121DC
:1030D000C82010E009F088FD01214FF488700AE053
:1030E00009F082FD01214FF48C7004E009F07CFDB1
:1030F00001214FF49070BDE8104007F083BA0649F3
:103100000448097800EB4100002130F8020CF2E796
:10311000B1000020C4220020AD00002009F02EBD27
:10312000704770477047000008B504F0C1FC1548AF
:10313000164A174B007800EB4001134800EB810062
:10314000106002791A70134A00687E231060102004
:1031500000901148062250F821000021806804F0F8
:103160001FFD0E480078022808D109F03DFD0C48EB
:103170000C4990F8960308700B490870BDE80840A8
:10318000FDF760BCAC00002040A60108BC00002098
:10319000B2000020B8000020F0A70108A80000201D
:1031A00024230020B1000020B3000020FDF7BEBCA6
:1031B000FDF73CBD2DE9F04109F016FD04F078FC67
:1031C0000F48104D4FF46676047805F2963185F875
:1031D000964301220F463046FDF738FA0122394660
:1031E0003046FDF700FA95F89603A04201D1012080
:1031F00000E0002004F0DAF8BDE8F04109F0BEBCC0
:10320000B10000202423002009F0B8BC70477047AB
:10321000704700002DE9F043DFF8C081DFF8C0916E
:103220002D2798F800006F4D00266F4C87B00128BD
:103230001DD16E486EA1067004F11200FDF79DF8D5
:103240006EA104F12300FDF798F8EB786EA204213B
:1032500020460EF03FFBE770E9786DA209EBC10054
:103260000521B0F8A833201D0EF034FB667498F8E1
:103270000000032839D1607C032836D203225A4942
:1032800001A8FDF742F88DF8076001A8FDF77EF868
:1032900080B2E882FA2812D95F486049007800EBD2
:1032A000400051F82000006804F06AF8EB7856A25C
:1032B00004214D480EF00EFBE770E878E882E978CB
:1032C00080B2884211D0C3B2EB704FA204214648AD
:1032D0000EF000FBE770EA78201D09EBC2014CA25A
:1032E000B1F8A83305210EF0F5FA04F0E1FB4CA18A
:1032F00001A8FDF742F8002101A8FDF712F803220A
:103300003949FDF702F810258DF80E607E23012261
:10331000002101A8009504F043FC607C424FDFF8D7
:103320000C8103281BD2022004F088FD002004F049
:103330005FFD607C0122011901A8FCF7E6FF8DF812
:103340000560607C397898F8002001EBC0001838DF
:10335000C1B201A804F0CAFB002004F06FFD34A143
:1033600001A8FDF70AF8002101A8FCF7DAFF042202
:10337000211DFCF7CAFF8DF80F60002101A8FCF7A2
:10338000D0FF2DA1FCF7F9FF7E230422002101A824
:10339000009504F005FC607C001F04281BD202206D
:1033A00004F04CFD002004F023FD607C0122011993
:1033B00001A8FCF7AAFF8DF80560607C397898F8C1
:1033C000002001EBC0005038C1B201A804F08EFB10
:1033D000002004F033FD07B0BDE8F083A800002012
:1033E00024230020C6000020EE220020B30000208D
:1033F0003030302D30303030000000003239392D7F
:1034000039393939000000002530336400000000EC
:103410002530346400000000AC000020D0A6010874
:10342000C9E8B1B8BAC53A00A2000020A300002044
:10343000B5C6D6E9CAFD3A00B8F6000010B509F0E5
:10344000FFFBBDE8104003214FF4BC7007F0DAB871
:1034500010B509F00BFCBDE8104003214FF4BC701F
:1034600007F0D0B87CB5032228496846FCF74DFF29
:103470006846FCF78BFF264E24490422F082091D82
:103480006846FCF742FF6846FCF780FF84B2F08A8A
:10349000FA2802D8B4F5006F0AD91E481E490078F0
:1034A00000EB400051F82000006803F069FF27E0BE
:1034B000C0B21A4DF07005EBC00000F56A71A0F8BB
:1034C000A843401B00F2AA3080B20222FDF7BEF8EA
:1034D000F078022205EBC00000F56A71401B00F293
:1034E000AA3080B2FDF77FF8F07805EBC000B0F8A5
:1034F000A803A04201D1012000E0002003F056FF04
:1035000003214FF4BC7007F07DF87CBDEE22002053
:10351000C6000020AC000020D0A601082423002013
:1035200009F02CBB38B504F0C3FA144C154A164BFD
:10353000207800EB4001124800EB81001060027916
:103540001A70124A00687E23106010200090104804
:10355000062250F821000021806804F021FB0D486C
:103560000078022806D109F03FFB0B49207808704B
:103570000A490870BDE83840FDF764BAAC00002085
:10358000D8A70108BC000020B2000020B80000202D
:10359000F0A70108A8000020B1000020B30000201F
:1035A000FDF7C4BAFDF742BB10B509F01DFB04F0EE
:1035B0007FFA0E480E4C007808B1012803D1207024
:1035C0000A2004F077FA20780A4C0222A11C6080BD
:1035D0000420FDF73BF80222A11C0420FDF703F8AC
:1035E00004F066FABDE8104009F0C8BAB100002046
:1035F000AC0000202423002009F0C0BA70477047B7
:10360000704700002DE9F043DFF8C481DFF8C49172
:103610002D2798F80000704D0026704C87B00128C7
:103620001DD16F486FA1067004F11200FCF7A5FED2
:103630006EA104F12300FCF7A0FE2B796DA20421FA
:1036400020460EF047F9E77029796CA209EBC1001A
:10365000022190F8AD33201D0EF03CF9667498F805
:103660000000032839D1607C032836D203225B494D
:1036700001A8FCF74AFE8DF8076001A8FCF786FE5A
:1036800080B22883FA2812D95E485F49007800EB9F
:10369000400051F82000006803F072FE2B7955A21B
:1036A00004214E480EF016F9E7702879288329790D
:1036B00080B2884211D0C3B22B714EA20421474878
:1036C0000EF008F9E7702A79201D09EBC2014BA220
:1036D00091F8AD3302210EF0FDF804F0E9F94BA1A9
:1036E00001A8FCF74AFE002101A8FCF71AFE0322FC
:1036F0003A49FCF70AFE10278DF80E607E2301225E
:10370000002101A8009704F04BFA607CDFF80481E7
:10371000DFF8049103281CD2022004F08FFB002064
:1037200004F066FB607C0122011901A8FCF7EDFDA5
:103730008DF80560617C98F8000099F8002000EB96
:10374000C1001838C1B201A804F0D0F9002004F07B
:1037500075FB0122211D01A8FCF7D7FD8DF805603E
:1037600001A8FCF713FEC5B22CA101A8FCF705FEC9
:10377000002101A8FCF7D5FD2B4E56F82510FCF7CB
:10378000FCFD7E230422002101A8009704F008FA22
:10379000607C042819D1022004F050FB002004F0C2
:1037A00027FB56F8251001A8FCF7E7FD617C98F887
:1037B000000099F8002000EBC1003038C1B201A828
:1037C00004F094F9002004F039FB07B0BDE8F08361
:1037D000A800002024230020C6000020EE220020A4
:1037E000B30000203030302D300000003239392D48
:1037F00033000000253033640000000025303164C0
:1038000000000000AC000020D0A60108C9E8B1B853
:10381000BAC53A00A2000020A3000020D1D5C9AB50
:10382000C4A3CABD3A000000DCCF010810B509F0FE
:1038300007FABDE8104003214FF4F07006F0E2BE35
:1038400010B509F013FABDE8104003214FF4F070F1
:1038500006F0D8BEF8B503222A496846FCF755FDA4
:1038600000248DF803406846FCF790FD264E25495C
:1038700001223083091D6846FCF747FD8DF80140A1
:103880006846FCF783FD84B2308BFA2801D8032CFC
:103890000AD91E481E49007800EB400051F820006C
:1038A000006803F06DFD27E0C0B21A4D307105EBE2
:1038B000C00000F2AD3180F8AD43401B00F2AF30E4
:1038C00080B20122FCF7C2FE3079012205EBC00371
:1038D000581B00F2AF3003F2AD3180B2FCF783FE2B
:1038E000307905EBC00090F8AD03A04201D1012072
:1038F00000E0002003F05AFD03214FF4F07006F0C1
:1039000081FEF8BDEE220020C6000020AC000020A1
:10391000D0A601082423002009F030B97047704771
:103920007047000038B522480078012817D1214897
:10393000002421A104702248FCF71FFD204821A18A
:103940001130FCF71AFD214821A20521B0F8A73B50
:103950001B4812380DF0BEFF19481238447404F0A9
:10396000A7F81D4C1020009020781C4900EB400067
:103970007E2351F820001A490122097850F82100CD
:10398000002104F00DF910237E220421272009F0E4
:10399000A5F92078134900EB400051F820001249A6
:1039A00040680A7811490978BDE8384004F09EB8AB
:1039B000A8000020B30000203030303000000000AC
:1039C0000023002039393939000000002423002069
:1039D0002530346400000000AC000020B0A50108D0
:1039E000B1000020E8A60108A3000020A2000020EA
:1039F00010B509F025F9BDE8104003214FF4CC7053
:103A000006F000BE10B509F031F9BDE81040032101
:103A10004FF4CC7006F0F6BD2DE9F0411248FCF7EA
:103A2000B5FC124D84B205F6A73140F6A936A5F8CB
:103A3000A74B02220F463046FCF708FE0222394609
:103A40003046FCF7D0FDB5F8A70BA04201D101200C
:103A500000E0002003F0AAFCBDE8F04103214FF490
:103A6000CC7006F0CFBD0000EE2200202423002001
:103A700009F084B870477047704700002DE9F04F97
:103A80007E487F4C0025017887B004F1080B01299E
:103A900025D17C487CA1057004F11200FCF76DFC77
:103AA0007CA104F12300FCF768FC7D4E7DA204217B
:103AB00096F8A233204606F2A2360DF00BFF2D2712
:103AC000E770737877A20421201D0DF003FFE771E2
:103AD000B37874A2042158460DF0FCFE657403F01F
:103AE000E7FFDFF8C8A14FF01008CDF800809AF882
:103AF00000006F4900EB4000002251F820006D49A2
:103B00004646574609787E2350F82100114604F0B6
:103B100047F83878DFF8A09100EB400159F8210010
:103B2000016801A8FCF729FC002101A8FCF7F9FBBA
:103B300003225349FCF7E9FB8DF80A507E23022249
:103B4000002101A8009604F02BF8607C5B4E5C4FCE
:103B500003281AD2022004F071F9002004F048F979
:103B6000607C0122011901A8FCF7CFFB8DF80550FC
:103B7000607C31783A7801EBC0001838C1B201A8F6
:103B800003F0B4FF002004F059F99AF8000000EBAC
:103B9000400159F82100416801A8FCF7EEFB002123
:103BA00001A8FCF7BEFB0322211DFCF7AEFB8DF83C
:103BB0000A507E230422002101A8CDF8008003F0E2
:103BC000EFFF607C001F03281AD2022004F036F9B0
:103BD000002004F00DF9607C0122011901A8FCF716
:103BE00094FB8DF80550607C31783A7801EBC00089
:103BF0003838C1B201A803F079FF002004F01EF9A3
:103C00009AF8000000EB400159F82100816801A8F2
:103C1000FCF7B3FB002101A8FCF783FB0322594604
:103C2000FCF773FB8DF80A507E230622002101A8C1
:103C3000CDF8008003F0B4FF607C07281AD9022079
:103C400004F0FCF8002004F0D3F8607C0122011994
:103C500001A8FCF75AFB8DF80550607C31783A7862
:103C600001EBC0005838C1B201A803F03FFF0020AB
:103C700004F0E4F807B0BDE8F08F0000A8000020D1
:103C8000EE220020B30000203030302D3030302DB7
:103C9000303030003939392D3939392D3939390039
:103CA000242300202530336400000000AC000020F5
:103CB000B0A50108B100002098A50108A2000020CD
:103CC000A300002010B508F0BBFF0321BDE81040A1
:103CD000C80106F097BC10B508F0C8FF0321BDE885
:103CE0001040C80106F08EBC2DE9FE4F3CA0032217
:103CF000006800903B496846FCF707FB6846FCF704
:103D000045FB384986B20322091D6846FCF7FDFAD7
:103D10006846FCF73BFB334985B20322083168460D
:103D2000FCF7F3FA6846FCF731FB84B2FF2E03D8A8
:103D3000FF2D01D8FF2C0AD92B482C49007800EB25
:103D4000400051F82000006803F01AFB41E0284FC2
:103D50004FF4697807F2A23187F8A26387F8A3537A
:103D600087F8A443012240460291FCF76FFC07F25A
:103D7000A33140F2A53A012250460191FCF766FCBE
:103D800007F5697140F2A63901228B464846FCF7D7
:103D90005DFC012240460299FCF725FC01225046B9
:103DA0000199FCF720FC012259464846FCF71BFC10
:103DB00097F8A203B04209D197F8A303A84205D10E
:103DC00097F8A403A04201D1012000E0002003F0F5
:103DD000EDFA0321C80106F015FCBDE8FE8F0000D6
:103DE0002A2A2A00EE220020AC000020D0A60108DA
:103DF0002423002008F0C2BE7047704770470000BF
:103E000008B503F055FE1448154A164B007800EB30
:103E10004001124800EB8100106002791A70124ACA
:103E200000687E231060102000901048062250F891
:103E300021000021406803F0B3FE0D4800780228FD
:103E400006D108F0D1FE0B49002008700A4908701D
:103E5000BDE80840FCF7F6BDAC00002068A50108ED
:103E6000BC000020B2000020B8000020F0A701082C
:103E7000A8000020B1000020B3000020FCF756BECF
:103E8000FCF7D4BE164810B5007870B1012812D0E6
:103E9000022816D003281AD013491248097800EBDB
:103EA0004100002130F8020C16E008F09DFE0121CF
:103EB0004FF4D47010E008F097FE01214FF4D87051
:103EC0000AE008F091FE01214FF4DC7004E008F0F4
:103ED0008BFE01214FF4E070BDE8104006F092BB6C
:103EE000B1000020C4220020AD00002008F046BE32
:103EF0007047704770470000F8B51748174C184DC9
:103F00000078012808D117481749007F2070002049
:103F1000087016492879087003F0CAFD144F10265E
:103F200000963878134900EB40007E2351F82000BA
:103F300001220021406A03F033FE00963878217890
:103F400000EB40007E2355F82000042250F82100A9
:103F5000002103F025FEF8BDA8000020B1000020DC
:103F6000A0A6010824230020B3000020B2000020F6
:103F7000AC000020A8A7010810B506F05FFF0321E0
:103F8000BDE81040902006F03DBB10B506F06CFF78
:103F90000321BDE81040902006F034BB70B50F4DF2
:103FA0000F4C02222878A08304F11C010E461E202B
:103FB000FCF74CFB022231461E20FCF714FBA08BC1
:103FC0002978884201D1012000E0002003F0EEF9B9
:103FD000BDE870400321902006F014BBB100002022
:103FE0002423002008F0CABD7047704770470000C6
:103FF00038B520480078012813D11F4800251F4CF0
:1040000005701FA021A2008860821EA002210088E6
:10401000A4F823001C4890F8203020460DF05AFCEC
:10402000657403F045FD1B4C1020009020781A4960
:1040300000EB40007E2351F8200018490122097846
:1040400050F82100002103F0ABFD10237E22042153
:10405000332008F043FE2078114900EB400051F86E
:104060002000104980680A780F490978BDE8384077
:1040700003F03CBDA8000020B3000020EE22002089
:104080003000000039000000242300202530316476
:1040900000000000AC000020A8A70108B10000202B
:1040A000E8A60108A3000020A200002010B508F037
:1040B000C7FD0321BDE81040A02006F0A3BA10B54B
:1040C00008F038FE0321BDE81040A02006F09ABA9F
:1040D00070B51048FCF75AF90F4D0F49C4B22031A2
:1040E00005F8204F01220E462220FCF7AFFA0122EC
:1040F00031462220FCF777FA2878A04201D101202E
:1041000000E0002003F052F9BDE870400321A02038
:1041100006F078BAEE2200202423002008F02EBDFD
:104120007047704770470000F8B51748174C184D96
:104130000078012808D117481749807F2070002097
:10414000087016492879087003F0B2FC144F102645
:1041500000963878134900EB40007E2351F8200088
:1041600001220021806A03F01BFD00963878217837
:1041700000EB40007E2355F82000042250F8210077
:10418000002103F00DFDF8BDA8000020B1000020C3
:10419000B8A6010824230020B3000020B2000020AC
:1041A000AC000020A8A7010810B506F047FE0321C7
:1041B000BDE81040982006F025BA10B506F054FE70
:1041C0000321BDE81040982006F01CBA70B50F4DD1
:1041D0000F4C02222878E08304F11E010E462020B5
:1041E000FCF734FA022231462020FCF7FCF9E08B80
:1041F0002978884201D1012000E0002003F0D6F8A0
:10420000BDE870400321982006F0FCB9B100002001
:104210002423002008F0B2BC7047704770470000AC
:10422000F8B51848184C194D007801280AD11848DB
:1042300018490078C0F3400020700020087016492B
:104240002879087003F034FC144F10260096387853
:10425000134900EB40007E2351F820000122002189
:10426000C06803F09DFC00963878217800EB400090
:104270007E2355F82000042250F82100002103F08D
:104280008FFCF8BDA8000020B100002030A7010875
:1042900024230020B3000020B2000020AC00002046
:1042A00018A7010810B506F0C9FD0321BDE81040AC
:1042B000482006F0A7B910B506F0D6FD0321BDE8E9
:1042C0001040482006F09EB970B5114D114C0222E5
:1042D0002978208861F34100208021461046FCF7B0
:1042E000B5F9022221461046FCF77DF9207829789D
:1042F000C0F34000884201D1012000E0002003F01B
:1043000055F8BDE870400321482006F07BB9000055
:10431000B10000202423002008F030BC7047704713
:1043200070470000F8B51848184C194D007801285E
:1043300009D11848184990F8A90B2070002008707E
:1043400016492879087003F0B3FB154F1026009624
:104350003878144900EB40007E2351F820000122F8
:104360000021806803F01CFC00963878217800EB6F
:1043700040007E2355F82000042250F8210000213F
:1043800003F00EFCF8BD0000A8000020B1000020E2
:1043900030A7010824230020B3000020B200002031
:1043A000AC00002068A5010810B506F047FDBDE887
:1043B000104003214FF4D47006F024B910B506F074
:1043C00053FDBDE8104003214FF4D47006F01AB934
:1043D0002DE9F041164D174C40F6AB36287884F89D
:1043E000A90B04F6A93101220F463046FCF72EF93D
:1043F000012239463046FCF7F6F894F8A90B2978E3
:10440000884201D1012000E0002002F0CFFF94F8A3
:10441000A91B0948012908D001210170BDE8F0411C
:1044200003214FF4D47006F0EDB80021F5E7000049
:10443000B100002024230020C80E002008F09EBBFD
:1044400070477047704700002DE9F04FED4D002494
:10445000ED4F287887B001280ED1EC48ECA104700C
:1044600007F11200FBF789FFEDA107F12300FBF72D
:1044700084FF0DF043F87C742878ED4E03282BD18F
:10448000787C022828D20222DF4901A8FBF73DFFF1
:104490008DF8064001A8FBF779FFE64D80B214289D
:1044A000688312D93078E44900EB400051F82000CD
:1044B000006802F065FF6B79E0A20321D2480DF09D
:1044C00009FA2D20B87068796883697980B28842CA
:1044D00002D068710DF012F803F0EAFA4FF0100BF9
:1044E000CDF800B03078002200EB4001D548B1464D
:1044F0007E2350F82100D449097850F82100114654
:1045000003F04EFB01223D46F91C01A8FBF7FDFE1E
:10451000A04627468DF8054001A8FBF737FFC4B237
:10452000307800EB4001C94850F82100016801A82B
:10453000FBF723FF002101A8FBF7F3FEC4A10988C4
:104540000180002101A8FBF7ECFE0222AE49FBF737
:10455000DCFE8DF80D70002101A8FBF7E2FEBDA185
:1045600009880180002101A8FBF7DBFEBAA1FBF757
:1045700004FF002101A8FBF7D4FE3178DFF8DCA2AC
:1045800001EB41025AF8221051F82410FBF7F5FE16
:10459000002101A8FBF7C5FEAEA17E23098801809A
:1045A0000222002101A8CDF800B003F0F9FA687CDE
:1045B000AB4EAC4F02281AD2022003F03FFC002081
:1045C00003F016FC687C0122411901A8FBF79DFE4F
:1045D0008DF80580687C31783A7801EBC00040386E
:1045E000C1B201A803F082FA002003F027FC687C26
:1045F00003281DD1022003F021FC002003F0F8FB6A
:1046000099F8000000EB40015AF8210050F82410FE
:1046100001A8FBF7B2FE697C30783A7800EBC10064
:104620003038C1B201A803F061FA002003F006FCA3
:104630007F48DFF81892007800EB400159F821001C
:10464000416801A8FBF799FE002101A8FBF769FE6C
:104650007FA109880180002101A8FBF762FE0822E2
:10466000691DFBF752FE44468DF81180002101A818
:10467000FBF757FE77A17E230988018004220021E1
:1046800001A8CDF800B003F08BFA687C401F022827
:104690001AD2022003F0D2FB002003F0A9FB687CB1
:1046A0000122411901A8FBF730FE8DF80540697C15
:1046B00030783A7800EBC1007038C1B201A803F03D
:1046C00015FA002003F0BAFB687C083802281AD2D9
:1046D000022003F0B3FB002003F08AFB687C012278
:1046E000411901A8FBF711FE8DF80540687C31786F
:1046F0003A7801EBC0007038C1B201A803F0F6F9B6
:10470000002003F09BFB687C0B3802281AD20220A1
:1047100003F094FB002003F06BFB687C012241193D
:1047200001A8FBF7F2FD8DF80540687C31783A78F6
:1047300001EBC0007038C1B201A803F0D7F9002026
:1047400003F07CFB304901220E3101A8FBF7DDFDAF
:104750008DF8054001A8FBF719FEDFF8D480C4B23C
:1047600098F8000000EB400159F82100816801A889
:10477000FBF703FE002101A8FBF7D3FD36A1FBF7F1
:10478000FCFD002101A8FBF7CCFD98F8001001EB1F
:1047900041025AF8221051F82410FBF7EEFD0021D7
:1047A00001A8FBF7BEFD2BA17E230988018006220C
:1047B000002101A8CDF800B003F0F2F9687C0D28C3
:1047C0001DD9022003F03AFB002003F011FB98F8FA
:1047D000000000EB40015AF8210050F8241001A815
:1047E000FBF7CBFD687C31783A7801EBC000883864
:1047F000C1B201A803F07AF9002003F01FFB07B053
:10480000BDE8F08FA8000020EE220020B3000020B9
:1048100030312D302D30303A30303A30302D3000BC
:1048200039392D312D39393A39393A39392D310063
:10483000AC000020C6000020D0A60108253032645C
:104840000000000068A50108B100002050A5010883
:104850005B0000005D000000205B000030A7010845
:10486000A2000020A300002010B508F0E9F9BDE87F
:10487000104003214FF4DC7005F0C4BE10B508F001
:10488000F5F9BDE8104003214FF4DC7005F0BABE25
:1048900070B588B002224F496846FBF736FD002408
:1048A0008DF802406846FBF771FD4B4D494E0122E1
:1048B0006883F11C6846FBF728FD8DF801406846C7
:1048C000FBF764FD8DF814000222711D6846FBF7AA
:1048D0001CFD8DF802406846FBF758FD8DF8150069
:1048E000022206F108016846FBF70FFD8DF8024031
:1048F0006846FBF74BFD8DF81600022206F10B010E
:104900006846FBF702FD8DF802406846FBF73EFD66
:104910008DF81700012206F10E016846FBF7F5FC41
:104920008DF801406846FBF731FDC1B28DF81810D3
:10493000688B14280BD89DF81520172A07D89DF8E6
:1049400016203B2A03D89DF817203B2A0AD9234872
:104950002349007800EB400051F82000006802F085
:104960000FFD2EE0C0B268711E4C00EB80002044A9
:10497000059AC0F8A62B80F8AA1B00F6A631001BEA
:1049800000F6A83080B20522FBF760FE68790522A8
:1049900000EB80000319181B00F6A83003F6A631BF
:1049A00080B2FBF720FE6879052200EB8000011938
:1049B00005A801F6A631FBF7D3FC48B1002002F0B0
:1049C000F5FC03214FF4DC7005F01CFE08B070BD4F
:1049D0000120F4E7EE220020C6000020AC000020F9
:1049E000D0A601082423002008F0C8B870477047FB
:1049F0007047000038B522480078012817D12148B7
:104A0000002421A104702248FBF7B7FC204821A113
:104A10001130FBF7B2FC214821A20521B0F8A033E8
:104A20001B4812380CF056FF19481238447403F032
:104A30003FF81D4C1020009020781C4900EB4000EE
:104A40007E2351F820001A490122097850F82100EC
:104A5000002103F0A5F810237E220421272008F06E
:104A60003DF92078134900EB400051F8200012492D
:104A700080680A7811490978BDE8384003F036B8F3
:104A8000A8000020B30000203030303000000000CB
:104A90000023002039393939000000002423002088
:104AA0002530346400000000AC000020B0A50108EF
:104AB000B1000020E8A60108A3000020A200002009
:104AC00010B508F0BDF8BDE8104003214FF4B870F0
:104AD00005F098BD10B508F0C9F8BDE810400321F5
:104AE0004FF4B87005F08EBD2DE9F0411948FBF781
:104AF0004DFC84B2B4F5006F0AD917481749007805
:104B000000EB400051F82000006802F039FC19E089
:104B1000134D40F2A23605F56871A5F8A0430222B4
:104B20000F463046FBF792FD022239463046FBF72E
:104B30005AFDB5F8A003A04201D1012000E00020F9
:104B400002F034FCBDE8F04103214FF4B87005F0E9
:104B500059BD0000EE220020AC000020D0A60108C4
:104B60002423002008F00AB808B502F0A1FF0F487E
:104B7000104A114B007800EB40010D4800EB81001A
:104B8000106002791A700D4A00687E2310601020B0
:104B900000900B48062250F821000021406802F0E6
:104BA000FFFFBDE80840FBF74DBF0000AC00002050
:104BB000C0A70108BC000020B2000020B8000020FF
:104BC000F0A70108FBF7B2BFFCF730B810B508F04A
:104BD0000BF802F06DFF02F06BFFBDE8104007F02C
:104BE000CDBF07F0CBBF704770477047F8B5184886
:104BF000184C194D007801280AD118481849007836
:104C000000F0010020700020087016492879087013
:104C100002F04EFF144F102600963878134900EB2F
:104C200040007E2351F8200001220021806802F01C
:104C3000B7FF00963878217800EB40007E2355F8C6
:104C40002000042250F82100002102F0A9FFF8BD45
:104C5000A8000020B100002030A701082423002074
:104C6000B3000020B2000020AC00002018A701080B
:104C700010B506F0E3F80321BDE81040402005F030
:104C8000C1BC10B506F0F0F80321BDE8104040208B
:104C900005F0B8BC70B5114D114C0222297820885E
:104CA00061F30000208021461046FBF7CFFC022272
:104CB00021461046FBF797FC2078297800F0010088
:104CC000884201D1012000E0002002F06FFBBDE826
:104CD00070400321402005F095BC0000B100002089
:104CE0002423002007F04ABF704770477047000038
:104CF0002DE9F04FDFF83893D04CDFF8388399F87E
:104D000000102D27CC4D002687B004F10A0B012995
:104D100033D1CB48CBA1067004F11200FBF72DFB79
:104D2000CCA104F12300FBF728FB6B78CDA2042172
:104D300020460CF0CFFDE7706978CCA208EBC100EB
:104D4000032190F8AA33201D0CF0C4FDA7716978E7
:104D5000C6A208EBC100032190F8AB33E01D0CF0B4
:104D6000B9FD67726978C1A208EBC100032190F810
:104D7000AC3358460CF0AEFD667499F80000DFF8CD
:104D8000F49203284FD1607C03284CD20322AB4914
:104D900001A8FBF7BAFA8DF8076001A8FBF7F6FA4D
:104DA00080B26882FA2812D999F80000B24900EB63
:104DB000400051F82000006802F0E2FA6B78A9A2E6
:104DC00004219E480CF086FDE77068786882697857
:104DD00080B2884227D0C3B26B70A2A20421974848
:104DE0000CF078FDE7706978A0A208EBC100032100
:104DF00090F8AA33201D0CF06DFDA77169789BA275
:104E000008EBC100032190F8AB33E01D0CF062FD0C
:104E10006772697895A208EBC100032190F8AC3362
:104E200058460CF057FD02F043FE94A101A8FBF791
:104E3000A4FA002101A8FBF774FA03227F49FBF7CB
:104E400064FA4FF0100800228DF80E607E231146A0
:104E500001A8CDF8008002F0A3FE607C894D8A4F46
:104E600003281AD2022002F0E9FF002002F0C0FF5E
:104E7000607C0122011901A8FBF747FA8DF8056053
:104E8000607C29783A7801EBC0001838C1B201A8DB
:104E900002F02CFE002002F0D1FF99F80000DFF8AC
:104EA000ECA100EB40015AF82100016801A8FBF7D2
:104EB00064FA002101A8FBF734FA0222211DFBF756
:104EC00024FA8DF80B60002101A8FBF72AFA70A1E3
:104ED000FBF753FA7E230222002101A8CDF80080BF
:104EE00002F05EFE607C001F02281AD2022002F04F
:104EF000A5FF002002F07CFF607C0122011901A8BF
:104F0000FBF703FA8DF80560607C29783A7801EBAD
:104F1000C0004838C1B201A802F0E8FD002002F04C
:104F20008DFF99F8000000EB40015AF8210041681C
:104F300001A8FBF722FA002101A8FBF7F2F90222EF
:104F4000E11DFBF7E2F98DF80B60002101A8FBF7EA
:104F5000E8F94FA1FBF711FA7E230422002101A8F2
:104F6000CDF8008002F01CFE607CC01F02281AD21F
:104F7000022002F063FF002002F03AFF607C012271
:104F8000011901A8FBF7C1F98DF80560607C29784B
:104F90003A7801EBC0006038C1B201A802F0A6FD6A
:104FA000002002F04BFF99F8000000EB40015AF896
:104FB0002100816801A8FBF7E0F9002101A8FBF7B7
:104FC000B0F902225946FBF7A0F98DF80B600021D9
:104FD00001A8FBF7A6F92EA1FBF7CFF97E23062245
:104FE000002101A8CDF8008002F0DAFD607C0A38CB
:104FF00002281AD2022002F021FF002002F0F8FE5F
:10500000607C0122011901A8FBF77FF98DF805608A
:10501000607C29783A7801EBC0007838C1B201A8E9
:1050200002F064FD002002F009FF07B0BDE8F08F38
:10503000A800002024230020C6000020EE2200202B
:10504000B30000203030302D30302D30302D303056
:10505000000000003239392D33392D33392D3339E1
:105060000000000025303364000000002530326469
:1050700000000000AC000020D0A60108C9E8B1B8CB
:10508000BAC53A00A2000020A300002080A50108B4
:105090006670730010B507F0D3FDBDE81040032122
:1050A0004FF4B07005F0AEBA10B507F0DFFDBDE803
:1050B000104003214FF4B07005F0A4BA2DE9F84375
:1050C00059A003220068009058496846FBF71DF973
:1050D00000248DF803406846FBF758F9544D534EB1
:1050E00002226882311D6846FBF70FF98DF80240F5
:1050F0006846FBF74BF900F0FF080222F11D6846F5
:10510000FBF703F98DF802406846FBF73FF9C7B299
:10511000022206F10A016846FBF7F7F88DF8024013
:105120006846FBF733F9C6B2688AFA2806D8B8F1A0
:105130001E0F03D81E2F01D81E2E0AD93D483E4906
:10514000007800EB400051F82000006802F018F9E8
:1051500063E0C0B2394C687004EBC00000F2AA31C1
:1051600080F8AA8380F8AB7380F8AC63001B00F56D
:105170006B7080B20122FBF769FA6878012204EBB8
:10518000C003181B00F2AD3003F2AB3180B2FBF765
:105190005DFA6878012204EBC003181B00F2AE3000
:1051A00003F56B7180B2FBF751FA6878012204EBCA
:1051B000C003181B00F56B7003F2AA3180B2FBF735
:1051C00012FA6878012204EBC00000F2AB31001B38
:1051D00000F2AD3080B2FBF706FA6878012204EBEA
:1051E000C003181B00F2AE3003F56B7180B2FBF701
:1051F000FAF9687804EBC00090F8AA23424509D177
:1052000090F8AB13B94205D190F8AC03B04201D18C
:10521000012000E0002002F0C9F803214FF4B07033
:1052200005F0F0F9BDE8F8832A2A2A00EE220020D2
:10523000C6000020AC000020D0A6010824230020D6
:1052400007F09CBC08B502F033FC0F48104A114B24
:10525000007800EB40010D4800EB810010600279FE
:105260001A700D4A00687E231060102000900B48D1
:10527000062250F821000021406802F091FCBDE8B0
:105280000840FBF7DFBB0000AC000020A8A7010826
:10529000BC000020B2000020B8000020F0A70108E8
:1052A000FBF744BCFBF7C2BC394810B500781328A3
:1052B00065D2DFE800F00A0F14191E23282D3237BB
:1052C0003C4144474C5157645B0007F08DFC012181
:1052D000302050E007F088FC012138204BE007F037
:1052E00083FC0121582046E007F07EFC012160206C
:1052F00041E007F079FC012168203CE007F074FCF4
:105300000121702037E007F06FFC0121782032E0A6
:1053100007F06AFC012180202DE007F065FC0121E7
:10532000882028E007F060FC0121982023E007F0A6
:105330005BFC0121A0201EE00221B0201BE0012126
:10534000B82018E007F050FC0121F02013E007F02E
:105350004BFC0121F8200EE007F046FC01214FF440
:10536000A47008E001214FF4A87004E007F03CFCB1
:1053700001214FF4E870BDE8104005F043B906493B
:105380000448097800EB4100002130F8020CF2E7F4
:10539000B1000020C4220020AD00002007F0EEBBC9
:1053A000704770477047000038B51C4800780128E6
:1053B00017D11B4800241BA104701B48FAF7DDFF1E
:1053C00019481AA11130FAF7D8FF194819A2042177
:1053D00090F82330144812380CF07CFA1248123836
:1053E000447402F065FB10200090144814497E2399
:1053F0000078012200EB400051F8200011490978A3
:1054000050F82100002102F0CBFB01B01023BDE8D1
:1054100030407E220421332007F060BCA800002029
:10542000B30000203030300000230020393939002B
:10543000242300202530336400000000AC0000204D
:1054400070A60108B100002010B507F0F9FB032198
:10545000BDE81040C02005F0D5B810B507F006FC37
:105460000321BDE81040C02005F0CCB870B5174846
:10547000FAF78CFF84B2FF2C0AD915481549007839
:1054800000EB400051F82000006801F079FF16E0C1
:10549000114D11490122233105F8234F0E462520D5
:1054A000FBF7D4F8012231462520FBF79CF8287839
:1054B000A04201D1012000E0002001F077FFBDE80B
:1054C00070400321C02005F09DB80000EE220020AE
:1054D000AC000020D0A601082423002007F04EBB1A
:1054E00070477047704700002DE9FE43314E334C42
:1054F00020273178DFF8C080002504F10809012950
:1055000020D12F482FA1057004F11200FAF735FFC2
:105510002FA104F12300FAF730FF302020706070D3
:105520003120A070E7702D20207160713E20A071A5
:10553000E77198F8243029A2022148460CF0CAF9F4
:10554000657265743078032821D1607C08281ED0EC
:1055500003221A4901A8FAF7D8FE8DF80750174818
:10556000FAF714FF86B2FA2E07D9FA2633461DA29F
:10557000022112480CF0AEF9E77008EB060017A202
:1055800090F82430022148460CF0A4F9657202F02C
:105590008FFA102000907E230122002113A002F038
:1055A000FFFA10237E220421132007F097FBBDE8A9
:1055B000FE830000A800002024230020EE2200200B
:1055C000B3000020303030202D2D3E203000000070
:1055D000393939202D2D3E20390000002530316425
:1055E000000000002530336400000000C5C5BAC5C6
:1055F0002020C9E8B1B8CAFD0000000010B507F0CE
:105600001FFB0321BDE81040C82004F0FBBF10B50C
:1056100007F02CFB0321BDE81040C82004F0F2BFC6
:105620002DE9FC41032222496846FAF76EFE002567
:105630008DF803506846FAF7A9FE1D49C4B201224D
:1056400008316846FAF761FE8DF801506846FAF7AE
:105650009DFEC5B2FA2C0AD916481749007800EB0E
:10566000400051F82000006801F08AFE1AE013485B
:1056700001220444271A04F12401263784F8245017
:105680000E46B8B2FAF7E2FF3146B8B20122FAF795
:10569000AAFF94F82400A84201D1012000E00020D4
:1056A00001F084FE0321C82004F0ACFFBDE8FC81BA
:1056B000EE220020AC000020D0A601082423002008
:1056C00007F05CBA704770477047000008B502F0F9
:1056D000EFF91548164A174B007800EB40011348C4
:1056E00000EB8100106002791A70134A00687E2373
:1056F0001060102000901148062250F8210000216F
:10570000806802F04DFA0E480078022808D107F0B0
:105710006BFA0C480C4990F8220008700B4908708D
:10572000BDE80840FBF78EB9AC00002010A60108C8
:10573000BC000020B2000020B8000020F0A7010843
:10574000A800002024230020B1000020B300002086
:10575000FBF7ECB9FBF76ABA70B507F045FA02F04F
:10576000A7F90E480E4D0E490478223105F8224F54
:1057700001220E462420FAF769FF01223146242037
:10578000FAF731FF2878A04201D1012000E0002083
:1057900001F00CFEBDE8704007F0F0B9B100002048
:1057A0002423002007F0EAB97047704770470000D3
:1057B00008B502F07DF91548164A174B007800EB42
:1057C0004001134800EB8100106002791A70134AFF
:1057D00000687E231060102000901148062250F8C7
:1057E00021000021406802F0DBF90E480078022811
:1057F00008D107F0F9F90C480C4990F8220008701C
:105800000B490870BDE80840FBF71CB9AC0000204C
:1058100028A60108BC000020B2000020B80000202B
:10582000F0A70108A800002024230020B1000020D8
:10583000B3000020FBF77AB9FBF7F8B90E4810B5B2
:10584000007850B101280ED00D490C48097800EBC2
:105850004100002130F8020C0AE007F0C5F90121EF
:105860004FF49C7004E007F0BFF901214FF4A070E1
:10587000BDE8104004F0C6BEB1000020C4220020E4
:10588000AD00002007F07AB97047704770470000FC
:1058900038B51C480078012817D11B4800241BA1EB
:1058A00004701B48FAF769FD19481AA11130FAF77C
:1058B00064FD194819A2042190F8243314481238C1
:1058C0000CF008F812481238447402F0F1F8102075
:1058D0000090144814497E230078012200EB400018
:1058E00051F820001149097850F82100002102F0F8
:1058F00057F901B01023BDE830407E220421332047
:1059000007F0ECB9A8000020B300002030303000D0
:105910000023002039393900242300202530336446
:1059200000000000AC00002070A60108B1000020BB
:1059300010B507F085F9BDE8104003214FF48870D9
:1059400004F060BE10B507F091F9BDE810400321E6
:105950004FF4887004F056BE2DE9F0411848FAF76C
:1059600015FD84B27D2C0AD916481749007800EB42
:10597000400051F82000006801F002FD19E0134DCD
:1059800040F2263605F5497185F8244301220F4679
:105990003046FAF75BFE012239463046FAF723FE1D
:1059A00095F82403A04201D1012000E0002001F07D
:1059B000FDFCBDE8F04103214FF4887004F022BEE5
:1059C000EE220020AC000020D0A6010824230020F5
:1059D00007F0D4B8704770477047000038B51A48D0
:1059E0000078012813D11948002419A1047019481E
:1059F000FAF7C3FC174818A11130FAF7BEFC154896
:105A000013A11238FAF7B9FC12481238447402F0A4
:105A10004FF810200090114811497E230078012290
:105A200000EB400051F820000E49097850F82100A1
:105A3000002102F0B5F801B01023BDE830407E220D
:105A40000421332007F04AB9A8000020B300002049
:105A5000303030000023002039393900AC000020FC
:105A6000A8A70108B100002010B507F0E9F803214C
:105A7000BDE81040302004F0C5BD10B507F0F6F8C1
:105A80000321BDE81040302004F0BCBD2DE9FC41ED
:105A90002248FAF77BFC84B2FA2C0AD92048214923
:105AA000007800EB400051F82000006801F068FC2D
:105AB0002BE01D4D4FF4804701AB0022394628688A
:105AC00005F0FAFC194E0120E2B23070FD217F2072
:105AD00009F066F90024347001A800904FF47A733D
