:020000040800F2
:10000000E82D012099010008D5B1000809A30008D6
:10001000B7AD00083D0D0008B11501080000000053
:1000200000000000000000000000000033E00008B5
:100030008514000800000000FF01000869E20008C4
:10004000B3010008B3010008B3010008B3010008C0
:10005000B3010008B3010008B3010008B3010008B0
:10006000B3010008B3010008B3010008B3010008A0
:10007000B3010008B3010008B3010008B301000890
:10008000B3010008B3010008B3010008B301000880
:10009000410D0008B3010008B3010008B3010008D6
:1000A000B3010008B3010008B3010008B301000860
:1000B000B5E30008B30100085DE40008B3010008DF
:1000C000B3010008B3010008B3010008B301000840
:1000D000B3010008B1F3000801F40008B3010008FF
:1000E000B3010008B3010008B3010008B301000820
:1000F000B3010008B3010008B3010008B301000810
:10010000B3010008B3010008B3010008B3010008FF
:1001100099EE0008B3010008B301000849E50008A2
:10012000B3010008B3010008B3010008B3010008DF
:10013000B30100080000000000000000B301000847
:100140009D0D0008B3010008B3010008B3C7000803
:10015000B3010008B3010008B3010008B3010008AF
:10016000B3010008B3010008B3010008B30100089F
:10017000B3010008B5C7000800000000000000003F
:10018000B3010008DFF80CD000F088F90048004700
:10019000454E0108E82D01200648804706480047E3
:1001A000FEE7FEE7FEE7FEE7FEE7FEE7FEE7FEE727
:1001B000FEE7FEE729E3000885010008EFF3108061
:1001C00072B6704780F3108870471D484FF0FF01EA
:1001D0000170002080F309881A48012101701A4833
:1001E0004FF08051016062B6FEE717484FF0805132
:1001F0000160704714484FF080510160704772B63B
:10020000EFF3098028B1203880E8F00F0F49096822
:10021000086000B50E4880475DF804EB0D480E49B4
:100220000A78027009480D490A680260106890E86F
:10023000F00F203080F309884EF0040E62B670474C
:1002400022ED00E0FF00002004ED00E01801002096
:10025000E5BD0008FC000020FD000020200100207A
:100260002DE9F05F0546002092469B4688460646EB
:10027000814640241BE0284641464746224600F07E
:10028000C4F853465A46C01A914110D31146184635
:10029000224600F0ABF82D1A67EB01084F462246C4
:1002A0000120002100F0A2F817EB00094E41201EAA
:1002B000A4F10104DFDC484631462A464346BDE846
:1002C000F09F40EA01039B0703D009E008C9121F11
:1002D00008C0042AFAD203E011F8013B00F8013B00
:1002E000521EF9D27047D2B201E000F8012B491E2C
:1002F000FBD270470022F6E710B513460A460446C3
:100300001946FFF7F0FF204610BD10B5044604E083
:100310000B7800F8013B03B1491C521EF8D220466D
:1003200010BDCAB2401E10F8011F8A4202D0002937
:10033000F9D100207047421C10F8011B0029FBD1A5
:10034000801A704710B5002200E0521C835C8C5C60
:10035000A34201D1002BF8D1D8B2E1B2401A10BDAE
:1003600030B504460020034600E05B1C934203D2F4
:10037000E05CCD5C401BF8D030BD034611F8012B8A
:1003800000F8012B002AF9D11846704770B50646CF
:1003900011F062FA046805460A220021304600F096
:1003A00044F82C6070BD70B5064611F055FA04682B
:1003B00005460A220021304600F037F82C6070BD57
:1003C00030B50B46014600202022012409E021FA25
:1003D00002F59D4205D303FA02F5491B04FA02F522
:1003E0002844151EA2F10102F1DC30BD202A04DBF5
:1003F000203A00FA02F1002070479140C2F1200338
:1004000020FA03F3194390407047202A04DB203A76
:1004100021FA02F00021704721FA02F3D040C2F124
:10042000200291400843194670472DE9F047914654
:100430000F4680460446002614F8015B2DB100F0FB
:100440003FF80068405DC007F6D12B2D02D02D2D5E
:1004500018D0641E4A463946204600F035F827B1C8
:100460003968A14201D1C7F8008071054FF002043C
:100470000BD54042002803DD11F0EEF90460A0071F
:10048000BDE8F08746F48066E4E70028F8DA11F06A
:10049000E3F904606FF00040F2E70000064C074DFE
:1004A00006E0E06840F0010394E807009847103444
:1004B000AC42F6D3FFF76AFE90EF0108B0EF0108F7
:1004C000004870476CE101082DE9F05F8246007832
:1004D000002715468B460AF10104B946302801D0A1
:1004E0009DB113E014F8010B0127782803D0582898
:1004F00001D045B10AE00DB1102D07D1002710251C
:1005000014F8010B02E0082500E00A250026B04699
:100510000EE005FB080005FB06F1012701EB104684
:100520001FFA80F8B6F5803F00D3B94614F8010BE6
:10053000294600F018F80028EBDABBF1000F05D0CF
:100540000FB1641E00E05446CBF80040B9F1000F33
:1005500006D011F081F902210160C81EBDE8F09FAC
:1005600048EA0640FAE73A2800D2303820F0200264
:10057000412A01D3A2F13700884201D34FF0FF3066
:10058000704770B58C1810F8015B15F0070301D1A6
:1005900010F8013B2A1106D110F8012B03E010F8E6
:1005A000016B01F8016B5B1EF9D12B0705D4002309
:1005B000521E0DD401F8013BFAE710F8013BCB1AAB
:1005C000921C03E013F8015B01F8015B521EF9D5A0
:1005D000A142D8D3002070BD10B509F0B9FEBDE826
:1005E000104007F0AAB970B515460E46044608E05B
:1005F0002046641CA4B200F007F86D1E06F8010B3B
:10060000ADB2002DF4D170BD10B5044609F046FF1F
:10061000A02009F013FF09F085FF200A09F00EFF62
:1006200009F080FFE0B209F009FF09F07BFF09F053
:1006300035FFA12009F002FF09F074FF002009F046
:10064000CDFE044609F04CFF204610BD70B514469F
:100650000D46064606E02978304600F007F8761C7D
:10066000B6B26D1C641EA4B2F5D270BD70B50D4655
:10067000044609F013FFA02009F0E0FE09F052FF44
:10068000200A09F0DBFE09F04DFFE0B209F0D6FECA
:1006900009F048FF284609F0D1FE09F043FF09F0B0
:1006A0001FFFBDE870400A2012F0EAB9704770479A
:1006B000014808F090BA00005819002070477047B0
:1006C000704700007CB52148214C4FF48075C1680B
:1006D0004FF47A7048430A22B0FBF2F00190206890
:1006E00099B1A1F5C3329F3A09D069460AF0FDFEDF
:1006F000184B1949C6074FF000020BD108E06B46B2
:10070000002229460AF096FE7CBD6B460122F8E7DE
:10071000C00304D50A601A706B46002213E0086813
:10072000019EB04203D200F1010008607CBDFDD102
:1007300000F1010008604FF0010018709A7014F089
:1007400035FB6B46012229462068DBE72423002085
:100750007001002060000020800000203EB5254987
:100760000A20254C4A8BB2FBF0F2019289684FF4C3
:100770007A724A43B2FBF0F00290E06981B1A1F5D0
:10078000C3329F3A06D069460AF0AFFE1B49C20742
:100790000BD108E06B46002204210AF04BFE3EBD5F
:1007A0006B460122F8E7C20304D500206B460246DF
:1007B00008601CE04007F2D40868401C0860019AF9
:1007C0004FF48051904202D16B46012210E0029A10
:1007D0009042E4D96B460022E0690AF02BFE69469C
:1007E000E0690AF082FE4002D9D46B46012204215E
:1007F000E069D2E724230020540100207C0000207F
:1008000010B508F0F7F90DF03DFD00F053FEFFF7CD
:10081000E3FE0AF0AFF90DF0ABFD0CF079FE0AF043
:10082000B9F90AF0F3F90AF0CBF916F0A7FA09F0D2
:10083000D1FE0EF059FD10F047FF0EF0DFFA00F088
:1008400049FBBDE810400CF0BDBE00002DE9FF4F94
:100850002D20B0FBF1F081B0491E01989B4600EBC2
:10086000800202EB401090FBF1F00004000CC6B2D5
:1008700000D1032603980025012100F1010900F1B0
:10088000020801EBD604B5EBD60F11D0AC420FD065
:100890002A460020039907F003F809F0FF012A46D1
:1008A000FF2006F0FDFF08F0FF012A46002033E09C
:1008B000F008DFF84CA106F0070700901AF80700CF
:1008C000009A039906F0ECFF1AF8070009F0FF01FF
:1008D000C0F1FF00009A06F0E3FF08F0FF011AF8EC
:1008E0000700009A06F0DCFF062C17D20AF1090A6D
:1008F00022461AF80700039906F0D2FF1AF80700FB
:10090000224609F0FF01C0F1FF0006F0C9FF2246B0
:1009100008F0FF011AF8070006F0C2FF6D1CEDB2E7
:10092000062DB0D3012007F043FA01980025401CA2
:10093000C6B26420B6FBF0F4ABF10C00C1B23CB11E
:1009400004F13000C0B2072207F0A0F8012503E04F
:100950000722202007F09AF82720444306EB840062
:10096000C4B20A26B4FBF6F2ABF1060002B925B117
:10097000C1B23032D0B2072202E0C1B20722202039
:1009800007F084F8B4FBF6F006FB10403030C0B23C
:100990000722594607F07AF81A4F3878012828D9E3
:1009A000002422E01849001B0844624210F8010CA0
:1009B0000BEBC205401CC0B2B0FBF6F106FB110008
:1009C000A5F108013030C9B2C0B2072207F05EF8C5
:1009D000681EC1B20722102006F062FFE9B20722AA
:1009E000102006F05DFF641CE4B23878411E8C4292
:1009F000D8DB05B00020BDE8F04F07F0D9B9000002
:100A0000139D0108AE000020DA220020F8B5002472
:100A100015460E460746012B04D07823009407F0B4
:100A20009FF8F8BD012007F0E9F978232A463146FE
:100A30003846009407F094F8BDE8F840002007F02D
:100A4000DDB900002DE9F047DFF8C8A0DFF8C88065
:100A50009AF80000032803D9032288F8002001E057
:100A600088F800002D4900242D4F09782D4E0129CA
:100A700002D0022905D010E00CF074F83C703470FC
:100A80000FE098F800103278491E8A4200DD347079
:100A90003A78411E8A4200DD3C70397832789142C2
:100AA00002D33878317800E0511A401AC4B20025D8
:100AB000DFF8749020E03878844208D13178490614
:100AC0000A0ED9F80010012351F8200006E068064C
:100AD000020ED9F80000002350F824000021FFF78F
:100AE00095FF9AF80000401E844201D1002401E0E5
:100AF000641CE4B26D1CEDB298F800008542DAD3B4
:100B00009AF800103878BDE8F04778237D22FFF787
:100B10009DBE0000B2000020B4000020A80000200C
:100B2000B1000020B3000020B80000202DE9F047FC
:100B3000DFF8E480374E98F800403178601EC2B28A
:100B400071B1481E3070354F354D3B7828684BB138
:100B50005A06120E5B1E3B7050F82100002337E04E
:100B60003270F0E7032C2ED934784FF0000A524649
:100B7000A94650F8240001235146FFF747FF98F893
:100B80000000401E844201D1002401E0641CE4B254
:100B900001256806020ED9F800000023194650F816
:100BA0002400FFF733FF98F80000401E844201D173
:100BB000002401E0641CE4B26D1CEDB2032DE8D307
:100BC00087F800A012E03A7050F8210000231A467E
:100BD0000021FFF71BFF387831784006020E2868A5
:100BE000012350F821000021FFF710FF78237D2218
:100BF00098F800103078FFF729FE0B49094809786A
:100C000000EB4100002130F8020CBDE8F04709F08C
:100C1000D9BC0000B1000020B2000020B3000020C9
:100C2000B8000020C4220020AD0000202DE9F047CC
:100C3000DFF8F0803A4E002498F800203178501EFA
:100C4000814201D1347001E0481C30703748364F82
:100C5000374D90F800C03B78ACF1010C2868634533
:100C600004D05A06120E5B1C3B7034E06FF0010397
:100C7000032A2CD9347899460422AA4650F8240035
:100C800001230021FFF7C2FEBCB1641EE4B20225BD
:100C900009EB4500C2B2DAF800000023194650F80B
:100CA0002400FFF7B3FE6CB1641EE4B26D1E15F0B4
:100CB000FF05EDD1022038701EE098F80000401EBC
:100CC000C4B2E4E798F80000401EC4B2EEE703EBBC
:100CD00042023C70D2B250F8210000231946FFF7BF
:100CE00095FE387831784006020E2868012350F8C6
:100CF00021000021FFF78AFE78237D2298F800105A
:100D00003078FFF7A3FD0C490A48097800EB410051
:100D1000002130F8020CBDE8F04709F053BC000098
:100D2000B1000020B2000020B3000020B400002079
:100D3000B8000020C4220020AD000020FEE7000023
:100D400070B5134D00240A222146284607F06CFA9C
:100D5000696BA5F10C000A8802800A7B8270097C0D
:100D6000C17006E06A6B04F11401515C0219641C45
:100D70001171C178A142F5D8074C064920680DF0E1
:100D80004FFA2068BDE8704001490C3911F024BBCE
:100D9000BCCB0020006400408C01002070B5134DD6
:100DA00000240A222146284607F03EFA696BA5F185
:100DB00050000A8802800A7B8270097CC17006E0BC
:100DC0006A6B04F11401515C0219641C1171C17841
:100DD000A142F5D8074C064920680DF021FA206899
:100DE000BDE870400149503911F0F6BA00CC00203E
:100DF000006800408C0100200D49C0F8AC100D497E
:100E000040F8801F0C4941600C4981600C49C16069
:100E10000C49C0F84C110C49C0F850110B49C0F8EE
:100E2000B8110B49C0F854110A49C0F8581170475D
:100E300045AC000847AC0008B3AD000831AD000870
:100E4000B5AD0008B1AD0008ADAD0008AFAD00080C
:100E500081AD000889AD000870B5094DFF231A4621
:100E600005F5807605E010F8014B54402A5D5A40A4
:100E7000335D491E89B2F6D242EA032070BD0000FC
:100E8000EADE010810B5012901D0022902D10C3196
:100E9000C9B2401E4B1C03EB43030524B3FBF4F320
:100EA00002EB41011944C217014400EB927201EBBD
:100EB000A201642290FBF2F2891A4FF4C87290FBEF
:100EC000F2F00844072190FBF1F201FB1200401CF4
:100ED000C0B210BD70B513F027FE1A4C184D206833
:100EE000C0F8E051FFF788FF0021206816F038F9BC
:100EF0007F21206816F08CF80521206816F030F963
:100F00001021284611F0A6FA10210F4811F0A2FA7C
:100F100000204FF48031401C8842FCD30020401C4C
:100F20008842FCD30020401C8842FCD30020401C97
:100F30008842FCD30020401C8842FCD370BD0000D6
:100F4000006400408C010020006800402DE9F0475B
:100F5000012713F0ADFE20F0C0004FF000093F283C
:100F600002D0314AA2F80090304C314D314E0B384E
:100F700007283ED2DFE800F00B211A04282F3600A4
:100F8000208800EB800005EB8000408805E0208889
:100F900000EB800005EB80008088208000EB800063
:100FA00005EB800000693060804723E0208800EB7B
:100FB000800005EB8000C088EFE7208800EB800010
:100FC00005EB80000089E8E7208800EB800005EB56
:100FD00080008089E1E7208800EB800005EB80003D
:100FE0004089DAE7208800EB800005EB8000C089AB
:100FF000D3E70027DFF8408098F8000068B1208828
:1010000000EB800005EB800000693060804798F8B5
:101010000010042904D088F800903846BDE8F08715
:10102000012188F80010F8E7C4000020AA00002081
:1010300028A70108C0000020A80000202DE9F04FDB
:101040008FB0044606F014FD8EA104A8FFF795F9B1
:10105000102580230122002104A8009506F080FDC0
:1010600023468BA2042104A810F0CEFB8AA10DF127
:101070001300FFF782F980230422002104A80095C1
:1010800006F06EFD00226423114610460AF0E0FED1
:10109000834E844F2CB196F89703A04201D3824926
:1010A0000BE096F89703A0420AD296F898130144F1
:1010B000A14205D3201A7D49C4B238680DF0B0F8BA
:1010C00004F5C0600E9080380B908DF830400122FE
:1010D000FB2120460DF0FEFD042000250DF128081F
:1010E0000A90CDE900854FF4945902950EAB012288
:1010F0004946BB46386810F0BFFECDE90085029531
:101100000BAB02224946386810F0B6FE01200A9067
:10111000CDE9008502950CAB03224946386810F0F2
:10112000ABFEB14606EBC4060221B6F8A80309904F
:1011300006200DF12408CDE90010CDE90285002339
:1011400046F206022146386816F06CFA002872D181
:10115000204600F0EDF800286ED099F89E03AA46CC
:10116000012509900DF1040C052000958CE801057E
:101170004F462B4646F206022146D946DBF80000D0
:1011800016F050FA00287BD1204600F0D1F8002854
:1011900073D097F89F035746AB464FF0050ACDE949
:1011A0000287CDE900BA0990022346F206022146E1
:1011B0004D46D9F8000016F035FAE0BB204600F0A5
:1011C000B7F8002859D0D6F8AA03B94620F07F40D6
:1011D0000722042109908DE80603032346F2060244
:1011E00021462F46286816F01DFA20BB204600F045
:1011F0009FF8002841D04D46B6F8A603D946CDE960
:101200000285CDE9009A46F2060B099004235A465E
:101210002146386816F006FA68B9204600F088F8CA
:1012200000282AD096F8AD03CDE9028505235A4659
:101230002146099001E023E01FE0CDE9009A3868DB
:1012400016F0F0F9E0B9204600F072F8002814D04A
:101250000222FB2120460DF03DFD0DA80090144810
:101260004FF47A7382224FF0007100680AF028F878
:101270009DF834000A2803D001200FB0BDE8F08F9C
:101280000020FAE7D5FDD4DAC5E4D6C3000000009B
:101290002530336400000000BAC5C9E8B1B80000C9
:1012A000242300208C0100200064004000680040DE
:1012B0007001002010B586B004460BF053FC06F018
:1012C000D7FB234613A2042101A810F09DFA13A115
:1012D0000DF10700FFF751F81024802301220021AF
:1012E00001A8009406F03CFC0EA101A8FFF745F808
:1012F00080230422002101A8009406F031FC002381
:101300000122194618460AF0A3FD0BF0F5FB06B0C2
:1013100010BD00002530336400000000BAC5C9E8E4
:10132000B1B80000C5E4D6C3B3C9B9A62100000016
:10133000F8B500F07F060A4D0EE000220A231146A0
:1013400010460AF085FD6A463146286813F00EF90A
:10135000012804D0641EA4B2002CEED10020F8BDF8
:101360008C01002030B40A46D0F89C10D0F8A04080
:101370004FF0FF3351F8221024F81230C1F3074127
:101380000122431883F8B020D0F8AC2030BC1047BD
:101390002DE9F04F9946DDE9094C4FF0FF3BDDF8B0
:1013A0002CA048E0ACEB02035BB20D78002B02DD11
:1013B00005FA03F503E0C3F1000325FA03F5EEB2E5
:1013C00002DDCCF1080301E0C2F10803DBB2834285
:1013D00000D903460CEB03074FF0FF0808FA07F5A6
:1013E000CCF1080C28FA0CF845EA080594F800C07E
:1013F000AE430CEA050C1A444CEA060CD2B284F84F
:1014000000C0072A07D90022B9F1000F01D05D46BC
:1014100000E00125294407F0FF0CBCF1070F08D9B3
:101420004FF0000CBAF1000F01D05D4600E001253D
:101430002C44C01AC0B20028B4D1BDE8F08F10B55A
:1014400000210A4600EB8103491CC3F87C230F29C5
:10145000F8D300214FF400734418491C84F81C2170
:101460009942F9D30270427001218170C0F8B8230B
:10147000017640238371427680F81C2380F81D1387
:10148000002010BD70470000411C0DD0084AB2F981
:101490000010884201D1491E1180054A002100EB4D
:1014A0004000083202F830104FF0FF307047000063
:1014B0009001002038B5264900200A6842F0010258
:1014C0000A600968234C01F0010100914FF080414E
:1014D000E060C4E90010204D482129702061A0601F
:1014E000204608F079FA2068016841F004010160A3
:1014F0002068016A41F21112114207D1016A92106B
:10150000114203D1016821F001010160062007F0BA
:10151000E5FB022200211C2007F0C0FB1C2007F085
:10152000AFFB0E480E490068B0FBF1F14FF47A7042
:101530004143012068804FF0E020026942F002023E
:1015400002614161016941F00101016138BD0000A2
:1015500040380240842200209C000020200000200F
:1015600040420F0030B5212800D92138012202EB7A
:1015700010431C4A127803FB02F41B4A1568AC6244
:10158000B0FBF3F41568EC62B0FBF3F0D0601068C8
:101590006FF0010505611368002058621068036848
:1015A00043F00103036041F211139C1011B10129B2
:1015B00011D004E010680169C907FCD0056110680A
:1015C000016A194206D1016A214203D1016821F062
:1015D0000101016030BD1068C16841F00101C160C6
:1015E00030BD00009C0000208422002010B50022A5
:1015F000114607A006F05AFA0222002107A006F0C1
:1016000055FA0422BDE81040002107A006F04EBAAA
:101610004275696C642054696D653A004A756C20A6
:10162000313420323031390032333A34333A3338BE
:10163000000000000BF060BA2DE9F843234D244967
:10164000DFF890802878244F00EB400001EB800207
:10165000137988F8003051F82000386006F008FA55
:101660001E481F4C0078012805D10BF07BFA1D495C
:10167000002020700870102600962178386800221B
:101680007E2350F82100114606F06AFA16482178A8
:10169000022250F82100302106F02CFB0096287819
:1016A000124900EB40007E2351F820000622002161
:1016B000406806F055FA98F80010207801B07823B9
:1016C000BDE8F0437D22FFF7C1B80000AC00002068
:1016D0007CA60108B2000020B8000020A80000206D
:1016E000B1000020B30000200CA70108F4A60108F7
:1016F00038B5164C164D207800B928780022401EC7
:10170000207010200090134821787E23006850F844
:101710002100114606F024FA0F482178022250F8E1
:101720002100302106F0E6FA78237D2229782078FE
:10173000FFF78CF80A490948097800EB41000021BD
:1017400030F8020CBDE8384008F03CBFB100002082
:10175000B2000020B80000200CA70108C42200201D
:10176000AD00002038B5194D174C29782078491E56
:10177000884201D1002000E0401C20701020009021
:1017800013482178002200687E2350F8210011467A
:1017900006F0E6F90F482178022250F821003021A6
:1017A00006F0A8FA78237D2229782078FFF74EF8F2
:1017B0000A490948097800EB4100002130F8020C81
:1017C000BDE8384008F0FEBEB1000020B2000020A5
:1017D000B80000200CA70108C4220020AD000020A2
:1017E000154810B501781648144A0629007802EB0E
:1017F00040001DD2DFE801F003080D10151506F0BA
:1018000037F9012110200FE006F032F901211820EC
:101810000AE00121D02007E006F02AF90221202069
:1018200002E030F8020C0021BDE8104008F0CABE0A
:1018300000210846F8E70000B1000020C422002083
:10184000AD0000200BF058B970477047704700009A
:1018500008B506F00DF910200090074807497E23CF
:101860000078032200EB400051F8200000210068BE
:1018700006F076F908BD0000AC00002064A601085F
:10188000704770470BF038B90BF036B970477047A6
:101890007047000008B506F0EBF81448154A164BDF
:1018A000007800EB4001124800EB810010600279E3
:1018B0001A70124A00687E231060102000901048B1
:1018C000062250F821000021406806F049F90D4831
:1018D0000078022806D10BF045F90B49002008706A
:1018E0000A490870BDE80840FFF7ACB8AC0000201A
:1018F000FCA40108BC000020B2000020B8000020B9
:10190000F4A60108A8000020B1000020B3000020C8
:10191000FFF70CB9FFF78AB90B48007850B10128DE
:101920000CD00B490948097800EB4100002130F840
:10193000020C06E002214FF4947002E002214FF401
:10194000987008F03FBE0000B1000020C4220020C3
:10195000AD0000200BF0D0B8704770477047000012
:1019600038B51C480078012817D11B4800241BA15A
:1019700004701B48FEF701FD19481AA11130FEF74B
:10198000FCFC194819A2042190F897331448123826
:101990000FF03AFF12481238447406F069F810202C
:1019A0000090144814497E230078012200EB400087
:1019B00051F820001149097850F82100002106F063
:1019C000CFF801B01023BDE830407E22042133203F
:1019D0000BF042B9A8000020B300002030303000E6
:1019E00000230020393939002423002025303364B6
:1019F00000000000AC000020ACA60108B1000020EF
:101A000010B50BF0DBF80321BDE81040F02008F022
:101A1000D9BD10B50BF0E8F80321BDE81040F02067
:101A200008F0D0BD2DE9F0411848FEF7AFFC84B2B4
:101A30007D2C0AD916481749007800EB400051F870
:101A40002000006805F07CFC19E0134D40F2993647
:101A500005F2973185F8974301220F463046FEF78D
:101A6000F5FD012239463046FEF7BDFD95F8970396
:101A7000A04201D1012000E0002005F077FCBDE884
:101A8000F0410321F02008F09DBD0000EE2200206F
:101A9000AC000020D4A50108242300200BF02CB8B2
:101AA000704770477047000038B51C48007801281F
:101AB00017D11B4800241BA104701B48FEF75DFCD6
:101AC00019481AA11130FEF758FC194819A204212F
:101AD00090F89833144812380FF096FE12481238D6
:101AE000447405F0C5FF10200090144814497E236B
:101AF0000078012200EB400051F8200011490978DC
:101B000050F82100002106F02BF801B01023BDE8A9
:101B100030407E22042133200BF09EB8A800002024
:101B2000B300002030303000002300203939390064
:101B3000242300202530336400000000AC00002086
:101B4000ACA60108B100002010B50BF037F8032156
:101B5000BDE81040F82008F035BD10B50BF044F892
:101B60000321BDE81040F82008F02CBD2DE9F0411C
:101B70001848FEF70BFC84B27D2C0AD91648174989
:101B8000007800EB400051F82000006805F0D8FB19
:101B900019E0134D40F29A3605F5667185F89843C1
:101BA00001220F463046FEF751FD012239463046EC
:101BB000FEF719FD95F89803A04201D1012000E03D
:101BC000002005F0D3FBBDE8F0410321F82008F028
:101BD000F9BC0000EE220020AC000020D4A50108D2
:101BE000242300200AF088BF704770477047000028
:101BF0002DE9FE43404F0024404E3878404D4FF0D1
:101C00002008012825D13F483FA1047005F11200AA
:101C1000FEF7B3FB3FA105F12300FEF7AEFBAC7668
:101C2000472085F82B000120308230202870687012
:101C30003120A87085F803802D21297169713E211A
:101C40003748A97185F8078090F8250228726C72D0
:101C50006C74387803282BD1687C082828D003229C
:101C6000274901A8FEF751FB8DF807402448FEF7ED
:101C70008DFB84B2FA2C12D92A482B49007800EB4C
:101C8000400051F82000006805F05AFB348A27A272
:101C9000234604211A480FF0B7FD85F80380308AE7
:101CA000A04205D01E483482204490F824022872B5
:101CB00005F0DEFE102000907E23012200211DA0F1
:101CC00005F04EFF10237E2204211B200AF0C4FFE2
:101CD000687C082802D1022006F090F8287A194979
:101CE000042251F820005B2105F0E0FE002006F000
:101CF00085F8BDE8FE830000A8000020C600002093
:101D0000EE220020B3000020303030202D2D3E2068
:101D100030000000323939202D2D3E20780000009F
:101D200024230020AC000020D4A501082530336412
:101D300000000000C9E8B1B8BAC52020C6B4D2F48A
:101D400000000000C0CD010810B50AF037FFBDE863
:101D5000104003214FF4A07008F034BC10B50AF015
:101D600043FFBDE8104003214FF4A07008F02ABCE7
:101D70002DE9FC4103221F496846FEF7C6FA002000
:101D80008DF803001B48FEF701FB80B2FA280AD940
:101D900019481A49007800EB400051F8200000680B
:101DA00005F0CEFA1EE0164A124D1418A71A297A29
:101DB00084F8241204F5097107F226270E46B8B2FA
:101DC0000122FEF743FC3146B8B20122FEF70BFCBC
:101DD000287A94F82412884201D1012000E00020E2
:101DE00005F0C4FA03214FF4A07008F0EBFBBDE846
:101DF000FC810000EE220020AC000020D4A50108E8
:101E0000242300200AF078BE704770477047000016
:101E100008B505F02DFE1548164A174B007800EB63
:101E20004001134800EB8100106002791A70134AD8
:101E300000687E231060102000901148062250F8A0
:101E400021000021806805F08BFE0E4800780228F2
:101E500008D10AF087FE0C480C4990F89F030870DF
:101E60000B490870BDE80840FEF7ECBDAC0000204F
:101E7000E4A40108BC000020B2000020B80000204B
:101E8000F4A60108A800002024230020B1000020AF
:101E9000B3000020FEF74ABEFEF7C8BE2DE9F041B0
:101EA0000AF060FE05F0E4FD0F48104D40F2A13647
:101EB000047805F29F3185F89F4301220F46304692
:101EC000FEF7C4FB012239463046FEF78CFB95F83D
:101ED0009F03A04201D1012000E0002005F046FA56
:101EE000BDE8F0410AF008BEB10000202423002024
:101EF0000AF002BE70477047704700000D4808B5F1
:101F00000078012804D10C49002008700B490870A2
:101F100005F0AEFD1020009009480A497E230078A4
:101F2000032200EB400051F820000021006905F079
:101F300017FE08BDA8000020B1000020B30000205B
:101F4000AC000020F4A601087047704710B505F0FA
:101F5000B9FF012005F00AFA0AF0CEFD0221BDE822
:101F60001040102008F02EBB0AF0C6BD7047704725
:101F70007047000008B505F07BFD0F48104A114B73
:101F8000007800EB40010D4800EB81001060027901
:101F90001A700D4A00687E231060102000900B48D4
:101FA000062250F821000021406805F0D9FDBDE867
:101FB0000840FEF747BD0000AC0000205CA501080A
:101FC000BC000020B2000020B8000020F4A60108E8
:101FD000FEF7ACBDFEF72ABE0D4810B5007850B133
:101FE00001280DD00C490B48097800EB4100002175
:101FF00030F8020C08E00AF0B5FD0121D82003E01A
:102000000AF0B0FD0121E020BDE8104008F0DABA86
:10201000B1000020C4220020AD0000200AF06CBDF9
:10202000704770477047000008B505F021FD15485E
:10203000164A174B007800EB4001134800EB810073
:10204000106002791A70134A00687E231060102015
:1020500000901148062250F821000021806805F008
:102060007FFD0E480078022808D10AF07BFD0C485D
:102070000C4990F89E0308700B490870BDE80840B1
:10208000FEF7E0BCAC000020CCA40108BC0000209E
:10209000B2000020B8000020F4A60108A80000202B
:1020A00024230020B1000020B3000020FEF73EBD35
:1020B000FEF7BCBD2DE9F0410AF054FD05F0D8FC57
:1020C0000F48104D4FF46876047805F29E3185F87C
:1020D0009E4301220F463046FEF7B8FA01223946E8
:1020E0003046FEF780FA95F89E03A04201D1012008
:1020F00000E0002005F03AF9BDE8F0410AF0FCBC30
:10210000B1000020242300200AF0F6BC704770477D
:10211000704701214FF4E87008F054BA70477047D7
:102120007047000070B53048304E314C007886B0B2
:10213000012806D12F490020307008702E492079DF
:10214000087005F095FC2D482DA20421038901A8F3
:102150000FF05AFB2CA10DF10700FEF70EF9102528
:1021600080230122002101A8009505F0F9FC28A197
:1021700001A8FEF702F980230322002101A800959F
:1021800005F0EEFC3078254DF0B1002005F036FE6C
:102190002878062200EB4000102154F82000006847
:1021A00005F084FC012005F029FE2878062200EBCA
:1021B0004000502154F82000406805F077FC0020D2
:1021C00005F01CFE06B070BD012005F017FE287852
:1021D000062200EB4000102154F82000006805F0B2
:1021E00065FC0020DFE70000A8000020B10000200F
:1021F0004CA60108B3000020B2000020C600002059
:102200002530336400000000BAC5C9E8B1B8000049
:10221000C5E4D6C3CAA7B0DC21000000AC00002092
:1022200010B508F0C9FDBDE8104003214FF4EC7073
:1022300008F0C8B910B508F0D5FDBDE8104003217D
:102240004FF4EC7008F0BEB90848007840B1084A75
:1022500010899189884202D2401C108100E01181CE
:10226000012140F2D11008F0ADB90000B10000200A
:10227000C6000020F8B521480078012820D1204868
:10228000002620A106702148FEF777F81F4820A1FC
:102290001130FEF772F8204D1C4820A26B890421F2
:1022A00012380FF0B1FA194C2D20123C1BA2E0702D
:1022B000AB890421201D0FF0A7FA66740120287055
:1022C00005F0D6FB10200090164817497E230078B1
:1022D000012200EB400051F820001449097850F821
:1022E0002100002105F03CFC01B01023BDE8F040C6
:1022F0007E22042123200AF0AFBC0000A8000020A9
:10230000B30000203030302D30303000002300206A
:102310003939392D39393900C60000202530336468
:1023200000000000AC000020ACA60108B1000020B5
:1023300010B50AF043FCBDE8104003214FF4E870EB
:1023400008F040B910B50AF04FFCBDE81040032179
:102350004FF4E87008F036B910B586B00322214971
:102360006846FDF7D2FF6846FEF710F81E4C1D497F
:1023700003226081091D6846FDF7C7FF6846FEF726
:1023800005F880B2A0816189FF2901D8FF280AD908
:1023900016481749007800EB400051F8200000680B
:1023A00004F0CEFF13E0207801280CD121810AE04F
:1023B000C0B2FEF743FE207068B1207AFEF77AFFC4
:1023C0002089401C20812089A1898842F0D90321DD
:1023D0004FF4E87002E004214FF4EC7008F0F2F8DA
:1023E00006B010BDEE220020C6000020AC00002088
:1023F000D4A501080AF080BB704770477047000001
:102400000D4808B50078012804D10C490020087057
:102410000B49087005F02CFB1020009009480A4970
:102420007E230078032200EB400051F820000021B9
:10243000006905F095FB08BDA8000020B100002050
:10244000B3000020AC000020F4A6010870477047DC
:1024500010B50BF0BBF9012004F088FF0AF04CFB2B
:102460000221BDE81040182008F0ACB80AF044BBC7
:10247000704770477047000038B51A480078012847
:1024800013D11948002419A104701948FDF775FFEC
:10249000174818A11130FDF770FF154813A1123825
:1024A000FDF76BFF12481238447405F0E1FA102072
:1024B0000090114811497E230078012200EB400072
:1024C00051F820000E49097850F82100002105F04C
:1024D00047FB01B01023BDE830407E2204213320A9
:1024E0000AF0BABBA8000020B30000203030300052
:1024F0000023002039393900AC000020B4A40108C1
:10250000B100002010B50AF059FBBDE810400321CE
:102510004FF4C47008F056B810B50AF065FBBDE87A
:10252000104003214FF4C47008F04CB838B51E4871
:10253000FDF72CFF84B2FA2C0AD91C481C490078FC
:1025400000EB400051F82000006804F0F9FE25E09F
:1025500018486B4600224FF48041006808F06AFF7B
:10256000E0B20CF043FC144D286809F0DFF88DF858
:1025700000006A464FF47A71286809F0E5F89DF882
:1025800000100A2905D00178A14204D04078FD2826
:1025900001D0002000E0012004F0E8FE03214FF408
:1025A000C47008F00FF838BDEE220020AC00002007
:1025B000D4A50108700100206C0100200AF09CBA2B
:1025C0007047704770470000F8B528480078012828
:1025D0002ED12748002627A106702948FDF7CDFEF9
:1025E000274828A11130FDF7C8FE254C3220123CA7
:1025F00000222070302060702549264806F0A2FE97
:10260000234D25A20321EB78A01C0FF0FDF82F2706
:1026100027716B7820A20321601D0FF0F5F8E77198
:10262000AB781DA2032104F108000FF0EDF86674E9
:1026300005F01EFA1020009019481A497E230078F0
:10264000012200EB400051F820001749097850F8AA
:102650002100002105F084FA01B01023BDE8F0400C
:102660007E22042117200AF0F7BA0000A8000020FB
:10267000B3000020323030302F30312F30300000A6
:1026800000230020323039392F31392F33390000FF
:10269000C30E002098DD00202530326400000000C9
:1026A000AC0000205CA50108B100002010B50AF0C4
:1026B00085FA0321BDE81040E02007F083BF10B584
:1026C0000AF092FA0321BDE81040E02007F07ABF3B
:1026D00038B51BA01B4D006800900222A91C68465B
:1026E000FDF713FE6846FDF751FE174C0222691DE7
:1026F000E0706846FDF709FE6846FDF747FE60702A
:10270000022205F108016846FDF7FFFD6846FDF766
:102710003DFEC2B2A270E078617800F5FA60FEF783
:10272000B1FB207000222146084806F0AFFE0120D0
:1027300004F01CFE0321E02007F044FF38BD000038
:102740002A2A0000EE220020C30E002098DD00207F
:102750000AF0D2B970477047704700002DE9FE4378
:10276000404F0024404E3878404D4FF0200801285B
:1027700025D13F483FA1047005F11200FDF7FDFD92
:102780003FA105F12300FDF7F8FDAC76192085F88F
:102790002B000120F0813020287068703120A87053
:1027A00085F803802D21297169713E213748A9716F
:1027B00085F8078090F8250128726C726C7438785F
:1027C00003282BD1687C082828D00322274901A898
:1027D000FDF79BFD8DF807402448FDF7D7FD84B237
:1027E000FA2C12D92A482B49007800EB400051F806
:1027F0002000006804F0A4FDF48927A223460421E8
:102800001A480FF001F885F80380F089A04205D03E
:102810001E48F481204490F82401287205F028F91C
:10282000102000907E23012200211DA005F098F9C0
:1028300010237E2204211B200AF00EFA687C08284F
:1028400002D1022005F0DAFA287A1949042251F857
:1028500020005B2105F02AF9002005F0CFFABDE841
:10286000FE830000A8000020C6000020EE22002009
:10287000B3000020303030202D2D3E2030000000ED
:10288000393939202D2D3E207800000024230020E6
:10289000AC000020D4A501082530336400000000FE
:1028A000C9E8B1B8BAC52020D7D6B7FB00000000F0
:1028B00058CD010810B50AF081F9BDE81040032198
:1028C0004FF49C7007F07EBE10B50AF08DF9BDE89C
:1028D000104003214FF49C7007F074BE2DE9FC41B9
:1028E00003221F496846FDF710FD00208DF8030004
:1028F0001B48FDF74BFD80B2FA280AD919481A493E
:10290000007800EB400051F82000006804F018FD4A
:102910001EE0164A124D1418A71A297A84F82411B9
:1029200004F5927107F593770E46B8B20122FDF7D0
:102930008DFE3146B8B20122FDF755FE287A94F893
:102940002411884201D1012000E0002004F00EFD96
:1029500003214FF49C7007F035FEBDE8FC810000B8
:10296000EE220020AC000020D4A501082423002082
:102970000AF0C2B870477047704700000D4808B5AC
:102980000078012804D10C49002008700B49087018
:1029900005F06EF81020009009480A497E2300785F
:1029A000032200EB400051F820000021006905F0EF
:1029B000D7F808BDA8000020B1000020B300002017
:1029C000AC000020F4A601087047704710B50AF06B
:1029D000FDFE012004F0CAFC0AF08EF80221BDE8D9
:1029E0001040102007F0EEBD0AF086B8704770471F
:1029F000704700002DE9F043DFF8B481DFF8B491AF
:102A00002D2798F800006C4D00266C4C87B00128EB
:102A10001DD16B486BA1067004F11200FDF7ADFCEF
:102A20006AA104F12300FDF7A8FCAB7869A2042198
:102A300020460EF0E9FEE770A97866A209EBC10016
:102A40000421B0F8A633201D0EF0DEFE667498F85F
:102A50000000032839D1607C032836D2032257496D
:102A600001A8FDF752FC8DF8076001A8FDF78EFC68
:102A700080B2A882FA2812D958485949007800EB48
:102A8000400051F82000006804F05AFCAB7851A2D5
:102A900004214A480EF0B8FEE770A878A882A97809
:102AA00080B2884211D0C3B2AB704AA2042143481D
:102AB0000EF0AAFEE770AA78201D09EBC20145A21C
:102AC000B1F8A63304210EF09FFE04F0D1FF45A11A
:102AD00001A8FDF752FC002101A8FDF722FC03220A
:102AE0003649FDF712FC10258DF80E607E23012279
:102AF000002101A8009505F033F8607C3B4FDFF81A
:102B0000F08003281BD2022005F078F9002005F0A0
:102B10004FF9607C0122011901A8FDF7F6FB8DF841
:102B20000560607C397898F8002001EBC000183807
:102B3000C1B201A804F0BAFF002005F05FF92DA191
:102B400001A8FDF71AFC002101A8FDF7EAFB03220A
:102B5000211DFDF7DAFB8DF80C607E230422002195
:102B600001A8009504F0FCFF607C001F03281BD225
:102B7000022005F043F9002005F01AF9607C0122DB
:102B8000011901A8FDF7C1FB8DF80560607C39785B
:102B900098F8002001EBC0003838C1B201A804F059
:102BA00085FF002005F02AF907B0BDE8F08300009A
:102BB000A800002024230020C6000020EE220020D0
:102BC000B30000203030312D303030003939392D0C
:102BD000393939002530336400000000AC00002092
:102BE000D4A50108C9E8B1B8BAC53A00A2000020CE
:102BF000A3000020BBA8D1F93A00000010B509F0ED
:102C0000DDFFBDE8104003214FF4B47007F0DABCDB
:102C100010B509F0E9FFBDE8104003214FF4B4708E
:102C200007F0D0BCF8B5032228496846FDF76DFBD4
:102C30006846FDF7ABFB264E24490322B082091DEE
:102C40006846FDF762FB6846FDF7A0FB84B2B08AD8
:102C5000FA2802D8B4F57A7F0AD31E481E490078B4
:102C600000EB400051F82000006804F069FB27E009
:102C7000C0B21A4DB07005EBC00000F2A631A0F84A
:102C8000A643401B00F56A7080B20222FDF7DEFC0D
:102C9000B078022205EBC00000F2A631401B00F51F
:102CA0006A7080B2FDF79FFCB07805EBC000B0F809
:102CB000A603A04201D1012000E0002004F056FB51
:102CC00003214FF4B47007F07DFCF8BDEE22002024
:102CD000C6000020AC000020D4A501082423002059
:102CE00009F00ABF704770477047000008B504F04C
:102CF000BFFE1448154A164B007800EB40011248FD
:102D000000EB8100106002791A70124A00687E237D
:102D10001060102000901048062250F82100002179
:102D2000406804F01DFF0D480078022806D109F024
:102D300019FF0B49002008700A490870BDE80840D7
:102D4000FDF780BEAC000020B4A40108BC00002048
:102D5000B2000020B8000020F4A60108A80000205E
:102D6000B1000020B3000020FDF7E0BEFDF75EBF1C
:102D70002A4810B500780B2846D2DFE800F0060C90
:102D800010141A20262C32383C0009F0EBFE0121E9
:102D90004FF4C47034E002214FF4C87030E00221D7
:102DA0004FF4AC702CE009F0DDFE01214FF4B0705F
:102DB00026E009F0D7FE01214FF4B47020E009F0BD
:102DC000D1FE01214FF4B8701AE009F0CBFE0121C9
:102DD0004FF4BC7014E009F0C5FE01214FF4C0703F
:102DE0000EE009F0BFFE01214FF4CC7008E0012194
:102DF0004FF4D07004E009F0B5FE01214FF4F070FB
:102E0000BDE8104007F0DEBB06490548097800EB35
:102E10004100002130F8020CF2E70000B100002070
:102E2000C4220020AD00002009F066BE08B504F001
:102E30001FFE0F48104A114B007800EB40010D486F
:102E400000EB8100106002791A700D4A00687E2341
:102E50001060102000900B48062250F8210000213D
:102E6000406804F07DFEBDE80840FDF7EBBD0000C2
:102E7000AC00002094A60108BC000020B200002095
:102E8000B8000020F4A60108FDF750BEFDF7CEBE45
:102E90001B4810B50078072828D2DFE800F00409A5
:102EA0000E11141A1F0009F05DFE0121402019E0E7
:102EB00009F058FE0121482014E00221A82011E069
:102EC0000221C8010EE009F04DFE01214FF484708B
:102ED00008E009F047FE0121502003E009F042FE1E
:102EE0000121E820BDE8104007F06CBB0649054809
:102EF000097800EB4100002130F8020CF2E70000F5
:102F0000B1000020C4220020AD00002009F0F4BD73
:102F1000704770477047000008B504F0A9FD1548D8
:102F2000164A174B007800EB4001134800EB810074
:102F3000106002791A70134A00687E231060102016
:102F400000901148062250F821000021806804F00A
:102F500007FE0E480078022808D109F003FE0C484D
:102F60000C4990F8210008700B490870BDE8084032
:102F7000FDF768BDAC0000208CA50108BC00002056
:102F8000B2000020B8000020F4A60108A80000202C
:102F900024230020B1000020B3000020FDF7C6BDAF
:102FA000FDF744BE70B509F0DDFD04F061FD0E488B
:102FB0000E4D0E490478213105F8214F01220E46AD
:102FC0002320FDF743FB012231462320FDF70BFBB5
:102FD0002878A04201D1012000E0002004F0C6F9C9
:102FE000BDE8704009F088BDB10000202423002016
:102FF00009F082BD704770477047000008B504F0C3
:1030000037FD1448154A164B007800EB4001124872
:1030100000EB8100106002791A70124A00687E236A
:103020001060102000901048062250F82100002166
:10303000406804F095FD0D480078022806D109F09B
:1030400091FD0B49002008700A490870BDE808404E
:10305000FDF7F8BCAC00002074A50108BC000020FE
:10306000B2000020B8000020F4A60108A80000204B
:10307000B1000020B3000020FDF758BDFDF7D6BD1C
:10308000184810B50078052823D2DFE800F00308BF
:103090000D13190009F066FD0121C02015E009F0AB
:1030A00061FD0121C82010E009F05CFD01214FF411
:1030B00088700AE009F056FD01214FF48C7004E09D
:1030C00009F050FD01214FF49070BDE8104007F069
:1030D00079BA06490448097800EB4100002130F82C
:1030E000020CF2E7B1000020C4220020AD00002055
:1030F00009F002BD704770477047000008B504F042
:10310000B7FC1548164A174B007800EB40011348EE
:1031100000EB8100106002791A70134A00687E2368
:103120001060102000901148062250F82100002164
:10313000806804F015FD0E480078022808D109F0D7
:1031400011FD0C480C4990F8960308700B49087063
:10315000BDE80840FDF776BCAC00002044A501089E
:10316000BC000020B2000020B8000020F4A6010836
:10317000A800002024230020B1000020B30000207C
:10318000FDF7D4BCFDF752BD2DE9F04109F0EAFC92
:1031900004F06EFC0F48104D4FF46676047805F28B
:1031A000963185F8964301220F463046FDF74EFAD8
:1031B000012239463046FDF716FA95F89603A042EB
:1031C00001D1012000E0002004F0D0F8BDE8F0417A
:1031D00009F092BCB10000202423002009F08CBC2F
:1031E00070477047704700002DE9F043DFF8C08159
:1031F000DFF8C0912D2798F800006F4D00266F4C26
:1032000087B001281DD16E486EA1067004F112002E
:10321000FDF7B3F86EA104F12300FDF7AEF8EB78EB
:103220006EA2042120460EF0EFFAE770E9786DA255
:1032300009EBC1000521B0F8A833201D0EF0E4FA17
:10324000667498F80000032839D1607C032836D2D0
:1032500003225A4901A8FDF758F88DF8076001A824
:10326000FDF794F880B2E882FA2812D95F486049E5
:10327000007800EB400051F82000006804F060F88E
:10328000EB7856A204214D480EF0BEFAE770E878BC
:10329000E882E97880B2884211D0C3B2EB704FA2C5
:1032A000042146480EF0B0FAE770EA78201D09EBD9
:1032B000C2014CA2B1F8A83305210EF0A5FA04F022
:1032C000D7FB4CA101A8FDF758F8002101A8FDF794
:1032D00028F803223949FDF718F810258DF80E60FB
:1032E0007E230122002101A8009504F039FC607CB6
:1032F000424FDFF80C8103281BD2022004F07EFD30
:10330000002004F055FD607C0122011901A8FCF7A2
:10331000FCFF8DF80560607C397898F8002001EB9F
:10332000C0001838C1B201A804F0C0FB002004F0AE
:1033300065FD34A101A8FDF720F8002101A8FCF7E4
:10334000F0FF0422211DFCF7E0FF8DF80F60002143
:1033500001A8FCF7E6FF2DA1FDF70FF87E2304225C
:10336000002101A8009504F0FBFB607C001F0428ED
:103370001BD2022004F042FD002004F019FD607C05
:103380000122011901A8FCF7C0FF8DF80560607CDF
:10339000397898F8002001EBC0005038C1B201A87C
:1033A00004F084FB002004F029FD07B0BDE8F083A1
:1033B000A800002024230020C6000020EE220020C8
:1033C000B30000203030312D3030303000000000AC
:1033D0003939392D39393939000000002530336445
:1033E000000000002530346400000000AC00002024
:1033F000D4A50108C9E8B1B8BAC53A00A2000020B6
:10340000A3000020B5C6D6E9CAFD3A00B8F6000010
:1034100010B509F0D3FBBDE8104003214FF4BC7098
:1034200007F0D0B810B509F0DFFBBDE8104003216C
:103430004FF4BC7007F0C6B87CB503222849684633
:10344000FCF763FF6846FCF7A1FF264E24490422DF
:10345000F082091D6846FCF758FF6846FCF796FFA6
:1034600084B2F08AFA2802D8B4F5006F0AD91E484F
:103470001E49007800EB400051F82000006803F07E
:103480005FFF27E0C0B21A4DF07005EBC00000F5F9
:103490006A71A0F8A843401B00F2AA3080B2022251
:1034A000FDF7D4F8F078022205EBC00000F56A7150
:1034B000401B00F2AA3080B2FDF795F8F07805EBDA
:1034C000C000B0F8A803A04201D1012000E0002014
:1034D00003F04CFF03214FF4BC7007F073F87CBD80
:1034E000EE220020C6000020AC000020D4A5010878
:1034F0002423002009F000BB38B504F0B9FA144CBD
:10350000154A164B207800EB4001124800EB810071
:10351000106002791A70124A00687E231060102031
:1035200000901048062250F821000021806804F025
:1035300017FB0D480078022806D109F013FB0B4950
:10354000207808700A490870BDE83840FDF77ABA5B
:10355000AC000020DCA60108BC000020B200002066
:10356000B8000020F4A60108A8000020B100002047
:10357000B3000020FDF7DABAFDF758BB10B509F02B
:10358000F1FA04F075FA0E480E4C007808B10128E3
:1035900003D120700A2004F06DFA20780A4C022230
:1035A000A11C60800420FDF751F80222A11C042018
:1035B000FDF719F804F05CFABDE8104009F09CBA78
:1035C000B1000020AC0000202423002009F094BAB0
:1035D00070477047704700002DE9F043DFF8C48161
:1035E000DFF8C4912D2798F80000704D0026704C2C
:1035F00087B001281DD16F486FA1067004F1120039
:10360000FCF7BBFE6EA104F12300FCF7B6FE2B799C
:103610006DA2042120460EF0F7F8E77029796CA21C
:1036200009EBC100022190F8AD33201D0EF0ECF83B
:10363000667498F80000032839D1607C032836D2DC
:1036400003225B4901A8FCF760FE8DF8076001A822
:10365000FCF79CFE80B22883FA2812D95E485F49A5
:10366000007800EB400051F82000006803F068FE8D
:103670002B7955A204214E480EF0C6F8E770287940
:103680002883297980B2884211D0C3B22B714EA20F
:10369000042147480EF0B8F8E7702A79201D09EB9D
:1036A000C2014BA291F8AD3302210EF0ADF804F047
:1036B000DFF94BA101A8FCF760FE002101A8FCF78F
:1036C00030FE03223A49FCF720FE10278DF80E60E9
:1036D0007E230122002101A8009704F041FA607CBA
:1036E000DFF80481DFF8049103281CD2022004F0E3
:1036F00085FB002004F05CFB607C0122011901A81D
:10370000FCF703FE8DF80560617C98F8000099F8DD
:10371000002000EBC1001838C1B201A804F0C6F9BE
:10372000002004F06BFB0122211D01A8FCF7EDFD38
:103730008DF8056001A8FCF729FEC5B22CA101A8EF
:10374000FCF71BFE002101A8FCF7EBFD2B4E56F801
:103750002510FCF712FE7E230422002101A8009709
:1037600004F0FEF9607C042819D1022004F046FB25
:10377000002004F01DFB56F8251001A8FCF7FDFD04
:10378000617C98F8000099F8002000EBC100303807
:10379000C1B201A804F08AF9002004F02FFB07B0A1
:1037A000BDE8F083A800002024230020C6000020EC
:1037B000EE220020B30000203030312D3000000018
:1037C0003939392D33000000253033640000000002
:1037D0002530316400000000AC000020D4A50108B1
:1037E000C9E8B1B8BAC53A00A2000020A300002081
:1037F000D1D5C9ABC4A3CABD3A000000E0CE0108D0
:1038000010B509F0DBF9BDE8104003214FF4F0706A
:1038100006F0D8BE10B509F0E7F9BDE81040032165
:103820004FF4F07006F0CEBEF8B503222A49684680
:10383000FCF76BFD00248DF803406846FCF7A6FDFD
:10384000264E254901223083091D6846FCF75DFD9F
:103850008DF801406846FCF799FD84B2308BFA2858
:1038600001D8032C0AD91E481E49007800EB4000FD
:1038700051F82000006803F063FD27E0C0B21A4D44
:10388000307105EBC00000F2AD3180F8AD43401B54
:1038900000F2AF3080B20122FCF7D8FE307901226D
:1038A00005EBC003581B00F2AF3003F2AD3180B21C
:1038B000FCF799FE307905EBC00090F8AD03A0420B
:1038C00001D1012000E0002003F050FD03214FF45E
:1038D000F07006F077FEF8BDEE220020C600002052
:1038E000AC000020D4A501082423002009F004B96D
:1038F000704770477047000038B5224800780128AB
:1039000017D12148002421A104702248FCF735FD7D
:10391000204821A11130FCF730FD214821A20521CA
:10392000B0F8A73B1B4812380DF06EFF194812384B
:10393000447404F09DF81D4C1020009020781C4920
:1039400000EB40007E2351F820001A49012209783B
:1039500050F82100002104F003F910237E220421F5
:10396000272009F079F92078134900EB400051F83D
:103970002000124940680A7811490978BDE83840AA
:1039800004F094B8A8000020B3000020303030309C
:103990000000000000230020393939390000000000
:1039A000242300202530346400000000AC000020F7
:1039B000B4A40108B1000020ECA50108A300002078
:1039C000A200002010B509F0F9F8BDE8104003216D
:1039D0004FF4CC7006F0F6BD10B509F005F9BDE85E
:1039E000104003214FF4CC7006F0ECBD2DE9F041FE
:1039F0001248FCF7CBFC124D84B205F6A73140F615
:103A0000A936A5F8A74B02220F463046FCF71EFE4A
:103A1000022239463046FCF7E6FDB5F8A70BA04276
:103A200001D1012000E0002003F0A0FCBDE8F0413E
:103A300003214FF4CC7006F0C5BD0000EE2200203B
:103A40002423002009F058B87047704770470000E1
:103A50002DE9F04F7E487F4C0025017887B004F1B6
:103A6000080B012925D17C487CA1057004F11200C6
:103A7000FCF783FC7CA104F12300FCF77EFC7D4E67
:103A80007DA2042196F8A233204606F2A2360DF05C
:103A9000BBFE2D27E770737877A20421201D0DF05F
:103AA000B3FEE771B37874A2042158460DF0ACFE62
:103AB000657403F0DDFFDFF8C8A14FF01008CDF802
:103AC00000809AF800006F4900EB4000002251F896
:103AD00020006D494646574609787E2350F821005C
:103AE000114604F03DF83878DFF8A09100EB400172
:103AF00059F82100016801A8FCF73FFC002101A84A
:103B0000FCF70FFC03225349FCF7FFFB8DF80A502A
:103B10007E230222002101A8009604F021F8607C97
:103B20005B4E5C4F03281AD2022004F067F9002094
:103B300004F03EF9607C0122011901A8FCF7E5FBC5
:103B40008DF80550607C31783A7801EBC000183868
:103B5000C1B201A803F0AAFF002004F04FF99AF8BF
:103B6000000000EB400159F82100416801A8FCF772
:103B700004FC002101A8FCF7D4FB0322211DFCF763
:103B8000C4FB8DF80A507E230422002101A8CDF841
:103B9000008003F0E5FF607C001F03281AD202209A
:103BA00004F02CF9002004F003F9607C01220119D3
:103BB00001A8FCF7AAFB8DF80550607C31783A78B3
:103BC00001EBC0003838C1B201A803F06FFF00203C
:103BD00004F014F99AF8000000EB400159F82100B4
:103BE000816801A8FCF7C9FB002101A8FCF799FB3B
:103BF00003225946FCF789FB8DF80A507E230622E2
:103C0000002101A8CDF8008003F0AAFF607C0728FE
:103C10001AD9022004F0F2F8002004F0C9F8607C00
:103C20000122011901A8FCF770FB8DF80550607C9A
:103C300031783A7801EBC0005838C1B201A803F0DE
:103C400035FF002004F0DAF807B0BDE8F08F00007F
:103C5000A8000020EE220020B30000203030302DDC
:103C60003030302D303030003939392D3939392D57
:103C70003939390024230020253033640000000046
:103C8000AC000020B4A40108B10000209CA40108ED
:103C9000A2000020A300002010B508F08FFF032130
:103CA000BDE81040C80106F08DBC10B508F09CFFBF
:103CB0000321BDE81040C80106F084BC2DE9FE4F89
:103CC0003CA00322006800903B496846FCF71DFBBE
:103CD0006846FCF75BFB384986B20322091D68463B
:103CE000FCF713FB6846FCF751FB334985B203220E
:103CF00008316846FCF709FB6846FCF747FB84B2CD
:103D0000FF2E03D8FF2D01D8FF2C0AD92B482C49B0
:103D1000007800EB400051F82000006803F010FB31
:103D200041E0284F4FF4697807F2A23187F8A26387
:103D300087F8A35387F8A443012240460291FCF779
:103D400085FC07F2A33140F2A53A012250460191C9
:103D5000FCF77CFC07F5697140F2A63901228B461D
:103D60004846FCF773FC012240460299FCF73BFCF5
:103D7000012250460199FCF736FC0122594648467B
:103D8000FCF731FC97F8A203B04209D197F8A303DE
:103D9000A84205D197F8A403A04201D1012000E078
:103DA000002003F0E3FA0321C80106F00BFCBDE894
:103DB000FE8F00002A2A2A00EE220020AC000020FC
:103DC000D4A501082423002008F096BE7047704750
:103DD0007047000008B503F04BFE1448154A164B17
:103DE000007800EB4001124800EB8100106002797E
:103DF0001A70124A00687E2310601020009010484C
:103E0000062250F821000021406803F0A9FE0D4869
:103E10000078022806D108F0A5FE0B4900200870A2
:103E20000A490870BDE80840FCF70CBEAC00002051
:103E30006CA40108BC000020B2000020B8000020E3
:103E4000F4A60108A8000020B1000020B300002063
:103E5000FCF76CBEFCF7EABE164810B5007870B1EE
:103E6000012812D0022816D003281AD0134912486C
:103E7000097800EB4100002130F8020C16E008F050
:103E800071FE01214FF4D47010E008F06BFE0121A7
:103E90004FF4D8700AE008F065FE01214FF4DC70A1
:103EA00004E008F05FFE01214FF4E070BDE810402F
:103EB00006F088BBB1000020C4220020AD00002025
:103EC00008F01ABE7047704770470000F8B51748F1
:103ED000174C184D0078012808D117481749007F62
:103EE00020700020087016492879087003F0C0FD82
:103EF000144F102600963878134900EB40007E23BB
:103F000051F8200001220021406A03F029FE0096AA
:103F10003878217800EB40007E2355F820000422F9
:103F200050F82100002103F01BFEF8BDA80000207E
:103F3000B1000020A4A5010824230020B300002024
:103F4000B2000020AC000020ACA6010810B506F0BD
:103F500033FF0321BDE81040902006F033BB10B5BD
:103F600006F040FF0321BDE81040902006F02ABB78
:103F700070B50F4D0F4C02222878A08304F11C016C
:103F80000E461E20FCF762FB022231461E20FCF783
:103F90002AFBA08B2978884201D1012000E0002073
:103FA00003F0E4F9BDE870400321902006F00ABB5D
:103FB000B10000202423002008F09EBD7047704708
:103FC0007047000038B520480078012813D11F48F9
:103FD00000251F4C05701FA021A2008860821EA032
:103FE00002210088A4F823001C4890F820302046C5
:103FF0000DF00AFC657403F03BFD1B4C1020009093
:1040000020781A4900EB40007E2351F8200018491F
:104010000122097850F82100002103F0A1FD1023AE
:104020007E220421332008F017FE2078114900EB8E
:10403000400051F82000104980680A780F4909783B
:10404000BDE8384003F032BDA8000020B3000020D6
:10405000EE22002030000000390000002423002060
:104060002530316400000000AC000020ACA601083F
:10407000B1000020ECA50108A3000020A200002050
:1040800010B508F09BFD0321BDE81040A02006F00C
:1040900099BA10B508F00CFE0321BDE81040A0202D
:1040A00006F090BA70B51048FCF770F90F4D0F4943
:1040B000C4B2203105F8204F01220E462220FCF721
:1040C000C5FA012231462220FCF78DFA2878A04259
:1040D00001D1012000E0002003F048F9BDE8704064
:1040E0000321A02006F06EBAEE2200202423002037
:1040F00008F002BD7047704770470000F8B51748D8
:10410000174C184D0078012808D117481749807FAF
:1041100020700020087016492879087003F0A8FC68
:10412000144F102600963878134900EB40007E2388
:1041300051F8200001220021806A03F011FD009651
:104140003878217800EB40007E2355F820000422C7
:1041500050F82100002103F003FDF8BDA800002065
:10416000B1000020BCA5010824230020B3000020DA
:10417000B2000020AC000020ACA6010810B506F08B
:104180001BFE0321BDE81040982006F01BBA10B5B5
:1041900006F028FE0321BDE81040982006F012BA70
:1041A00070B50F4D0F4C02222878E08304F11E01F8
:1041B0000E462020FCF74AFA022231462020FCF766
:1041C00012FAE08B2978884201D1012000E000201A
:1041D00003F0CCF8BDE870400321982006F0F2B956
:1041E000B10000202423002008F086BC70477047EF
:1041F00070470000F8B51848184C194D0078012890
:104200000AD1184818490078C0F3400020700020F7
:10421000087016492879087003F02AFC144F1026FC
:1042200000963878134900EB40007E2351F82000B7
:1042300001220021C06803F093FC009638782178B1
:1042400000EB40007E2355F82000042250F82100A6
:10425000002103F085FCF8BDA8000020B10000207B
:1042600034A6010824230020B3000020B20000205F
:10427000AC0000201CA6010810B506F09DFD03212E
:10428000BDE81040482006F09DB910B506F0AAFD23
:104290000321BDE81040482006F094B970B5114DD7
:1042A000114C02222978208861F3410020802146A8
:1042B0001046FCF7CBF9022221461046FCF793F991
:1042C00020782978C0F34000884201D1012000E025
:1042D000002003F04BF8BDE870400321482006F0B1
:1042E00071B90000B10000202423002008F004BCB4
:1042F0007047704770470000F8B51848184C194DC2
:104300000078012809D11848184990F8A90B2070A5
:104310000020087016492879087003F0A9FB154F92
:10432000102600963878144900EB40007E2351F89F
:10433000200001220021806803F012FC00963878EA
:10434000217800EB40007E2355F82000042250F82D
:104350002100002103F004FCF8BD0000A8000020AB
:10436000B100002034A6010824230020B30000205F
:10437000B2000020AC0000206CA4010810B506F0CB
:104380001BFDBDE8104003214FF4D47006F01AB9AC
:1043900010B506F027FDBDE8104003214FF4D4709E
:1043A00006F010B92DE9F041114D124C40F6AB3634
:1043B000287884F8A90B04F6A93101220F4630466B
:1043C000FCF744F9012239463046FCF70CF994F821
:1043D000A90B2978884201D1012000E0002002F0D9
:1043E000C5FFBDE8F04103214FF4D47006F0EAB8F0
:1043F000B10000202423002008F07EBB70477047E6
:10440000704700002DE9F04FED4D0024ED4F287866
:1044100087B001280ED1EC48ECA1047007F112001E
:10442000FBF7ABFFEDA107F12300FBF7A6FF0CF0B4
:10443000FFFF7C742878ED4E03282BD1787C02286E
:1044400028D20222DF4901A8FBF75FFF8DF8064062
:1044500001A8FBF79BFFE64D80B21428688312D9B0
:104460003078E44900EB400051F82000006802F089
:1044700067FF6B79E0A20321D2480DF0C5F92D202A
:10448000B87068796883697980B2884202D06871AF
:104490000CF0CEFF03F0ECFA4FF0100BCDF800B0AB
:1044A0003078002200EB4001D548B1467E2350F819
:1044B0002100D449097850F82100114603F050FB3F
:1044C00001223D46F91C01A8FBF71FFFA046274625
:1044D0008DF8054001A8FBF759FFC4B2307800EB16
:1044E0004001C94850F82100016801A8FBF745FFC9
:1044F000002101A8FBF715FFC4A109880180002154
:1045000001A8FBF70EFF0222AE49FBF7FEFE8DF875
:104510000D70002101A8FBF704FFBDA109880180EF
:10452000002101A8FBF7FDFEBAA1FBF726FF002141
:1045300001A8FBF7F6FE3178DFF8DCA201EB4102BF
:104540005AF8221051F82410FBF717FF002101A898
:10455000FBF7E7FEAEA17E2309880180022200213D
:1045600001A8CDF800B003F0FBFA687CAB4EAC4F6D
:1045700002281AD2022003F041FC002003F018FCAC
:10458000687C0122411901A8FBF7BFFE8DF8058068
:10459000687C31783A7801EBC0004038C1B201A89C
:1045A00003F084FA002003F029FC687C03281DD165
:1045B000022003F023FC002003F0FAFB99F800002E
:1045C00000EB40015AF8210050F8241001A8FBF735
:1045D000D4FE697C30783A7800EBC1003038C1B243
:1045E00001A803F063FA002003F008FC7F48DFF81D
:1045F0001892007800EB400159F82100416801A8A9
:10460000FBF7BBFE002101A8FBF78BFE7FA1098809
:104610000180002101A8FBF784FE0822691DFBF739
:1046200074FE44468DF81180002101A8FBF779FE45
:1046300077A17E23098801800422002101A8CDF8FA
:1046400000B003F08DFA687C401F02281AD20220C5
:1046500003F0D4FB002003F0ABFB687C012241197E
:1046600001A8FBF752FE8DF80540697C30783A7856
:1046700000EBC1007038C1B201A803F017FA0020A6
:1046800003F0BCFB687C083802281AD2022003F031
:10469000B5FB002003F08CFB687C0122411901A8C6
:1046A000FBF733FE8DF80540687C31783A7801EBF2
:1046B000C0007038C1B201A803F0F8F9002003F07F
:1046C0009DFB687C0B3802281AD2022003F096FB6F
:1046D000002003F06DFB687C0122411901A8FBF763
:1046E00014FE8DF80540687C31783A7801EBC00003
:1046F0007038C1B201A803F0D9F9002003F07EFBA5
:10470000304901220E3101A8FBF7FFFD8DF805406D
:1047100001A8FBF73BFEDFF8D480C4B298F8000094
:1047200000EB400159F82100816801A8FBF725FE44
:10473000002101A8FBF7F5FD36A1FBF71EFE0021C5
:1047400001A8FBF7EEFD98F8001001EB41025AF8C2
:10475000221051F82410FBF710FE002101A8FBF7EE
:10476000E0FD2BA17E23098801800622002101A8FB
:10477000CDF800B003F0F4F9687C0D281DD90220B3
:1047800003F03CFB002003F013FB98F8000000EB63
:1047900040015AF8210050F8241001A8FBF7EDFD64
:1047A000687C31783A7801EBC0008838C1B201A842
:1047B00003F07CF9002003F021FB07B0BDE8F08F87
:1047C000A8000020EE220020B300002030312D3060
:1047D0002D30303A30303A30302D300039392D31EB
:1047E0002D39393A39393A39392D3100AC000020A8
:1047F000C6000020D4A50108253032640000000066
:104800006CA40108B100002054A401085B00000062
:104810005D000000205B000034A60108A20000201B
:10482000A300002010B508F0C9F9BDE8104003212D
:104830004FF4DC7005F0C6BE10B508F0D5F9BDE840
:10484000104003214FF4DC7005F0BCBE70B588B099
:1048500002224F496846FBF758FD00248DF80240BC
:104860006846FBF793FD4B4D494E01226883F11CCE
:104870006846FBF74AFD8DF801406846FBF786FD68
:104880008DF814000222711D6846FBF73EFD8DF87D
:1048900002406846FBF77AFD8DF81500022206F10A
:1048A00008016846FBF731FD8DF802406846FBF7CA
:1048B0006DFD8DF81600022206F10B016846FBF72C
:1048C00024FD8DF802406846FBF760FD8DF8170067
:1048D000012206F10E016846FBF717FD8DF8014035
:1048E0006846FBF753FDC1B28DF81810688B142889
:1048F0000BD89DF81520172A07D89DF816203B2ABB
:1049000003D89DF817203B2A0AD923482349007869
:1049100000EB400051F82000006802F011FD2EE08D
:10492000C0B268711E4C00EB80002044059AC0F8AC
:10493000A62B80F8AA1B00F6A631001B00F6A830B3
:1049400080B20522FBF782FE6879052200EB800029
:104950000319181B00F6A83003F6A63180B2FBF746
:1049600042FE6879052200EB8000011905A801F6D6
:10497000A631FBF7F5FC48B1002002F0F7FC03215B
:104980004FF4DC7005F01EFE08B070BD0120F4E7A6
:10499000EE220020C6000020AC000020D4A50108B3
:1049A0002423002008F0A8B8704770477047000023
:1049B00038B522480078012817D12148002421A1C8
:1049C00004702248FBF7D9FC204821A11130FBF7E5
:1049D000D4FC214821A20521B0F8A0331B4812388D
:1049E0000CF012FF19481238447403F041F81D4CC2
:1049F0001020009020781C4900EB40007E2351F8E5
:104A000020001A490122097850F82100002103F002
:104A1000A7F810237E220421272008F01DF9207812
:104A2000134900EB400051F82000124980680A78D1
:104A300011490978BDE8384003F038B8A8000020D3
:104A4000B300002030303030000000000023002090
:104A5000393939390000000024230020253034641E
:104A600000000000AC000020B4A40108B100002048
:104A7000ECA50108A3000020A200002010B508F05A
:104A80009DF8BDE8104003214FF4B87005F09ABDC1
:104A900010B508F0A9F8BDE8104003214FF4B87034
:104AA00005F090BD2DE9F0411948FBF76FFC84B289
:104AB000B4F5006F0AD917481749007800EB400099
:104AC00051F82000006802F03BFC19E0134D40F261
:104AD000A23605F56871A5F8A04302220F463046BC
:104AE000FBF7B4FD022239463046FBF77CFDB5F8F2
:104AF000A003A04201D1012000E0002002F036FC1A
:104B0000BDE8F04103214FF4B87005F05BBD000033
:104B1000EE220020AC000020D4A5010824230020B0
:104B200007F0EABF08B502F0A3FF0F48104A114B87
:104B3000007800EB40010D4800EB81001060027925
:104B40001A700D4A00687E231060102000900B48F8
:104B5000062250F821000021406803F001F8BDE86A
:104B60000840FBF76FBF0000AC000020C4A601089E
:104B7000BC000020B2000020B8000020F4A601080C
:104B8000FBF7D4BFFCF752B810B507F0EBFF02F00B
:104B90006FFF02F06DFFBDE8104007F0ADBF07F0FA
:104BA000ABBF704770477047F8B51848184C194D9F
:104BB000007801280AD118481849007800F001004F
:104BC00020700020087016492879087002F050FF04
:104BD000144F102600963878134900EB40007E23CE
:104BE00051F8200001220021806802F0B9FF0096F0
:104BF0003878217800EB40007E2355F8200004220D
:104C000050F82100002102F0ABFFF8BDA800002001
:104C1000B100002034A6010824230020B3000020A6
:104C2000B2000020AC0000201CA6010810B506F060
:104C3000C3F80321BDE81040402005F0C3BC10B507
:104C400006F0D0F80321BDE81040402005F0BABCC2
:104C500070B5114D114C02222978208861F30000B3
:104C6000208021461046FBF7F1FC02222146104627
:104C7000FBF7B9FC2078297800F00100884201D1C7
:104C8000012000E0002002F071FBBDE8704003212C
:104C9000402005F097BC0000B10000202423002034
:104CA00007F02ABF70477047704700002DE9F04FAA
:104CB000DFF83893D04CDFF8388399F800102D27AF
:104CC000CC4D002687B004F10A0B012933D1CB4823
:104CD000CBA1067004F11200FBF74FFBCCA104F14D
:104CE0002300FBF74AFB6B78CDA2042120460CF091
:104CF0008BFDE7706978CCA208EBC100032190F826
:104D0000AA33201D0CF080FDA7716978C6A208EBBC
:104D1000C100032190F8AB33E01D0CF075FD677204
:104D20006978C1A208EBC100032190F8AC33584662
:104D30000CF06AFD667499F80000DFF8F49203281D
:104D40004FD1607C03284CD20322AB4901A8FBF76A
:104D5000DCFA8DF8076001A8FBF718FB80B26882C7
:104D6000FA2812D999F80000B24900EB400051F836
:104D70002000006802F0E4FA6B78A9A204219E48A2
:104D80000CF042FDE77068786882697880B28842EA
:104D900027D0C3B26B70A2A2042197480CF034FD57
:104DA000E7706978A0A208EBC100032190F8AA334C
:104DB000201D0CF029FDA77169789BA208EBC100AA
:104DC000032190F8AB33E01D0CF01EFD677269788B
:104DD00095A208EBC100032190F8AC3358460CF0C3
:104DE00013FD02F045FE94A101A8FBF7C6FA0021CD
:104DF00001A8FBF796FA03227F49FBF786FA4FF0EA
:104E0000100800228DF80E607E23114601A8CDF80F
:104E1000008002F0A5FE607C894D8A4F03281AD2DB
:104E2000022002F0EBFF002002F0C2FF607C0122B2
:104E3000011901A8FBF769FA8DF80560607C2978F3
:104E40003A7801EBC0001838C1B201A802F02EFE7A
:104E5000002002F0D3FF99F80000DFF8ECA100EB8E
:104E600040015AF82100016801A8FBF786FA0021E9
:104E700001A8FBF756FA0222211DFBF746FA8DF82E
:104E80000B60002101A8FBF74CFA70A1FBF775FA43
:104E90007E230222002101A8CDF8008002F060FEEE
:104EA000607C001F02281AD2022002F0A7FF002017
:104EB00002F07EFF607C0122011901A8FBF725FAB0
:104EC0008DF80560607C29783A7801EBC00048389D
:104ED000C1B201A802F0EAFD002002F08FFF99F8AC
:104EE000000000EB40015AF82100416801A8FBF7DF
:104EF00044FA002101A8FBF714FA0222E11DFBF796
:104F000004FA8DF80B60002101A8FBF70AFA4FA103
:104F1000FBF733FA7E230422002101A8CDF800809C
:104F200002F01EFE607CC01F02281AD2022002F08E
:104F300065FF002002F03CFF607C0122011901A8FE
:104F4000FBF7E3F98DF80560607C29783A7801EB8E
:104F5000C0006038C1B201A802F0A8FD002002F034
:104F60004DFF99F8000000EB40015AF821008168DC
:104F700001A8FBF702FA002101A8FBF7D2F90222EF
:104F80005946FBF7C2F98DF80B60002101A8FBF729
:104F9000C8F92EA1FBF7F1F97E230622002101A812
:104FA000CDF8008002F0DCFD607C0A3802281AD2BD
:104FB000022002F023FF002002F0FAFE607C0122B2
:104FC000011901A8FBF7A1F98DF80560607C29782B
:104FD0003A7801EBC0007838C1B201A802F066FD52
:104FE000002002F00BFF07B0BDE8F08FA800002002
:104FF00024230020C6000020EE220020B300002061
:105000003030312D30302D30302D30300000000068
:105010003939392D33392D33392D3339000000001A
:1050200025303364000000002530326400000000A9
:10503000AC000020D4A50108C9E8B1B8BAC53A004F
:10504000A2000020A300002084A401086670730061
:1050500010B507F0B3FDBDE8104003214FF4B07068
:1050600005F0B0BA10B507F0BFFDBDE81040032150
:105070004FF4B07005F0A6BA2DE9F84359A0032209
:105080000068009058496846FBF73FF900248DF806
:1050900003406846FBF77AF9544D534E022268826A
:1050A000311D6846FBF731F98DF802406846FBF781
:1050B0006DF900F0FF080222F11D6846FBF725F9A3
:1050C0008DF802406846FBF761F9C7B2022206F18B
:1050D0000A016846FBF719F98DF802406846FBF7AC
:1050E00055F9C6B2688AFA2806D8B8F11E0F03D857
:1050F0001E2F01D81E2E0AD93D483E49007800EBEC
:10510000400051F82000006802F01AF963E0C0B2D4
:10511000394C687004EBC00000F2AA3180F8AA8311
:1051200080F8AB7380F8AC63001B00F56B7080B245
:105130000122FBF78BFA6878012204EBC003181BED
:1051400000F2AD3003F2AB3180B2FBF77FFA687842
:10515000012204EBC003181B00F2AE3003F56B71A3
:1051600080B2FBF773FA6878012204EBC003181BC6
:1051700000F56B7003F2AA3180B2FBF734FA68785D
:10518000012204EBC00000F2AB31001B00F2AD3095
:1051900080B2FBF728FA6878012204EBC003181BE1
:1051A00000F2AE3003F56B7180B2FBF71CFA687841
:1051B00004EBC00090F8AA23424509D190F8AB1344
:1051C000B94205D190F8AC03B04201D1012000E012
:1051D000002002F0CBF803214FF4B07005F0F2F993
:1051E000BDE8F8832A2A2A00EE220020C60000200B
:1051F000AC000020D4A501082423002007F07CBCCB
:1052000008B502F035FC0F48104A114B007800EB4E
:1052100040010D4800EB8100106002791A700D4AC0
:1052200000687E231060102000900B48062250F882
:1052300021000021406802F093FCBDE80840FBF724
:1052400001BC0000AC000020ACA60108BC0000209E
:10525000B2000020B8000020F4A60108FBF766BCED
:10526000FBF7E4BC394810B50078132865D2DFE8B5
:1052700000F00A0F14191E23282D32373C414447F1
:105280004C5157645B0007F06DFC0121302050E069
:1052900007F068FC012138204BE007F063FC012196
:1052A000582046E007F05EFC0121602041E007F055
:1052B00059FC012168203CE007F054FC01217020DA
:1052C00037E007F04FFC0121782032E007F04AFC7C
:1052D000012180202DE007F045FC0121882028E0F5
:1052E00007F040FC0121982023E007F03BFC01215E
:1052F000A0201EE00221B0201BE00121B82018E010
:1053000007F030FC0121F02013E007F02BFC012115
:10531000F8200EE007F026FC01214FF4A47008E00D
:1053200001214FF4A87004E007F01CFC01214FF4A8
:10533000E870BDE8104005F045B906490448097811
:1053400000EB4100002130F8020CF2E7B100002030
:10535000C4220020AD00002007F0CEBB704770478C
:105360007047000038B51C480078012817D11B4849
:1053700000241BA104701B48FAF7FFFF19481AA16B
:105380001130FAF7FAFF194819A2042190F82330D6
:10539000144812380CF038FA12481238447402F0EB
:1053A00067FB10200090144814497E2300780122E6
:1053B00000EB400051F820001149097850F8210015
:1053C000002102F0CDFB01B01023BDE830407E2269
:1053D0000421332007F040BCA8000020B3000020C7
:1053E00030303000002300203939390024230020D8
:1053F0002530336400000000AC00002074A50108D3
:10540000B100002010B507F0D9FB0321BDE8104022
:10541000C02005F0D7B810B507F0E6FB0321BDE8C2
:105420001040C02005F0CEB870B51748FAF7AEFFAF
:1054300084B2FF2C0AD915481549007800EB4000CA
:1054400051F82000006801F07BFF16E0114D114972
:105450000122233105F8234F0E462520FBF7F6F8ED
:10546000012231462520FBF7BEF82878A04201D161
:10547000012000E0002001F079FFBDE87040032129
:10548000C02005F09FB80000EE220020AC000020F4
:10549000D4A501082423002007F02EBB70477047D5
:1054A000704700002DE9FE43314E334C2027317800
:1054B000DFF8C080002504F10809012920D12F4818
:1054C0002FA1057004F11200FAF757FF2FA104F184
:1054D0002300FAF752FF3020207060703120A07056
:1054E000E7702D20207160713E20A071E77198F85F
:1054F000243029A2022148460CF086F965726574B1
:105500003078032821D1607C08281ED003221A4954
:1055100001A8FAF7FAFE8DF807501748FAF736FF98
:1055200086B2FA2E07D9FA2633461DA20221124866
:105530000CF06AF9E77008EB060017A290F8243027
:10554000022148460CF060F9657202F091FA1020D1
:1055500000907E230122002113A002F001FB102302
:105560007E220421132007F077FBBDE8FE830000B4
:10557000A800002024230020EE220020B3000020F9
:10558000303030202D2D3E203000000039393920B8
:105590002D2D3E2039000000253031640000000030
:1055A0002530336400000000C5C5BAC52020C9E815
:1055B000B1B8CAFD0000000010B507F0FFFA0321E2
:1055C000BDE81040C82004F0FDBF10B507F00CFB8B
:1055D0000321BDE81040C82004F0F4BF2DE9FC41D0
:1055E000032222496846FAF790FE00258DF8035001
:1055F0006846FAF7CBFE1D49C4B20122083168465D
:10560000FAF783FE8DF801506846FAF7BFFEC5B27F
:10561000FA2C0AD916481749007800EB400051F8D7
:105620002000006801F08CFE1AE0134801220444B7
:10563000271A04F12401263784F824500E46B8B204
:10564000FBF704F83146B8B20122FAF7CCFF94F820
:105650002400A84201D1012000E0002001F086FED4
:105660000321C82004F0AEFFBDE8FC81EE2200203B
:10567000AC000020D4A501082423002007F03CBA88
:10568000704770477047000008B502F0F1F91548FF
:10569000164A174B007800EB4001134800EB8100DD
:1056A000106002791A70134A00687E23106010207F
:1056B00000901148062250F821000021806802F075
:1056C0004FFA0E480078022808D107F04BFA0C4830
:1056D0000C4990F8220008700B490870BDE808409A
:1056E000FBF7B0B9AC00002014A50108BC000020F5
:1056F000B2000020B8000020F4A60108A800002095
:1057000024230020B1000020B3000020FBF70EBAD4
:10571000FBF78CBA70B507F025FA02F0A9F90E482C
:105720000E4D0E490478223105F8224F01220E4613
:105730002420FAF78BFF012231462420FAF753FF89
:105740002878A04201D1012000E0002001F00EFEE7
:10575000BDE8704007F0D0B9B1000020242300203C
:1057600007F0CAB9704770477047000008B502F0EB
:105770007FF91548164A174B007800EB4001134893
:1057800000EB8100106002791A70134A00687E23D2
:105790001060102000901148062250F821000021CE
:1057A000406802F0DDF90E480078022808D107F0C1
:1057B000D9F90C480C4990F8220008700B49087080
:1057C000BDE80840FBF73EB9AC0000202CA501085D
:1057D000BC000020B2000020B8000020F4A60108A0
:1057E000A800002024230020B1000020B3000020E6
:1057F000FBF79CB9FBF71ABA0E4810B5007850B108
:1058000001280ED00D490C48097800EB4100002119
:1058100030F8020C0AE007F0A5F901214FF49C7062
:1058200004E007F09FF901214FF4A070BDE810409B
:1058300004F0C8BEB1000020C4220020AD0000204A
:1058400007F05AB9704770477047000038B51C48D8
:105850000078012817D11B4800241BA104701B48A5
:10586000FAF78BFD19481AA11130FAF786FD19488D
:1058700019A2042190F82433144812380BF0C4FF05
:1058800012481238447402F0F3F8102000901448C3
:1058900014497E230078012200EB400051F82000DB
:1058A0001149097850F82100002102F059F901B09E
:1058B0001023BDE830407E220421332007F0CCB90C
:1058C000A8000020B300002030303000002300206A
:1058D00039393900242300202530336400000000CA
:1058E000AC00002074A50108B100002010B507F03D
:1058F00065F9BDE8104003214FF4887004F062BEE2
:1059000010B507F071F9BDE8104003214FF488701D
:1059100004F058BE2DE9F0411848FAF737FD84B27B
:105920007D2C0AD916481749007800EB400051F841
:105930002000006801F004FD19E0134D40F2263606
:1059400005F5497185F8244301220F463046FAF7E0
:105950007DFE012239463046FAF745FE95F82403CC
:10596000A04201D1012000E0002001F0FFFCBDE8D1
:10597000F04103214FF4887004F024BEEE22002091
:10598000AC000020D4A501082423002007F0B4B8FF
:10599000704770477047000038B51A4800780128F2
:1059A00013D11948002419A104701948FAF7E5FC2D
:1059B000174818A11130FAF7E0FC154813A1123866
:1059C000FAF7DBFC12481238447402F051F8102048
:1059D0000090114811497E230078012200EB40001D
:1059E00051F820000E49097850F82100002102F0FA
:1059F000B7F801B01023BDE830407E2204213320E7
:105A000007F02AB9A8000020B30000203030300091
:105A10000023002039393900AC000020ACA6010871
:105A2000B100002010B507F0C9F80321BDE810400F
:105A3000302004F0C7BD10B507F0D6F80321BDE84B
:105A40001040302004F0BEBD2DE9FC412248FAF799
:105A50009DFC84B2FA2C0AD920482149007800EB39
:105A6000400051F82000006801F06AFC2BE01D4D59
:105A70004FF4804701AB00223946286805F0DAFC74
:105A8000194E0120E2B23070FD217F2009F022F989
:105A90000024347001A800904FF47A7382223946B2
:105AA000286805F00DFC9DF804000A2811D001209B
:105AB00001F05CFC0D48047044708470C470047183
:105AC00044718471C4710321302004F07BFDBDE872
:105AD000FC810020ECE70000EE220020AC0000205A
