:020000040800F2
:10000000E82D0120990100082DB200081DA3000869
:100010000FAE00083D0D0008511601080000000059
:10002000000000000000000000000000A7E0000841
:100030009D14000800000000FF010008DDE2000838
:10004000B3010008B3010008B3010008B3010008C0
:10005000B3010008B3010008B3010008B3010008B0
:10006000B3010008B3010008B3010008B3010008A0
:10007000B3010008B3010008B3010008B301000890
:10008000B3010008B3010008B3010008B301000880
:10009000410D0008B3010008B3010008B3010008D6
:1000A000B3010008B3010008B3010008B301000860
:1000B00029E40008B3010008D1E40008B3010008F6
:1000C000B3010008B3010008B3010008B301000840
:1000D000B301000851F40008A1F40008B3010008BE
:1000E000B3010008B3010008B3010008B301000820
:1000F000B3010008B3010008B3010008B301000810
:10010000B3010008B3010008B3010008B3010008FF
:1001100039EF0008B3010008B3010008BDE500088D
:10012000B3010008B3010008B3010008B3010008DF
:10013000B30100080000000000000000B301000847
:100140009D0D0008B3010008B30100080BC80008AA
:10015000B3010008B3010008B3010008B3010008AF
:10016000B3010008B3010008B3010008B30100089F
:10017000B30100080DC800080000000000000000E6
:10018000B3010008DFF80CD000F088F90048004700
:10019000154F0108E82D0120064880470648004712
:1001A000FEE7FEE7FEE7FEE7FEE7FEE7FEE7FEE727
:1001B000FEE7FEE79DE3000885010008EFF31080ED
:1001C00072B6704780F3108870471D484FF0FF01EA
:1001D0000170002080F309881A48012101701A4833
:1001E0004FF08051016062B6FEE717484FF0805132
:1001F0000160704714484FF080510160704772B63B
:10020000EFF3098028B1203880E8F00F0F49096822
:10021000086000B50E4880475DF804EB0D480E49B4
:100220000A78027009480D490A680260106890E86F
:10023000F00F203080F309884EF0040E62B670474C
:1002400022ED00E0FF00002004ED00E01801002096
:100250003DBE0008FC000020FD0000202001002021
:100260002DE9F05F0546002092469B4688460646EB
:10027000814640241BE0284641464746224600F07E
:10028000C4F853465A46C01A914110D31146184635
:10029000224600F0ABF82D1A67EB01084F462246C4
:1002A0000120002100F0A2F817EB00094E41201EAA
:1002B000A4F10104DFDC484631462A464346BDE846
:1002C000F09F40EA01039B0703D009E008C9121F11
:1002D00008C0042AFAD203E011F8013B00F8013B00
:1002E000521EF9D27047D2B201E000F8012B491E2C
:1002F000FBD270470022F6E710B513460A460446C3
:100300001946FFF7F0FF204610BD10B5044604E083
:100310000B7800F8013B03B1491C521EF8D220466D
:1003200010BDCAB2401E10F8011F8A4202D0002937
:10033000F9D100207047421C10F8011B0029FBD1A5
:10034000801A704710B5002200E0521C835C8C5C60
:10035000A34201D1002BF8D1D8B2E1B2401A10BDAE
:1003600030B504460020034600E05B1C934203D2F4
:10037000E05CCD5C401BF8D030BD034611F8012B8A
:1003800000F8012B002AF9D11846704770B50646CF
:1003900011F0B2FA046805460A220021304600F046
:1003A00044F82C6070BD70B5064611F0A5FA0468DB
:1003B00005460A220021304600F037F82C6070BD57
:1003C00030B50B46014600202022012409E021FA25
:1003D00002F59D4205D303FA02F5491B04FA02F522
:1003E0002844151EA2F10102F1DC30BD202A04DBF5
:1003F000203A00FA02F1002070479140C2F1200338
:1004000020FA03F3194390407047202A04DB203A76
:1004100021FA02F00021704721FA02F3D040C2F124
:10042000200291400843194670472DE9F047914654
:100430000F4680460446002614F8015B2DB100F0FB
:100440003FF80068405DC007F6D12B2D02D02D2D5E
:1004500018D0641E4A463946204600F035F827B1C8
:100460003968A14201D1C7F8008071054FF002043C
:100470000BD54042002803DD11F03EFA0460A007CE
:10048000BDE8F08746F48066E4E70028F8DA11F06A
:1004900033FA04606FF00040F2E70000064C074DAD
:1004A00006E0E06840F0010394E807009847103444
:1004B000AC42F6D3FFF76AFEACEF0108CCEF0108BF
:1004C0000048704714E201082DE9F05F8246007889
:1004D000002715468B460AF10104B946302801D0A1
:1004E0009DB113E014F8010B0127782803D0582898
:1004F00001D045B10AE00DB1102D07D1002710251C
:1005000014F8010B02E0082500E00A250026B04699
:100510000EE005FB080005FB06F1012701EB104684
:100520001FFA80F8B6F5803F00D3B94614F8010BE6
:10053000294600F018F80028EBDABBF1000F05D0CF
:100540000FB1641E00E05446CBF80040B9F1000F33
:1005500006D011F0D1F902210160C81EBDE8F09F5C
:1005600048EA0640FAE73A2800D2303820F0200264
:10057000412A01D3A2F13700884201D34FF0FF3066
:10058000704770B58C1810F8015B15F0070301D1A6
:1005900010F8013B2A1106D110F8012B03E010F8E6
:1005A000016B01F8016B5B1EF9D12B0705D4002309
:1005B000521E0DD401F8013BFAE710F8013BCB1AAB
:1005C000921C03E013F8015B01F8015B521EF9D5A0
:1005D000A142D8D3002070BD10B509F0C3FEBDE81C
:1005E000104007F0B4B970B515460E46044608E051
:1005F0002046641CA4B200F007F86D1E06F8010B3B
:10060000ADB2002DF4D170BD10B5044609F050FF15
:10061000A02009F01DFF09F08FFF200A09F018FF44
:1006200009F08AFFE0B209F013FF09F085FF09F035
:100630003FFFA12009F00CFF09F07EFF002009F028
:10064000D7FE044609F056FF204610BD70B514468B
:100650000D46064606E02978304600F007F8761C7D
:10066000B6B26D1C641EA4B2F5D270BD70B50D4655
:10067000044609F01DFFA02009F0EAFE09F05CFF26
:10068000200A09F0E5FE09F057FFE0B209F0E0FEAC
:1006900009F052FF284609F0DBFE09F04DFF09F092
:1006A00029FFBDE870400A2012F052BA7047704727
:1006B000014808F09ABA00005819002070477047A6
:1006C000704700007CB52148214C4FF48075C1680B
:1006D0004FF47A7048430A22B0FBF2F00190206890
:1006E00099B1A1F5C3329F3A09D069460AF029FFB2
:1006F000184B1949C6074FF000020BD108E06B46B2
:10070000002229460AF0C2FE7CBD6B460122F8E7B2
:10071000C00304D50A601A706B46002213E0086813
:10072000019EB04203D200F1010008607CBDFDD102
:1007300000F1010008604FF0010018709A7014F089
:100740009DFB6B46012229462068DBE7242300201D
:100750007001002060000020800000203EB5254987
:100760000A20254C4A8BB2FBF0F2019289684FF4C3
:100770007A724A43B2FBF0F00290E06981B1A1F5D0
:10078000C3329F3A06D069460AF0DBFE1B49C20716
:100790000BD108E06B46002204210AF077FE3EBD33
:1007A0006B460122F8E7C20304D500206B460246DF
:1007B00008601CE04007F2D40868401C0860019AF9
:1007C0004FF48051904202D16B46012210E0029A10
:1007D0009042E4D96B460022E0690AF057FE694670
:1007E000E0690AF0AEFE4002D9D46B460122042132
:1007F000E069D2E724230020540100207C0000207F
:1008000010B508F001FA0DF077FD00F05FFEFFF77C
:10081000E3FE0AF0DBF90DF0E5FD0CF0A5FE0AF0B1
:10082000E5F90AF01FFA0AF0F7F916F00FFB09F0E4
:10083000DBFE0EF0A9FD10F097FF0EF02FFB00F08D
:1008400049FBBDE810400CF0E9BE00002DE9FF4F68
:100850002D20B0FBF1F081B0491E01989B4600EBC2
:10086000800202EB401090FBF1F00004000CC6B2D5
:1008700000D1032603980025012100F1010900F1B0
:10088000020801EBD604B5EBD60F11D0AC420FD065
:100890002A460020039907F00DF809F0FF012A46C7
:1008A000FF2007F007F808F0FF012A46002033E098
:1008B000F008DFF84CA106F0070700901AF80700CF
:1008C000009A039906F0F6FF1AF8070009F0FF01F5
:1008D000C0F1FF00009A06F0EDFF08F0FF011AF8E2
:1008E0000700009A06F0E6FF062C17D20AF1090A63
:1008F00022461AF80700039906F0DCFF1AF80700F1
:10090000224609F0FF01C0F1FF0006F0D3FF2246A6
:1009100008F0FF011AF8070006F0CCFF6D1CEDB2DD
:10092000062DB0D3012007F04DFA01980025401C98
:10093000C6B26420B6FBF0F4ABF10C00C1B23CB11E
:1009400004F13000C0B2072207F0AAF8012503E045
:100950000722202007F0A4F82720444306EB840058
:10096000C4B20A26B4FBF6F2ABF1060002B925B117
:10097000C1B23032D0B2072202E0C1B20722202039
:1009800007F08EF8B4FBF6F006FB10403030C0B232
:100990000722594607F084F81A4F3878012828D9D9
:1009A000002422E01849001B0844624210F8010CA0
:1009B0000BEBC205401CC0B2B0FBF6F106FB110008
:1009C000A5F108013030C9B2C0B2072207F068F8BB
:1009D000681EC1B20722102006F06CFFE9B20722A0
:1009E000102006F067FF641CE4B23878411E8C4288
:1009F000D8DB05B00020BDE8F04F07F0E3B90000F8
:100A0000E39D0108AE000020DA220020F8B50024A2
:100A100015460E460746012B04D07823009407F0B4
:100A2000A9F8F8BD012007F0F3F978232A463146EA
:100A30003846009407F09EF8BDE8F840002007F023
:100A4000E7B900002DE9F047DFF8C8A0DFF8C8805B
:100A50009AF80000032803D9032288F8002001E057
:100A600088F800002D4900242D4F09782D4E0129CA
:100A700002D0022905D010E00CF0A0F83C703470D0
:100A80000FE098F800103278491E8A4200DD347079
:100A90003A78411E8A4200DD3C70397832789142C2
:100AA00002D33878317800E0511A401AC4B20025D8
:100AB000DFF8749020E03878844208D13178490614
:100AC0000A0ED9F80010012351F8200006E068064C
:100AD000020ED9F80000002350F824000021FFF78F
:100AE00095FF9AF80000401E844201D1002401E0E5
:100AF000641CE4B26D1CEDB298F800008542DAD3B4
:100B00009AF800103878BDE8F04778237D22FFF787
:100B10009DBE0000B2000020B4000020A80000200C
:100B2000B1000020B3000020B80000202DE9F047FC
:100B3000DFF8E480374E98F800403178601EC2B28A
:100B400071B1481E3070354F354D3B7828684BB138
:100B50005A06120E5B1E3B7050F82100002337E04E
:100B60003270F0E7032C2ED934784FF0000A524649
:100B7000A94650F8240001235146FFF747FF98F893
:100B80000000401E844201D1002401E0641CE4B254
:100B900001256806020ED9F800000023194650F816
:100BA0002400FFF733FF98F80000401E844201D173
:100BB000002401E0641CE4B26D1CEDB2032DE8D307
:100BC00087F800A012E03A7050F8210000231A467E
:100BD0000021FFF71BFF387831784006020E2868A5
:100BE000012350F821000021FFF710FF78237D2218
:100BF00098F800103078FFF729FE0B49094809786A
:100C000000EB4100002130F8020CBDE8F04709F08C
:100C1000E3BC0000B1000020B2000020B3000020BF
:100C2000B8000020C4220020AD0000202DE9F047CC
:100C3000DFF8F0803A4E002498F800203178501EFA
:100C4000814201D1347001E0481C30703748364F82
:100C5000374D90F800C03B78ACF1010C2868634533
:100C600004D05A06120E5B1C3B7034E06FF0010397
:100C7000032A2CD9347899460422AA4650F8240035
:100C800001230021FFF7C2FEBCB1641EE4B20225BD
:100C900009EB4500C2B2DAF800000023194650F80B
:100CA0002400FFF7B3FE6CB1641EE4B26D1E15F0B4
:100CB000FF05EDD1022038701EE098F80000401EBC
:100CC000C4B2E4E798F80000401EC4B2EEE703EBBC
:100CD00042023C70D2B250F8210000231946FFF7BF
:100CE00095FE387831784006020E2868012350F8C6
:100CF00021000021FFF78AFE78237D2298F800105A
:100D00003078FFF7A3FD0C490A48097800EB410051
:100D1000002130F8020CBDE8F04709F05DBC00008E
:100D2000B1000020B2000020B3000020B400002079
:100D3000B8000020C4220020AD000020FEE7000023
:100D400070B5134D00240A222146284607F076FA92
:100D5000696BA5F10C000A8802800A7B8270097C0D
:100D6000C17006E06A6B04F11401515C0219641C45
:100D70001171C178A142F5D8074C064920680DF0E1
:100D800089FA2068BDE8704001490C3911F08CBB2C
:100D9000BCCB0020006400408C01002070B5134DD6
:100DA00000240A222146284607F048FA696BA5F17B
:100DB00050000A8802800A7B8270097CC17006E0BC
:100DC0006A6B04F11401515C0219641C1171C17841
:100DD000A142F5D8074C064920680DF05BFA20685F
:100DE000BDE870400149503911F05EBB00CC0020D5
:100DF000006800408C0100200D49C0F8AC100D497E
:100E000040F8801F0C4941600C4981600C49C16069
:100E10000C49C0F84C110C49C0F850110B49C0F8EE
:100E2000B8110B49C0F854110A49C0F8581170475D
:100E30009DAC00089FAC00080BAE000889AD00080F
:100E40000DAE000809AE000805AE000807AE0008A8
:100E5000D9AD0008E1AD000870B5094DFF231A4671
:100E600005F5807605E010F8014B54402A5D5A40A4
:100E7000335D491E89B2F6D242EA032070BD0000FC
:100E800092DF010810B5012901D0022902D10C31ED
:100E9000C9B2401E4B1C03EB43030524B3FBF4F320
:100EA00002EB41011944C217014400EB927201EBBD
:100EB000A201642290FBF2F2891A4FF4C87290FBEF
:100EC000F2F00844072190FBF1F201FB1200401CF4
:100ED000C0B210BD70B513F08FFE1A4C184D2068CB
:100EE000C0F8E051FFF788FF0021206816F0A0F954
:100EF0007F21206816F0F4F80521206816F098F993
:100F00001021284611F00EFB10210F4811F00AFBAA
:100F100000204FF48031401C8842FCD30020401C4C
:100F20008842FCD30020401C8842FCD30020401C97
:100F30008842FCD30020401C8842FCD370BD0000D6
:100F4000006400408C010020006800402DE9F0475B
:100F5000012713F015FF20F0C0004FF000093F28D3
:100F600002D0314AA2F80090304C314D314E0B384E
:100F700007283ED2DFE800F00B211A04282F3600A4
:100F8000208800EB800005EB8000408805E0208889
:100F900000EB800005EB80008088208000EB800063
:100FA00005EB800000693060804723E0208800EB7B
:100FB000800005EB8000C088EFE7208800EB800010
:100FC00005EB80000089E8E7208800EB800005EB56
:100FD00080008089E1E7208800EB800005EB80003D
:100FE0004089DAE7208800EB800005EB8000C089AB
:100FF000D3E70027DFF8408098F8000068B1208828
:1010000000EB800005EB800000693060804798F8B5
:101010000010042904D088F800903846BDE8F08715
:10102000012188F80010F8E7C4000020AA00002081
:10103000D0A70108C0000020A80000202DE9F04F33
:101040008FB0044606F01EFD94A104A8FFF795F9A1
:10105000102680230122002104A8009606F08AFDB4
:10106000234691A2042104A810F01EFC90A10DF1CA
:101070001300FFF782F980230422002104A80096C0
:1010800006F078FD00226423114610460AF00CFF9A
:10109000DFF82482894F34B198F89703A04202D335
:1010A000254687490BE098F89703A0420AD298F8A2
:1010B00098130144A14205D3201A8249C5B2386869
:1010C0000DF0E8F805F5C0600E9080380B908DF8B3
:1010D00030500122FB2120460DF04CFE042000265A
:1010E0000DF1280A0A90CDE900A6DFF8D0914FF45F
:1010F000945B02960EAB01225946D9F8000010F01D
:101100000BFFCDE900A602960BAB02225946D9F897
:10111000000010F001FF01200A90CDE900A6029620
:101120000CAB03225946D9F8000010F0F5FE08EB8D
:10113000C407C246B7F8A8030990062002210DF1A2
:101140002408CDE90010CDE90286002346F206020C
:101150002946D9F8000016F0CDFA002873D12846A8
:1011600000F0F2F800286FD09AF89E03B3460126EB
:101170000DF1040C052100960990D1468CE8020976
:10118000DFF838A1334646F206022946DAF80000B5
:1011900016F0B0FA00287ED1284600F0D5F80028D5
:1011A00076D099F89F03D9464FF0050B0123CDE97E
:1011B000003B0990CDE90289022346F20602294646
:1011C0005646DAF8000016F095FAE0BB284600F023
:1011D000BBF800285CD0D7F8AA03CA4620F07F40AD
:1011E0000723042209908DE80C05032346F206022A
:1011F0002946B146306816F07DFA20BB284600F03B
:10120000A3F8002844D0B7F8A6035646CDE90286D5
:101210004FF0010A0990CDE900AB042346F2060223
:101220002946D9F8000016F065FA60B9284600F0A2
:101230008BF800282CD097F8AD03052346F2060260
:101240002946099001E026E022E0CDE90286CDE9B9
:1012500000ABD9F8000016F04DFAE0B9284600F0CE
:1012600073F8002814D00222FB2120460DF082FDE5
:101270000DA8009014484FF47A7382224FF0007149
:1012800000680AF049F89DF834000A2803D00120CC
:101290000FB0BDE8F08F0020FAE70000D5FDD4DAEA
:1012A000C5E4D6C300000000253033640000000010
:1012B000BAC5C9E8B1B80000242300208C01002081
:1012C00000640040006800407001002010B586B046
:1012D00004460BF073FC06F0D5FB234613A2042151
:1012E00001A810F0E1FA13A10DF10700FFF745F88E
:1012F000102480230122002101A8009406F03AFC6A
:101300000EA101A8FFF739F880230422002101A8CB
:10131000009406F02FFC00230122194618460AF01B
:10132000C3FD0BF015FC06B010BD00002530336482
:1013300000000000BAC5C9E8B1B80000C5E4D6C3D2
:10134000B3C9B9A621000000F8B506460A4D0EE063
:1013500000220A23114610460AF0A6FD6A463146CD
:10136000286813F06BF9012804D0641EA4B2002C85
:10137000EED10020F8BD00008C01002030B40A46F8
:10138000D0F89C10D0F8A0404FF0FF3351F8221055
:1013900024F81230C1F307410122431883F8B0202A
:1013A000D0F8AC2030BC10472DE9F04F9946DDE96C
:1013B000094C4FF0FF3BDDF82CA048E0ACEB0203FA
:1013C0005BB20D78002B02DD05FA03F503E0C3F1F3
:1013D000000325FA03F5EEB202DDCCF1080301E0CB
:1013E000C2F10803DBB2834200D903460CEB0307CA
:1013F0004FF0FF0808FA07F5CCF1080C28FA0CF8B2
:1014000045EA080594F800C0AE430CEA050C1A44FE
:101410004CEA060CD2B284F800C0072A07D9002291
:10142000B9F1000F01D05D4600E00125294407F025
:10143000FF0CBCF1070F08D94FF0000CBAF1000FF8
:1014400001D05D4600E001252C44C01AC0B200283E
:10145000B4D1BDE8F08F10B500210A4600EB81033E
:10146000491CC3F87C230F29F8D300214FF40073E3
:101470004418491C84F81C219942F9D30270427027
:1014800001218170C0F8B823017640238371427630
:1014900080F81C2380F81D13002010BD7047000049
:1014A000411C0DD0084AB2F90010884201D1491EF2
:1014B0001180054A002100EB4000083202F830108C
:1014C0004FF0FF30704700009001002038B52649EA
:1014D00000200A6842F001020A600968234C01F00A
:1014E000010100914FF08041E060C4E90010204DFF
:1014F000482129702061A060204608F077FA206812
:10150000016841F0040101602068016A41F2111292
:10151000114207D1016A9210114203D1016821F0F2
:1015200001010160062007F0E3FB022200211C20DC
:1015300007F0BEFB1C2007F0ADFB0E480E4900680B
:10154000B0FBF1F14FF47A704143012068804FF015
:10155000E020026942F0020202614161016941F04A
:101560000101016138BD00004038024084220020A2
:101570009C0000202000002040420F0030B52128B0
:1015800000D92138012202EB10431C4A127803FBD8
:1015900002F41B4A1568AC62B0FBF3F41568EC6208
:1015A000B0FBF3F0D06010686FF0010505611368BF
:1015B000002058621068036843F00103036041F2A1
:1015C00011139C1011B1012911D004E010680169B8
:1015D000C907FCD005611068016A194206D1016A89
:1015E000214203D1016821F00101016030BD106882
:1015F000C16841F00101C16030BD00009C000020C5
:101600008422002010B50022114607A006F058FAE7
:101610000222002107A006F053FA0422BDE8104080
:10162000002107A006F04CBA4275696C6420546929
:101630006D653A004A756C20323120323031390004
:1016400032323A33303A3432000000000BF080BAC4
:101650002DE9F843234D2449DFF890802878244F62
:1016600000EB400001EB8002137988F8003051F85C
:101670002000386006F006FA1E481F4C007801284A
:1016800005D10BF09BFA1D49002020700870102630
:1016900000962178386800227E2350F821001146F8
:1016A00006F068FA16482178022250F8210030210D
:1016B00006F02AFB00962878124900EB40007E23B2
:1016C00051F8200006220021406806F053FA98F8ED
:1016D0000010207801B07823BDE8F0437D22FFF7A9
:1016E000B5B80000AC00002024A70108B20000201B
:1016F000B8000020A8000020B1000020B3000020A6
:10170000B4A701089CA7010838B5164C164D2078DF
:1017100000B928780022401E207010200090134845
:1017200021787E23006850F82100114606F022FA45
:101730000F482178022250F82100302106F0E4FA07
:1017400078237D2229782078FFF780F80A49094814
:10175000097800EB4100002130F8020CBDE8384068
:1017600008F03ABFB1000020B2000020B80000200D
:10177000B4A70108C4220020AD00002038B5194DDF
:10178000174C29782078491E884201D1002000E0BA
:10179000401C20701020009013482178002200681F
:1017A0007E2350F82100114606F0E4F90F48217815
:1017B000022250F82100302106F0A6FA78237D227B
:1017C00029782078FFF742F80A490948097800EBA0
:1017D0004100002130F8020CBDE8384008F0FCBEA2
:1017E000B1000020B2000020B8000020B4A701081A
:1017F000C4220020AD000020154810B5017816481D
:10180000144A0629007802EB40001DD2DFE801F0FF
:1018100003080D10151506F035F9012110200FE011
:1018200006F030F9012118200AE00121D02007E05C
:1018300006F028F90221202002E030F8020C0021F5
:10184000BDE8104008F0C8BE00210846F8E70000D7
:10185000B1000020C4220020AD0000200BF078B9B8
:10186000704770477047000008B506F00BF910206C
:101870000090074807497E230078032200EB4000D0
:1018800051F820000021006806F074F908BD00003E
:10189000AC0000200CA70108704770470BF058B946
:1018A0000BF056B9704770477047000008B506F056
:1018B000E9F81448154A164B007800EB400112482D
:1018C00000EB8100106002791A70124A00687E23D2
:1018D0001060102000901048062250F821000021CE
:1018E000406806F047F90D480078022806D10BF051
:1018F00065F90B49002008700A490870BDE80840E6
:10190000FFF7A0B8AC000020A4A50108BC0000208F
:10191000B2000020B80000209CA70108A800002009
:10192000B1000020B3000020FFF700B9FFF77EB937
:101930000B48007850B101280CD00B4909480978B0
:1019400000EB4100002130F8020C06E002214FF4C8
:10195000947002E002214FF4987008F03DBE000040
:10196000B1000020C4220020AD0000200BF0F0B830
:10197000704770477047000038B51C480078012850
:1019800017D11B4800241BA104701B48FEF7F5FC6F
:1019900019481AA11130FEF7F0FC194819A20421C8
:1019A00090F89733144812380FF07EFF124812381F
:1019B000447406F067F810200090144814497E2300
:1019C0000078012200EB400051F82000114909780D
:1019D00050F82100002106F0CDF801B01023BDE839
:1019E00030407E22042133200BF062B9A800002091
:1019F000B300002030303000002300203939390096
:101A0000242300202530336400000000AC000020B7
:101A100054A70108B100002010B50BF0FBF803211A
:101A2000BDE81040F02008F0D7BD10B50BF008F964
:101A30000321BDE81040F02008F0CEBD2DE9F041B3
:101A40001848FEF7A3FC84B27D2C0AD91648174922
:101A5000007800EB400051F82000006805F07AFCA7
:101A600019E0134D40F2993605F2973185F8974306
:101A700001220F463046FEF7E9FD01223946304685
:101A8000FEF7B1FD95F89703A04201D1012000E0D7
:101A9000002005F075FCBDE8F0410321F02008F0BE
:101AA0009BBD0000EE220020AC0000207CA60108B7
:101AB000242300200BF04CB870477047704700009B
:101AC00038B51C480078012817D11B4800241BA1F9
:101AD00004701B48FEF751FC19481AA11130FEF79B
:101AE0004CFC194819A2042190F898331448123874
:101AF0000FF0DAFE12481238447405F0C3FF1020CC
:101B00000090144814497E230078012200EB400025
:101B100051F820001149097850F82100002106F001
:101B200029F801B01023BDE830407E220421332083
:101B30000BF0BEB8A8000020B30000203030300009
:101B40000023002039393900242300202530336454
:101B500000000000AC00002054A70108B1000020E4
:101B600010B50BF057F80321BDE81040F82008F03D
:101B700033BD10B50BF064F80321BDE81040F82028
:101B800008F02ABD2DE9F0411848FEF7FFFB84B2AA
:101B90007D2C0AD916481749007800EB400051F80F
:101BA0002000006805F0D6FB19E0134D40F29A368C
:101BB00005F5667185F8984301220F463046FEF719
:101BC00045FD012239463046FEF70DFD95F8980394
:101BD000A04201D1012000E0002005F0D1FBBDE8CA
:101BE000F0410321F82008F0F7BC0000EE220020AD
:101BF000AC0000207CA60108242300200AF0A8BF26
:101C000070477047704700002DE9FE43404F0024A5
:101C1000404E3878404D4FF02008012825D13F48EC
:101C20003FA1047005F11200FEF7A7FB3FA105F1EB
:101C30002300FEF7A2FBAC76472085F82B0001209D
:101C400030823020287068703120A87085F80380B9
:101C50002D21297169713E213748A97185F80780C6
:101C600090F8250228726C726C74387803282BD196
:101C7000687C082828D00322274901A8FEF745FBE5
:101C80008DF807402448FEF781FB84B2FA2C12D964
:101C90002A482B49007800EB400051F820000068EA
:101CA00005F058FB348A27A2234604211A480FF076
:101CB000FBFD85F80380308AA04205D01E4834829F
:101CC000204490F82402287205F0DCFE10200090D9
:101CD0007E23012200211DA005F04CFF10237E224F
:101CE00004211B200AF0E4FF687C082802D10220AE
:101CF00006F08EF8287A1949042251F820005B2159
:101D000005F0DEFE002006F083F8BDE8FE8300004B
:101D1000A8000020C6000020EE220020B300002012
:101D2000303030202D2D3E20300000003239392057
:101D30002D2D3E207800000024230020AC00002040
:101D40007CA601082530336400000000C9E8B1B862
:101D5000BAC52020C6B4D2F40000000068CE010845
:101D600010B50AF057FFBDE8104003214FF4A070F2
:101D700008F032BC10B50AF063FFBDE81040032143
:101D80004FF4A07008F028BC2DE9FC4103221F4944
:101D90006846FEF7BAFA00208DF803001B48FEF7EC
:101DA000F5FA80B2FA280AD919481A49007800EBE6
:101DB000400051F82000006805F0CCFA1EE0164AF9
:101DC000124D1418A71A297A84F8241204F50971FF
:101DD00007F226270E46B8B20122FEF737FC31463D
:101DE000B8B20122FEF7FFFB287A94F82412884249
:101DF00001D1012000E0002005F0C2FA03214FF4D8
:101E0000A07008F0E9FBBDE8FC810000EE22002094
:101E1000AC0000207CA60108242300200AF098BE14
:101E2000704770477047000008B505F02BFE154855
:101E3000164A174B007800EB4001134800EB810075
:101E4000106002791A70134A00687E231060102017
:101E500000901148062250F821000021806805F00A
:101E600089FE0E480078022808D10AF0A7FE0C4827
:101E70000C4990F89F0308700B490870BDE80840B2
:101E8000FEF7E0BDAC0000208CA50108BC000020DE
:101E9000B2000020B80000209CA70108A800002084
:101EA00024230020B1000020B3000020FEF73EBE36
:101EB000FEF7BCBE2DE9F0410AF080FE05F0E2FD20
:101EC0000F48104D40F2A136047805F29F3185F895
:101ED0009F4301220F463046FEF7B8FB01223946E8
:101EE0003046FEF780FB95F89F03A04201D1012008
:101EF00000E0002005F044FABDE8F0410AF028BEF9
:101F0000B1000020242300200AF022BE7047704751
:101F1000704700000D4808B50078012804D10C492D
:101F2000002008700B49087005F0ACFD10200090EF
:101F300009480A497E230078032200EB400051F84B
:101F400020000021006905F015FE08BDA800002052
:101F5000B1000020B3000020AC0000209CA70108C5
:101F60007047704710B505F0B7FF012005F008FA7B
:101F70000AF0EEFD0221BDE81040102008F02CBB55
:101F80000AF0E6BD704770477047000008B505F0DD
:101F900079FD0F48104A114B007800EB40010D48C5
:101FA00000EB8100106002791A700D4A00687E23F0
:101FB0001060102000900B48062250F821000021EC
:101FC000406805F0D7FDBDE80840FEF73BBD0000C6
:101FD000AC00002004A60108BC000020B2000020D4
:101FE000B80000209CA70108FEF7A0BDFEF71EBEAA
:101FF0000D4810B5007850B101280DD00C490B48A0
:10200000097800EB4100002130F8020C08E00AF0EA
:10201000D5FD0121D82003E00AF0D0FD0121E02008
:10202000BDE8104008F0D8BAB1000020C42200205A
:10203000AD0000200AF08CBD70477047704700006B
:1020400008B505F01FFD1548164A174B007800EB40
:102050004001134800EB8100106002791A70134AA6
:1020600000687E231060102000901148062250F86E
:1020700021000021806805F07DFD0E4800780228CF
:1020800008D10AF09BFD0C480C4990F89E0308709B
:102090000B490870BDE80840FEF7D4BCAC00002036
:1020A00074A50108BC000020B2000020B800002088
:1020B0009CA70108A800002024230020B1000020D4
:1020C000B3000020FEF732BDFEF7B0BD2DE9F041B0
:1020D0000AF074FD05F0D6FC0F48104D4FF46876F9
:1020E000047805F29E3185F89E4301220F46304662
:1020F000FEF7ACFA012239463046FEF774FA95F83D
:102100009E03A04201D1012000E0002005F038F933
:10211000BDE8F0410AF01CBDB100002024230020DE
:102120000AF016BD70477047704701214FF4E87000
:1021300008F052BA704770477047000070B53048D9
:10214000304E314C007886B0012806D12F4900204E
:10215000307008702E492079087005F093FC2D48E6
:102160002DA20421038901A80FF09EFB2CA10DF1E3
:102170000700FEF702F9102580230122002101A8A3
:10218000009505F0F7FC28A101A8FEF7F6F88023DA
:102190000322002101A8009505F0ECFC3078254DC4
:1021A000F0B1002005F034FE2878062200EB400054
:1021B000102154F82000006805F082FC012005F091
:1021C00027FE2878062200EB4000502154F820001A
:1021D000406805F075FC002005F01AFE06B070BDE1
:1021E000012005F015FE2878062200EB40001021A2
:1021F00054F82000006805F063FC0020DFE70000D1
:10220000A8000020B1000020F4A60108B3000020BF
:10221000B2000020C600002025303364000000001A
:10222000BAC5C9E8B1B80000C5E4D6C3CAA7B0DCD6
:1022300021000000AC00002010B508F0E9FDBDE869
:10224000104003214FF4EC7008F0C6B910B508F047
:10225000F5FDBDE8104003214FF4EC7008F0BCB967
:102260000848007840B1084A10899189884202D212
:10227000401C108100E01181012140F2D11008F0D2
:10228000ABB90000B1000020C6000020F8B521481D
:102290000078012820D12048002620A1067021487E
:1022A000FEF76BF81F4820A11130FEF766F8204DAD
:1022B0001C4820A26B89042112380FF0F5FA194C42
:1022C0002D20123C1BA2E070AB890421201D0FF0D1
:1022D000EBFA66740120287005F0D4FB1020009002
:1022E000164817497E230078012200EB400051F880
:1022F00020001449097850F82100002105F03AFC2B
:1023000001B01023BDE8F0407E22042123200AF012
:10231000CFBC0000A8000020B30000203030302DDA
:1023200030303000002300203939392D3939390057
:10233000C60000202530336400000000AC000020FF
:1023400054A70108B100002010B50AF063FCBDE8F5
:10235000104003214FF4E87008F03EB910B50AF0C0
:102360006FFCBDE8104003214FF4E87008F034B969
:1023700010B586B0032225496846FDF7C6FF6846BA
:10238000FEF704F8224C214903226081091D6846AA
:10239000FDF7BBFF6846FDF7F9FF80B2A0816189B8
:1023A000FF2901D8FF280AD91A481B49007800EBF9
:1023B000400051F82000006804F0CCFF13E02078C2
:1023C00001280CD121810AE0C0B2FEF737FE20704F
:1023D00068B1207AFEF77AFF2089401C208120898D
:1023E000A1898842F0D903214FF4E87009E00B4835
:1023F0000021006814F006FD0BF022FA04214FF4CE
:10240000EC7008F0E9F806B010BD0000EE220020E4
:10241000C6000020AC0000207CA601088C01002032
:102420000AF096BB70477047704700000D4808B52A
:102430000078012804D10C49002008700B4908706D
:1024400005F020FB1020009009480A497E230078FF
:10245000032200EB400051F820000021006905F044
:1024600089FB08BDA8000020B1000020B3000020B7
:10247000AC0000209CA701087047704710B50BF016
:10248000D1F9012004F07CFF0AF062FB0221BDE8D3
:102490001040182008F0A0B80AF05ABB70477047E7
:1024A0007047000038B51A480078012813D1194840
:1024B000002419A104701948FDF75FFF174818A1FF
:1024C0001130FDF75AFF154813A11238FDF755FFDB
:1024D00012481238447405F0D5FA102000901148C3
:1024E00011497E230078012200EB400051F82000C2
:1024F0000E49097850F82100002105F03BFB01B09E
:102500001023BDE830407E22042133200AF0D0BBE6
:10251000A8000020B300002030303000002300204D
:1025200039393900AC0000205CA50108B100002059
:1025300010B50AF06FFBBDE8104003214FF4C470E2
:1025400008F04AB810B50AF07BFBBDE81040032143
:102550004FF4C47008F040B838B51E48FDF716FFB8
:1025600084B2FA2C0AD91C481C49007800EB4000C0
:1025700051F82000006804F0EDFE25E018486B4695
:1025800000224FF48041006808F080FFE0B20CF0B8
:102590007DFC144D286809F0F5F88DF800006A46B6
:1025A0004FF47A71286809F0FBF89DF800100A29A9
:1025B00005D00178A14204D04078FD2801D0002048
:1025C00000E0012004F0DCFE03214FF4C47008F0A9
:1025D00003F838BDEE220020AC0000207CA60108E4
:1025E000700100206C0100200AF0B2BA70477047F9
:1025F00070470000F8B52848007801282ED12748F8
:10260000002627A106702948FDF7B7FE274828A114
:102610001130FDF7B2FE254C3220123C0022207012
:10262000302060702549264806F096FE234D25A2ED
:102630000321EB78A01C0FF037F92F2727716B7857
:1026400020A20321601D0FF02FF9E771AB781DA2C6
:10265000032104F108000FF027F9667405F012FA5F
:102660001020009019481A497E230078012200EBBF
:10267000400051F820001749097850F82100002146
:1026800005F078FA01B01023BDE8F0407E22042165
:1026900017200AF00DBB0000A8000020B3000020A6
:1026A000323030302F30312F303000000023002006
:1026B000323039392F31392F33390000C30E002021
:1026C00098DD00202530326400000000AC000020BE
:1026D00004A60108B100002010B50AF09BFA0321FE
:1026E000BDE81040E02007F077BF10B50AF0A8FA67
:1026F0000321BDE81040E02007F06EBF38B51BA0F5
:102700001B4D006800900222A91C6846FDF7FDFDE4
:102710006846FDF73BFE174C0222691DE0706846D3
:10272000FDF7F3FD6846FDF731FE6070022205F10A
:1027300008016846FDF7E9FD6846FDF727FEC2B2CD
:10274000A270E078617800F5FA60FEF79BFB2070DC
:1027500000222146084806F0A3FE012004F010FEE6
:102760000321E02007F038FF38BD00002A2A0000CE
:10277000EE220020C30E002098DD00200AF0E8B908
:1027800070477047704700002DE9FE43404F00241A
:10279000404E3878404D4FF02008012825D13F4861
:1027A0003FA1047005F11200FDF7E7FD3FA105F11F
:1027B0002300FDF7E2FDAC76192085F82B000120FF
:1027C000F0813020287068703120A87085F803806F
:1027D0002D21297169713E213748A97185F807803B
:1027E00090F8250128726C726C74387803282BD10C
:1027F000687C082828D00322274901A8FDF785FD19
:102800008DF807402448FDF7C1FD84B2FA2C12D997
:102810002A482B49007800EB400051F8200000685E
:1028200004F098FDF48927A2234604211A480FF0EA
:102830003BF885F80380F089A04205D01E48F4815A
:10284000204490F82401287205F01CF91020009013
:102850007E23012200211DA005F08CF910237E2289
:1028600004211B200AF024FA687C082802D10220E7
:1028700005F0CEFA287A1949042251F820005B218C
:1028800005F01EF9002005F0C3FABDE8FE83000044
:10289000A8000020C6000020EE220020B300002087
:1028A000303030202D2D3E203000000039393920C5
:1028B0002D2D3E207800000024230020AC000020B5
:1028C0007CA601082530336400000000C9E8B1B8D7
:1028D000BAC52020D7D6B7FB0000000000CE010803
:1028E00010B50AF097F9BDE8104003214FF49C7031
:1028F00007F072BE10B50AF0A3F9BDE8104003213D
:102900004FF49C7007F068BE2DE9FC4103221F497B
:102910006846FDF7FAFC00208DF803001B48FDF720
:1029200035FD80B2FA280AD919481A49007800EB17
:10293000400051F82000006804F00CFD1EE0164A2B
:10294000124D1418A71A297A84F8241104F59271EB
:1029500007F593770E46B8B20122FDF777FE3146B0
:10296000B8B20122FDF73FFE287A94F8241188427C
:1029700001D1012000E0002004F002FD03214FF40A
:102980009C7007F029FEBDE8FC810000EE220020CB
:10299000AC0000207CA60108242300200AF0D8B84F
:1029A00070477047704700000D4808B5007801284F
:1029B00004D10C49002008700B49087005F062F83A
:1029C0001020009009480A497E230078032200EB7A
:1029D000400051F820000021006905F0CBF808BD47
:1029E000A8000020B1000020B3000020AC000020AF
:1029F0009CA701087047704710B50AF013FF01202B
:102A000004F0BEFC0AF0A4F80221BDE8104010203A
:102A100007F0E2BD0AF09CB87047704770470000AD
:102A20002DE9F043DFF8B481DFF8B4912D2798F851
:102A300000006C4D00266C4C87B001281DD16B48FE
:102A40006BA1067004F11200FDF797FC6AA104F176
:102A50002300FDF792FCAB7869A2042120460EF01A
:102A600023FFE770A97866A209EBC1000421B0F842
:102A7000A633201D0EF018FF667498F80000032896
:102A800039D1607C032836D20322574901A8FDF7CB
:102A90003CFC8DF8076001A8FDF778FC80B2A882A5
:102AA000FA2812D958485949007800EB400051F8EB
:102AB0002000006804F04EFCAB7851A204214A4883
:102AC0000EF0F2FEE770A878A882A97880B288425A
:102AD00011D0C3B2AB704AA2042143480EF0E4FE09
:102AE000E770AA78201D09EBC20145A2B1F8A63310
:102AF00004210EF0D9FE04F0C5FF45A101A8FDF7A1
:102B00003CFC002101A8FDF70CFC03223649FDF72F
:102B1000FCFB10258DF80E607E230122002101A808
:102B2000009505F027F8607C3B4FDFF8F080032824
:102B30001BD2022005F06CF9002005F043F9607CFF
:102B40000122011901A8FDF7E0FB8DF80560607C0A
:102B5000397898F8002001EBC0001838C1B201A8FC
:102B600004F0AEFF002005F053F92DA101A8FDF7F8
:102B700004FC002101A8FDF7D4FB0322211DFDF771
:102B8000C4FB8DF80C607E230422002101A800956F
:102B900004F0F0FF607C001F03281BD2022005F028
:102BA00037F9002005F00EF9607C0122011901A817
:102BB000FDF7ABFB8DF80560607C397898F8002054
:102BC00001EBC0003838C1B201A804F079FF002041
:102BD00005F01EF907B0BDE8F0830000A800002052
:102BE00024230020C6000020EE220020B300002095
:102BF0003030302D303030003239392D393939000C
:102C00002530336400000000AC0000207CA60108E1
:102C1000C9E8B1B8BAC53A00A2000020A30000205C
:102C2000BBA8D1F93A00000010B509F0F3FFBDE8E8
:102C3000104003214FF4B47007F0CEBC10B509F07A
:102C4000FFFFBDE8104003214FF4B47007F0C4BC8F
:102C5000F8B5032228496846FDF757FB6846FDF79B
:102C600095FB264E24490322B082091D6846FDF7D4
:102C70004CFB6846FDF78AFB84B2B08AFA2802D87A
:102C8000B4F57A7F0AD31E481E49007800EB400055
:102C900051F82000006804F05DFB27E0C0B21A4D37
:102CA000B07005EBC00000F2A631A0F8A643401BAF
:102CB00000F56A7080B20222FDF7C8FCB0780222EB
:102CC00005EBC00000F2A631401B00F56A7080B22F
:102CD000FDF789FCB07805EBC000B0F8A603A04270
:102CE00001D1012000E0002004F04AFB03214FF451
:102CF000B47007F071FCF8BDEE220020C600002081
:102D0000AC0000207CA601082423002009F020BF8D
:102D1000704770477047000008B504F0B3FE1448D0
:102D2000154A164B007800EB4001124800EB810079
:102D3000106002791A70124A00687E231060102019
:102D400000901048062250F821000021406804F04D
:102D500011FF0D480078022806D109F02FFF0B491A
:102D6000002008700A490870BDE80840FDF76ABEF7
:102D7000AC0000205CA50108BC000020B2000020CF
:102D8000B80000209CA70108A8000020B100002086
:102D9000B3000020FDF7CABEFDF748BF234810B5B9
:102DA0000078092839D2DFE800F005090D13191F52
:102DB000252B2F0002214FF4C8702AE002214FF486
:102DC000AC7026E009F0FAFE01214FF4B07020E06B
:102DD00009F0F4FE01214FF4B4701AE009F0EEFEA0
:102DE00001214FF4B87014E009F0E8FE01214FF41E
:102DF000BC700EE009F0E2FE01214FF4CC7008E057
:102E000001214FF4D07004E009F0D8FE01214FF405
:102E1000F070BDE8104007F0DFBB064904480978B0
:102E200000EB4100002130F8020CF2E7B100002075
:102E3000C4220020AD00002009F08ABE08B504F0CD
:102E400021FE0F48104A114B007800EB40010D485D
:102E500000EB8100106002791A700D4A00687E2331
:102E60001060102000900B48062250F8210000212D
:102E7000406804F07FFEBDE80840FDF7E3BD0000B8
:102E8000AC0000203CA70108BC000020B2000020DC
:102E9000B80000209CA70108FDF748BEFDF7C6BE9C
:102EA0001B4810B50078072828D2DFE800F0040995
:102EB0000E11141A1F0009F081FE0121402019E0B3
:102EC00009F07CFE0121482014E00221A82011E035
:102ED0000221C8010EE009F071FE01214FF4847057
:102EE00008E009F06BFE0121502003E009F066FEC6
:102EF0000121E820BDE8104007F06EBB06490548F7
:102F0000097800EB4100002130F8020CF2E70000E4
:102F1000B1000020C4220020AD00002009F018BE3E
:102F2000704770477047000008B504F0ABFD1548C6
:102F3000164A174B007800EB4001134800EB810064
:102F4000106002791A70134A00687E231060102006
:102F500000901148062250F821000021806804F0FA
:102F600009FE0E480078022808D109F027FE0C4817
:102F70000C4990F8210008700B490870BDE8084022
:102F8000FDF760BDAC00002034A60108BC000020A5
:102F9000B2000020B80000209CA70108A800002073
:102FA00024230020B1000020B3000020FDF7BEBDA7
:102FB000FDF73CBE70B509F001FE04F063FD0E485C
:102FC0000E4D0E490478213105F8214F01220E469D
:102FD0002320FDF73BFB012231462320FDF703FBB5
:102FE0002878A04201D1012000E0002004F0C8F9B7
:102FF000BDE8704009F0ACBDB100002024230020E2
:1030000009F0A6BD704770477047000008B504F08E
:1030100039FD1448154A164B007800EB4001124860
:1030200000EB8100106002791A70124A00687E235A
:103030001060102000901048062250F82100002156
:10304000406804F097FD0D480078022806D109F089
:10305000B5FD0B49002008700A490870BDE808401A
:10306000FDF7F0BCAC0000201CA60108BC0000204D
:10307000B2000020B80000209CA70108A800002092
:10308000B1000020B3000020FDF750BDFDF7CEBD1C
:10309000184810B50078052823D2DFE800F00308AF
:1030A0000D13190009F08AFD0121C02015E009F077
:1030B00085FD0121C82010E009F080FD01214FF4B9
:1030C00088700AE009F07AFD01214FF48C7004E069
:1030D00009F074FD01214FF49070BDE8104007F035
:1030E0007BBA06490448097800EB4100002130F81A
:1030F000020CF2E7B1000020C4220020AD00002045
:1031000009F026BD704770477047000008B504F00D
:10311000B9FC1548164A174B007800EB40011348DC
:1031200000EB8100106002791A70134A00687E2358
:103130001060102000901148062250F82100002154
:10314000806804F017FD0E480078022808D109F0C5
:1031500035FD0C480C4990F8960308700B4908702F
:10316000BDE80840FDF76EBCAC000020ECA50108EE
:10317000BC000020B2000020B80000209CA701087D
:10318000A800002024230020B1000020B30000206C
:10319000FDF7CCBCFDF74ABD2DE9F04109F00EFD6D
:1031A00004F070FC0F48104D4FF46676047805F279
:1031B000963185F8964301220F463046FDF746FAD0
:1031C000012239463046FDF70EFA95F89603A042E3
:1031D00001D1012000E0002004F0D2F8BDE8F04168
:1031E00009F0B6BCB10000202423002009F0B0BCD7
:1031F00070477047704700002DE9F043DFF8C08149
:10320000DFF8C0912D2798F800006F4D00266F4C15
:1032100087B001281DD16E486EA1067004F112001E
:10322000FDF7ABF86EA104F12300FDF7A6F8EB78EB
:103230006EA2042120460EF037FBE770E9786DA2FC
:1032400009EBC1000521B0F8A833201D0EF02CFBBE
:10325000667498F80000032839D1607C032836D2C0
:1032600003225A4901A8FDF750F88DF8076001A81C
:10327000FDF78CF880B2E882FA2812D95F486049DD
:10328000007800EB400051F82000006804F062F87C
:10329000EB7856A204214D480EF006FBE770E87863
:1032A000E882E97880B2884211D0C3B2EB704FA2B5
:1032B000042146480EF0F8FAE770EA78201D09EB81
:1032C000C2014CA2B1F8A83305210EF0EDFA04F0CA
:1032D000D9FB4CA101A8FDF750F8002101A8FDF78A
:1032E00020F803223949FDF710F810258DF80E60FB
:1032F0007E230122002101A8009504F03BFC607CA4
:10330000424FDFF80C8103281BD2022004F080FD1D
:10331000002004F057FD607C0122011901A8FCF790
:10332000F4FF8DF80560607C397898F8002001EB97
:10333000C0001838C1B201A804F0C2FB002004F09C
:1033400067FD34A101A8FDF718F8002101A8FCF7DA
:10335000E8FF0422211DFCF7D8FF8DF80F60002143
:1033600001A8FCF7DEFF2DA1FDF707F87E2304225C
:10337000002101A8009504F0FDFB607C001F0428DB
:103380001BD2022004F044FD002004F01BFD607CF1
:103390000122011901A8FCF7B8FF8DF80560607CD7
:1033A000397898F8002001EBC0005038C1B201A86C
:1033B00004F086FB002004F02BFD07B0BDE8F0838D
:1033C000A800002024230020C6000020EE220020B8
:1033D000B30000203030302D30303030000000009D
:1033E0003239392D3939393900000000253033643C
:1033F000000000002530346400000000AC00002014
:103400007CA60108C9E8B1B8BAC53A00A2000020FC
:10341000A3000020B5C6D6E9CAFD3A00B8F6000000
:1034200010B509F0F7FBBDE8104003214FF4BC7064
:1034300007F0D2B810B509F003FCBDE81040032135
:103440004FF4BC7007F0C8B87CB503222849684621
:10345000FCF75BFF6846FCF799FF264E24490422DF
:10346000F082091D6846FCF750FF6846FCF78EFFA6
:1034700084B2F08AFA2802D8B4F5006F0AD91E483F
:103480001E49007800EB400051F82000006803F06E
:1034900061FF27E0C0B21A4DF07005EBC00000F5E7
:1034A0006A71A0F8A843401B00F2AA3080B2022241
:1034B000FDF7CCF8F078022205EBC00000F56A7148
:1034C000401B00F2AA3080B2FDF78DF8F07805EBD2
:1034D000C000B0F8A803A04201D1012000E0002004
:1034E00003F04EFF03214FF4BC7007F075F87CBD6C
:1034F000EE220020C6000020AC0000207CA60108BF
:103500002423002009F024BB38B504F0BBFA144C86
:10351000154A164B207800EB4001124800EB810061
:10352000106002791A70124A00687E231060102021
:1035300000901048062250F821000021806804F015
:1035400019FB0D480078022806D109F037FB0B491A
:10355000207808700A490870BDE83840FDF772BA53
:10356000AC00002084A70108BC000020B2000020AD
:10357000B80000209CA70108A8000020B10000208E
:10358000B3000020FDF7D2BAFDF750BB10B509F02B
:1035900015FB04F077FA0E480E4C007808B10128AC
:1035A00003D120700A2004F06FFA20780A4C02221E
:1035B000A11C60800420FDF749F80222A11C042010
:1035C000FDF711F804F05EFABDE8104009F0C0BA4A
:1035D000B1000020AC0000202423002009F0B8BA7C
:1035E00070477047704700002DE9F043DFF8C48151
:1035F000DFF8C4912D2798F80000704D0026704C1C
:1036000087B001281DD16F486FA1067004F1120028
:10361000FCF7B3FE6EA104F12300FCF7AEFE2B799C
:103620006DA2042120460EF03FF9E77029796CA2C3
:1036300009EBC100022190F8AD33201D0EF034F9E2
:10364000667498F80000032839D1607C032836D2CC
:1036500003225B4901A8FCF758FE8DF8076001A81A
:10366000FCF794FE80B22883FA2812D95E485F499D
:10367000007800EB400051F82000006803F06AFE7B
:103680002B7955A204214E480EF00EF9E7702879E7
:103690002883297980B2884211D0C3B22B714EA2FF
:1036A000042147480EF000F9E7702A79201D09EB44
:1036B000C2014BA291F8AD3302210EF0F5F804F0EF
:1036C000E1F94BA101A8FCF758FE002101A8FCF785
:1036D00028FE03223A49FCF718FE10278DF80E60E9
:1036E0007E230122002101A8009704F043FA607CA8
:1036F000DFF80481DFF8049103281CD2022004F0D3
:1037000087FB002004F05EFB607C0122011901A808
:10371000FCF7FBFD8DF80560617C98F8000099F8D6
:10372000002000EBC1001838C1B201A804F0C8F9AC
:10373000002004F06DFB0122211D01A8FCF7E5FD2E
:103740008DF8056001A8FCF721FEC5B22CA101A8E7
:10375000FCF713FE002101A8FCF7E3FD2B4E56F801
:103760002510FCF70AFE7E230422002101A8009701
:1037700004F000FA607C042819D1022004F048FB10
:10378000002004F01FFB56F8251001A8FCF7F5FDFA
:10379000617C98F8000099F8002000EBC1003038F7
:1037A000C1B201A804F08CF9002004F031FB07B08D
:1037B000BDE8F083A800002024230020C6000020DC
:1037C000EE220020B30000203030302D3000000009
:1037D0003239392D330000002530336400000000F9
:1037E0002530316400000000AC0000207CA60108F8
:1037F000C9E8B1B8BAC53A00A2000020A300002071
:10380000D1D5C9ABC4A3CABD3A00000088CF010816
:1038100010B509F0FFF9BDE8104003214FF4F07036
:1038200006F0DABE10B509F00BFABDE8104003212E
:103830004FF4F07006F0D0BEF8B503222A4968466E
:10384000FCF763FD00248DF803406846FCF79EFDFD
:10385000264E254901223083091D6846FCF755FD97
:103860008DF801406846FCF791FD84B2308BFA2850
:1038700001D8032C0AD91E481E49007800EB4000ED
:1038800051F82000006803F065FD27E0C0B21A4D32
:10389000307105EBC00000F2AD3180F8AD43401B44
:1038A00000F2AF3080B20122FCF7D0FE3079012265
:1038B00005EBC003581B00F2AF3003F2AD3180B20C
:1038C000FCF791FE307905EBC00090F8AD03A04203
:1038D00001D1012000E0002003F052FD03214FF44C
:1038E000F07006F079FEF8BDEE220020C600002040
:1038F000AC0000207CA601082423002009F028B990
:10390000704770477047000038B52248007801289A
:1039100017D12148002421A104702248FCF72DFD75
:10392000204821A11130FCF728FD214821A20521C2
:10393000B0F8A73B1B4812380DF0B6FF19481238F3
:10394000447404F09FF81D4C1020009020781C490E
:1039500000EB40007E2351F820001A49012209782B
:1039600050F82100002104F005F910237E220421E3
:10397000272009F09DF92078134900EB400051F809
:103980002000124940680A7811490978BDE838409A
:1039900004F096B8A8000020B3000020303030308A
:1039A00000000000002300203939393900000000F0
:1039B000242300202530346400000000AC000020E7
:1039C0005CA50108B100002094A60108A300002016
:1039D000A200002010B509F01DF9BDE81040032138
:1039E0004FF4CC7006F0F8BD10B509F029F9BDE828
:1039F000104003214FF4CC7006F0EEBD2DE9F041EC
:103A00001248FCF7C3FC124D84B205F6A73140F60C
:103A1000A936A5F8A74B02220F463046FCF716FE42
:103A2000022239463046FCF7DEFDB5F8A70BA0426E
:103A300001D1012000E0002003F0A2FCBDE8F0412C
:103A400003214FF4CC7006F0C7BD0000EE22002029
:103A50002423002009F07CB87047704770470000AD
:103A60002DE9F04F7E487F4C0025017887B004F1A6
:103A7000080B012925D17C487CA1057004F11200B6
:103A8000FCF77BFC7CA104F12300FCF776FC7D4E67
:103A90007DA2042196F8A233204606F2A2360DF04C
:103AA00003FF2D27E770737877A20421201D0DF006
:103AB000FBFEE771B37874A2042158460DF0F4FEC2
:103AC000657403F0DFFFDFF8C8A14FF01008CDF8F0
:103AD00000809AF800006F4900EB4000002251F886
:103AE00020006D494646574609787E2350F821004C
:103AF000114604F03FF83878DFF8A09100EB400160
:103B000059F82100016801A8FCF737FC002101A841
:103B1000FCF707FC03225349FCF7F7FB8DF80A502A
:103B20007E230222002101A8009604F023F8607C85
:103B30005B4E5C4F03281AD2022004F069F9002082
:103B400004F040F9607C0122011901A8FCF7DDFBBB
:103B50008DF80550607C31783A7801EBC000183858
:103B6000C1B201A803F0ACFF002004F051F99AF8AB
:103B7000000000EB400159F82100416801A8FCF762
:103B8000FCFB002101A8FCF7CCFB0322211DFCF764
:103B9000BCFB8DF80A507E230422002101A8CDF839
:103BA000008003F0E7FF607C001F03281AD2022088
:103BB00004F02EF9002004F005F9607C01220119BF
:103BC00001A8FCF7A2FB8DF80550607C31783A78AB
:103BD00001EBC0003838C1B201A803F071FF00202A
:103BE00004F016F99AF8000000EB400159F82100A2
:103BF000816801A8FCF7C1FB002101A8FCF791FB3B
:103C000003225946FCF781FB8DF80A507E230622D9
:103C1000002101A8CDF8008003F0ACFF607C0728EC
:103C20001AD9022004F0F4F8002004F0CBF8607CEC
:103C30000122011901A8FCF768FB8DF80550607C92
:103C400031783A7801EBC0005838C1B201A803F0CE
:103C500037FF002004F0DCF807B0BDE8F08F00006B
:103C6000A8000020EE220020B30000203030302DCC
:103C70003030302D303030003939392D3939392D47
:103C80003939390024230020253033640000000036
:103C9000AC0000205CA50108B100002044A501088B
:103CA000A2000020A300002010B508F0B3FF0321FC
:103CB000BDE81040C80106F08FBC10B508F0C0FF89
:103CC0000321BDE81040C80106F086BC2DE9FE4F77
:103CD0003CA00322006800903B496846FCF715FBB6
:103CE0006846FCF753FB384986B20322091D684633
:103CF000FCF70BFB6846FCF749FB334985B203220E
:103D000008316846FCF701FB6846FCF73FFB84B2CC
:103D1000FF2E03D8FF2D01D8FF2C0AD92B482C49A0
:103D2000007800EB400051F82000006803F012FB1F
:103D300041E0284F4FF4697807F2A23187F8A26377
:103D400087F8A35387F8A443012240460291FCF769
:103D50007DFC07F2A33140F2A53A012250460191C1
:103D6000FCF774FC07F5697140F2A63901228B4615
:103D70004846FCF76BFC012240460299FCF733FCF5
:103D8000012250460199FCF72EFC01225946484673
:103D9000FCF729FC97F8A203B04209D197F8A303D6
:103DA000A84205D197F8A403A04201D1012000E068
:103DB000002003F0E5FA0321C80106F00DFCBDE880
:103DC000FE8F00002A2A2A00EE220020AC000020EC
:103DD0007CA601082423002008F0BABE7047704773
:103DE0007047000008B503F04DFE1448154A164B05
:103DF000007800EB4001124800EB8100106002796E
:103E00001A70124A00687E2310601020009010483B
:103E1000062250F821000021406803F0ABFE0D4857
:103E20000078022806D108F0C9FE0B49002008706E
:103E30000A490870BDE80840FCF704BEAC00002049
:103E400014A50108BC000020B2000020B80000202A
:103E50009CA70108A8000020B1000020B3000020AA
:103E6000FCF764BEFCF7E2BE164810B5007870B1EE
:103E7000012812D0022816D003281AD0134912485C
:103E8000097800EB4100002130F8020C16E008F040
:103E900095FE01214FF4D47010E008F08FFE01214F
:103EA0004FF4D8700AE008F089FE01214FF4DC706D
:103EB00004E008F083FE01214FF4E070BDE81040FB
:103EC00006F08ABBB1000020C4220020AD00002013
:103ED00008F03EBE7047704770470000F8B51748BD
:103EE000174C184D0078012808D117481749007F52
:103EF00020700020087016492879087003F0C2FD70
:103F0000144F102600963878134900EB40007E23AA
:103F100051F8200001220021406A03F02BFE009698
:103F20003878217800EB40007E2355F820000422E9
:103F300050F82100002103F01DFEF8BDA80000206C
:103F4000B10000204CA6010824230020B30000206B
:103F5000B2000020AC00002054A7010810B506F004
:103F600057FF0321BDE81040902006F035BB10B587
:103F700006F064FF0321BDE81040902006F02CBB42
:103F800070B50F4D0F4C02222878A08304F11C015C
:103F90000E461E20FCF75AFB022231461E20FCF77B
:103FA00022FBA08B2978884201D1012000E000206B
:103FB00003F0E6F9BDE870400321902006F00CBB49
:103FC000B10000202423002008F0C2BD70477047D4
:103FD0007047000038B520480078012813D11F48E9
:103FE00000251F4C05701FA021A2008860821EA022
:103FF00002210088A4F823001C4890F820302046B5
:104000000DF052FC657403F03DFD1B4C1020009038
:1040100020781A4900EB40007E2351F8200018490F
:104020000122097850F82100002103F0A3FD10239C
:104030007E220421332008F03BFE2078114900EB5A
:10404000400051F82000104980680A780F4909782B
:10405000BDE8384003F034BDA8000020B3000020C4
:10406000EE22002030000000390000002423002050
:104070002530316400000000AC00002054A7010886
:10408000B100002094A60108A3000020A200002097
:1040900010B508F0BFFD0321BDE81040A02006F0D8
:1040A0009BBA10B508F030FE0321BDE81040A020F7
:1040B00006F092BA70B51048FCF768F90F4D0F4939
:1040C000C4B2203105F8204F01220E462220FCF711
:1040D000BDFA012231462220FCF785FA2878A04259
:1040E00001D1012000E0002003F04AF9BDE8704052
:1040F0000321A02006F070BAEE2200202423002025
:1041000008F026BD7047704770470000F8B51748A3
:10411000174C184D0078012808D117481749807F9F
:1041200020700020087016492879087003F0AAFC56
:10413000144F102600963878134900EB40007E2378
:1041400051F8200001220021806A03F013FD00963F
:104150003878217800EB40007E2355F820000422B7
:1041600050F82100002103F005FDF8BDA800002053
:10417000B100002064A6010824230020B300002021
:10418000B2000020AC00002054A7010810B506F0D2
:104190003FFE0321BDE81040982006F01DBA10B57F
:1041A00006F04CFE0321BDE81040982006F014BA3A
:1041B00070B50F4D0F4C02222878E08304F11E01E8
:1041C0000E462020FCF742FA022231462020FCF75E
:1041D0000AFAE08B2978884201D1012000E0002012
:1041E00003F0CEF8BDE870400321982006F0F4B942
:1041F000B10000202423002008F0AABC70477047BB
:1042000070470000F8B51848184C194D007801287F
:104210000AD1184818490078C0F3400020700020E7
:10422000087016492879087003F02CFC144F1026EA
:1042300000963878134900EB40007E2351F82000A7
:1042400001220021C06803F095FC0096387821789F
:1042500000EB40007E2355F82000042250F8210096
:10426000002103F087FCF8BDA8000020B100002069
:10427000DCA6010824230020B3000020B2000020A7
:10428000AC000020C4A6010810B506F0C1FD032152
:10429000BDE81040482006F09FB910B506F0CEFDED
:1042A0000321BDE81040482006F096B970B5114DC5
:1042B000114C02222978208861F341002080214698
:1042C0001046FCF7C3F9022221461046FCF78BF991
:1042D00020782978C0F34000884201D1012000E015
:1042E000002003F04DF8BDE870400321482006F09F
:1042F00073B90000B10000202423002008F028BC7E
:104300007047704770470000F8B51848184C194DB1
:104310000078012809D11848184990F8A90B207095
:104320000020087016492879087003F0ABFB154F80
:10433000102600963878144900EB40007E2351F88F
:10434000200001220021806803F014FC00963878D8
:10435000217800EB40007E2355F82000042250F81D
:104360002100002103F006FCF8BD0000A800002099
:10437000B1000020DCA6010824230020B3000020A7
:10438000B2000020AC00002014A5010810B506F012
:104390003FFDBDE8104003214FF4D47006F01CB976
:1043A00010B506F04BFDBDE8104003214FF4D4706A
:1043B00006F012B92DE9F041164D174C40F6AB3618
:1043C000287884F8A90B04F6A93101220F4630465B
:1043D000FCF73CF9012239463046FCF704F994F821
:1043E000A90B2978884201D1012000E0002002F0C9
:1043F000C7FF94F8A91B0948012908D001210170C1
:10440000BDE8F04103214FF4D47006F0E5B8002177
:10441000F5E70000B100002024230020C80E002092
:1044200008F096BB70477047704700002DE9F04FC9
:10443000ED4D0024ED4F287887B001280ED1EC48CF
:10444000ECA1047007F11200FBF797FFEDA107F153
:104450002300FBF792FF0DF03BF87C742878ED4EBB
:1044600003282BD1787C022828D20222DF4901A818
:10447000FBF74BFF8DF8064001A8FBF787FFE64DE1
:1044800080B21428688312D93078E44900EB4000E8
:1044900051F82000006802F05DFF6B79E0A2032173
:1044A000D2480DF001FA2D20B870687968836979D7
:1044B00080B2884202D068710DF00AF803F0E2FA87
:1044C0004FF0100BCDF800B03078002200EB400127
:1044D000D548B1467E2350F82100D449097850F8D8
:1044E0002100114603F046FB01223D46F91C01A8BC
:1044F000FBF70BFFA04627468DF8054001A8FBF708
:1045000045FFC4B2307800EB4001C94850F82100A3
:10451000016801A8FBF731FF002101A8FBF701FFAB
:10452000C4A109880180002101A8FBF7FAFE02223C
:10453000AE49FBF7EAFE8DF80D70002101A8FBF7EC
:10454000F0FEBDA109880180002101A8FBF7E9FE6A
:10455000BAA1FBF712FF002101A8FBF7E2FE3178B8
:10456000DFF8DCA201EB41025AF8221051F82410C6
:10457000FBF703FF002101A8FBF7D3FEAEA17E23CA
:10458000098801800222002101A8CDF800B003F0C3
:10459000F1FA687CAB4EAC4F02281AD2022003F02D
:1045A00037FC002003F00EFC687C0122411901A8B1
:1045B000FBF7ABFE8DF80580687C31783A7801EB2B
:1045C000C0004038C1B201A803F07AFA002003F01D
:1045D0001FFC687C03281DD1022003F019FC002079
:1045E00003F0F0FB99F8000000EB40015AF82100BD
:1045F00050F8241001A8FBF7C0FE697C30783A78A7
:1046000000EBC1003038C1B201A803F059FA002014
:1046100003F0FEFB7F48DFF81892007800EB4001C2
:1046200059F82100416801A8FBF7A7FE002101A865
:10463000FBF777FE7FA109880180002101A8FBF725
:1046400070FE0822691DFBF760FE44468DF811805C
:10465000002101A8FBF765FE77A17E230988018070
:104660000422002101A8CDF800B003F083FA687C91
:10467000401F02281AD2022003F0CAFB002003F0D8
:10468000A1FB687C0122411901A8FBF73EFE8DF8D1
:104690000540697C30783A7800EBC1007038C1B2CF
:1046A00001A803F00DFA002003F0B2FB687C083883
:1046B00002281AD2022003F0ABFB002003F082FB99
:1046C000687C0122411901A8FBF71FFE8DF8054007
:1046D000687C31783A7801EBC0007038C1B201A82B
:1046E00003F0EEF9002003F093FB687C0B380228FE
:1046F0001AD2022003F08CFB002003F063FB687CDD
:104700000122411901A8FBF700FE8DF80540687CE5
:1047100031783A7801EBC0007038C1B201A803F0DB
:10472000CFF9002003F074FB304901220E3101A8BB
:10473000FBF7EBFD8DF8054001A8FBF727FEDFF83E
:10474000D480C4B298F8000000EB400159F8210071
:10475000816801A8FBF711FE002101A8FBF7E1FD2C
:1047600036A1FBF70AFE002101A8FBF7DAFD98F855
:10477000001001EB41025AF8221051F82410FBF707
:10478000FCFD002101A8FBF7CCFD2BA17E230988AD
:1047900001800622002101A8CDF800B003F0EAF95B
:1047A000687C0D281DD9022003F032FB002003F0A5
:1047B00009FB98F8000000EB40015AF8210050F87E
:1047C000241001A8FBF7D9FD687C31783A7801EB19
:1047D000C0008838C1B201A803F072F9002003F0CC
:1047E00017FB07B0BDE8F08FA8000020EE220020E4
:1047F000B300002030312D302D30303A30303A3097
:10480000302D300039392D312D39393A39393A398D
:10481000392D3100AC000020C60000207CA6010824
:10482000253032640000000014A50108B10000200A
:10483000FCA401085B0000005D000000205B00009C
:10484000DCA60108A2000020A300002010B508F09B
:10485000E1F9BDE8104003214FF4DC7005F0BCBE67
:1048600010B508F0EDF9BDE8104003214FF4DC70FD
:1048700005F0B2BE70B588B002224F496846FBF71A
:1048800044FD00248DF802406846FBF77FFD4B4D48
:10489000494E01226883F11C6846FBF736FD8DF80E
:1048A00001406846FBF772FD8DF814000222711D6D
:1048B0006846FBF72AFD8DF802406846FBF766FD67
:1048C0008DF81500022206F108016846FBF71DFD70
:1048D0008DF802406846FBF759FD8DF8160002225C
:1048E00006F10B016846FBF710FD8DF802406846A3
:1048F000FBF74CFD8DF81700012206F10E0168460A
:10490000FBF703FD8DF801406846FBF73FFDC1B2A0
:104910008DF81810688B14280BD89DF81520172ACD
:1049200007D89DF816203B2A03D89DF817203B2A6C
:104930000AD923482349007800EB400051F82000B1
:10494000006802F007FD2EE0C0B268711E4C00EB5B
:1049500080002044059AC0F8A62B80F8AA1B00F618
:10496000A631001B00F6A83080B20522FBF76EFED0
:104970006879052200EB80000319181B00F6A830A7
:1049800003F6A63180B2FBF72EFE6879052200EB14
:104990008000011905A801F6A631FBF7E1FC48B13A
:1049A000002002F0EDFC03214FF4DC7005F014FE52
:1049B00008B070BD0120F4E7EE220020C600002000
:1049C000AC0000207CA601082423002008F0C0B819
:1049D000704770477047000038B5224800780128BA
:1049E00017D12148002421A104702248FBF7C5FCFF
:1049F000204821A11130FBF7C0FC214821A205214C
:104A0000B0F8A0331B4812380CF04EFF194812388A
:104A1000447403F037F81D4C1020009020781C4996
:104A200000EB40007E2351F820001A49012209784A
:104A300050F82100002103F09DF810237E2204216C
:104A4000272008F035F92078134900EB400051F891
:104A50002000124980680A7811490978BDE8384079
:104A600003F02EB8A8000020B30000203030303012
:104A7000000000000023002039393939000000000F
:104A8000242300202530346400000000AC00002006
:104A90005CA50108B100002094A60108A300002035
:104AA000A200002010B508F0B5F8BDE810400321C1
:104AB0004FF4B87005F090BD10B508F0C1F8BDE82E
:104AC000104003214FF4B87005F086BD2DE9F04188
:104AD0001948FBF75BFC84B2B4F5006F0AD917489C
:104AE0001749007800EB400051F82000006802F000
:104AF00031FC19E0134D40F2A23605F56871A5F8B6
:104B0000A04302220F463046FBF7A0FD02223946A1
:104B10003046FBF768FDB5F8A003A04201D10120A3
:104B200000E0002002F02CFCBDE8F04103214FF42E
:104B3000B87005F051BD0000EE220020AC0000204E
:104B40007CA601082423002008F002B808B502F072
:104B500099FF0F48104A114B007800EB40010D48B7
:104B600000EB8100106002791A700D4A00687E2304
:104B70001060102000900B48062250F82100002100
:104B8000406802F0F7FFBDE80840FBF75BBF00009C
:104B9000AC0000206CA70108BC000020B20000207F
:104BA000B80000209CA70108FBF7C0BFFCF73EB887
:104BB00010B508F003F802F065FF02F063FFBDE8EE
:104BC000104007F0C5BF07F0C3BF7047704770477C
:104BD000F8B51848184C194D007801280AD1184822
:104BE0001849007800F00100207000200870164974
:104BF0002879087002F046FF144F10260096387886
:104C0000134900EB40007E2351F8200001220021CF
:104C1000806802F0AFFF00963878217800EB400002
:104C20007E2355F82000042250F82100002102F0D4
:104C3000A1FFF8BDA8000020B1000020DCA60108FB
:104C400024230020B3000020B2000020AC0000208C
:104C5000C4A6010810B506F0DBF80321BDE810403A
:104C6000402005F0B9BC10B506F0E8F80321BDE816
:104C70001040402005F0B0BC70B5114D114C02221F
:104C80002978208861F30000208021461046FBF738
:104C9000DDFC022221461046FBF7A5FC207829788E
:104CA00000F00100884201D1012000E0002002F064
:104CB00067FBBDE870400321402005F08DBC00007B
:104CC000B10000202423002007F042BF7047704746
:104CD000704700002DE9F04FDFF83893D04CDFF833
:104CE000388399F800102D27CC4D002687B004F1A9
:104CF0000A0B012933D1CB48CBA1067004F1120075
:104D0000FBF73BFBCCA104F12300FBF736FB6B78F0
:104D1000CDA2042120460CF0C7FDE7706978CCA233
:104D200008EBC100032190F8AA33201D0CF0BCFD54
:104D3000A7716978C6A208EBC100032190F8AB33D4
:104D4000E01D0CF0B1FD67726978C1A208EBC100EB
:104D5000032190F8AC3358460CF0A6FD667499F820
:104D60000000DFF8F49203284FD1607C03284CD276
:104D70000322AB4901A8FBF7C8FA8DF8076001A828
:104D8000FBF704FB80B26882FA2812D999F8000078
:104D9000B24900EB400051F82000006802F0DAFA56
:104DA0006B78A9A204219E480CF07EFDE77068781C
:104DB0006882697880B2884227D0C3B26B70A2A2A1
:104DC000042197480CF070FDE7706978A0A208EB09
:104DD000C100032190F8AA33201D0CF065FDA771D6
:104DE00069789BA208EBC100032190F8AB33E01D6A
:104DF0000CF05AFD6772697895A208EBC100032197
:104E000090F8AC3358460CF04FFD02F03BFE94A1F5
:104E100001A8FBF7B2FA002101A8FBF782FA0322EE
:104E20007F49FBF772FA4FF0100800228DF80E60F0
:104E30007E23114601A8CDF8008002F09BFE607C25
:104E4000894D8A4F03281AD2022002F0E1FF002088
:104E500002F0B8FF607C0122011901A8FBF755FAA6
:104E60008DF80560607C29783A7801EBC00018382D
:104E7000C1B201A802F024FE002002F0C9FF99F897
:104E80000000DFF8ECA100EB40015AF821000168B6
:104E900001A8FBF772FA002101A8FBF742FA0222EF
:104EA000211DFBF732FA8DF80B60002101A8FBF7FA
:104EB00038FA70A1FBF761FA7E230222002101A8D3
:104EC000CDF8008002F056FE607C001F02281AD246
:104ED000022002F09DFF002002F074FF607C01229E
:104EE000011901A8FBF711FA8DF80560607C29789B
:104EF0003A7801EBC0004838C1B201A802F0E0FDE9
:104F0000002002F085FF99F8000000EB40015AF8FC
:104F10002100416801A8FBF730FA002101A8FBF746
:104F200000FA0222E11DFBF7F0F98DF80B60002179
:104F300001A8FBF7F6F94FA1FBF71FFA7E23042225
:104F4000002101A8CDF8008002F014FE607CC01F93
:104F500002281AD2022002F05BFF002002F032FF8A
:104F6000607C0122011901A8FBF7CFF98DF80560DB
:104F7000607C29783A7801EBC0006038C1B201A8A2
:104F800002F09EFD002002F043FF99F8000000EBC4
:104F900040015AF82100816801A8FBF7EEF90021D1
:104FA00001A8FBF7BEF902225946FBF7AEF98DF8CE
:104FB0000B60002101A8FBF7B4F92EA1FBF7DDF986
:104FC0007E230622002101A8CDF8008002F0D2FD48
:104FD000607C0A3802281AD2022002F019FF002051
:104FE00002F0F0FE607C0122011901A8FBF78DF9A7
:104FF0008DF80560607C29783A7801EBC00078383C
:10500000C1B201A802F05CFD002002F001FF07B070
:10501000BDE8F08FA800002024230020C600002057
:10502000EE220020B30000203030302D30302D3003
:10503000302D3030000000003239392D33392D3316
:10504000392D3339000000002530336400000000A2
:105050002530326400000000AC0000207CA601086E
:10506000C9E8B1B8BAC53A00A2000020A3000020E8
:105070002CA501086670730010B507F0CBFDBDE8E4
:10508000104003214FF4B07005F0A6BA10B507F038
:10509000D7FDBDE8104003214FF4B07005F09CBA75
:1050A0002DE9F84359A0032200680090584968464A
:1050B000FBF72BF900248DF803406846FBF766F9EF
:1050C000544D534E02226882311D6846FBF71DF98C
:1050D0008DF802406846FBF759F900F0FF080222FC
:1050E000F11D6846FBF711F98DF802406846FBF7A1
:1050F0004DF9C7B2022206F10A016846FBF705F92D
:105100008DF802406846FBF741F9C6B2688AFA2872
:1051100006D8B8F11E0F03D81E2F01D81E2E0AD9AB
:105120003D483E49007800EB400051F820000068FF
:1051300002F010F963E0C0B2394C687004EBC000B3
:1051400000F2AA3180F8AA8380F8AB7380F8AC63D0
:10515000001B00F56B7080B20122FBF777FA6878CC
:10516000012204EBC003181B00F2AD3003F2AB3197
:1051700080B2FBF76BFA6878012204EBC003181BBE
:1051800000F2AE3003F56B7180B2FBF75FFA68781E
:10519000012204EBC003181B00F56B7003F2AA3167
:1051A00080B2FBF720FA6878012204EBC00000F21D
:1051B000AB31001B00F2AD3080B2FBF714FA687817
:1051C000012204EBC003181B00F2AE3003F56B7133
:1051D00080B2FBF708FA687804EBC00090F8AA23C5
:1051E000424509D190F8AB13B94205D190F8AC0310
:1051F000B04201D1012000E0002002F0C1F80321FB
:105200004FF4B07005F0E8F9BDE8F8832A2A2A00C7
:10521000EE220020C6000020AC0000207CA6010881
:105220002423002007F094BC08B502F02BFC0F48A3
:10523000104A114B007800EB40010D4800EB810053
:10524000106002791A700D4A00687E2310601020E9
:1052500000900B48062250F821000021406802F01F
:1052600089FCBDE80840FBF7EDBB0000AC00002066
:1052700054A70108BC000020B2000020B8000020A4
:105280009CA70108FBF752BCFBF7D0BC354810B512
:10529000007810285DD2DFE800F0080D12171C21FD
:1052A000262B30353A3F44494F5307F087FC012104
:1052B00030204AE007F082FC0121382045E007F069
:1052C0007DFC0121582040E007F078FC012160209E
:1052D0003BE007F073FC0121682036E007F06EFC2C
:1052E0000121702031E007F069FC012178202CE0D9
:1052F00007F064FC0121802027E007F05FFC01211A
:10530000882022E007F05AFC012198201DE007F0D8
:1053100055FC0121A02018E007F050FC0121F020ED
:1053200013E007F04BFC0121F8200EE007F046FCEB
:1053300001214FF4A47008E001214FF4A87004E0AB
:1053400007F03CFC01214FF4E870BDE8104005F087
:1053500043B906490448097800EB4100002130F8C0
:10536000020CF2E7B1000020C4220020AD000020B2
:1053700007F0EEBB704770477047000038B51C4817
:105380000078012817D11B4800241BA104701B487A
:10539000FAF7F3FF19481AA11130FAF7EEFF19488E
:1053A00019A2042190F82330144812380CF07CFA2A
:1053B00012481238447402F065FB10200090144823
:1053C00014497E230078012200EB400051F82000B0
:1053D0001149097850F82100002102F0CBFB01B0FF
:1053E0001023BDE830407E220421332007F060BC4A
:1053F000A8000020B300002030303000002300203F
:10540000393939002423002025303364000000009E
:10541000AC0000201CA60108B100002010B507F068
:10542000F9FB0321BDE81040C02005F0D5B810B548
:1054300007F006FC0321BDE81040C02005F0CCB801
:1054400070B51748FAF7A2FF84B2FF2C0AD91548A5
:105450001549007800EB400051F82000006801F089
:1054600079FF16E0114D11490122233105F8234F30
:105470000E462520FBF7EAF8012231462520FBF7EE
:10548000B2F82878A04201D1012000E0002001F00C
:1054900077FFBDE870400321C02005F09DB80000F3
:1054A000EE220020AC0000207CA60108242300206E
:1054B00007F04EBB70477047704700002DE9FE4370
:1054C000314E334C20273178DFF8C080002504F1BD
:1054D0000809012920D12F482FA1057004F11200DD
:1054E000FAF74BFF2FA104F12300FAF746FF302013
:1054F000207060703120A070E7702D2020716071E5
:105500003E20A071E77198F8243029A20221484674
:105510000CF0CAF9657265743078032821D1607C7B
:1055200008281ED003221A4901A8FAF7EEFE8DF8CA
:1055300007501748FAF72AFF86B2FA2E07D9FA263B
:1055400033461DA2022112480CF0AEF9E77008EBB9
:10555000060017A290F82430022148460CF0A4F966
:10556000657202F08FFA102000907E230122002144
:1055700013A002F0FFFA10237E220421132007F06B
:1055800097FBBDE8FE830000A80000202423002034
:10559000EE220020B3000020303030202D2D3E20A0
:1055A00030000000393939202D2D3E20390000000F
:1055B0002530316400000000253033640000000015
:1055C000C5C5BAC52020C9E8B1B8CAFD00000000B1
:1055D00010B507F01FFB0321BDE81040C82004F000
:1055E000FBBF10B507F02CFB0321BDE81040C8201D
:1055F00004F0F2BF2DE9FC41032222496846FAF784
:1056000084FE00258DF803506846FAF7BFFE1D4959
:10561000C4B2012208316846FAF777FE8DF80150CE
:105620006846FAF7B3FEC5B2FA2C0AD916481749EC
:10563000007800EB400051F82000006801F08AFE7D
:105640001AE0134801220444271A04F124012637E2
:1056500084F824500E46B8B2FAF7F8FF3146B8B2D3
:105660000122FAF7C0FF94F82400A84201D10120DA
:1056700000E0002001F084FE0321C82004F0ACFF0C
:10568000BDE8FC81EE220020AC0000207CA60108D1
:105690002423002007F05CBA704770477047000071
:1056A00008B502F0EFF91548164A174B007800EBE1
:1056B0004001134800EB8100106002791A70134A10
:1056C00000687E231060102000901148062250F8D8
:1056D00021000021806802F04DFA0E48007802286F
:1056E00008D107F06BFA0C480C4990F822000870BA
:1056F0000B490870BDE80840FBF7A4B9AC000020D6
:10570000BCA50108BC000020B2000020B8000020A9
:105710009CA70108A800002024230020B10000203D
:10572000B3000020FBF702BAFBF780BA70B507F0B0
:1057300045FA02F0A7F90E480E4D0E4904782231C1
:1057400005F8224F01220E462420FAF77FFF01229E
:1057500031462420FAF747FF2878A04201D10120E2
:1057600000E0002001F00CFEBDE8704007F0F0B949
:10577000B10000202423002007F0EAB970477047E9
:105780007047000008B502F07DF91548164A174B1E
:10579000007800EB4001134800EB810010600279B3
:1057A0001A70134A00687E23106010200090114880
:1057B000062250F821000021406802F0DBF90E4873
:1057C0000078022808D107F0F9F90C480C4990F844
:1057D000220008700B490870BDE80840FBF732B999
:1057E000AC000020D4A50108BC000020B2000020BD
:1057F000B80000209CA70108A80000202423002056
:10580000B1000020B3000020FBF790B9FBF70EBAFF
:105810000E4810B5007850B101280ED00D490C4843
:10582000097800EB4100002130F8020C0AE007F093
:10583000C5F901214FF49C7004E007F0BFF9012184
:105840004FF4A070BDE8104004F0C6BEB1000020C7
:10585000C4220020AD00002007F07AB970477047DD
:105860007047000038B51C480078012817D11B4844
:1058700000241BA104701B48FAF77FFD19481AA1E8
:105880001130FAF77AFD194819A2042190F824334F
:10589000144812380CF008F812481238447402F018
:1058A000F1F810200090144814497E23007801225A
:1058B00000EB400051F820001149097850F8210010
:1058C000002102F057F901B01023BDE830407E22DC
:1058D0000421332007F0ECB9A8000020B300002019
:1058E00030303000002300203939390024230020D3
:1058F0002530336400000000AC0000201CA6010825
:10590000B100002010B507F085F9BDE81040032173
:105910004FF4887004F060BE10B507F091F9BDE84F
:10592000104003214FF4887004F056BE2DE9F04179
:105930001848FAF72BFD84B27D2C0AD9164817496E
:10594000007800EB400051F82000006801F002FDF3
:1059500019E0134D40F2263605F5497185F82443C8
:1059600001220F463046FAF771FE012239463046D1
:10597000FAF739FE95F82403A04201D1012000E096
:10598000002001F0FDFCBDE8F04103214FF48870D8
:1059900004F022BEEE220020AC0000207CA601080C
:1059A0002423002007F0D4B87047704770470000E8
:1059B00038B51A480078012813D11948002419A1D4
:1059C00004701948FAF7D9FC174818A11130FAF7F2
:1059D000D4FC154813A11238FAF7CFFC124812383C
:1059E000447402F04FF810200090114811497E23B2
:1059F0000078012200EB400051F820000E490978A0
:105A000050F82100002102F0B5F801B01023BDE8E4
:105A100030407E220421332007F04AB9A80000203C
:105A2000B300002030303000002300203939390025
:105A3000AC00002054A70108B100002010B507F009
:105A4000E9F80321BDE81040302004F0C5BD10B5D1
:105A500007F0F6F80321BDE81040302004F0BCBD8B
:105A60002DE9FC412248FAF791FC84B2FA2C0AD9BC
:105A700020482149007800EB400051F820000068E0
:105A800001F068FC2BE01D4D4FF4804701AB002274
:105A90003946286805F0FAFC194E0120E2B2307050
:105AA000FD217F2009F066F90024347001A80090E0
:105AB0004FF47A7382223946286805F02DFC9DF850
:105AC00004000A2811D0012001F05AFC0D4804708E
:105AD00044708470C470047144718471C471032172
