:020000040800F2
:10000000A0960020650100086D010008D54E00088B
:10001000710100087301000875010008000000006C
:100020000000000000000000000000007701000850
:100030007901000800000000CB010008017D0008E4
:100040007F0100087F0100087F0100087F01000890
:100050007F0100087F0100087F0100087F01000880
:100060007F0100087F0100087F0100087F01000870
:100070007F0100087F0100087F0100087F01000860
:100080007F0100087F0100087F0100087F01000850
:100090007F0100087F0100087F0100087F01000840
:1000A0007F0100087F0100087F0100087F01000830
:1000B000F17D00087F0100087F0100087F01000832
:1000C0007F0100087F0100087F0100087F01000810
:1000D0007F010008D18300087F010008C98400085F
:1000E0007F0100087F0100087F0100080000000078
:1000F0000000000000000000000000000000000000
:1001000000000000000000007F0100087F010008DF
:100110007F0100087F010008D57E0008257F0008C8
:100120007F0100087F0100087F0100087F010008AF
:100130007F01000800000000000000007F010008AF
:100140007F0100087F0100087F010008D9690008CD
:10015000DFF80CD000F01EF90048004745C4000845
:10016000A09600200648804706480047FEE7FEE7C5
:10017000FEE7FEE7FEE7FEE7FEE7FEE7FEE7FEE757
:100180009D7D000851010008EFF3108072B67047A2
:1001900080F3108870471D484FF0FF010170002068
:1001A00080F309881A48012101701A484FF08051E4
:1001B000016062B6FEE717484FF08051016070475A
:1001C00014484FF080510160704772B6EFF3098018
:1001D00028B1203880E8F00F0F490968086000B5A1
:1001E0000E4880475DF804EB0D480E490A7802700E
:1001F00009480D490A680260106890E8F00F203045
:1002000080F309884EF0040E62B6704722ED00E0DC
:10021000D700002004ED00E0F0000020A5630008F6
:10022000D4000020D5000020F800002040EA01039F
:100230009B0703D009E008C9121F08C0042AFAD29C
:1002400003E011F8013B00F8013B521EF9D2704760
:10025000D2B201E000F8012B491EFBD27047002208
:10026000F6E710B513460A4604461946FFF7F0FFB5
:10027000204610BDCAB2401E10F8011F8A4202D0AB
:100280000029F9D100207047421C10F8011B0029F9
:10029000FBD1801A704710B5002200E0521C835C2D
:1002A0008C5CA34201D1002BF8D1D8B2E1B2401A44
:1002B00010BD034611F8012B00F8012B002AF9D1DB
:1002C0001846704770B506460AF03AFA04680546C3
:1002D0000A220021304600F025F82C6070BD70B570
:1002E00006460AF02DFA046805460A220021304627
:1002F00000F018F82C6070BD30B50B4601460020A8
:100300002022012409E021FA02F59D4205D303FAD7
:1003100002F5491B04FA02F52844151EA2F1010258
:10032000F1DC30BD2DE9F04791460F46804604468A
:10033000002614F8015B2DB100F03EF80068405D26
:10034000C007F6D12B2D02D02D2D18D0641E4A46A1
:100350003946204600F034F827B13968A14201D16E
:10036000C7F8008071054FF002040BD54042002809
:1003700003DD0AF0E5F90460A007BDE8F08746F464
:100380008066E4E70028F8DA0AF0DAF904606FF032
:100390000040F2E7064C074D06E0E06840F001033C
:1003A00094E8070098471034AC42F6D3FFF7D4FE28
:1003B000B8F50008D8F500080048704760F100085B
:1003C0002DE9F05F82460078002715468B460AF13A
:1003D0000104B946302801D09DB113E014F8010B97
:1003E0000127782803D0582801D045B10AE00DB183
:1003F000102D07D10027102514F8010B02E0082565
:1004000000E00A250026B0460EE005FB080005FBCB
:1004100006F1012701EB10461FFA80F8B6F5803F80
:1004200000D3B94614F8010B294600F018F800284B
:10043000EBDABBF1000F05D00FB1641E00E05446AB
:10044000CBF80040B9F1000F06D00AF079F902218B
:100450000160C81EBDE8F09F48EA0640FAE73A2866
:1004600000D2303820F02002412A01D3A2F1370017
:10047000884201D34FF0FF30704730B58C1810F828
:10048000012B12F00F0301D110F8013B120906D124
:1004900010F8012B03E010F8015B01F8015B5B1E13
:1004A000F9D101E001F8013B521EFBD1A142E6D394
:1004B000002030BD10B504F031FDBDE8104002F061
:1004C00066BB70B515460E46044608E02046641C1F
:1004D000A4B200F007F86D1E06F8010BADB2002DB6
:1004E000F4D170BD10B5044604F0BEFD200AA02171
:1004F00001EB4000C0B204F087FD04F0F9FDE0B26A
:1005000004F082FD04F0F4FD04F0AEFDA12004F03F
:100510007BFD04F0EDFD002004F046FD044604F0F0
:10052000C5FD204610BD70B514460D46064606E0D2
:100530002978304600F007F8761CB6B26D1C641EB0
:10054000A4B2F5D270BD70B50D46044604F08CFD22
:10055000200AA02101EB4000C0B204F055FD04F0D8
:10056000C7FDE0B204F050FD04F0C2FD284604F0DF
:100570004BFD04F0BDFD04F099FDBDE870400A207C
:100580000AF06ABD7CB51F481F4D4FF48074C168E6
:100590004FF47A7048430A22B0FBF2F001902868C9
:1005A000A9B1A1F5C3329F3A0BD0694605F09DFB76
:1005B000164A1749C0074FF000030BD00B60537069
:1005C0007CBD6B460022214605F034FB7CBD6B46AA
:1005D0000122F8E70868019EB04203D200F1010051
:1005E00008607CBDFDD100F1010008604FF0010002
:1005F0005070D3700BF0FCFE6B4601222146286838
:10060000E2E70000701000202801002066000020B2
:10061000840000203EB520480A22204C418BB1FBCB
:10062000F2F1019181684FF47A704843B0FBF2F027
:100630000290206991B1A1F5C3329F3A08D0694672
:1006400005F053FB1649C2070BD0002008603EBDE1
:100650006B460022042105F0EDFA3EBD6B460122F7
:10066000F8E74007F9D40868401C0860019A4FF485
:100670008051904202D16B4601220AE0029A9042D8
:10068000EBD96B460022206905F0D4FA01226B46B3
:1006900004212069DFE7000070100020180100200D
:1006A0008000002010B502F069FF07F037FB00F072
:1006B00019FBFFF7FFFE04F0B3FF04F0D5FF04F0D1
:1006C000BFFF05F00FF80CF063F804F05BFD07F0D6
:1006D00023FE07F02FFE07F08FFEBDE8104004F068
:1006E000F5BD00002DE9FF4F2D20B0FBF1F081B0EA
:1006F000491E01989B4600EB800202EB401090FBE4
:10070000F1F00004000CC6B200D1032603980025C6
:10071000012100F1010900F1020801EBD604B5EB5B
:10072000D60F11D0AC420FD02A460020039902F018
:10073000E3F909F0FF012A46FF2002F0DDF908F095
:10074000FF012A46002033E0F008DFF84CA106F054
:10075000070700901AF80700009A039902F0CCF9F5
:100760001AF8070009F0FF01C0F1FF00009A02F03B
:10077000C3F908F0FF011AF80700009A02F0BCF96B
:10078000062C17D20AF1090A22461AF80700039923
:1007900002F0B2F91AF80700224609F0FF01C0F191
:1007A000FF0002F0A9F9224608F0FF011AF807003D
:1007B00002F0A2F96D1CEDB2062DB0D3012002F0BB
:1007C000DFFB01980025401CC6B26420B6FBF0F4A4
:1007D000ABF10C00C1B23CB104F13000C0B2072251
:1007E00002F03CFA012503E00722202002F036FA4D
:1007F0002720444306EB8400C4B20A26B4FBF6F279
:10080000ABF1060002B925B1C1B23032D0B2072235
:1008100002E0C1B20722202002F020FAB4FBF6F079
:1008200006FB10403030C0B20722594602F016FADB
:100830001A4F3878012828D9002422E01849001BD3
:100840000844624210F8010C0BEBC205401CC0B218
:10085000B0FBF6F106FB1100A5F108013030C9B27A
:10086000C0B2072202F0FAF9681EC1B207221020B6
:1008700002F042F9E9B20722102002F03DF9641CAF
:10088000E4B23878411E8C42D8DB05B00020BDE8C8
:10089000F04F02F075BB0000ADE10008B100002090
:1008A00037100020F8B5002415460E460746012BE8
:1008B00004D07823009402F03BFAF8BD012002F046
:1008C00085FB78232A4631463846009402F030FAF8
:1008D000BDE8F840002002F079BB00002DE9F047A8
:1008E000DFF8C8A0DFF8C8809AF80000032803D911
:1008F000032288F8002001E088F800002D49002438
:100900002D4F09782D4E012902D0022905D010E083
:1009100006F09EF83C7034700FE098F800103278C2
:10092000491E8A4200DD34703A78411E8A4200DD59
:100930003C7039783278914202D33878317800E0CF
:10094000511A401AC4B20025DFF8749020E03878BC
:10095000844208D1317849060A0ED9F800100123E3
:1009600051F8200006E06806020ED9F800000023C6
:1009700050F824000021FFF795FF9AF80000401E70
:10098000844201D1002401E0641CE4B26D1CEDB28C
:1009900098F800008542DAD39AF800103878BDE85C
:1009A000F04778237D22FFF79DBE0000B5000020B0
:1009B000B7000020AD000020B4000020B6000020E9
:1009C000B80000202DE9F047DFF8E080364E98F8B7
:1009D00000403178601EC2B271B1481E3070344F91
:1009E000344D3B7828684BB15A06120E5B1E3B70A3
:1009F00050F82100002337E03270F0E7032C2ED9A5
:100A000034784FF0000A5246A94650F824000123DA
:100A10005146FFF747FF98F80000401E844201D17D
:100A2000002401E0641CE4B201256806020ED9F836
:100A300000000023194650F82400FFF733FF98F810
:100A40000000401E844201D1002401E0641CE4B295
:100A50006D1CEDB2032DE8D387F800A012E03A70C8
:100A600050F8210000231A460021FFF71BFF3878B9
:100A700031784006020E2868012350F82100002139
:100A8000FFF710FF78237D2298F800103078FFF7E9
:100A900029FE0A49084809780844002110F8010C89
:100AA000BDE8F04704F066BBB4000020B5000020AC
:100AB000B6000020B80000202C100020B00000205C
:100AC0002DE9F047DFF8EC80394E002498F800203B
:100AD0003178501E814201D1347001E0481C3070E1
:100AE0003648354F364D90F800C03B78ACF1010CDC
:100AF0002868634504D05A06120E5B1C3B7034E034
:100B00006FF00103032A2CD9347899460422AA46AF
:100B100050F8240001230021FFF7C4FEBCB1641E7D
:100B2000E4B2022509EB4500C2B2DAF80000002366
:100B3000194650F82400FFF7B5FE6CB1641EE4B20C
:100B40006D1E15F0FF05EDD1022038701EE098F8FB
:100B50000000401EC4B2E4E798F80000401EC4B292
:100B6000EEE703EB42023C70D2B250F821000023C2
:100B70001946FFF797FE387831784006020E28684C
:100B8000012350F821000021FFF78CFE78237D22FD
:100B900098F800103078FFF7A5FD0B49094809784F
:100BA0000844002110F8010CBDE8F04704F0E2BA57
:100BB000B4000020B5000020B6000020B7000020DF
:100BC000B80000202C100020B00000202DE9F041DA
:100BD00001270BF0C7FB20F0C0002C4C2C4D2D4EF4
:100BE0000B3807283ED2DFE800F00B1A2104282F2B
:100BF0003600207800EB400005EB8000407805E0EF
:100C0000207800EB400005EB80008078207000EB3E
:100C1000400005EB800080683060804723E020784A
:100C200000EB400005EB8000C078EFE7207800EB98
:100C3000400005EB80000079E8E7207800EB4000F9
:100C400005EB80008079E1E7207800EB400005EBC0
:100C500080004079DAE7207800EB400005EB800067
:100C6000C079D3E70027DFF8308098F8000050B152
:100C7000207800EB400005EB800080683060804702
:100C8000002188F800103846BDE8F081AE00002051
:100C9000D8E70008C0000020AD00002010B50021FA
:100CA0000A4600EB8103491CC3F87C230F29F8D3C3
:100CB00000214FF400734418491C84F81C21994208
:100CC000F9D30270427001218170C0F8B823017617
:100CD00040238371427680F81C2380F81D13002086
:100CE00010BD000038B52648C16941F00101C1615D
:100CF000C069244C00F0010000904FF0804020605B
:100D00000020214DE0604821606029702061A060D2
:100D1000204603F030FD2068016841F004010160C5
:100D20002068016A41F21112114207D1016A921042
:100D3000114203D1016821F001010160062002F097
:100D40008BFC022200211C2002F066FC1C2002F019
:100D500057FC0E480E490068B0FBF1F14FF47A7071
:100D60004143012068804FF0E020026942F0020216
:100D700002614161016941F00101016138BD00007A
:100D800000100240F00F0020A200002020000020F0
:100D900040420F0030B5212800D92138012202EB52
:100DA00010431C4A127803FB02F41B4A1568AC621C
:100DB000B0FBF3F41568EC62B0FBF3F0D0601068A0
:100DC0006FF0010505611368002058621068036820
:100DD00043F00103036041F211139C1011B101298A
:100DE00011D004E010680169C907FCD005611068E2
:100DF000016A194206D1016A214203D1016821F03A
:100E00000101016030BD1068C16841F00101C1609D
:100E100030BD0000A2000020F00F002010B500221D
:100E2000114607A001F02AFF0222002107A001F0CD
:100E300025FF0422BDE81040002107A001F01EBFDD
:100E40004275696C642054696D653A00446563209D
:100E5000313520323031380031323A31333A3333A0
:100E60000000000005F0BEBD2DE9F843234D2449E4
:100E7000DFF890802878244F00EB400001EB8002DF
:100E8000137988F8003051F82000386001F0D8FE5E
:100E90001E481F4C0078012805D105F0D9FD1D49D9
:100EA00000202070087010260096217838680022F3
:100EB0007E2350F82100114601F03AFF16482178B0
:100EC000022250F82100302101F0FCFF0096287822
:100ED000124900EB40007E2351F820000622002139
:100EE000406801F025FF98F80010207801B07823C1
:100EF000BDE8F0437D22FFF7F5BB0000AF00002006
:100F000030E70008B5000020B8000020AD00002048
:100F1000B4000020B6000020C0E70008A8E70008E1
:100F200038B5164C164D207800B928780022401E9E
:100F3000207010200090134821787E23006850F81C
:100F40002100114601F0F4FE0F482178022250F8EA
:100F50002100302101F0B6FF78237D222978207806
:100F6000FFF7C0FB0A49094809780844002110F836
:100F7000010CBDE8384004F0FDB80000B4000020CA
:100F8000B5000020B8000020C0E700082C100020A9
:100F9000B000002038B5194D174C29782078491E2B
:100FA000884201D1002000E0401C207010200090F9
:100FB00013482178002200687E2350F82100114652
:100FC00001F0B6FE0F482178022250F821003021AE
:100FD00001F078FF78237D2229782078FFF782FBC3
:100FE0000A49094809780844002110F8010CBDE8B5
:100FF000384004F0BFB80000B4000020B500002065
:10100000B8000020C0E700082C100020B00000202D
:10101000134810B501781448124A06290078104484
:101020001AD2DFE801F003080D19121201F008FED0
:10103000012110200CE001F003FE0121182007E03F
:1010400001F0FEFD0221202002E010F8010C002139
:10105000BDE8104004F08EB800210846F8E7000013
:10106000B40000202C100020B000002005F0BABC15
:1010700070477047704700000D4808B50078012898
:1010800004D10C49002008700B49087001F0D8FD0C
:101090001020009009480A497E230078032200EBC3
:1010A000400051F820000021006901F041FE08BD18
:1010B000AD000020B4000020B6000020AF000020EA
:1010C000A8E700087047704710B506F02DFA012018
:1010D00001F082FA05F086FC0221BDE810401020E4
:1010E00004F048B805F07EBC08B501F0A9FD0F4832
:1010F000104A114B007800EB40010D4800EB8100D5
:10110000106002791A700D4A00687E23106010206A
:1011100000900B48062250F821000021406801F0A1
:1011200007FEBDE80840FFF7D9BB0000AF00002074
:1011300048E70008BC000020B5000020B8000020EF
:10114000A8E70008FFF73EBCFFF7BABC104810B58F
:10115000007858B101280ED0022811D00E490D4850
:1011600009780844002110F8010C0DE005F070FC2E
:101170000121402008E005F06BFC0121482003E03C
:1011800005F066FC01215020BDE8104003F0F2BFDD
:10119000B40000202C100020B000002005F022BC7C
:1011A00038B501F04DFD144C154A164B207800EB74
:1011B0004001124800EB8100106002791A70124A57
:1011C00000687E231060102000901048062250F81E
:1011D00021000021806801F0ABFD0D480078022855
:1011E00006D105F035FC0B49207808700A490870D3
:1011F000BDE83840FFF772BBAF00002090E7000861
:10120000BC000020B5000020B8000020A8E70008BE
:10121000AD000020B4000020B6000020FFF7D2BBD4
:10122000FFF74EBC10B505F013FC01F009FD0E48A8
:101230000E4C007808B1012803D120700A2001F07B
:1012400001FD20780A4C0222A11C60800420FFF7D7
:101250006AF90222A11C0420FFF733F901F0F0FC27
:10126000BDE8104005F0BEBBB4000020AF00002078
:101270007010002005F0B6BB704770477047000043
:10128000F8B51748174C184D0078012808D11748B1
:101290001749007F207000200870164928790870CF
:1012A00001F0CEFC144F102600963878134900EB5D
:1012B00040007E2351F8200001220021406A01F005
:1012C00037FD00963878217800EB40007E2355F8F2
:1012D0002000042250F82100002101F029FDF8BD72
:1012E000AD000020B400002058E600087010002077
:1012F000B6000020B5000020AF00002060E7000825
:1013000010B504F00BFA0321BDE81040902003F063
:1013100031BF10B504F018FA0321BDE81040902049
:1013200003F028BF70B50F4D0F4C02222878A08320
:1013300004F11C010E461E20FFF7F5F8022231468B
:101340001E20FFF7BEF8A08B2978884201D101202A
:1013500000E0002001F040F9BDE87040032190203A
:1013600003F008BFB40000207010002005F03ABB65
:10137000704770477047000038B520480078012852
:1013800013D11F4800251F4C05701FA021A2008803
:10139000A0811EA002210088A4F817001C4890F824
:1013A0002030204609F0B8F9E57201F049FC1B4CE9
:1013B0001020009020781A4900EB40007E2351F85D
:1013C000200018490122097850F82100002101F07D
:1013D000AFFC10237E220421332005F097FB2078F8
:1013E000114900EB400051F82000104980680A784C
:1013F0000F490978BDE8384001F040BCAD0000203D
:10140000B60000204B100020300000003900000022
:10141000701000202530316400000000AF00002073
:1014200060E70008B4000020A0E60008A900002042
:10143000A800002010B505F037FB0321BDE81040DF
:10144000A02003F097BE10B505F080FB0321BDE896
:101450001040A02003F08EBE70B51048FEF732FF9A
:101460000F4D0F49C4B2203105F8204F01220E461E
:101470002220FFF758F8012231462220FFF721F8F9
:101480002878A04201D1012000E0002001F0A4F85A
:10149000BDE870400321A02003F06CBE4B1000207B
:1014A0007010002005F09EBA70477047704700002A
:1014B000F8B51748174C184D0078012808D117487F
:1014C0001749807F2070002008701649287908701D
:1014D00001F0B6FB144F102600963878134900EB44
:1014E00040007E2351F8200001220021806A01F093
:1014F0001FFC00963878217800EB40007E2355F8D9
:101500002000042250F82100002101F011FCF8BD58
:10151000AD000020B400002070E60008701000202C
:10152000B6000020B5000020AF00002060E70008F2
:1015300010B504F0F3F80321BDE81040982003F043
:1015400019BE10B504F000F90321BDE81040982041
:1015500003F010BE70B50F4D0F4C02222878E083C7
:1015600004F11E010E462020FEF7DDFF0222314667
:101570002020FEF7A6FFE08B2978884201D10120C8
:1015800000E0002001F028F8BDE870400321982019
:1015900003F0F0BDB40000207010002005F022BA66
:1015A0007047704770470000F8B51848184C194D3F
:1015B000007801280AD1184818490078C0F3400083
:1015C00020700020087016492879087001F038FB57
:1015D000144F102600963878134900EB40007E2304
:1015E00051F8200001220021C06801F0A1FB009603
:1015F0003878217800EB40007E2355F82000042243
:1016000050F82100002101F093FBF8BDAD0000204F
:10161000B400002000E7000870100020B600002091
:10162000B5000020AF000020D0E6000810B504F09F
:1016300075F80321BDE81040482003F09BBD10B5AC
:1016400004F082F80321BDE81040482003F092BD69
:1016500070B5114D114C02222978208861F34100A8
:10166000208021461046FEF75EFF022221461046EA
:10167000FEF727FF20782978C0F34000884201D187
:10168000012000E0002000F0A7FFBDE8704003212A
:10169000482003F06FBD0000B4000020701000204F
:1016A00005F0A0B908B501F0CBFA0F48104A114B6C
:1016B000007800EB40010D4800EB810010600279DA
:1016C0001A700D4A00687E231060102000900B48AD
:1016D000062250F821000021406801F029FBBDE8F6
:1016E0000840FFF7FBB80000AF00002078E70008D3
:1016F000BC000020B5000020B8000020A8E70008CA
:10170000FFF760B9FFF7DCB910B505F0A1F901F0FA
:1017100097FA01F095FABDE8104005F063B905F0BD
:1017200061B9704770477047F8B51848184C194DA3
:10173000007801280AD118481849007800F0010003
:1017400020700020087016492879087001F078FA96
:10175000144F102600963878134900EB40007E2382
:1017600051F8200001220021806801F0E1FA009682
:101770003878217800EB40007E2355F820000422C1
:1017800050F82100002101F0D3FAF8BDAD0000208F
:10179000B400002000E7000870100020B600002010
:1017A000B5000020AF000020D0E6000810B503F01F
:1017B000B5FF0321BDE81040402003F0DBBC10B5AD
:1017C00003F0C2FF0321BDE81040402003F0D2BC6B
:1017D00070B5114D114C02222978208861F3000068
:1017E000208021461046FEF79EFE0222214610462A
:1017F000FEF767FE2078297800F00100884201D1C9
:10180000012000E0002000F0E7FEBDE87040032169
:10181000402003F0AFBC0000B40000207010002096
:1018200005F0E0B808B501F00BFA0F48104A114B6B
:10183000007800EB40010D4800EB81001060027958
:101840001A700D4A00687E231060102000900B482B
:10185000062250F821000021406801F069FABDE835
:101860000840FFF73BB80000AF00002060E7000829
:10187000BC000020B5000020B8000020A8E7000848
:10188000FFF7A0B8FFF71CB9274810B500780B2860
:1018900041D2DFE800F0060B10151A1F24292E3361
:1018A000380005F0D5F80121302030E005F0D0F8FF
:1018B000012138202BE005F0CBF80121582026E04B
:1018C00005F0C6F80121602021E005F0C1F80121F2
:1018D00068201CE005F0BCF80121702017E005F03D
:1018E000B7F80121782012E005F0B2F8012180203C
:1018F0000DE005F0ADF80121882008E005F0A8F81A
:101900000121982003E005F0A3F80121A020BDE803
:10191000104003F02FBC0649044809780844002110
:1019200010F8010CF3E70000B40000202C10002098
:10193000B000002005F056B87047704770470000AF
:1019400038B51A480078012813D11948002419A184
:1019500004701948FEF7ADFC174818A10B30FEF7CC
:10196000A8FC154813A10C38FEF7A3FC12480C384C
:10197000C47201F065F910200090114811497E23CE
:101980000078012200EB400051F820000E49097850
:1019900050F82100002101F0CBF901B01023BDE87F
:1019A00030407E220421332005F0B0B8AD00002085
:1019B000B60000203030300057100020393939008F
:1019C000AF00002060E70008B400002010B505F06B
:1019D0006BF80321BDE81040302003F0CBBB10B5FD
:1019E00005F07CF80321BDE81040302003F0C2BBB5
:1019F0007CB51B48FEF766FC84B2FF2C0AD9194857
:101A00001949007800EB400051F82000006800F010
:101A1000CBFD1FE0154D01AB00224FF4804128683B
:101A200004F008F9E2B2FD21002006F037FC01A81D
:101A300000904FF47A7382224FF40071286804F00A
:101A40003FF89DF804000A2801D0012000E00020A2
:101A500000F0C2FD0321302003F08CFB7CBD0000B0
:101A60004B100020AF00002088E60008280100206D
:101A700004F0B8BF704770477047000038B522487F
:101A80000078012816D12148002421A104702148A2
:101A9000FEF70FFC1F4820A10B30FEF70AFC1F4881
:101AA0001FA2042183881B480C3808F035FE194812
:101AB0000C38C47201F0C4F81B4C10200090207840
:101AC0001A4900EB40007E2351F8200018490122FA
:101AD000097850F82100002101F02AF910237E2214
:101AE00004212B2005F012F82078124900EB400069
:101AF00051F82000104980680A7810490978BDE83B
:101B0000384001F0BBB80000AD000020B600002056
:101B10003030300057100020393939007010002063
:101B20002530336400000000AF00002060E70008AB
:101B3000B4000020A0E60008A9000020A8000020B2
:101B400010B504F0B1FF0321BDE81040382003F0C8
:101B500011BB10B504F0C2FF0321BDE810403820CE
:101B600003F008BB70B51548FEF7ACFB84B2FF2C40
:101B70000AD913481349007800EB400051F82000BF
:101B8000006800F011FD13E00F4D0222291DAC800A
:101B90000620FEF7C8FC0222291D0620FEF791FC54
:101BA000A888A04201D1012000E0002000F014FD2F
:101BB000BDE870400321382003F0DCBA4B10002050
:101BC000AF00002088E600087010002004F00ABF73
:101BD000704770477047000038B5224800780128E8
:101BE00016D12148002421A104702248FEF761FB90
:101BF000204821A10B30FEF75CFB214821A20621E1
:101C0000C3681C480C3808F087FD1A480C38C472A9
:101C100001F016F81D4C1020009020781C4900EBB4
:101C200040007E2351F820001A490122097850F81B
:101C30002100002101F07CF810237E2204212320C2
:101C400004F064FF2078144900EB400051F82000B4
:101C5000124940680A7812490978BDE8384001F015
:101C60000DB80000AD000020B6000020303030304C
:101C70003000000057100020393939393900000090
:101C8000701000202530356400000000AF000020F7
:101C900060E70008B4000020A0E60008A9000020CA
:101CA000A800002010B504F0FFFE0321BDE810409D
:101CB000602003F05FBA10B504F010FF0321BDE807
:101CC0001040602003F056BA70B51048FEF707FBCD
:101CD0000F4D044605F10C01E86004220E460E206B
:101CE000FEF721FC042231460E20FEF7EAFBE868ED
:101CF000A04201D1012000E0002000F06DFCBDE811
:101D000070400321602003F035BA00004B10002022
:101D10007010002004F066BE7047704770470000E6
:101D200038B522480078012816D12148002421A185
:101D300004702248FEF7BDFA204821A10B30FEF7BF
:101D4000B8FA214821A2062183681C480C3808F003
:101D5000E3FC1A480C38C47200F072FF1D4C1020CE
:101D6000009020781C4900EB40007E2351F82000B1
:101D70001A490122097850F82100002100F0D8FF0B
:101D800010237E220421232004F0C0FE2078144971
:101D900000EB400051F82000124940680A781249CF
:101DA0000978BDE8384000F069BF0000AD000020B0
:101DB000B6000020303030303000000057100020D6
:101DC0003939393939000000701000202530356468
:101DD00000000000AF00002060E70008B400002011
:101DE000A0E60008A9000020A800002010B504F01B
:101DF0005BFE0321BDE81040582003F0BBB910B5CD
:101E000004F06CFE0321BDE81040582003F0B2B985
:101E100070B51048FEF763FA0F4D044605F108014E
:101E2000A86004220E460A20FEF77DFB04223146FC
:101E30000A20FEF746FBA868A04201D1012000E07D
:101E4000002000F0C9FBBDE870400321582003F0DA
:101E500091B900004B1000207010002004F0C2BDAA
:101E6000704770477047000038B522480078012855
:101E700016D12148002421A104702248FEF719FA46
:101E8000204821A10B30FEF714FA214821A2052198
:101E9000438B1C480C3808F03FFC1A480C38C472BD
:101EA00000F0CEFE1D4C1020009020781C4900EB65
:101EB00040007E2351F820001A490122097850F889
:101EC0002100002100F034FF10237E2204211F2076
:101ED00004F01CFE2078144900EB400051F820006B
:101EE000124900680A7812490978BDE8384000F0C4
:101EF000C5BE0000AD000020B600002030303030FC
:101F00000000000057100020393939390000000066
:101F1000701000202530346400000000AF00002065
:101F200060E70008B4000020A0E60008A900002037
:101F3000A800002010B504F0B7FD0321BDE8104053
:101F4000882003F017B910B504F0C8FD0321BDE8DF
:101F50001040882003F00EB970B51048FEF7B2F9B2
:101F60000F4D84B205F11A016C8302220E461C202B
:101F7000FEF7D9FA022231461C20FEF7A2FA688B3E
:101F8000A04201D1012000E0002000F025FBBDE8C7
:101F900070400321882003F0EDB800004B100020B2
:101FA0007010002004F01EBD70477047704700009D
:101FB00038B522480078012816D12148002421A1F3
:101FC00004702248FEF775F9204821A10B30FEF776
:101FD00070F9214821A20521038B1C480C3808F018
:101FE0009BFB1A480C38C47200F02AFE1D4C1020CE
:101FF000009020781C4900EB40007E2351F820001F
:102000001A490122097850F82100002100F090FEC1
:1020100010237E2204211F2004F078FD207814492B
:1020200000EB400051F82000124900680A7812497C
:102030000978BDE8384000F021BE0000AD00002066
:10204000B600002030303030000000005710002073
:10205000393939390000000070100020253034640F
:1020600000000000AF00002060E70008B40000207E
:10207000A0E60008A9000020A800002010B504F088
:1020800013FD0321BDE81040802003F073B810B5A4
:1020900004F024FD0321BDE81040802003F06AB85D
:1020A00070B51048FEF70EF90F4D84B205F1180116
:1020B0002C8302220E461A20FEF735FA0222314600
:1020C0001A20FEF7FEF9288BA04201D1012000E082
:1020D000002000F081FABDE870400321802003F069
:1020E00049B800004B1000207010002004F07ABCAA
:1020F000704770477047000038B5224800780128C3
:1021000016D12148002421A104702248FEF7D1F8FD
:10211000204821A10B30FEF7CCF8214821A205214F
:1021200003691C480C3808F0F7FA1A480C38C472D6
:1021300000F086FD1D4C1020009020781C4900EB1B
:1021400040007E2351F820001A490122097850F8F6
:102150002100002100F0ECFD10237E2204211F202D
:1021600004F0D4FC2078144900EB400051F8200022
:10217000124900680A7812490978BDE8384000F031
:102180007DBD0000AD000020B600002030303030B2
:1021900000000000571000203939393900000000D4
:1021A000701000202530346400000000AF000020D3
:1021B00060E70008B4000020A0E60008A9000020A5
:1021C000A800002010B504F06FFC0321BDE810400A
:1021D000682002F0CFBF10B504F080FC0321BDE8F9
:1021E0001040682002F0C6BF70B51048FEF76AF8CC
:1021F0000F4D84B205F11001286104220E46122011
:10220000FEF791F9042231461220FEF75AF92869A7
:10221000A04201D1012000E0002000F0DDF9BDE87E
:1022200070400321682002F0A5BF00004B10002081
:102230007010002004F0D6BB704770477047000054
:1022400038B522480078012816D12148002421A160
:1022500004702248FEF72DF8204821A10B30FEF72C
:1022600028F8214821A20521838A1C480C3808F04F
:1022700053FA1A480C38C47200F0E2FC1D4C1020CE
:10228000009020781C4900EB40007E2351F820008C
:102290001A490122097850F82100002100F048FD78
:1022A00010237E220421272004F030FC20781449DA
:1022B00000EB400051F82000124940680A781249AA
:1022C0000978BDE8384000F0D9BC0000AD0000201E
:1022D000B6000020303030300000000057100020E1
:1022E000393939390000000070100020253034647D
:1022F00000000000AF00002060E70008B4000020EC
:10230000A0E60008A9000020A800002010B504F0F5
:10231000CBFB0321BDE81040702002F02BBF10B5AD
:1023200004F0DCFB0321BDE81040702002F022BF66
:1023300070B51048FDF7C6FF0F4D84B205F11401CA
:10234000AC8202220E461620FEF7EDF8022231463C
:102350001620FEF7B6F8A88AA04201D1012000E0BD
:10236000002000F039F9BDE870400321702002F030
:1023700001BF00004B1000207010002004F032BBA1
:10238000704770477047000038B522480078012830
:1023900016D12148002421A104702148FDF789FFAE
:1023A0001F4820A10B30FDF784FF1F481FA2032107
:1023B000C38A1B480C3808F0AFF919480C38C472AE
:1023C00000F03EFC1B4C1020009020781A4900EBD6
:1023D00040007E2351F8200018490122097850F866
:1023E0002100002100F0A4FC10237E2204212F20D4
:1023F00004F08CFB2078124900EB400051F82000DB
:10240000104980680A7810490978BDE8384000F022
:1024100035BC0000AD000020B600002030300000C8
:102420005710002039390000701000202530326428
:1024300000000000AF00002060E70008B4000020AA
:10244000A0E60008A9000020A800002010B504F0B4
:102450002BFB0321BDE81040782002F08BBE10B5A5
:1024600004F03CFB0321BDE81040782002F082BE5E
:1024700070B51048FDF726FF0F4D84B205F1160127
:10248000EC8202220E461820FEF74DF80222314659
:102490001820FEF716F8E88AA04201D1012000E0DA
:1024A000002000F099F8BDE870400321782002F088
:1024B00061BE00004B1000207010002038B500F005
:1024C000BFFB154D102400942878144900EB400000
:1024D0007E2351F8200001220021006800F028FC32
:1024E000009428780E4900EB40007E2351F820002C
:1024F00003220021006800F01BFC009428780949A1
:1025000000EB40007E2351F82000062200210068E5
:1025100000F00EFC38BD0000AF000020E8E6000827
:1025200018E70008A8E7000810B50C4C2078411CFB
:1025300021700F2805D00021BDE81040002002F0D6
:1025400019BE00F07DFBFEF769FC41F6641000F057
:1025500079FB002020700321EEE70000B30000208B
:10256000704770477047000002490020087001461C
:1025700002F000BEB30000200249002008700146AE
:1025800002F0F8BDB3000020064910B50020087025
:1025900000F056FB02F0DAFD0121BDE810400820F2
:1025A00002F0E8BDB300002038B5044604F050FA4C
:1025B00000F046FB102100917E23032200212046DB
:1025C00000F0B6FB002301221946184603F020FF55
:1025D000BDE8384004F006BA38B5044604F038FACD
:1025E00000F02EFB0D481022009200780C4900EB01
:1025F000400051F820000CB1006800E040687E23E4
:102600000322002100F094FB002301221946184602
:1026100003F0FEFEBDE8384004F0E4B9AF0000204E
:10262000B8E600082DE9F04705462C489146884653
:1026300000780F4628B301284DD1002000F05CFA45
:102640007F1CFEB2264F002405EB8505281938446F
:102650004A4610F8A00C314600F04EFA761C641C75
:10266000E4B2F6B2052CF1D34A463146002000F020
:1026700043FA761CF1B24A46BDE8F047002000F06C
:102680003BBA184E002404EB05103044A0F58050EE
:102690004A4690F8000E394600F02EFA7F1C641C62
:1026A000E4B2FFB2082CEED34746B046082409F145
:1026B000010604EB051101EB0800A0F58050F2B211
:1026C00090F8000E394600F017FA7F1C641CE4B243
:1026D000FFB2102CEDD3BDE8F0870000A60000206B
:1026E000CDDF0008CDD900082DE9F0470646374870
:1026F0009046894600780C46D0B3012812D00328B2
:102700000ED1002508F10206A01CC1B2F2B20C20C5
:1027100000F0F2F9641C6D1CEDB2E4B20C2DF3D3A1
:10272000BDE8F087802000F0E7F9641CE5B2284F8F
:10273000002406EB860630193844424610F8A00CF7
:10274000294640F0800000F0D7F96D1C641CE4B20B
:10275000EDB2052CEFD342462946802000F0CCF99B
:102760006D1CE9B24246BDE8F047802000F0C4B9D4
:10277000184F002505EB06103844A0F5805042465E
:1027800090F8000E214600F0B7F9641C6D1CEDB204
:10279000E4B2082DEED34D46B946082408F10107EE
:1027A00004EB061101EB0900A0F58050FAB290F895
:1027B000000E294640F0800000F09EF96D1C641C5C
:1027C000E4B2EDB2102CEBD3AAE70000A600002083
:1027D000CDDF0008CDD900082DE9F04788460D4629
:1027E00092464B4E4B490024C2B211F81430B3EB61
:1027F000102F04D101EB44035B78934205D06F2C7A
:1028000031D0641CA4B2702CEFD342497078E0310F
:102810000AF10107B0B3012855D0022821D10026C2
:10282000894606EB4411524619F80100294600F08A
:1028300063F96D1C761CF6B2EDB2102EF1D346464C
:10284000102505EB4411FAB219F80100314640F0A9
:10285000800000F051F9761C6D1CEDB2F6B2202D0F
:10286000EFD3BDE8F08752464146232000F0F6F949
:102870007179524608EB0100BDE8F047C1B2232050
:1028800000F0ECB90026894606EB4411524619F8CF
:102890000100294600F030F96D1C761CF6B2EDB24D
:1028A000102EF1D34646102505EB4411FAB219F863
:1028B0000100314600F020F9761C6D1CEDB2F6B235
:1028C000202DF1D3CDE70026894606EB4411524670
:1028D00019F80100294680F0FF0000F00DF96D1C89
:1028E000761CF6B2EDB2102EEFD34646102505EB5E
:1028F0004411FAB219F80100314680F0FF0000F0EF
:10290000FBF8761C6D1CEDB2F6B2202DEFD3A8E7D4
:10291000A6000020EDCA000870B5284E0122102143
:10292000304600F04EFC00222021304600F049FCE9
:102930000025402007F094FE05F1B800C0B207F072
:102940008FFE0024002007F0B3FE641CE4B2402C8C
:10295000F8D36D1CEDB2082DEBD3002002F020FC63
:1029600000221021304600F02CFC012220213046AC
:1029700000F027FC0025402007F072FE05F1B800AA
:10298000C0B207F06DFE0024002007F091FE641C29
:10299000E4B2402CF8D36D1CEDB2082DEBD300202F
:1029A00002F0FEFB01221021304600F00AFC304606
:1029B000BDE870400122202100F003BC001001405E
:1029C00010B5194C01221021204600F0FAFB00221C
:1029D0002021204600F0F5FB002002F0DAFB002069
:1029E00002F0DEFB012002F0D4FB00221021204681
:1029F00000F0E7FB01222021204600F0E2FB00204E
:102A000002F0C7FB002002F0CBFB012002F0C1FB6B
:102A100001221021204600F0D4FB20460122BDE80F
:102A20001040202100F0CDBB001001402DE9F047FF
:102A300005462E489146884600780F4601282FD03B
:102A40002B4E002404EB05103044A0F580504A467C
:102A500090F8000E394680F0FF0000F04DF87F1C22
:102A6000641CE4B2FFB2082CECD34746B0460824FD
:102A700009F1010604EB051101EB0800A0F58050F7
:102A8000F2B290F8000E394680F0FF0000F034F802
:102A90007F1C641CE4B2FFB2102CEBD3BDE8F087BE
:102AA000FF2000F029F87F1CFEB2124F002405EB36
:102AB0008505281938444A4610F8A00C314680F0A4
:102AC000FF0000F019F8761C641CE4B2F6B2052C85
:102AD000EFD34A463146FF2000F00EF8761CF1B2E3
:102AE0004A46BDE8F047FF2000F006B8A6000020E7
:102AF000CDD90008CDDF00082DE9F04116460C467F
:102B000007467F2931D8072E2FD8194D3F2C0CD8D6
:102B100001221021284600F054FB002220212846E3
:102B200000F04FFB4034E0B20AE0002210212846BA
:102B300000F047FB01222021284600F042FB2046FE
:102B400007F08EFDB836F0B207F08AFD384607F080
:102B5000AFFD01221021284600F033FB2846BDE8D6
:102B6000F0410122202100F02CBBBDE8F0810000E3
:102B70000010014010B504F0D7FCAA210020FDF799
:102B8000E2FC5521BDE810400120FDF7DCBC10B58A
:102B90000020FDF7A7FCAA2804D10120FDF7A2FC24
:102BA000552803D0BDE81040FFF7E4BF10BD002258
:102BB000AFF3008030B50E4B054601209C7B022C04
:102BC00015D8987B00241C54987B03EB800045604B
:102BD0009D7B03F10C002A54987B421C9A73303081
:102BE00008703A2048702F208870CC70002030BDCB
:102BF0005001002038B5114C6946206903F075F882
:102C000042064FF0000104D5227812B1A1701420C1
:102C10000FE0000605D52078012802D0A17012200F
:102C200007E0A0780A2807D2401CA070FF2020707F
:102C3000162004F051FB38BDA17038BD18010020EA
:102C4000FFF76ABE06E00021491CC9B2C829FBD3C0
:102C5000401E80B20028F6D170470000064B5B781A
:102C60002BB1012B05D0022B05D1FFF73DBDFFF79E
:102C7000D9BCFFF7DBBE7047A60000202DE9F0416C
:102C8000DFF8A8800746154698F804000C4618B9E6
:102C900098F8024098F8035000263EE0802829D298
:102CA0000A280ED07F2C04D998F806100024294455
:102CB000CDB298F8011051B101290DD0022914D1DB
:102CC0000FE098F8060000242844C5B224E02A4604
:102CD0002146FFF7A7FC08E02A462146FFF7A6FE9B
:102CE00003E02A462146FFF7FFFC98F80500204440
:102CF000C4B211E0702C02D90024AD1CEDB2B91998
:102D00002A46497801EB002080B22146FFF764FD96
:102D1000761C1034F6B2E4B27F1CB85D0028BDD139
:102D200088F8024088F80350BDE8F081A600002032
:102D30002DE9F05F00240746984693460E46254647
:102D40002046DDF828900AE0802904D9641C401C44
:102D5000E4B2C0B201E06D1CEDB2401CC0B2395CFF
:102D60000029F1D1002000F00BF9E80000EB04107D
:102D7000C0B27F2800D97F2019F0300106D0A8EB1F
:102D80000602102904D020290AD107E0002007E01C
:102D9000101A00EBD070C0F3470001E0101AC0B267
:102DA0003044C4B2DFF818A15FEA09600BF10105F5
:102DB00023D49AF801004FF0000601280CD01AE045
:102DC0005A463146FF20FFF797FEEAB23146FF2010
:102DD000FFF792FE761CF6B2A642F1D30DE05A46FA
:102DE00031460020FFF788FEEAB231460020FFF7A7
:102DF00083FE761CF6B2A642F1D300261BE08028A3
:102E00002DD29AF8011021B1012907D002290ED143
:102E100009E05A462146FFF705FC08E05A462146DC
:102E2000FFF704FE03E05A462146FFF75DFC083435
:102E3000761CE4B2F6B2B85D0028E0D18AF8024010
:102E40008AF803B05FEA096035D426469AF8010093
:102E50004FF000040128A8EB06081AD029E0B919A0
:102E60005A46497801EB002080B22146FFF7B4FCB6
:102E7000761CF6B21034DBE73719F9B25A46FF2058
:102E8000FFF73AFEEAB2F9B2FF20FFF735FE641C05
:102E9000E4B2A045F0DC0EE03719F9B25A46002042
:102EA000FFF72AFEEAB2F9B20020FFF725FE641C04
:102EB000E4B2A045F0DCBDE8F05F012000F060B8AE
:102EC000A60000202DE9F047002490460D46074655
:102ED000042A01D94FF00408602D00D9602500268E
:102EE000385D641CA919A4B2C9B24246FFF704FEBA
:102EF000761CF6B2202EF3D3002608F10109385DC6
:102F0000641CA919A4B209F0FF02C9B2FFF7F4FDCD
:102F1000761CF6B2202EF2D3002608F10209385DA5
:102F2000641CA919A4B209F0FF02C9B2FFF7E4FDBD
:102F3000761CF6B2202EF2D3002608F10308385D85
:102F4000641CA919A4B208F0FF02C9B2FFF7D4FDAE
:102F5000761CF6B2202EF2D3BDE8F08710B5FFF74D
:102F60002FFD0648002108220170417042710222A3
:102F700082718170C1700121017110BDA600002015
:102F800030B50423022210490824052808D2DFE8BE
:102F900000F00803150F0C00012008704C718871B7
:102FA00030BD002008704C7106E00B700A2002E072
:102FB00003200870102048718A7130BD0A701520F6
:102FC00048718B7130BD0000A60000200149487097
:102FD00070470000A600002031B500F0F7F8044665
:102FE00000F0F4F80099001B8842F9D338BD0000C6
:102FF0002DE9F84FDFF8A091002309F1040A0AF146
:10300000040B1C464FF00F080BF1040E01270A6851
:10301000A7403A40BA4272D1DFF880C14D68A5EBB3
:103020000C0665452BD00DDC032D34D005DC35B303
:10303000012D19D0022D2FD11BE0112D16D0122DEC
:103040002AD119E0B6F5881F19D006DCB6F5803F05
:1030500015D0B6F5801F1FD111E0B6F5001F0ED0B8
:10306000B6F5041F18D10AE0CB6815E0CB681B1D2C
:1030700012E0CB6808330FE0CB680C330CE08B68B0
:103080002BB1012B4FF0080303D0476104E0042368
:1030900002E0076100E00023FF2A01D8064601E0B4
:1030A00000F104064FEA840501D9A5F1200537682F
:1030B00008FA05FC27EA0C0703FA05F547EA0507B5
:1030C00037604D68ED0060D5354DAE6946F00106BC
:1030D000AE61AD6924F0030605F001050095314DA0
:1030E0007719BE68A5072D0F08FA05FC26EA0C061D
:1030F000DFF8B4C0604503D14FF0000C17E044E0A6
:10310000DFF8A8C0604502D14FF0010C0FE0DFF8F6
:10311000A0C0604502D14FF0020C08E0DFF894C077
:10312000604502D14FF0030C01E04FF0040C0CFAA3
:1031300005FC4CEA060CC7F808C04D68D9F80060D9
:10314000ED034D4601D5164300E096432E604D68D1
:10315000DAF80060AD03554601D5164300E096430A
:103160002E604D68DBF80060ED025D4601D5164328
:1031700000E096432E604D68DEF80060AD027546B3
:1031800001D5164300E096432E60641C102CFFF41A
:103190003DAFBDE8F88F00000004014000001110B1
:1031A000001002400000014000080140000C0140F6
:1031B00000100140001401408068084000D0012048
:1031C00070470AB1016170470904FBE701480068D4
:1031D0007047000010000020D0F8800205F003BE08
:1031E000D0F8800205F013BE006806F04BBF0068FF
:1031F00006F04CBF01EB810100EBC10090F84800E4
:10320000704701EB810100EBC100806B704710B586
:10321000044690F87C02012809D0012084F87C0241
:10322000206806F03EFF002084F87C0210BD0220DA
:1032300010BDFEB50546DDE9096095F87C42089FA2
:10324000012C1ED0012485F87C4201EB810405EBA2
:10325000C40402F07F0C04F8243F20816170E67101
:1032600084F802C04FEAD21C84F803C0277100978B
:10327000CDE90160286806F0D0FF002185F87C12B6
:10328000FEBD0220FEBD70472DE9F0030D46DDE9CD
:1032900006C9DDE9087601EB850100EBC1010224D6
:1032A00081F8272081F82B30BCF1000F0BD081F87A
:1032B0002E404FF000085BB1012B3DD0022B1CD0FB
:1032C000032B29D11FE04FF0030881F82E80F0E78F
:1032D000BCF1010F20D1FAB987B9012281F83D2054
:1032E00002E081F82E8001E081F82E4091F848201C
:1032F000022A11D081F829600EE02AB991F83D2008
:10330000002AF1D1EDE712B191F83C2001E091F8EB
:103310003D208AB181F82E40C1E90C9781F84880A0
:10332000C1F8388081F8255081F849800068BDE8EF
:10333000F003243106F0DEBF81F82E80ECE72DE9A2
:10334000F041066804460025304606F0A6FE012836
:103350007DD1206807F0D9F8002878D0206807F0E0
:10336000D4F8800203D521684FF40010486120682A
:1033700007F0CBF8C00203D521684FF480104861F4
:10338000206807F0C2F8400103D521684FF0806043
:103390004861206807F0B9F8800702D5216802204B
:1033A0004861206807F0B1F8800010D5D6F84004D5
:1033B00020F02E00C6F840042046FFF711FF01213F
:1033C000206807F087F821684FF0005048612068B6
:1033D00007F09BF8C00102D5204601F0F8FC2068F8
:1033E00007F093F8000705D5204600F092F8216811
:1033F00008204861206807F088F880011FD5206800
:1034000006F072FF07464FF0010811E008FA05F0D8
:1034100038420CD006EB4510D0F80005E9B20004A4
:10342000204602D501F0ADFA01E001F0BAFB6D1CB7
:10343000A068A842EAD821684FF00070486120686F
:1034400007F063F8C0060ED52068816900E00AE045
:1034500021F010018161204601F004FD206881699E
:1034600041F010018161BDE8F08130B585B0040004
:1034700003D094F87D0218B108E0012005B030BDFA
:10348000002084F87C02204600F024F8032084F811
:103490007D02206806F0B2FD04F1100114220D46F1
:1034A0006846FCF7C3FE94E80F0006F073FD0121A7
:1034B000206807F054F8142229466846FCF7B6FE47
:1034C00094E80F0006F0AEFF012084F87D02002092
:1034D000D4E7000008B50068B0F1A04F12D10A4847
:1034E000416941F4805141614069002200F48050FB
:1034F00000901146432000F08FF8BDE808404320BB
:1035000000F07EB808BD000000100240006807F01F
:1035100010B8D0F8800205F0C4BC10B5044690F88D
:103520007C0201280DD0012084F87C02206806F07E
:1035300081FD0121206806F067FD002084F87C02EF
:1035400010BD022010BD10B5044690F87C02012881
:1035500009D0012084F87C02206807F016F80020CA
:1035600084F87C0210BD022010BD000002480168F2
:10357000491C01607047000010000020074810B58A
:10358000016841F010010160032000F065F800209F
:1035900000F006F800F016F8002010BD00200240F0
:1035A00010B5044600F0A0FA4FF47A71B0FBF1F0C8
:1035B00001F0C9F800222146501E00F02DF800202D
:1035C00010BD00000C4808B5816941F0010181611E
:1035D000806900F001000090032000F03DF8002217
:1035E0001146501E00F018F80448416821F0E061CF
:1035F00041F00071416008BD001002400000014030
:1036000000F01F02012191404009800000F1E020FC
:10361000C0F8001170470000F0B40E4B1B68C3F3F4
:103620000223C3F10704042C00D904241D1D072D17
:1036300001D2002300E0DB1E012606FA04F56D1E10
:103640000D409D409E40761E164045EA0601F0BCA6
:1036500002F0B0B90CED00E0064A00F00701106876
:103660004FF6FF03184040EA012003490843106069
:10367000704700000CED00E00000FA052DE9F84F5E
:10368000044600780025DFF8F0917C4EC0074FF02B
:10369000010A73D0F06940F08050F061F069DFF802
:1036A000E08100F080500090D8F8001041F4807163
:1036B000C8F80010FFF78AFD074604E0FFF786FD13
:1036C000C01B64287ED8D8F80000C005F6D5306A43
:1036D000A18800F4407001F4407188424ED0306AF5
:1036E0004FF4803797FAA7F1B1FA81F109EB810322
:1036F00020F44070D046C3F800A497FAA7F3B3FAB9
:1037000083F309EB83010022C1F8002430628007B3
:103710002ED5FFF75BFD07464FF0020B06E0FFF7E3
:1037200055FDC11B41F28830814277D89BFAABF03E
:10373000B0FA80F040F040005946B8EB501F01D17C
:1037400030680BE091FAA1F0B0FA80F040F0400050
:10375000B1EB501F01D1306A00E0706A9BFAABF107
:10376000B1FA81F101F01F0108FA01F21042D6D03E
:10377000306A616820F44070084330622078800726
:1037800005D57068A16820F4404008437060207837
:10379000400705D5F06AE16820F400300843F06284
:1037A0002078000705D5F06A216920F480200843BD
:1037B000F062F06A800303D4F06A400300D485B35A
:1037C000306800E02AE0C00042D43068400105D5EE
:1037D000F06AA16900F0F00088423FD1F06AA16967
:1037E00020F0F0000843F062F06A616920F4704054
:1037F0000843F0624FF0805090FAA0F0B0FA80F0E9
:10380000574649F820A0FFF7E1FC05464FF0005865
:1038100008E0FFF7DBFC401B642803D90320BDE868
:10382000F88F1DE098FAA8F0B0FA80F040F0200080
:10383000400901D0306800E0706A98FAA8F1B1FA46
:1038400081F101F01F0107FA01F10842E1D007E020
:10385000F06A616900F47040884201D00120DEE71F
:103860002078C00605D57068E16920F4800008431F
:1038700070600020D3E700000000424200100240C8
:10388000007000402DE9F047DFF8549204460F46DF
:10389000D9F80000934D00F00701012043044606CB
:1038A0004FF0020C41F28838B94274D2D9F80020A6
:1038B00022F007023A43C9F80020D9F8001001F0BD
:1038C0000701B94268D12178890705D56968A268DE
:1038D00021F0F001114369602178C9074FD0616878
:1038E00001290BD0022917D09CFAACF2B2FA82F26D
:1038F00042F0200252091DD02A681CE093FAA3F27C
:10390000B2FA82F242F02002520901D02A6800E0A5
:103910006A6A93FAA3F310E096FAA6F2B2FA82F278
:1039200042F02002520901D02A6800E06A6A96FA41
:10393000A6F302E06A6A9CFAACF3B3FA83F303F0ED
:103940001F039840024227D0686820F00300084314
:103950006860FFF73BFC06466068012809D0022832
:10396000474612D01EE0FFF731FC801BB84201D958
:1039700088E047466868C0F381000128F3D197E0EA
:10398000FFF724FC801BB8427CD86868C0F3810034
:103990000228F5D18CE00AE088E0FFF717FC801BD5
:1039A000B8426FD8686810F00C0FF6D180E021782B
:1039B000890705D56968A26821F0F00111436960A3
:1039C0002178C90765D0616801290BD0022917D079
:1039D0009CFAACF2B2FA82F242F0200252091DD0F7
:1039E0002A681CE093FAA3F2B2FA82F242F02002B3
:1039F000520901D02A6800E06A6A93FAA3F310E042
:103A000096FAA6F2B2FA82F242F02002520901D0EE
:103A10002A6800E06A6A96FAA6F302E06A6A9CFAEB
:103A2000ACF3B3FA83F303F01F03984002423DD096
:103A3000686820F0030008436860FFF7C7FB06468C
:103A40006068012807D0022810D01EE0FFF7BEFBF7
:103A5000811B414516D86868C0F381000128F5D163
:103A600017E0FFF7B3FB811B41450BD86868C0F333
:103A700081000228F5D10CE004E0FFF7A7FB811BD1
:103A8000414502D90320BDE8F087686810F00C0FAB
:103A9000F3D1D9F8001021F007013943C9F800101B
:103AA000D9F8000000F00700B84201D00120EAE791
:103AB0002078400705D56868E16820F4E060084395
:103AC00068602078000706D56868216920F4605096
:103AD00040EAC10068600020FFF762FD0020D2E7E5
:103AE000002002400010024000B500F043F80849F1
:103AF0004968F02292FAA2F201F0F001B2FA82F2E1
:103B0000D140044A515CC8400349086000BD000030
:103B100000100240C8CA00082000002000B5FFF7CE
:103B2000E3FF074949684FF4E06292FAA2F201F418
:103B3000E061B2FA82F2D140024A515CC84000BD55
:103B400000100240C8CA000800B5FFF7CDFF0749C2
:103B500049684FF4605292FAA2F201F46051B2FA4D
:103B600082F2D140024A515CC84000BD00100240C0
:103B7000C8CA0008F0B52CA087B007C804AB314C08
:103B800083E807002BA00FC88DE80F0062682E485D
:103B900002F00C01042941D008293FD14FF47015DF
:103BA00095FAA5F302F47011B3FA83F3D94004AE89
:103BB000D203715C34D5E26A0F2393FAA3F302F0C7
:103BC0000F02B3FA83F3DA40E36A1DF80220DB0345
:103BD00016D5E36AF02797FAA7F703F0F003B7FAD0
:103BE00087F7E46AFB40AF1297FAA7F704F4706412
:103BF000B7FA87F7FC405B1CB0FBF3F0A41C6043F2
:103C0000B0FBF2F095FAA5F348434FF45012B3FA23
:103C100083F3DA40B25C8A4200D1400807B0F0BDBD
:103C200008460A494843F9E7000004050607080961
:103C30000000000D0102030405060708090A0B0C29
:103C40000D0E0F100010024000127A0000093D0016
:103C50002DE9F84F04460078FB4EC0074FF00105F0
:103C600025D070686F04C0F38100012807D0706808
:103C7000C0F3810002281BD17068C00318D597FAE1
:103C8000A7F0B0FA80F040F02000400901D0306881
:103C900000E0706A97FAA7F1B1FA81F101F01F0113
:103CA00005FA01F1084202D0A068002876D081E030
:103CB000306820F480303060306820F4802030603C
:103CC000FFF784FA804605E0FFF780FAA0EB0800D2
:103CD00064287DD897FAA7F0B0FA80F040F0200071
:103CE000400901D0306800E0706A97FAA7F1B1FA94
:103CF00081F101F01F0105FA01F10842E4D1A06849
:103D0000B0F5803F0BD010B1B0F5A02F11D03068C6
:103D100020F480303060306820F4802002E0306889
:103D200040F480303060A06820B3FFF74FFA80463F
:103D30000AE0306840F480203060F0E7FFF746FA90
:103D4000A0EB08006428C4D897FAA7F0B0FA80F076
:103D500040F02000400901D0306800E0706A97FA16
:103D6000A7F1B1FA81F101F01F0105FA01F1084252
:103D7000E4D01FE0FFF72AFA804605E0FFF726FAB5
:103D8000A0EB08006428A4D897FAA7F0B0FA80F056
:103D900040F02000400902D0306801E0B0E0706AD5
:103DA00097FAA7F1B1FA81F101F01F0105FA01F1CB
:103DB0000842E3D12078A54F80074FF002084FF06A
:103DC000000932D570684FF0F80B10F00C0F00E0CE
:103DD00025E207D07068C0F38100022826D1706800
:103DE000C00323D498FAA8F0B0FA80F040F0200085
:103DF000400901D0306800E0706A98FAA8F1B1FA81
:103E000081F101F01F0105FA01F1084202D0606959
:103E1000012875D130689BFAABF220F0F801A06957
:103E2000B2FA82F290400143316058E0606980B399
:103E300095FAA5F0B0FA80F047F82050FFF7C6F9E0
:103E4000824605E0FFF7C2F9A0EB0A0002289AD8E3
:103E500098FAA8F0B0FA80F040F02000400901D0B4
:103E6000306800E0706A98FAA8F1B1FA81F101F0C7
:103E70001F0105FA01F10842E4D030689BFAABF269
:103E8000A169B2FA82F220F0F80091400843306054
:103E900025E0FFE795FAA5F1B1FA81F147F8219005
:103EA000FFF794F9824605E0FFF790F9A0EB0A00CE
:103EB0000228CCD898FAA8F0B0FA80F040F02000A0
:103EC000400901D0306800E0706A98FAA8F1B1FAB0
:103ED00081F101F01F0105FA01F10842E4D12078D7
:103EE00000076FD5E069C0B395FAA5F0B0FA80F08D
:103EF00007EB8000C0F88054FFF768F9824606E0BF
:103F0000B9E1FFF763F9A0EB0A0002289FD898FAFD
:103F1000A8F0B0FA80F040F060004146B5EB501FC9
:103F200001D130680BE091FAA1F0B0FA80F040F0D6
:103F30006000B1EB501F01D1306A00E0706A98FA5E
:103F4000A8F1B1FA81F101F01F0205FA02F108426D
:103F5000D7D00120FFF740F834E0FFE795FAA5F14C
:103F6000B1FA81F107EB8101C1F88094FFF72EF9D6
:103F7000824605E0FFF72AF9A0EB0A00022898D84C
:103F800098FAA8F0B0FA80F040F060004146B5EB36
:103F9000501F01D130680BE091FAA1F0B0FA80F027
:103FA00040F06000B1EB501F01D1306A00E0706A50
:103FB00098FAA8F1B1FA81F101F01F0205FA02F1B5
:103FC0000842D7D12078400772D5F06940F0805080
:103FD000F061F069DFF878B000F080500090DBF815
:103FE000001041F48071CBF80010FFF7EFF8824623
:103FF00005E0FFF7EBF8A0EB0A00642886D8DBF8B1
:104000000000C005F5D5306A20F001003062306A4A
:1040100020F004003062FFF7D9F8824641F2883B75
:1040200005E0FFF7D3F8A0EB0A015945A7D898FAA5
:10403000A8F0B0FA80F040F040004146B5EB501FC8
:1040400008D1306812E00000001002400000424237
:104050000070004091FAA1F0B0FA80F040F040000A
:10406000B1EB501F01D1306A00E0706A98FAA8F1F4
:10407000B1FA81F101F01F0105FA01F10842D0D136
:10408000206901280AD008B1052812D0306A20F032
:1040900001003062306A20F0040002E0306A40F033
:1040A00001003062206990B3FFF790F882460BE080
:1040B0005AE0306A40F004003062EFE7FFF786F81C
:1040C000A0EB0A01594599D898FAA8F0B0FA80F007
:1040D00040F040004146B5EB501F01D130680BE085
:1040E00091FAA1F0B0FA80F040F04000B1EB501F1F
:1040F00001D1306A00E0706A98FAA8F1B1FA81F152
:1041000001F01F0205FA02F10842D7D02CE0FFE7C8
:10411000FFF75CF8824605E0FFF758F8A0EB0A01CC
:1041200059457CD898FAA8F0B0FA80F040F04000E9
:104130004146B5EB501F01D130680BE091FAA1F078
:10414000B0FA80F040F04000B1EB501F01D1306A6E
:1041500000E0706A98FAA8F1B1FA81F101F01F024B
:1041600005FA02F10842D7D1E06AA0B37168C90329
:1041700007D57168C1F38101022902D1F16AC9032F
:1041800079D44FF0806102280FD0F06A20F480309B
:10419000F06291FAA1F1B1FA81F147F82190FFF7AD
:1041A00015F880464FF0006A6CE03068C00005D515
:1041B000F06A626B00F0F00090425CD18B4691FA9D
:1041C000A1F1B1FA81F147F82190FEF7FFFF824695
:1041D0004FF0006806E06AE0FEF7F8FFA0EB0A0087
:1041E00064281CD898FAA8F0B0FA80F040F02000BB
:1041F000400901D0306800E0706A98FAA8F1B1FA7D
:1042000081F101F01F0105FA01F10842E4D1F06AE1
:10421000616B20F0F0000843F062F06A00E07DE09E
:10422000216B20F470600843F0629BFAABF0B0FAA7
:1042300080F047F82050FEF7C9FF824605E0FEF700
:10424000C5FFA0EB0A00642868D898FAA8F0B0FA75
:1042500080F040F02000400901D0306800E0706A32
:1042600098FAA8F1B1FA81F101F01F0105FA01F104
:104270000842E4D01BE099E0FEF7A8FFA0EB08009D
:1042800064284BD89AFAAAF0B0FA80F040F02000E7
:10429000400901D0306800E0706A9AFAAAF1B1FAD8
:1042A00081F101F01F0205FA02F10842E4D1206A0F
:1042B00098B37168C1F38101022977D002284FF0C9
:1042C00080714FF0007B48460AD091FAA1F1B1FA13
:1042D00081F147F82100FEF779FF04465F466EE062
:1042E000894691FAA1F1B1FA81F1BA4647F8210065
:1042F000FEF76CFFA84607465D4604E0FEF766FF42
:10430000C01B022858D895FAA5F0B0FA80F040F00A
:104310002000400903D0306802E065E04CE0706A9C
:1043200095FAA5F1B1FA81F101F01F0208FA02F144
:104330000842E3D1606AB0F5803F09D1F06A616854
:104340000843F062F06AE16820F00F000843F06271
:10435000D4E909010843716821F4741108437060BD
:1043600099FAA9F0B0FA80F047464AF82080FEF7A3
:104370002DFF044604E0FEF729FF001B02281BD88E
:1043800095FAA5F0B0FA80F040F02000400901D085
:10439000306800E0706A95FAA5F1B1FA81F101F098
:1043A0001F0107FA01F10842E5D01DE01EE0FEF70B
:1043B0000DFF001B022802D90320BDE8F88F97FAF1
:1043C000A7F0B0FA80F040F02000400901D030683A
:1043D00000E0706A97FAA7F1B1FA81F101F01F01CC
:1043E00005FA01F10842E2D10020E6E70120E4E706
:1043F00010B5040003D094F8510010B104E001207E
:1044000010BD204600F038F8022084F851002068E2
:10441000016821F040010160D4E901010843D4E9B9
:1044200003121143084361690843218B01F40071B1
:104430000843E1690843216A0843A16A08432168E7
:104440000860A069042101EA1040616A08432168FC
:1044500048602168E06A08612068C16921F4006150
:10446000C1610449002008706065012084F8510092
:10447000002010BD1400002070472DE9F8430026ED
:10448000DDF820800446ADF8006090F85100012866
:1044900003D094F8510022287DD169B162B15BB19B
:1044A00094F85000012876D0012784F8507094F8D1
:1044B0005100012803D005E00120BDE8F883322037
:1044C00084F851006665A263A387E3872163A3860E
:1044D000E386A664E664A06A4FF40055A84209D1B9
:1044E0002068016821F4005101602068016841F4EE
:1044F0000051016020680168490603D4016841F059
:1045000040010160E0684FF48271B0F5006F6068AF
:1045100007D0002867D088426ED1E08E012862D093
:104520006AE020B188420CD1E08E012809D1206BCD
:1045300021680088C860206B801C2063E08E401ECC
:10454000E086E08E80B9A06AA84244D12068016864
:1045500041F4805101603EE02068C068A16B088092
:10456000A06B801CA0639EE04346002202212046EF
:1045700003F040FB002874D1206B21680088C860DC
:10458000206B801C2063E08E401E0004000CE0863F
:1045900009D1A06A00E0C7E0A84204D12068016800
:1045A00041F480510160434600220121204603F07E
:1045B00021FB00286FD12068C068A16B0880A06B28
:1045C000801CA063E08F401EE087E08E0028CBD1E6
:1045D000606800286AD1434600220121204603F08A
:1045E00009FBF0BBB8E7206B411C21632168007810
:1045F000C860E08E401EE086E08E98B9A06AA842AE
:1046000004D12068016841F48051016043460022D2
:104610000121204603F0EEFA18BB2068C068A16BA8
:10462000087040E0434600220221204603F0E2FAEF
:10463000B8B9206B411C216321680078C860E08E06
:10464000401E0004000CE08607D1A06AA84204D1F5
:104650002068016841F48051016000224346012135
:1046600000E018E0204603F0C5FAA0B92068C16850
:10467000A06B421CA2630170E08F401EE087E08EB9
:104680000028CFD1606888B9434600220121204626
:1046900003F0B0FA08B103200FE72068C168A06BEF
:1046A000421CA2630170E08F401EE087A06AA8420E
:1046B00010D1434600220121204603F09BFA18B195
:1046C000606D40F002000FE02068C068ADF80000A7
:1046D000BDF80000434601228021204603F08AFAFB
:1046E00020B1606D40F010006065D4E784F851702F
:1046F000A06AA84214D120688168C943C9060FD4B2
:10470000616D41F002016165016821F400510160B1
:104710002068016841F40051016084F85060CBE6E4
:1047200084F850600020C8E60220C6E64FF0E02181
:104730000428086903D020F004000861704740F0A5
:104740000400FAE7704710B5401EB0F1807F01D336
:10475000012010BD4FF0E02460610F21601701F0CF
:1047600029F90020A06107202061002010BD10B5AC
:10477000FFF7E8FF10BD10B5040003D094F839002E
:1047800010B107E0012010BD002084F83800204659
:1047900000F00CF8022084F83900211D206803F095
:1047A00021FC012084F83900002010BD70477047BB
:1047B00038B5044600680168C268C1F3000102F41C
:1047C000807221B11AB1216C41F0010121640168AC
:1047D000C1F34002416901F0010122B119B1226C1B
:1047E00042F0040222640268C2F3800222B119B1CD
:1047F000226C42F0020222640268C2F3C00222B1BB
:1048000019B1216C41F008012164216C012539B1F5
:1048100001684068009084F83D502046FFF7C7FFCC
:1048200020680168C068C1F3401100F0200039B170
:1048300030B194F83D00222820462BD003F05AFFD7
:1048400020680168C068C1F3C01100F0800039B170
:1048500030B194F83D00122820461ED003F04AFFE4
:1048600021680868CA68C0F3801002F0400200287E
:104870000FD0002A0DD0CA68204622F04002CA603C
:1048800021684A6922F001024A6184F83D5000F033
:1048900053F838BD03F05CFED2E703F09FFFDFE77B
:1048A00070B5040004D094F83D00002510B106E076
:1048B000012070BD84F83C50204600F01BF8022017
:1048C00084F83D00204603F09BFE2068016921F436
:1048D000804101612068416921F02A01416120681D
:1048E000C16841F40051C1602564012084F83D0095
:1048F000002070BD7047704790F83D30012B18D1F3
:10490000A9B1A2B190F83C30012B12D041620285CE
:10491000428500210164122280F83D2080F83C107D
:104920000068C16841F08001C1600020704701202B
:10493000704702207047000008B501680D480C4A16
:10494000006891420BD16B460122091501F072F902
:1049500000224FF480510848FEF733FC08BD074A97
:104960009142FBD16B460122491401F063F908BD65
:104970000048004028010020000C014000380140A0
:1049800070472DE9F05F06460068884600EB481442
:10499000D4F808054FF0040B410708EB88004FF0EE
:1049A000050A4FF0100706EBC00508D5C4F808B596
:1049B000D4F80C0540F00200C4F80C0532E0D4F83D
:1049C0000805800601D520202AE0D4F808054FF01C
:1049D0000809000710D5D4F80C0540F00200C4F80F
:1049E0000C0585F849A0C4F80875C4F80895414637
:1049F000306805F056FB15E0D4F80805400511D5E0
:104A0000D4F80C0540F00200C4F80C0541463068AB
:104A100005F047FBC4F8087585F849904FF48060AD
:104A2000C4F80805D4F8080580050ED5D4F80C059F
:104A300040F00200C4F80C05414604F5A16430685A
:104A400005F02FFB4FF4007084E0D4F808054FF018
:104A50000001C0074FF001022DD085F8492069649C
:104A6000C4F8082595F82B0020B1022802D00328AD
:104A70000ED019E0D4F80C0540F00200C4F80C0583
:104A8000414604F5A164306805F00BFB27600BE09C
:104A9000D4F8000540F00050C4F8000585F848201F
:104AA00041463046FEF7EFFB15F83C0F80F0010061
:104AB0002870BDE8F09FD4F80805800733D5D4F8F6
:104AC0000C0520F00200C4F80C0595F849000223FB
:104AD000012806D0052807D0062808D0082806D0C7
:104AE00018E085F8482015E085F848A012E0686CC9
:104AF000421C6A64032803D9696485F848B001E060
:104B000085F84830D4F8000520F0804040F000409F
:104B1000C4F80005C4F8083595F8482041463046E9
:104B2000FEF7B1FBC5E7D4F80805000614D5D4F8A4
:104B30000C0540F00200C4F80C05686C4146401CAE
:104B40006864062085F8490004F5A164306805F022
:104B5000A8FA80202060ACE7D4F80805C006A8D5E4
:104B600095F82B00032803D068B102280BD012E07F
:104B7000D4F80C0540F00200C4F80C05414630683A
:104B800005F08FFA07E0D4F8000520F0804040F0EF
:104B90000040C4F80005032085F84900C4F80875F2
:104BA00087E72DE9F047026802EB4114D4F80825A5
:104BB0004FF0040C520709D5C4F808C5D4F80C0509
:104BC00040F00200C4F80C05BDE8F087D4F80825D1
:104BD00001EB810392064FF0020600EBC30514D5EA
:104BE0002022C4F8082595F82920012AECD185F85F
:104BF00049C0D4F80C2542F00202C4F80C25006824
:104C000005F04FFA85F84860DEE7D4F808254FF044
:104C1000000352060FD585F849C06B64D4F80C2503
:104C200042F00202C4F80C25006804F5A16405F006
:104C300038FA402010E0D4F8082592050ED5D4F8B3
:104C40000C2542F00202C4F80C25006804F5A164AA
:104C500005F027FA4FF400702060B5E7D4F8082576
:104C60004FF00108D20710D06B64D4F80C2542F045
:104C70000202C4F80C25006804F5A16405F011FADD
:104C8000C4F8008085F849809EE7D4F808254FF0E5
:104C9000080912074FF0050A0DD5C4F80895D4F895
:104CA0000C2542F00202C4F80C25006805F0F9F961
:104CB00085F849A088E7D4F808254FF01007D206F8
:104CC00010D56B64D4F80C2542F00202C4F80C2510
:104CD000006804F5A16405F0E4F9032085F84900B3
:104CE000276071E7D4F8082512060FD5D4F80C25F3
:104CF00042F00202C4F80C25006804F5A16405F036
:104D0000D0F9062085F849008020A5E7D4F80825C9
:104D1000520511D5D4F80C2542F00202C4F80C2536
:104D2000006804F5A16405F0BCF927604FF48060C9
:104D3000206085F8499047E7D4F8082592078CD57C
:104D4000D4F80C2522F00202C4F80C2595F849206D
:104D5000012A0AD0032A15D0042A16D0052A19D010
:104D6000062A1AD0082A18D02AE085F8488095F833
:104D70002B20022A24D195F83D2082F0010285F8EB
:104D80003D201DE085F848601AE085F8486085F808
:104D9000293015E085F848A012E06A6C571C6F6452
:104DA000032A03D96B6485F848C001E085F84860A0
:104DB000D4F8002522F0804242F00042C4F80025D9
:104DC000C4F8086595F84820FEF75DFAFCE67CB566
:104DD00004680546D4F840040190D4F8400420F05B
:104DE0002E000090019880070DD50198C00706D0CD
:104DF000A06920F00051A1612846FEF7EDF9009866
:104E000040F0020000900198000720D5009840F083
:104E100008000090019840070ED50198C0F341406A
:104E20000228286806D0012105F054FB2846FEF729
:104E3000D3F90CE00221F7E7D4F8400420F02E006B
:104E4000C4F840042868816941F0005181610198EB
:104E50008006009802D540F020000090C4F840047D
:104E60007CBD00002DE9F041024600680746016A5A
:104E7000C1F3434301F00F06C1F30A15022B25D1FC
:104E8000002D23D006EB860102EBC104216B002923
:104E90001CD02A4605F03DFB206B28442063A06B04
:104EA0002844A06307EB4610D0F81015084A1142B9
:104EB0000CD0D0F8001521F0804141F00041C0F83D
:104EC000001514F83C0F80F001002070BDE8F0815F
:104ED0000000F81FFEE7000010B50F4C0022402133
:104EE0002046FEF76EF907F0A5FC0022802120463F
:104EF000FEF767F9022006F0CDF801224021204696
:104F0000FEF75FF9022006F0C5F820460022BDE852
:104F100010404021FEF755B9000C01400F4810B574
:104F2000816986B041F00801816180690C4C00F014
:104F3000080004908020009003200390012001903D
:104F4000029069462046FEF753F8402100916946D9
:104F50002046FEF74DF806B010BD000000100240DC
:104F6000000C014010B50F4C002240212046FEF7F6
:104F700028F907F05FFC012280212046FEF721F985
:104F8000022006F087F8012240212046FEF719F999
:104F9000022006F07FF820460022BDE810404021A4
:104FA000FEF70FB9000C01402DE9F041074600243F
:104FB00007F02AFC134E0025002240213046FEF760
:104FC00000F9022006F066F8012240213046FEF783
:104FD000F8F86006040E80213046FEF7EDF808B1BF
:104FE000641CE4B2012006F055F86D1CEDB2082DEA
:104FF000E2D327B1FFF770FF2046BDE8F081FFF74D
:10500000B1FFF9E7000C014070B5054607F012FC4E
:10501000144E002240213046FEF7D3F80024280623
:1050200001D5012200E0002280213046FEF7C9F8B8
:105030006806050E022006F02DF8012240213046B8
:10504000FEF7BFF8022006F025F800224021304686
:10505000FEF7B7F8022006F01DF8641CE4B2082C35
:10506000DDD370BD000C014010B507F0E3FB0E4C22
:10507000012280212046FEF7A4F80122402120468B
:10508000FEF79FF8042006F005F800228021204654
:10509000FEF797F8042005F0FDFF20460022BDE84A
:1050A00010404021FEF78DB8000C014010B507F00C
:1050B000C1FB0E4C002240212046FEF782F8002260
:1050C00080212046FEF77DF8042005F0E3FF012251
:1050D00040212046FEF775F8012280212046FEF788
:1050E00070F8BDE81040042005F0D4BF000C01406A
:1050F00070B5002407F088FB134D0122802128465B
:10510000FEF75FF8012005F0C5FF01224021284687
:10511000FEF757F8012005F0BDFF07E0641CE4B27C
:10512000FA2C03D9FFF7C2FF012070BD8021284669
:10513000FEF742F80028F1D1002240212846FEF770
:1051400040F8002070BD0000000C0140054900201F
:10515000074A08700449087004491070012008705B
:1051600070470000B2000020B1000020B000002015
:105170002C100020024A0029507000D01170704796
:10518000AD00002010B507F0B3F8BDE8104007F0FF
:105190007DB9012802D03E2005F062BA3F20FBE72E
:1051A000C030C0B205F05CBA30B1012806D0022888
:1051B00007D0032808D0FF210846704741F040017E
:1051C000FAE741F08001F7E741F0C001F4E70000A1
:1051D00070B5154C207801280BD1002020707F225B
:1051E0000721B12002F056FD00220121C12002F06A
:1051F00051FD0E484078002814D01521401E90FB28
:10520000F1F201FB1200C5B200226178812002F0A8
:1052100041FD07487F22415D6170BDE870409120EB
:1052200002F038BD70BD00009E0000205400002038
:10523000D8CA00083220401E10F0FF00FBD1704792
:10524000204810B5816986B041F00401816181690F
:1052500001F004010491816941F0080181618169D3
:1052600001F008010491816941F0100181618069B8
:10527000154C00F0100004900820009003200390CB
:105280000120019069462046FDF7B2FE04210091FD
:1052900069462046FDF7ACFE022100916946204692
:1052A000FDF7A6FE1021009169462046FDF7A0FEFD
:1052B0002020009069462046FDF79AFE07F0C8FAC4
:1052C00006B010BD00100240001001400E4810B59D
:1052D000816986B041F01001816180690B4C00F05A
:1052E0001000049080200090012001900320039082
:1052F00069462046FDF77CFE012280212046FDF70D
:1053000060FF06B010BD0000001002400010014018
:1053100070B5214C2079032802D200F0C3F803E0D5
:10532000062806D200F058F930B32079401C2071CD
:1053300029E00025092810D2607910B1012807D092
:1053400021E000F0AFF8B8B16079401C60711AE05C
:1053500000F042F980B16571E7E710482571C28B12
:105360000D480078A0F13201C9B212B1012A0AD168
:1053700005E0642801D9217005E0FA2002E0322816
:10538000F9D87D2020702378BDE8704000221146B6
:10539000104601F03DB800006600002070100020AB
:1053A00010B50D4C607938B100F0A2F80B48C08BF5
:1053B00028B1012807D104E000F0D4F8F6E7642012
:1053C00000E03220207023780022BDE81040114612
:1053D000104601F01DB8000066000020701000208B
:1053E00010B5164C2079032801D3062805D200F009
:1053F000BDF90EE02079401C04E0072804D00828FD
:1054000005D00020207106E000F04CF801E000F02B
:10541000E3F80028EED10A48C08B10B1012804D16E
:1054200001E0642000E03220207023780022BDE8F3
:1054300010401146104600F0EBBF0000660000204F
:105440007010002010B5154C207940B1022809D207
:1054500000F040FA78B12079401C20710BE000F098
:10546000C3F9F7E700202071E078401C00F003004A
:10547000E07006F0BDFF0A48C08B10B1012804D1CE
:1054800001E0642000E03220207023780022BDE893
:1054900010401146104600F0BBBF0000660000201F
:1054A0007010002070B5104C104DA07920B901206B
:1054B000A071E0722879207300220221207B02F083
:1054C000EDFE00220121E07A02F0E8FEE07A20738E
:1054D000A988814203D9401CE072002070BD0020E1
:1054E000A071012070BD0000660000207010002037
:1054F00070B51A4C1A4DA07948B90121A171A8883C
:10550000607301EB5002A273E17340082074002223
:105510000221A07B02F0C2FE00220221207C02F0C8
:10552000BDFE00220121607B02F0B8FE00220121B5
:10553000E07B02F0B3FE617BA173E07B2074AA885C
:10554000B0EB520F05D2491E6173401CE07300207E
:1055500070BD00206071A071012070BD6600002048
:105560007010002070B51A4C1A4E0125A07940B970
:10557000A571B08805EB50016173A0734008E0731A
:10558000257400220221A07B02F088FE0022022165
:10559000207C02F083FE00220121607B02F07EFE6F
:1055A00000220121E07B02F079FE607BA073E17BA9
:1055B0002174B288824205D9401C6073491EE17390
:1055C000002070BD65710020A071012070BD000039
:1055D000660000207010002010B50F4CA07928B98B
:1055E0000E490120A0710979E17220730022022185
:1055F000207B02F053FE00220121E07A02F04EFEF1
:10560000E07A2073012803D9401EE072002010BD0B
:105610000020A071012010BD660000207010002045
:1056200010B5242204490220FAF74BFF024803492F
:105630008078087010BD000070100020AF000020BE
:1056400010B506490648FDF7B2FA044CA41EA11D88
:1056500020700448FDF7ABFA607010BD1800002000
:10566000A0CA0008B4CA000830B51B4885B08169DB
:1056700041F020018161816901F02001049181697B
:1056800041F010018161816901F01001049181698B
:1056900041F008018161816901F00801049181698B
:1056A00041F0040181618069012500F0040004904B
:1056B0002020CDE900050324694603940748FDF73F
:1056C00097FC40F60340CDE9000569460394044881
:1056D000FDF78EFC05B030BD001002400010014007
:1056E000000C014010B501220649074803F05CFB9D
:1056F0000649054804F07DFBBDE81040024804F06F
:10570000ADBB0000719E0008600500202400002051
:10571000014804F0BABA000060050020084A0749B1
:1057200012780878521E904201D1002000E0401CFF
:10573000087004490320087070470000B40000207E
:10574000B5000020AD0000200549087808B90548DB
:105750000078401E0870044903200870704700005C
:10576000B4000020B5000020AD00002070B51C4D35
:105770001C4EA87920B90120A8713179E9722873EB
:10578000002417E0421C297B62438A4206D004FBB6
:105790000010C0B20022022102F080FD96F8200025
:1057A000E97A002204FB0010C0B2012102F076FD6C
:1057B000641CA4B2B088E97A411A96F8200091FBE3
:1057C000F0F1491CA142DDDCE87A2873012803D9F5
:1057D000401EE872002070BD0020A871012070BD3D
:1057E000660000207010002070B5384C384D00263F
:1057F000A07928B90120A071E6722879401E207393
:10580000207BA278401CC0B2022102F047FD00229A
:105810000A231146104600F0FBFDE07AA278401CF6
:10582000C0B2012102F03AFD00220A2311461046BF
:1058300000F0EEFDE07940B3217B0844A988401CCC
:10584000B0FBF1F201FB1200401CC0B2A2780221B1
:1058500002F024FD00220A231146104600F0D8FD74
:10586000E07AE1790844A988401CB0FBF1F201FB21
:105870001200401CC0B2A278012102F00FFD0022EC
:105880000A231146104600F0C3FDE07A2073401C45
:10589000A988C0B2B0FBF1F201FB1200E07280B93E
:1058A000207A401C10F0010020720AD1E07995F8AE
:1058B0002010401CC0B2B0FBF1F201FB1200E071FD
:1058C00008B1002070BDA671012070BD66000020E7
:1058D0007010002070B5354C354DA07920B90121EC
:1058E000A1712879E0722173A2780221207B02F055
:1058F000D5FC00220A231146104600F089FDA2784B
:105900000121E07A02F0CAFC00220A231146104667
:1059100000F07EFD607A50B3217B421C914201D998
:10592000081A02E02A79401A101A401EC0B2A27862
:10593000022102F0B3FC00220A231146104600F0B7
:1059400067FD607AE17A421C914201D9081A02E0AF
:105950002A79401A101A401EC0B2A278012102F022
:105960009DFC00220A231146104600F051FDE07A0A
:105970002073012802D9401EE07212E00020A071BD
:10598000A07A401C10F00100A0720AD1607A95F84C
:105990002010401CC0B2B0FBF1F201FB120060729B
:1059A00008B1002070BD012070BD0000660000201D
:1059B000701000200907090E002806DA00F00F0019
:1059C00000F1E02080F8141D704700F1E02080F81D
:1059D000001470472DE9F041054600780F461E4639
:1059E0001446052804D0012018700020BDE8F0817D
:1059F00014F0800002D022F08004012080460020B4
:105A00003070FAF7C1FB7022FCB1012C23D0022CBC
:105A100008D0032C11D0FAF7BBFB00246F203070A4
:105A20002046E3E72C8921463C40BC4209D01CE0DB
:105A3000A14318E0FAF7ACFBF2E72C8921463C4081
:105A400013D0B8F1000FF5D0F2E7298927EA010455
:105A5000BC4204D009E0298937EA010405D0B8F135
:105A6000000FE7D021432981E4E73270E2E700002C
:105A700070B506460F480D46007818B11020087022
:105A8000002070BDFAF780FB0B490C6864B16268B6
:105A90000A60052121702681002608A16660E16068
:105AA000FAF776FB2E7003E0FAF772FB722028708B
:105AB000204670BDD20000200C0100203F000000F5
:105AC0002DE9F04F0446584887B09A460078109D5B
:105AD00091460F4608B1022095E05448007808B17D
