:020000040800F2
:10000000902E01209901000829BB0008E1AA0008F0
:100010005BB6000805100008E118010800000000A8
:10002000000000000000000000000000AFE2000837
:100030007D17000800000000FF010008B1E400087F
:10004000B3010008B3010008B3010008B3010008C0
:10005000B3010008B3010008B3010008B3010008B0
:10006000B3010008B3010008B3010008B3010008A0
:10007000B3010008B3010008B3010008B301000890
:10008000B3010008B3010008B3010008B301000880
:1000900009100008B3010008B3010008B30100080B
:1000A000B3010008B3010008B3010008B301000860
:1000B00001E60008B3010008A9E60008B301000842
:1000C000B3010008B3010008B3010008B301000840
:1000D000B301000829F6000879F60008B30100080A
:1000E000B3010008B3010008B3010008B301000820
:1000F000B3010008B3010008B3010008B301000810
:10010000B3010008B3010008B3010008B3010008FF
:1001100011F10008B3010008B301000895E70008D9
:10012000B3010008B3010008B3010008B3010008DF
:10013000B30100080000000000000000B301000847
:1001400065100008B3010008B301000807D10008DA
:10015000B3010008B3010008B3010008B3010008AF
:10016000B3010008B3010008B3010008B30100089F
:10017000B301000809D100080000000000000000E1
:10018000B3010008DFF80CD000F0ECFA004800479B
:1001900045550108902E0120064880470648004733
:1001A000FEE7FEE7FEE7FEE7FEE7FEE7FEE7FEE727
:1001B000FEE7FEE775E5000885010008EFF3108013
:1001C00072B6704780F3108870471D484FF0FF01EA
:1001D0000170002080F309881A48012101701A4833
:1001E0004FF08051016062B6FEE717484FF0805132
:1001F0000160704714484FF080510160704772B63B
:10020000EFF3098028B1203880E8F00F0F49096822
:10021000086000B50E4880475DF804EB0D480E49B4
:100220000A78027009480D490A680260106890E86F
:10023000F00F203080F309884EF0040E62B670474C
:1002400022ED00E00701002004ED00E02001002085
:1002500039C7000804010020050100202801002002
:100260002DE9F05F0546002092469B4688460646EB
:10027000814640241BE0284641464746224600F07E
:10028000CBF953465A46C01A914110D3114618462D
:10029000224600F0B2F92D1A67EB01084F462246BC
:1002A0000120002100F0A9F917EB00094E41201EA2
:1002B000A4F10104DFDC484631462A464346BDE846
:1002C000F09F40EA01039B0703D009E008C9121F11
:1002D00008C0042AFAD203E011F8013B00F8013B00
:1002E000521EF9D27047D2B201E000F8012B491E2C
:1002F000FBD270470022F6E710B513460A460446C3
:100300001946FFF7F0FF204610BD10B5044604E083
:100310000B7800F8013B03B1491C521EF8D220466D
:1003200010BDCAB2401E10F8011F8A4202D0002937
:10033000F9D100207047421C10F8011B0029FBD1A5
:10034000801A704710B5002200E0521C835C8C5C60
:10035000A34201D1002BF8D1D8B2E1B2401A10BDAE
:1003600030B504460020034600E05B1C934203D2F4
:10037000E05CCD5C401BF8D030BD034611F8012B8A
:1003800000F8012B002AF9D11846704770B50646CF
:1003900011F0F6FB046805460A220021304600F001
:1003A0004BF92C6070BD70B5064611F0E9FB04688E
:1003B00005460A220021304600F03EF92C6070BD4F
:1003C0002DE9FE4F81EA030404F0004421F00041CE
:1003D00000944FF0000B23F0004350EA01045ED07C
:1003E00052EA03045BD0C3F30A54C1F30A552C4408
:1003F000A4F2F3340194A0FB0254C1F3130141F4BD
:100400008011C3F3130343F4801301FB024400FB88
:10041000034E840A970A44EA815447EA8357A4FBAF
:10042000076802958D0A05FB07854FEA932C04FBAC
:100430000C542705029D4FEA065847EA1637B5EBDC
:1004400008056EEB070C870E920E47EA811742EA09
:100450008312A7FB0201B6EB0B0164EB00042B0D2A
:1004600043EA0C335E1844EB1C50DA465146E7FB76
:100470000201C5F313044FEA0B3343EA14534FEA66
:100480000432019C43EA0603A4F10C040294009C8C
:10049000CDE900B400F017F903B0BDE8F08F0020FB
:1004A0000146F9E72DE9F04D81EA030404F0004B21
:1004B00021F0004514464FF0000A23F0004150EAB5
:1004C000050220D054EA01021DD0C5F30A570246A6
:1004D000C5F31303C1F31300C1F30A5640F48015AA
:1004E00043F48013A7EB0608101BD64608F2FD382C
:1004F00073EB050002D308F1010801E092185B419B
:10050000B8F1000F03DA00200146BDE8F08D0020AD
:100510004FF48011064684460EE0171B73EB050767
:1005200005D3121B63EB050306434CEA010C490893
:100530004FEA300092185B4150EA0107EDD152EAD0
:10054000030012D082EA040083EA0501084305D0C3
:10055000101BAB4106D20122002306E000224FF01F
:10056000004302E06FF0010253101AEB06004CEB5F
:10057000085110EB0A0041EB0B01BDE8F04D00F013
:1005800093B80EB540F2334102910021CDE900113C
:100590000A460B4600F097F803B000BDC1F30A52BB
:1005A00010B5C1F3130140F2FF3341F480119A42B8
:1005B00001DA002010BD40F233439A42A2F23342E6
:1005C00003DC524200F028F810BD904010BD30B559
:1005D0000B46014600202022012409E021FA02F501
:1005E0009D4205D303FA02F5491B04FA02F528449B
:1005F000151EA2F10102F1DC30BD202A04DB203AF5
:1006000000FA02F1002070479140C2F1200320FA65
:1006100003F3194390407047202A04DB203A21FA63
:1006200002F00021704721FA02F3D040C2F120020B
:1006300091400843194670472DE9F04791460F460F
:1006400080460446002614F8015B2DB100F09CF8AA
:100650000068405DC007F6D12B2D02D02D2D18D09B
:10066000641E4A463946204600F092F827B13968A0
:10067000A14201D1C7F8008071054FF002040BD5EB
:100680004042002803DD11F07BFA0460A007BDE8BA
:10069000F08746F48066E4E70028F8DA11F070FA93
:1006A00004606FF00040F2E710B5141E73F100040F
:1006B00008DA401C41F1000192185B411A4301D154
:1006C00020F0010010BD2DE9F04D92469B4611B17E
:1006D000B1FA81F202E0B0FA80F220329046FFF7E0
:1006E0008CFF04460F4640EA0A0041EA0B015346DC
:1006F0005A46084313D0114653EA010019D0C8F1F5
:1007000040025046FFF788FF05460E4650465946C0
:100710004246FFF772FF084305D0012004E020465F
:100720003946BDE8F08D0020054346EAE0762C43CB
:1007300037430A986305E40AA0EB08000022FD0A8B
:1007400044EA47540A3002D500200146E9E7010592
:1007500010196941DDE9084500196941BDE8F04D0E
:10076000A2E70000064C074D06E0E06840F00103F8
:1007700094E8070098471034AC42F6D3FFF706FD23
:10078000D8F70108F8F701080048704764EA010843
:100790002DE9F05F82460078002715468B460AF166
:1007A0000104B946302801D09DB113E014F8010BC3
:1007B0000127782803D0582801D045B10AE00DB1AF
:1007C000102D07D10027102514F8010B02E0082591
:1007D00000E00A250026B0460EE005FB080005FBF8
:1007E00006F1012701EB10461FFA80F8B6F5803FAD
:1007F00000D3B94614F8010B294600F018F8002878
:10080000EBDABBF1000F05D00FB1641E00E05446D7
:10081000CBF80040B9F1000F06D011F0B1F9022178
:100820000160C81EBDE8F09F48EA0640FAE73A2892
:1008300000D2303820F02002412A01D3A2F1370043
:10084000884201D34FF0FF30704770B58C1810F814
:10085000015B15F0070301D110F8013B2A1106D105
:1008600010F8012B03E010F8016B01F8016B5B1E1F
:10087000F9D12B0705D40023521E0DD401F8013BFA
:10088000FAE710F8013BCB1A921C03E013F8015B66
:1008900001F8015B521EF9D5A142D8D3002070BDEA
:1008A00010B50AF041F9BDE8104007F00EBC70B574
:1008B00015460E46044608E02046641CA4B200F02B
:1008C00007F86D1E06F8010BADB2002DF4D170BD16
:1008D00010B504460AF0CEF9A0200AF09BF90AF000
:1008E0000DFA200A0AF096F90AF008FAE0B20AF0C6
:1008F00091F90AF003FA0AF0BDF9A1200AF08AF989
:100900000AF0FCF900200AF055F904460AF0D4F97F
:10091000204610BD70B514460D46064606E02978FF
:10092000304600F007F8761CB6B26D1C641EA4B207
:10093000F5D270BD70B50D4604460AF09BF9A020B3
:100940000AF068F90AF0DAF9200A0AF063F90AF005
:10095000D5F9E0B20AF05EF90AF0D0F928460AF0BB
:1009600059F90AF0CBF90AF0A7F9BDE870400A205E
:1009700012F044BA70477047014808F018BD0000F3
:100980006819002070477047704700007CB5214807
:10099000214C4FF48075C1684FF47A7048430A22A5
:1009A000B0FBF2F00190206899B1A1F5C3329F3AF3
:1009B00009D069460BF043FA184B1949C6074FF0A6
:1009C00000020BD108E06B46002229460BF0DCF94F
:1009D0007CBD6B460122F8E7C00304D50A601A709B
:1009E0006B46002213E00868019EB04203D200F17A
:1009F000010008607CBDFDD100F1010008604FF0EE
:100A0000010018709A7014F051FD6B4601222946BE
:100A10002068DBE7F423002078010020600000203C
:100A20009C0000203EB525490A20254C4A8BB2FB8C
:100A3000F0F2019289684FF47A724A43B2FBF0F007
:100A40000290E06981B1A1F5C3329F3A06D06946B0
:100A50000BF0F5F91B49C2070BD108E06B460022E9
:100A600004210BF091F93EBD6B460122F8E7C20369
:100A700004D500206B46024608601CE04007F2D413
:100A80000868401C0860019A4FF48051904202D1DE
:100A90006B46012210E0029A9042E4D96B46002294
:100AA000E0690BF071F96946E0690BF0C8F94002A2
:100AB000D9D46B4601220421E069D2E7F423002057
:100AC0005C0100209800002010B508F07FFC0DF0BC
:100AD000FFFC00F06BFEFFF7E3FE0AF09DFC0DF05B
:100AE0006DFD0CF077FE0AF0A7FC0AF0E1FC0AF0BD
:100AF000B9FC16F065FC0AF059F90EF031FD10F062
:100B000077FF0EF0B7FA00F049FBBDE810400CF09B
:100B1000BBBE00002DE9FF4F2D20B0FBF1F081B0EE
:100B2000491E01989B4600EB800202EB401090FBAF
:100B3000F1F00004000CC6B200D103260398002592
:100B4000012100F1010900F1020801EBD604B5EB27
:100B5000D60F11D0AC420FD02A460020039907F0DF
:100B600067FA09F0FF012A46FF2007F061FA08F052
:100B7000FF012A46002033E0F008DFF84CA106F020
:100B8000070700901AF80700009A039907F050FA37
:100B90001AF8070009F0FF01C0F1FF00009A07F002
:100BA00047FA08F0FF011AF80700009A07F040FA28
:100BB000062C17D20AF1090A22461AF807000399EF
:100BC00007F036FA1AF80700224609F0FF01C0F1D3
:100BD000FF0007F02DFA224608F0FF011AF807007F
:100BE00007F026FA6D1CEDB2062DB0D3012007F0F8
:100BF000A7FC01980025401CC6B26420B6FBF0F4A7
:100C0000ABF10C00C1B23CB104F13000C0B207221C
:100C100007F004FB012503E00722202007F0FEFA7D
:100C20002720444306EB8400C4B20A26B4FBF6F244
:100C3000ABF1060002B925B1C1B23032D0B2072201
:100C400002E0C1B20722202007F0E8FAB4FBF6F078
:100C500006FB10403030C0B20722594607F0DEFADA
:100C60001A4F3878012828D9002422E01849001B9F
:100C70000844624210F8010C0BEBC205401CC0B2E4
:100C8000B0FBF6F106FB1100A5F108013030C9B246
:100C9000C0B2072207F0C2FA681EC1B207221020B4
:100CA00007F0C6F9E9B20722102007F0C1F9641C69
:100CB000E4B23878411E8C42D8DB05B00020BDE894
:100CC000F04F07F03DBC00008BA60108B4000020E7
:100CD0007A230020F8B5002415460E460746012B5E
:100CE00004D07823009407F003FBF8BD012007F03F
:100CF0004DFC78232A4631463846009407F0F8FA2E
:100D0000BDE8F840002007F041BC00002DE9F047A5
:100D1000DFF8C8A0DFF8C8809AF80000032803D9DC
:100D2000032288F8002001E088F800002D49002403
:100D30002D4F09782D4E012902D0022905D010E04F
:100D40000CF0BAFB3C7034700FE098F80010327869
:100D5000491E8A4200DD34703A78411E8A4200DD25
:100D60003C7039783278914202D33878317800E09B
:100D7000511A401AC4B20025DFF8749020E0387888
:100D8000844208D1317849060A0ED9F800100123AF
:100D900051F8200006E06806020ED9F80000002392
:100DA00050F824000021FFF795FF9AF80000401E3C
:100DB000844201D1002401E0641CE4B26D1CEDB258
:100DC00098F800008542DAD39AF800103878BDE828
:100DD000F04778237D22FFF79DBE0000B800002079
:100DE000BA000020AE000020B7000020B9000020AB
:100DF000BC0000202DE9F047DFF8E480374E98F87A
:100E000000403178601EC2B271B1481E3070354F5B
:100E1000354D3B7828684BB15A06120E5B1E3B706D
:100E200050F82100002337E03270F0E7032C2ED970
:100E300034784FF0000A5246A94650F824000123A6
:100E40005146FFF747FF98F80000401E844201D149
:100E5000002401E0641CE4B201256806020ED9F802
:100E600000000023194650F82400FFF733FF98F8DC
:100E70000000401E844201D1002401E0641CE4B261
:100E80006D1CEDB2032DE8D387F800A012E03A7094
:100E900050F8210000231A460021FFF71BFF387885
:100EA00031784006020E2868012350F82100002105
:100EB000FFF710FF78237D2298F800103078FFF7B5
:100EC00029FE0B490948097800EB4100002130F860
:100ED000020CBDE8F04709F061BF0000B700002038
:100EE000B8000020B9000020BC00002064230020CE
:100EF000B30000202DE9F047DFF8F0803A4E0024DF
:100F000098F800203178501E814201D1347001E000
:100F1000481C30703748364F374D90F800C03B784A
:100F2000ACF1010C2868634504D05A06120E5B1C14
:100F30003B7034E06FF00103032A2CD934789946D2
:100F40000422AA4650F8240001230021FFF7C2FE24
:100F5000BCB1641EE4B2022509EB4500C2B2DAF866
:100F600000000023194650F82400FFF7B3FE6CB1CF
:100F7000641EE4B26D1E15F0FF05EDD1022038703D
:100F80001EE098F80000401EC4B2E4E798F80000A4
:100F9000401EC4B2EEE703EB42023C70D2B250F8FE
:100FA000210000231946FFF795FE38783178400676
:100FB000020E2868012350F821000021FFF78AFE65
:100FC00078237D2298F800103078FFF7A3FD0C49B4
:100FD0000A48097800EB4100002130F8020CBDE816
:100FE000F04709F0DBBE0000B7000020B800002089
:100FF000B9000020BA000020BC00002064230020BB
:10100000B3000020FEE7000070B5134D00240A2253
:101010002146284607F0F4FC696BA5F10C000A880C
:1010200002800A7B8270097CC17006E06A6B04F161
:101030001401515C0219641C1171C178A142F5D8E8
:10104000074C064920680DF00FFA2068BDE8704093
:1010500001490C3911F06EBB64CC002000640040E3
:101060009401002070B5134D00240A222146284621
:1010700007F0C6FC696BA5F150000A8802800A7B64
:101080008270097CC17006E06A6B04F11401515C46
:101090000219641C1171C178A142F5D8074C0649A8
:1010A00020680DF0E1F92068BDE870400149503931
:1010B00011F040BBA8CC0020006800409401002043
:1010C0000D49C0F8AC100D4940F8801F0C49416033
:1010D0000C4981600C49C1600C49C0F84C110C49A5
:1010E000C0F850110B49C0F8B8110B49C0F85411A1
:1010F0000A49C0F858117047E9B40008EBB4000879
:1011000057B60008D5B5000859B6000855B600080E
:1011100051B6000853B6000825B600082DB60008E1
:1011200070B5094DFF231A4605F5807605E010F8E5
:10113000014B54402A5D5A40335D491E89B2F6D2B4
:1011400042EA032070BD0000E2E7010810B5012962
:1011500001D0022902D10C31C9B2401E4B1C03EB55
:1011600043030524B3FBF4F302EB41011944C21716
:10117000014400EB927201EBA201642290FBF2F2B7
:10118000891A4FF4C87290FBF2F00844072190FBD3
:10119000F1F201FB1200401CC0B210BD70B514F09A
:1011A00043F81A4C184D2068C0F8E051FFF788FF4B
:1011B0000021206816F06EFC7F21206816F0C2FB2B
:1011C0000521206816F066FC1021284611F0F0FA7F
:1011D00010210F4811F0ECFA00204FF48031401C30
:1011E0008842FCD30020401C8842FCD30020401CD5
:1011F0008842FCD30020401C8842FCD30020401CC5
:101200008842FCD370BD00000064004094010020BF
:1012100000680040C82148430249B0FBF1F0024990
:101220004880704740420F007C0000202DE9F047C5
:10123000012714F0BDF820F0C0004FF000093F284E
:1012400002D0314AA2F80090304C314D314E0B386B
:1012500007283ED2DFE800F00B211A04282F3600C1
:10126000208800EB800005EB8000408805E02088A6
:1012700000EB800005EB80008088208000EB800080
:1012800005EB800000693060804723E0208800EB98
:10129000800005EB8000C088EFE7208800EB80002D
:1012A00005EB80000089E8E7208800EB800005EB73
:1012B00080008089E1E7208800EB800005EB80005A
:1012C0004089DAE7208800EB800005EB8000C089C8
:1012D000D3E70027DFF8408098F8000068B1208845
:1012E00000EB800005EB800000693060804798F8D3
:1012F0000010042904D088F800903846BDE8F08733
:10130000012188F80010F8E7C8000020B000002094
:1013100048B00108C4000020AE0000202DE9F04FC5
:101320008FB0044606F06CFF94A104A8FFF725F8DF
:10133000102680230122002104A8009606F0D8FF81
:10134000234691A2042104A810F0F2FB90A10DF114
:101350001300FFF712F880230422002104A800964E
:1013600006F0C6FF00226423114610460BF01AFA5D
:10137000DFF82482894F34B198F89703A04202D352
:10138000254687490BE098F89703A0420AD298F8BF
:1013900098130144A14205D3201A8249C5B2386886
:1013A0000DF062F805F5C0600E9080380B908DF856
:1013B00030500122FB2120460DF0C8FD04200026FC
:1013C0000DF1280A0A90CDE900A6DFF8D0914FF47C
:1013D000945B02960EAB01225946D9F8000010F03A
:1013E000DFFECDE900A602960BAB02225946D9F8E2
:1013F000000010F0D5FE01200A90CDE900A602966B
:101400000CAB03225946D9F8000010F0C9FE08EBD6
:10141000C407C246B7F8A8030990062002210DF1BF
:101420002408CDE90010CDE90286002346F2060229
:101430002946D9F8000016F08FFD002873D1284600
:1014400000F0F2F800286FD09AF89E03B346012608
:101450000DF1040C052100960990D1468CE8020993
:10146000DFF838A1334646F206022946DAF80000D2
:1014700016F072FD00287ED1284600F0D5F800282D
:1014800076D099F89F03D9464FF0050B0123CDE99B
:10149000003B0990CDE90289022346F20602294663
:1014A0005646DAF8000016F057FDE0BB284600F07B
:1014B000BBF800285CD0D7F8AA03CA4620F07F40CA
:1014C0000723042209908DE80C05032346F2060247
:1014D0002946B146306816F03FFD20BB284600F093
:1014E000A3F8002844D0B7F8A6035646CDE90286F3
:1014F0004FF0010A0990CDE900AB042346F2060241
:101500002946D9F8000016F027FD60B9284600F0FA
:101510008BF800282CD097F8AD03052346F206027D
:101520002946099001E026E022E0CDE90286CDE9D6
:1015300000ABD9F8000016F00FFDE0B9284600F026
:1015400073F8002814D00222FB2120460DF0FEFC87
:101550000DA8009014484FF47A7382224FF0007166
:1015600000680AF057FB9DF834000A2803D00120D8
:101570000FB0BDE8F08F0020FAE70000D5FDD4DA07
:10158000C5E4D6C30000000025303364000000002D
:10159000BAC5C9E8B1B80000F423002094010020C6
:1015A00000640040006800407801002010B586B05B
:1015B00004460BF081FF06F023FE234613A204210C
:1015C00001A810F0B5FA13A10DF10700FEF7D5FE42
:1015D000102480230122002101A8009406F088FE37
:1015E0000EA101A8FEF7C9FE80230422002101A854
:1015F000009406F07DFE00230122194618460BF0E8
:10160000D1F80BF023FF06B010BD00002530336485
:1016100000000000BAC5C9E8B1B80000C5E4D6C3EF
:10162000B3C9B9A621000000F8B50B4D06466424E5
:1016300000220A23114610460BF0B4F86A463146E0
:10164000286813F0EDFA012804D0641E2404240C49
:10165000EED10020F8BD00009401002030B40A460D
:10166000D0F89C10D0F8A0404FF0FF3351F8221072
:1016700024F81230C1F307410122431883F8B02047
:10168000D0F8AC2030BC10472DE9F04F9946DDE989
:10169000094C4FF0FF3BDDF82CA048E0ACEB020317
:1016A0005BB20D78002B02DD05FA03F503E0C3F110
:1016B000000325FA03F5EEB202DDCCF1080301E0E8
:1016C000C2F10803DBB2834200D903460CEB0307E7
:1016D0004FF0FF0808FA07F5CCF1080C28FA0CF8CF
:1016E00045EA080594F800C0AE430CEA050C1A441C
:1016F0004CEA060CD2B284F800C0072A07D90022AF
:10170000B9F1000F01D05D4600E00125294407F042
:10171000FF0CBCF1070F08D94FF0000CBAF1000F15
:1017200001D05D4600E001252C44C01AC0B200285B
:10173000B4D1BDE8F08F10B500210A4600EB81035B
:10174000491CC3F87C230F29F8D300214FF4007300
:101750004418491C84F81C219942F9D30270427044
:1017600001218170C0F8B82301764023837142764D
:1017700080F81C2380F81D13002010BD7047000066
:10178000411C0DD0084AB2F90010884201D1491E0F
:101790001180054A002100EB4000083202F83010A9
:1017A0004FF0FF30704700009801002038B52649FF
:1017B00000200A6842F001020A600968234C01F027
:1017C000010100914FF08041E060C4E90010204D1C
:1017D000482129702061A060204608F0E9FC2068BB
:1017E000016841F0040101602068016A41F21112B0
:1017F000114207D1016A9210114203D1016821F010
:1018000001010160062007F055FE022200211C2084
:1018100007F030FE1C2007F01FFE0E480E4900683E
:10182000B0FBF1F14FF47A704143012068804FF032
:10183000E020026942F0020202614161016941F067
:101840000101016138BD000040380240242300201E
:10185000A20000202000002040420F0010B500220E
:10186000114607A006F0EAFC0222002107A006F0BC
:10187000E5FC0422BDE81040002107A006F0DEBC14
:101880004275696C642054696D653A004E6F76202C
:10189000323320323031390032313A35393A333748
:1018A000000000000BF0D2BD2DE9F843234D244980
:1018B000DFF890802878244F00EB400001EB800295
:1018C000137988F8003051F82000386006F098FC51
:1018D0001E481F4C0078012805D10BF0EDFD1D4975
:1018E00000202070087010260096217838680022A9
:1018F0007E2350F82100114606F0FAFC16482178A4
:10190000022250F82100302106F0BCFD0096287814
:10191000124900EB40007E2351F8200006220021EE
:10192000406806F0E5FC98F80010207801B07823B4
:10193000BDE8F0437D22FFF7EDB80000B2000020C3
:101940009CAF0108B8000020BC000020AE000020C1
:10195000B7000020B90000202CB0010814B0010825
:1019600038B5164C164D207800B928780022401E54
:10197000207010200090134821787E23006850F8D2
:101980002100114606F0B4FC0F482178022250F8DD
:101990002100302106F076FD78237D2229782078F9
:1019A000FFF7B8F80A490948097800EB410000211F
:1019B00030F8020CBDE8384009F0F0B9B70000205B
:1019C000B8000020BC0000202CB0010864230020D7
:1019D000B300002038B5194D174C29782078491EDE
:1019E000884201D1002000E0401C207010200090AF
:1019F00013482178002200687E2350F82100114608
:101A000006F076FC0F482178022250F821003021A0
:101A100006F038FD78237D2229782078FFF77AF8C0
:101A20000A490948097800EB4100002130F8020C0E
:101A3000BDE8384009F0B2B9B7000020B800002076
:101A4000BC0000202CB0010864230020B30000205B
:101A5000154810B501781648144A0629007802EB9B
:101A600040001DD2DFE801F003080D10151506F047
:101A7000C7FB012110200FE006F0C2FB0121182056
:101A80000AE00121D02007E006F0BAFB0221202065
:101A900002E030F8020C0021BDE8104009F07EB9E8
:101AA00000210846F8E70000B7000020642300206A
:101AB000B30000200BF0CABC7047704770470000AD
:101AC00008B506F09DFB10200090074807497E23CB
:101AD0000078032200EB400051F82000002100684C
:101AE00006F006FC08BD0000B200002084AF01082B
:101AF000704770470BF0AABC0BF0A8BC704770474A
:101B00007047000008B506F07BFB1448154A164BD9
:101B1000007800EB4001124800EB81001060027970
:101B20001A70124A00687E2310601020009010483E
:101B3000062250F821000021406806F0D9FB0D482C
:101B40000078022806D10BF0B7FC0B490020087082
:101B50000A490870BDE80840FFF7D8B8B200002075
:101B60001CAE0108C0000020B8000020BC0000200E
:101B700014B00108AE000020B7000020B90000201A
:101B8000FFF738B9FFF7B6B90B48007850B1012814
:101B90000CD00B490948097800EB4100002130F8CE
:101BA000020C06E002214FF4947002E002214FF48F
:101BB000987009F0F3B80000B700002064230020FB
:101BC000B30000200BF042BC704770477047000024
:101BD00038B51D480078012818D11C4800241CA1E4
:101BE00004701C48FEF7C9FB1A481BA12130FEF700
:101BF000C4FB1A481AA2042190F8973315482238DA
:101C00000FF096FF1348223880F8214006F0F8FACA
:101C100010200090144815497E230078012200EB23
:101C2000400051F820001249097850F821000021A5
:101C300006F05EFB01B01023BDE830407E22042197
:101C400033200BF0BBBC0000AE000020B900002028
:101C500030303000B023002039393900F42300201F
:101C60002530336400000000B2000020CCAF010832
:101C7000B700002010B50BF04BFC0321BDE810406D
:101C8000F02009F08BB810B50BF05AFC0321BDE829
:101C90001040F02009F082B82DE9F0411848FEF715
:101CA00075FB84B27D2C0AD916481749007800EBE1
:101CB000400051F82000006805F00AFF19E0134DBC
:101CC00040F2993605F2973185F8974301220F4685
:101CD0003046FEF71FFE012239463046FEF7E7FD8B
:101CE00095F89703A04201D1012000E0002005F003
:101CF00005FFBDE8F0410321F02009F04FB80000D6
:101D00008E230020B2000020F4AE0108F42300204E
:101D10000BF09CBB704770477047000038B51D48FA
:101D20000078012818D11C4800241CA104701C480C
:101D3000FEF723FB1A481BA12130FEF71EFB1A48B1
:101D40001AA2042190F89833154822380FF0F0FEBB
:101D50001348223880F8214006F052FA10200090F3
:101D6000144815497E230078012200EB400051F809
:101D700020001249097850F82100002106F0B8FA35
:101D800001B01023BDE830407E22042133200BF047
:101D900015BC0000AE000020B9000020303030003B
:101DA000B023002039393900F42300202530336472
:101DB00000000000B2000020CCAF0108B7000020F6
:101DC00010B50BF0A5FB0321BDE81040F82008F08A
:101DD000E5BF10B50BF0B4FB0321BDE81040F820BF
:101DE00008F0DCBF2DE9F0411848FEF7CFFA84B2C5
:101DF0007D2C0AD916481749007800EB400051F8AD
:101E00002000006805F064FE19E0134D40F29A3698
:101E100005F5667185F8984301220F463046FEF7B6
:101E200079FD012239463046FEF741FD95F89803C9
:101E3000A04201D1012000E0002005F05FFEBDE8D6
:101E4000F0410321F82008F0A9BF00008E230020F4
:101E5000B2000020F4AE0108F42300200BF0F6BA23
:101E600070477047704700002DE9FE43424F002441
:101E7000424E3878424D4FF02008012827D1414882
:101E800041A1047005F12200FEF777FA41A105F1A6
:101E90004300FEF772FA85F82A40472085F84B0088
:101EA0000120F0823020287068703120A87085F8F9
:101EB00003802D21297169713E213948A97185F866
:101EC000078090F8250228726C7285F821403878D6
:101ED00003282CD195F82100082828D0032228496E
:101EE00001A8FEF712FA8DF807402548FEF74EFAD2
:101EF00084B2FA2C12D92B482B49007800EB400011
:101F000051F82000006805F0E3FDF48A27A223467B
:101F100004211B480FF00CFE85F80380F08AA042D4
:101F200005D01F48F482204490F82402287206F05D
:101F300067F9102000907E23012200211DA006F0E9
:101F4000D7F910237E2204211B200BF037FB95F8D4
:101F50002100082802D1022006F018FB287A19492E
:101F6000042251F820005B2106F068F9002006F0F9
:101F70000DFBBDE8FE830000AE000020CA0000207B
:101F80008E230020B9000020303030202D2D3E203F
:101F900030000000323939202D2D3E20780000001D
:101FA000F4230020B2000020F4AE01082530336491
:101FB00000000000C9E8B1B8BAC52020C6B4D2F408
:101FC00000000000E0D6010810B50BF0A1FABDE852
:101FD000104003214FF4A07008F0E0BE10B50BF0E4
:101FE000AFFABDE8104003214FF4A07008F0D6BE50
:101FF0002DE9FC4103221F496846FEF786F90020BF
:102000008DF803001B48FEF7C1F980B2FA280AD9FF
:1020100019481A49007800EB400051F82000006888
:1020200005F056FD1EE0164A124D1418A71A297A1B
:1020300084F8241204F5097107F226270E46B8B277
:102040000122FEF767FC3146B8B20122FEF72FFCF1
:10205000287A94F82412884201D1012000E000205F
:1020600005F04CFD03214FF4A07008F097FEBDE889
:10207000FC8100008E230020B2000020F4AE010895
:10208000F42300200BF0E2B970477047704700005E
:1020900008B506F0B5F81548164A174B007800EB5E
:1020A0004001134800EB8100106002791A70134A56
:1020B00000687E231060102000901148062250F81E
:1020C00021000021806806F013F90E4800780228EC
:1020D00008D10BF0F1F90C480C4990F89F030870F7
:1020E0000B490870BDE80840FEF710BEB2000020A2
:1020F00004AE0108C0000020B8000020BC00002091
:1021000014B00108AE000020F4230020B700002026
:10211000B9000020FEF76EBEFEF7ECBE2DE9F041DF
:102120000BF0CAF906F06CF80F48104D40F2A136DA
:10213000047805F29F3185F89F4301220F4630460F
:10214000FEF7E8FB012239463046FEF7B0FB95F872
:102150009F03A04201D1012000E0002005F0CEFC49
:10216000BDE8F0410BF072B9B7000020F423002065
:102170000BF06CB970477047704700000D4808B508
:102180000078012804D10C49002008700B49087020
:1021900006F036F81020009009480A497E2300789E
:1021A000032200EB400051F820000021006906F0F6
:1021B0009FF808BDAE000020B7000020B900002045
:1021C000B200002014B001087047704710B506F047
:1021D00041FA012005F092FC0BF038F90221BDE82C
:1021E0001040102008F0DABD0BF030B9704770478E
:1021F0007047000008B506F003F80F48104A114B6D
:10220000007800EB40010D4800EB8100106002797E
:102210001A700D4A00687E231060102000900B4851
:10222000062250F821000021406806F061F8BDE860
:102230000840FEF76BBD0000B20000207CAE010834
:10224000C0000020B8000020BC00002014B001082D
:10225000FEF7D0BDFEF74EBE0D4810B5007850B168
:1022600001280DD00C490B48097800EB41000021F2
:1022700030F8020C08E00BF01FF90121D82003E030
:102280000BF01AF90121E020BDE8104008F086BDEE
:10229000B700002064230020B30000200BF0D6B864
:1022A000704770477047000008B505F0A9FF154852
:1022B000164A174B007800EB4001134800EB8100F1
:1022C000106002791A70134A00687E231060102093
:1022D00000901148062250F821000021806806F085
:1022E00007F80E480078022808D10BF0E5F80C48F2
:1022F0000C4990F89E0308700B490870BDE808402F
:10230000FEF704BDB2000020ECAD0108C0000020C3
:10231000B8000020BC00002014B00108AE0000206E
:10232000F4230020B7000020B9000020FEF762BDB2
:10233000FEF7E0BD2DE9F0410BF0BEF805F060FFBF
:102340000F48104D4FF46876047805F29E3185F8F9
:102350009E4301220F463046FEF7DCFA0122394641
:102360003046FEF7A4FA95F89E03A04201D1012061
:1023700000E0002005F0C2FBBDE8F0410BF066B8BC
:10238000B7000020F42300200BF060B870477047BE
:10239000704701214FF4E87008F000BD70477047A6
:1023A0007047000070B53048304E314C007886B030
:1023B000012806D12F490020307008702E4920795D
:1023C000087005F01DFF2D482DA20421C38901A826
:1023D0000FF0AEFB2CA10DF10700FDF7CEFF10258D
:1023E00080230122002101A8009505F081FF28A18A
:1023F00001A8FDF7C2FF80230322002101A8009558
:1024000005F076FF3078254DF0B1002006F0BEF8DB
:102410002878062200EB4000102154F820000068C4
:1024200005F00CFF012006F0B1F82878062200EB39
:102430004000502154F82000406805F0FFFE0020C5
:1024400006F0A4F806B070BD012006F09FF82878C9
:10245000062200EB4000102154F82000006805F02F
:10246000EDFE0020DFE70000AE000020B7000020F6
:102470006CAF0108B9000020B8000020CA0000209D
:102480002530336400000000BAC5C9E8B1B80000C7
:10249000C5E4D6C3CAA7B0DC21000000B20000200A
:1024A00010B509F0DBF8BDE8104003214FF4EC70E3
:1024B00008F074BC10B509F0E7F8BDE8104003213E
:1024C0004FF4EC7008F06ABC0848007840B1084A44
:1024D000D089518A884202D2401CD08100E0D1814B
:1024E000012140F2D11008F059BC0000B7000020D3
:1024F000CA000020F8B521480078012821D12048E1
:10250000002620A106702148FDF737FF1F4820A1B3
:102510002130FDF732FF204D1C4820A22B8A0421D8
:1025200022380FF005FB194C2D20223C1BA2E07035
:102530006B8A0421201D0FF0FBFA84F82160012032
:10254000287005F05DFE10200090164816497E2385
:102550000078012200EB400051F82000134909786F
:1025600050F82100002105F0C3FE01B01023BDE8A2
:10257000F0407E22042123200BF020B8AE00002082
:10258000B90000203030302D30303000B023002032
:102590003939392D39393900CA00002025303364E2
:1025A00000000000B2000020CCAF0108B7000020FE
:1025B00010B50AF0ADFFBDE8104003214FF4E870FC
:1025C00008F0ECBB10B50AF0BBFFBDE810400321DA
:1025D0004FF4E87008F0E2BB10B586B0032225493D
:1025E0006846FDF792FE6846FDF7D0FE224C214971
:1025F00003222082091D6846FDF787FE6846FDF725
:10260000C5FE80B26082218AFF2901D8FF280AD93D
:102610001A481B49007800EB400051F82000006880
:1026200005F056FA13E0207801280CD1E1810AE088
:10263000C0B2FEF773FE207068B1A07BFEF7B6FF54
:10264000E089401CE081E089618A8842F0D9032159
:102650004FF4E87009E00B480021006814F08CFE8C
:102660000BF0F2F904214FF4EC7008F097FB06B080
:1026700010BD00008E230020CA000020B200002000
:10268000F4AE0108940100200AF0E0BE70477047E4
:10269000704700000D4808B50078012804D10C49A6
:1026A000002008700B49087005F0AAFD102000906A
:1026B00009480A497E230078032200EB400051F8C4
:1026C00020000021006905F013FE08BDAE000020C7
:1026D000B7000020B9000020B200002014B00108AB
:1026E0007047704710B50BF0A1F9012005F006FA0C
:1026F0000AF0ACFE0221BDE81040182008F04EBBE5
:102700000AF0A4BE704770477047000038B51B48F8
:102710000078012814D11A4800241AA104701A481C
:10272000FDF72BFE184819A12130FDF726FE1648AB
:1027300014A12238FDF721FE1348223880F82140E9
:1027400005F05EFD10200090114812497E230078AC
:10275000012200EB400051F820000F49097850F8A1
:102760002100002105F0C4FD01B01023BDE8304078
:102770007E22042133200AF021BF0000AE00002099
:10278000B900002030303000B02300203939390042
:10279000B2000020D4AD0108B700002010B50AF047
:1027A000B7FEBDE8104003214FF4C47008F0F6BA3C
:1027B00010B50AF0C5FEBDE8104003214FF4C47007
:1027C00008F0ECBA38B51E48FDF7E0FD84B2FA2CEB
:1027D0000AD91C481C49007800EB400051F8200041
:1027E000006805F075F925E018486B4600224FF4A3
:1027F0008041006809F0C8FAE0B20CF033FC144DD7
:10280000286809F03DFC8DF800006A464FF47A71A3
:10281000286809F043FC9DF800100A2905D00178CA
:10282000A14204D04078FD2801D0002000E0012022
:1028300005F064F903214FF4C47008F0AFFA38BD15
:102840008E230020B2000020F4AE010878010020A1
:10285000740100200AF0FABD70477047704700000D
:10286000F8B52848007801282FD12748002627A14D
:1028700006702948FDF781FD274828A12130FDF782
:102880007CFD254C3220223C0022207030206070DC
:102890002549264807F042F9234D25A20321EB786C
:1028A000A01C0FF045F92F2727716B7820A2032178
:1028B000601D0FF03DF9E771AB781DA2032104F113
:1028C00008000FF035F984F8216005F099FC10201C
:1028D0000090194819497E230078012200EB40003E
:1028E00051F820001649097850F82100002105F020
:1028F000FFFC01B01023BDE8F0407E220421172028
:102900000AF05CBEAE000020B9000020323030304A
:102910002F30302F30300000B023002032303939D2
:102920002F31392F33390000CB0E002040DE00203C
:102930002530326400000000B20000207CAE0108A7
:10294000B700002010B50AF0E3FD0321BDE81040F8
:10295000E02008F023BA10B50AF0F2FD0321BDE82B
:102960001040E02008F01ABA38B51BA01B4D0068D3
:1029700000900222A91C6846FDF7C7FC6846FDF7D7
:1029800005FD174C0222691DE0706846FDF7BDFC8D
:102990006846FDF7FBFC6070022205F108016846FD
:1029A000FDF7B3FC6846FDF7F1FCC2B2A270E07817
:1029B000617800F5FA60FEF7C9FB2070002221461D
:1029C000084807F04FF9012005F098F80321E020AE
:1029D00008F0E4F938BD00002A2A00008E23002008
:1029E000CB0E002040DE00200AF030BD704770475B
:1029F000704700002DE9FE43424F0024424E3878D4
:102A0000424D4FF02008012827D1414841A10470D0
:102A100005F12200FDF7B1FC41A105F14300FDF7EE
:102A2000ACFC85F82A40192085F84B000120B082C3
:102A30003020287068703120A87085F803802D211F
:102A4000297169713E213948A97185F8078090F88C
:102A5000250128726C7285F82140387803282CD122
:102A600095F82100082828D00322284901A8FDF75D
:102A70004CFC8DF807402548FDF788FC84B2FA2C01
:102A800012D92B482B49007800EB400051F8200068
:102A9000006805F01DF8B48A27A2234604211B48CC
:102AA0000FF046F885F80380B08AA04205D01F4891
:102AB000B482204490F82401287205F0A1FB102074
:102AC00000907E23012200211DA005F011FC10239F
:102AD0007E2204211B200AF071FD95F821000828B0
:102AE00002D1022005F052FD287A1949042251F83A
:102AF00020005B2105F0A2FB002005F047FDBDE8AA
:102B0000FE830000AE000020CA0000208E230020BB
:102B1000B9000020303030202D2D3E203000000044
:102B2000393939202D2D3E2078000000F423002073
:102B3000B2000020F4AE010825303364000000002C
:102B4000C9E8B1B8BAC52020D7D6B7FB000000004D
:102B500078D6010810B50AF0DBFCBDE8104003216F
:102B60004FF49C7008F01AB910B50AF0E9FCBDE802
:102B7000104003214FF49C7008F010B92DE9FC417E
:102B800003221F496846FDF7C0FB00208DF80300B3
:102B90001B48FDF7FBFB80B2FA280AD919481A49ED
:102BA000007800EB400051F82000006804F090FF2E
:102BB0001EE0164A124D1418A71A297A84F8241117
:102BC00004F5927107F593770E46B8B20122FDF72E
:102BD000A1FE3146B8B20122FDF769FE287A94F8C9
:102BE0002411884201D1012000E0002004F086FF7A
:102BF00003214FF49C7008F0D1F8BDE8FC8100007F
:102C00008E230020B2000020F4AE0108F42300203F
:102C10000AF01CBC70477047704700000D4808B5AB
:102C20000078012804D10C49002008700B49087075
:102C300005F0E6FA1020009009480A497E23007842
:102C4000032200EB400051F820000021006905F04C
:102C50004FFB08BDAE000020B7000020B9000020E7
:102C6000B200002014B001087047704710B50AF098
:102C7000DDFE012004F042FF0AF0E8FB0221BDE87E
:102C80001040102008F08AB80AF0E0BB7047704787
:102C9000704700002DE9F043DFF8C481DFF8C491EC
:102CA0002D2798F80000704D0026704C87B0012841
:102CB0001ED16F486FA1067004F12200FDF75DFB85
:102CC0006EA104F14300FDF758FBAB786DA204211F
:102CD00020460EF02DFFE770A9786AA209EBC1002B
:102CE0000421B0F8A633201D0EF022FF84F82160E5
:102CF00098F8000003283AD194F82100032836D22E
:102D000003225A4901A8FDF700FB8DF8076001A8CE
:102D1000FDF73CFB80B26883FA2812D95B485C4916
:102D2000007800EB400051F82000006804F0D0FE6D
:102D3000AB7854A204214D480EF0FAFEE770A87853
:102D40006883A97880B2884211D0C3B2AB704DA21B
:102D5000042146480EF0ECFEE770AA78201D09EB2E
:102D6000C20148A2B1F8A63304210EF0E1FE05F03D
:102D700047FA48A101A8FDF700FB002101A8FDF7D3
:102D8000D0FA03223949FDF7C0FA10258DF80E60FC
:102D90007E230122002101A8009505F0A9FA94F8EC
:102DA00021003E4FDFF8F88003281DD2022005F0F5
:102DB000EDFB002005F0C4FB94F82100012201196D
:102DC00001A8FDF7A2FA8DF8056094F82100397882
:102DD00098F8002001EBC0001838C1B201A805F036
:102DE0002DFA002005F0D2FB2EA101A8FDF7C5FAAF
:102DF000002101A8FDF795FA0322211DFDF785FAB0
:102E00008DF80C607E230422002101A8009505F0B6
:102E10006FFA94F82100001F03281DD2022005F04C
:102E2000B5FB002005F08CFB94F82100012201196C
:102E300001A8FDF76AFA8DF8056094F82100397849
:102E400098F8002001EBC0003838C1B201A805F0A5
:102E5000F5F9002005F09AFB07B0BDE8F08300000B
:102E6000AE000020F4230020CA0000208E230020A2
:102E7000B90000203030302D303030003239392D5B
:102E8000393939002530336400000000B2000020D9
:102E9000F4AE0108C9E8B1B8BAC53A00A8000020EC
:102EA000A9000020BBA8D1F93A00000010B50AF033
:102EB0002FFBBDE8104003214FF4B47007F06EBF44
:102EC00010B50AF03DFBBDE8104003214FF4B4708B
:102ED00007F064BFF8B5032228496846FDF715FAE4
:102EE0006846FDF753FA264E244903227083091DD4
:102EF0006846FDF70AFA6846FDF748FA84B2708B17
:102F0000FA2802D8B4F57A7F0AD31E481E49007801
:102F100000EB400051F82000006804F0D9FD27E0E4
:102F2000C0B21A4DB07005EBC00000F2A631A0F897
:102F3000A643401B00F56A7080B20222FDF7EAFC4E
:102F4000B078022205EBC00000F2A631401B00F56C
:102F50006A7080B2FDF7ABFCB07805EBC000B0F84A
:102F6000A603A04201D1012000E0002004F0C6FD2C
:102F700003214FF4B47007F011FFF8BD8E23002039
:102F8000CA000020B2000020F4AE0108F4230020A3
:102F90000AF05CBA704770477047000008B505F04A
:102FA0002FF91448154A164B007800EB40011248DF
:102FB00000EB8100106002791A70124A00687E23CB
:102FC0001060102000901048062250F821000021C7
:102FD000406805F08DF90D480078022806D10AF006
:102FE0006BFA0B49002008700A490870BDE80840D8
:102FF000FDF78CBEB2000020D4AD0108C000002057
:10300000B8000020BC00002014B00108AE00002071
:10301000B7000020B9000020FDF7ECBEFDF76ABF45
:10302000234810B50078092839D2DFE800F00509F7
:103030000D13191F252B2F0002214FF4C8702AE011
:1030400002214FF4AC7026E00AF036FA01214FF469
:10305000B07020E00AF030FA01214FF4B4701AE0A9
:103060000AF02AFA01214FF4B87014E00AF024FAA9
:1030700001214FF4BC700EE00AF01EFA01214FF45A
:10308000CC7008E001214FF4D07004E00AF014FA8B
:1030900001214FF4F070BDE8104007F07FBE0649F3
:1030A0000448097800EB4100002130F8020CF2E7F7
:1030B000B700002064230020B30000200AF0C6B946
:1030C00008B505F09DF80F48104A114B007800EB49
:1030D00040010D4800EB8100106002791A700D4A22
:1030E00000687E231060102000900B48062250F8E4
:1030F00021000021406805F0FBF8BDE80840FDF71D
:1031000005BE0000B2000020B4AF0108C0000020DE
:10311000B8000020BC00002014B00108FDF76ABE12
:10312000FDF7E8BE1B4810B50078072828D2DFE875
:1031300000F004090E11141A1F000AF0BDF9012154
:10314000402019E00AF0B8F90121482014E00221DA
:10315000A82011E00221C8010EE00AF0ADF901211A
:103160004FF4847008E00AF0A7F90121502003E031
:103170000AF0A2F90121E820BDE8104007F00EBED8
:1031800006490548097800EB4100002130F8020C9F
:10319000F2E70000B700002064230020B300002005
:1031A0000AF054B9704770477047000008B505F041
:1031B00027F81548164A174B007800EB40011348D2
:1031C00000EB8100106002791A70134A00687E23B8
:1031D0001060102000901148062250F821000021B4
:1031E000806805F085F80E480078022808D10AF0BA
:1031F00063F90C480C4990F8210008700B490870DD
:10320000BDE80840FDF782BDB2000020ACAE010869
:10321000C0000020B8000020BC00002014B001084D
:10322000AE000020F4230020B7000020B9000020E9
:10323000FDF7E0BDFDF75EBE70B50AF03DF904F0A4
:10324000DFFF0E480E4D0E490478213105F8214F5D
:1032500001220E462320FDF75DFB0122314623208B
:10326000FDF725FB2878A04201D1012000E00020D5
:1032700004F044FCBDE870400AF0E8B8B700002054
:10328000F42300200AF0E2B870477047704700004E
:1032900008B504F0B5FF1448154A164B007800EB4A
:1032A0004001124800EB8100106002791A70124A46
:1032B00000687E231060102000901048062250F80D
:1032C00021000021406805F013F80D48007802281D
:1032D00006D10AF0F1F80B49002008700A4908707D
:1032E000BDE80840FDF712BDB200002094AE010811
:1032F000C0000020B8000020BC00002014B001086D
:10330000AE000020B7000020B9000020FDF772BD1C
:10331000FDF7F0BD184810B50078052823D2DFE886
:1033200000F003080D1319000AF0C6F80121C020AF
:1033300015E00AF0C1F80121C82010E00AF0BCF83D
:1033400001214FF488700AE00AF0B6F801214FF429
:103350008C7004E00AF0B0F801214FF49070BDE8E1
:10336000104007F01BBD06490448097800EB4100F6
:10337000002130F8020CF2E7B7000020642300209F
:10338000B30000200AF062B8704770477047000031
:1033900008B504F035FF1548164A174B007800EBC6
:1033A0004001134800EB8100106002791A70134A43
:1033B00000687E231060102000901148062250F80B
:1033C00021000021806804F093FF0E480078022855
:1033D00008D10AF071F80C480C4990F8960308706F
:1033E0000B490870BDE80840FDF790BCB200002012
:1033F00064AE0108C0000020B8000020BC0000201E
:1034000014B00108AE000020F4230020B700002013
:10341000B9000020FDF7EEBCFDF76CBD2DE9F041D1
:103420000AF04AF804F0ECFE0F48104D4FF46676AF
:10343000047805F2963185F8964301220F4630460E
:10344000FDF768FA012239463046FDF730FA95F863
:103450009603A04201D1012000E0002004F04EFBC1
:10346000BDE8F04109F0F2BFB7000020F4230020CE
:1034700009F0ECBF70477047704700002DE9F0433A
:10348000DFF8D081DFF8D0912D2798F80000734D38
:103490000026734C87B001281ED1724872A10670B5
:1034A00004F12200FCF769FF72A104F14300FCF76C
:1034B00064FFEB7872A2042120460EF039FBE7701E
:1034C000E97871A209EBC1000521B0F8A833201DED
:1034D0000EF02EFB84F8216098F8000003283AD102
:1034E00094F82100032836D203225D4901A8FCF795
:1034F0000CFF8DF8076001A8FCF748FF80B2A88395
:10350000FA2812D962486349007800EB400051F86C
:103510002000006804F0DCFAEB7859A2042150483E
:103520000EF006FBE770E878A883E97880B288425D
:1035300011D0C3B2EB7052A2042149480EF0F8FA40
:10354000E770EA78201D09EBC2014FA2B1F8A83359
:1035500005210EF0EDFA04F053FE4FA101A8FCF78F
:103560000CFF002101A8FCF7DCFE03223C49FCF71C
:10357000CCFE10258DF80E607E230122002101A8CB
:10358000009504F0B5FE94F82100454FDFF8148152
:1035900003281DD2022004F0F9FF002004F0D0FF20
:1035A00094F821000122011901A8FCF7AEFE8DF864
:1035B000056094F82100397898F8002001EBC000EC
:1035C0001838C1B201A804F039FE002004F0DEFF73
:1035D00035A101A8FCF7D1FE002101A8FCF7A1FE4E
:1035E0000422211DFCF791FE8DF80F60002101A837
:1035F000FCF797FE2EA1FCF7C0FE7E2304220021DB
:1036000001A8009504F074FE94F82100001F04281E
:103610001DD2022004F0BAFF002004F091FF94F8BC
:1036200021000122011901A8FCF76FFE8DF8056049
:1036300094F82100397898F8002001EBC000503848
:10364000C1B201A804F0FAFD002004F09FFF07B00A
:10365000BDE8F083AE000020F4230020CA00002063
:103660008E230020B90000203030302D3030303033
:10367000000000003239392D393939390000000095
:103680002530336400000000253034640000000061
:10369000B2000020F4AE0108C9E8B1B8BAC53A00DA
:1036A000A8000020A9000020B5C6D6E9CAFD3A004E
:1036B000B8F6000010B509F02BFFBDE8104003215B
:1036C0004FF4BC7007F06ABB10B509F039FFBDE8D4
:1036D000104003214FF4BC7007F060BB7CB503229F
:1036E00028496846FCF711FE6846FCF74FFE264E57
:1036F00024490422B083091D6846FCF706FE68468B
:10370000FCF744FE84B2B08BFA2802D8B4F5006FFF
:103710000AD91E481E49007800EB400051F82000ED
:10372000006804F0D5F927E0C0B21A4DF07005EB3F
:10373000C00000F56A71A0F8A843401B00F2AA304F
:1037400080B20222FDF7E6F8F078022205EBC00015
:1037500000F56A71401B00F2AA3080B2FDF7A7F8AD
:10376000F07805EBC000B0F8A803A04201D1012019
:1037700000E0002004F0C2F903214FF4BC7007F010
:103780000DFB7CBD8E230020CA000020B20000206B
:10379000F4AE0108F423002009F058BE38B504F057
:1037A0002FFD144C154A164B207800EB40011248AF
:1037B00000EB8100106002791A70124A00687E23C3
:1037C0001060102000901048062250F821000021BF
:1037D000806804F08DFD0D480078022806D109F0BC
:1037E0006BFE0B49207808700A490870BDE8384024
:1037F000FDF78CBAB2000020FCAF0108C000002029
:10380000B8000020BC00002014B00108AE00002069
:10381000B7000020B9000020FDF7ECBAFDF76ABB45
:1038200010B509F049FE04F0EBFC0E480E4C007890
:1038300008B1012803D120700A2004F0E3FC2078AD
:103840000A4C0222A11C60800420FDF763F80222CA
:10385000A11C0420FDF72BF804F0D2FCBDE81040B9
:1038600009F0F4BDB7000020B2000020F4230020CE
:1038700009F0ECBD70477047704700002DE9F04338
:10388000DFF8D481DFF8D4912D2798F80000744D2B
:103890000026744C87B001281ED1734873A10670AE
:1038A00004F12200FCF769FD72A104F14300FCF76A
:1038B00064FD2B7971A2042120460EF039F9E770DE
:1038C000297970A209EBC100022190F8AD33201DC7
:1038D0000EF02EF984F8216098F8000003283AD100
:1038E00094F82100032836D203225E4901A8FCF790
:1038F0000CFD8DF8076001A8FCF748FD80B2E88355
:10390000FA2812D961486249007800EB400051F86A
:103910002000006804F0DCF82B7958A204215148FB
:103920000EF006F9E7702879E883297980B2884299
:1039300011D0C3B22B7151A204214A480EF0F8F8FD
:10394000E7702A79201D09EBC2014EA291F8AD3330
:1039500002210EF0EDF804F053FC4EA101A8FCF793
:103960000CFD002101A8FCF7DCFC03223D49FCF71B
:10397000CCFC10278DF80E607E230122002101A8C7
:10398000009704F0B5FC94F82100DFF81081DFF80F
:10399000109103281ED2022004F0F8FD002004F04C
:1039A000CFFD94F821000122011901A8FCF7ADFC1C
:1039B0008DF8056094F8211098F8000099F800201F
:1039C00000EBC1001838C1B201A804F037FC002098
:1039D00004F0DCFD0122211D01A8FCF796FC8DF806
:1039E000056001A8FCF7D2FCC5B22EA101A8FCF726
:1039F000C4FC002101A8FCF794FC2D4E56F82510BC
:103A0000FCF7BBFC7E230422002101A8009704F0F0
:103A10006FFC94F8210004281AD1022004F0B6FDAE
:103A2000002004F08DFD56F8251001A8FCF7A5FC38
:103A300094F8211098F8000099F8002000EBC100DC
:103A40003038C1B201A804F0F9FB002004F09EFD5B
:103A500007B0BDE8F0830000AE000020F423002092
:103A6000CA0000208E230020B90000203030302D05
:103A7000300000003239392D330000002530336426
:103A8000000000002530316400000000B20000207A
:103A9000F4AE0108C9E8B1B8BAC53A00A8000020E0
:103AA000A9000020D1D5C9ABC4A3CABD3A0000000B
:103AB00000D8010810B509F02BFDBDE81040032126
:103AC0004FF4F07007F06AB910B509F039FDBDE8A0
:103AD000104003214FF4F07007F060B9F8B50322ED
:103AE0002A496846FCF711FC00248DF8034068461B
:103AF000FCF74CFC264E25490122F083091D68463F
:103B0000FCF703FC8DF801406846FCF73FFC84B2EB
:103B1000F08BFA2801D8032C0AD91E481E490078D8
:103B200000EB400051F82000006803F0D1FF27E0CF
:103B3000C0B21A4D307105EBC00000F2AD3180F813
:103B4000AD43401B00F2AF3080B20122FCF7E2FE31
:103B50003079012205EBC003581B00F2AF3003F2AD
:103B6000AD3180B2FCF7A3FE307905EBC00090F8D0
:103B7000AD03A04201D1012000E0002003F0BEFF10
:103B800003214FF4F07007F009F9F8BD8E230020EF
:103B9000CA000020B2000020F4AE0108F423002087
:103BA00009F054BC704770477047000038B523488F
:103BB0000078012818D12248002422A1047023484B
:103BC000FCF7DBFB214822A12130FCF7D6FB224881
:103BD00022A20521B0F8A73B1C4822380DF0A8FF0F
:103BE0001A48223880F8214004F00AFB1D4C1020AE
:103BF000009020781C4900EB40007E2351F8200003
:103C00001A490122097850F82100002104F070FBC4
:103C100010237E220421272009F0D0FC20781449AB
:103C200000EB400051F82000124940680A78124920
:103C30000978BDE8384004F001BB0000AE00002068
:103C4000B90000203030303000000000B0230020E8
:103C50003939393900000000F4230020253034645C
:103C600000000000B2000020D4AD0108B700002021
:103C70000CAF0108A9000020A800002010B509F031
:103C800047FCBDE8104003214FF4CC7007F086B824
:103C900010B509F055FCBDE8104003214FF4CC707D
:103CA00007F07CB82DE9F0411248FCF76FFB124D8C
:103CB00084B205F6A73140F6A936A5F8A74B022233
:103CC0000F463046FCF726FE022239463046FCF706
:103CD000EEFDB5F8A70BA04201D1012000E00020C5
:103CE00003F00CFFBDE8F04103214FF4CC7007F066
:103CF00055B800008E230020F423002009F0A6BB55
:103D000070477047704700002DE9F04F8348844C9E
:103D10000025017887B004F1080B012926D18148DC
:103D200081A1057004F12200FCF727FB81A104F1B9
:103D30004300FCF722FB824E82A2042196F8A233B4
:103D4000204606F2A2360DF0F3FE2D27E7707378B9
:103D50007CA20421201D0DF0EBFEE771B37879A25F
:103D6000042158460DF0E4FE84F8215004F048FA8E
:103D7000DFF8D8A14FF01008CDF800809AF80000C5
:103D8000734900EB4000002251F82000714946467B
:103D9000574609787E2350F82100114604F0A8FA0E
:103DA0003878DFF8B49100EB400159F82100016840
:103DB00001A8FCF7E2FA002101A8FCF7B2FA0322FD
:103DC0005749FCF7A2FA8DF80A507E2302220021FF
:103DD00001A8009604F08CFA94F821005F4E604F21
:103DE00003281CD2022004F0D1FB002004F0A8FB21
:103DF00094F821000122011901A8FCF786FA8DF838
:103E0000055094F8210031783A7801EBC000183859
:103E1000C1B201A804F012FA002004F0B7FB9AF82E
:103E2000000000EB400159F82100416801A8FCF7AF
:103E3000A4FA002101A8FCF774FA0322211DFCF763
:103E400064FA8DF80A507E230422002101A8CDF8DF
:103E5000008004F04DFA94F82100001F03281CD2C2
:103E6000022004F093FB002004F06AFB94F8210088
:103E70000122011901A8FCF748FA8DF8055094F8C1
:103E8000210031783A7801EBC0003838C1B201A87E
:103E900004F0D4F9002004F079FB9AF8000000EB5C
:103EA000400159F82100816801A8FCF766FA002159
:103EB00001A8FCF736FA03225946FCF726FA8DF8DA
:103EC0000A507E230622002101A8CDF8008004F0CC
:103ED0000FFA94F8210007281CD9022004F056FBA1
:103EE000002004F02DFB94F821000122011901A803
:103EF000FCF70BFA8DF8055094F8210031783A78E8
:103F000001EBC0005838C1B201A804F097F90020B5
:103F100004F03CFB07B0BDE8F08F0000AE000020CD
:103F20008E230020B90000203030302D3030302D6D
:103F3000303030003939392D3939392D3939390096
:103F4000F42300202530336400000000B20000207C
:103F5000D4AD0108B7000020BCAD0108A8000020C6
:103F6000A900002010B509F0D3FA0321BDE81040E4
:103F7000C80106F013BF10B509F0E2FA0321BDE84D
:103F80001040C80106F00ABF2DE9FE4F3CA00322F5
:103F9000006800903B496846FCF7B7F96846FCF7B3
:103FA000F5F9384986B20322091D6846FCF7ADF9D8
:103FB0006846FCF7EBF9334985B2032208316846BD
:103FC000FCF7A3F96846FCF7E1F984B2FF2E03D8A9
:103FD000FF2D01D8FF2C0AD92B482C49007800EB83
:103FE000400051F82000006803F072FD41E0284FC6
:103FF0004FF4697807F2A23187F8A26387F8A353D8
:1040000087F8A443012240460291FCF783FC07F2A3
:10401000A33140F2A53A012250460191FCF77AFC07
:1040200007F5697140F2A63901228B464846FCF734
:1040300071FC012240460299FCF739FC01225046EE
:104040000199FCF734FC012259464846FCF72FFC45
:1040500097F8A203B04209D197F8A303A84205D16B
:1040600097F8A403A04201D1012000E0002003F052
:1040700045FD0321C80106F091FEBDE8FE8F00005A
:104080002A2A2A008E230020B2000020F4AE010864
:10409000F423002009F0DAB9704770477047000038
:1040A00008B504F0ADF81448154A164B007800EB3B
:1040B0004001124800EB8100106002791A70124A28
:1040C00000687E231060102000901048062250F8EF
:1040D00021000021406804F00BF90D480078022807
:1040E00006D109F0E9F90B49002008700A49087067
:1040F000BDE80840FCF70ABEB20000208CAD010804
:10410000C0000020B8000020BC00002014B001084E
:10411000AE000020B7000020B9000020FCF76ABE06
:10412000FCF7E8BE0E4810B5007850B101280ED05B
:104130000D490C48097800EB4100002130F8020CD1
:104140000AE009F0B9F901214FF4D87004E009F050
:10415000B3F901214FF4E070BDE8104006F01EBE37
:10416000B700002064230020B300002009F06EB9DE
:104170007047704770470000F8B51748174C184D46
:104180000078012808D117481749007F20700020C7
:10419000087016492879087004F032F8144F102678
:1041A00000963878134900EB40007E2351F8200038
:1041B00001220021406A04F09BF8009638782178AB
:1041C00000EB40007E2355F82000042250F8210027
:1041D000002104F08DF8F8BDAE000020B7000020EB
:1041E000C4AE0108F4230020B9000020B80000206C
:1041F000B2000020CCAF010810B507F02FFA032160
:10420000BDE81040902006F0C9BD10B507F03CFA9B
:104210000321BDE81040902006F0C0BD70B50F4DE1
:104220000F4C02222878A08304F11C010E461E20A8
:10423000FCF770FB022231461E20FCF738FBA08BF6
:104240002978884201D1012000E0002003F056FCCB
:10425000BDE870400321902006F0A0BDB70000200B
:10426000F423002009F0F2B870477047704700004F
:1042700038B521480078012814D120480025204C69
:10428000057020A022A2008860841FA0022100885F
:10429000A4F843001D4890F8203020460DF048FC5B
:1042A00084F8215003F0ACFF1B4C102000902078C4
:1042B0001A4900EB40007E2351F8200018490122E2
:1042C000097850F82100002104F012F810237E2212
:1042D0000421332009F072F92078124900EB4000E4
:1042E00051F82000104980680A7810490978BDE823
:1042F000384003F0A3BF0000AE000020B90000204A
:104300008E2300203000000039000000F42300203C
:104310002530316400000000B2000020CCAF01085D
:10432000B70000200CAF0108A9000020A800002061
:1043300010B509F0EDF80321BDE81040A02006F00B
:104340002DBD10B509F068F90321BDE81040A0208B
:1043500006F024BD70B51048FCF718F80F4D0F4952
:10436000C4B2203105F8204F01220E462220FCF76E
:10437000D1FA012231462220FCF799FA2878A0428E
:1043800001D1012000E0002003F0B8FBBDE870403F
:104390000321A02006F002BD8E230020F42300207C
:1043A00009F054B87047704770470000F8B51748D7
:1043B000174C184D0078012808D117481749807FFD
:1043C00020700020087016492879087003F018FF43
:1043D000144F102600963878134900EB40007E23D6
:1043E00051F8200001220021806A03F081FF00962D
:1043F0003878217800EB40007E2355F82000042215
:1044000050F82100002103F073FFF8BDAE0000203A
:10441000B7000020DCAE0108F4230020B900002022
:10442000B8000020B2000020CCAF010810B507F0A2
:1044300015F90321BDE81040982006F0AFBC10B577
:1044400007F022F90321BDE81040982006F0A6BC31
:1044500070B50F4D0F4C02222878E08304F11E0145
:104460000E462020FCF756FA022231462020FCF7A7
:104470001EFAE08B2978884201D1012000E000205B
:1044800003F03CFBBDE870400321982006F086BC99
:10449000B7000020F423002008F0D8BF7047704711
:1044A00070470000F8B51848184C194D00780128DD
:1044B0000AD1184818490078C0F340002070002045
:1044C000087016492879087003F09AFE144F1026D8
:1044D00000963878134900EB40007E2351F8200005
:1044E00001220021C06803F003FF0096387821788C
:1044F00000EB40007E2355F82000042250F82100F4
:10450000002103F0F5FEF8BDAE000020B70000204A
:1045100054AF0108F4230020B9000020B8000020A7
:10452000B20000203CAF010810B507F097F8032156
:10453000BDE81040482006F031BC10B507F0A4F8E3
:104540000321BDE81040482006F028BC70B5114D8D
:10455000114C02222978208861F3410020802146F5
:104560001046FCF7D7F9022221461046FCF79FF9C6
:1045700020782978C0F34000884201D1012000E072
:10458000002003F0BBFABDE870400321482006F08C
:1045900005BC0000B7000020F423002008F056BF3F
:1045A00070477047704700002DE9F8431B481A4CCC
:1045B000DFF86C800078257801280AD119481A495B
:1045C00090F8A90B207000200870184998F8040092
:1045D000087003F015FE164F10260096387815491E
:1045E00000EB40007E2351F820000122002150F80A
:1045F000250003F07DFE009638787E2300EB400115
:10460000042258F82100217850F82100002103F0FD
:104610006FFEBDE8F8830000B7000020AE00002068
:1046200054AF0108F4230020B9000020B800002096
:10463000B20000208CAD010810B507F00FF8BDE8FE
:10464000104003214FF4D47006F0A8BB10B507F05A
:104650001BF8BDE8104003214FF4D47006F09EBB58
:104660002DE9F041164D174C40F6AB36287884F80A
:10467000A90B04F6A93101220F463046FCF74AF98E
:10468000012239463046FCF712F994F8A90B297833
:10469000884201D1012000E0002003F02FFA94F8B5
:1046A000A91B0948012908D001210170BDE8F0418A
:1046B00003214FF4D47006F071BB0021F5E7000030
:1046C000B7000020F4230020D00E002008F0BEBE6A
:1046D00070477047704700002DE9F04FFB4D0024F4
:1046E000FB4F287887B001280FD1FA48FAA104704F
:1046F00007F12200FBF741FEFEA107F14300FBF7A3
:104700003CFE0CF0D1FF87F821402878DFF80084C8
:10471000DFF800A4032851D197F821002D260228A4
:104720002AD20222EA4901A8FBF7EFFD8DF80640E4
:1047300001A8FBF72BFEC0B2454688F809000928FE
:1047400012D99AF80000F44900EB400051F820001B
:10475000006803F0BDF96B79F0A20321DC480DF08D
:10476000E7F9BE70687968726979C0B2884225D06D
:1047700068710CF099FF21E005281FD10122791DF5
:1047800001A8FBF7C2FD8DF8054001A8FBF7FEFD6F
:1047900088F80600E34A98F8051002EBC1010122EF
:1047A00091F8AC1B8240114201D0012300E00023AC
:1047B000DDA20221F81D0DF0BBF93E7203F020FDD1
:1047C0000122F91C01A8FBF7A0FDA1468DF80540C8
:1047D00001A8FBF7DBFDC6B2D5A101A8FBF7CDFD13
:1047E000002101A8FBF79DFD0222B949FBF78DFDD1
:1047F0008DF80D40002101A8FBF793FDCEA1FBF73A
:10480000BCFD002101A8FBF78CFD9AF80020DFF821
:104810002CB302EB42025BF8221051F82610FBF792
:10482000ACFD002101A8FBF77CFDC5A10022098891
:104830000180102000907E23114601A803F058FD4E
:1048400097F82100BF4CC04D02281CD2022003F073
:104850009DFE002003F074FE97F821000122C1198B
:1048600001A8FBF752FD8DF8059097F821002178FB
:104870002A7801EBC0003838C1B201A803F0DEFC91
:10488000002003F083FE97F8210003281ED10220A8
:1048900003F07CFE002003F053FE9AF8000000EBCA
:1048A00040015BF8210050F8261001A8FBF765FDD8
:1048B00097F8210021782A7801EBC0003038C1B286
:1048C00001A803F0BBFC002003F060FE0122791D6B
:1048D00001A8FBF71AFD00268DF8056001A8FBF77B
:1048E00055FD88F80600C1460122F91D01A8FBF715
:1048F0000CFD8DF8056001A8FBF748FDC6B293A139
:1049000001A8FBF73AFD98F806000CF0EBFF804693
:10491000002101A8FBF705FD4146FBF72EFD002114
:1049200001A8FBF7FEFC84A1FBF727FD002101A8ED
:10493000FBF7F7FC9AF8001001EB41025BF822103C
:1049400051F82610FBF719FD002101A8FBF7E9FC3F
:104950007BA14FF01008098801807E2302220021EC
:1049600001A8CDF8008003F0C3FC97F821000528CA
:104970001BD1022003F00AFE002003F0E1FD99F8AC
:1049800006000CF0AFFF014601A8FBF7F6FC97F814
:10499000210021782A7801EBC0006038C1B201A85B
:1049A00003F04CFC002003F0F1FD97F821000728EC
:1049B0001ED1022003F0EAFD002003F0C1FD9AF8A9
:1049C000000000EB40015BF8210050F8261001A820
:1049D000FBF7D3FC97F8211020782A7800EBC10070
:1049E0005038C1B201A803F029FC002003F0CEFD2D
:1049F00057A000210088ADF8040001A8FBF791FC46
:104A0000334908220931FBF780FC00268DF80D6040
:104A1000314601A8FBF785FC4EA1FBF7AEFC7E23D7
:104A20000422002101A8CDF8008003F061FC97F872
:104A30002100093802281CD2022003F0A7FD002023
:104A400003F07EFD97F821000122C11901A8FBF7B0
:104A50005CFC8DF8056097F8210021782A7801EB3D
:104A6000C000B038C1B201A803F0E8FB002003F099
:104A70008DFD97F821000C3802281CD2022003F08B
:104A800085FD002003F05CFD97F821000122C1198B
:104A900001A8FBF73AFC8DF8056097F82100217812
:104AA0002A7801EBC000B038C1B201A803F0C6FB00
:104AB000002003F06BFD97F821000F38022866D222
:104AC000022003F063FD002048E00000AE0000205B
:104AD0008E230020B900002030302D302D312D30B4
:104AE0002D30303A30303A30302D30303A30303AA4
:104AF0003030000039392D312D372D312D32393AF2
:104B000035393A35392D32393A35393A35390000A7
:104B1000CA000020B2000020F4AE01082530326443
:104B200000000000F4230020253031640000000064
:104B3000B6A8CAB1C6F75B005D5B000054AF0108C0
:104B40005D000000A8000020A9000020D0C7C6DA40
:104B50005B0000005DB4F2BFAA00000003F0F0FCAF
:104B600097F821000122C11901A8FBF7CEFB8DF8AF
:104B7000056097F8210021782A7801EBC000B03851
:104B8000C1B201A803F05AFB002003F0FFFCAFF212
:104B900040000088ADF80400002101A8FBF7C1FB2C
:104BA00008223E49FBF7B1FB8DF80D60002101A8FA
:104BB000FBF7B7FB3AA1FBF7E0FB7E2306220021BF
:104BC00001A8CDF8008003F093FB97F8210012387C
:104BD00002281CD2022003F0D9FC002003F0B0FC14
:104BE00097F821000122C11901A8FBF78EFB8DF86F
:104BF000056097F8210021782A7801EBC000F83889
:104C0000C1B201A803F01AFB002003F0BFFC97F823
:104C10002100153802281CD2022003F0B7FC002026
:104C200003F08EFC97F821000122C11901A8FBF7BF
:104C30006CFB8DF8056097F8210021782A7801EB4C
:104C4000C000F838C1B201A803F0F8FA002003F060
:104C50009DFC97F82100183802281CD2022003F08E
:104C600095FC002003F06CFC97F821000122C1198B
:104C700001A8FBF74AFB8DF8056097F82100217821
:104C80002A7801EBC000F838C1B201A803F0D6FAC7
:104C9000002003F07BFC07B0BDE8F08FA0230020CC
:104CA0005DB9D8B1D500000010B508F031FCBDE801
:104CB000104003214FF4DC7006F070B810B508F016
:104CC0003FFCBDE8104003214FF4DC7006F066B8ED
:104CD00070B588B0022272496846FBF716FB0024C3
:104CE0008DF802406846FBF751FB6E4D6C4E012279
:104CF0006872F11C6846FBF708FB8DF801406846B6
:104D0000FBF744FB8DF814000122711D6846FBF788
:104D1000FCFA8DF801406846FBF738FBA8710122C8
:104D2000F11D6846FBF7F1FA8DF801406846FBF784
:104D30002DFBA8725C4E6979012306EBC10191F845
:104D4000AC2BA9798B4088409A43024354498DF893
:104D50001520022209316846FBF7D7FA8DF8024088
:104D60006846FBF713FB4E498DF8160002220C3102
:104D70006846FBF7CAFA8DF802406846FBF706FB67
:104D800047498DF8170002220F316846FBF7BDFA3C
:104D90008DF802406846FBF7F9FA41498DF8180092
:104DA000022212316846FBF7B0FA8DF802406846DD
:104DB000FBF7ECFA3A498DF81900022215316846E2
:104DC000FBF7A3FA8DF802406846FBF7DFFA344997
:104DD0008DF81A00022218316846FBF796FA8DF812
:104DE00002406846FBF7D2FAC1B28DF81B10687A10
:104DF0000A2815D89DF81620172A11D89DF81720D3
:104E00003B2A0DD89DF818203B2A09D89DF8192077
:104E1000172A05D89DF81A203B2A01D83B290AD920
:104E200022482349007800EB400051F82000006838
:104E300002F04EFE2AE0687106EBC0000599C0F84A
:104E4000AB1B0699C0F8AF1B00F6AB31801B00F618
:104E5000AD3080B20822FBF75DFD6879082206EBD1
:104E6000C003981B00F6AD3003F6AB3180B2FBF700
:104E70001EFD6879082206EBC00105A801F6AB31DA
:104E8000FBF76EFA48B1002002F038FE03214FF420
:104E9000DC7005F083FF08B070BD0120F4E700006E
:104EA0008E230020CA000020F4230020B20000203E
:104EB000F4AE010808F0CABA7047704770470000A6
:104EC00038B523480078012818D12248002422A1AF
:104ED00004702348FBF751FA214822A12130FBF747
:104EE0004CFA224822A20521B0F8A0331C482238EF
:104EF0000CF01EFE1A48223880F8214003F080F999
:104F00001D4C1020009020781C4900EB40007E23AF
:104F100051F820001A490122097850F82100002197
:104F200003F0E6F910237E220421272008F046FB37
:104F30002078144900EB400051F8200012498068A5
:104F40000A7812490978BDE8384003F077B90000C3
:104F5000AE000020B90000203030303000000000EA
:104F6000B02300203939393900000000F423002033
:104F70002530346400000000B2000020D4AD0108E8
:104F8000B70000200CAF0108A9000020A8000020F5
:104F900010B508F0BDFABDE8104003214FF4B87019
:104FA00005F0FCBE10B508F0CBFABDE810400321B7
:104FB0004FF4B87005F0F2BE2DE9F0411948FBF747
:104FC000E5F984B2B4F5006F0AD91748174900789B
:104FD00000EB400051F82000006802F079FD19E074
:104FE000134D40F2A23605F56871A5F8A0430222E0
:104FF0000F463046FBF78EFC022239463046FBF75F
:1050000056FCB5F8A003A04201D1012000E0002029
:1050100002F074FDBDE8F04103214FF4B87005F0D3
:10502000BDBE00008E230020B2000020F4AE0108B7
:10503000F423002008F00ABA08B503F0E1F80F489D
:10504000104A114B007800EB40010D4800EB810045
:10505000106002791A700D4A00687E2310601020DB
:1050600000900B48062250F821000021406803F010
:105070003FF9BDE80840FBF749BE0000B200002040
:10508000E4AF0108C0000020B8000020BC000020F0
:1050900014B00108FBF7AEBEFBF72CBF10B508F04B
:1050A0000BFA03F0ADF803F0ABF8BDE8104008F0E0
:1050B000CDB908F0CBB9704770477047F8B51848BC
:1050C000184C194D007801280AD118481849007861
:1050D00000F001002070002008701649287908703F
:1050E00003F08EF8144F102600963878134900EB21
:1050F00040007E2351F8200001220021806803F047
:10510000F7F800963878217800EB40007E2355F8B8
:105110002000042250F82100002103F0E9F8F8BD36
:10512000AE000020B700002054AF0108F423002097
:10513000B9000020B8000020B20000203CAF0108F8
:1051400010B506F08BFA0321BDE81040402005F0B1
:1051500025BE10B506F098FA0321BDE810404020A6
:1051600005F01CBE70B5114D114C02222978208823
:1051700061F30000208021461046FBF7CBFB0222A2
:1051800021461046FBF793FB2078297800F00100B8
:10519000884201D1012000E0002002F0AFFCBDE810
:1051A00070400321402005F0F9BD0000B700002049
:1051B000F423002008F04AB9704770477047000098
:1051C0002DE9F04FDFF85493D74CDFF8548399F86A
:1051D00000102D27D34D002687B004F10A0B0129BA
:1051E00034D1D248D2A1067004F12200FBF7C5F8F1
:1051F000D3A104F14300FBF7C0F86B78D4A20421DB
:1052000020460CF095FCE7706978D3A208EBC1004A
:10521000032190F8AA33201D0CF08AFCA77169784D
:10522000CDA208EBC100032190F8AB33E01D0CF0D8
:105230007FFC67726978C8A208EBC100032190F86F
:10524000AC3358460CF074FC84F8216099F80000E7
:10525000DFF80C93032850D194F8210003284CD296
:105260000322B14901A8FBF750F88DF8076001A8A7
:10527000FBF78CF880B22883FA2812D999F800003D
:10528000B84900EB400051F82000006802F020FC13
:105290006B78AFA20421A4480CF04AFCE770687850
:1052A0002883697880B2884227D0C3B26B70A8A2E5
:1052B00004219D480CF03CFCE7706978A6A208EB3D
:1052C000C100032190F8AA33201D0CF031FCA77116
:1052D0006978A1A208EBC100032190F8AB33E01D6F
:1052E0000CF026FC677269789BA208EBC1000321D1
:1052F00090F8AC3358460CF01BFC02F081FF9AA1E9
:1053000001A8FBF73AF8002101A8FBF70AF80322ED
:105310008549FAF7FAFF4FF0100800228DF80E6069
:105320007E23114601A8CDF8008002F0E1FF94F839
:1053300021008F4D8F4F03281CD2022003F026F945
:10534000002003F0FDF894F821000122011901A8C2
:10535000FAF7DBFF8DF8056094F8210029783A7898
:1053600001EBC0001838C1B201A802F067FF0020AD
:1053700003F00CF999F80000DFF8FCA100EB400104
:105380005AF82100016801A8FAF7F7FF002101A8E7
:10539000FAF7C7FF0222211DFAF7B7FF8DF80B605D
:1053A000002101A8FAF7BDFF74A1FAF7E6FF7E23FA
:1053B0000222002101A8CDF8008002F099FF94F8A4
:1053C0002100001F02281CD2022003F0DFF8002079
:1053D00003F0B6F894F821000122011901A8FAF7A8
:1053E00094FF8DF8056094F8210029783A7801EB54
:1053F000C0004838C1B201A802F020FF002003F02D
:10540000C5F899F8000000EB40015AF82100416806
:1054100001A8FAF7B2FF002101A8FAF782FF0222E1
:10542000E11DFAF772FF8DF80B60002101A8FAF771
:1054300078FF52A1FAF7A1FF7E230422002101A8E0
:10544000CDF8008002F054FF94F82100C01F02281C
:105450001CD2022003F09AF8002003F071F894F8AF
:1054600021000122011901A8FAF74FFF8DF805600C
:1054700094F8210029783A7801EBC0006038C1B275
:1054800001A802F0DBFE002003F080F899F800008C
:1054900000EB40015AF82100816801A8FAF76DFF7E
:1054A000002101A8FAF73DFF02225946FAF72DFF25
:1054B0008DF80B60002101A8FAF733FF2FA1FAF74E
:1054C0005CFF7E230622002101A8CDF8008002F0B7
:1054D0000FFF94F821000A3802281CD2022003F0A2
:1054E00055F8002003F02CF894F82100012201194E
:1054F00001A8FAF70AFF8DF8056094F821002978D1
:105500003A7801EBC0007838C1B201A802F096FEEB
:10551000002003F03BF807B0BDE8F08FAE0000209C
:10552000F4230020CA0000208E230020B9000020B0
:105530003030302D30302D30302D30300000000034
:105540003239392D33392D33392D333900000000EC
:105550002530336400000000253032640000000074
:10556000B2000020F4AE0108C9E8B1B8BAC53A00EB
:10557000A8000020A9000020A4AD010866707300F7
:1055800010B507F0C5FFBDE8104003214FF4B0701F
:1055900005F004BC10B507F0D3FFBDE810400321AF
:1055A0004FF4B07005F0FABB2DE9F84359A003227F
:1055B0000068009058496846FAF7A7FE00248DF865
:1055C00003406846FAF7E2FE544D534E0222288308
:1055D000311D6846FAF799FE8DF802406846FAF7E1
:1055E000D5FE00F0FF080222F11D6846FAF78DFE95
:1055F0008DF802406846FAF7C9FEC7B2022206F1EA
:105600000A016846FAF781FE8DF802406846FAF70B
:10561000BDFEC6B2288BFA2806D8B8F11E0F03D8F3
:105620001E2F01D81E2E0AD93D483E49007800EBB6
:10563000400051F82000006802F04AFA63E0C0B26E
:10564000394C687004EBC00000F2AA3180F8AA83DC
:1056500080F8AB7380F8AC63001B00F56B7080B210
:105660000122FBF757F96878012204EBC003181BED
:1056700000F2AD3003F2AB3180B2FBF74BF9687842
:10568000012204EBC003181B00F2AE3003F56B716E
:1056900080B2FBF73FF96878012204EBC003181BC6
:1056A00000F56B7003F2AA3180B2FBF700F968785D
:1056B000012204EBC00000F2AB31001B00F2AD3060
:1056C00080B2FBF7F4F86878012204EBC003181BE2
:1056D00000F2AE3003F56B7180B2FBF7E8F8687842
:1056E00004EBC00090F8AA23424509D190F8AB130F
:1056F000B94205D190F8AC03B04201D1012000E0DD
:10570000002002F0FBF903214FF4B07005F046FBD6
:10571000BDE8F8832A2A2A008E230020CA00002030
:10572000B2000020F4AE0108F423002007F08EBE82
:1057300008B502F065FD0F48104A114B007800EBE8
:1057400040010D4800EB8100106002791A700D4A8B
:1057500000687E231060102000900B48062250F84D
:1057600021000021406802F0C3FDBDE80840FBF7BE
:10577000CDBA0000B2000020CCAF0108C00000206C
:10578000B8000020BC00002014B00108FBF732BBB9
:10579000FBF7B0BB394810B50078122864D2DFE8B7
:1057A00000F0090E13181D22272C31363B404346CA
:1057B0004B50565A07F080FE0121302050E007F090
:1057C0007BFE012138204BE007F076FE01215820B6
:1057D00046E007F071FE0121602041E007F06CFE19
:1057E000012168203CE007F067FE0121702037E0CE
:1057F00007F062FE0121782032E007F05DFE012112
:1058000080202DE007F058FE0121882028E007F0D5
:1058100053FE0121982023E007F04EFE0121A02035
:105820001EE00221B0201BE00121B82018E007F0A3
:1058300043FE0121F02013E007F03EFE0121F82095
:105840000EE007F039FE01214FF4A47008E00121B9
:105850004FF4A87004E007F02FFE01214FF4E87028
:10586000BDE8104005F09ABA06490548097800EBF2
:105870004100002130F8020CF2E70000B7000020E0
:1058800064230020B300002007F0E0BD704770479C
:105890007047000038B51D480078012818D11C4811
:1058A00000241CA104701C48FAF767FD1A481BA1CC
:1058B0002130FAF762FD1A481AA2042190F8233029
:1058C000154822380CF034F91348223880F821406A
:1058D00002F096FC10200090144815497E230078B1
:1058E000012200EB400051F820001249097850F8DD
:1058F0002100002102F0FCFC01B01023BDE8304083
:105900007E220421332007F059BE0000AE000020A3
:10591000B900002030303000B02300203939390080
:10592000F42300202530336400000000B200002082
:1059300094AE0108B700002010B507F0E9FD03217F
:10594000BDE81040C02005F029BA10B507F0F8FDF9
:105950000321BDE81040C02005F020BA70B51748FB
:10596000FAF714FD84B2FF2C0AD9154815490078BE
:1059700000EB400051F82000006802F0A9F816E0A2
:10598000114D11490122233105F8234F0E462520E0
:10599000FAF7C0FF012231462520FAF788FF287860
:1059A000A04201D1012000E0002002F0A7F8BDE8EC
:1059B00070400321C02005F0F1B900008E230020C3
:1059C000B2000020F4AE0108F423002007F03EBD31
:1059D00070477047704700002DE9FE43324E344C4B
:1059E00020273178DFF8C480002504F10809012957
:1059F00021D1304830A1057004F12200FAF7BDFC36
:105A000030A104F14300FAF7B8FC30202070607038
:105A10003120A070E7702D20207160713E20A071B0
:105A2000E77198F824302AA2022148460CF080F849
:105A3000657284F821503078032822D194F821002F
:105A400008281ED003221A4901A8FAF75EFC8DF837
:105A500007501748FAF79AFC86B2FA2E07D9FA26A9
:105A600033461DA2022112480CF062F8E77008EBE1
:105A7000060017A290F82430022148460CF058F88E
:105A8000657202F0BDFB102000907E2301220021F0
:105A900013A002F02DFC10237E220421132007F016
:105AA0008DFDBDE8FE830000AE000020F423002041
:105AB0008E230020B9000020303030202D2D3E20D4
:105AC00030000000393939202D2D3E2039000000EA
:105AD00025303164000000002530336400000000F0
