:020000040800F2
:10000000E82D01209901000801B2000835A300087D
:10001000E3AD00083D0D0008F915010800000000DF
:100020000000000000000000000000007BE000086D
:100030009D14000800000000FF010008B1E2000864
:10004000B3010008B3010008B3010008B3010008C0
:10005000B3010008B3010008B3010008B3010008B0
:10006000B3010008B3010008B3010008B3010008A0
:10007000B3010008B3010008B3010008B301000890
:10008000B3010008B3010008B3010008B301000880
:10009000410D0008B3010008B3010008B3010008D6
:1000A000B3010008B3010008B3010008B301000860
:1000B000FDE30008B3010008A5E40008B30100084F
:1000C000B3010008B3010008B3010008B301000840
:1000D000B3010008F9F3000849F40008B30100086F
:1000E000B3010008B3010008B3010008B301000820
:1000F000B3010008B3010008B3010008B301000810
:10010000B3010008B3010008B3010008B3010008FF
:10011000E1EE0008B3010008B301000891E5000812
:10012000B3010008B3010008B3010008B3010008DF
:10013000B30100080000000000000000B301000847
:100140009D0D0008B3010008B3010008DFC70008D7
:10015000B3010008B3010008B3010008B3010008AF
:10016000B3010008B3010008B3010008B30100089F
:10017000B3010008E1C70008000000000000000013
:10018000B3010008DFF80CD000F088F90048004700
:10019000BD4E0108E82D012006488047064800476B
:1001A000FEE7FEE7FEE7FEE7FEE7FEE7FEE7FEE727
:1001B000FEE7FEE771E3000885010008EFF3108019
:1001C00072B6704780F3108870471D484FF0FF01EA
:1001D0000170002080F309881A48012101701A4833
:1001E0004FF08051016062B6FEE717484FF0805132
:1001F0000160704714484FF080510160704772B63B
:10020000EFF3098028B1203880E8F00F0F49096822
:10021000086000B50E4880475DF804EB0D480E49B4
:100220000A78027009480D490A680260106890E86F
:10023000F00F203080F309884EF0040E62B670474C
:1002400022ED00E0FF00002004ED00E01801002096
:1002500011BE0008FC000020FD000020200100204D
:100260002DE9F05F0546002092469B4688460646EB
:10027000814640241BE0284641464746224600F07E
:10028000C4F853465A46C01A914110D31146184635
:10029000224600F0ABF82D1A67EB01084F462246C4
:1002A0000120002100F0A2F817EB00094E41201EAA
:1002B000A4F10104DFDC484631462A464346BDE846
:1002C000F09F40EA01039B0703D009E008C9121F11
:1002D00008C0042AFAD203E011F8013B00F8013B00
:1002E000521EF9D27047D2B201E000F8012B491E2C
:1002F000FBD270470022F6E710B513460A460446C3
:100300001946FFF7F0FF204610BD10B5044604E083
:100310000B7800F8013B03B1491C521EF8D220466D
:1003200010BDCAB2401E10F8011F8A4202D0002937
:10033000F9D100207047421C10F8011B0029FBD1A5
:10034000801A704710B5002200E0521C835C8C5C60
:10035000A34201D1002BF8D1D8B2E1B2401A10BDAE
:1003600030B504460020034600E05B1C934203D2F4
:10037000E05CCD5C401BF8D030BD034611F8012B8A
:1003800000F8012B002AF9D11846704770B50646CF
:1003900011F086FA046805460A220021304600F072
:1003A00044F82C6070BD70B5064611F079FA046807
:1003B00005460A220021304600F037F82C6070BD57
:1003C00030B50B46014600202022012409E021FA25
:1003D00002F59D4205D303FA02F5491B04FA02F522
:1003E0002844151EA2F10102F1DC30BD202A04DBF5
:1003F000203A00FA02F1002070479140C2F1200338
:1004000020FA03F3194390407047202A04DB203A76
:1004100021FA02F00021704721FA02F3D040C2F124
:10042000200291400843194670472DE9F047914654
:100430000F4680460446002614F8015B2DB100F0FB
:100440003FF80068405DC007F6D12B2D02D02D2D5E
:1004500018D0641E4A463946204600F035F827B1C8
:100460003968A14201D1C7F8008071054FF002043C
:100470000BD54042002803DD11F012FA0460A007FA
:10048000BDE8F08746F48066E4E70028F8DA11F06A
:1004900007FA04606FF00040F2E70000064C074DD9
:1004A00006E0E06840F0010394E807009847103444
:1004B000AC42F6D3FFF76AFE08F0010828F0010805
:1004C00000487047E4E101082DE9F05F82460078BA
:1004D000002715468B460AF10104B946302801D0A1
:1004E0009DB113E014F8010B0127782803D0582898
:1004F00001D045B10AE00DB1102D07D1002710251C
:1005000014F8010B02E0082500E00A250026B04699
:100510000EE005FB080005FB06F1012701EB104684
:100520001FFA80F8B6F5803F00D3B94614F8010BE6
:10053000294600F018F80028EBDABBF1000F05D0CF
:100540000FB1641E00E05446CBF80040B9F1000F33
:1005500006D011F0A5F902210160C81EBDE8F09F88
:1005600048EA0640FAE73A2800D2303820F0200264
:10057000412A01D3A2F13700884201D34FF0FF3066
:10058000704770B58C1810F8015B15F0070301D1A6
:1005900010F8013B2A1106D110F8012B03E010F8E6
:1005A000016B01F8016B5B1EF9D12B0705D4002309
:1005B000521E0DD401F8013BFAE710F8013BCB1AAB
:1005C000921C03E013F8015B01F8015B521EF9D5A0
:1005D000A142D8D3002070BD10B509F0CFFEBDE810
:1005E000104007F0C0B970B515460E46044608E045
:1005F0002046641CA4B200F007F86D1E06F8010B3B
:10060000ADB2002DF4D170BD10B5044609F05CFF09
:10061000A02009F029FF09F09BFF200A09F024FF20
:1006200009F096FFE0B209F01FFF09F091FF09F011
:100630004BFFA12009F018FF09F08AFF002009F004
:10064000E3FE044609F062FF204610BD70B5144673
:100650000D46064606E02978304600F007F8761C7D
:10066000B6B26D1C641EA4B2F5D270BD70B50D4655
:10067000044609F029FFA02009F0F6FE09F068FF02
:10068000200A09F0F1FE09F063FFE0B209F0ECFE88
:1006900009F05EFF284609F0E7FE09F059FF09F06E
:1006A00035FFBDE870400A2012F026BA7047704747
:1006B000014808F0A6BA000058190020704770479A
:1006C000704700007CB52148214C4FF48075C1680B
:1006D0004FF47A7048430A22B0FBF2F00190206890
:1006E00099B1A1F5C3329F3A09D069460AF013FFC8
:1006F000184B1949C6074FF000020BD108E06B46B2
:10070000002229460AF0ACFE7CBD6B460122F8E7C8
:10071000C00304D50A601A706B46002213E0086813
:10072000019EB04203D200F1010008607CBDFDD102
:1007300000F1010008604FF0010018709A7014F089
:1007400071FB6B46012229462068DBE72423002049
:100750007001002060000020800000203EB5254987
:100760000A20254C4A8BB2FBF0F2019289684FF4C3
:100770007A724A43B2FBF0F00290E06981B1A1F5D0
:10078000C3329F3A06D069460AF0C5FE1B49C2072C
:100790000BD108E06B46002204210AF061FE3EBD49
:1007A0006B460122F8E7C20304D500206B460246DF
:1007B00008601CE04007F2D40868401C0860019AF9
:1007C0004FF48051904202D16B46012210E0029A10
:1007D0009042E4D96B460022E0690AF041FE694686
:1007E000E0690AF098FE4002D9D46B460122042148
:1007F000E069D2E724230020540100207C0000207F
:1008000010B508F00DFA0DF061FD00F05FFEFFF786
:10081000E3FE0AF0C5F90DF0CFFD0CF08FFE0AF0F3
:10082000CFF90AF009FA0AF0E1F916F0E3FA09F053
:10083000E7FE0EF07DFD10F06BFF0EF003FB00F005
:1008400049FBBDE810400CF0D3BE00002DE9FF4F7E
:100850002D20B0FBF1F081B0491E01989B4600EBC2
:10086000800202EB401090FBF1F00004000CC6B2D5
:1008700000D1032603980025012100F1010900F1B0
:10088000020801EBD604B5EBD60F11D0AC420FD065
:100890002A460020039907F019F809F0FF012A46BB
:1008A000FF2007F013F808F0FF012A46002033E08C
:1008B000F008DFF84CA106F0070700901AF80700CF
:1008C000009A039907F002F81AF8070009F0FF01EF
:1008D000C0F1FF00009A06F0F9FF08F0FF011AF8D6
:1008E0000700009A06F0F2FF062C17D20AF1090A57
:1008F00022461AF80700039906F0E8FF1AF80700E5
:10090000224609F0FF01C0F1FF0006F0DFFF22469A
:1009100008F0FF011AF8070006F0D8FF6D1CEDB2D1
:10092000062DB0D3012007F059FA01980025401C8C
:10093000C6B26420B6FBF0F4ABF10C00C1B23CB11E
:1009400004F13000C0B2072207F0B6F8012503E039
:100950000722202007F0B0F82720444306EB84004C
:10096000C4B20A26B4FBF6F2ABF1060002B925B117
:10097000C1B23032D0B2072202E0C1B20722202039
:1009800007F09AF8B4FBF6F006FB10403030C0B226
:100990000722594607F090F81A4F3878012828D9CD
:1009A000002422E01849001B0844624210F8010CA0
:1009B0000BEBC205401CC0B2B0FBF6F106FB110008
:1009C000A5F108013030C9B2C0B2072207F074F8AF
:1009D000681EC1B20722102006F078FFE9B2072294
:1009E000102006F073FF641CE4B23878411E8C427C
:1009F000D8DB05B00020BDE8F04F07F0EFB90000EC
:100A00008B9D0108AE000020DA220020F8B50024FA
:100A100015460E460746012B04D07823009407F0B4
:100A2000B5F8F8BD012007F0FFF978232A463146D2
:100A30003846009407F0AAF8BDE8F840002007F017
:100A4000F3B900002DE9F047DFF8C8A0DFF8C8804F
:100A50009AF80000032803D9032288F8002001E057
:100A600088F800002D4900242D4F09782D4E0129CA
:100A700002D0022905D010E00CF08AF83C703470E6
:100A80000FE098F800103278491E8A4200DD347079
:100A90003A78411E8A4200DD3C70397832789142C2
:100AA00002D33878317800E0511A401AC4B20025D8
:100AB000DFF8749020E03878844208D13178490614
:100AC0000A0ED9F80010012351F8200006E068064C
:100AD000020ED9F80000002350F824000021FFF78F
:100AE00095FF9AF80000401E844201D1002401E0E5
:100AF000641CE4B26D1CEDB298F800008542DAD3B4
:100B00009AF800103878BDE8F04778237D22FFF787
:100B10009DBE0000B2000020B4000020A80000200C
:100B2000B1000020B3000020B80000202DE9F047FC
:100B3000DFF8E480374E98F800403178601EC2B28A
:100B400071B1481E3070354F354D3B7828684BB138
:100B50005A06120E5B1E3B7050F82100002337E04E
:100B60003270F0E7032C2ED934784FF0000A524649
:100B7000A94650F8240001235146FFF747FF98F893
:100B80000000401E844201D1002401E0641CE4B254
:100B900001256806020ED9F800000023194650F816
:100BA0002400FFF733FF98F80000401E844201D173
:100BB000002401E0641CE4B26D1CEDB2032DE8D307
:100BC00087F800A012E03A7050F8210000231A467E
:100BD0000021FFF71BFF387831784006020E2868A5
:100BE000012350F821000021FFF710FF78237D2218
:100BF00098F800103078FFF729FE0B49094809786A
:100C000000EB4100002130F8020CBDE8F04709F08C
:100C1000EFBC0000B1000020B2000020B3000020B3
:100C2000B8000020C4220020AD0000202DE9F047CC
:100C3000DFF8F0803A4E002498F800203178501EFA
:100C4000814201D1347001E0481C30703748364F82
:100C5000374D90F800C03B78ACF1010C2868634533
:100C600004D05A06120E5B1C3B7034E06FF0010397
:100C7000032A2CD9347899460422AA4650F8240035
:100C800001230021FFF7C2FEBCB1641EE4B20225BD
:100C900009EB4500C2B2DAF800000023194650F80B
:100CA0002400FFF7B3FE6CB1641EE4B26D1E15F0B4
:100CB000FF05EDD1022038701EE098F80000401EBC
:100CC000C4B2E4E798F80000401EC4B2EEE703EBBC
:100CD00042023C70D2B250F8210000231946FFF7BF
:100CE00095FE387831784006020E2868012350F8C6
:100CF00021000021FFF78AFE78237D2298F800105A
:100D00003078FFF7A3FD0C490A48097800EB410051
:100D1000002130F8020CBDE8F04709F069BC000082
:100D2000B1000020B2000020B3000020B400002079
:100D3000B8000020C4220020AD000020FEE7000023
:100D400070B5134D00240A222146284607F082FA86
:100D5000696BA5F10C000A8802800A7B8270097C0D
:100D6000C17006E06A6B04F11401515C0219641C45
:100D70001171C178A142F5D8074C064920680DF0E1
:100D800073FA2068BDE8704001490C3911F060BB6E
:100D9000BCCB0020006400408C01002070B5134DD6
:100DA00000240A222146284607F054FA696BA5F16F
:100DB00050000A8802800A7B8270097CC17006E0BC
:100DC0006A6B04F11401515C0219641C1171C17841
:100DD000A142F5D8074C064920680DF045FA206875
:100DE000BDE870400149503911F032BB00CC002001
:100DF000006800408C0100200D49C0F8AC100D497E
:100E000040F8801F0C4941600C4981600C49C16069
:100E10000C49C0F84C110C49C0F850110B49C0F8EE
:100E2000B8110B49C0F854110A49C0F8581170475D
:100E300071AC000873AC0008DFAD00085DAD0008C0
:100E4000E1AD0008DDAD0008D9AD0008DBAD00085C
:100E5000ADAD0008B5AD000870B5094DFF231A46C9
:100E600005F5807605E010F8014B54402A5D5A40A4
:100E7000335D491E89B2F6D242EA032070BD0000FC
:100E800062DF010810B5012901D0022902D10C311D
:100E9000C9B2401E4B1C03EB43030524B3FBF4F320
:100EA00002EB41011944C217014400EB927201EBBD
:100EB000A201642290FBF2F2891A4FF4C87290FBEF
:100EC000F2F00844072190FBF1F201FB1200401CF4
:100ED000C0B210BD70B513F063FE1A4C184D2068F7
:100EE000C0F8E051FFF788FF0021206816F074F980
:100EF0007F21206816F0C8F80521206816F06CF9EB
:100F00001021284611F0E2FA10210F4811F0DEFA04
:100F100000204FF48031401C8842FCD30020401C4C
:100F20008842FCD30020401C8842FCD30020401C97
:100F30008842FCD30020401C8842FCD370BD0000D6
:100F4000006400408C010020006800402DE9F0475B
:100F5000012713F0E9FE20F0C0004FF000093F2800
:100F600002D0314AA2F80090304C314D314E0B384E
:100F700007283ED2DFE800F00B211A04282F3600A4
:100F8000208800EB800005EB8000408805E0208889
:100F900000EB800005EB80008088208000EB800063
:100FA00005EB800000693060804723E0208800EB7B
:100FB000800005EB8000C088EFE7208800EB800010
:100FC00005EB80000089E8E7208800EB800005EB56
:100FD00080008089E1E7208800EB800005EB80003D
:100FE0004089DAE7208800EB800005EB8000C089AB
:100FF000D3E70027DFF8408098F8000068B1208828
:1010000000EB800005EB800000693060804798F8B5
:101010000010042904D088F800903846BDE8F08715
:10102000012188F80010F8E7C4000020AA00002081
:10103000A0A70108C0000020A80000202DE9F04F63
:101040008FB0044606F02AFD94A104A8FFF795F995
:10105000102680230122002104A8009606F096FDA8
:10106000234691A2042104A810F0F2FB90A10DF1F7
:101070001300FFF782F980230422002104A80096C0
:1010800006F084FD00226423114610460AF0F6FEA5
:10109000DFF82482894F34B198F89703A04202D335
:1010A000254687490BE098F89703A0420AD298F8A2
:1010B00098130144A14205D3201A8249C5B2386869
:1010C0000DF0D2F805F5C0600E9080380B908DF8C9
:1010D00030500122FB2120460DF020FE0420002686
:1010E0000DF1280A0A90CDE900A6DFF8D0914FF45F
:1010F000945B02960EAB01225946D9F8000010F01D
:10110000DFFECDE900A602960BAB02225946D9F8C4
:10111000000010F0D5FE01200A90CDE900A602964D
:101120000CAB03225946D9F8000010F0C9FE08EBB9
:10113000C407C246B7F8A8030990062002210DF1A2
:101140002408CDE90010CDE90286002346F206020C
:101150002946D9F8000016F0A1FA002873D12846D4
:1011600000F0F2F800286FD09AF89E03B3460126EB
:101170000DF1040C052100960990D1468CE8020976
:10118000DFF838A1334646F206022946DAF80000B5
:1011900016F084FA00287ED1284600F0D5F8002801
:1011A00076D099F89F03D9464FF0050B0123CDE97E
:1011B000003B0990CDE90289022346F20602294646
:1011C0005646DAF8000016F069FAE0BB284600F04F
:1011D000BBF800285CD0D7F8AA03CA4620F07F40AD
:1011E0000723042209908DE80C05032346F206022A
:1011F0002946B146306816F051FA20BB284600F067
:10120000A3F8002844D0B7F8A6035646CDE90286D5
:101210004FF0010A0990CDE900AB042346F2060223
:101220002946D9F8000016F039FA60B9284600F0CE
:101230008BF800282CD097F8AD03052346F2060260
:101240002946099001E026E022E0CDE90286CDE9B9
:1012500000ABD9F8000016F021FAE0B9284600F0FA
:1012600073F8002814D00222FB2120460DF056FD11
:101270000DA8009014484FF47A7382224FF0007149
:1012800000680AF033F89DF834000A2803D00120E2
:101290000FB0BDE8F08F0020FAE70000D5FDD4DAEA
:1012A000C5E4D6C300000000253033640000000010
:1012B000BAC5C9E8B1B80000242300208C01002081
:1012C00000640040006800407001002010B586B046
:1012D00004460BF05DFC06F0E1FB234613A204215B
:1012E00001A810F0B5FA13A10DF10700FFF745F8BA
:1012F000102480230122002101A8009406F046FC5E
:101300000EA101A8FFF739F880230422002101A8CB
:10131000009406F03BFC00230122194618460AF00F
:10132000ADFD0BF0FFFB06B010BD000025303364AF
:1013300000000000BAC5C9E8B1B80000C5E4D6C3D2
:10134000B3C9B9A621000000F8B506460A4D0EE063
:1013500000220A23114610460AF090FD6A463146E3
:10136000286813F03FF9012804D0641EA4B2002CB1
:10137000EED10020F8BD00008C01002030B40A46F8
:10138000D0F89C10D0F8A0404FF0FF3351F8221055
:1013900024F81230C1F307410122431883F8B0202A
:1013A000D0F8AC2030BC10472DE9F04F9946DDE96C
:1013B000094C4FF0FF3BDDF82CA048E0ACEB0203FA
:1013C0005BB20D78002B02DD05FA03F503E0C3F1F3
:1013D000000325FA03F5EEB202DDCCF1080301E0CB
:1013E000C2F10803DBB2834200D903460CEB0307CA
:1013F0004FF0FF0808FA07F5CCF1080C28FA0CF8B2
:1014000045EA080594F800C0AE430CEA050C1A44FE
:101410004CEA060CD2B284F800C0072A07D9002291
:10142000B9F1000F01D05D4600E00125294407F025
:10143000FF0CBCF1070F08D94FF0000CBAF1000FF8
:1014400001D05D4600E001252C44C01AC0B200283E
:10145000B4D1BDE8F08F10B500210A4600EB81033E
:10146000491CC3F87C230F29F8D300214FF40073E3
:101470004418491C84F81C219942F9D30270427027
:1014800001218170C0F8B823017640238371427630
:1014900080F81C2380F81D13002010BD7047000049
:1014A000411C0DD0084AB2F90010884201D1491EF2
:1014B0001180054A002100EB4000083202F830108C
:1014C0004FF0FF30704700009001002038B52649EA
:1014D00000200A6842F001020A600968234C01F00A
:1014E000010100914FF08041E060C4E90010204DFF
:1014F000482129702061A060204608F083FA206806
:10150000016841F0040101602068016A41F2111292
:10151000114207D1016A9210114203D1016821F0F2
:1015200001010160062007F0EFFB022200211C20D0
:1015300007F0CAFB1C2007F0B9FB0E480E490068F3
:10154000B0FBF1F14FF47A704143012068804FF015
:10155000E020026942F0020202614161016941F04A
:101560000101016138BD00004038024084220020A2
:101570009C0000202000002040420F0030B52128B0
:1015800000D92138012202EB10431C4A127803FBD8
:1015900002F41B4A1568AC62B0FBF3F41568EC6208
:1015A000B0FBF3F0D06010686FF0010505611368BF
:1015B000002058621068036843F00103036041F2A1
:1015C00011139C1011B1012911D004E010680169B8
:1015D000C907FCD005611068016A194206D1016A89
:1015E000214203D1016821F00101016030BD106882
:1015F000C16841F00101C16030BD00009C000020C5
:101600008422002010B50022114607A006F064FADB
:101610000222002107A006F05FFA0422BDE8104074
:10162000002107A006F058BA4275696C642054691D
:101630006D653A004A756C20323120323031390004
:1016400032323A33303A3432000000000BF06ABADA
:101650002DE9F843234D2449DFF890802878244F62
:1016600000EB400001EB8002137988F8003051F85C
:101670002000386006F012FA1E481F4C007801283E
:1016800005D10BF085FA1D49002020700870102646
:1016900000962178386800227E2350F821001146F8
:1016A00006F074FA16482178022250F82100302101
:1016B00006F036FB00962878124900EB40007E23A6
:1016C00051F8200006220021406806F05FFA98F8E1
:1016D0000010207801B07823BDE8F0437D22FFF7A9
:1016E000B5B80000AC000020F4A60108B20000204C
:1016F000B8000020A8000020B1000020B3000020A6
:1017000084A701086CA7010838B5164C164D20783F
:1017100000B928780022401E207010200090134845
:1017200021787E23006850F82100114606F02EFA39
:101730000F482178022250F82100302106F0F0FAFB
:1017400078237D2229782078FFF780F80A49094814
:10175000097800EB4100002130F8020CBDE8384068
:1017600008F046BFB1000020B2000020B800002001
:1017700084A70108C4220020AD00002038B5194D0F
:10178000174C29782078491E884201D1002000E0BA
:10179000401C20701020009013482178002200681F
:1017A0007E2350F82100114606F0F0F90F48217809
:1017B000022250F82100302106F0B2FA78237D226F
:1017C00029782078FFF742F80A490948097800EBA0
:1017D0004100002130F8020CBDE8384008F008BF95
:1017E000B1000020B2000020B800002084A701084A
:1017F000C4220020AD000020154810B5017816481D
:10180000144A0629007802EB40001DD2DFE801F0FF
:1018100003080D10151506F041F9012110200FE005
:1018200006F03CF9012118200AE00121D02007E050
:1018300006F034F90221202002E030F8020C0021E9
:10184000BDE8104008F0D4BE00210846F8E70000CB
:10185000B1000020C4220020AD0000200BF062B9CE
:10186000704770477047000008B506F017F9102060
:101870000090074807497E230078032200EB4000D0
:1018800051F820000021006806F080F908BD000032
:10189000AC000020DCA60108704770470BF042B98D
:1018A0000BF040B9704770477047000008B506F06C
:1018B000F5F81448154A164B007800EB4001124821
:1018C00000EB8100106002791A70124A00687E23D2
:1018D0001060102000901048062250F821000021CE
:1018E000406806F053F90D480078022806D10BF045
:1018F0004FF90B49002008700A490870BDE80840FC
:10190000FFF7A0B8AC00002074A50108BC000020BF
:10191000B2000020B80000206CA70108A800002039
:10192000B1000020B3000020FFF700B9FFF77EB937
:101930000B48007850B101280CD00B4909480978B0
:1019400000EB4100002130F8020C06E002214FF4C8
:10195000947002E002214FF4987008F049BE000034
:10196000B1000020C4220020AD0000200BF0DAB846
:10197000704770477047000038B51C480078012850
:1019800017D11B4800241BA104701B48FEF7F5FC6F
:1019900019481AA11130FEF7F0FC194819A20421C8
:1019A00090F89733144812380FF052FF124812384B
:1019B000447406F073F810200090144814497E23F4
:1019C0000078012200EB400051F82000114909780D
:1019D00050F82100002106F0D9F801B01023BDE82D
:1019E00030407E22042133200BF04CB9A8000020A7
:1019F000B300002030303000002300203939390096
:101A0000242300202530336400000000AC000020B7
:101A100024A70108B100002010B50BF0E5F8032160
:101A2000BDE81040F02008F0E3BD10B50BF0F2F86F
:101A30000321BDE81040F02008F0DABD2DE9F041A7
:101A40001848FEF7A3FC84B27D2C0AD91648174922
:101A5000007800EB400051F82000006805F086FC9B
:101A600019E0134D40F2993605F2973185F8974306
:101A700001220F463046FEF7E9FD01223946304685
:101A8000FEF7B1FD95F89703A04201D1012000E0D7
:101A9000002005F081FCBDE8F0410321F02008F0B2
:101AA000A7BD0000EE220020AC0000204CA60108DB
:101AB000242300200BF036B87047704770470000B1
:101AC00038B51C480078012817D11B4800241BA1F9
:101AD00004701B48FEF751FC19481AA11130FEF79B
:101AE0004CFC194819A2042190F898331448123874
:101AF0000FF0AEFE12481238447405F0CFFF1020EC
:101B00000090144814497E230078012200EB400025
:101B100051F820001149097850F82100002106F001
:101B200035F801B01023BDE830407E220421332077
:101B30000BF0A8B8A8000020B3000020303030001F
:101B40000023002039393900242300202530336454
:101B500000000000AC00002024A70108B100002014
:101B600010B50BF041F80321BDE81040F82008F053
:101B70003FBD10B50BF04EF80321BDE81040F82032
:101B800008F036BD2DE9F0411848FEF7FFFB84B29E
:101B90007D2C0AD916481749007800EB400051F80F
:101BA0002000006805F0E2FB19E0134D40F29A3680
:101BB00005F5667185F8984301220F463046FEF719
:101BC00045FD012239463046FEF70DFD95F8980394
:101BD000A04201D1012000E0002005F0DDFBBDE8BE
:101BE000F0410321F82008F003BD0000EE220020A0
:101BF000AC0000204CA60108242300200AF092BF6C
:101C000070477047704700002DE9FE43404F0024A5
:101C1000404E3878404D4FF02008012825D13F48EC
:101C20003FA1047005F11200FEF7A7FB3FA105F1EB
:101C30002300FEF7A2FBAC76472085F82B0001209D
:101C400030823020287068703120A87085F80380B9
:101C50002D21297169713E213748A97185F80780C6
:101C600090F8250228726C726C74387803282BD196
:101C7000687C082828D00322274901A8FEF745FBE5
:101C80008DF807402448FEF781FB84B2FA2C12D964
:101C90002A482B49007800EB400051F820000068EA
:101CA00005F064FB348A27A2234604211A480FF06A
:101CB000CFFD85F80380308AA04205D01E483482CB
:101CC000204490F82402287205F0E8FE10200090CD
:101CD0007E23012200211DA005F058FF10237E2243
:101CE00004211B200AF0CEFF687C082802D10220C4
:101CF00006F09AF8287A1949042251F820005B214D
:101D000005F0EAFE002006F08FF8BDE8FE83000033
:101D1000A8000020C6000020EE220020B300002012
:101D2000303030202D2D3E20300000003239392057
:101D30002D2D3E207800000024230020AC00002040
:101D40004CA601082530336400000000C9E8B1B892
:101D5000BAC52020C6B4D2F40000000038CE010875
:101D600010B50AF041FFBDE8104003214FF4A07008
:101D700008F03EBC10B50AF04DFFBDE8104003214D
:101D80004FF4A07008F034BC2DE9FC4103221F4938
:101D90006846FEF7BAFA00208DF803001B48FEF7EC
:101DA000F5FA80B2FA280AD919481A49007800EBE6
:101DB000400051F82000006805F0D8FA1EE0164AED
:101DC000124D1418A71A297A84F8241204F50971FF
:101DD00007F226270E46B8B20122FEF737FC31463D
:101DE000B8B20122FEF7FFFB287A94F82412884249
:101DF00001D1012000E0002005F0CEFA03214FF4CC
:101E0000A07008F0F5FBBDE8FC810000EE22002088
:101E1000AC0000204CA60108242300200AF082BE5A
:101E2000704770477047000008B505F037FE154849
:101E3000164A174B007800EB4001134800EB810075
:101E4000106002791A70134A00687E231060102017
:101E500000901148062250F821000021806805F00A
:101E600095FE0E480078022808D10AF091FE0C4831
:101E70000C4990F89F0308700B490870BDE80840B2
:101E8000FEF7E0BDAC0000205CA50108BC0000200E
:101E9000B2000020B80000206CA70108A8000020B4
:101EA00024230020B1000020B3000020FEF73EBE36
:101EB000FEF7BCBE2DE9F0410AF06AFE05F0EEFD2A
:101EC0000F48104D40F2A136047805F29F3185F895
:101ED0009F4301220F463046FEF7B8FB01223946E8
:101EE0003046FEF780FB95F89F03A04201D1012008
:101EF00000E0002005F050FABDE8F0410AF012BE03
:101F0000B1000020242300200AF00CBE7047704767
:101F1000704700000D4808B50078012804D10C492D
:101F2000002008700B49087005F0B8FD10200090E3
:101F300009480A497E230078032200EB400051F84B
:101F400020000021006905F021FE08BDA800002046
:101F5000B1000020B3000020AC0000206CA70108F5
:101F60007047704710B505F0C3FF012005F014FA63
:101F70000AF0D8FD0221BDE81040102008F038BB5F
:101F80000AF0D0BD704770477047000008B505F0F3
:101F900085FD0F48104A114B007800EB40010D48B9
:101FA00000EB8100106002791A700D4A00687E23F0
:101FB0001060102000900B48062250F821000021EC
:101FC000406805F0E3FDBDE80840FEF73BBD0000BA
:101FD000AC000020D4A50108BC000020B200002005
:101FE000B80000206CA70108FEF7A0BDFEF71EBEDA
:101FF0000D4810B5007850B101280DD00C490B48A0
:10200000097800EB4100002130F8020C08E00AF0EA
:10201000BFFD0121D82003E00AF0BAFD0121E02034
:10202000BDE8104008F0E4BAB1000020C42200204E
:10203000AD0000200AF076BD704770477047000081
:1020400008B505F02BFD1548164A174B007800EB34
:102050004001134800EB8100106002791A70134AA6
:1020600000687E231060102000901148062250F86E
:1020700021000021806805F089FD0E4800780228C3
:1020800008D10AF085FD0C480C4990F89E030870B1
:102090000B490870BDE80840FEF7D4BCAC00002036
:1020A00044A50108BC000020B2000020B8000020B8
:1020B0006CA70108A800002024230020B100002004
:1020C000B3000020FEF732BDFEF7B0BD2DE9F041B0
:1020D0000AF05EFD05F0E2FC0F48104D4FF4687603
:1020E000047805F29E3185F89E4301220F46304662
:1020F000FEF7ACFA012239463046FEF774FA95F83D
:102100009E03A04201D1012000E0002005F044F927
:10211000BDE8F0410AF006BDB100002024230020F4
:102120000AF000BD70477047704701214FF4E87016
:1021300008F05EBA704770477047000070B53048CD
:10214000304E314C007886B0012806D12F4900204E
:10215000307008702E492079087005F09FFC2D48DA
:102160002DA20421038901A80FF072FB2CA10DF10F
:102170000700FEF702F9102580230122002101A8A3
:10218000009505F003FD28A101A8FEF7F6F88023CD
:102190000322002101A8009505F0F8FC3078254DB8
:1021A000F0B1002005F040FE2878062200EB400048
:1021B000102154F82000006805F08EFC012005F085
:1021C00033FE2878062200EB4000502154F820000E
:1021D000406805F081FC002005F026FE06B070BDC9
:1021E000012005F021FE2878062200EB4000102196
:1021F00054F82000006805F06FFC0020DFE70000C5
:10220000A8000020B1000020C4A60108B3000020EF
:10221000B2000020C600002025303364000000001A
:10222000BAC5C9E8B1B80000C5E4D6C3CAA7B0DCD6
:1022300021000000AC00002010B508F0D3FDBDE87F
:10224000104003214FF4EC7008F0D2B910B508F03B
:10225000DFFDBDE8104003214FF4EC7008F0C8B971
:102260000848007840B1084A10899189884202D212
:10227000401C108100E01181012140F2D11008F0D2
:10228000B7B90000B1000020C6000020F8B5214811
:102290000078012820D12048002620A1067021487E
:1022A000FEF76BF81F4820A11130FEF766F8204DAD
:1022B0001C4820A26B89042112380FF0C9FA194C6E
:1022C0002D20123C1BA2E070AB890421201D0FF0D1
:1022D000BFFA66740120287005F0E0FB1020009022
:1022E000164817497E230078012200EB400051F880
:1022F00020001449097850F82100002105F046FC1F
:1023000001B01023BDE8F0407E22042123200AF012
:10231000B9BC0000A8000020B30000203030302DF0
:1023200030303000002300203939392D3939390057
:10233000C60000202530336400000000AC000020FF
:1023400024A70108B100002010B50AF04DFCBDE83B
:10235000104003214FF4E87008F04AB910B50AF0B4
:1023600059FCBDE8104003214FF4E87008F040B973
:1023700010B586B0032225496846FDF7C6FF6846BA
:10238000FEF704F8224C214903226081091D6846AA
:10239000FDF7BBFF6846FDF7F9FF80B2A0816189B8
:1023A000FF2901D8FF280AD91A481B49007800EBF9
:1023B000400051F82000006804F0D8FF13E02078B6
:1023C00001280CD121810AE0C0B2FEF737FE20704F
:1023D00068B1207AFEF77AFF2089401C208120898D
:1023E000A1898842F0D903214FF4E87009E00B4835
:1023F0000021006814F0DAFC0BF00CFA04214FF411
:10240000EC7008F0F5F806B010BD0000EE220020D8
:10241000C6000020AC0000204CA601088C01002062
:102420000AF080BB70477047704700000D4808B540
:102430000078012804D10C49002008700B4908706D
:1024400005F02CFB1020009009480A497E230078F3
:10245000032200EB400051F820000021006905F044
:1024600095FB08BDA8000020B1000020B3000020AB
:10247000AC0000206CA701087047704710B50BF046
:10248000BBF9012004F088FF0AF04CFB0221BDE8F3
:102490001040182008F0ACB80AF044BB70477047F1
:1024A0007047000038B51A480078012813D1194840
:1024B000002419A104701948FDF75FFF174818A1FF
:1024C0001130FDF75AFF154813A11238FDF755FFDB
:1024D00012481238447405F0E1FA102000901148B7
:1024E00011497E230078012200EB400051F82000C2
:1024F0000E49097850F82100002105F047FB01B092
:102500001023BDE830407E22042133200AF0BABBFC
:10251000A8000020B300002030303000002300204D
:1025200039393900AC0000202CA50108B100002089
:1025300010B50AF059FBBDE8104003214FF4C470F8
:1025400008F056B810B50AF065FBBDE8104003214D
:102550004FF4C47008F04CB838B51E48FDF716FFAC
:1025600084B2FA2C0AD91C481C49007800EB4000C0
:1025700051F82000006804F0F9FE25E018486B4689
:1025800000224FF48041006808F06AFFE0B20CF0CE
:1025900051FC144D286809F0DFF88DF800006A46F8
:1025A0004FF47A71286809F0E5F89DF800100A29BF
:1025B00005D00178A14204D04078FD2801D0002048
:1025C00000E0012004F0E8FE03214FF4C47008F09D
:1025D0000FF838BDEE220020AC0000204CA6010808
:1025E000700100206C0100200AF09CBA704770470F
:1025F00070470000F8B52848007801282ED12748F8
:10260000002627A106702948FDF7B7FE274828A114
:102610001130FDF7B2FE254C3220123C0022207012
:10262000302060702549264806F0A2FE234D25A2E1
:102630000321EB78A01C0FF00BF92F2727716B7883
:1026400020A20321601D0FF003F9E771AB781DA2F2
:10265000032104F108000FF0FBF8667405F01EFA80
:102660001020009019481A497E230078012200EBBF
:10267000400051F820001749097850F82100002146
:1026800005F084FA01B01023BDE8F0407E22042159
:1026900017200AF0F7BA0000A8000020B3000020BD
:1026A000323030302F30312F303000000023002006
:1026B000323039392F31392F33390000C30E002021
:1026C00098DD00202530326400000000AC000020BE
:1026D000D4A50108B100002010B50AF085FA032145
:1026E000BDE81040E02007F083BF10B50AF092FA71
:1026F0000321BDE81040E02007F07ABF38B51BA0E9
:102700001B4D006800900222A91C6846FDF7FDFDE4
:102710006846FDF73BFE174C0222691DE0706846D3
:10272000FDF7F3FD6846FDF731FE6070022205F10A
:1027300008016846FDF7E9FD6846FDF727FEC2B2CD
:10274000A270E078617800F5FA60FEF79BFB2070DC
:1027500000222146084806F0AFFE012004F01CFECE
:102760000321E02007F044FF38BD00002A2A0000C2
:10277000EE220020C30E002098DD00200AF0D2B91E
:1027800070477047704700002DE9FE43404F00241A
:10279000404E3878404D4FF02008012825D13F4861
:1027A0003FA1047005F11200FDF7E7FD3FA105F11F
:1027B0002300FDF7E2FDAC76192085F82B000120FF
:1027C000F0813020287068703120A87085F803806F
:1027D0002D21297169713E213748A97185F807803B
:1027E00090F8250128726C726C74387803282BD10C
:1027F000687C082828D00322274901A8FDF785FD19
:102800008DF807402448FDF7C1FD84B2FA2C12D997
:102810002A482B49007800EB400051F8200000685E
:1028200004F0A4FDF48927A2234604211A480FF0DE
:102830000FF885F80380F089A04205D01E48F48186
:10284000204490F82401287205F028F91020009007
:102850007E23012200211DA005F098F910237E227D
:1028600004211B200AF00EFA687C082802D10220FD
:1028700005F0DAFA287A1949042251F820005B2180
:1028800005F02AF9002005F0CFFABDE8FE8300002C
:10289000A8000020C6000020EE220020B300002087
:1028A000303030202D2D3E203000000039393920C5
:1028B0002D2D3E207800000024230020AC000020B5
:1028C0004CA601082530336400000000C9E8B1B807
:1028D000BAC52020D7D6B7FB00000000D0CD010834
:1028E00010B50AF081F9BDE8104003214FF49C7047
:1028F00007F07EBE10B50AF08DF9BDE81040032147
:102900004FF49C7007F074BE2DE9FC4103221F496F
:102910006846FDF7FAFC00208DF803001B48FDF720
:1029200035FD80B2FA280AD919481A49007800EB17
:10293000400051F82000006804F018FD1EE0164A1F
:10294000124D1418A71A297A84F8241104F59271EB
:1029500007F593770E46B8B20122FDF777FE3146B0
:10296000B8B20122FDF73FFE287A94F8241188427C
:1029700001D1012000E0002004F00EFD03214FF4FE
:102980009C7007F035FEBDE8FC810000EE220020BF
:10299000AC0000204CA60108242300200AF0C2B895
:1029A00070477047704700000D4808B5007801284F
:1029B00004D10C49002008700B49087005F06EF82E
:1029C0001020009009480A497E230078032200EB7A
:1029D000400051F820000021006905F0D7F808BD3B
:1029E000A8000020B1000020B3000020AC000020AF
:1029F0006CA701087047704710B50AF0FDFE012072
:102A000004F0CAFC0AF08EF80221BDE81040102044
:102A100007F0EEBD0AF086B87047704770470000B7
:102A20002DE9F043DFF8B481DFF8B4912D2798F851
:102A300000006C4D00266C4C87B001281DD16B48FE
:102A40006BA1067004F11200FDF797FC6AA104F176
:102A50002300FDF792FCAB7869A2042120460EF01A
:102A6000F7FEE770A97866A209EBC1000421B0F86F
:102A7000A633201D0EF0ECFE667498F800000328C3
:102A800039D1607C032836D20322574901A8FDF7CB
:102A90003CFC8DF8076001A8FDF778FC80B2A882A5
:102AA000FA2812D958485949007800EB400051F8EB
:102AB0002000006804F05AFCAB7851A204214A4877
:102AC0000EF0C6FEE770A878A882A97880B2884286
:102AD00011D0C3B2AB704AA2042143480EF0B8FE35
:102AE000E770AA78201D09EBC20145A2B1F8A63310
:102AF00004210EF0ADFE04F0D1FF45A101A8FDF7C1
:102B00003CFC002101A8FDF70CFC03223649FDF72F
:102B1000FCFB10258DF80E607E230122002101A808
:102B2000009505F033F8607C3B4FDFF8F080032818
:102B30001BD2022005F078F9002005F04FF9607CE7
:102B40000122011901A8FDF7E0FB8DF80560607C0A
:102B5000397898F8002001EBC0001838C1B201A8FC
:102B600004F0BAFF002005F05FF92DA101A8FDF7E0
:102B700004FC002101A8FDF7D4FB0322211DFDF771
:102B8000C4FB8DF80C607E230422002101A800956F
:102B900004F0FCFF607C001F03281BD2022005F01C
:102BA00043F9002005F01AF9607C0122011901A8FF
:102BB000FDF7ABFB8DF80560607C397898F8002054
:102BC00001EBC0003838C1B201A804F085FF002035
:102BD00005F02AF907B0BDE8F0830000A800002046
:102BE00024230020C6000020EE220020B300002095
:102BF0003030302D303030003239392D393939000C
:102C00002530336400000000AC0000204CA6010811
:102C1000C9E8B1B8BAC53A00A2000020A30000205C
:102C2000BBA8D1F93A00000010B509F0DDFFBDE8FE
:102C3000104003214FF4B47007F0DABC10B509F06E
:102C4000E9FFBDE8104003214FF4B47007F0D0BC99
:102C5000F8B5032228496846FDF757FB6846FDF79B
:102C600095FB264E24490322B082091D6846FDF7D4
:102C70004CFB6846FDF78AFB84B2B08AFA2802D87A
:102C8000B4F57A7F0AD31E481E49007800EB400055
:102C900051F82000006804F069FB27E0C0B21A4D2B
:102CA000B07005EBC00000F2A631A0F8A643401BAF
:102CB00000F56A7080B20222FDF7C8FCB0780222EB
:102CC00005EBC00000F2A631401B00F56A7080B22F
:102CD000FDF789FCB07805EBC000B0F8A603A04270
:102CE00001D1012000E0002004F056FB03214FF445
:102CF000B47007F07DFCF8BDEE220020C600002075
:102D0000AC0000204CA601082423002009F00ABFD3
:102D1000704770477047000008B504F0BFFE1448C4
:102D2000154A164B007800EB4001124800EB810079
:102D3000106002791A70124A00687E231060102019
:102D400000901048062250F821000021406804F04D
:102D50001DFF0D480078022806D109F019FF0B4924
:102D6000002008700A490870BDE80840FDF76ABEF7
:102D7000AC0000202CA50108BC000020B2000020FF
:102D8000B80000206CA70108A8000020B1000020B6
:102D9000B3000020FDF7CABEFDF748BF2A4810B5B2
:102DA00000780B2846D2DFE800F0060C10141A2039
:102DB000262C32383C0009F0EBFE01214FF4C470A0
:102DC00034E002214FF4C87030E002214FF4AC70BF
:102DD0002CE009F0DDFE01214FF4B07026E009F08F
:102DE000D7FE01214FF4B47020E009F0D1FE01219B
:102DF0004FF4B8701AE009F0CBFE01214FF4BC701B
:102E000014E009F0C5FE01214FF4C0700EE009F096
:102E1000BFFE01214FF4CC7008E001214FF4D070C7
:102E200004E009F0B5FE01214FF4F070BDE8104058
:102E300007F0DEBB06490548097800EB4100002198
:102E400030F8020CF2E70000B1000020C42200209C
:102E5000AD00002009F066BE08B504F01FFE0F4863
:102E6000104A114B007800EB40010D4800EB810047
:102E7000106002791A700D4A00687E2310601020DD
:102E800000900B48062250F821000021406804F011
:102E90007DFEBDE80840FDF7D5BD0000AC00002078
:102EA0000CA70108BC000020B2000020B8000020E0
:102EB0006CA70108FDF73ABEFDF7B8BE1B4810B578
:102EC0000078072828D2DFE800F004090E11141A50
:102ED0001F0009F05DFE0121402019E009F058FEB5
:102EE0000121482014E00221A82011E00221C8019C
:102EF0000EE009F04DFE01214FF4847008E009F066
:102F000047FE0121502003E009F042FE0121E820A4
:102F1000BDE8104007F06CBB06490548097800EB96
:102F20004100002130F8020CF2E70000B10000205F
:102F3000C4220020AD00002009F0F4BD70477047A6
:102F40007047000008B504F0A9FD1548164A174B54
:102F5000007800EB4001134800EB8100106002791B
:102F60001A70134A00687E231060102000901148E8
:102F7000062250F821000021806804F007FE0E4868
:102F80000078022808D109F003FE0C480C4990F89B
:102F9000210008700B490870BDE80840FDF752BDDC
:102FA000AC00002004A60108BC000020B2000020F4
:102FB000B80000206CA70108A800002024230020EE
:102FC000B1000020B3000020FDF7B0BDFDF72EBE1C
:102FD00070B509F0DDFD04F061FD0E480E4D0E499F
:102FE0000478213105F8214F01220E462320FDF7F8
:102FF0002DFB012231462320FDF7F5FA2878A04267
:1030000001D1012000E0002004F0C6F9BDE87040C5
:1030100009F088BDB10000202423002009F082BD02
:10302000704770477047000008B504F037FD14483A
:10303000154A164B007800EB4001124800EB810066
:10304000106002791A70124A00687E231060102006
:1030500000901048062250F821000021406804F03A
:1030600095FD0D480078022806D109F091FD0B4925
:10307000002008700A490870BDE80840FDF7E2BC6E
:10308000AC000020ECA50108BC000020B20000202C
:10309000B80000206CA70108A8000020B1000020A3
:1030A000B3000020FDF742BDFDF7C0BD184810B5C4
:1030B0000078052823D2DFE800F003080D1319007B
:1030C00009F066FD0121C02015E009F061FD012134
:1030D000C82010E009F05CFD01214FF488700AE07F
:1030E00009F056FD01214FF48C7004E009F050FD09
:1030F00001214FF49070BDE8104007F079BA0649FD
:103100000448097800EB4100002130F8020CF2E796
:10311000B1000020C4220020AD00002009F002BD53
:10312000704770477047000008B504F0B7FC1548B9
:10313000164A174B007800EB4001134800EB810062
:10314000106002791A70134A00687E231060102004
:1031500000901148062250F821000021806804F0F8
:1031600015FD0E480078022808D109F011FD0C4821
:103170000C4990F8960308700B490870BDE80840A8
:10318000FDF760BCAC000020BCA50108BC0000201D
:10319000B2000020B80000206CA70108A8000020A1
:1031A00024230020B1000020B3000020FDF7BEBCA6
:1031B000FDF73CBD2DE9F04109F0EAFC04F06EFC9E
:1031C0000F48104D4FF46676047805F2963185F875
:1031D000964301220F463046FDF738FA0122394660
:1031E0003046FDF700FA95F89603A04201D1012080
:1031F00000E0002004F0D0F8BDE8F04109F092BCF6
:10320000B10000202423002009F08CBC70477047D7
:10321000704700002DE9F043DFF8C081DFF8C0916E
:103220002D2798F800006F4D00266F4C87B00128BD
:103230001DD16E486EA1067004F11200FDF79DF8D5
:103240006EA104F12300FDF798F8EB786EA204213B
:1032500020460EF0FDFAE770E9786DA209EBC10097
:103260000521B0F8A833201D0EF0F2FA667498F824
:103270000000032839D1607C032836D203225A4942
:1032800001A8FDF742F88DF8076001A8FDF77EF868
:1032900080B2E882FA2812D95F486049007800EBD2
:1032A000400051F82000006804F060F8EB7856A266
:1032B00004214D480EF0CCFAE770E878E882E9780E
:1032C00080B2884211D0C3B2EB704FA204214648AD
:1032D0000EF0BEFAE770EA78201D09EBC2014CA29D
:1032E000B1F8A83305210EF0B3FA04F0D7FB4CA1D6
:1032F00001A8FDF742F8002101A8FDF712F803220A
:103300003949FDF702F810258DF80E607E23012261
:10331000002101A8009504F039FC607C424FDFF8E1
:103320000C8103281BD2022004F07EFD002004F053
:1033300055FD607C0122011901A8FCF7E6FF8DF81C
:103340000560607C397898F8002001EBC0001838DF
:10335000C1B201A804F0C0FB002004F065FD34A157
:1033600001A8FDF70AF8002101A8FCF7DAFF042202
:10337000211DFCF7CAFF8DF80F60002101A8FCF7A2
:10338000D0FF2DA1FCF7F9FF7E230422002101A824
:10339000009504F0FBFB607C001F04281BD2022078
:1033A00004F042FD002004F019FD607C01220119A7
:1033B00001A8FCF7AAFF8DF80560607C397898F8C1
:1033C000002001EBC0005038C1B201A804F084FB1A
:1033D000002004F029FD07B0BDE8F083A80000201C
:1033E00024230020C6000020EE220020B30000208D
:1033F0003030302D30303030000000003239392D7F
:1034000039393939000000002530336400000000EC
:103410002530346400000000AC0000204CA60108F8
:10342000C9E8B1B8BAC53A00A2000020A300002044
:10343000B5C6D6E9CAFD3A00B8F6000010B509F0E5
:10344000D3FBBDE8104003214FF4BC7007F0D0B8A7
:1034500010B509F0DFFBBDE8104003214FF4BC704C
:1034600007F0C6B87CB5032228496846FCF74DFF33
:103470006846FCF78BFF264E24490422F082091D82
:103480006846FCF742FF6846FCF780FF84B2F08A8A
:10349000FA2802D8B4F5006F0AD91E481E490078F0
:1034A00000EB400051F82000006803F05FFF27E0C8
:1034B000C0B21A4DF07005EBC00000F56A71A0F8BB
:1034C000A843401B00F2AA3080B20222FDF7BEF8EA
:1034D000F078022205EBC00000F56A71401B00F293
:1034E000AA3080B2FDF77FF8F07805EBC000B0F8A5
:1034F000A803A04201D1012000E0002003F04CFF0E
:1035000003214FF4BC7007F073F87CBDEE2200205D
:10351000C6000020AC0000204CA601082423002097
:1035200009F000BB38B504F0B9FA144C154A164B33
:10353000207800EB4001124800EB81001060027916
:103540001A70124A00687E23106010200090104804
:10355000062250F821000021806804F017FB0D4876
:103560000078022806D109F013FB0B492078087077
:103570000A490870BDE83840FDF764BAAC00002085
:1035800054A70108BC000020B2000020B8000020B1
:103590006CA70108A8000020B1000020B3000020A3
:1035A000FDF7C4BAFDF742BB10B509F0F1FA04F01B
:1035B00075FA0E480E4C007808B1012803D120702E
:1035C0000A2004F06DFA20780A4C0222A11C6080C7
:1035D0000420FDF73BF80222A11C0420FDF703F8AC
:1035E00004F05CFABDE8104009F09CBAB10000207C
:1035F000AC0000202423002009F094BA70477047E3
:10360000704700002DE9F043DFF8C481DFF8C49172
:103610002D2798F80000704D0026704C87B00128C7
:103620001DD16F486FA1067004F11200FCF7A5FED2
:103630006EA104F12300FCF7A0FE2B796DA20421FA
:1036400020460EF005F9E77029796CA209EBC1005C
:10365000022190F8AD33201D0EF0FAF8667498F848
:103660000000032839D1607C032836D203225B494D
:1036700001A8FCF74AFE8DF8076001A8FCF786FE5A
:1036800080B22883FA2812D95E485F49007800EB9F
:10369000400051F82000006803F068FE2B7955A225
:1036A00004214E480EF0D4F8E77028792883297950
:1036B00080B2884211D0C3B22B714EA20421474878
:1036C0000EF0C6F8E7702A79201D09EBC2014BA263
:1036D00091F8AD3302210EF0BBF804F0DFF94BA1F5
:1036E00001A8FCF74AFE002101A8FCF71AFE0322FC
:1036F0003A49FCF70AFE10278DF80E607E2301225E
:10370000002101A8009704F041FA607CDFF80481F1
:10371000DFF8049103281CD2022004F085FB00206E
:1037200004F05CFB607C0122011901A8FCF7EDFDAF
:103730008DF80560617C98F8000099F8002000EB96
:10374000C1001838C1B201A804F0C6F9002004F085
:103750006BFB0122211D01A8FCF7D7FD8DF8056048
:1037600001A8FCF713FEC5B22CA101A8FCF705FEC9
:10377000002101A8FCF7D5FD2B4E56F82510FCF7CB
:10378000FCFD7E230422002101A8009704F0FEF92D
:10379000607C042819D1022004F046FB002004F0CC
:1037A0001DFB56F8251001A8FCF7E7FD617C98F891
:1037B000000099F8002000EBC1003038C1B201A828
:1037C00004F08AF9002004F02FFB07B0BDE8F08375
:1037D000A800002024230020C6000020EE220020A4
:1037E000B30000203030302D300000003239392D48
:1037F00033000000253033640000000025303164C0
:1038000000000000AC0000204CA60108C9E8B1B8D7
:10381000BAC53A00A2000020A3000020D1D5C9AB50
:10382000C4A3CABD3A00000058CF010810B509F082
:10383000DBF9BDE8104003214FF4F07006F0D8BE6C
:1038400010B509F0E7F9BDE8104003214FF4F0701E
:1038500006F0CEBEF8B503222A496846FCF755FDAE
:1038600000248DF803406846FCF790FD264E25495C
:1038700001223083091D6846FCF747FD8DF80140A1
:103880006846FCF783FD84B2308BFA2801D8032CFC
:103890000AD91E481E49007800EB400051F820006C
:1038A000006803F063FD27E0C0B21A4D307105EBEC
:1038B000C00000F2AD3180F8AD43401B00F2AF30E4
:1038C00080B20122FCF7C2FE3079012205EBC00371
:1038D000581B00F2AF3003F2AD3180B2FCF783FE2B
:1038E000307905EBC00090F8AD03A04201D1012072
:1038F00000E0002003F050FD03214FF4F07006F0CB
:1039000077FEF8BDEE220020C6000020AC000020AB
:103910004CA601082423002009F004B97047704721
:103920007047000038B522480078012817D1214897
:10393000002421A104702248FCF71FFD204821A18A
:103940001130FCF71AFD214821A20521B0F8A73B50
:103950001B4812380DF07CFF19481238447404F0EB
:103960009DF81D4C1020009020781C4900EB400071
:103970007E2351F820001A490122097850F82100CD
:10398000002104F003F910237E220421272009F0EE
:1039900079F92078134900EB400051F820001249D2
:1039A00040680A7811490978BDE8384004F094B8B5
:1039B000A8000020B30000203030303000000000AC
:1039C0000023002039393939000000002423002069
:1039D0002530346400000000AC0000202CA5010854
:1039E000B100002064A60108A3000020A20000206E
:1039F00010B509F0F9F8BDE8104003214FF4CC7080
:103A000006F0F6BD10B509F005F9BDE81040032138
:103A10004FF4CC7006F0ECBD2DE9F0411248FCF7F4
:103A2000B5FC124D84B205F6A73140F6A936A5F8CB
:103A3000A74B02220F463046FCF708FE0222394609
:103A40003046FCF7D0FDB5F8A70BA04201D101200C
:103A500000E0002003F0A0FCBDE8F04103214FF49A
:103A6000CC7006F0C5BD0000EE220020242300200B
:103A700009F058B870477047704700002DE9F04FC3
:103A80007E487F4C0025017887B004F1080B01299E
:103A900025D17C487CA1057004F11200FCF76DFC77
:103AA0007CA104F12300FCF768FC7D4E7DA204217B
:103AB00096F8A233204606F2A2360DF0C9FE2D2755
:103AC000E770737877A20421201D0DF0C1FEE77125
:103AD000B37874A2042158460DF0BAFE657403F061
:103AE000DDFFDFF8C8A14FF01008CDF800809AF88C
:103AF00000006F4900EB4000002251F820006D49A2
:103B00004646574609787E2350F82100114604F0B6
:103B10003DF83878DFF8A09100EB400159F821001A
:103B2000016801A8FCF729FC002101A8FCF7F9FBBA
:103B300003225349FCF7E9FB8DF80A507E23022249
:103B4000002101A8009604F021F8607C5B4E5C4FD8
:103B500003281AD2022004F067F9002004F03EF98D
:103B6000607C0122011901A8FCF7CFFB8DF80550FC
:103B7000607C31783A7801EBC0001838C1B201A8F6
:103B800003F0AAFF002004F04FF99AF8000000EBC0
:103B9000400159F82100416801A8FCF7EEFB002123
:103BA00001A8FCF7BEFB0322211DFCF7AEFB8DF83C
:103BB0000A507E230422002101A8CDF8008003F0E2
:103BC000E5FF607C001F03281AD2022004F02CF9C4
:103BD000002004F003F9607C0122011901A8FCF720
:103BE00094FB8DF80550607C31783A7801EBC00089
:103BF0003838C1B201A803F06FFF002004F014F9B7
:103C00009AF8000000EB400159F82100816801A8F2
:103C1000FCF7B3FB002101A8FCF783FB0322594604
:103C2000FCF773FB8DF80A507E230622002101A8C1
:103C3000CDF8008003F0AAFF607C07281AD9022083
:103C400004F0F2F8002004F0C9F8607C01220119A8
:103C500001A8FCF75AFB8DF80550607C31783A7862
:103C600001EBC0005838C1B201A803F035FF0020B5
:103C700004F0DAF807B0BDE8F08F0000A8000020DB
:103C8000EE220020B30000203030302D3030302DB7
:103C9000303030003939392D3939392D3939390039
:103CA000242300202530336400000000AC000020F5
:103CB0002CA50108B100002014A50108A2000020D5
:103CC000A300002010B508F08FFF0321BDE81040CD
:103CD000C80106F08DBC10B508F09CFF0321BDE8BB
:103CE0001040C80106F084BC2DE9FE4F3CA0032221
:103CF000006800903B496846FCF707FB6846FCF704
:103D000045FB384986B20322091D6846FCF7FDFAD7
:103D10006846FCF73BFB334985B20322083168460D
:103D2000FCF7F3FA6846FCF731FB84B2FF2E03D8A8
:103D3000FF2D01D8FF2C0AD92B482C49007800EB25
:103D4000400051F82000006803F010FB41E0284FCC
:103D50004FF4697807F2A23187F8A26387F8A3537A
:103D600087F8A443012240460291FCF76FFC07F25A
:103D7000A33140F2A53A012250460191FCF766FCBE
:103D800007F5697140F2A63901228B464846FCF7D7
:103D90005DFC012240460299FCF725FC01225046B9
:103DA0000199FCF720FC012259464846FCF71BFC10
:103DB00097F8A203B04209D197F8A303A84205D10E
:103DC00097F8A403A04201D1012000E0002003F0F5
:103DD000E3FA0321C80106F00BFCBDE8FE8F0000EA
:103DE0002A2A2A00EE220020AC0000204CA601085E
:103DF0002423002008F096BE7047704770470000EB
:103E000008B503F04BFE1448154A164B007800EB3A
:103E10004001124800EB8100106002791A70124ACA
:103E200000687E231060102000901048062250F891
:103E300021000021406803F0A9FE0D480078022807
:103E400006D108F0A5FE0B49002008700A49087049
:103E5000BDE80840FCF7F6BDAC000020E4A4010872
:103E6000BC000020B2000020B80000206CA70108B0
:103E7000A8000020B1000020B3000020FCF756BECF
:103E8000FCF7D4BE164810B5007870B1012812D0E6
:103E9000022816D003281AD013491248097800EBDB
:103EA0004100002130F8020C16E008F071FE0121FB
:103EB0004FF4D47010E008F06BFE01214FF4D8707D
:103EC0000AE008F065FE01214FF4DC7004E008F020
:103ED0005FFE01214FF4E070BDE8104006F088BBA2
:103EE000B1000020C4220020AD00002008F01ABE5E
:103EF0007047704770470000F8B51748174C184DC9
:103F00000078012808D117481749007F2070002049
:103F1000087016492879087003F0C0FD144F102668
:103F200000963878134900EB40007E2351F82000BA
:103F300001220021406A03F029FE0096387821789A
:103F400000EB40007E2355F82000042250F82100A9
:103F5000002103F01BFEF8BDA8000020B1000020E6
:103F60001CA6010824230020B3000020B20000207A
:103F7000AC00002024A7010810B506F033FF032190
:103F8000BDE81040902006F033BB10B506F040FFAE
:103F90000321BDE81040902006F02ABB70B50F4DFC
:103FA0000F4C02222878A08304F11C010E461E202B
:103FB000FCF74CFB022231461E20FCF714FBA08BC1
:103FC0002978884201D1012000E0002003F0E4F9C3
:103FD000BDE870400321902006F00ABBB10000202C
:103FE0002423002008F09EBD7047704770470000F2
:103FF00038B520480078012813D11F4800251F4CF0
:1040000005701FA021A2008860821EA002210088E6
:10401000A4F823001C4890F8203020460DF018FC2E
:10402000657403F03BFD1B4C1020009020781A496A
:1040300000EB40007E2351F8200018490122097846
:1040400050F82100002103F0A1FD10237E2204215D
:10405000332008F017FE2078114900EB400051F89A
:104060002000104980680A780F490978BDE8384077
:1040700003F032BDA8000020B3000020EE22002093
:104080003000000039000000242300202530316476
:1040900000000000AC00002024A70108B1000020AF
:1040A00064A60108A3000020A200002010B508F0BB
:1040B0009BFD0321BDE81040A02006F099BA10B581
:1040C00008F00CFE0321BDE81040A02006F090BAD5
:1040D00070B51048FCF75AF90F4D0F49C4B22031A2
:1040E00005F8204F01220E462220FCF7AFFA0122EC
:1040F00031462220FCF777FA2878A04201D101202E
:1041000000E0002003F048F9BDE870400321A02042
:1041100006F06EBAEE2200202423002008F002BD33
:104120007047704770470000F8B51748174C184D96
:104130000078012808D117481749807F2070002097
:10414000087016492879087003F0A8FC144F10264F
:1041500000963878134900EB40007E2351F8200088
:1041600001220021806A03F011FD00963878217841
:1041700000EB40007E2355F82000042250F8210077
:10418000002103F003FDF8BDA8000020B1000020CD
:1041900034A6010824230020B3000020B200002030
:1041A000AC00002024A7010810B506F01BFE032177
:1041B000BDE81040982006F01BBA10B506F028FEA6
:1041C0000321BDE81040982006F012BA70B50F4DDB
:1041D0000F4C02222878E08304F11E010E462020B5
:1041E000FCF734FA022231462020FCF7FCF9E08B80
:1041F0002978884201D1012000E0002003F0CCF8AA
:10420000BDE870400321982006F0F2B9B10000200B
:104210002423002008F086BC7047704770470000D8
:10422000F8B51848184C194D007801280AD11848DB
:1042300018490078C0F3400020700020087016492B
:104240002879087003F02AFC144F1026009638785D
:10425000134900EB40007E2351F820000122002189
:10426000C06803F093FC00963878217800EB40009A
:104270007E2355F82000042250F82100002103F08D
:1042800085FCF8BDA8000020B1000020ACA6010804
:1042900024230020B3000020B2000020AC00002046
:1042A00094A6010810B506F09DFD0321BDE810405D
:1042B000482006F09DB910B506F0AAFD0321BDE81F
:1042C0001040482006F094B970B5114D114C0222EF
:1042D0002978208861F34100208021461046FCF7B0
:1042E000B5F9022221461046FCF77DF9207829789D
:1042F000C0F34000884201D1012000E0002003F01B
:104300004BF8BDE870400321482006F071B9000069
:10431000B10000202423002008F004BC704770473F
:1043200070470000F8B51848184C194D007801285E
:1043300009D11848184990F8A90B2070002008707E
:1043400016492879087003F0A9FB154F102600962E
:104350003878144900EB40007E2351F820000122F8
:104360000021806803F012FC00963878217800EB79
:1043700040007E2355F82000042250F8210000213F
:1043800003F004FCF8BD0000A8000020B1000020EC
:10439000ACA6010824230020B3000020B2000020B6
:1043A000AC000020E4A4010810B506F01BFDBDE838
:1043B000104003214FF4D47006F01AB910B506F07E
:1043C00027FDBDE8104003214FF4D47006F010B96A
:1043D0002DE9F041114D124C40F6AB36287884F8A7
:1043E000A90B04F6A93101220F463046FCF72EF93D
:1043F000012239463046FCF7F6F894F8A90B2978E3
:10440000884201D1012000E0002002F0C5FFBDE894
:10441000F04103214FF4D47006F0EAB8B100002057
:104420002423002008F07EBB7047704770470000CF
:104430002DE9F04FED4D0024ED4F287887B001288D
:104440000ED1EC48ECA1047007F11200FBF795FFC8
:10445000EDA107F12300FBF790FF0DF00DF87C7440
:104460002878ED4E03282BD1787C022828D202220E
:10447000DF4901A8FBF749FF8DF8064001A8FBF7CB
:1044800085FFE64D80B21428688312D93078E4495C
:1044900000EB400051F82000006802F067FF6B79E4
:1044A000E0A20321D2480DF0D3F92D20B87068792D
:1044B0006883697980B2884202D068710CF0DCFFB1
:1044C00003F0ECFA4FF0100BCDF800B0307800227A
:1044D00000EB4001D548B1467E2350F82100D44975
:1044E000097850F82100114603F050FB01223D46A7
:1044F000F91C01A8FBF709FFA04627468DF80540E7
:1045000001A8FBF743FFC4B2307800EB4001C94873
:1045100050F82100016801A8FBF72FFF002101A836
:10452000FBF7FFFEC4A109880180002101A8FBF769
:10453000F8FE0222AE49FBF7E8FE8DF80D7000216F
:1045400001A8FBF7EEFEBDA109880180002101A8AA
:10455000FBF7E7FEBAA1FBF710FF002101A8FBF76C
:10456000E0FE3178DFF8DCA201EB41025AF82210BC
:1045700051F82410FBF701FF002101A8FBF7D1FE41
:10458000AEA17E23098801800222002101A8CDF876
:1045900000B003F0FBFA687CAB4EAC4F02281AD295
:1045A000022003F041FC002003F018FC687C01228B
:1045B000411901A8FBF7A9FE8DF80580687C3178C8
:1045C0003A7801EBC0004038C1B201A803F084FA88
:1045D000002003F029FC687C03281DD1022003F091
:1045E00023FC002003F0FAFB99F8000000EB4001E7
:1045F0005AF8210050F8241001A8FBF7BEFE697C90
:1046000030783A7800EBC1003038C1B201A803F02D
:1046100063FA002003F008FC7F48DFF81892007866
:1046200000EB400159F82100416801A8FBF7A5FE05
:10463000002101A8FBF775FE7FA1098801800021F8
:1046400001A8FBF76EFE0822691DFBF75EFE4446DB
:104650008DF81180002101A8FBF763FE77A17E236E
:10466000098801800422002101A8CDF800B003F0E0
:104670008DFA687C401F02281AD2022003F0D4FB76
:10468000002003F0ABFB687C0122411901A8FBF775
:104690003CFE8DF80540697C30783A7800EBC1002B
:1046A0007038C1B201A803F017FA002003F0BCFB78
:1046B000687C083802281AD2022003F0B5FB0020DB
:1046C00003F08CFB687C0122411901A8FBF71DFE59
:1046D0008DF80540687C31783A7801EBC00070387D
:1046E000C1B201A803F0F8F9002003F09DFB687C3B
:1046F0000B3802281AD2022003F096FB002003F0A8
:104700006DFB687C0122411901A8FBF7FEFD8DF8C5
:104710000540687C31783A7801EBC0007038C1B24E
:1047200001A803F0D9F9002003F07EFB30490122F3
:104730000E3101A8FBF7E9FD8DF8054001A8FBF754
:1047400025FEDFF8D480C4B298F8000000EB4001E9
:1047500059F82100816801A8FBF70FFE002101A88C
:10476000FBF7DFFD36A1FBF708FE002101A8FBF7F0
:10477000D8FD98F8001001EB41025AF8221051F8C8
:104780002410FBF7FAFD002101A8FBF7CAFD2BA1BD
:104790007E23098801800622002101A8CDF800B0FF
:1047A00003F0F4F9687C0D281DD9022003F03CFBCE
:1047B000002003F013FB98F8000000EB40015AF8CA
:1047C000210050F8241001A8FBF7D7FD687C317850
:1047D0003A7801EBC0008838C1B201A803F07CF937
:1047E000002003F021FB07B0BDE8F08FA8000020F7
:1047F000EE220020B300002030312D302D30303A31
:1048000030303A30302D300039392D312D39393AA8
:1048100039393A39392D3100AC000020C60000206A
:104820004CA601082530326400000000E4A4010811
:10483000B1000020CCA401085B0000005D00000076
:10484000205B0000ACA60108A2000020A30000200D
:1048500010B508F0C9F9BDE8104003214FF4DC7031
:1048600005F0C6BE10B508F0D5F9BDE8104003212B
:104870004FF4DC7005F0BCBE70B588B002224F4921
:104880006846FBF742FD00248DF802406846FBF7BE
:104890007DFD4B4D494E01226883F11C6846FBF7B4
:1048A00034FD8DF801406846FBF770FD8DF814006B
:1048B0000222711D6846FBF728FD8DF8024068460C
:1048C000FBF764FD8DF81500022206F10801684629
:1048D000FBF71BFD8DF802406846FBF757FD8DF88E
:1048E0001600022206F10B016846FBF70EFD8DF85B
:1048F00002406846FBF74AFD8DF81700012206F1D9
:104900000E016846FBF701FD8DF801406846FBF794
:104910003DFDC1B28DF81810688B14280BD89DF896
:104920001520172A07D89DF816203B2A03D89DF892
:1049300017203B2A0AD923482349007800EB40007E
:1049400051F82000006802F011FD2EE0C0B268713D
:104950001E4C00EB80002044059AC0F8A62B80F87E
:10496000AA1B00F6A631001B00F6A83080B2052273
:10497000FBF76CFE6879052200EB80000319181B19
:1049800000F6A83003F6A63180B2FBF72CFE68795A
:10499000052200EB8000011905A801F6A631FBF7FE
:1049A000DFFC48B1002002F0F7FC03214FF4DC707B
:1049B00005F01EFE08B070BD0120F4E7EE220020D5
:1049C000C6000020AC0000204CA6010824230020D3
:1049D00008F0A8B8704770477047000038B5224803
:1049E0000078012817D12148002421A10470224811
:1049F000FBF7C3FC204821A11130FBF7BEFC214886
:104A000021A20521B0F8A0331B4812380CF020FF7A
:104A100019481238447403F041F81D4C10200090DE
:104A200020781C4900EB40007E2351F820001A49F1
:104A30000122097850F82100002103F0A7F8102383
:104A40007E220421272008F01DF92078134900EB6D
:104A5000400051F82000124980680A78114909780D
:104A6000BDE8384003F038B8A8000020B3000020AB
:104A7000303030300000000000230020393939394F
:104A800000000000242300202530346400000000D2
:104A9000AC0000202CA50108B100002064A601088C
:104AA000A3000020A200002010B508F09DF8BDE88A
:104AB000104003214FF4B87005F09ABD10B508F00E
:104AC000A9F8BDE8104003214FF4B87005F090BD7F
:104AD0002DE9F0411948FBF759FC84B2B4F5006F99
:104AE0000AD917481749007800EB400051F8200018
:104AF000006802F03BFC19E0134D40F2A23605F5C8
:104B00006871A5F8A04302220F463046FBF79EFDD0
:104B1000022239463046FBF766FDB5F8A003A042F5
:104B200001D1012000E0002002F036FCBDE8F04198
:104B300003214FF4B87005F05BBD0000EE220020A9
:104B4000AC0000204CA601082423002007F0EABF97
:104B500008B502F0A3FF0F48104A114B007800EB94
:104B600040010D4800EB8100106002791A700D4A77
:104B700000687E231060102000900B48062250F839
:104B800021000021406803F001F8BDE80840FBF770
:104B900059BF0000AC0000203CA70108BC00002069
:104BA000B2000020B80000206CA70108FBF7BEBFD0
:104BB000FCF73CB810B507F0EBFF02F06FFF02F016
:104BC0006DFFBDE8104007F0ADBF07F0ABBF704709
:104BD00070477047F8B51848184C194D00780128EF
:104BE0000AD118481849007800F001002070002010
:104BF000087016492879087002F050FF144F1026EB
:104C000000963878134900EB40007E2351F82000CD
:104C100001220021806802F0B9FF009638782178DF
:104C200000EB40007E2355F82000042250F82100BC
:104C3000002102F0ABFFF8BDA8000020B100002069
:104C4000ACA6010824230020B3000020B2000020FD
:104C5000AC00002094A6010810B506F0C3F80321AB
:104C6000BDE81040402005F0C3BC10B506F0D0F8F8
:104C70000321BDE81040402005F0BABC70B5114DCD
:104C8000114C02222978208861F3000020802146FF
:104C90001046FBF7DBFC022221461046FBF7A3FC83
:104CA0002078297800F00100884201D1012000E03D
:104CB000002002F071FBBDE870400321402005F0A8
:104CC00097BC0000B10000202423002007F02ABF79
:104CD00070477047704700002DE9F04FDFF83893B8
:104CE000D04CDFF8388399F800102D27CC4D0026E2
:104CF00087B004F10A0B012933D1CB48CBA1067050
:104D000004F11200FBF739FBCCA104F12300FBF7FF
:104D100034FB6B78CDA2042120460CF099FDE7709E
:104D20006978CCA208EBC100032190F8AA33201DBA
:104D30000CF08EFDA7716978C6A208EBC1000321B3
:104D400090F8AB33E01D0CF083FD67726978C1A267
:104D500008EBC100032190F8AC3358460CF078FD05
:104D6000667499F80000DFF8F49203284FD1607C54
:104D700003284CD20322AB4901A8FBF7C6FA8DF8F1
:104D8000076001A8FBF702FB80B26882FA2812D9FB
:104D900099F80000B24900EB400051F8200000688B
:104DA00002F0E4FA6B78A9A204219E480CF050FDB1
:104DB000E77068786882697880B2884227D0C3B289
:104DC0006B70A2A2042197480CF042FDE77069784D
:104DD000A0A208EBC100032190F8AA33201D0CF01B
:104DE00037FDA77169789BA208EBC100032190F8F9
:104DF000AB33E01D0CF02CFD6772697895A208EBCF
:104E0000C100032190F8AC3358460CF021FD02F0AC
:104E100045FE94A101A8FBF7B0FA002101A8FBF719
:104E200080FA03227F49FBF770FA4FF01008002246
:104E30008DF80E607E23114601A8CDF8008002F0A7
:104E4000A5FE607C894D8A4F03281AD2022002F009
:104E5000EBFF002002F0C2FF607C0122011901A8D3
:104E6000FBF753FA8DF80560607C29783A7801EBFE
:104E7000C0001838C1B201A802F02EFE002002F0D6
:104E8000D3FF99F80000DFF8ECA100EB40015AF8DD
:104E90002100016801A8FBF770FA002101A8FBF7C7
:104EA00040FA0222211DFBF730FA8DF80B60002139
:104EB00001A8FBF736FA70A1FBF75FFA7E23022206
:104EC000002101A8CDF8008002F060FE607C001F88
:104ED00002281AD2022002F0A7FF002002F07EFF73
:104EE000607C0122011901A8FBF70FFA8DF805601B
:104EF000607C29783A7801EBC0004838C1B201A83B
:104F000002F0EAFD002002F08FFF99F8000000EBAC
:104F100040015AF82100416801A8FBF72EFA002150
:104F200001A8FBF7FEF90222E11DFBF7EEF98DF86F
:104F30000B60002101A8FBF7F4F94FA1FBF71DFA64
:104F40007E230422002101A8CDF8008002F01EFE7D
:104F5000607CC01F02281AD2022002F065FF0020E8
:104F600002F03CFF607C0122011901A8FBF7CDF99A
:104F70008DF80560607C29783A7801EBC0006038D4
:104F8000C1B201A802F0A8FD002002F04DFF99F87F
:104F9000000000EB40015AF82100816801A8FBF7EE
:104FA000ECF9002101A8FBF7BCF902225946FBF7F6
:104FB000ACF98DF80B60002101A8FBF7B2F92EA126
:104FC000FBF7DBF97E230622002101A8CDF8008043
:104FD00002F0DCFD607C0A3802281AD2022002F0BE
:104FE00023FF002002F0FAFE607C0122011901A8D3
:104FF000FBF78BF98DF80560607C29783A7801EB36
:10500000C0007838C1B201A802F066FD002002F0AD
:105010000BFF07B0BDE8F08FA8000020242300207C
:10502000C6000020EE220020B30000203030302DDA
:1050300030302D30302D3030000000003239392D25
:1050400033392D33392D33390000000025303364D6
:10505000000000002530326400000000AC00002099
:105060004CA60108C9E8B1B8BAC53A00A2000020B0
:10507000A3000020FCA401086670730010B507F0BF
:10508000B3FDBDE8104003214FF4B07005F0B0BA95
:1050900010B507F0BFFDBDE8104003214FF4B0701C
:1050A00005F0A6BA2DE9F84359A003220068009044
:1050B00058496846FBF729F900248DF803406846F3
:1050C000FBF764F9544D534E02226882311D684645
:1050D000FBF71BF98DF802406846FBF757F900F023
:1050E000FF080222F11D6846FBF70FF98DF8024018
:1050F0006846FBF74BF9C7B2022206F10A0168467F
:10510000FBF703F98DF802406846FBF73FF9C6B29A
:10511000688AFA2806D8B8F11E0F03D81E2F01D8C6
:105120001E2E0AD93D483E49007800EB400051F858
:105130002000006802F01AF963E0C0B2394C6870D0
:1051400004EBC00000F2AA3180F8AA8380F8AB73A8
:1051500080F8AC63001B00F56B7080B20122FBF796
:1051600075FA6878012204EBC003181B00F2AD3019
:1051700003F2AB3180B2FBF769FA6878012204EBE5
:10518000C003181B00F2AE3003F56B7180B2FBF761
:105190005DFA6878012204EBC003181B00F56B7000
:1051A00003F2AA3180B2FBF71EFA6878012204EB01
:1051B000C00000F2AB31001B00F2AD3080B2FBF753
:1051C00012FA6878012204EBC003181B00F2AE301B
:1051D00003F56B7180B2FBF706FA687804EBC00048
:1051E00090F8AA23424509D190F8AB13B94205D1F2
:1051F00090F8AC03B04201D1012000E0002002F0A1
:10520000CBF803214FF4B07005F0F2F9BDE8F88354
:105210002A2A2A00EE220020C6000020AC0000202E
:105220004CA601082423002007F07CBC08B502F03E
:1052300035FC0F48104A114B007800EB40010D4837
:1052400000EB8100106002791A700D4A00687E231D
:105250001060102000900B48062250F82100002119
:10526000406802F093FCBDE80840FBF7EBBB000090
:10527000AC00002024A70108BC000020B2000020E0
:10528000B80000206CA70108FBF750BCFBF7CEBCB0
:10529000394810B50078132865D2DFE800F00A0F0E
:1052A00014191E23282D32373C4144474C51576472
:1052B0005B0007F06DFC0121302050E007F068FC36
:1052C000012138204BE007F063FC0121582046E023
:1052D00007F05EFC0121602041E007F059FC01214C
:1052E00068203CE007F054FC0121702037E007F013
:1052F0004FFC0121782032E007F04AFC0121802098
:105300002DE007F045FC0121882028E007F040FC53
:105310000121982023E007F03BFC0121A0201EE0A2
:105320000221B0201BE00121B82018E007F030FC7A
:105330000121F02013E007F02BFC0121F8200EE002
:1053400007F026FC01214FF4A47008E001214FF47E
:10535000A87004E007F01CFC01214FF4E870BDE8E0
:10536000104005F045B906490448097800EB4100B2
:10537000002130F8020CF2E7B1000020C422002026
:10538000AD00002007F0CEBB7047704770470000AB
:1053900038B51C480078012817D11B4800241BA1F0
:1053A00004701B48FAF7E9FF19481AA11130FAF7FF
:1053B000E4FF194819A2042190F823301448123848
:1053C0000CF046FA12481238447402F067FB1020C1
:1053D0000090144814497E230078012200EB40001D
:1053E00051F820001149097850F82100002102F0FD
:1053F000CDFB01B01023BDE830407E2204213320D4
:1054000007F040BCA8000020B3000020303030007E
:10541000002300203939390024230020253033644B
:1054200000000000AC000020ECA50108B100002045
:1054300010B507F0D9FB0321BDE81040C02005F0EE
:10544000D7B810B507F0E6FB0321BDE81040C02037
:1054500005F0CEB870B51748FAF798FF84B2FF2C64
:105460000AD915481549007800EB400051F8200092
:10547000006801F07BFF16E0114D11490122233134
:1054800005F8234F0E462520FBF7E0F801223146B0
:105490002520FBF7A8F82878A04201D1012000E0E0
:1054A000002001F079FFBDE870400321C02005F025
:1054B0009FB80000EE220020AC0000204CA601089E
:1054C0002423002007F02EBB704770477047000070
:1054D0002DE9FE43314E334C20273178DFF8C08070
:1054E000002504F10809012920D12F482FA10570BA
:1054F00004F11200FAF741FF2FA104F12300FAF79B
:105500003CFF3020207060703120A070E7702D20AB
:10551000207160713E20A071E77198F8243029A2B3
:10552000022148460CF094F96572657430780328BE
:1055300021D1607C08281ED003221A4901A8FAF75D
:10554000E4FE8DF807501748FAF720FF86B2FA2ECE
:1055500007D9FA2633461DA2022112480CF078F929
:10556000E77008EB060017A290F8243002214846A5
:105570000CF06EF9657202F091FA102000907E2313
:105580000122002113A002F001FB10237E2204213E
:10559000132007F077FBBDE8FE830000A800002081
:1055A00024230020EE220020B300002030303020E1
:1055B0002D2D3E2030000000393939202D2D3E2080
:1055C00039000000253031640000000025303364CC
:1055D00000000000C5C5BAC52020C9E8B1B8CAFDA1
:1055E0000000000010B507F0FFFA0321BDE81040ED
:1055F000C82004F0FDBF10B507F00CFB0321BDE887
:105600001040C82004F0F4BF2DE9FC4103222249D8
:105610006846FAF77AFE00258DF803506846FAF7D7
:10562000B5FE1D49C4B2012208316846FAF76DFE85
:105630008DF801506846FAF7A9FEC5B2FA2C0AD9CE
:1056400016481749007800EB400051F82000006828
:1056500001F08CFE1AE0134801220444271A04F1D9
:105660002401263784F824500E46B8B2FAF7EEFF2C
:105670003146B8B20122FAF7B6FF94F82400A842E6
:1056800001D1012000E0002001F086FE0321C820A6
:1056900004F0AEFFBDE8FC81EE220020AC0000204B
:1056A0004CA601082423002007F03CBA704770473D
:1056B0007047000008B502F0F1F91548164A174B7B
:1056C000007800EB4001134800EB81001060027984
:1056D0001A70134A00687E23106010200090114851
:1056E000062250F821000021806802F04FFA0E488F
:1056F0000078022808D107F04BFA0C480C4990F8C2
:10570000220008700B490870BDE80840FBF79AB901
:10571000AC0000208CA50108BC000020B2000020D5
:10572000B80000206CA70108A80000202423002056
:10573000B1000020B3000020FBF7F8B9FBF776BA00
:1057400070B507F025FA02F0A9F90E480E4D0E4982
:105750000478223105F8224F01220E462420FAF760
:1057600075FF012231462420FAF73DFF2878A04238
:1057700001D1012000E0002001F00EFEBDE87040E4
:1057800007F0D0B9B10000202423002007F0CAB9E7
:10579000704770477047000008B502F07FF9154860
:1057A000164A174B007800EB4001134800EB8100CC
:1057B000106002791A70134A00687E23106010206E
:1057C00000901148062250F821000021406802F0A4
:1057D000DDF90E480078022808D107F0D9F90C4805
:1057E0000C4990F8220008700B490870BDE8084089
:1057F000FBF728B9AC000020A4A50108BC000020DC
:10580000B2000020B80000206CA70108A80000200A
:1058100024230020B1000020B3000020FBF786B94C
:10582000FBF704BA0E4810B5007850B101280ED02D
:105830000D490C48097800EB4100002130F8020CBA
:105840000AE007F0A5F901214FF49C7004E007F08D
:105850009FF901214FF4A070BDE8104004F0C8BECC
:10586000B1000020C4220020AD00002007F05AB98A
:10587000704770477047000038B51C480078012811
:1058800017D11B4800241BA104701B48FAF775FDB3
:1058900019481AA11130FAF770FD194819A204210C
:1058A00090F82433144812380BF0D2FF1248123803
:1058B000447402F0F3F810200090144814497E2339
:1058C0000078012200EB400051F8200011490978CE
:1058D00050F82100002102F059F901B01023BDE871
:1058E00030407E220421332007F0CCB9A8000020EC
:1058F000B300002030303000002300203939390057
:10590000242300202530336400000000AC00002078
:10591000ECA50108B100002010B507F065F9BDE85D
:10592000104003214FF4887004F062BE10B507F0F8
:1059300071F9BDE8104003214FF4887004F058BE9F
:105940002DE9F0411848FAF721FD84B27D2C0AD9DF
:1059500016481749007800EB400051F82000006815
:1059600001F004FD19E0134D40F2263605F54971AA
:1059700085F8244301220F463046FAF767FE0122DC
:1059800039463046FAF72FFE95F82403A04201D19C
:10599000012000E0002001F0FFFCBDE8F041032100
:1059A0004FF4887004F024BEEE220020AC000020EA
:1059B0004CA601082423002007F0B4B870477047B4
:1059C0007047000038B51A480078012813D11948EB
:1059D000002419A104701948FAF7CFFC174818A140
:1059E0001130FAF7CAFC154813A11238FAF7C5FCB2
:1059F00012481238447402F051F8102000901148F7
:105A000011497E230078012200EB400051F820006C
:105A10000E49097850F82100002102F0B7F801B0D2
:105A20001023BDE830407E220421332007F02AB93C
:105A3000A8000020B30000203030300000230020F8
:105A400039393900AC00002024A70108B10000203A
:105A500010B507F0C9F80321BDE81040302004F06C
:105A6000C7BD10B507F0D6F80321BDE810403020BF
:105A700004F0BEBD2DE9FC412248FAF787FC84B250
:105A8000FA2C0AD920482149007800EB400051F84F
:105A90002000006801F06AFC2BE01D4D4FF48047A8
:105AA00001AB00223946286805F0DAFC194E0120C6
:105AB000E2B23070FD217F2009F030F9002434700B
:105AC00001A800904FF47A7382223946286805F0C5
:105AD0000DFC9DF804000A2811D0012001F05CFCA7
