:020000040800F2
:10000000982E0120990100088DC4000845B400080D
:10001000BFBF00080D100008BD210108000000004E
:100020000000000000000000000000007BEC000861
:100030008517000800000000FF0100087DEE0008A1
:10004000B3010008B3010008B3010008B3010008C0
:10005000B3010008B3010008B3010008B3010008B0
:10006000B3010008B3010008B3010008B3010008A0
:10007000B3010008B3010008B3010008B301000890
:10008000B3010008B3010008B3010008B301000880
:1000900011100008B3010008B3010008B301000803
:1000A000B3010008B3010008B3010008B301000860
:1000B000CDEF0008B301000875F00008B301000897
:1000C000B3010008B3010008B3010008B301000840
:1000D000B301000805FF000855FF0008B301000840
:1000E000B3010008B3010008B3010008B301000820
:1000F000B3010008B3010008B3010008B301000810
:10010000B3010008B3010008B3010008B3010008FF
:10011000EDF90008B3010008B301000861F100081F
:10012000B3010008B3010008B3010008B3010008DF
:10013000B30100080000000000000000B301000847
:100140006D100008B3010008B3010008D3DA0008FD
:10015000B3010008B3010008B3010008B3010008AF
:10016000B3010008B3010008B3010008B30100089F
:10017000B3010008D5DA000800000000000000000C
:10018000B3010008DFF80CD000F0ECFA004800479B
:1001900051620108982E0120064880470648004712
:1001A000FEE7FEE7FEE7FEE7FEE7FEE7FEE7FEE727
:1001B000FEE7FEE741EF000885010008EFF310803D
:1001C00072B6704780F3108870471D484FF0FF01EA
:1001D0000170002080F309881A48012101701A4833
:1001E0004FF08051016062B6FEE717484FF0805132
:1001F0000160704714484FF080510160704772B63B
:10020000EFF3098028B1203880E8F00F0F49096822
:10021000086000B50E4880475DF804EB0D480E49B4
:100220000A78027009480D490A680260106890E86F
:10023000F00F203080F309884EF0040E62B670474C
:1002400022ED00E00701002004ED00E02001002085
:1002500005D100080401002005010020280100202C
:100260002DE9F05F0546002092469B4688460646EB
:10027000814640241BE0284641464746224600F07E
:10028000CBF953465A46C01A914110D3114618462D
:10029000224600F0B2F92D1A67EB01084F462246BC
:1002A0000120002100F0A9F917EB00094E41201EA2
:1002B000A4F10104DFDC484631462A464346BDE846
:1002C000F09F40EA01039B0703D009E008C9121F11
:1002D00008C0042AFAD203E011F8013B00F8013B00
:1002E000521EF9D27047D2B201E000F8012B491E2C
:1002F000FBD270470022F6E710B513460A460446C3
:100300001946FFF7F0FF204610BD10B5044604E083
:100310000B7800F8013B03B1491C521EF8D220466D
:1003200010BDCAB2401E10F8011F8A4202D0002937
:10033000F9D100207047421C10F8011B0029FBD1A5
:10034000801A704710B5002200E0521C835C8C5C60
:10035000A34201D1002BF8D1D8B2E1B2401A10BDAE
:1003600030B504460020034600E05B1C934203D2F4
:10037000E05CCD5C401BF8D030BD034611F8012B8A
:1003800000F8012B002AF9D11846704770B50646CF
:1003900012F064F8046805460A220021304600F095
:1003A0004BF92C6070BD70B5064612F057F8046822
:1003B00005460A220021304600F03EF92C6070BD4F
:1003C0002DE9FE4F81EA030404F0004421F00041CE
:1003D00000944FF0000B23F0004350EA01045ED07C
:1003E00052EA03045BD0C3F30A54C1F30A552C4408
:1003F000A4F2F3340194A0FB0254C1F3130141F4BD
:100400008011C3F3130343F4801301FB024400FB88
:10041000034E840A970A44EA815447EA8357A4FBAF
:10042000076802958D0A05FB07854FEA932C04FBAC
:100430000C542705029D4FEA065847EA1637B5EBDC
:1004400008056EEB070C870E920E47EA811742EA09
:100450008312A7FB0201B6EB0B0164EB00042B0D2A
:1004600043EA0C335E1844EB1C50DA465146E7FB76
:100470000201C5F313044FEA0B3343EA14534FEA66
:100480000432019C43EA0603A4F10C040294009C8C
:10049000CDE900B400F017F903B0BDE8F08F0020FB
:1004A0000146F9E72DE9F04D81EA030404F0004B21
:1004B00021F0004514464FF0000A23F0004150EAB5
:1004C000050220D054EA01021DD0C5F30A570246A6
:1004D000C5F31303C1F31300C1F30A5640F48015AA
:1004E00043F48013A7EB0608101BD64608F2FD382C
:1004F00073EB050002D308F1010801E092185B419B
:10050000B8F1000F03DA00200146BDE8F08D0020AD
:100510004FF48011064684460EE0171B73EB050767
:1005200005D3121B63EB050306434CEA010C490893
:100530004FEA300092185B4150EA0107EDD152EAD0
:10054000030012D082EA040083EA0501084305D0C3
:10055000101BAB4106D20122002306E000224FF01F
:10056000004302E06FF0010253101AEB06004CEB5F
:10057000085110EB0A0041EB0B01BDE8F04D00F013
:1005800093B80EB540F2334102910021CDE900113C
:100590000A460B4600F097F803B000BDC1F30A52BB
:1005A00010B5C1F3130140F2FF3341F480119A42B8
:1005B00001DA002010BD40F233439A42A2F23342E6
:1005C00003DC524200F028F810BD904010BD30B559
:1005D0000B46014600202022012409E021FA02F501
:1005E0009D4205D303FA02F5491B04FA02F528449B
:1005F000151EA2F10102F1DC30BD202A04DB203AF5
:1006000000FA02F1002070479140C2F1200320FA65
:1006100003F3194390407047202A04DB203A21FA63
:1006200002F00021704721FA02F3D040C2F120020B
:1006300091400843194670472DE9F04791460F460F
:1006400080460446002614F8015B2DB100F09CF8AA
:100650000068405DC007F6D12B2D02D02D2D18D09B
:10066000641E4A463946204600F092F827B13968A0
:10067000A14201D1C7F8008071054FF002040BD5EB
:100680004042002803DD11F0E9FE0460A007BDE848
:10069000F08746F48066E4E70028F8DA11F0DEFE21
:1006A00004606FF00040F2E710B5141E73F100040F
:1006B00008DA401C41F1000192185B411A4301D154
:1006C00020F0010010BD2DE9F04D92469B4611B17E
:1006D000B1FA81F202E0B0FA80F220329046FFF7E0
:1006E0008CFF04460F4640EA0A0041EA0B015346DC
:1006F0005A46084313D0114653EA010019D0C8F1F5
:1007000040025046FFF788FF05460E4650465946C0
:100710004246FFF772FF084305D0012004E020465F
:100720003946BDE8F08D0020054346EAE0762C43CB
:1007300037430A986305E40AA0EB08000022FD0A8B
:1007400044EA47540A3002D500200146E9E7010592
:1007500010196941DDE9084500196941BDE8F04D0E
:10076000A2E70000064C074D06E0E06840F00103F8
:1007700094E8070098471034AC42F6D3FFF706FD23
:10078000D0170208F017020800487047CCF00108A3
:100790002DE9F05F82460078002715468B460AF166
:1007A0000104B946302801D09DB113E014F8010BC3
:1007B0000127782803D0582801D045B10AE00DB1AF
:1007C000102D07D10027102514F8010B02E0082591
:1007D00000E00A250026B0460EE005FB080005FBF8
:1007E00006F1012701EB10461FFA80F8B6F5803FAD
:1007F00000D3B94614F8010B294600F018F8002878
:10080000EBDABBF1000F05D00FB1641E00E05446D7
:10081000CBF80040B9F1000F06D011F01FFE022105
:100820000160C81EBDE8F09F48EA0640FAE73A2892
:1008300000D2303820F02002412A01D3A2F1370043
:10084000884201D34FF0FF30704770B58C1810F814
:10085000015B15F0070301D110F8013B2A1106D105
:1008600010F8012B03E010F8016B01F8016B5B1E1F
:10087000F9D12B0705D40023521E0DD401F8013BFA
:10088000FAE710F8013BCB1A921C03E013F8015B66
:1008900001F8015B521EF9D5A142D8D3002070BDEA
:1008A00010B50AF0F3FDBDE8104008F094B870B53B
:1008B00015460E46044608E02046641CA4B200F02B
:1008C00007F86D1E06F8010BADB2002DF4D170BD16
:1008D00010B504460AF080FEA0200AF04DFE0AF092
:1008E000BFFE200A0AF048FE0AF0BAFEE0B20AF0A3
:1008F00043FE0AF0B5FE0AF06FFEA1200AF03CFEAE
:100900000AF0AEFE00200AF007FE04460AF086FE5A
:10091000204610BD70B514460D46064606E02978FF
:10092000304600F007F8761CB6B26D1C641EA4B207
:10093000F5D270BD70B50D4604460AF04DFEA020FC
:100940000AF01AFE0AF08CFE200A0AF015FE0AF0E0
:1009500087FEE0B20AF010FE0AF082FE28460AF096
:100960000BFE0AF07DFE0AF059FEBDE870400A2039
:1009700012F0B8BE70477047014809F0CAB90000CC
:100980006819002070477047704700007CB5214807
:10099000214C4FF48075C1684FF47A7048430A22A5
:1009A000B0FBF2F00190206899B1A1F5C3329F3AF3
:1009B00009D069460BF0F5FE184B1949C6074FF0F0
:1009C00000020BD108E06B46002229460BF08EFE98
:1009D0007CBD6B460122F8E7C00304D50A601A709B
:1009E0006B46002213E00868019EB04203D200F17A
:1009F000010008607CBDFDD100F1010008604FF0EE
:100A0000010018709A7015F0D7FB6B460122294639
:100A10002068DBE7F423002078010020600000203C
:100A20009C0000203EB525490A20254C4A8BB2FB8C
:100A3000F0F2019289684FF47A724A43B2FBF0F007
:100A40000290E06981B1A1F5C3329F3A06D06946B0
:100A50000BF0A7FE1B49C2070BD108E06B46002232
:100A600004210BF043FE3EBD6B460122F8E7C203B2
:100A700004D500206B46024608601CE04007F2D413
:100A80000868401C0860019A4FF48051904202D1DE
:100A90006B46012210E0029A9042E4D96B46002294
:100AA000E0690BF023FE6946E0690BF07AFE400234
:100AB000D9D46B4601220421E069D2E7F423002057
:100AC0005C0100209800002010B509F031F90EF00B
:100AD000E5F900F06FFE4FF47A7012F003FEFFF7B5
:100AE000DFFE0BF04BF90EF04FFA0DF059FB0BF057
:100AF00055F90BF08FF90BF067F917F0E7FA0AF0E8
:100B000007FE0FF09BF911F0E1FB0EF021FF00F062
:100B100049FBBDE810400DF09DBB00002DE9FF4FE3
:100B20002D20B0FBF1F081B0491E01989B4600EBEF
:100B3000800202EB401090FBF1F00004000CC6B202
:100B400000D1032603980025012100F1010900F1DD
:100B5000020801EBD604B5EBD60F11D0AC420FD092
:100B60002A460020039907F0E9FE09F0FF012A4612
:100B7000FF2007F0E3FE08F0FF012A46002033E0E3
:100B8000F008DFF84CA106F0070700901AF80700FC
:100B9000009A039907F0D2FE1AF8070009F0FF0146
:100BA000C0F1FF00009A07F0C9FE08F0FF011AF833
:100BB0000700009A07F0C2FE062C17D20AF1090AB4
:100BC00022461AF80700039907F0B8FE1AF8070042
:100BD000224609F0FF01C0F1FF0007F0AFFE2246F8
:100BE00008F0FF011AF8070007F0A8FE6D1CEDB22F
:100BF000062DB0D3012008F029F901980025401CEA
:100C0000C6B26420B6FBF0F4ABF10C00C1B23CB14B
:100C100004F13000C0B2072207F086FF012503E08F
:100C20000722202007F080FF2720444306EB8400A2
:100C3000C4B20A26B4FBF6F2ABF1060002B925B144
:100C4000C1B23032D0B2072202E0C1B20722202066
:100C500007F06AFFB4FBF6F006FB10403030C0B27C
:100C60000722594607F060FF1A4F3878012828D923
:100C7000002422E01849001B0844624210F8010CCD
:100C80000BEBC205401CC0B2B0FBF6F106FB110035
:100C9000A5F108013030C9B2C0B2072207F044FF05
:100CA000681EC1B20722102007F048FEE9B20722F1
:100CB000102007F043FE641CE4B23878411E8C42D9
:100CC000D8DB05B00020BDE8F04F08F0BFB8000049
:100CD00051B50108B40000207A230020F8B50024A3
:100CE00015460E460746012B04D07823009407F0E2
:100CF00085FFF8BD012008F0CFF878232A46314659
:100D00003846009407F07AFFBDE8F840002008F06C
:100D1000C3B800002DE9F047DFF8C8A0DFF8C880AD
:100D20009AF80000032803D9032288F8002001E084
:100D300088F800002D4900242D4F09782D4E0129F7
:100D400002D0022905D010E00DF09CF83C70347000
:100D50000FE098F800103278491E8A4200DD3470A6
:100D60003A78411E8A4200DD3C70397832789142EF
:100D700002D33878317800E0511A401AC4B2002505
:100D8000DFF8749020E03878844208D13178490641
:100D90000A0ED9F80010012351F8200006E0680679
:100DA000020ED9F80000002350F824000021FFF7BC
:100DB00095FF9AF80000401E844201D1002401E012
:100DC000641CE4B26D1CEDB298F800008542DAD3E1
:100DD0009AF800103878BDE8F04778237D22FFF7B5
:100DE0009DBE0000B8000020BA000020AE00002028
:100DF000B7000020B9000020BC0000202DE9F0471A
:100E0000DFF8E480374E98F800403178601EC2B2B7
:100E100071B1481E3070354F354D3B7828684BB165
:100E20005A06120E5B1E3B7050F82100002337E07B
:100E30003270F0E7032C2ED934784FF0000A524676
:100E4000A94650F8240001235146FFF747FF98F8C0
:100E50000000401E844201D1002401E0641CE4B281
:100E600001256806020ED9F800000023194650F843
:100E70002400FFF733FF98F80000401E844201D1A0
:100E8000002401E0641CE4B26D1CEDB2032DE8D334
:100E900087F800A012E03A7050F8210000231A46AB
:100EA0000021FFF71BFF387831784006020E2868D2
:100EB000012350F821000021FFF710FF78237D2245
:100EC00098F800103078FFF729FE0B490948097897
:100ED00000EB4100002130F8020CBDE8F0470AF0B9
:100EE0000FBC0000B7000020B8000020B9000020AF
:100EF000BC00002064230020B30000202DE9F0474F
:100F0000DFF8F0803A4E002498F800203178501E27
:100F1000814201D1347001E0481C30703748364FAF
:100F2000374D90F800C03B78ACF1010C2868634560
:100F300004D05A06120E5B1C3B7034E06FF00103C4
:100F4000032A2CD9347899460422AA4650F8240062
:100F500001230021FFF7C2FEBCB1641EE4B20225EA
:100F600009EB4500C2B2DAF800000023194650F838
:100F70002400FFF7B3FE6CB1641EE4B26D1E15F0E1
:100F8000FF05EDD1022038701EE098F80000401EE9
:100F9000C4B2E4E798F80000401EC4B2EEE703EBE9
:100FA00042023C70D2B250F8210000231946FFF7EC
:100FB00095FE387831784006020E2868012350F8F3
:100FC00021000021FFF78AFE78237D2298F8001087
:100FD0003078FFF7A3FD0C490A48097800EB41007F
:100FE000002130F8020CBDE8F0470AF089BB000090
:100FF000B7000020B8000020B9000020BA0000208F
:10100000BC00002064230020B3000020FEE70000A5
:1010100070B5134D00240A222146284608F0A2F993
:10102000696BA5F10C000A8802800A7B8270097C3A
:10103000C17006E06A6B04F11401515C0219641C72
:101040001171C178A142F5D8074C064920680DF00E
:10105000F1FE2068BDE8704001490C3911F0DEBF97
:101060006CCC0020006400409401002070B5134D4A
:1010700000240A222146284608F074F9696BA5F17C
:1010800050000A8802800A7B8270097CC17006E0E9
:101090006A6B04F11401515C0219641C1171C1786E
:1010A000A142F5D8074C064920680DF0C3FE206820
:1010B000BDE870400149503911F0B0BFB0CC0020FC
:1010C00000680040940100200D49C0F8AC100D49A3
:1010D00040F8801F0C4941600C4981600C49C16097
:1010E0000C49C0F84C110C49C0F850110B49C0F81C
:1010F000B8110B49C0F854110A49C0F8581170478B
:101100004DBE00084FBE0008BBBF000839BF000835
:10111000BDBF0008B9BF0008B5BF0008B7BF0008D1
:1011200089BF000891BF000870B5094DFF231A461A
:1011300005F5807605E010F8014B54402A5D5A40D1
:10114000335D491E89B2F6D242EA032070BD000029
:101150004AEE010810B5012901D0022902D10C3153
:10116000C9B2401E4B1C03EB43030524B3FBF4F34D
:1011700002EB41011944C217014400EB927201EBEA
:10118000A201642290FBF2F2891A4FF4C87290FB1C
:10119000F2F00844072190FBF1F201FB1200401C21
:1011A000C0B210BD70B514F0C5FE1A4C184D2068C1
:1011B000C0F8E051FFF788FF0021206817F0F0FA2F
:1011C0007F21206817F044FA0521206817F0E8FA1B
:1011D0001021284611F060FF10210F4811F05CFF2C
:1011E00000204FF48031401C8842FCD30020401C7A
:1011F0008842FCD30020401C8842FCD30020401CC5
:101200008842FCD30020401C8842FCD370BD000003
:10121000006400409401002000680040C821484359
:101220000249B0FBF1F002494880704740420F008C
:101230007C0000202DE9F047012714F03FFF20F04B
:10124000C0004FF000093F2802D0314AA2F80090B8
:10125000304C314D314E0B3807283ED2DFE800F0DC
:101260000B211A04282F3600208800EB800005EBA4
:101270008000408805E0208800EB800005EB8000BE
:101280008088208000EB800005EB800000693060E2
:10129000804723E0208800EB800005EB8000C088B9
:1012A000EFE7208800EB800005EB80000089E8E78D
:1012B000208800EB800005EB80008089E1E7208832
:1012C00000EB800005EB80004089DAE7208800EB26
:1012D000800005EB8000C089D3E70027DFF840805D
:1012E00098F8000068B1208800EB800005EB8000D2
:1012F00000693060804798F80010042904D088F80D
:1013000000903846BDE8F087012188F80010F8E722
:10131000C8000020B00000203CBF0108C40000202D
:10132000AE0000202DE9F04F8FB0044607F0EEFB31
:1013300094A104A8FFF721F81026802301220021A0
:1013400004A8009607F05AFC234691A2042104A8A1
:1013500011F05CF890A10DF11300FFF70EF8802357
:101360000422002104A8009607F048FC0022642310
:10137000114610460BF0FCFEDFF82482894F34B191
:1013800098F89703A04202D3254687490BE098F8C6
:101390009703A0420AD298F898130144A14205D3BA
:1013A000201A8249C5B238680DF044FD05F5C060C9
:1013B0000E9080380B908DF830500122FB21204692
:1013C0000EF032FA042000260DF1280A0A90CDE929
:1013D00000A6DFF8D0914FF4945B02960EAB012289
:1013E0005946D9F8000011F049FBCDE900A6029654
:1013F0000BAB02225946D9F8000011F03FFB012047
:101400000A90CDE900A602960CAB03225946D9F802
:10141000000011F033FB08EBC407C246B7F8A8037D
:101420000990062002210DF12408CDE90010CDE934
:101430000286002346F206022946D9F8000017F07A
:1014400011FC002873D1284600F0F2F800286FD074
:101450009AF89E03B34601260DF1040C052100966F
:101460000990D1468CE80209DFF838A1334646F2EC
:1014700006022946DAF8000017F0F4FB00287ED1B6
:10148000284600F0D5F8002876D099F89F03D94671
:101490004FF0050B0123CDE9003B0990CDE902890E
:1014A000022346F2060229465646DAF8000017F0F3
:1014B000D9FBE0BB284600F0BBF800285CD0D7F889
:1014C000AA03CA4620F07F400723042209908DE832
:1014D0000C05032346F206022946B146306817F090
:1014E000C1FB20BB284600F0A3F8002844D0B7F881
:1014F000A6035646CDE902864FF0010A0990CDE9D0
:1015000000AB042346F206022946D9F8000017F082
:10151000A9FB60B9284600F08BF800282CD097F87A
:10152000AD03052346F206022946099001E026E0B4
:1015300022E0CDE90286CDE900ABD9F8000017F032
:1015400091FBE0B9284600F073F8002814D002227D
:10155000FB2120460EF068F90DA8009014484FF4C6
:101560007A7382224FF0007100680BF005F89DF845
:1015700034000A2803D001200FB0BDE8F08F00200E
:10158000FAE70000D5FDD4DAC5E4D6C300000000B8
:101590002530336400000000BAC5C9E8B1B80000C6
:1015A000F423002094010020006400400068004003
:1015B0007801002010B586B004460CF063FC07F0FB
:1015C000A5FA234613A2042101A810F01FFF13A1BE
:1015D0000DF10700FEF7D1FE102480230122002127
:1015E00001A8009407F00AFB0EA101A8FEF7C5FEB2
:1015F00080230422002101A8009407F0FFFA0023B1
:101600000122194618460BF0B3FD0CF005FC06B09C
:1016100010BD00002530336400000000BAC5C9E8E1
:10162000B1B80000C5E4D6C3B3C9B9A62100000013
:10163000F8B50B4D0646642400220A2311461046D5
:101640000BF096FD6A463146286814F06FF90128C0
:1016500004D0641E2404240CEED10020F8BD000048
:101660009401002030B40A46D0F89C10D0F8A04075
:101670004FF0FF3351F8221024F81230C1F3074124
:101680000122431883F8B020D0F8AC2030BC1047BA
:101690002DE9F04F9946DDE9094C4FF0FF3BDDF8AD
:1016A0002CA048E0ACEB02035BB20D78002B02DD0E
:1016B00005FA03F503E0C3F1000325FA03F5EEB2E2
:1016C00002DDCCF1080301E0C2F10803DBB2834282
:1016D00000D903460CEB03074FF0FF0808FA07F5A3
:1016E000CCF1080C28FA0CF845EA080594F800C07B
:1016F000AE430CEA050C1A444CEA060CD2B284F84C
:1017000000C0072A07D90022B9F1000F01D05D46B9
:1017100000E00125294407F0FF0CBCF1070F08D9B0
:101720004FF0000CBAF1000F01D05D4600E001253A
:101730002C44C01AC0B20028B4D1BDE8F08F10B557
:1017400000210A4600EB8103491CC3F87C230F29C2
:10175000F8D300214FF400734418491C84F81C216D
:101760009942F9D30270427001218170C0F8B82308
:10177000017640238371427680F81C2380F81D1384
:10178000002010BD70470000411C0DD0084AB2F97E
:101790000010884201D1491E1180054A002100EB4A
:1017A0004000083202F830104FF0FF307047000060
:1017B0009801002038B5264900200A6842F001024D
:1017C0000A600968234C01F0010100914FF080414B
:1017D000E060C4E90010204D482129702061A0601C
:1017E000204609F097F92068016841F00401016082
:1017F0002068016A41F21112114207D1016A921068
:10180000114203D1016821F001010160062008F0B6
:1018100003FB022200211C2008F0DEFA1C2008F045
:10182000CDFA0E480E490068B0FBF1F14FF47A7022
:101830004143012068804FF0E020026942F002023B
:1018400002614161016941F00101016138BD00009F
:101850004038024024230020A20000202000002065
:1018600040420F0010B50022114607A007F06CF9A6
:101870000222002107A007F067F90422BDE810400A
:10188000002107A007F060B94275696C64205469B3
:101890006D653A00536570202032203230323000BE
:1018A00032333A32333A3135000000000CF0B4BA2A
:1018B0002DE9F843234D2449DFF890802878244F00
:1018C00000EB400001EB8002137988F8003051F8FA
:1018D0002000386007F01AF91E481F4C00780128D4
:1018E00005D10CF0CFFA1D49002020700870102699
:1018F00000962178386800227E2350F82100114696
:1019000007F07CF916482178022250F82100302196
:1019100007F03EFA00962878124900EB40007E233B
:1019200051F8200006220021406807F067F998F876
:101930000010207801B07823BDE8F0437D22FFF746
:10194000EDB80000B200002090BE0108B8000020F1
:10195000BC000020AE000020B7000020B90000202D
:1019600020BF010808BF010838B5164C164D207875
:1019700000B928780022401E2070102000901348E3
:1019800021787E23006850F82100114607F036F9CF
:101990000F482178022250F82100302107F0F8F991
:1019A00078237D2229782078FFF7B8F80A4909487A
:1019B000097800EB4100002130F8020CBDE8384006
:1019C00009F09EBEB7000020B8000020BC00002037
:1019D00020BF010864230020B300002038B5194D52
:1019E000174C29782078491E884201D1002000E058
:1019F000401C2070102000901348217800220068BD
:101A00007E2350F82100114607F0F8F80F4821789E
:101A1000022250F82100302107F0BAF978237D2204
:101A200029782078FFF77AF80A490948097800EB05
:101A30004100002130F8020CBDE8384009F060BEDA
:101A4000B7000020B8000020BC00002020BF010823
:101A500064230020B3000020154810B50178164813
:101A6000144A0629007802EB40001DD2DFE801F09D
:101A700003080D10151507F049F8012110200FE09B
:101A800007F044F8012118200AE00121D02007E0E6
:101A900007F03CF80221202002E030F8020C00217F
:101AA000BDE8104009F02CBE00210846F8E7000010
:101AB000B700002064230020B30000200CF0ACB974
:101AC000704770477047000008B507F01FF81020F6
:101AD0000090074807497E230078032200EB40006E
:101AE00051F820000021006807F088F808BD0000C8
:101AF000B200002078BE0108704770470CF08CB926
:101B00000CF08AB9704770477047000008B506F0BE
:101B1000FDFF1448154A164B007800EB40011248AF
:101B200000EB8100106002791A70124A00687E236F
:101B30001060102000901048062250F8210000216B
:101B4000406807F05BF80D480078022806D10CF0D9
:101B500099F90B49002008700A490870BDE808404F
:101B6000FFF7D8B8B200002010BD0108C000002067
:101B7000B8000020BC00002008BF0108AE00002013
:101B8000B7000020B9000020FFF738B9FFF7B6B959
:101B90000B48007850B101280CD00B49094809784E
:101BA00000EB4100002130F8020C06E002214FF466
:101BB000947002E002214FF4987009F0A1BD00007A
:101BC000B700002064230020B30000200CF024B9EB
:101BD000704770477047000038B51D4800780128ED
:101BE00018D11C4800241CA104701C48FEF7C5FB3A
:101BF0001A481BA12130FEF7C0FB1A481AA2042183
:101C000090F897331548223810F000FC134822381A
:101C100080F8214006F07AFF102000901448154902
:101C20007E230078012200EB400051F82000124989
:101C3000097850F82100002106F0E0FF01B01023E0
:101C4000BDE830407E22042133200CF09DB9000015
:101C5000AE000020B900002030303000B02300205A
:101C600039393900F42300202530336400000000A6
:101C7000B2000020C0BE0108B700002010B50CF073
:101C80002DF90321BDE81040F02009F039BD10B551
:101C90000CF03CF90321BDE81040F02009F030BD04
:101CA0002DE9F0411848FEF771FB84B27D2C0AD96A
:101CB00016481749007800EB400051F820000068F2
:101CC00006F08CFB19E0134D40F2993605F297317E
:101CD00085F8974301220F463046FEF71BFE01228E
:101CE00039463046FEF7E3FD95F89703A04201D14F
:101CF000012000E0002006F087FBBDE8F041032151
:101D0000F02009F0FDBC00008E230020B20000206E
:101D1000E8BD0108F42300200CF07EB8704770473E
:101D20007047000038B51D480078012818D11C48BC
:101D300000241CA104701C48FEF71FFB1A481BA1BD
:101D40002130FEF71AFB1A481AA2042190F89833A2
:101D50001548223810F05AFB1348223880F82140E9
:101D600006F0D4FE10200090144815497E23007818
:101D7000012200EB400051F820001249097850F888
:101D80002100002106F03AFF01B01023BDE83040E9
:101D90007E22042133200CF0F7B80000AE000020B2
:101DA000B900002030303000B0230020393939002C
:101DB000F42300202530336400000000B20000202E
:101DC000C0BE0108B700002010B50CF087F8032151
:101DD000BDE81040F82009F093BC10B50CF096F85F
:101DE0000321BDE81040F82009F08ABC2DE9F0413C
:101DF0001848FEF7CBFA84B27D2C0AD91648174949
:101E0000007800EB400051F82000006806F0E6FA88
:101E100019E0134D40F29A3605F5667185F898433E
:101E200001220F463046FEF775FD01223946304645
:101E3000FEF73DFD95F89803A04201D1012000E096
:101E4000002006F0E1FABDE8F0410321F82009F096
:101E500057BC00008E230020B2000020E8BD01081E
:101E6000F42300200BF0D8BF704770477047000084
:101E70002DE9FE43424F0024424E3878424D4FF048
:101E80002008012827D1414841A1047005F1220012
:101E9000FEF773FA41A105F14300FEF76EFA85F8EB
:101EA0002A40472085F84B000120F082302028701E
:101EB00068703120A87085F803802D21297169711F
:101EC0003E213948A97185F8078090F825022872CB
:101ED0006C7285F82140387803282CD195F82100C0
:101EE000082828D00322284901A8FEF70EFA8DF809
:101EF00007402548FEF74AFA84B2FA2C12D92B483B
:101F00002B49007800EB400051F82000006806F0F3
:101F100065FAF48A27A2234604211B4810F076FABA
:101F200085F80380F08AA04205D01F48F48220443F
:101F300090F82402287206F0E9FD102000907E231C
:101F4000012200211DA006F059FE10237E2204214B
:101F50001B200CF019F895F82100082802D1022066
:101F600006F09AFF287A1949042251F820005B21D3
:101F700006F0EAFD002006F08FFFBDE8FE830000BA
:101F8000AE000020CA0000208E230020B9000020EF
:101F9000303030202D2D3E203000000032393920E5
:101FA0002D2D3E2078000000F4230020B2000020F8
:101FB000E8BD01082530336400000000C9E8B1B86D
:101FC000BAC52020C6B4D2F40000000094E901088C
:101FD00010B50BF083FFBDE8104003214FF4A07053
:101FE00009F08EBB10B50BF091FFBDE81040032146
:101FF0004FF4A07009F084BB2DE9FC4103221F4976
:102000006846FEF782F900208DF803001B48FEF7B2
:10201000BDF980B2FA280AD919481A49007800EBAC
:10202000400051F82000006806F0D8F91EE0164A7A
:10203000124D1418A71A297A84F8241204F509718C
:1020400007F226270E46B8B20122FEF763FC31469E
:10205000B8B20122FEF72BFC287A94F824128842A9
:1020600001D1012000E0002006F0CEF903214FF459
:10207000A07009F045FBBDE8FC8100008E23002024
:10208000B2000020E8BD0108F42300200BF0C4BE1C
:10209000704770477047000008B506F037FD1548D7
:1020A000164A174B007800EB4001134800EB810003
:1020B000106002791A70134A00687E2310601020A5
:1020C00000901148062250F821000021806806F097
:1020D00095FD0E480078022808D10BF0D3FE0C487D
:1020E0000C4990F89F0308700B490870BDE8084040
:1020F000FEF710BEB2000020F8BC0108C0000020AE
:10210000B8000020BC00002008BF0108AE0000207D
:10211000F4230020B7000020B9000020FEF76EBEB7
:10212000FEF7ECBE2DE9F0410BF0ACFE06F0EEFC44
:102130000F48104D40F2A136047805F29F3185F822
:102140009F4301220F463046FEF7E4FB0122394649
:102150003046FEF7ACFB95F89F03A04201D1012069
:1021600000E0002006F050F9BDE8F0410BF054BE4D
:10217000B7000020F42300200BF04EBE70477047DC
:10218000704700000D4808B50078012804D10C49BB
:10219000002008700B49087006F0B8FC1020009071
:1021A00009480A497E230078032200EB400051F8D9
:1021B00020000021006906F021FD08BDAE000020CE
:1021C000B7000020B9000020B200002008BF0108BD
:1021D0007047704710B506F0EFFE012006F014F9C5
:1021E0000BF01AFE0221BDE81040102009F088BA59
:1021F0000BF012BE704770477047000008B506F03C
:1022000085FC0F48104A114B007800EB40010D4847
:1022100000EB8100106002791A700D4A00687E237D
:102220001060102000900B48062250F82100002179
:10223000406806F0E3FCBDE80840FEF76BBD000017
:10224000B200002070BD0108C0000020B8000020CE
:10225000BC00002008BF0108FEF7D0BDFEF74EBE4F
:102260000D4810B5007850B101280DD00C490B482D
:10227000097800EB4100002130F8020C08E00BF077
:1022800001FE0121D82003E00BF0FCFD0121E0203C
:10229000BDE8104009F034BAB700002064230020E4
:1022A000B30000200BF0B8BD7047704770470000C6
:1022B00008B506F02BFC1548164A174B007800EBC2
:1022C0004001134800EB8100106002791A70134A34
:1022D00000687E231060102000901148062250F8FC
:1022E00021000021806806F089FC0E480078022851
:1022F00008D10BF0C7FD0C480C4990F89E030870FC
:102300000B490870BDE80840FEF704BDB20000208C
:10231000E0BC0108C0000020B8000020BC00002084
:1023200008BF0108AE000020F4230020B700002001
:10233000B9000020FEF762BDFEF7E0BD2DE9F041D7
:102340000BF0A0FD06F0E2FB0F48104D4FF468764D
:10235000047805F29E3185F89E4301220F463046EF
:10236000FEF7D8FA012239463046FEF7A0FA95F872
:102370009E03A04201D1012000E0002006F044F8B5
:10238000BDE8F0410BF048BDB7000020F423002069
:102390000BF042BD7047704770470000F8B5274802
:1023A0000078012821D12648002526A1057027485C
:1023B000FDF7E3FF254826A12130FDF7DEFF264E7D
:1023C000224826A296F8513C0321223810F01EF82C
:1023D0001E4C2D20223C21A2A07096F8523C0321D5
:1023E000E01C10F013F884F8215006F08FFB1D4C10
:1023F0001020009020781C4900EB40007E2351F80B
:1024000020001A490122097850F82100002106F025
:10241000F5FB10237E22042123200BF0B5FD20784C
:10242000134900EB400051F82000124940680A7837
:1024300011490978BDE8F84006F086BBAE000020DF
:10244000B900002030302D3030000000B0230020D3
:1024500039392D3939000000F42300202530326449
:1024600000000000B200002088BD0108B700002075
:1024700000BE0108A9000020A800002010B50BF044
:102480002DFDBDE8104003214FF4047009F038B968
:1024900010B50BF03BFDBDE8104003214FF4047074
:1024A00009F02EB92DE9F04786B00222244968468A
:1024B000FDF72BFF6846FDF769FF224C20490222F9
:1024C00084F8510CC91C6846FDF71FFF6846FDF7EC
:1024D0005DFFC5B284F8525C04F6514140F65348A2
:1024E00094F8516C01228A464046FEF713FA04F62E
:1024F000524140F65447012289463846FEF70AFA0F
:10250000012251464046FEF7D2F90122494638469B
:10251000FEF7CDF994F8510CB04205D194F8520C65
:10252000A84201D1012000E0002005F06DFF032149
:102530004FF4047009F0E4F806B0BDE8F08700003D
:102540008E230020F42300200BF066BC70477047F8
:1025500070470000F8B527480078012821D12648A7
:10256000002526A105702748FDF707FF254826A16D
:102570002130FDF702FF264E224826A296F84F3C56
:10258000032122380FF042FF1E4C2D20223C21A2B5
:10259000A07096F8503C0321E01C0FF037FF84F840
:1025A000215006F0B3FA1D4C1020009020781C49F1
:1025B00000EB40007E2351F820001A4901220978DF
:1025C00050F82100002106F019FB10237E2204217F
:1025D00023200BF0D9FC2078134900EB400051F880
:1025E0002000124940680A7811490978BDE8F8408E
:1025F00006F0AABAAE000020B900002030302D301D
:1026000030000000B023002039392D393900000096
:10261000F42300202530326400000000B2000020C6
:1026200088BD0108B700002000BE0108A9000020F5
:10263000A800002010B50BF051FCBDE810400321AC
:102640004FF4027009F05CB810B50BF05FFCBDE808
:10265000104003214FF4027009F052B82DE9F04701
:1026600086B0022224496846FDF74FFE6846FDF712
:102670008DFE224C2049022284F84F0CC91C68466A
:10268000FDF743FE6846FDF781FEC5B284F8505C55
:1026900004F64F4140F6514894F84F6C01228A46A7
:1026A0004046FEF737F904F5456140F652470122EE
:1026B00089463846FEF72EF9012251464046FEF77C
:1026C000F6F8012249463846FEF7F1F894F84F0C27
:1026D000B04205D194F8500CA84201D1012000E08D
:1026E000002005F091FE03214FF4027009F008F874
:1026F00006B0BDE8F08700008E230020F423002000
:102700000BF08ABB70477047704701214FF4E870A7
:1027100008F0F6BF704770477047000070B530484A
:10272000304E314C007886B0012806D12F49002068
:10273000307008702E492079087006F0E7F92D48AE
:102740002DA20421C38901A80FF060FE2CA10DF178
:102750000700FDF712FE102580230122002101A8A9
:10276000009506F04BFA28A101A8FDF706FE80238C
:102770000322002101A8009506F040FA3078254D8B
:10278000F0B1002006F088FB2878062200EB40001C
:10279000102154F82000006806F0D6F9012006F058
:1027A0007BFB2878062200EB4000502154F82000E3
:1027B000406806F0C9F9002006F06EFB06B070BD57
:1027C000012006F069FB2878062200EB400010216A
:1027D00054F82000006806F0B7F90020DFE7000099
:1027E000AE000020B700002060BE0108B900002044
:1027F000B8000020CA00002025303364000000002B
:10280000BAC5C9E8B1B80000C5E4D6C3CAA7B0DCF0
:1028100021000000B200002010B509F0D1FBBDE896
:10282000104003214FF4EC7008F06ABF10B509F0B6
:10283000DDFBBDE8104003214FF4EC7008F060BFF1
:102840000848007840B1084AD089518A884202D2AB
:10285000401CD08100E0D181012140F2D11008F06C
:102860004FBF0000B7000020CA000020F8B5214883
:102870000078012821D12048002620A10670214897
:10288000FDF77BFD1F4820A12130FDF776FD204D8F
:102890001C4820A22B8A042122380FF0B7FD194CC6
:1028A0002D20223C1BA2E0706B8A0421201D0FF01A
:1028B000ADFD84F821600120287006F027F9102072
:1028C0000090164816497E230078012200EB400054
:1028D00051F820001349097850F82100002106F032
:1028E0008DF901B01023BDE8F0407E2204212320A1
:1028F0000BF04ABBAE000020B90000203030302D74
:1029000030303000B02300203939392D39393900C1
:10291000CA0000202530336400000000B20000200F
:10292000C0BE0108B700002010B50BF0D7FABDE813
:10293000104003214FF4E87008F0E2BE10B50BF030
:10294000E5FABDE8104003214FF4E87008F0D8BE66
:1029500010B586B0032225496846FDF7D6FC6846C7
:10296000FDF714FD224C214903222082091D6846EF
:10297000FDF7CBFC6846FDF709FD80B26082218A35
:10298000FF2901D8FF280AD91A481B49007800EB13
:10299000400051F82000006805F020FD13E0207889
:1029A00001280CD1E1810AE0C0B2FEF7BBFC207027
:1029B00068B1A07BFEF7FEFDE089401CE081E08964
:1029C000618A8842F0D903214FF4E87009E00B488E
:1029D0000021006815F056FB0BF01CFD04214FF49C
:1029E000EC7008F08DFE06B010BD00008E230020B4
:1029F000CA000020B2000020E8BD010894010020B8
:102A00000BF00ABA70477047704700000D4808B5D0
:102A10000078012804D10C49002008700B49087087
:102A200006F074F81020009009480A497E230078C7
:102A3000032200EB400051F820000021006906F05D
:102A4000DDF808BDAE000020B7000020B90000206E
:102A5000B200002008BF01087047704710B50BF0A6
:102A6000CBFC012005F0D0FC0BF0D6F90221BDE82B
:102A70001040182008F044BE0BF0CEB970477047E4
:102A80007047000038B51B480078012814D11A4857
:102A900000241AA104701A48FDF76FFC184819A108
:102AA0002130FDF76AFC164814A12238FDF765FCB9
:102AB0001348223880F8214006F028F810200090B2
:102AC000114812497E230078012200EB400051F8A2
:102AD00020000F49097850F82100002106F08EF8F7
:102AE00001B01023BDE830407E22042133200BF0DA
:102AF0004BBA0000AE000020B9000020303030009A
:102B0000B023002039393900B2000020C8BC0108C8
:102B1000B700002010B50BF0E1F9BDE8104003212B
:102B20004FF4C47008F0ECBD10B50BF0EFF9BDE840
:102B3000104003214FF4C47008F0E2BD38B51E48C0
:102B4000FDF724FC84B2FA2C0AD91C481C490078F1
:102B500000EB400051F82000006805F03FFC25E044
:102B600018486B4600224FF48041006809F0BEFD12
:102B7000E0B20CF0E5FE144D286809F033FF8DF843
:102B800000006A464FF47A71286809F039FF9DF811
:102B900000100A2905D00178A14204D04078FD2810
:102BA00001D0002000E0012005F02EFC03214FF4AD
:102BB000C47008F0A5FD38BD8E230020B2000020AF
:102BC000E8BD010878010020740100200BF024B951
:102BD0007047704770470000F8B528480078012812
:102BE0002FD12748002627A106702948FDF7C5FBED
:102BF000274828A12130FDF7C0FB254C3220223C7C
:102C000000222070302060702549264807F038FCEB
:102C1000234D25A20321EB78A01C0FF0F7FB2F27F3
:102C200027716B7820A20321601D0FF0EFFBE77185
:102C3000AB781DA2032104F108000FF0E7FB84F834
:102C4000216005F063FF10200090194819497E2388
:102C50000078012200EB400051F820001649097865
:102C600050F82100002105F0C9FF01B01023BDE894
:102C7000F0407E22042117200BF086B9AE00002020
:102C8000B9000020323030302F30302F303000008B
:102C9000B0230020323039392F31392F3339000039
:102CA000CA0E002048DE00202530326400000000FB
:102CB000B200002070BD0108B700002010B50BF075
:102CC0000DF90321BDE81040E02008F019BD10B552
:102CD0000BF01CF90321BDE81040E02008F010BD06
:102CE00038B51BA01B4D006800900222A91C684645
:102CF000FDF70BFB6846FDF749FB174C0222691DE7
:102D0000E0706846FDF701FB6846FDF73FFB607029
:102D1000022205F108016846FDF7F7FA6846FDF75B
:102D200035FBC2B2A270E078617800F5FA60FEF778
:102D300011FA207000222146084807F045FC0120C6
:102D400005F062FB0321E02008F0DAFC38BD00004A
:102D50002A2A00008E230020CA0E002048DE002010
:102D60000BF05AB870477047704700002DE9FE43DA
:102D7000424F0024424E3878424D4FF0200801283F
:102D800027D1414841A1047005F12200FDF7F5FA71
:102D900041A105F14300FDF7F0FA85F82A4019201A
:102DA00085F84B000120B0823020287068703120F7
:102DB000A87085F803802D21297169713E21394859
:102DC000A97185F8078090F8250128726C7285F842
:102DD0002140387803282CD195F82100082828D0E4
:102DE0000322284901A8FDF790FA8DF807402548ED
:102DF000FDF7CCFA84B2FA2C12D92B482B49007873
:102E000000EB400051F82000006805F0E7FAB48AB2
:102E100027A2234604211B480FF0F8FA85F8038007
:102E2000B08AA04205D01F48B482204490F8240103
:102E3000287205F06BFE102000907E2301220021F5
:102E40001DA005F0DBFE10237E2204211B200BF0C9
:102E50009BF895F82100082802D1022006F01CF802
:102E6000287A1949042251F820005B2105F06CFEF4
:102E7000002006F011F8BDE8FE830000AE0000203F
:102E8000CA0000208E230020B900002030303020FE
:102E90002D2D3E2030000000393939202D2D3E20C7
:102EA00078000000F4230020B2000020E8BD0108F3
:102EB0002530336400000000C9E8B1B8BAC520204D
:102EC000D7D6B7FB000000002CE9010810B50BF0C5
:102ED00005F8BDE8104003214FF49C7008F010BCC9
:102EE00010B50BF013F8BDE8104003214FF49C70AF
:102EF00008F006BC2DE9FC4103221F496846FDF796
:102F000004FA00208DF803001B48FDF73FFA80B259
:102F1000FA280AD919481A49007800EB400051F8FC
:102F20002000006805F05AFA1EE0164A124D1418E7
:102F3000A71A297A84F8241104F5927107F593777A
:102F40000E46B8B20122FDF7E5FC3146B8B20122C7
:102F5000FDF7ADFC287A94F82411884201D10120B4
:102F600000E0002005F050FA03214FF49C7008F0B7
:102F7000C7FBBDE8FC8100008E230020B2000020CA
:102F8000E8BD0108F42300200AF046BF70477047EF
:102F9000704700000D4808B50078012804D10C499D
:102FA000002008700B49087005F0B0FD102000905B
:102FB00009480A497E230078032200EB400051F8BB
:102FC00020000021006905F019FE08BDAE000020B8
:102FD000B7000020B9000020B200002008BF01089F
:102FE0007047704710B50BF007FA012005F00CFA96
:102FF0000AF012FF0221BDE81040102008F080BB4B
:103000000AF00ABF70477047704700002DE9F0438F
:10301000DFF8C481DFF8C4912D2798F80000704DC7
:103020000026704C87B001281ED16F486FA1067032
:1030300004F12200FDF7A1F96EA104F14300FDF7B0
:103040009CF9AB786DA2042120460FF0DFF9E77000
:10305000A9786AA209EBC1000421B0F8A633201DAB
:103060000FF0D4F984F8216098F8000003283AD1D1
:1030700094F82100032836D203225A4901A8FDF70B
:1030800044F98DF8076001A8FDF780F980B26883E4
:10309000FA2812D95B485C49007800EB400051F8EF
:1030A0002000006805F09AF9AB7854A204214D483D
:1030B0000FF0ACF9E770A8786883A97880B28842ED
:1030C00011D0C3B2AB704DA2042146480FF09EF957
:1030D000E770AA78201D09EBC20148A2B1F8A63317
:1030E00004210FF093F905F011FD48A101A8FDF7A7
:1030F00044F9002101A8FDF714F903223949FDF72D
:1031000004F910258DF80E607E230122002101A80C
:10311000009505F073FD94F821003E4FDFF8F8802C
:1031200003281DD2022005F0B7FE002005F08EFE18
:1031300094F821000122011901A8FDF7E6F88DF8A5
:10314000056094F82100397898F8002001EBC00060
:103150001838C1B201A805F0F7FC002005F09CFE6C
:103160002EA101A8FDF709F9002101A8FDF7D9F862
:103170000322211DFDF7C9F88DF80C607E2304227F
:10318000002101A8009505F039FD94F82100001FE9
:1031900003281DD2022005F07FFE002005F056FE18
:1031A00094F821000122011901A8FDF7AEF88DF86D
:1031B000056094F82100397898F8002001EBC000F0
:1031C0003838C1B201A805F0BFFC002005F064FE4C
:1031D00007B0BDE8F0830000AE000020F42300201B
:1031E000CA0000208E230020B90000203030302D8E
:1031F000303030003239392D3939390025303364D7
:1032000000000000B2000020E8BD0108C9E8B1B824
:10321000BAC53A00A8000020A9000020BBA8D1F937
:103220003A00000010B50AF059FEBDE81040032135
:103230004FF4B47008F064BA10B50AF067FEBDE848
:10324000104003214FF4B47008F05ABAF8B50322C5
:1032500028496846FDF759F86846FDF797F8264E65
:10326000244903227083091D6846FDF74EF868461D
:10327000FDF78CF884B2708BFA2802D8B4F57A7F07
:103280000AD31E481E49007800EB400051F8200088
:10329000006805F0A3F827E0C0B21A4DB07005EB46
:1032A000C00000F2A631A0F8A643401B00F56A70EA
:1032B00080B20222FDF72EFBB078022205EBC0009F
:1032C00000F2A631401B00F56A7080B2FDF7EFFAFC
:1032D000B07805EBC000B0F8A603A04201D10120F0
:1032E00000E0002005F090F803214FF4B47008F0DE
:1032F00007FAF8BD8E230020CA000020B20000208B
:10330000E8BD0108F42300200AF086BD704770472D
:103310007047000008B505F0F9FB1448154A164B34
:10332000007800EB4001124800EB81001060027948
:103330001A70124A00687E23106010200090104816
:10334000062250F821000021406805F057FC0D4886
:103350000078022806D10AF095FD0B49002008707C
:103360000A490870BDE80840FDF7D4BCB20000204F
:10337000C8BC0108C0000020B8000020BC0000202C
:1033800008BF0108AE000020B7000020B9000020EF
:10339000FDF734BDFDF7B2BD234810B5007809280C
:1033A00039D2DFE800F005090D13191F252B2F0076
:1033B00002214FF4C8702AE002214FF4AC7026E0DD
:1033C0000AF060FD01214FF4B07020E00AF05AFDD0
:1033D00001214FF4B4701AE00AF054FD01214FF4BA
:1033E000B87014E00AF04EFD01214FF4BC700EE0FD
:1033F0000AF048FD01214FF4CC7008E001214FF4A0
:10340000D07004E00AF03EFD01214FF4F070BDE8F9
:10341000104008F075B906490448097800EB4100EE
:10342000002130F8020CF2E7B700002064230020EE
:10343000B30000200AF0F0BC08B505F067FB0F48A8
:10344000104A114B007800EB40010D4800EB810061
:10345000106002791A700D4A00687E2310601020F7
:1034600000900B48062250F821000021406805F02A
:10347000C5FBBDE80840FDF74DBC0000B2000020D0
:10348000A8BE0108C0000020B8000020BC00002039
:1034900008BF0108FDF7B2BCFDF730BD1B4810B5F1
:1034A0000078072828D2DFE800F004090E11141A6A
:1034B0001F000AF0E7FC0121402019E00AF0E2FCBD
:1034C0000121482014E00221A82011E00221C801B6
:1034D0000EE00AF0D7FC01214FF4847008E00AF0F6
:1034E000D1FC0121502003E00AF0CCFC0121E820AE
:1034F000BDE8104008F004B906490548097800EB1A
:103500004100002130F8020CF2E70000B700002073
:1035100064230020B30000200AF07EBC704770478F
:103520007047000008B505F0F1FA1548164A174B28
:10353000007800EB4001134800EB81001060027935
:103540001A70134A00687E23106010200090114802
:10355000062250F821000021806805F04FFB0E483C
:103560000078022808D10AF08DFC0C480C4990F82C
:10357000210008700B490870BDE80840FDF7CABB80
:10358000B2000020A0BD0108C0000020B80000204B
:10359000BC00002008BF0108AE000020F42300207A
:1035A000B7000020B9000020FDF728BCFDF7A6BC3D
:1035B00070B50AF067FC05F0A9FA0E480E4D0E49E9
:1035C0000478213105F8214F01220E462320FDF712
:1035D000A1F9012231462320FDF769F92878A0429C
:1035E00001D1012000E0002004F00EFFBDE8704092
:1035F0000AF012BCB7000020F42300200AF00CBC33
:10360000704770477047000008B505F07FFA14480E
:10361000154A164B007800EB4001124800EB810080
:10362000106002791A70124A00687E231060102020
:1036300000901048062250F821000021406805F053
:10364000DDFA0D480078022806D10AF01BFC0B4970
:10365000002008700A490870BDE80840FDF75ABB11
:10366000B200002088BD0108C0000020B800002082
:10367000BC00002008BF0108AE000020B7000020F9
:10368000B9000020FDF7BABBFDF738BC2B4810B5D8
:1036900000780B2849D2DFE800F0060B10161C2238
:1036A000282E34393F000AF0EDFB0121C02038E01C
:1036B0000AF0E8FB0121C82033E00AF0E3FB012116
:1036C0004FF488702DE00AF0DDFB01214FF48C707F
:1036D00027E00AF0D7FB01214FF4907021E00AF0B7
:1036E000D1FB01214FF4F4701BE00AF0CBFB012168
:1036F0004FF4F87015E00AF0C5FB01214FF4FC709F
:103700000FE00AF0BFFB012148020AE00AF0BAFB11
:1037100001214FF4027004E00AF0B4FB01214FF4E0
:103720000470BDE8104007F0EBBF06490448097873
:1037300000EB4100002130F8020CF2E7B700002056
:1037400064230020B30000200AF066BB7047704776
:103750007047000008B505F0D9F91548164A174B0F
:10376000007800EB4001134800EB81001060027903
:103770001A70134A00687E231060102000901148D0
:10378000062250F821000021806805F037FA0E4823
:103790000078022808D10AF075FB0C480C4990F813
:1037A000960308700B490870BDE80840FDF7B2BAEF
:1037B000B200002058BD0108C0000020B800002061
:1037C000BC00002008BF0108AE000020F423002048
:1037D000B7000020B9000020FDF710BBFDF78EBB3D
:1037E0002DE9F0410AF04EFB05F090F90F48104D1D
:1037F0004FF46676047805F2963185F896430122F7
:103800000F463046FDF786F8012239463046FDF76F
:103810004EF895F89603A04201D1012000E0002067
:1038200004F0F2FDBDE8F0410AF0F6BAB70000205E
:10383000F42300200AF0F0BA704770477047000088
:103840002DE9F043DFF8D081DFF8D0912D2798F8EB
:103850000000734D0026734C87B001281ED17248BA
:1038600072A1067004F12200FCF787FD72A104F139
:103870004300FCF782FDEB7872A2042120460EF093
:10388000C5FDE770E97871A209EBC1000521B0F828
:10389000A833201D0EF0BAFD84F8216098F80000CE
:1038A00003283AD194F82100032836D203225D4937
:1038B00001A8FCF72AFD8DF8076001A8FCF766FD5A
:1038C00080B2A883FA2812D962486349007800EBD5
:1038D000400051F82000006804F080FDEB7859A208
:1038E000042150480EF092FDE770E878A883E9784B
:1038F00080B2884211D0C3B2EB7052A20421494871
:103900000EF084FDE770EA78201D09EBC2014FA29A
:10391000B1F8A83305210EF079FD05F0F7F84FA1B5
:1039200001A8FCF72AFD002101A8FCF7FAFC0322FC
:103930003C49FCF7EAFC10258DF80E607E2301223D
:10394000002101A8009505F059F994F82100454F90
:10395000DFF8148103281DD2022005F09DFA002013
:1039600005F074FA94F821000122011901A8FCF76E
:10397000CCFC8DF8056094F82100397898F8002087
:1039800001EBC0001838C1B201A805F0DDF8002035
:1039900005F082FA35A101A8FCF7EFFC002101A88F
:1039A000FCF7BFFC0422211DFCF7AFFC8DF80F6073
:1039B000002101A8FCF7B5FC2EA1FCF7DEFC7E235C
:1039C0000422002101A8009505F018F994F82100BF
:1039D000001F04281DD2022005F05EFA002005F029
:1039E00035FA94F821000122011901A8FCF78DFC99
:1039F0008DF8056094F82100397898F8002001EBE3
:103A0000C0005038C1B201A805F09EF8002005F0B2
:103A100043FA07B0BDE8F083AE000020F423002095
:103A2000CA0000208E230020B90000203030302D45
:103A300030303030000000003239392D3939393911
:103A4000000000002530336400000000253034649D
:103A500000000000B2000020E8BD0108C9E8B1B8CC
:103A6000BAC53A00A8000020A9000020B5C6D6E9D2
:103A7000CAFD3A00B8F6000010B50AF02FFABDE80A
:103A8000104003214FF4BC7007F03ABE10B50AF0A5
:103A90003DFABDE8104003214FF4BC7007F030BE82
:103AA0007CB5032228496846FCF72FFC6846FCF7E2
:103AB0006DFC264E24490422B083091D6846FCF79C
:103AC00024FC6846FCF762FC84B2B08BFA2802D86A
:103AD000B4F5006F0AD91E481E49007800EB40007B
:103AE00051F82000006804F079FC27E0C0B21A4DBC
:103AF000F07005EBC00000F56A71A0F8A843401B08
:103B000000F2AA3080B20222FCF704FFF078022211
:103B100005EBC00000F56A71401B00F2AA3080B2CC
:103B2000FCF7C5FEF07805EBC000B0F8A803A04292
:103B300001D1012000E0002004F066FC03214FF4D5
:103B4000BC7007F0DDFD7CBD8E230020CA00002084
:103B5000B2000020E8BD0108F42300200AF05CB99F
:103B600038B504F0D3FF144C154A164B207800EBFF
:103B70004001124800EB8100106002791A70124A6D
:103B800000687E231060102000901048062250F834
:103B900021000021806805F031F80D4800780228E6
:103BA00006D10AF06FF90B49207808700A490870AD
:103BB000BDE83840FDF7AEB8B2000020F0BE010805
:103BC000C0000020B8000020BC00002008BF010891
:103BD000AE000020B7000020B9000020FDF70EB9AC
:103BE000FDF78CB910B50AF04DF904F08FFF0E48BF
:103BF0000E4C007808B1012803D120700A2004F08F
:103C000087FF20780A4C0222A11C60800420FCF768
:103C100081FE0222A11C0420FCF749FE04F076FF7D
:103C2000BDE810400AF0F8B8B7000020B20000204C
:103C3000F42300200AF0F0B8704770477047000086
:103C40002DE9F043DFF8D481DFF8D4912D2798F8DF
:103C50000000744D0026744C87B001281ED17348B3
:103C600073A1067004F12200FCF787FB72A104F136
:103C70004300FCF782FB2B7971A2042120460EF051
:103C8000C5FBE770297970A209EBC100022190F809
:103C9000AD33201D0EF0BAFB84F8216098F80000C7
:103CA00003283AD194F82100032836D203225E4932
:103CB00001A8FCF72AFB8DF8076001A8FCF766FB5A
:103CC00080B2E883FA2812D961486249007800EB93
:103CD000400051F82000006804F080FB2B7958A2C6
:103CE000042151480EF092FBE7702879E883297986
:103CF00080B2884211D0C3B22B7151A204214A482C
:103D00000EF084FBE7702A79201D09EBC2014EA258
:103D100091F8AD3302210EF079FB04F0F7FE4EA1CD
:103D200001A8FCF72AFB002101A8FCF7FAFA0322FC
:103D30003D49FCF7EAFA10278DF80E607E23012238
:103D4000002101A8009704F059FF94F82100DFF842
:103D50001081DFF8109103281ED2022005F09CF894
:103D6000002005F073F894F821000122011901A840
:103D7000FCF7CBFA8DF8056094F8211098F8000054
:103D800099F8002000EBC1001838C1B201A804F076
:103D9000DBFE002005F080F80122211D01A8FCF7C0
:103DA000B4FA8DF8056001A8FCF7F0FAC5B22EA1AF
:103DB00001A8FCF7E2FA002101A8FCF7B2FA2D4EA7
:103DC00056F82510FCF7D9FA7E230422002101A819
:103DD000009704F013FF94F8210004281AD1022060
:103DE00005F05AF8002005F031F856F8251001A822
:103DF000FCF7C3FA94F8211098F8000099F8002015
:103E000000EBC1003038C1B201A804F09DFE0020D3
:103E100005F042F807B0BDE8F0830000AE000020D6
:103E2000F4230020CA0000208E230020B9000020C7
:103E30003030302D300000003239392D3300000091
:103E4000253033640000000025303164000000009C
:103E5000B2000020E8BD0108C9E8B1B8BAC53A000F
:103E6000A8000020A9000020D1D5C9ABC4A3CABDB9
:103E70003A000000B4EA010810B50AF02FF8BDE8D6
:103E8000104003214FF4F07007F03ABC10B50AF06F
:103E90003DF8BDE8104003214FF4F07007F030BC4E
:103EA000F8B503222A496846FCF72FFA00248DF85A
:103EB00003406846FCF76AFA264E25490122F08342
:103EC000091D6846FCF721FA8DF801406846FCF7A9
:103ED0005DFA84B2F08BFA2801D8032C0AD91E4867
:103EE0001E49007800EB400051F82000006804F003
:103EF00075FA27E0C0B21A4D307105EBC00000F230
:103F0000AD3180F8AD43401B00F2AF3080B20122EA
:103F1000FCF700FD3079012205EBC003581B00F2CD
:103F2000AF3003F2AD3180B2FCF7C1FC307905EB64
:103F3000C00090F8AD03A04201D1012000E00020B4
:103F400004F062FA03214FF4F07007F0D9FBF8BDDA
:103F50008E230020CA000020B2000020E8BD010826
:103F6000F423002009F058BF7047704770470000E5
:103F700038B523480078012818D12248002422A10E
:103F800004702348FCF7F9F9214822A12130FCF7FD
:103F9000F4F9224822A20521B0F8A73B1C48223898
:103FA0000EF034FA1A48223880F8214004F0AEFDB1
:103FB0001D4C1020009020781C4900EB40007E230F
:103FC00051F820001A490122097850F821000021F7
:103FD00004F014FE10237E220421272009F0D4FFD0
:103FE0002078144900EB400051F820001249406845
:103FF0000A7812490978BDE8384004F0A5BD0000F0
:10400000AE000020B9000020303030300000000049
:10401000B02300203939393900000000F423002092
:104020002530346400000000B2000020C8BC010844
:10403000B700002000BE0108A9000020A800002051
:1040400010B509F04BFFBDE8104003214FF4CC70D0
:1040500007F056BB10B509F059FFBDE81040032129
:104060004FF4CC7007F04CBB2DE9F0411248FCF73F
:104070008DF9124D84B205F6A73140F6A936A5F8A0
:10408000A74B02220F463046FCF744FC0222394679
:104090003046FCF70CFCB5F8A70BA04201D101207B
:1040A00000E0002004F0B0F9BDE8F04103214FF436
:1040B000CC7007F025BB00008E230020F4230020E5
:1040C00009F0AABE70477047704700002DE9F04F15
:1040D0008348844C0025017887B004F1080B01293E
:1040E00026D1814881A1057004F12200FCF745F931
:1040F00081A104F14300FCF740F9824E82A2042121
:1041000096F8A233204606F2A2360EF07FF92D274C
:10411000E77073787CA20421201D0EF077F9E77117
:10412000B37879A2042158460EF070F984F8215032
:1041300004F0ECFCDFF8D8A14FF01008CDF80080B7
:104140009AF80000734900EB4000002251F820006B
:1041500071494646574609787E2350F8210011469A
:1041600004F04CFD3878DFF8B49100EB400159F8C9
:104170002100016801A8FCF700F9002101A8FCF763
:10418000D0F803225749FCF7C0F88DF80A507E2377
:104190000222002101A8009604F030FD94F82100CD
:1041A0005F4E604F03281CD2022004F075FE0020F1
:1041B00004F04CFE94F821000122011901A8FCF73B
:1041C000A4F88DF8055094F8210031783A7801EB85
:1041D000C0001838C1B201A804F0B6FC002004F0F9
:1041E0005BFE9AF8000000EB400159F8210041689D
:1041F00001A8FCF7C2F8002101A8FCF792F80322FD
:10420000211DFCF782F88DF80A507E23042200213C
:1042100001A8CDF8008004F0F1FC94F82100001F03
:1042200003281CD2022004F037FE002004F00EFE0A
:1042300094F821000122011901A8FCF766F88DF815
:10424000055094F8210031783A7801EBC0003838F5
:10425000C1B201A804F078FC002004F01DFE9AF819
:10426000000000EB400159F82100816801A8FCF72B
:1042700084F8002101A8FCF754F803225946FCF702
:1042800044F88DF80A507E230622002101A8CDF8BB
:10429000008004F0B3FC94F8210007281CD9022008
:1042A00004F0FAFD002004F0D1FD94F82100012271
:1042B000011901A8FCF729F88DF8055094F82100A0
:1042C00031783A7801EBC0005838C1B201A804F047
:1042D0003BFC002004F0E0FD07B0BDE8F08F0000DB
:1042E000AE0000208E230020B90000203030302D99
:1042F0003030302D303030003939392D3939392DC1
:1043000039393900F42300202530336400000000DF
:10431000B2000020C8BC0108B7000020B0BC0108F2
:10432000A8000020A900002010B509F0D7FD032146
:10433000BDE81040C80107F0E3B910B509F0E6FD8B
:104340000321BDE81040C80107F0DAB92DE9FE4F9E
:104350003CA00322006800903B496846FBF7D5FF6C
:104360006846FCF713F8384986B20322091D6846EF
:10437000FBF7CBFF6846FCF709F8334985B2032207
:1043800008316846FBF7C1FF6846FBF7FFFF84B2C0
:10439000FF2E03D8FF2D01D8FF2C0AD92B482C491A
:1043A000007800EB400051F82000006804F016F897
:1043B00041E0284F4FF4697807F2A23187F8A263F1
:1043C00087F8A35387F8A443012240460291FCF7E3
:1043D000A1FA07F2A33140F2A53A01225046019119
:1043E000FCF798FA07F5697140F2A63901228B466D
:1043F0004846FCF78FFA012240460299FCF757FA2B
:10440000012250460199FCF752FA012259464846CA
:10441000FCF74DFA97F8A203B04209D197F8A3032D
:10442000A84205D197F8A403A04201D1012000E0E1
:10443000002003F0E9FF0321C80107F061F9BDE89E
:10444000FE8F00002A2A2A008E230020B2000020BE
:10445000E8BD0108F423002009F0DEBC7047704776
:104460007047000008B504F051FB1448154A164B7C
:10447000007800EB4001124800EB810010600279E7
:104480001A70124A00687E231060102000901048B5
:10449000062250F821000021406804F0AFFB0D48CF
:1044A0000078022806D109F0EDFC0B4900200870C5
:1044B0000A490870BDE80840FCF72CBCB200002097
:1044C00080BC0108C0000020B8000020BC00002013
:1044D00008BF0108AE000020B7000020B90000208E
:1044E000FCF78CBCFCF70ABD0E4810B5007850B143
:1044F00001280ED00D490C48097800EB410000213D
:1045000030F8020C0AE009F0BDFC01214FF4D8702C
:1045100004E009F0B7FC01214FF4E070BDE8104061
:1045200007F0EEB8B700002064230020B30000209D
:1045300009F072BC7047704770470000F8B5174823
:10454000174C184D0078012808D117481749007FEB
:1045500020700020087016492879087004F0D6FAF7
:10456000144F102600963878134900EB40007E2344
:1045700051F8200001220021406A04F03FFB009620
:104580003878217800EB40007E2355F82000042283
:1045900050F82100002104F031FBF8BDAE000020EE
:1045A000B7000020B8BD0108F4230020B9000020A6
:1045B000B8000020B2000020C0BE010810B507F00E
:1045C000FFFC0321BDE81040902007F099B810B51A
:1045D00007F00CFD0321BDE81040902007F090B8D3
:1045E00070B50F4D0F4C02222878A08304F11C01F6
:1045F0000E461E20FCF78EF9022231461E20FCF7E3
:1046000056F9A08B2978884201D1012000E00020D2
:1046100003F0FAFEBDE870400321902007F070B867
:10462000B7000020F423002009F0F6BB7047704764
:104630007047000038B521480078012814D120487F
:104640000025204C057020A022A2008860841FA0B5
:1046500002210088A4F843001D4890F8203020462D
:104660000DF0D4FE84F8215004F050FA1B4C1020B9
:10467000009020781A4900EB40007E2351F820007A
:1046800018490122097850F82100002104F0B6FAF7
:1046900010237E220421332009F076FC2078124971
:1046A00000EB400051F82000104980680A7810495A
:1046B0000978BDE8384004F047BA0000AE00002099
:1046C000B90000208E2300203000000039000000D7
:1046D000F42300202530316400000000B2000020E7
:1046E000C0BE0108B700002000BE0108A9000020DC
:1046F000A800002010B509F0F1FB0321BDE810402F
:10470000A02006F0FDBF10B509F06CFC0321BDE848
:104710001040A02006F0F4BF70B51048FBF736FE3D
:104720000F4D0F49C4B2203105F8204F01220E462B
:104730002220FCF7EFF8012231462220FCF7B7F8DF
:104740002878A04201D1012000E0002003F05CFEA7
:10475000BDE870400321A02006F0D2BF8E230020C8
:10476000F423002009F058BB7047704770470000E1
:10477000F8B51748174C184D0078012808D117488C
:104780001749807F2070002008701649287908702A
:1047900004F0BCF9144F102600963878134900EB4A
:1047A00040007E2351F8200001220021806A04F09D
:1047B00025FA00963878217800EB40007E2355F8E2
:1047C0002000042250F82100002104F017FAF8BD5F
:1047D000AE000020B7000020D0BD0108F423002067
:1047E000B9000020B8000020B2000020C0BE0108BF
:1047F00010B507F0E5FB0321BDE81040982006F056
:104800007FBF10B507F0F2FB0321BDE810409820F0
:1048100006F076BF70B50F4D0F4C02222878E0836A
:1048200004F11E010E462020FCF774F802223146E6
:104830002020FCF73CF8E08B2978884201D1012048
:1048400000E0002003F0E0FDBDE870400321982067
:1048500006F056BFB7000020F423002009F0DCBAB0
:104860007047704770470000F8B51848184C194D4C
:10487000007801280AD1184818490078C0F3400090
:1048800020700020087016492879087004F03EF95D
:10489000144F102600963878134900EB40007E2311
:1048A00051F8200001220021C06804F0A7F9009609
:1048B0003878217800EB40007E2355F82000042250
:1048C00050F82100002104F099F9F8BDAE00002055
:1048D000B700002048BE0108F4230020B9000020E2
:1048E000B8000020B200002030BE010810B507F06B
:1048F00067FB0321BDE81040482006F001BF10B55A
:1049000007F074FB0321BDE81040482006F0F8BE14
:1049100070B5114D114C02222978208861F34100B5
:10492000208021461046FBF7F5FF02222146104663
:10493000FBF7BDFF20782978C0F34000884201D101
:10494000012000E0002003F05FFDBDE8704003217E
:10495000482006F0D5BE0000B7000020F423002058
:1049600009F05ABA70477047704700002DE9F843C4
:104970001B481A4CDFF86C800078257801280AD192
:1049800019481A4990F8A90B20700020087018499E
:1049900098F80400087004F0B9F8164F1026009635
:1049A0003878154900EB40007E2351F820000122A1
:1049B000002150F8250004F021F9009638787E2374
:1049C00000EB4001042258F82100217850F8210022
:1049D000002104F013F9BDE8F8830000B7000020BF
:1049E000AE00002048BE0108F4230020B9000020DA
:1049F000B8000020B200002080BC010810B507F00C
:104A0000DFFABDE8104003214FF4D47006F078BE01
:104A100010B507F0EBFABDE8104003214FF4D47055
:104A200006F06EBE2DE9F041164D174C40F6AB3640
:104A3000287884F8A90B04F6A93101220F463046E4
:104A4000FBF768FF012239463046FBF730FF94F848
:104A5000A90B2978884201D1012000E0002003F051
:104A6000D3FC94F8A91B0948012908D00121017041
:104A7000BDE8F04103214FF4D47006F041BE00219F
:104A8000F5E70000B7000020F4230020CE0E002040
:104A900009F0C2B970477047704700002DE9F04F28
:104AA000FB4D0024FB4F287887B001280FD1FA482E
:104AB000FAA1047007F12200FBF75FFCFEA107F1E9
:104AC0004300FBF75AFC0DF05DFA87F82140287887
:104AD000DFF80084DFF800A4032851D197F8210003
:104AE0002D2602282AD20222EA4901A8FBF70DFC52
:104AF0008DF8064001A8FBF749FCC0B2454688F88E
:104B00000900092812D99AF80000F44900EB400086
:104B100051F82000006803F061FC6B79F0A20321DA
:104B2000DC480DF073FCBE70687968726979C0B2B8
:104B3000884225D068710DF025FA21E005281FD1A3
:104B40000122791D01A8FBF7E0FB8DF8054001A8C3
:104B5000FBF71CFC88F80600E34A98F8051002EB06
:104B6000C101012291F8AC1B8240114201D0012306
:104B700000E00023DDA20221F81D0DF047FC3E728B
:104B800003F0C4FF0122F91C01A8FBF7BEFBA146FC
:104B90008DF8054001A8FBF7F9FBC6B2D5A101A825
:104BA000FBF7EBFB002101A8FBF7BBFB0222B94995
:104BB000FBF7ABFB8DF80D40002101A8FBF7B1FB23
:104BC000CEA1FBF7DAFB002101A8FBF7AAFB9AF8BC
:104BD0000020DFF82CB302EB42025BF8221051F800
:104BE0002610FBF7CAFB002101A8FBF79AFBC5A121
:104BF000002209880180102000907E23114601A820
:104C000003F0FCFF97F82100BF4CC04D02281CD2D6
:104C1000022004F041F9002004F018F997F821006F
:104C20000122C11901A8FBF770FB8DF8059097F8D8
:104C3000210021782A7801EBC0003838C1B201A8E0
:104C400003F082FF002004F027F997F821000328E1
:104C50001ED1022004F020F9002004F0F7F89AF8A1
:104C6000000000EB40015BF8210050F8261001A87D
:104C7000FBF783FB97F8210021782A7801EBC0002D
:104C80003038C1B201A803F05FFF002004F004F93E
:104C90000122791D01A8FBF738FB00268DF805607D
:104CA00001A8FBF773FB88F80600C1460122F91D35
:104CB00001A8FBF72AFB8DF8056001A8FBF766FB4E
:104CC000C6B293A101A8FBF758FB98F806000DF0B7
:104CD00077FA8046002101A8FBF723FB4146FBF74A
:104CE0004CFB002101A8FBF71CFB84A1FBF745FB53
:104CF000002101A8FBF715FB9AF8001001EB410217
:104D00005BF8221051F82610FBF737FB002101A8B1
:104D1000FBF707FB7BA14FF01008098801807E2379
:104D20000222002101A8CDF8008003F067FF97F868
:104D3000210005281BD1022004F0AEF8002004F069
:104D400085F899F806000DF03BFA014601A8FBF73B
:104D500014FB97F8210021782A7801EBC000603815
:104D6000C1B201A803F0F0FE002004F095F897F816
:104D7000210007281ED1022004F08EF8002004F044
:104D800065F89AF8000000EB40015BF8210050F84C
:104D9000261001A8FBF7F1FA97F8211020782A785D
:104DA00000EBC1005038C1B201A803F0CDFE0020D5
:104DB00004F072F857A000210088ADF8040001A8A3
:104DC000FBF7AFFA334908220931FBF79EFA0026B8
:104DD0008DF80D60314601A8FBF7A3FA4EA1FBF751
:104DE000CCFA7E230422002101A8CDF8008003F034
:104DF00005FF97F82100093802281CD2022004F090
:104E00004BF8002004F022F897F821000122C11984
:104E100001A8FBF77AFA8DF8056097F82100217850
:104E20002A7801EBC000B038C1B201A803F08CFEB3
:104E3000002004F031F897F821000C3802281CD229
:104E4000022004F029F8002004F000F897F821006F
:104E50000122C11901A8FBF758FA8DF8056097F8EF
:104E6000210021782A7801EBC000B038C1B201A836
:104E700003F06AFE002004F00FF897F821000F38C5
:104E8000022866D2022004F007F8002048E0000063
:104E9000AE0000208E230020B900002030302D30DD
:104EA0002D312D302D30303A30303A30302D3030F9
:104EB0003A30303A3030000039392D312D372D312C
:104EC0002D32393A35393A35392D32393A35393A80
:104ED00035390000CA000020B2000020E8BD0108FA
:104EE0002530326400000000F423002025303164B6
:104EF00000000000B6A8CAB1C6F75B005D5B000009
:104F000048BE01085D000000A8000020A9000020A4
:104F1000D0C7C6DA5B0000005DB4F2BFAA00000093
:104F200003F094FF97F821000122C11901A8FBF7B3
:104F3000ECF98DF8056097F8210021782A7801EBCB
:104F4000C000B038C1B201A803F0FEFD002003F09C
:104F5000A3FFAFF240000088ADF80400002101A8D3
:104F6000FBF7DFF908223E49FBF7CFF98DF80D601A
:104F7000002101A8FBF7D5F93AA1FBF7FEF97E2342
:104F80000622002101A8CDF8008003F037FE97F833
:104F90002100123802281CD2022003F07DFF0020DD
:104FA00003F054FF97F821000122C11901A8FBF773
:104FB000ACF98DF8056097F8210021782A7801EB8B
:104FC000C000F838C1B201A803F0BEFD002003F014
:104FD00063FF97F82100153802281CD2022003F045
:104FE0005BFF002003F032FF97F821000122C11976
:104FF00001A8FBF78AF98DF8056097F82100217860
:105000002A7801EBC000F838C1B201A803F09CFD7A
:10501000002003F041FF97F82100183802281CD225
:10502000022003F039FF002003F010FF97F8210061
:105030000122C11901A8FBF768F98DF8056097F8FE
:10504000210021782A7801EBC000F838C1B201A80C
:1050500003F07AFD002003F01FFF07B0BDE8F08FDA
:10506000A02300205DB9D8B1D500000010B508F02C
:1050700035FFBDE8104003214FF4DC7006F040BB63
:1050800010B508F043FFBDE8104003214FF4DC7079
:1050900006F036BB70B588B0022272496846FBF74D
:1050A00034F900248DF802406846FBF76FF96E4D25
:1050B0006C4E01226872F11C6846FBF726F98DF8E8
:1050C00001406846FBF762F98DF814000122711D5A
:1050D0006846FBF71AF98DF801406846FBF756F968
:1050E000A8710122F11D6846FBF70FF98DF8014008
:1050F0006846FBF74BF9A8725C4E6979012306EB11
:10510000C10191F8AC2BA9798B4088409A430243A6
:1051100054498DF81520022209316846FBF7F5F84D
:105120008DF802406846FBF731F94E498DF81600BC
:1051300002220C316846FBF7E8F88DF80240684619
:10514000FBF724F947498DF8170002220F31684612
:10515000FBF7DBF88DF802406846FBF717F9414989
:105160008DF81800022212316846FBF7CEF88DF850
:1051700002406846FBF70AF93A498DF81900022205
:1051800015316846FBF7C1F88DF802406846FBF719
:10519000FDF834498DF81A00022218316846FBF7F1
:1051A000B4F88DF802406846FBF7F0F8C1B28DF80C
:1051B0001B10687A0A2815D89DF81620172A11D8CE
:1051C0009DF817203B2A0DD89DF818203B2A09D8B6
:1051D0009DF81920172A05D89DF81A203B2A01D8D6
:1051E0003B290AD922482349007800EB400051F8B6
:1051F0002000006803F0F2F82AE0687106EBC000B6
:105200000599C0F8AB1B0699C0F8AF1B00F6AB318F
:10521000801B00F6AD3080B20822FBF77BFB68797B
:10522000082206EBC003981B00F6AD3003F6AB3145
:1052300080B2FBF73CFB6879082206EBC00105A8A9
:1052400001F6AB31FBF78CF848B1002003F0DCF835
:1052500003214FF4DC7006F053FA08B070BD012052
:10526000F4E700008E230020CA000020F423002071
:10527000B2000020E8BD010808F0CEBD70477047BD
:105280007047000038B523480078012818D122481B
:10529000002422A104702348FBF76FF8214822A1C3
:1052A0002130FBF76AF8224822A20521B0F8A0338A
:1052B0001C4822380DF0AAF81A48223880F82140FC
:1052C00003F024FC1D4C1020009020781C4900EBBA
:1052D00040007E2351F820001A490122097850F835
:1052E0002100002103F08AFC10237E2204212720C4
:1052F00008F04AFE2078144900EB400051F82000E5
:10530000124980680A7812490978BDE8384003F0EC
:105310001BBC0000AE000020B9000020303030304F
:1053200000000000B02300203939393900000000A6
:10533000F42300202530346400000000B200002077
:10534000C8BC0108B700002000BE0108A900002069
:10535000A800002010B508F0C1FDBDE810400321F1
:105360004FF4B87006F0CCB910B508F0CFFDBDE829
:10537000104003214FF4B87006F0C2B92DE9F04196
:105380001948FBF703F884B2B4F5006F0AD917483F
:105390001749007800EB400051F82000006803F046
:1053A0001DF819E0134D40F2A23605F56871A5F815
:1053B000A04302220F463046FBF7ACFA02223946E0
:1053C0003046FBF774FAB5F8A003A04201D10120E2
:1053D00000E0002003F018F8BDE8F04103214FF48D
:1053E000B87006F08DB900008E230020B2000020B6
:1053F000E8BD0108F423002008F00EBD08B503F055
:1054000085FB0F48104A114B007800EB40010D4816
:1054100000EB8100106002791A700D4A00687E234B
:105420001060102000900B48062250F82100002147
:10543000406803F0E3FBBDE80840FBF76BBC0000ED
:10544000B2000020D8BE0108C0000020B800002033
:10545000BC00002008BF0108FBF7D0BCFBF74EBD25
:1054600010B508F00FFD03F051FB03F04FFBBDE852
:10547000104008F0D1BC08F0CFBC704770477047AF
:10548000F8B51848184C194D007801280AD1184869
:105490001849007800F001002070002008701649BB
:1054A0002879087003F032FB144F102600963878E4
:1054B000134900EB40007E2351F820000122002117
:1054C000806803F09BFB00963878217800EB400061
:1054D0007E2355F82000042250F82100002103F01B
:1054E0008DFBF8BDAE000020B700002048BE0108CB
:1054F000F4230020B9000020B8000020B2000020F2
:1055000030BE010810B506F05BFD0321BDE8104078
:10551000402006F0F5B810B506F068FD0321BDE89F
:105520001040402006F0ECB870B5114D114C02222D
:105530002978208861F30000208021461046FBF77F
:10554000E9F9022221461046FBF7B1F920782978C3
:1055500000F00100884201D1012000E0002002F0AB
:1055600053FFBDE870400321402006F0C9B8000099
:10557000B7000020F423002008F04EBC70477047AD
:10558000704700002DE9F04FDFF85493D74CDFF857
:10559000548399F800102D27D34D002687B004F1CD
:1055A0000A0B012934D1D248D2A1067004F122009D
:1055B000FAF7E3FED3A104F14300FAF7DEFE6B78BD
:1055C000D4A2042120460CF021FFE7706978D3A211
:1055D00008EBC100032190F8AA33201D0CF016FF40
:1055E000A7716978CDA208EBC100032190F8AB3315
:1055F000E01D0CF00BFF67726978C8A208EBC100D0
:10560000032190F8AC3358460CF000FF84F8216079
:1056100099F80000DFF80C93032850D194F821008A
:1056200003284CD20322B14901A8FAF76EFE8DF887
:10563000076001A8FAF7AAFE80B22883FA2812D9D7
:1056400099F80000B84900EB400051F820000068CC
:1056500002F0C4FE6B78AFA20421A4480CF0D6FE81
:10566000E77068782883697880B2884227D0C3B20F
:105670006B70A8A204219D480CF0C8FEE770697801
:10568000A6A208EBC100032190F8AA33201D0CF05C
:10569000BDFEA7716978A1A208EBC100032190F8B3
:1056A000AB33E01D0CF0B2FE677269789BA208EB89
:1056B000C100032190F8AC3358460CF0A7FE03F06C
:1056C00025FA9AA101A8FAF758FE002101A8FAF7D5
:1056D00028FE03228549FAF718FE4FF01008002231
:1056E0008DF80E607E23114601A8CDF8008003F0EE
:1056F00085FA94F821008F4D8F4F03281CD2022089
:1057000003F0CAFB002003F0A1FB94F82100012262
:10571000011901A8FAF7F9FD8DF8056094F8210048
:1057200029783A7801EBC0001838C1B201A803F01B
:105730000BFA002003F0B0FB99F80000DFF8FCA1A1
:1057400000EB40015AF82100016801A8FAF715FEA4
:10575000002101A8FAF7E5FD0222211DFAF7D5FD87
:105760008DF80B60002101A8FAF7DBFD74A1FAF7B0
:1057700004FE7E230222002101A8CDF8008003F060
:105780003DFA94F82100001F02281CD2022003F0E9
:1057900083FB002003F05AFB94F821000122011939
:1057A00001A8FAF7B2FD8DF8056094F82100297878
:1057B0003A7801EBC0004838C1B201A803F0C4F93F
:1057C000002003F069FB99F8000000EB40015AF853
:1057D0002100416801A8FAF7D0FD002101A8FAF7DD
:1057E000A0FD0222E11DFAF790FD8DF80B6000216B
:1057F00001A8FAF796FD52A1FAF7BFFD7E23042215
:10580000002101A8CDF8008003F0F8F994F82100F8
:10581000C01F02281CD2022003F03EFB002003F030
:1058200015FB94F821000122011901A8FAF76DFD7A
:105830008DF8056094F8210029783A7801EBC000D2
:105840006038C1B201A803F07FF9002003F024FB07
:1058500099F8000000EB40015AF82100816801A886
:10586000FAF78BFD002101A8FAF75BFD02225946E9
:10587000FAF74BFD8DF80B60002101A8FAF751FDF6
:105880002FA1FAF77AFD7E230622002101A8CDF888
:10589000008003F0B3F994F821000A3802281CD2E2
:1058A000022003F0F9FA002003F0D0FA94F8210066
:1058B0000122011901A8FAF728FD8DF8056094F876
:1058C000210029783A7801EBC0007838C1B201A8EC
:1058D00003F03AF9002003F0DFFA07B0BDE8F08FDB
:1058E000AE000020F4230020CA0000208E230020F8
:1058F000B90000203030302D30302D30302D303098
:10590000000000003239392D33392D33392D333928
:1059100000000000253033640000000025303264B0
:1059200000000000B2000020E8BD0108C9E8B1B8DD
:10593000BAC53A00A8000020A900002098BC0108C0
:105940006670730010B508F0C9FABDE81040032175
:105950004FF4B07005F0D4BE10B508F0D7FABDE82A
:10596000104003214FF4B07005F0CABE2DE9F84392
:1059700059A003220068009058496846FAF7C5FC10
:1059800000248DF803406846FAF700FD544D534E4D
:1059900002222883311D6846FAF7B7FC8DF80240D1
:1059A0006846FAF7F3FC00F0FF080222F11D684692
:1059B000FAF7ABFC8DF802406846FAF7E7FCC7B28D
:1059C000022206F10A016846FAF79FFC8DF80240B0
:1059D0006846FAF7DBFCC6B2288BFA2806D8B8F17D
:1059E0001E0F03D81E2F01D81E2E0AD93D483E494E
:1059F000007800EB400051F82000006802F0EEFC57
:105A000063E0C0B2394C687004EBC00000F2AA3108
:105A100080F8AA8380F8AB7380F8AC63001B00F5B4
:105A20006B7080B20122FAF775FF6878012204EBEF
:105A3000C003181B00F2AD3003F2AB3180B2FAF7AD
:105A400069FF6878012204EBC003181B00F2AE3036
:105A500003F56B7180B2FAF75DFF6878012204EB01
:105A6000C003181B00F56B7003F2AA3180B2FAF77D
:105A70001EFF6878012204EBC00000F2AB31001B6E
:105A800000F2AD3080B2FAF712FF6878012204EB21
:105A9000C003181B00F2AE3003F56B7180B2FAF749
:105AA00006FF687804EBC00090F8AA23424509D1AC
:105AB00090F8AB13B94205D190F8AC03B04201D1D4
:105AC000012000E0002002F09FFC03214FF4B070A1
:105AD00005F016FEBDE8F8832A2A2A008E2300204E
