:020000040800F2
:10000000902E01209901000805C10008BDB000082C
:1000100037BC00080D100008F91D010800000000A1
:100020000000000000000000000000008BE8000855
:100030008517000800000000FF0100088DEA000895
:10004000B3010008B3010008B3010008B3010008C0
:10005000B3010008B3010008B3010008B3010008B0
:10006000B3010008B3010008B3010008B3010008A0
:10007000B3010008B3010008B3010008B301000890
:10008000B3010008B3010008B3010008B301000880
:1000900011100008B3010008B3010008B301000803
:1000A000B3010008B3010008B3010008B301000860
:1000B000DDEB0008B301000885EC0008B30100087F
:1000C000B3010008B3010008B3010008B301000840
:1000D000B301000841FB000891FB0008B3010008D0
:1000E000B3010008B3010008B3010008B301000820
:1000F000B3010008B3010008B3010008B301000810
:10010000B3010008B3010008B3010008B3010008FF
:1001100029F60008B3010008B301000871ED0008DA
:10012000B3010008B3010008B3010008B3010008DF
:10013000B30100080000000000000000B301000847
:100140006D100008B3010008B3010008E3D60008F1
:10015000B3010008B3010008B3010008B3010008AF
:10016000B3010008B3010008B3010008B30100089F
:10017000B3010008E5D60008000000000000000000
:10018000B3010008DFF80CD000F0ECFA004800479B
:10019000195E0108902E0120064880470648004756
:1001A000FEE7FEE7FEE7FEE7FEE7FEE7FEE7FEE727
:1001B000FEE7FEE751EB000885010008EFF3108031
:1001C00072B6704780F3108870471D484FF0FF01EA
:1001D0000170002080F309881A48012101701A4833
:1001E0004FF08051016062B6FEE717484FF0805132
:1001F0000160704714484FF080510160704772B63B
:10020000EFF3098028B1203880E8F00F0F49096822
:10021000086000B50E4880475DF804EB0D480E49B4
:100220000A78027009480D490A680260106890E86F
:10023000F00F203080F309884EF0040E62B670474C
:1002400022ED00E00701002004ED00E02001002085
:1002500015CD000804010020050100202801002020
:100260002DE9F05F0546002092469B4688460646EB
:10027000814640241BE0284641464746224600F07E
:10028000CBF953465A46C01A914110D3114618462D
:10029000224600F0B2F92D1A67EB01084F462246BC
:1002A0000120002100F0A9F917EB00094E41201EA2
:1002B000A4F10104DFDC484631462A464346BDE846
:1002C000F09F40EA01039B0703D009E008C9121F11
:1002D00008C0042AFAD203E011F8013B00F8013B00
:1002E000521EF9D27047D2B201E000F8012B491E2C
:1002F000FBD270470022F6E710B513460A460446C3
:100300001946FFF7F0FF204610BD10B5044604E083
:100310000B7800F8013B03B1491C521EF8D220466D
:1003200010BDCAB2401E10F8011F8A4202D0002937
:10033000F9D100207047421C10F8011B0029FBD1A5
:10034000801A704710B5002200E0521C835C8C5C60
:10035000A34201D1002BF8D1D8B2E1B2401A10BDAE
:1003600030B504460020034600E05B1C934203D2F4
:10037000E05CCD5C401BF8D030BD034611F8012B8A
:1003800000F8012B002AF9D11846704770B50646CF
:1003900011F082FE046805460A220021304600F072
:1003A0004BF92C6070BD70B5064611F075FE0468FF
:1003B00005460A220021304600F03EF92C6070BD4F
:1003C0002DE9FE4F81EA030404F0004421F00041CE
:1003D00000944FF0000B23F0004350EA01045ED07C
:1003E00052EA03045BD0C3F30A54C1F30A552C4408
:1003F000A4F2F3340194A0FB0254C1F3130141F4BD
:100400008011C3F3130343F4801301FB024400FB88
:10041000034E840A970A44EA815447EA8357A4FBAF
:10042000076802958D0A05FB07854FEA932C04FBAC
:100430000C542705029D4FEA065847EA1637B5EBDC
:1004400008056EEB070C870E920E47EA811742EA09
:100450008312A7FB0201B6EB0B0164EB00042B0D2A
:1004600043EA0C335E1844EB1C50DA465146E7FB76
:100470000201C5F313044FEA0B3343EA14534FEA66
:100480000432019C43EA0603A4F10C040294009C8C
:10049000CDE900B400F017F903B0BDE8F08F0020FB
:1004A0000146F9E72DE9F04D81EA030404F0004B21
:1004B00021F0004514464FF0000A23F0004150EAB5
:1004C000050220D054EA01021DD0C5F30A570246A6
:1004D000C5F31303C1F31300C1F30A5640F48015AA
:1004E00043F48013A7EB0608101BD64608F2FD382C
:1004F00073EB050002D308F1010801E092185B419B
:10050000B8F1000F03DA00200146BDE8F08D0020AD
:100510004FF48011064684460EE0171B73EB050767
:1005200005D3121B63EB050306434CEA010C490893
:100530004FEA300092185B4150EA0107EDD152EAD0
:10054000030012D082EA040083EA0501084305D0C3
:10055000101BAB4106D20122002306E000224FF01F
:10056000004302E06FF0010253101AEB06004CEB5F
:10057000085110EB0A0041EB0B01BDE8F04D00F013
:1005800093B80EB540F2334102910021CDE900113C
:100590000A460B4600F097F803B000BDC1F30A52BB
:1005A00010B5C1F3130140F2FF3341F480119A42B8
:1005B00001DA002010BD40F233439A42A2F23342E6
:1005C00003DC524200F028F810BD904010BD30B559
:1005D0000B46014600202022012409E021FA02F501
:1005E0009D4205D303FA02F5491B04FA02F528449B
:1005F000151EA2F10102F1DC30BD202A04DB203AF5
:1006000000FA02F1002070479140C2F1200320FA65
:1006100003F3194390407047202A04DB203A21FA63
:1006200002F00021704721FA02F3D040C2F120020B
:1006300091400843194670472DE9F04791460F460F
:1006400080460446002614F8015B2DB100F09CF8AA
:100650000068405DC007F6D12B2D02D02D2D18D09B
:10066000641E4A463946204600F092F827B13968A0
:10067000A14201D1C7F8008071054FF002040BD5EB
:100680004042002803DD11F007FD0460A007BDE82B
:10069000F08746F48066E4E70028F8DA11F0FCFC05
:1006A00004606FF00040F2E710B5141E73F100040F
:1006B00008DA401C41F1000192185B411A4301D154
:1006C00020F0010010BD2DE9F04D92469B4611B17E
:1006D000B1FA81F202E0B0FA80F220329046FFF7E0
:1006E0008CFF04460F4640EA0A0041EA0B015346DC
:1006F0005A46084313D0114653EA010019D0C8F1F5
:1007000040025046FFF788FF05460E4650465946C0
:100710004246FFF772FF084305D0012004E020465F
:100720003946BDE8F08D0020054346EAE0762C43CB
:1007300037430A986305E40AA0EB08000022FD0A8B
:1007400044EA47540A3002D500200146E9E7010592
:1007500010196941DDE9084500196941BDE8F04D0E
:10076000A2E70000064C074D06E0E06840F00103F8
:1007700094E8070098471034AC42F6D3FFF706FD23
:100780004C1102086C11020800487047ECF6010891
:100790002DE9F05F82460078002715468B460AF166
:1007A0000104B946302801D09DB113E014F8010BC3
:1007B0000127782803D0582801D045B10AE00DB1AF
:1007C000102D07D10027102514F8010B02E0082591
:1007D00000E00A250026B0460EE005FB080005FBF8
:1007E00006F1012701EB10461FFA80F8B6F5803FAD
:1007F00000D3B94614F8010B294600F018F8002878
:10080000EBDABBF1000F05D00FB1641E00E05446D7
:10081000CBF80040B9F1000F06D011F03DFC0221E9
:100820000160C81EBDE8F09F48EA0640FAE73A2892
:1008300000D2303820F02002412A01D3A2F1370043
:10084000884201D34FF0FF30704770B58C1810F814
:10085000015B15F0070301D110F8013B2A1106D105
:1008600010F8012B03E010F8016B01F8016B5B1E1F
:10087000F9D12B0705D40023521E0DD401F8013BFA
:10088000FAE710F8013BCB1A921C03E013F8015B66
:1008900001F8015B521EF9D5A142D8D3002070BDEA
:1008A00010B50AF02FFCBDE8104007F0D0BE70B5BF
:1008B00015460E46044608E02046641CA4B200F02B
:1008C00007F86D1E06F8010BADB2002DF4D170BD16
:1008D00010B504460AF0BCFCA0200AF089FC0AF01E
:1008E000FBFC200A0AF084FC0AF0F6FCE0B20AF0F5
:1008F0007FFC0AF0F1FC0AF0ABFCA1200AF078FCC6
:100900000AF0EAFC00200AF043FC04460AF0C2FCAC
:10091000204610BD70B514460D46064606E02978FF
:10092000304600F007F8761CB6B26D1C641EA4B207
:10093000F5D270BD70B50D4604460AF089FCA020C2
:100940000AF056FC0AF0C8FC200A0AF051FC0AF032
:10095000C3FCE0B20AF04CFC0AF0BEFC28460AF0E8
:1009600047FC0AF0B9FC0AF095FCBDE870400A208B
:1009700012F0D6BC70477047014809F006B8000075
:100980006819002070477047704700007CB5214807
:10099000214C4FF48075C1684FF47A7048430A22A5
:1009A000B0FBF2F00190206899B1A1F5C3329F3AF3
:1009B00009D069460BF031FD184B1949C6074FF0B5
:1009C00000020BD108E06B46002229460BF0CAFC5E
:1009D0007CBD6B460122F8E7C00304D50A601A709B
:1009E0006B46002213E00868019EB04203D200F17A
:1009F000010008607CBDFDD100F1010008604FF0EE
:100A0000010018709A7015F0BBF96B460122294657
:100A10002068DBE7F423002078010020600000203C
:100A20009C0000203EB525490A20254C4A8BB2FB8C
:100A3000F0F2019289684FF47A724A43B2FBF0F007
:100A40000290E06981B1A1F5C3329F3A06D06946B0
:100A50000BF0E3FC1B49C2070BD108E06B460022F8
:100A600004210BF07FFC3EBD6B460122F8E7C20378
:100A700004D500206B46024608601CE04007F2D413
:100A80000868401C0860019A4FF48051904202D1DE
:100A90006B46012210E0029A9042E4D96B46002294
:100AA000E0690BF05FFC6946E0690BF0B6FC4002C0
:100AB000D9D46B4601220421E069D2E7F423002057
:100AC0005C0100209800002010B508F06DFF0DF0CB
:100AD000EDFF00F06FFE4FF47A7012F021FCFFF78B
:100AE000DFFE0AF087FF0EF057F80DF061F90AF00B
:100AF00091FF0AF0CBFF0AF0A3FF17F0CBF80AF042
:100B000043FC0EF0B9FF11F0FFF90EF03FFD00F0CD
:100B100049FBBDE810400DF0A5B900002DE9FF4FDD
:100B20002D20B0FBF1F081B0491E01989B4600EBEF
:100B3000800202EB401090FBF1F00004000CC6B202
:100B400000D1032603980025012100F1010900F1DD
:100B5000020801EBD604B5EBD60F11D0AC420FD092
:100B60002A460020039907F025FD09F0FF012A46D7
:100B7000FF2007F01FFD08F0FF012A46002033E0A8
:100B8000F008DFF84CA106F0070700901AF80700FC
:100B9000009A039907F00EFD1AF8070009F0FF010B
:100BA000C0F1FF00009A07F005FD08F0FF011AF8F8
:100BB0000700009A07F0FEFC062C17D20AF1090A7A
:100BC00022461AF80700039907F0F4FC1AF8070008
:100BD000224609F0FF01C0F1FF0007F0EBFC2246BE
:100BE00008F0FF011AF8070007F0E4FC6D1CEDB2F5
:100BF000062DB0D3012007F065FF01980025401CA9
:100C0000C6B26420B6FBF0F4ABF10C00C1B23CB14B
:100C100004F13000C0B2072207F0C2FD012503E055
:100C20000722202007F0BCFD2720444306EB840068
:100C3000C4B20A26B4FBF6F2ABF1060002B925B144
:100C4000C1B23032D0B2072202E0C1B20722202066
:100C500007F0A6FDB4FBF6F006FB10403030C0B242
:100C60000722594607F09CFD1A4F3878012828D9E9
:100C7000002422E01849001B0844624210F8010CCD
:100C80000BEBC205401CC0B2B0FBF6F106FB110035
:100C9000A5F108013030C9B2C0B2072207F080FDCB
:100CA000681EC1B20722102007F084FCE9B20722B7
:100CB000102007F07FFC641CE4B23878411E8C429F
:100CC000D8DB05B00020BDE8F04F07F0FBBE000008
:100CD0006FB00108B40000207A230020F8B500248A
:100CE00015460E460746012B04D07823009407F0E2
:100CF000C1FDF8BD012007F00BFF78232A463146DD
:100D00003846009407F0B6FDBDE8F840002007F033
:100D1000FFBE00002DE9F047DFF8C8A0DFF8C8806B
:100D20009AF80000032803D9032288F8002001E084
:100D300088F800002D4900242D4F09782D4E0129F7
:100D400002D0022905D010E00CF0A4FE3C703470F3
:100D50000FE098F800103278491E8A4200DD3470A6
:100D60003A78411E8A4200DD3C70397832789142EF
:100D700002D33878317800E0511A401AC4B2002505
:100D8000DFF8749020E03878844208D13178490641
:100D90000A0ED9F80010012351F8200006E0680679
:100DA000020ED9F80000002350F824000021FFF7BC
:100DB00095FF9AF80000401E844201D1002401E012
:100DC000641CE4B26D1CEDB298F800008542DAD3E1
:100DD0009AF800103878BDE8F04778237D22FFF7B5
:100DE0009DBE0000B8000020BA000020AE00002028
:100DF000B7000020B9000020BC0000202DE9F0471A
:100E0000DFF8E480374E98F800403178601EC2B2B7
:100E100071B1481E3070354F354D3B7828684BB165
:100E20005A06120E5B1E3B7050F82100002337E07B
:100E30003270F0E7032C2ED934784FF0000A524676
:100E4000A94650F8240001235146FFF747FF98F8C0
:100E50000000401E844201D1002401E0641CE4B281
:100E600001256806020ED9F800000023194650F843
:100E70002400FFF733FF98F80000401E844201D1A0
:100E8000002401E0641CE4B26D1CEDB2032DE8D334
:100E900087F800A012E03A7050F8210000231A46AB
:100EA0000021FFF71BFF387831784006020E2868D2
:100EB000012350F821000021FFF710FF78237D2245
:100EC00098F800103078FFF729FE0B490948097897
:100ED00000EB4100002130F8020CBDE8F0470AF0B9
:100EE0004BBA0000B7000020B8000020B900002075
:100EF000BC00002064230020B30000202DE9F0474F
:100F0000DFF8F0803A4E002498F800203178501E27
:100F1000814201D1347001E0481C30703748364FAF
:100F2000374D90F800C03B78ACF1010C2868634560
:100F300004D05A06120E5B1C3B7034E06FF00103C4
:100F4000032A2CD9347899460422AA4650F8240062
:100F500001230021FFF7C2FEBCB1641EE4B20225EA
:100F600009EB4500C2B2DAF800000023194650F838
:100F70002400FFF7B3FE6CB1641EE4B26D1E15F0E1
:100F8000FF05EDD1022038701EE098F80000401EE9
:100F9000C4B2E4E798F80000401EC4B2EEE703EBE9
:100FA00042023C70D2B250F8210000231946FFF7EC
:100FB00095FE387831784006020E2868012350F8F3
:100FC00021000021FFF78AFE78237D2298F8001087
:100FD0003078FFF7A3FD0C490A48097800EB41007F
:100FE000002130F8020CBDE8F0470AF0C5B9000056
:100FF000B7000020B8000020B9000020BA0000208F
:10100000BC00002064230020B3000020FEE70000A5
:1010100070B5134D00240A222146284607F0DEFF52
:10102000696BA5F10C000A8802800A7B8270097C3A
:10103000C17006E06A6B04F11401515C0219641C72
:101040001171C178A142F5D8074C064920680DF00E
:10105000F9FC2068BDE8704001490C3911F0FCBD75
:1010600068CC0020006400409401002070B5134D4E
:1010700000240A222146284607F0B0FF696BA5F13B
:1010800050000A8802800A7B8270097CC17006E0E9
:101090006A6B04F11401515C0219641C1171C1786E
:1010A000A142F5D8074C064920680DF0CBFC20681A
:1010B000BDE870400149503911F0CEBDACCC0020E4
:1010C00000680040940100200D49C0F8AC100D49A3
:1010D00040F8801F0C4941600C4981600C49C16097
:1010E0000C49C0F84C110C49C0F850110B49C0F81C
:1010F000B8110B49C0F854110A49C0F8581170478B
:10110000C5BA0008C7BA000833BC0008B1BB000864
:1011100035BC000831BC00082DBC00082FBC0008FD
:1011200001BC000809BC000870B5094DFF231A4630
:1011300005F5807605E010F8014B54402A5D5A40D1
:10114000335D491E89B2F6D242EA032070BD000029
:101150006AF4010810B5012901D0022902D10C312D
:10116000C9B2401E4B1C03EB43030524B3FBF4F34D
:1011700002EB41011944C217014400EB927201EBEA
:10118000A201642290FBF2F2891A4FF4C87290FB1C
:10119000F2F00844072190FBF1F201FB1200401C21
:1011A000C0B210BD70B514F0A9FC1A4C184D2068DF
:1011B000C0F8E051FFF788FF0021206817F0D4F84D
:1011C0007F21206817F028F80521206817F0CCF857
:1011D0001021284611F07EFD10210F4811F07AFDF4
:1011E00000204FF48031401C8842FCD30020401C7A
:1011F0008842FCD30020401C8842FCD30020401CC5
:101200008842FCD30020401C8842FCD370BD000003
:10121000006400409401002000680040C821484359
:101220000249B0FBF1F002494880704740420F008C
:101230007C0000202DE9F047012714F023FD20F069
:10124000C0004FF000093F2802D0314AA2F80090B8
:10125000304C314D314E0B3807283ED2DFE800F0DC
:101260000B211A04282F3600208800EB800005EBA4
:101270008000408805E0208800EB800005EB8000BE
:101280008088208000EB800005EB800000693060E2
:10129000804723E0208800EB800005EB8000C088B9
:1012A000EFE7208800EB800005EB80000089E8E78D
:1012B000208800EB800005EB80008089E1E7208832
:1012C00000EB800005EB80004089DAE7208800EB26
:1012D000800005EB8000C089D3E70027DFF840805D
:1012E00098F8000068B1208800EB800005EB8000D2
:1012F00000693060804798F80010042904D088F80D
:1013000000903846BDE8F087012188F80010F8E722
:10131000C8000020B00000204CBA0108C400002022
:10132000AE0000202DE9F04F8FB0044607F02AFAF6
:1013300094A104A8FFF721F81026802301220021A0
:1013400004A8009607F096FA234691A2042104A867
:1013500010F07AFE90A10DF11300FFF70EF8802334
:101360000422002104A8009607F084FA00226423D6
:10137000114610460BF004FDDFF82482894F34B18A
:1013800098F89703A04202D3254687490BE098F8C6
:101390009703A0420AD298F898130144A14205D3BA
:1013A000201A8249C5B238680DF04CFB05F5C060C3
:1013B0000E9080380B908DF830500122FB21204692
:1013C0000EF050F8042000260DF1280A0A90CDE90D
:1013D00000A6DFF8D0914FF4945B02960EAB012289
:1013E0005946D9F8000011F067F9CDE900A6029638
:1013F0000BAB02225946D9F8000011F05DF901202B
:101400000A90CDE900A602960CAB03225946D9F802
:10141000000011F051F908EBC407C246B7F8A80361
:101420000990062002210DF12408CDE90010CDE934
:101430000286002346F206022946D9F8000017F07A
:10144000F5F9002873D1284600F0F2F800286FD093
:101450009AF89E03B34601260DF1040C052100966F
:101460000990D1468CE80209DFF838A1334646F2EC
:1014700006022946DAF8000017F0D8F900287ED1D4
:10148000284600F0D5F8002876D099F89F03D94671
:101490004FF0050B0123CDE9003B0990CDE902890E
:1014A000022346F2060229465646DAF8000017F0F3
:1014B000BDF9E0BB284600F0BBF800285CD0D7F8A7
:1014C000AA03CA4620F07F400723042209908DE832
:1014D0000C05032346F206022946B146306817F090
:1014E000A5F920BB284600F0A3F8002844D0B7F89F
:1014F000A6035646CDE902864FF0010A0990CDE9D0
:1015000000AB042346F206022946D9F8000017F082
:101510008DF960B9284600F08BF800282CD097F898
:10152000AD03052346F206022946099001E026E0B4
:1015300022E0CDE90286CDE900ABD9F8000017F032
:1015400075F9E0B9284600F073F8002814D002229B
:10155000FB2120460DF086FF0DA8009014484FF4A3
:101560007A7382224FF0007100680AF041FE9DF804
:1015700034000A2803D001200FB0BDE8F08F00200E
:10158000FAE70000D5FDD4DAC5E4D6C300000000B8
:101590002530336400000000BAC5C9E8B1B80000C6
:1015A000F423002094010020006400400068004003
:1015B0007801002010B586B004460CF06BFA07F0F5
:1015C000E1F8234613A2042101A810F03DFD13A168
:1015D0000DF10700FEF7D1FE102480230122002127
:1015E00001A8009407F046F90EA101A8FEF7C5FE78
:1015F00080230422002101A8009407F03BF9002376
:101600000122194618460BF0BBFB0CF00DFA06B090
:1016100010BD00002530336400000000BAC5C9E8E1
:10162000B1B80000C5E4D6C3B3C9B9A62100000013
:10163000F8B50B4D0646642400220A2311461046D5
:101640000BF09EFB6A463146286813F053FF0128D1
:1016500004D0641E2404240CEED10020F8BD000048
:101660009401002030B40A46D0F89C10D0F8A04075
:101670004FF0FF3351F8221024F81230C1F3074124
:101680000122431883F8B020D0F8AC2030BC1047BA
:101690002DE9F04F9946DDE9094C4FF0FF3BDDF8AD
:1016A0002CA048E0ACEB02035BB20D78002B02DD0E
:1016B00005FA03F503E0C3F1000325FA03F5EEB2E2
:1016C00002DDCCF1080301E0C2F10803DBB2834282
:1016D00000D903460CEB03074FF0FF0808FA07F5A3
:1016E000CCF1080C28FA0CF845EA080594F800C07B
:1016F000AE430CEA050C1A444CEA060CD2B284F84C
:1017000000C0072A07D90022B9F1000F01D05D46B9
:1017100000E00125294407F0FF0CBCF1070F08D9B0
:101720004FF0000CBAF1000F01D05D4600E001253A
:101730002C44C01AC0B20028B4D1BDE8F08F10B557
:1017400000210A4600EB8103491CC3F87C230F29C2
:10175000F8D300214FF400734418491C84F81C216D
:101760009942F9D30270427001218170C0F8B82308
:10177000017640238371427680F81C2380F81D1384
:10178000002010BD70470000411C0DD0084AB2F97E
:101790000010884201D1491E1180054A002100EB4A
:1017A0004000083202F830104FF0FF307047000060
:1017B0009801002038B5264900200A6842F001024D
:1017C0000A600968234C01F0010100914FF080414B
:1017D000E060C4E90010204D482129702061A0601C
:1017E000204608F0D3FF2068016841F00401016041
:1017F0002068016A41F21112114207D1016A921068
:10180000114203D1016821F001010160062008F0B6
:101810003FF9022200211C2008F01AF91C2008F0D0
:1018200009F90E480E490068B0FBF1F14FF47A70E7
:101830004143012068804FF0E020026942F002023B
:1018400002614161016941F00101016138BD00009F
:101850004038024024230020A20000202000002065
:1018600040420F0010B50022114607A006F0A8FF65
:101870000222002107A006F0A3FF0422BDE81040C9
:10188000002107A006F09CBF4275696C6420546972
:101890006D653A00417567203232203230323000B7
:1018A00031333A32373A3131000000000CF0BCB825
:1018B0002DE9F843234D2449DFF890802878244F00
:1018C00000EB400001EB8002137988F8003051F8FA
:1018D0002000386006F056FF1E481F4C0078012893
:1018E00005D10CF0D7F81D49002020700870102693
:1018F00000962178386800227E2350F82100114696
:1019000006F0B8FF16482178022250F82100302155
:1019100007F07AF800962878124900EB40007E2301
:1019200051F8200006220021406806F0A3FF98F835
:101930000010207801B07823BDE8F0437D22FFF746
:10194000EDB80000B2000020A0B90108B8000020E6
:10195000BC000020AE000020B7000020B90000202D
:1019600030BA010818BA010838B5164C164D20785F
:1019700000B928780022401E2070102000901348E3
:1019800021787E23006850F82100114606F072FF8E
:101990000F482178022250F82100302107F034F856
:1019A00078237D2229782078FFF7B8F80A4909487A
:1019B000097800EB4100002130F8020CBDE8384006
:1019C00009F0DABCB7000020B8000020BC000020FD
:1019D00030BA010864230020B300002038B5194D47
:1019E000174C29782078491E884201D1002000E058
:1019F000401C2070102000901348217800220068BD
:101A00007E2350F82100114606F034FF0F4821785C
:101A1000022250F82100302106F0F6FF78237D22C3
:101A200029782078FFF77AF80A490948097800EB05
:101A30004100002130F8020CBDE8384009F09CBCA0
:101A4000B7000020B8000020BC00002030BA010818
:101A500064230020B3000020154810B50178164813
:101A6000144A0629007802EB40001DD2DFE801F09D
:101A700003080D10151506F085FE012110200FE05A
:101A800006F080FE012118200AE00121D02007E0A5
:101A900006F078FE0221202002E030F8020C00213E
:101AA000BDE8104009F068BC00210846F8E70000D6
:101AB000B700002064230020B30000200BF0B4BF67
:101AC000704770477047000008B506F05BFE1020B5
:101AD0000090074807497E230078032200EB40006E
:101AE00051F820000021006806F0C4FE08BD000087
:101AF000B200002088B90108704770470BF094BF0E
:101B00000BF092BF704770477047000008B506F0B1
:101B100039FE1448154A164B007800EB4001124874
:101B200000EB8100106002791A70124A00687E236F
:101B30001060102000901048062250F8210000216B
:101B4000406806F097FE0D480078022806D10BF099
:101B5000A1FF0B49002008700A490870BDE8084041
:101B6000FFF7D8B8B200002020B80108C00000205C
:101B7000B8000020BC00002018BA0108AE00002008
:101B8000B7000020B9000020FFF738B9FFF7B6B959
:101B90000B48007850B101280CD00B49094809784E
:101BA00000EB4100002130F8020C06E002214FF466
:101BB000947002E002214FF4987009F0DDBB000040
:101BC000B700002064230020B30000200BF02CBFDE
:101BD000704770477047000038B51D4800780128ED
:101BE00018D11C4800241CA104701C48FEF7C5FB3A
:101BF0001A481BA12130FEF7C0FB1A481AA2042183
:101C000090F897331548223810F01EFA13482238FE
:101C100080F8214006F0B6FD1020009014481549C8
:101C20007E230078012200EB400051F82000124989
:101C3000097850F82100002106F01CFE01B01023A5
:101C4000BDE830407E22042133200BF0A5BF000008
:101C5000AE000020B900002030303000B02300205A
:101C600039393900F42300202530336400000000A6
:101C7000B2000020D0B90108B700002010B50BF069
:101C800035FF0321BDE81040F02009F075BB10B509
:101C90000BF044FF0321BDE81040F02009F06CBBBD
:101CA0002DE9F0411848FEF771FB84B27D2C0AD96A
:101CB00016481749007800EB400051F820000068F2
:101CC00006F0C8F919E0134D40F2993605F2973144
:101CD00085F8974301220F463046FEF71BFE01228E
:101CE00039463046FEF7E3FD95F89703A04201D14F
:101CF000012000E0002006F0C3F9BDE8F041032117
:101D0000F02009F039BB00008E230020B200002033
:101D1000F8B80108F42300200BF086BE7047704726
:101D20007047000038B51D480078012818D11C48BC
:101D300000241CA104701C48FEF71FFB1A481BA1BD
:101D40002130FEF71AFB1A481AA2042190F89833A2
:101D50001548223810F078F91348223880F82140CD
:101D600006F010FD10200090144815497E230078DD
:101D7000012200EB400051F820001249097850F888
:101D80002100002106F076FD01B01023BDE83040AF
:101D90007E22042133200BF0FFBE0000AE000020A5
:101DA000B900002030303000B0230020393939002C
:101DB000F42300202530336400000000B20000202E
:101DC000D0B90108B700002010B50BF08FFE032139
:101DD000BDE81040F82009F0CFBA10B50BF09EFE18
:101DE0000321BDE81040F82009F0C6BA2DE9F04102
:101DF0001848FEF7CBFA84B27D2C0AD91648174949
:101E0000007800EB400051F82000006806F022F94D
:101E100019E0134D40F29A3605F5667185F898433E
:101E200001220F463046FEF775FD01223946304645
:101E3000FEF73DFD95F89803A04201D1012000E096
:101E4000002006F01DF9BDE8F0410321F82009F05B
:101E500093BA00008E230020B2000020F8B80108D9
:101E6000F42300200BF0E0BD70477047704700007E
:101E70002DE9FE43424F0024424E3878424D4FF048
:101E80002008012827D1414841A1047005F1220012
:101E9000FEF773FA41A105F14300FEF76EFA85F8EB
:101EA0002A40472085F84B000120F082302028701E
:101EB00068703120A87085F803802D21297169711F
:101EC0003E213948A97185F8078090F825022872CB
:101ED0006C7285F82140387803282CD195F82100C0
:101EE000082828D00322284901A8FEF70EFA8DF809
:101EF00007402548FEF74AFA84B2FA2C12D92B483B
:101F00002B49007800EB400051F82000006806F0F3
:101F1000A1F8F48A27A2234604211B4810F094F864
:101F200085F80380F08AA04205D01F48F48220443F
:101F300090F82402287206F025FC102000907E23E1
:101F4000012200211DA006F095FC10237E22042111
:101F50001B200BF021FE95F82100082802D1022059
:101F600006F0D6FD287A1949042251F820005B2199
:101F700006F026FC002006F0CBFDBDE8FE83000045
:101F8000AE000020CA0000208E230020B9000020EF
:101F9000303030202D2D3E203000000032393920E5
:101FA0002D2D3E2078000000F4230020B2000020F8
:101FB000F8B801082530336400000000C9E8B1B862
:101FC000BAC52020C6B4D2F40000000064E30108C2
:101FD00010B50BF08BFDBDE8104003214FF4A0704D
:101FE00009F0CAB910B50BF099FDBDE81040032106
:101FF0004FF4A07009F0C0B92DE9FC4103221F493C
:102000006846FEF782F900208DF803001B48FEF7B2
:10201000BDF980B2FA280AD919481A49007800EBAC
:10202000400051F82000006806F014F81EE0164A3F
:10203000124D1418A71A297A84F8241204F509718C
:1020400007F226270E46B8B20122FEF763FC31469E
:10205000B8B20122FEF72BFC287A94F824128842A9
:1020600001D1012000E0002006F00AF803214FF41E
:10207000A07009F081F9BDE8FC8100008E230020EA
:10208000B2000020F8B80108F42300200BF0CCBC0B
:10209000704770477047000008B506F073FB15489D
:1020A000164A174B007800EB4001134800EB810003
:1020B000106002791A70134A00687E2310601020A5
:1020C00000901148062250F821000021806806F097
:1020D000D1FB0E480078022808D10BF0DBFC0C483D
:1020E0000C4990F89F0308700B490870BDE8084040
:1020F000FEF710BEB200002008B80108C0000020A2
:10210000B8000020BC00002018BA0108AE00002072
:10211000F4230020B7000020B9000020FEF76EBEB7
:10212000FEF7ECBE2DE9F0410BF0B4FC06F02AFB03
:102130000F48104D40F2A136047805F29F3185F822
:102140009F4301220F463046FEF7E4FB0122394649
:102150003046FEF7ACFB95F89F03A04201D1012069
:1021600000E0002005F08CFFBDE8F0410BF05CBC06
:10217000B7000020F42300200BF056BC70477047D6
:10218000704700000D4808B50078012804D10C49BB
:10219000002008700B49087006F0F4FA1020009037
:1021A00009480A497E230078032200EB400051F8D9
:1021B00020000021006906F05DFB08BDAE00002094
:1021C000B7000020B9000020B200002018BA0108B2
:1021D0007047704710B506F02BFD012005F050FF49
:1021E0000BF022FC0221BDE81040102009F0C4B819
:1021F0000BF01ABC704770477047000008B506F036
:10220000C1FA0F48104A114B007800EB40010D480D
:1022100000EB8100106002791A700D4A00687E237D
:102220001060102000900B48062250F82100002179
:10223000406806F01FFBBDE80840FEF76BBD0000DC
:10224000B200002080B80108C0000020B8000020C3
:10225000BC00002018BA0108FEF7D0BDFEF74EBE44
:102260000D4810B5007850B101280DD00C490B482D
:10227000097800EB4100002130F8020C08E00BF077
:1022800009FC0121D82003E00BF004FC0121E0202F
:10229000BDE8104009F070B8B700002064230020AA
:1022A000B30000200BF0C0BB7047704770470000C0
:1022B00008B506F067FA1548164A174B007800EB88
:1022C0004001134800EB8100106002791A70134A34
:1022D00000687E231060102000901148062250F8FC
:1022E00021000021806806F0C5FA0E480078022817
:1022F00008D10BF0CFFB0C480C4990F89E030870F6
:102300000B490870BDE80840FEF704BDB20000208C
:10231000F0B70108C0000020B8000020BC00002079
:1023200018BA0108AE000020F4230020B7000020F6
:10233000B9000020FEF762BDFEF7E0BD2DE9F041D7
:102340000BF0A8FB06F01EFA0F48104D4FF468760C
:10235000047805F29E3185F89E4301220F463046EF
:10236000FEF7D8FA012239463046FEF7A0FA95F872
:102370009E03A04201D1012000E0002005F080FE74
:10238000BDE8F0410BF050BBB7000020F423002063
:102390000BF04ABB70477047704701214FF4E8705B
:1023A00008F0EABF704770477047000070B53048CA
:1023B000304E314C007886B0012806D12F490020DC
:1023C000307008702E492079087006F0DBF92D482E
:1023D0002DA20421C38901A80FF036FE2CA10DF116
:1023E0000700FDF7CAFF102580230122002101A864
:1023F000009506F03FFA28A101A8FDF7BEFF802353
:102400000322002101A8009506F034FA3078254D0A
:10241000F0B1002006F07CFB2878062200EB40009B
:10242000102154F82000006806F0CAF9012006F0D7
:102430006FFB2878062200EB4000502154F8200062
:10244000406806F0BDF9002006F062FB06B070BDE2
:10245000012006F05DFB2878062200EB40001021E9
:1024600054F82000006806F0ABF90020DFE7000018
:10247000AE000020B700002070B90108B9000020AC
:10248000B8000020CA00002025303364000000009E
:10249000BAC5C9E8B1B80000C5E4D6C3CAA7B0DC64
:1024A00021000000B200002010B509F0C5FBBDE816
:1024B000104003214FF4EC7008F05EBF10B509F036
:1024C000D1FBBDE8104003214FF4EC7008F054BF7D
:1024D0000848007840B1084AD089518A884202D21F
:1024E000401CD08100E0D181012140F2D11008F0E0
:1024F00043BF0000B7000020CA000020F8B5214803
:102500000078012821D12048002620A1067021480A
:10251000FDF733FF1F4820A12130FDF72EFF204D8E
:102520001C4820A22B8A042122380FF08DFD194C63
:102530002D20223C1BA2E0706B8A0421201D0FF08D
:1025400083FD84F821600120287006F01BF910201B
:102550000090164816497E230078012200EB4000C7
:1025600051F820001349097850F82100002106F0A5
:1025700081F901B01023BDE8F0407E220421232020
:102580000BF00ABBAE000020B90000203030302D27
:1025900030303000B02300203939392D3939390035
:1025A000CA0000202530336400000000B200002083
:1025B000D0B90108B700002010B50BF097FABDE8BC
:1025C000104003214FF4E87008F0D6BE10B50BF0B0
:1025D000A5FABDE8104003214FF4E87008F0CCBE26
:1025E00010B586B0032225496846FDF78EFE684681
:1025F000FDF7CCFE224C214903222082091D6846AA
:10260000FDF783FE6846FDF7C1FE80B26082218A35
:10261000FF2901D8FF280AD91A481B49007800EB86
:10262000400051F82000006805F014FD13E0207808
:1026300001280CD1E1810AE0C0B2FEF773FE2070E0
:1026400068B1A07BFEF7B6FFE089401CE081E0891D
:10265000618A8842F0D903214FF4E87009E00B4801
:102660000021006815F0F2FA0BF0DCFC04214FF4B5
:10267000EC7008F081FE06B010BD00008E23002033
:10268000CA000020B2000020F8B801089401002020
:102690000BF0CAB970477047704700000D4808B585
:1026A0000078012804D10C49002008700B490870FB
:1026B00006F068F81020009009480A497E23007847
:1026C000032200EB400051F820000021006906F0D1
:1026D000D1F808BDAE000020B7000020B9000020EE
:1026E000B200002018BA01087047704710B50BF00F
:1026F0008BFC012005F0C4FC0BF096F90221BDE82B
:102700001040182008F038BE0BF08EB970477047A3
:102710007047000038B51B480078012814D11A48CA
:1027200000241AA104701A48FDF727FE184819A1C1
:102730002130FDF722FE164814A12238FDF71DFEB8
:102740001348223880F8214006F01CF81020009031
:10275000114812497E230078012200EB400051F815
:1027600020000F49097850F82100002106F082F876
:1027700001B01023BDE830407E22042133200BF04D
:102780000BBA0000AE000020B9000020303030004D
:10279000B023002039393900B2000020D8B7010831
:1027A000B700002010B50BF0A1F9BDE810400321DF
:1027B0004FF4C47008F0E0BD10B50BF0AFF9BDE800
:1027C000104003214FF4C47008F0D6BD38B51E4840
:1027D000FDF7DCFD84B2FA2C0AD91C481C490078AC
:1027E00000EB400051F82000006805F033FC25E0C4
:1027F00018486B4600224FF48041006809F0B2FD92
:10280000E0B20CF0BBFE144D286809F027FF8DF8EC
:1028100000006A464FF47A71286809F02DFF9DF890
:1028200000100A2905D00178A14204D04078FD2883
:1028300001D0002000E0012005F022FC03214FF42C
:10284000C47008F099FD38BD8E230020B20000202E
:10285000F8B8010878010020740100200BF0E4B8FA
:102860007047704770470000F8B528480078012885
:102870002FD12748002627A106702948FDF77DFDA6
:10288000274828A12130FDF778FD254C3220223C35
:1028900000222070302060702549264807F02CFC6B
:1028A000234D25A20321EB78A01C0FF0CDFB2F2791
:1028B00027716B7820A20321601D0FF0C5FBE77123
:1028C000AB781DA2032104F108000FF0BDFB84F8D2
:1028D000216005F057FF10200090194819497E2308
:1028E0000078012200EB400051F8200016490978D9
:1028F00050F82100002105F0BDFF01B01023BDE814
:10290000F0407E22042117200BF046B9AE000020D3
:10291000B9000020323030302F30302F30300000FE
:10292000B0230020323039392F31392F33390000AC
:10293000CA0E002044DE0020253032640000000072
:10294000B200002080B80108B700002010B50BF0DD
:10295000CDF80321BDE81040E02008F00DBD10B512
:102960000BF0DCF80321BDE81040E02008F004BDC6
:1029700038B51BA01B4D006800900222A91C6846B8
:10298000FDF7C3FC6846FDF701FD174C0222691DE7
:10299000E0706846FDF7B9FC6846FDF7F7FC60702B
:1029A000022205F108016846FDF7AFFC6846FDF715
:1029B000EDFCC2B2A270E078617800F5FA60FEF733
:1029C000C9FB207000222146084807F039FC01208D
:1029D00005F056FB0321E02008F0CEFC38BD0000D6
:1029E0002A2A00008E230020CA0E002044DE002088
:1029F0000BF01AB870477047704700002DE9FE438E
:102A0000424F0024424E3878424D4FF020080128B2
:102A100027D1414841A1047005F12200FDF7ADFC2A
:102A200041A105F14300FDF7A8FC85F82A401920D3
:102A300085F84B000120B08230202870687031206A
:102A4000A87085F803802D21297169713E213948CC
:102A5000A97185F8078090F8250128726C7285F8B5
:102A60002140387803282CD195F82100082828D057
:102A70000322284901A8FDF748FC8DF807402548A6
:102A8000FDF784FC84B2FA2C12D92B482B4900782C
:102A900000EB400051F82000006805F0DBFAB48A32
:102AA00027A2234604211B480FF0CEFA85F80380A5
:102AB000B08AA04205D01F48B482204490F8240177
:102AC000287205F05FFE102000907E230122002175
:102AD0001DA005F0CFFE10237E2204211B200BF049
:102AE0005BF895F82100082802D1022006F010F8C2
:102AF000287A1949042251F820005B2105F060FE74
:102B0000002006F005F8BDE8FE830000AE000020BE
:102B1000CA0000208E230020B90000203030302071
:102B20002D2D3E2030000000393939202D2D3E203A
:102B300078000000F4230020B2000020F8B801085B
:102B40002530336400000000C9E8B1B8BAC52020C0
:102B5000D7D6B7FB00000000FCE2010810B50AF070
:102B6000C5FFBDE8104003214FF49C7008F004BC81
:102B700010B50AF0D3FFBDE8104003214FF49C705C
:102B800008F0FABB2DE9FC4103221F496846FDF716
:102B9000BCFB00208DF803001B48FDF7F7FB80B25B
:102BA000FA280AD919481A49007800EB400051F870
:102BB0002000006805F04EFA1EE0164A124D141867
:102BC000A71A297A84F8241104F5927107F59377EE
:102BD0000E46B8B20122FDF79DFE3146B8B2012281
:102BE000FDF765FE287A94F82411884201D101206E
:102BF00000E0002005F044FA03214FF49C7008F037
:102C0000BBFBBDE8FC8100008E230020B200002049
:102C1000F8B80108F42300200AF006BF7047704797
:102C2000704700000D4808B50078012804D10C4910
:102C3000002008700B49087005F0A4FD10200090DA
:102C400009480A497E230078032200EB400051F82E
:102C500020000021006905F00DFE08BDAE00002037
:102C6000B7000020B9000020B200002018BA010807
:102C70007047704710B50BF0C7F9012005F000FA56
:102C80000AF0D2FE0221BDE81040102008F074BB0B
:102C90000AF0CABE70477047704700002DE9F04344
:102CA000DFF8C481DFF8C4912D2798F80000704D3B
:102CB0000026704C87B001281ED16F486FA10670A6
:102CC00004F12200FDF759FB6EA104F14300FDF76A
:102CD00054FBAB786DA2042120460FF0B5F9E770E4
:102CE000A9786AA209EBC1000421B0F8A633201D1F
:102CF0000FF0AAF984F8216098F8000003283AD16F
:102D000094F82100032836D203225A4901A8FDF77E
:102D1000FCFA8DF8076001A8FDF738FB80B26883E4
:102D2000FA2812D95B485C49007800EB400051F862
:102D30002000006805F08EF9AB7854A204214D48BC
:102D40000FF082F9E770A8786883A97880B288428A
:102D500011D0C3B2AB704DA2042146480FF074F9F4
:102D6000E770AA78201D09EBC20148A2B1F8A6338A
:102D700004210FF069F905F005FD48A101A8FDF750
:102D8000FCFA002101A8FDF7CCFA03223949FDF72E
:102D9000BCFA10258DF80E607E230122002101A8C7
:102DA000009505F067FD94F821003E4FDFF8F880AC
:102DB00003281DD2022005F0ABFE002005F082FEA4
:102DC00094F821000122011901A8FDF79EFA8DF85F
:102DD000056094F82100397898F8002001EBC000D4
:102DE0001838C1B201A805F0EBFC002005F090FEF8
:102DF0002EA101A8FDF7C1FA002101A8FDF791FA63
:102E00000322211DFDF781FA8DF80C607E23042238
:102E1000002101A8009505F02DFD94F82100001F68
:102E200003281DD2022005F073FE002005F04AFEA3
:102E300094F821000122011901A8FDF766FA8DF826
:102E4000056094F82100397898F8002001EBC00063
:102E50003838C1B201A805F0B3FC002005F058FED7
:102E600007B0BDE8F0830000AE000020F42300208E
:102E7000CA0000208E230020B90000203030302D01
:102E8000303030003239392D39393900253033644A
:102E900000000000B2000020F8B80108C9E8B1B88D
:102EA000BAC53A00A8000020A9000020BBA8D1F9AB
:102EB0003A00000010B50AF019FEBDE810400321E9
:102EC0004FF4B47008F058BA10B50AF027FEBDE808
:102ED000104003214FF4B47008F04EBAF8B5032245
:102EE00028496846FDF711FA6846FDF74FFA264E65
:102EF000244903227083091D6846FDF706FA6846D7
:102F0000FDF744FA84B2708BFA2802D8B4F57A7FC0
:102F10000AD31E481E49007800EB400051F82000FB
:102F2000006805F097F827E0C0B21A4DB07005EBC5
:102F3000C00000F2A631A0F8A643401B00F56A705D
:102F400080B20222FDF7E6FCB078022205EBC00059
:102F500000F2A631401B00F56A7080B2FDF7A7FCB5
:102F6000B07805EBC000B0F8A603A04201D1012063
:102F700000E0002005F084F803214FF4B47008F05D
:102F8000FBF9F8BD8E230020CA000020B20000200B
:102F9000F8B80108F42300200AF046BD70477047D6
:102FA0007047000008B505F0EDFB1448154A164BB4
:102FB000007800EB4001124800EB810010600279BC
:102FC0001A70124A00687E2310601020009010488A
:102FD000062250F821000021406805F04BFC0D4806
:102FE0000078022806D10AF055FD0B490020087030
:102FF0000A490870BDE80840FDF78CBEB200002009
:10300000D8B70108C0000020B8000020BC00002094
:1030100018BA0108AE000020B7000020B900002057
:10302000FDF7ECBEFDF76ABF234810B5007809280C
:1030300039D2DFE800F005090D13191F252B2F00E9
:1030400002214FF4C8702AE002214FF4AC7026E050
:103050000AF020FD01214FF4B07020E00AF01AFDC3
:1030600001214FF4B4701AE00AF014FD01214FF46D
:10307000B87014E00AF00EFD01214FF4BC700EE0B0
:103080000AF008FD01214FF4CC7008E001214FF453
:10309000D07004E00AF0FEFC01214FF4F070BDE8AE
:1030A000104008F069B906490448097800EB41006E
:1030B000002130F8020CF2E7B70000206423002062
:1030C000B30000200AF0B0BC08B505F05BFB0F4868
:1030D000104A114B007800EB40010D4800EB8100D5
:1030E000106002791A700D4A00687E23106010206B
:1030F00000900B48062250F821000021406805F09E
:10310000B9FBBDE80840FDF705BE0000B200002095
:10311000B8B90108C0000020B8000020BC000020A1
:1031200018BA0108FDF76ABEFDF7E8BE1B4810B5E6
:103130000078072828D2DFE800F004090E11141ADD
:103140001F000AF0A7FC0121402019E00AF0A2FCB0
:103150000121482014E00221A82011E00221C80129
:103160000EE00AF097FC01214FF4847008E00AF0A9
:1031700091FC0121502003E00AF08CFC0121E820A1
:10318000BDE8104008F0F8B806490548097800EB9A
:103190004100002130F8020CF2E70000B7000020E7
:1031A00064230020B30000200AF03EBC7047704743
:1031B0007047000008B505F0E5FA1548164A174BA8
:1031C000007800EB4001134800EB810010600279A9
:1031D0001A70134A00687E23106010200090114876
:1031E000062250F821000021806805F043FB0E48BC
:1031F0000078022808D10AF04DFC0C480C4990F8E0
:10320000210008700B490870BDE80840FDF782BD39
:10321000B2000020B0B80108C0000020B8000020B3
:10322000BC00002018BA0108AE000020F4230020E2
:10323000B7000020B9000020FDF7E0BDFDF75EBE3D
:1032400070B50AF027FC05F09DFA0E480E4D0E49A8
:103250000478213105F8214F01220E462320FDF785
:1032600059FB012231462320FDF721FB2878A0429B
:1032700001D1012000E0002004F002FFBDE8704011
:103280000AF0D2BBB7000020F42300200AF0CCBB28
:10329000704770477047000008B505F073FA14488E
:1032A000154A164B007800EB4001124800EB8100F4
:1032B000106002791A70124A00687E231060102094
:1032C00000901048062250F821000021406805F0C7
:1032D000D1FA0D480078022806D10AF0DBFB0B4931
:1032E000002008700A490870BDE80840FDF712BDCB
:1032F000B200002098B80108C0000020B8000020EB
:10330000BC00002018BA0108AE000020B700002061
:10331000B9000020FDF772BDFDF7F0BD254810B5DE
:10332000007809283CD2DFE800F0050A0F151B21C0
:10333000272D33000AF0AEFB0121C0202CE00AF05B
:10334000A9FB0121C82027E00AF0A4FB01214FF4CA
:10335000887021E00AF09EFB01214FF48C701BE085
:103360000AF098FB01214FF4907015E00AF092FBEF
:1033700001214FF4F4700FE00AF08CFB01214FF4AF
:10338000F87009E00AF086FB01214FF4FC7003E0BD
:103390000AF080FB01214802BDE8104007F0ECBFB5
:1033A00006490548097800EB4100002130F8020C7D
:1033B000F2E70000B700002064230020B3000020E3
:1033C0000AF032BB704770477047000008B505F03F
:1033D000D9F91548164A174B007800EB40011348FD
:1033E00000EB8100106002791A70134A00687E2396
:1033F0001060102000901148062250F82100002192
:10340000806805F037FA0E480078022808D10AF0E3
:1034100041FB0C480C4990F8960308700B49087062
:10342000BDE80840FDF776BCB200002068B801088E
:10343000C0000020B8000020BC00002018BA01081D
:10344000AE000020F4230020B7000020B9000020C7
:10345000FDF7D4BCFDF752BD2DE9F0410AF01AFB8F
:1034600005F090F90F48104D4FF46676047805F298
:10347000963185F8964301220F463046FDF74AFA09
:10348000012239463046FDF712FA95F89603A0421C
:1034900001D1012000E0002004F0F2FDBDE8F04180
:1034A0000AF0C2BAB7000020F42300200AF0BCBA28
:1034B00070477047704700002DE9F043DFF8D08176
:1034C000DFF8D0912D2798F80000734D0026734C3B
:1034D00087B001281ED1724872A1067004F1220043
:1034E000FCF74BFF72A104F14300FCF746FFEB78B9
:1034F00072A2042120460EF0A7FDE770E97871A2C0
:1035000009EBC1000521B0F8A833201D0EF09CFD89
:1035100084F8216098F8000003283AD194F821003B
:10352000032836D203225D4901A8FCF7EEFE8DF890
:10353000076001A8FCF72AFF80B2A883FA2812D9F5
:1035400062486349007800EB400051F820000068B1
:1035500004F080FDEB7859A2042150480EF074FD70
:10356000E770E878A883E97880B2884211D0C3B2C6
:10357000EB7052A2042149480EF066FDE770EA782C
:10358000201D09EBC2014FA2B1F8A83305210EF0AE
:103590005BFD05F0F7F84FA101A8FCF7EEFE002156
:1035A00001A8FCF7BEFE03223C49FCF7AEFE102545
:1035B0008DF80E607E230122002101A8009505F000
:1035C00059F994F82100454FDFF8148103281DD2E2
:1035D000022005F09DFA002005F074FA94F821000D
:1035E0000122011901A8FCF790FE8DF8056094F8FE
:1035F0002100397898F8002001EBC0001838C1B2DA
:1036000001A805F0DDF8002005F082FA35A101A837
:10361000FCF7B3FE002101A8FCF783FE0422211D64
:10362000FCF773FE8DF80F60002101A8FCF779FE0E
:103630002EA1FCF7A2FE7E230422002101A8009502
:1036400005F018F994F82100001F04281DD202206B
:1036500005F05EFA002005F035FA94F82100012209
:10366000011901A8FCF751FE8DF8056094F82100BE
:10367000397898F8002001EBC0005038C1B201A899
:1036800005F09EF8002005F043FA07B0BDE8F0838E
:10369000AE000020F4230020CA0000208E2300206A
:1036A000B90000203030302D3030303000000000C4
:1036B0003239392D39393939000000002530336469
:1036C000000000002530346400000000B20000203B
:1036D000F8B80108C9E8B1B8BAC53A00A800002096
:1036E000A9000020B5C6D6E9CAFD3A00B8F6000028
:1036F00010B50AF0FBF9BDE8104003214FF4BC708F
:1037000007F03ABE10B50AF009FABDE810400321EF
:103710004FF4BC7007F030BE7CB5032228496846E0
:10372000FCF7F3FD6846FCF731FE264E24490422DF
:10373000B083091D6846FCF7E8FD6846FCF726FEE5
:1037400084B2B08BFA2802D8B4F5006F0AD91E48AB
:103750001E49007800EB400051F82000006804F09A
:1037600079FC27E0C0B21A4DF07005EBC00000F5FF
:103770006A71A0F8A843401B00F2AA3080B202226E
:10378000FDF7C8F8F078022205EBC00000F56A7179
:10379000401B00F2AA3080B2FDF789F8F07805EB03
:1037A000C000B0F8A803A04201D1012000E0002031
:1037B00004F066FC03214FF4BC7007F0DDFD7CBD16
:1037C0008E230020CA000020B2000020F8B80108B3
:1037D000F42300200AF028B938B504F0D3FF144CC4
:1037E000154A164B207800EB4001124800EB81008F
:1037F000106002791A70124A00687E23106010204F
:1038000000901048062250F821000021806805F041
:1038100031F80D480078022806D10AF03BF90B492F
:10382000207808700A490870BDE83840FDF772BA80
:10383000B200002000BA0108C0000020B80000203B
:10384000BC00002018BA0108AE000020B70000201C
:10385000B9000020FDF7D2BAFDF750BB10B50AF051
:1038600019F904F08FFF0E480E4C007808B10128BA
:1038700003D120700A2004F087FF20780A4C02222E
:10388000A11C60800420FDF745F80222A11C042041
:10389000FDF70DF804F076FFBDE810400AF0C4B85B
:1038A000B7000020B2000020F42300200AF0BCB8CA
:1038B00070477047704700002DE9F043DFF8D4816E
:1038C000DFF8D4912D2798F80000744D0026744C31
:1038D00087B001281ED1734873A1067004F122003D
:1038E000FCF74BFD72A104F14300FCF746FD2B7978
:1038F00071A2042120460EF0A7FBE770297970A27F
:1039000009EBC100022190F8AD33201D0EF09CFBA5
:1039100084F8216098F8000003283AD194F8210037
:10392000032836D203225E4901A8FCF7EEFC8DF88D
:10393000076001A8FCF72AFD80B2E883FA2812D9B3
:1039400061486249007800EB400051F820000068AF
:1039500004F080FB2B7958A2042151480EF074FB2F
:10396000E7702879E883297980B2884211D0C3B200
:103970002B7151A204214A480EF066FBE7702A79A8
:10398000201D09EBC2014EA291F8AD3302210EF0C9
:103990005BFB04F0F7FE4EA101A8FCF7EEFC002152
:1039A00001A8FCF7BEFC03223D49FCF7AEFC102742
:1039B0008DF80E607E230122002101A8009704F0FB
:1039C00059FF94F82100DFF81081DFF810910328E7
:1039D0001ED2022005F09CF8002005F073F894F840
:1039E00021000122011901A8FCF78FFC8DF8056068
:1039F00094F8211098F8000099F8002000EBC1001D
:103A00001838C1B201A804F0DBFE002005F080F8F0
:103A10000122211D01A8FCF778FC8DF8056001A8A2
:103A2000FCF7B4FCC5B22EA101A8FCF7A6FC00214E
:103A300001A8FCF776FC2D4E56F82510FCF79DFCEE
:103A40007E230422002101A8009704F013FF94F8BC
:103A5000210004281AD1022005F05AF8002005F0B0
:103A600031F856F8251001A8FCF787FC94F82110CE
:103A700098F8000099F8002000EBC1003038C1B27E
:103A800001A804F09DFE002005F042F807B0BDE853
:103A9000F0830000AE000020F4230020CA000020C4
:103AA0008E230020B90000203030302D300000007F
:103AB0003239392D33000000253033640000000016
:103AC0002530316400000000B2000020F8B8010881
:103AD000C9E8B1B8BAC53A00A8000020A900002082
:103AE000D1D5C9ABC4A3CABD3A00000084E4010823
:103AF00010B509F0FBFFBDE8104003214FF4F07052
:103B000007F03ABC10B50AF009F8BDE810400321EF
:103B10004FF4F07007F030BCF8B503222A4968462C
:103B2000FCF7F3FB00248DF803406846FCF72EFCFD
:103B3000264E25490122F083091D6846FCF7E5FB66
:103B40008DF801406846FCF721FC84B2F08BFA281E
:103B500001D8032C0AD91E481E49007800EB40000A
:103B600051F82000006804F075FA27E0C0B21A4D41
:103B7000307105EBC00000F2AD3180F8AD43401B61
:103B800000F2AF3080B20122FCF7C4FE307901228E
:103B900005EBC003581B00F2AF3003F2AD3180B229
:103BA000FCF785FE307905EBC00090F8AD03A0422C
:103BB00001D1012000E0002004F062FA03214FF45B
:103BC000F07007F0D9FBF8BD8E230020CA0000205A
:103BD000B2000020F8B80108F423002009F024BF47
:103BE000704770477047000038B5234800780128B7
:103BF00018D12248002422A104702348FCF7BDFB01
:103C0000214822A12130FCF7B8FB224822A205213D
:103C1000B0F8A73B1C4822380EF016FA1A48223892
:103C200080F8214004F0AEFD1D4C1020009020785B
:103C30001C4900EB40007E2351F820001A49012264
:103C4000097850F82100002104F014FE10237E2290
:103C50000421272009F0A0FF2078144900EB400040
:103C600051F82000124940680A7812490978BDE8E5
:103C7000384004F0A5BD0000AE000020B9000020CF
:103C80003030303000000000B0230020393939399D
:103C900000000000F4230020253034640000000000
:103CA000B2000020D8B70108B700002010B9010801
:103CB000A9000020A800002010B509F017FFBDE8FA
:103CC000104003214FF4CC7007F056BB10B509F03B
:103CD00025FFBDE8104003214FF4CC7007F04CBB2A
:103CE0002DE9F0411248FCF751FB124D84B205F664
:103CF000A73140F6A936A5F8A74B02220F46304659
:103D0000FCF708FE022239463046FCF7D0FDB5F834
:103D1000A70BA04201D1012000E0002004F0B0F97F
:103D2000BDE8F04103214FF4CC7007F025BB000043
:103D30008E230020F423002009F076BE70477047E0
:103D4000704700002DE9F04F8348844C002501782E
:103D500087B004F1080B012926D1814881A10570A3
:103D600004F12200FCF709FB81A104F14300FCF7F8
:103D700004FB824E82A2042196F8A233204606F26A
:103D8000A2360EF061F92D27E77073787CA204212A
:103D9000201D0EF059F9E771B37879A20421584635
:103DA0000EF052F984F8215004F0ECFCDFF8D8A1B1
:103DB0004FF01008CDF800809AF80000734900EB2E
:103DC0004000002251F820007149464657460978C4
:103DD0007E2350F82100114604F04CFD3878DFF8BE
:103DE000B49100EB400159F82100016801A8FCF7EB
:103DF000C4FA002101A8FCF794FA03225749FCF702
:103E000084FA8DF80A507E230222002101A8009630
:103E100004F030FD94F821005F4E604F03281CD25F
:103E2000022004F075FE002004F04CFE94F82100FE
:103E30000122011901A8FCF768FA8DF8055094F8E1
:103E4000210031783A7801EBC0001838C1B201A8DE
:103E500004F0B6FC002004F05BFE9AF8000000EBD2
:103E6000400159F82100416801A8FCF786FA0021B9
:103E700001A8FCF756FA0322211DFCF746FA8DF83B
:103E80000A507E230422002101A8CDF8008004F00E
:103E9000F1FC94F82100001F03281CD2022004F03A
:103EA00037FE002004F00EFE94F8210001220119D3
:103EB00001A8FCF72AFA8DF8055094F82100317812
:103EC0003A7801EBC0003838C1B201A804F078FCA0
:103ED000002004F01DFE9AF8000000EB400159F8A4
:103EE0002100816801A8FCF748FA002101A8FCF72D
:103EF00018FA03225946FCF708FA8DF80A507E2377
:103F00000622002101A8CDF8008004F0B3FC94F84B
:103F1000210007281CD9022004F0FAFD002004F03B
:103F2000D1FD94F821000122011901A8FCF7EDF957
:103F30008DF8055094F8210031783A7801EBC000F3
:103F40005838C1B201A804F03BFC002004F0E0FDA9
:103F500007B0BDE8F08F0000AE0000208E230020E7
:103F6000B90000203030302D3030302D303030006E
:103F70003939392D3939392D39393900F4230020AF
:103F80002530336400000000B2000020D8B70108DB
:103F9000B7000020C0B70108A8000020A900002039
:103FA00010B509F0A3FD0321BDE81040C80107F0DA
:103FB000E3B910B509F0B2FD0321BDE81040C80116
:103FC00007F0DAB92DE9FE4F3CA00322006800900B
:103FD0003B496846FCF799F96846FCF7D7F9384938
:103FE00086B20322091D6846FCF78FF96846FCF784
:103FF000CDF9334985B2032208316846FCF785F9CB
:104000006846FCF7C3F984B2FF2E03D8FF2D01D810
:10401000FF2C0AD92B482C49007800EB400051F8BE
:104020002000006804F016F841E0284F4FF469784A
:1040300007F2A23187F8A26387F8A35387F8A44355
:10404000012240460291FCF765FC07F2A33140F2E1
:10405000A53A012250460191FCF75CFC07F5697115
:1040600040F2A63901228B464846FCF753FC012258
:1040700040460299FCF71BFC012250460199FCF7CF
:1040800016FC012259464846FCF711FC97F8A2039A
:10409000B04209D197F8A303A84205D197F8A40329
:1040A000A04201D1012000E0002003F0E9FF03213C
:1040B000C80107F061F9BDE8FE8F00002A2A2A0036
:1040C0008E230020B2000020F8B80108F42300205D
:1040D00009F0AABC704770477047000008B504F0AB
:1040E00051FB1448154A164B007800EB400112486A
:1040F00000EB8100106002791A70124A00687E237A
:104100001060102000901048062250F82100002175
:10411000406804F0AFFB0D480078022806D109F092
:10412000B9FC0B49002008700A490870BDE8084036
:10413000FCF7F0BDB200002090B70108C0000020DD
:10414000B8000020BC00002018BA0108AE00002012
:10415000B7000020B9000020FCF750BEFCF7CEBE2F
:104160000E4810B5007850B101280ED00D490C480A
:10417000097800EB4100002130F8020C0AE009F058
:1041800089FC01214FF4D87004E009F083FC01217F
:104190004FF4E070BDE8104007F0EEB8B700002023
:1041A00064230020B300002009F03EBC7047704734
:1041B00070470000F8B51748174C184D00780128D3
:1041C00008D117481749007F207000200870164951
:1041D0002879087004F0D6FA144F10260096387823
:1041E000134900EB40007E2351F8200001220021FA
:1041F000406A04F03FFB00963878217800EB4000DD
:104200007E2355F82000042250F82100002104F0FC
:1042100031FBF8BDAE000020B7000020C8B801088F
:10422000F4230020B9000020B8000020B2000020D4
:10423000D0B9010810B507F0FFFC0321BDE810401C
:10424000902007F099B810B507F00CFD0321BDE8E8
:104250001040902007F090B870B50F4D0F4C02221F
:104260002878A08304F11C010E461E20FCF752FBA7
:10427000022231461E20FCF71AFBA08B29788842C7
:1042800001D1012000E0002003F0FAFEBDE87040FB
:104290000321902007F070B8B7000020F42300201D
:1042A00009F0C2BB704770477047000038B521481D
:1042B0000078012814D120480025204C057020A04A
:1042C00022A2008860841FA002210088A4F8430075
:1042D0001D4890F8203020460DF0B6FE84F821509D
:1042E00004F050FA1B4C1020009020781A4900EB83
:1042F00040007E2351F8200018490122097850F827
:104300002100002104F0B6FA10237E22042133207C
:1043100009F042FC2078124900EB400051F82000DF
:10432000104980680A7810490978BDE8384004F0DF
:1043300047BA0000AE000020B90000208E23002004
:104340003000000039000000F423002025303164E3
:1043500000000000B2000020D0B90108B700002022
:1043600010B90108A9000020A800002010B509F02C
:10437000BDFB0321BDE81040A02006F0FDBF10B535
:1043800009F038FC0321BDE81040A02006F0F4BF7E
:1043900070B51048FBF7FAFF0F4D0F49C4B220313A
:1043A00005F8204F01220E462220FCF7B3FA012225
:1043B00031462220FCF77BFA2878A04201D1012067
:1043C00000E0002003F05CFEBDE870400321A02067
:1043D00006F0D2BF8E230020F423002009F024BB76
:1043E0007047704770470000F8B51748174C184DD4
:1043F0000078012808D117481749807F20700020D5
:10440000087016492879087004F0BCF9144F10267A
:1044100000963878134900EB40007E2351F82000C5
:1044200001220021806A04F025FA0096387821786C
:1044300000EB40007E2355F82000042250F82100B4
:10444000002104F017FAF8BDAE000020B7000020EC
:10445000E0B80108F4230020B9000020B8000020D3
:10446000B2000020D0B9010810B507F0E5FB032128
:10447000BDE81040982006F07FBF10B507F0F2FBB2
:104480000321BDE81040982006F076BF70B50F4DAF
:104490000F4C02222878E08304F11E010E462020F2
:1044A000FCF738FA022231462020FCF700FAE08BB4
:1044B0002978884201D1012000E0002003F0E0FDCE
:1044C000BDE870400321982006F056BFB7000020D9
:1044D000F423002009F0A8BA704770477047000025
:1044E000F8B51848184C194D007801280AD1184819
:1044F00018490078C0F34000207000200870164969
:104500002879087004F03EF9144F10260096387888
:10451000134900EB40007E2351F8200001220021C6
:10452000C06804F0A7F900963878217800EB4000C5
:104530007E2355F82000042250F82100002104F0C9
:1045400099F9F8BDAE000020B700002058B9010865
:10455000F4230020B9000020B8000020B2000020A1
:1045600040B9010810B507F067FB0321BDE8104012
:10457000482006F001BF10B507F074FB0321BDE829
:104580001040482006F0F8BE70B5114D114C0222C3
:104590002978208861F34100208021461046FCF7ED
:1045A000B9F9022221461046FCF781F920782978D2
:1045B000C0F34000884201D1012000E0002003F058
:1045C0005FFDBDE870400321482006F0D5BE000025
:1045D000B7000020F423002009F026BA7047704786
:1045E000704700002DE9F8431B481A4CDFF86C8037
:1045F0000078257801280AD119481A4990F8A90BA2
:10460000207000200870184998F80400087004F021
:10461000B9F8164F102600963878154900EB40007F
:104620007E2351F820000122002150F8250004F0DB
:1046300021F9009638787E2300EB4001042258F8D7
:104640002100217850F82100002104F013F9BDE881
:10465000F8830000B7000020AE00002058B9010820
:10466000F4230020B9000020B8000020B200002090
:1046700090B7010810B507F0DFFABDE8104003213C
:104680004FF4D47006F078BE10B507F0EBFABDE831
:10469000104003214FF4D47006F06EBE2DE9F041B6
:1046A000164D174C40F6AB36287884F8A90B04F663
:1046B000A93101220F463046FCF72CF90122394678
:1046C0003046FCF7F4F894F8A90B2978884201D118
:1046D000012000E0002003F0D3FC94F8A91B094856
:1046E000012908D001210170BDE8F04103214FF4F8
:1046F000D47006F041BE0021F5E70000B7000020AD
:10470000F4230020CE0E002009F08EB970477047C8
:10471000704700002DE9F04FFB4D0024FB4F287837
:1047200087B001280FD1FA48FAA1047007F12200DE
:10473000FBF723FEFEA107F14300FBF71EFE0DF081
:104740003FFA87F821402878DFF80084DFF800A4DA
:10475000032851D197F821002D2602282AD20222BF
:10476000EA4901A8FBF7D1FD8DF8064001A8FBF747
:104770000DFEC0B2454688F80900092812D99AF8FA
:104780000000F44900EB400051F82000006803F0FD
:1047900061FC6B79F0A20321DC480DF055FCBE7082
:1047A000687968726979C0B2884225D068710DF065
:1047B00007FA21E005281FD10122791D01A8FBF786
:1047C000A4FD8DF8054001A8FBF7E0FD88F8060080
:1047D000E34A98F8051002EBC101012291F8AC1BE5
:1047E0008240114201D0012300E00023DDA202211A
:1047F000F81D0DF029FC3E7203F0C4FF0122F91CE4
:1048000001A8FBF782FDA1468DF8054001A8FBF742
:10481000BDFDC6B2D5A101A8FBF7AFFD002101A8DF
:10482000FBF77FFD0222B949FBF76FFD8DF80D40C4
:10483000002101A8FBF775FDCEA1FBF79EFD00212D
:1048400001A8FBF76EFD9AF80020DFF82CB302EB0D
:1048500042025BF8221051F82610FBF78EFD002172
:1048600001A8FBF75EFDC5A1002209880180102088
:1048700000907E23114601A803F0FCFF97F8210069
:10488000BF4CC04D02281CD2022004F041F9002088
:1048900004F018F997F821000122C11901A8FBF7CB
:1048A00034FD8DF8059097F8210021782A7801EBE6
:1048B000C0003838C1B201A803F082FF002004F024
:1048C00027F997F8210003281ED1022004F020F9CF
:1048D000002004F0F7F89AF8000000EB40015BF8C4
:1048E000210050F8261001A8FBF747FD97F821009A
:1048F00021782A7801EBC0003038C1B201A803F05A
:104900005FFF002004F004F90122791D01A8FBF7E4
:10491000FCFC00268DF8056001A8FBF737FD88F840
:104920000600C1460122F91D01A8FBF7EEFC8DF837
:10493000056001A8FBF72AFDC6B293A101A8FBF709
:104940001CFD98F806000DF059FA8046002101A8D8
:10495000FBF7E7FC4146FBF710FD002101A8FBF740
:10496000E0FC84A1FBF709FD002101A8FBF7D9FCBD
:104970009AF8001001EB41025BF8221051F8261062
:10498000FBF7FBFC002101A8FBF7CBFC7BA14FF060
:104990001008098801807E230222002101A8CDF899
:1049A000008003F067FF97F8210005281BD1022043
:1049B00004F0AEF8002004F085F899F806000DF038
:1049C0001DFA014601A8FBF7D8FC97F821002178D1
:1049D0002A7801EBC0006038C1B201A803F0F0FEF4
:1049E000002004F095F897F8210007281ED1022036
:1049F00004F08EF8002004F065F89AF8000000EB4F
:104A000040015BF8210050F8261001A8FBF7B5FC27
:104A100097F8211020782A7800EBC1005038C1B2F5
:104A200001A803F0CDFE002004F072F857A0002189
:104A30000088ADF8040001A8FBF773FC3349082295
:104A40000931FBF762FC00268DF80D60314601A8A4
:104A5000FBF767FC4EA1FBF790FC7E2304220021AC
:104A600001A8CDF8008003F005FF97F82100093870
:104A700002281CD2022004F04BF8002004F022F897
:104A800097F821000122C11901A8FBF73EFC8DF81F
:104A9000056097F8210021782A7801EBC000B03832
:104AA000C1B201A803F08CFE002004F031F897F8A1
:104AB00021000C3802281CD2022004F029F8002022
:104AC00004F000F897F821000122C11901A8FBF7B2
:104AD0001CFC8DF8056097F8210021782A7801EBFD
:104AE000C000B038C1B201A803F06AFE002004F093
:104AF0000FF897F821000F38022866D2022004F040
:104B000007F8002048E00000AE0000208E230020BF
:104B1000B900002030302D302D312D302D30303A7D
:104B200030303A30302D30303A30303A30300000CA
:104B300039392D312D372D312D32393A35393A3534
:104B4000392D32393A35393A35390000CA0000205A
:104B5000B2000020F8B801082530326400000000DF
:104B6000F42300202530316400000000B6A8CAB14B
:104B7000C6F75B005D5B000058B901085D000000EE
:104B8000A8000020A9000020D0C7C6DA5B00000002
:104B90005DB4F2BFAA00000003F094FF97F8210073
:104BA0000122C11901A8FBF7B0FB8DF8056097F849
:104BB000210021782A7801EBC000B038C1B201A8E9
:104BC00003F0FEFD002003F0A3FFAFF240000088D9
:104BD000ADF80400002101A8FBF7A3FB08223E4921
:104BE000FBF793FB8DF80D60002101A8FBF799FB03
:104BF0003AA1FBF7C2FB7E230622002101A8CDF8D3
:104C0000008003F037FE97F82100123802281CD2EA
:104C1000022003F07DFF002003F054FF97F82100ED
:104C20000122C11901A8FBF770FB8DF8056097F808
:104C3000210021782A7801EBC000F838C1B201A820
:104C400003F0BEFD002003F063FF97F82100153844
:104C500002281CD2022003F05BFF002003F032FF89
:104C600097F821000122C11901A8FBF74EFB8DF82E
:104C7000056097F8210021782A7801EBC000F83808
:104C8000C1B201A803F09CFD002003F041FF97F89A
:104C90002100183802281CD2022003F039FF00201E
:104CA00003F010FF97F821000122C11901A8FBF7BA
:104CB0002CFB8DF8056097F8210021782A7801EB0C
:104CC000C000F838C1B201A803F07AFD002003F05B
:104CD0001FFF07B0BDE8F08FA02300205DB9D8B159
:104CE000D500000010B508F001FFBDE81040032119
:104CF0004FF4DC7006F040BB10B508F00FFFBDE8C4
:104D0000104003214FF4DC7006F036BB70B588B05C
:104D1000022272496846FBF7F8FA00248DF8024037
:104D20006846FBF733FB6E4D6C4E01226872F11C36
:104D30006846FBF7EAFA8DF801406846FBF726FB68
:104D40008DF814000122711D6846FBF7DEFA8DF81C
:104D500001406846FBF71AFBA8710122F11D684665
:104D6000FBF7D3FA8DF801406846FBF70FFBA872FA
:104D70005C4E6979012306EBC10191F8AC2BA9794E
:104D80008B4088409A43024354498DF815200222F3
:104D900009316846FBF7B9FA8DF802406846FBF71F
:104DA000F5FA4E498DF8160002220C316846FBF7E1
:104DB000ACFA8DF802406846FBF7E8FA47498DF8EF
:104DC000170002220F316846FBF79FFA8DF8024068
:104DD0006846FBF7DBFA41498DF8180002221231D0
:104DE0006846FBF792FA8DF802406846FBF7CEFA68
:104DF0003A498DF81900022215316846FBF785FA09
:104E00008DF802406846FBF7C1FA34498DF81A0064
:104E1000022218316846FBF778FA8DF8024068469E
:104E2000FBF7B4FAC1B28DF81B10687A0A2815D8BE
:104E30009DF81620172A11D89DF817203B2A0DD867
:104E40009DF818203B2A09D89DF81920172A05D863
:104E50009DF81A203B2A01D83B290AD92248234928
:104E6000007800EB400051F82000006803F0F2F8F1
:104E70002AE0687106EBC0000599C0F8AB1B0699E3
:104E8000C0F8AF1B00F6AB31801B00F6AD3080B22E
:104E90000822FBF73FFD6879082206EBC003981B48
:104EA00000F6AD3003F6AB3180B2FBF700FD687958
:104EB000082206EBC00105A801F6AB31FBF750FA5A
:104EC00048B1002003F0DCF803214FF4DC7006F059
:104ED00053FA08B070BD0120F4E700008E230020D3
:104EE000CA000020F4230020B2000020F8B8010816
:104EF00008F09ABD704770477047000038B52348E6
:104F00000078012818D12248002422A104702348E7
:104F1000FBF733FA214822A12130FBF72EFA224871
:104F200022A20521B0F8A0331C4822380DF08CF8DD
:104F30001A48223880F8214003F024FC1D4C102030
:104F4000009020781C4900EB40007E2351F820009F
:104F50001A490122097850F82100002103F08AFC47
:104F600010237E220421272008F016FE2078144901
:104F700000EB400051F82000124980680A7812497D
:104F80000978BDE8384003F01BBC0000AE000020EB
:104F9000B90000203030303000000000B023002085
:104FA0003939393900000000F423002025303464F9
:104FB00000000000B2000020D8B70108B7000020B0
:104FC00010B90108A9000020A800002010B508F0C1
:104FD0008DFDBDE8104003214FF4B87006F0CCB948
:104FE00010B508F09BFDBDE8104003214FF4B870E8
:104FF00006F0C2B92DE9F0411948FBF7C7F984B2B0
:10500000B4F5006F0AD917481749007800EB400043
:1050100051F82000006803F01DF819E0134D40F22C
:10502000A23605F56871A5F8A04302220F46304666
:10503000FBF770FC022239463046FBF738FCB5F826
:10504000A003A04201D1012000E0002003F018F8E5
:10505000BDE8F04103214FF4B87006F08DB90000AF
:105060008E230020B2000020F8B80108F4230020AD
:1050700008F0DABC08B503F085FB0F48104A114B65
:10508000007800EB40010D4800EB810010600279D0
:105090001A700D4A00687E231060102000900B48A3
:1050A000062250F821000021406803F0E3FBBDE830
:1050B0000840FBF72FBE0000B2000020E8B901084D
:1050C000C0000020B8000020BC00002018BA010871
:1050D000FBF794BEFBF712BF10B508F0DBFC03F042
:1050E00051FB03F04FFBBDE8104008F09DBC08F0F9
:1050F0009BBC704770477047F8B51848184C194D5D
:10510000007801280AD118481849007800F00100F9
:1051100020700020087016492879087003F032FBCF
:10512000144F102600963878134900EB40007E2378
:1051300051F8200001220021806803F09BFB0096BB
:105140003878217800EB40007E2355F820000422B7
:1051500050F82100002103F08DFBF8BDAE000020C7
:10516000B700002058B90108F4230020B90000203E
:10517000B8000020B200002040B9010810B506F0C8
:105180005BFD0321BDE81040402006F0F5B810B5E6
:1051900006F068FD0321BDE81040402006F0ECB8A1
:1051A00070B5114D114C02222978208861F300005E
:1051B000208021461046FBF7ADFB02222146104617
:1051C000FBF775FB2078297800F00100884201D1B7
:1051D000012000E0002002F053FFBDE870400321F1
:1051E000402006F0C9B80000B7000020F4230020DA
:1051F00008F01ABC70477047704700002DE9F04F67
:10520000DFF85493D74CDFF8548399F800102D271A
:10521000D34D002687B004F10A0B012934D1D248BE
:10522000D2A1067004F12200FBF7A7F8D3A104F184
:105230004300FBF7A2F86B78D4A2042120460CF0BF
:1052400003FFE7706978D3A208EBC100032190F84F
:10525000AA33201D0CF0F8FEA7716978CDA208EBE7
:10526000C100032190F8AB33E01D0CF0EDFE677236
:105270006978C8A208EBC100032190F8AC33584606
:105280000CF0E2FE84F8216099F80000DFF80C933E
:10529000032850D194F8210003284CD20322B149AD
:1052A00001A8FBF732F88DF8076001A8FBF76EF84C
:1052B00080B22883FA2812D999F80000B84900EB87
:1052C000400051F82000006802F0C4FE6B78AFA2E5
:1052D0000421A4480CF0B8FEE77068782883697848
:1052E00080B2884227D0C3B26B70A8A204219D4827
:1052F0000CF0AAFEE7706978A6A208EBC1000321B2
:1053000090F8AA33201D0CF09FFEA7716978A1A226
:1053100008EBC100032190F8AB33E01D0CF094FEC4
:10532000677269789BA208EBC100032190F8AC3347
:1053300058460CF089FE03F025FA9AA101A8FBF764
:105340001CF8002101A8FAF7ECFF03228549FAF7BF
:10535000DCFF4FF0100800228DF80E607E2311460E
:1053600001A8CDF8008003F085FA94F821008F4D54
:105370008F4F03281CD2022003F0CAFB002003F049
:10538000A1FB94F821000122011901A8FAF7BDFF41
:105390008DF8056094F8210029783A7801EBC00077
:1053A0001838C1B201A803F00BFA002003F0B0FBDB
:1053B00099F80000DFF8FCA100EB40015AF8210049
:1053C000016801A8FAF7D9FF002101A8FAF7A9FF9F
:1053D0000222211DFAF799FF8DF80B60002101A828
:1053E000FAF79FFF74A1FAF7C8FF7E23022200217B
:1053F00001A8CDF8008003F03DFA94F82100001FC9
:1054000002281CD2022003F083FB002003F05AFB89
:1054100094F821000122011901A8FAF776FF8DF80E
:10542000056094F8210029783A7801EBC0004838EB
:10543000C1B201A803F0C4F9002003F069FB99F898
:10544000000000EB40015AF82100416801A8FAF77A
:1054500094FF002101A8FAF764FF0222E11DFAF788
:1054600054FF8DF80B60002101A8FAF75AFF52A1F2
:10547000FAF783FF7E230422002101A8CDF80080E3
:1054800003F0F8F994F82100C01F02281CD2022072
:1054900003F03EFB002003F015FB94F821000122ED
:1054A000011901A8FAF731FF8DF8056094F8210081
:1054B00029783A7801EBC0006038C1B201A803F046
:1054C0007FF9002003F024FB99F8000000EB400175
:1054D0005AF82100816801A8FAF74FFF002101A8BE
:1054E000FAF71FFF02225946FAF70FFF8DF80B60FB
:1054F000002101A8FAF715FF2FA1FAF73EFF7E233E
:105500000622002101A8CDF8008003F0B3F994F839
:1055100021000A3802281CD2022003F0F9FA0020E8
:1055200003F0D0FA94F821000122011901A8FAF73A
:10553000ECFE8DF8056094F8210029783A7801EBAB
:10554000C0007838C1B201A803F03AF9002003F096
:10555000DFFA07B0BDE8F08FAE000020F423002092
:10556000CA0000208E230020B90000203030302DEA
:1055700030302D30302D3030000000003239392DE0
:1055800033392D33392D3339000000002530336491
:10559000000000002530326400000000B20000204E
:1055A000F8B80108C9E8B1B8BAC53A00A8000020A7
:1055B000A9000020A8B701086670730010B508F0B4
:1055C00095FABDE8104003214FF4B07005F0D4BE49
:1055D00010B508F0A3FABDE8104003214FF4B070F5
:1055E00005F0CABE2DE9F84359A0032200680090D7
:1055F00058496846FAF789FE00248DF8034068464A
:10560000FAF7C4FE544D534E02222883311D6846DA
:10561000FAF77BFE8DF802406846FAF7B7FE00F015
:10562000FF080222F11D6846FAF76FFE8DF802406E
:105630006846FAF7ABFEC7B2022206F10A016846D5
:10564000FAF763FE8DF802406846FAF79FFEC6B28D
:10565000288BFA2806D8B8F11E0F03D81E2F01D8C0
:105660001E2E0AD93D483E49007800EB400051F813
:105670002000006802F0EEFC63E0C0B2394C6870B4
:1056800004EBC00000F2AA3180F8AA8380F8AB7363
:1056900080F8AC63001B00F56B7080B20122FBF751
:1056A00039F96878012204EBC003181B00F2AD3011
:1056B00003F2AB3180B2FBF72DF96878012204EBDD
:1056C000C003181B00F2AE3003F56B7180B2FBF71C
:1056D00021F96878012204EBC003181B00F56B70F8
:1056E00003F2AA3180B2FBF7E2F86878012204EBFA
:1056F000C00000F2AB31001B00F2AD3080B2FBF70E
:10570000D6F86878012204EBC003181B00F2AE3013
:1057100003F56B7180B2FBF7CAF8687804EBC00040
:1057200090F8AA23424509D190F8AB13B94205D1AC
:1057300090F8AC03B04201D1012000E0002002F05B
:105740009FFC03214FF4B07005F016FEBDE8F8830E
:105750002A2A2A008E230020CA000020B20000203E
:10576000F8B80108F423002008F05EB908B503F08A
:1057700009F80F48104A114B007800EB40010D4822
:1057800000EB8100106002791A700D4A00687E23D8
:105790001060102000900B48062250F821000021D4
:1057A000406803F067F8BDE80840FBF7B3BA0000B3
:1057B000B2000020D0B90108C0000020B8000020CD
:1057C000BC00002018BA0108FBF718BBFBF796BB1A
:1057D000394810B50078122864D2DFE800F0090ECD
:1057E00013181D22272C31363B4043464B50565A46
:1057F00008F050F90121302050E008F04BF9012168
:1058000038204BE008F046F90121582046E008F026
:1058100041F90121602041E008F03CF901216820B4
:105820003CE008F037F90121702037E008F032F948
:105830000121782032E008F02DF9012180202DE0AF
:1058400008F028F90121882028E008F023F9012137
:10585000982023E008F01EF90121A0201EE002217B
:10586000B0201BE00121B82018E008F013F9012155
:10587000F02013E008F00EF90121F8200EE008F006
:1058800009F901214FF4A47008E001214FF4A87038
:1058900004E008F0FFF801214FF4E870BDE8104083
:1058A00005F06ABD06490548097800EB4100002172
:1058B00030F8020CF2E70000B7000020642300205B
:1058C000B300002008F0B0B8704770477047000080
:1058D00038B51D480078012818D11C4800241CA1A7
:1058E00004701C48FAF749FD1A481BA12130FAF749
:1058F00044FD1A481AA2042190F823301548223892
:105900000CF0A2FB1348223880F8214002F03AFF45
:1059100010200090144815497E230078012200EBE6
:10592000400051F820001249097850F82100002168
:1059300002F0A0FF01B01023BDE830407E22042118
:10594000332008F029B90000AE000020B900002083
:1059500030303000B023002039393900F4230020E2
:105960002530336400000000B200002098B8010820
:10597000B700002010B508F0B9F80321BDE81040C9
:10598000C02005F0F9BC10B508F0C8F80321BDE847
:105990001040C02005F0F0BC70B51748FAF7F6FCCF
:1059A00084B2FF2C0AD915481549007800EB400055
:1059B00051F82000006802F04DFB16E0114D11492E
:1059C0000122233105F8234F0E462520FAF7A2FFC6
:1059D000012231462520FAF76AFF2878A04201D13A
:1059E000012000E0002002F04BFBBDE870400321E5
:1059F000C02005F0C1BC00008E230020B2000020B2
:105A0000F8B80108F423002008F00EB8704770477A
:105A1000704700002DE9FE43324E344C2027317888
:105A2000DFF8C480002504F10809012921D130489C
:105A300030A1057004F12200FAF79FFC30A104F1B7
:105A40004300FAF79AFC3020207060703120A0707B
:105A5000E7702D20207160713E20A071E77198F8E9
:105A600024302AA2022148460CF0EEFA657284F82E
:105A700021503078032822D194F8210008281ED024
:105A800003221A4901A8FAF740FC8DF8075017487D
:105A9000FAF77CFC86B2FA2E07D9FA2633461DA205
:105AA000022112480CF0D0FAE77008EB060017A2AA
:105AB00090F82430022148460CF0C6FA657202F0D4
:105AC00061FE102000907E230122002113A002F02D
:105AD000D1FE10237E220421132008F05DF8BDE8DA
